ARM GAS  /tmp/ccwqMvbB.s 			page 1


   1              		.cpu cortex-m4
   2              		.eabi_attribute 20, 1
   3              		.eabi_attribute 21, 1
   4              		.eabi_attribute 23, 3
   5              		.eabi_attribute 24, 1
   6              		.eabi_attribute 25, 1
   7              		.eabi_attribute 26, 1
   8              		.eabi_attribute 30, 2
   9              		.eabi_attribute 34, 1
  10              		.eabi_attribute 18, 4
  11              		.file	"board.c"
  12              		.file 1 "/usr/lib/gcc/arm-none-eabi/9.2.1/include/stddef.h"
  13              		.file 2 "/usr/lib/gcc/arm-none-eabi/9.2.1/include/stdint.h"
  14              		.file 3 "../../../../os/common/ports/ARM-common/chtypes.h"
  15              		.file 4 "../../../../os/rt/include/chearly.h"
  16              		.file 5 "../../../../os/rt/include/chobjects.h"
  17              		.file 6 "../../../../os/rt/include/chrfcu.h"
  18              		.file 7 "../../../../os/rt/include/chdebug.h"
  19              		.file 8 "../../../../os/rt/include/chtime.h"
  20              		.file 9 "../../../../os/rt/include/chlists.h"
  21              		.file 10 "../../../../os/rt/include/chtrace.h"
  22              		.file 11 "../../../../os/common/ext/ARM/CMSIS/Core/Include/core_cm4.h"
  23              		.file 12 "../../../../os/common/ext/ST/STM32F3xx/system_stm32f3xx.h"
  24              		.file 13 "../../../../os/common/ext/ST/STM32F3xx/stm32f303xc.h"
  25              		.file 14 "../../../../os/common/ports/ARMv7-M/chcore.h"
  26              		.file 15 "../../../../os/rt/include/chtm.h"
  27              		.file 16 "../../../../os/rt/include/chsem.h"
  28              		.file 17 "../../../../os/rt/include/chmtx.h"
  29              		.file 18 "../../../../os/rt/include/chsys.h"
  30              		.file 19 "../../../../os/rt/include/chregistry.h"
  31              		.file 20 "../../../../os/oslib/include/chmemcore.h"
  32              		.file 21 "../../../../os/oslib/include/chmempools.h"
  33              		.file 22 "../../../../os/oslib/include/chfactory.h"
  34              		.file 23 "../../../../os/hal/ports/STM32/LLD/DMAv1/stm32_dma.h"
  35              		.file 24 "../../../../os/hal/ports/STM32/LLD/GPIOv2/stm32_gpio.h"
  36              		.file 25 "../../../../os/hal/include/hal_adc.h"
  37              		.file 26 "../../../../os/hal/ports/STM32/LLD/ADCv3/hal_adc_lld.h"
  38              		.file 27 "../../../../os/hal/boards/ST_STM32F3_DISCOVERY/board.c"
  39              		.section	.gnu.debuglto_.debug_info,"e",%progbits
  40              	.Ldebug_info0:
  41              		.hidden	board.c.f57dd1c8
  42              		.weak	board.c.f57dd1c8
  43              	board.c.f57dd1c8:
  44 0000 3C170000 		.4byte	0x173c
  45 0004 0400     		.2byte	0x4
  46 0006 00000000 		.4byte	.Ldebug_abbrev0
  47 000a 04       		.byte	0x4
  48 000b 01       		.uleb128 0x1
  49 000c 040C0000 		.4byte	.LASF321
  50 0010 0C       		.byte	0xc
  51 0011 9F0D0000 		.4byte	.LASF322
  52 0015 3F020000 		.4byte	.LASF323
  53 0019 00000000 		.4byte	.Ldebug_line0
  54 001d 02       		.uleb128 0x2
  55 001e 04       		.byte	0x4
  56 001f 05       		.byte	0x5
  57 0020 696E7400 		.ascii	"int\000"
ARM GAS  /tmp/ccwqMvbB.s 			page 2


  58 0024 03       		.uleb128 0x3
  59 0025 18000000 		.4byte	.LASF5
  60 0029 01       		.byte	0x1
  61 002a D1       		.byte	0xd1
  62 002b 17       		.byte	0x17
  63 002c 30000000 		.4byte	0x30
  64 0030 04       		.uleb128 0x4
  65 0031 04       		.byte	0x4
  66 0032 07       		.byte	0x7
  67 0033 6F070000 		.4byte	.LASF0
  68 0037 04       		.uleb128 0x4
  69 0038 08       		.byte	0x8
  70 0039 05       		.byte	0x5
  71 003a A4060000 		.4byte	.LASF1
  72 003e 04       		.uleb128 0x4
  73 003f 08       		.byte	0x8
  74 0040 04       		.byte	0x4
  75 0041 48080000 		.4byte	.LASF2
  76 0045 04       		.uleb128 0x4
  77 0046 01       		.byte	0x1
  78 0047 06       		.byte	0x6
  79 0048 90020000 		.4byte	.LASF3
  80 004c 04       		.uleb128 0x4
  81 004d 02       		.byte	0x2
  82 004e 05       		.byte	0x5
  83 004f C70A0000 		.4byte	.LASF4
  84 0053 03       		.uleb128 0x3
  85 0054 AA000000 		.4byte	.LASF6
  86 0058 02       		.byte	0x2
  87 0059 28       		.byte	0x28
  88 005a 18       		.byte	0x18
  89 005b 64000000 		.4byte	0x64
  90 005f 05       		.uleb128 0x5
  91 0060 53000000 		.4byte	0x53
  92 0064 04       		.uleb128 0x4
  93 0065 04       		.byte	0x4
  94 0066 05       		.byte	0x5
  95 0067 D7010000 		.4byte	.LASF7
  96 006b 03       		.uleb128 0x3
  97 006c A3020000 		.4byte	.LASF8
  98 0070 02       		.byte	0x2
  99 0071 2E       		.byte	0x2e
 100 0072 18       		.byte	0x18
 101 0073 7C000000 		.4byte	0x7c
 102 0077 06       		.uleb128 0x6
 103 0078 6B000000 		.4byte	0x6b
 104 007c 04       		.uleb128 0x4
 105 007d 01       		.byte	0x1
 106 007e 08       		.byte	0x8
 107 007f E9020000 		.4byte	.LASF9
 108 0083 03       		.uleb128 0x3
 109 0084 27090000 		.4byte	.LASF10
 110 0088 02       		.byte	0x2
 111 0089 31       		.byte	0x31
 112 008a 19       		.byte	0x19
 113 008b 8F000000 		.4byte	0x8f
 114 008f 04       		.uleb128 0x4
ARM GAS  /tmp/ccwqMvbB.s 			page 3


 115 0090 02       		.byte	0x2
 116 0091 07       		.byte	0x7
 117 0092 0C0D0000 		.4byte	.LASF11
 118 0096 03       		.uleb128 0x3
 119 0097 F50C0000 		.4byte	.LASF12
 120 009b 02       		.byte	0x2
 121 009c 34       		.byte	0x34
 122 009d 19       		.byte	0x19
 123 009e A7000000 		.4byte	0xa7
 124 00a2 05       		.uleb128 0x5
 125 00a3 96000000 		.4byte	0x96
 126 00a7 04       		.uleb128 0x4
 127 00a8 04       		.byte	0x4
 128 00a9 07       		.byte	0x7
 129 00aa 22050000 		.4byte	.LASF13
 130 00ae 03       		.uleb128 0x3
 131 00af 060B0000 		.4byte	.LASF14
 132 00b3 02       		.byte	0x2
 133 00b4 37       		.byte	0x37
 134 00b5 19       		.byte	0x19
 135 00b6 BF000000 		.4byte	0xbf
 136 00ba 05       		.uleb128 0x5
 137 00bb AE000000 		.4byte	0xae
 138 00bf 04       		.uleb128 0x4
 139 00c0 08       		.byte	0x8
 140 00c1 07       		.byte	0x7
 141 00c2 09090000 		.4byte	.LASF15
 142 00c6 03       		.uleb128 0x3
 143 00c7 62070000 		.4byte	.LASF16
 144 00cb 03       		.byte	0x3
 145 00cc 36       		.byte	0x36
 146 00cd 1D       		.byte	0x1d
 147 00ce 96000000 		.4byte	0x96
 148 00d2 03       		.uleb128 0x3
 149 00d3 5B090000 		.4byte	.LASF17
 150 00d7 03       		.byte	0x3
 151 00d8 48       		.byte	0x48
 152 00d9 1D       		.byte	0x1d
 153 00da AE000000 		.4byte	0xae
 154 00de 03       		.uleb128 0x3
 155 00df 89070000 		.4byte	.LASF18
 156 00e3 04       		.byte	0x4
 157 00e4 4D       		.byte	0x4d
 158 00e5 19       		.byte	0x19
 159 00e6 C6000000 		.4byte	0xc6
 160 00ea 03       		.uleb128 0x3
 161 00eb 0E040000 		.4byte	.LASF19
 162 00ef 04       		.byte	0x4
 163 00f0 50       		.byte	0x50
 164 00f1 19       		.byte	0x19
 165 00f2 D2000000 		.4byte	0xd2
 166 00f6 03       		.uleb128 0x3
 167 00f7 1D0A0000 		.4byte	.LASF20
 168 00fb 04       		.byte	0x4
 169 00fc 53       		.byte	0x53
 170 00fd 19       		.byte	0x19
 171 00fe 6B000000 		.4byte	0x6b
ARM GAS  /tmp/ccwqMvbB.s 			page 4


 172 0102 03       		.uleb128 0x3
 173 0103 ED010000 		.4byte	.LASF21
 174 0107 04       		.byte	0x4
 175 0108 54       		.byte	0x54
 176 0109 19       		.byte	0x19
 177 010a 6B000000 		.4byte	0x6b
 178 010e 03       		.uleb128 0x3
 179 010f D90B0000 		.4byte	.LASF22
 180 0113 04       		.byte	0x4
 181 0114 55       		.byte	0x55
 182 0115 19       		.byte	0x19
 183 0116 6B000000 		.4byte	0x6b
 184 011a 03       		.uleb128 0x3
 185 011b 69000000 		.4byte	.LASF23
 186 011f 04       		.byte	0x4
 187 0120 57       		.byte	0x57
 188 0121 19       		.byte	0x19
 189 0122 96000000 		.4byte	0x96
 190 0126 03       		.uleb128 0x3
 191 0127 4F090000 		.4byte	.LASF24
 192 012b 04       		.byte	0x4
 193 012c 58       		.byte	0x58
 194 012d 19       		.byte	0x19
 195 012e 53000000 		.4byte	0x53
 196 0132 03       		.uleb128 0x3
 197 0133 B5020000 		.4byte	.LASF25
 198 0137 04       		.byte	0x4
 199 0138 5A       		.byte	0x5a
 200 0139 19       		.byte	0x19
 201 013a 96000000 		.4byte	0x96
 202 013e 03       		.uleb128 0x3
 203 013f 63040000 		.4byte	.LASF26
 204 0143 04       		.byte	0x4
 205 0144 5C       		.byte	0x5c
 206 0145 19       		.byte	0x19
 207 0146 53000000 		.4byte	0x53
 208 014a 03       		.uleb128 0x3
 209 014b 01060000 		.4byte	.LASF27
 210 014f 04       		.byte	0x4
 211 0150 5D       		.byte	0x5d
 212 0151 19       		.byte	0x19
 213 0152 96000000 		.4byte	0x96
 214 0156 03       		.uleb128 0x3
 215 0157 AB020000 		.4byte	.LASF28
 216 015b 04       		.byte	0x4
 217 015c 80       		.byte	0x80
 218 015d 12       		.byte	0x12
 219 015e 30000000 		.4byte	0x30
 220 0162 03       		.uleb128 0x3
 221 0163 30080000 		.4byte	.LASF29
 222 0167 04       		.byte	0x4
 223 0168 85       		.byte	0x85
 224 0169 1A       		.byte	0x1a
 225 016a 6E010000 		.4byte	0x16e
 226 016e 07       		.uleb128 0x7
 227 016f 88050000 		.4byte	.LASF44
 228 0173 48       		.byte	0x48
ARM GAS  /tmp/ccwqMvbB.s 			page 5


 229 0174 05       		.byte	0x5
 230 0175 9C       		.byte	0x9c
 231 0176 08       		.byte	0x8
 232 0177 51020000 		.4byte	0x251
 233 017b 08       		.uleb128 0x8
 234 017c 68647200 		.ascii	"hdr\000"
 235 0180 05       		.byte	0x5
 236 0181 AD       		.byte	0xad
 237 0182 05       		.byte	0x5
 238 0183 A50B0000 		.4byte	0xba5
 239 0187 00       		.byte	0
 240 0188 08       		.uleb128 0x8
 241 0189 63747800 		.ascii	"ctx\000"
 242 018d 05       		.byte	0x5
 243 018e B1       		.byte	0xb1
 244 018f 21       		.byte	0x21
 245 0190 B90A0000 		.4byte	0xab9
 246 0194 0C       		.byte	0xc
 247 0195 09       		.uleb128 0x9
 248 0196 53040000 		.4byte	.LASF30
 249 019a 05       		.byte	0x5
 250 019b B6       		.byte	0xb6
 251 019c 21       		.byte	0x21
 252 019d BB030000 		.4byte	0x3bb
 253 01a1 10       		.byte	0x10
 254 01a2 09       		.uleb128 0x9
 255 01a3 63000000 		.4byte	.LASF31
 256 01a7 05       		.byte	0x5
 257 01a8 BB       		.byte	0xbb
 258 01a9 22       		.byte	0x22
 259 01aa B20C0000 		.4byte	0xcb2
 260 01ae 18       		.byte	0x18
 261 01af 09       		.uleb128 0x9
 262 01b0 8A0A0000 		.4byte	.LASF32
 263 01b4 05       		.byte	0x5
 264 01b5 C0       		.byte	0xc0
 265 01b6 22       		.byte	0x22
 266 01b7 53030000 		.4byte	0x353
 267 01bb 1C       		.byte	0x1c
 268 01bc 09       		.uleb128 0x9
 269 01bd D3090000 		.4byte	.LASF33
 270 01c1 05       		.byte	0x5
 271 01c2 C9       		.byte	0xc9
 272 01c3 22       		.byte	0x22
 273 01c4 B80C0000 		.4byte	0xcb8
 274 01c8 20       		.byte	0x20
 275 01c9 09       		.uleb128 0x9
 276 01ca 3D010000 		.4byte	.LASF34
 277 01ce 05       		.byte	0x5
 278 01cf CE       		.byte	0xce
 279 01d0 21       		.byte	0x21
 280 01d1 02010000 		.4byte	0x102
 281 01d5 24       		.byte	0x24
 282 01d6 09       		.uleb128 0x9
 283 01d7 08040000 		.4byte	.LASF35
 284 01db 05       		.byte	0x5
 285 01dc D2       		.byte	0xd2
ARM GAS  /tmp/ccwqMvbB.s 			page 6


 286 01dd 21       		.byte	0x21
 287 01de F6000000 		.4byte	0xf6
 288 01e2 25       		.byte	0x25
 289 01e3 09       		.uleb128 0x9
 290 01e4 7A090000 		.4byte	.LASF36
 291 01e8 05       		.byte	0x5
 292 01e9 D7       		.byte	0xd7
 293 01ea 21       		.byte	0x21
 294 01eb 0E010000 		.4byte	0x10e
 295 01ef 26       		.byte	0x26
 296 01f0 0A       		.uleb128 0xa
 297 01f1 7500     		.ascii	"u\000"
 298 01f3 05       		.byte	0x5
 299 01f4 2801     		.2byte	0x128
 300 01f6 21       		.byte	0x21
 301 01f7 D30B0000 		.4byte	0xbd3
 302 01fb 28       		.byte	0x28
 303 01fc 0B       		.uleb128 0xb
 304 01fd A50B0000 		.4byte	.LASF37
 305 0201 05       		.byte	0x5
 306 0202 2D01     		.2byte	0x12d
 307 0204 21       		.byte	0x21
 308 0205 8E030000 		.4byte	0x38e
 309 0209 2C       		.byte	0x2c
 310 020a 0B       		.uleb128 0xb
 311 020b 260B0000 		.4byte	.LASF38
 312 020f 05       		.byte	0x5
 313 0210 3301     		.2byte	0x133
 314 0212 21       		.byte	0x21
 315 0213 BB030000 		.4byte	0x3bb
 316 0217 30       		.byte	0x30
 317 0218 0B       		.uleb128 0xb
 318 0219 F6010000 		.4byte	.LASF39
 319 021d 05       		.byte	0x5
 320 021e 3901     		.2byte	0x139
 321 0220 21       		.byte	0x21
 322 0221 32010000 		.4byte	0x132
 323 0225 38       		.byte	0x38
 324 0226 0B       		.uleb128 0xb
 325 0227 8F060000 		.4byte	.LASF40
 326 022b 05       		.byte	0x5
 327 022c 4001     		.2byte	0x140
 328 022e 22       		.byte	0x22
 329 022f AC0C0000 		.4byte	0xcac
 330 0233 3C       		.byte	0x3c
 331 0234 0B       		.uleb128 0xb
 332 0235 F8050000 		.4byte	.LASF41
 333 0239 05       		.byte	0x5
 334 023a 4401     		.2byte	0x144
 335 023c 21       		.byte	0x21
 336 023d 1A010000 		.4byte	0x11a
 337 0241 40       		.byte	0x40
 338 0242 0B       		.uleb128 0xb
 339 0243 2A040000 		.4byte	.LASF42
 340 0247 05       		.byte	0x5
 341 0248 4B01     		.2byte	0x14b
 342 024a 22       		.byte	0x22
ARM GAS  /tmp/ccwqMvbB.s 			page 7


 343 024b AD040000 		.4byte	0x4ad
 344 024f 44       		.byte	0x44
 345 0250 00       		.byte	0
 346 0251 03       		.uleb128 0x3
 347 0252 91070000 		.4byte	.LASF43
 348 0256 04       		.byte	0x4
 349 0257 8A       		.byte	0x8a
 350 0258 1F       		.byte	0x1f
 351 0259 5D020000 		.4byte	0x25d
 352 025d 0C       		.uleb128 0xc
 353 025e BB040000 		.4byte	.LASF45
 354 0262 9808     		.2byte	0x898
 355 0264 05       		.byte	0x5
 356 0265 8A01     		.2byte	0x18a
 357 0267 08       		.byte	0x8
 358 0268 EB020000 		.4byte	0x2eb
 359 026c 0B       		.uleb128 0xb
 360 026d 170A0000 		.4byte	.LASF46
 361 0271 05       		.byte	0x5
 362 0272 8E01     		.2byte	0x18e
 363 0274 21       		.byte	0x21
 364 0275 E90C0000 		.4byte	0xce9
 365 0279 00       		.byte	0
 366 027a 0B       		.uleb128 0xb
 367 027b 9E0B0000 		.4byte	.LASF47
 368 027f 05       		.byte	0x5
 369 0280 9201     		.2byte	0x192
 370 0282 21       		.byte	0x21
 371 0283 660B0000 		.4byte	0xb66
 372 0287 10       		.byte	0x10
 373 0288 0B       		.uleb128 0xb
 374 0289 4A0B0000 		.4byte	.LASF48
 375 028d 05       		.byte	0x5
 376 028e 9901     		.2byte	0x199
 377 0290 21       		.byte	0x21
 378 0291 8D0B0000 		.4byte	0xb8d
 379 0295 28       		.byte	0x28
 380 0296 0B       		.uleb128 0xb
 381 0297 19040000 		.4byte	.LASF49
 382 029b 05       		.byte	0x5
 383 029c 9E01     		.2byte	0x19e
 384 029e 21       		.byte	0x21
 385 029f 56010000 		.4byte	0x156
 386 02a3 30       		.byte	0x30
 387 02a4 0B       		.uleb128 0xb
 388 02a5 210B0000 		.4byte	.LASF50
 389 02a9 05       		.byte	0x5
 390 02aa A401     		.2byte	0x1a4
 391 02ac 21       		.byte	0x21
 392 02ad 12030000 		.4byte	0x312
 393 02b1 34       		.byte	0x34
 394 02b2 0B       		.uleb128 0xb
 395 02b3 36010000 		.4byte	.LASF51
 396 02b7 05       		.byte	0x5
 397 02b8 A901     		.2byte	0x1a9
 398 02ba 22       		.byte	0x22
 399 02bb 5D0D0000 		.4byte	0xd5d
ARM GAS  /tmp/ccwqMvbB.s 			page 8


 400 02bf 38       		.byte	0x38
 401 02c0 0B       		.uleb128 0xb
 402 02c1 B4090000 		.4byte	.LASF52
 403 02c5 05       		.byte	0x5
 404 02c6 AD01     		.2byte	0x1ad
 405 02c8 21       		.byte	0x21
 406 02c9 62010000 		.4byte	0x162
 407 02cd 3C       		.byte	0x3c
 408 02ce 0A       		.uleb128 0xa
 409 02cf 64626700 		.ascii	"dbg\000"
 410 02d3 05       		.byte	0x5
 411 02d4 B101     		.2byte	0x1b1
 412 02d6 21       		.byte	0x21
 413 02d7 6A030000 		.4byte	0x36a
 414 02db 84       		.byte	0x84
 415 02dc 0B       		.uleb128 0xb
 416 02dd 5E030000 		.4byte	.LASF53
 417 02e1 05       		.byte	0x5
 418 02e2 B601     		.2byte	0x1b6
 419 02e4 21       		.byte	0x21
 420 02e5 1C060000 		.4byte	0x61c
 421 02e9 90       		.byte	0x90
 422 02ea 00       		.byte	0
 423 02eb 03       		.uleb128 0x3
 424 02ec 4A050000 		.4byte	.LASF54
 425 02f0 06       		.byte	0x6
 426 02f1 3F       		.byte	0x3f
 427 02f2 12       		.byte	0x12
 428 02f3 96000000 		.4byte	0x96
 429 02f7 07       		.uleb128 0x7
 430 02f8 53010000 		.4byte	.LASF55
 431 02fc 04       		.byte	0x4
 432 02fd 06       		.byte	0x6
 433 02fe 44       		.byte	0x44
 434 02ff 10       		.byte	0x10
 435 0300 12030000 		.4byte	0x312
 436 0304 09       		.uleb128 0x9
 437 0305 01070000 		.4byte	.LASF56
 438 0309 06       		.byte	0x6
 439 030a 48       		.byte	0x48
 440 030b 21       		.byte	0x21
 441 030c EB020000 		.4byte	0x2eb
 442 0310 00       		.byte	0
 443 0311 00       		.byte	0
 444 0312 03       		.uleb128 0x3
 445 0313 34060000 		.4byte	.LASF57
 446 0317 06       		.byte	0x6
 447 0318 49       		.byte	0x49
 448 0319 03       		.byte	0x3
 449 031a F7020000 		.4byte	0x2f7
 450 031e 07       		.uleb128 0x7
 451 031f 2F0B0000 		.4byte	.LASF58
 452 0323 0C       		.byte	0xc
 453 0324 07       		.byte	0x7
 454 0325 3E       		.byte	0x3e
 455 0326 10       		.byte	0x10
 456 0327 53030000 		.4byte	0x353
ARM GAS  /tmp/ccwqMvbB.s 			page 9


 457 032b 09       		.uleb128 0x9
 458 032c 49030000 		.4byte	.LASF59
 459 0330 07       		.byte	0x7
 460 0331 46       		.byte	0x46
 461 0332 24       		.byte	0x24
 462 0333 59030000 		.4byte	0x359
 463 0337 00       		.byte	0
 464 0338 09       		.uleb128 0x9
 465 0339 B9080000 		.4byte	.LASF60
 466 033d 07       		.byte	0x7
 467 033e 4B       		.byte	0x4b
 468 033f 19       		.byte	0x19
 469 0340 3E010000 		.4byte	0x13e
 470 0344 04       		.byte	0x4
 471 0345 09       		.uleb128 0x9
 472 0346 4A010000 		.4byte	.LASF61
 473 034a 07       		.byte	0x7
 474 034b 4F       		.byte	0x4f
 475 034c 19       		.byte	0x19
 476 034d 3E010000 		.4byte	0x13e
 477 0351 08       		.byte	0x8
 478 0352 00       		.byte	0
 479 0353 0D       		.uleb128 0xd
 480 0354 04       		.byte	0x4
 481 0355 65030000 		.4byte	0x365
 482 0359 05       		.uleb128 0x5
 483 035a 53030000 		.4byte	0x353
 484 035e 04       		.uleb128 0x4
 485 035f 01       		.byte	0x1
 486 0360 08       		.byte	0x8
 487 0361 BC030000 		.4byte	.LASF62
 488 0365 06       		.uleb128 0x6
 489 0366 5E030000 		.4byte	0x35e
 490 036a 03       		.uleb128 0x3
 491 036b 76030000 		.4byte	.LASF63
 492 036f 07       		.byte	0x7
 493 0370 51       		.byte	0x51
 494 0371 03       		.byte	0x3
 495 0372 1E030000 		.4byte	0x31e
 496 0376 03       		.uleb128 0x3
 497 0377 2F000000 		.4byte	.LASF64
 498 037b 08       		.byte	0x8
 499 037c 6D       		.byte	0x6d
 500 037d 12       		.byte	0x12
 501 037e 96000000 		.4byte	0x96
 502 0382 03       		.uleb128 0x3
 503 0383 B2060000 		.4byte	.LASF65
 504 0387 08       		.byte	0x8
 505 0388 79       		.byte	0x79
 506 0389 12       		.byte	0x12
 507 038a 96000000 		.4byte	0x96
 508 038e 03       		.uleb128 0x3
 509 038f FF010000 		.4byte	.LASF66
 510 0393 09       		.byte	0x9
 511 0394 32       		.byte	0x32
 512 0395 18       		.byte	0x18
 513 0396 9A030000 		.4byte	0x39a
ARM GAS  /tmp/ccwqMvbB.s 			page 10


 514 039a 07       		.uleb128 0x7
 515 039b 24020000 		.4byte	.LASF67
 516 039f 04       		.byte	0x4
 517 03a0 09       		.byte	0x9
 518 03a1 38       		.byte	0x38
 519 03a2 08       		.byte	0x8
 520 03a3 B5030000 		.4byte	0x3b5
 521 03a7 09       		.uleb128 0x9
 522 03a8 D60D0000 		.4byte	.LASF68
 523 03ac 09       		.byte	0x9
 524 03ad 39       		.byte	0x39
 525 03ae 1A       		.byte	0x1a
 526 03af B5030000 		.4byte	0x3b5
 527 03b3 00       		.byte	0
 528 03b4 00       		.byte	0
 529 03b5 0D       		.uleb128 0xd
 530 03b6 04       		.byte	0x4
 531 03b7 8E030000 		.4byte	0x38e
 532 03bb 03       		.uleb128 0x3
 533 03bc 34050000 		.4byte	.LASF69
 534 03c0 09       		.byte	0x9
 535 03c1 3F       		.byte	0x3f
 536 03c2 19       		.byte	0x19
 537 03c3 C7030000 		.4byte	0x3c7
 538 03c7 07       		.uleb128 0x7
 539 03c8 630B0000 		.4byte	.LASF70
 540 03cc 08       		.byte	0x8
 541 03cd 09       		.byte	0x9
 542 03ce 45       		.byte	0x45
 543 03cf 08       		.byte	0x8
 544 03d0 EF030000 		.4byte	0x3ef
 545 03d4 09       		.uleb128 0x9
 546 03d5 D60D0000 		.4byte	.LASF68
 547 03d9 09       		.byte	0x9
 548 03da 46       		.byte	0x46
 549 03db 1A       		.byte	0x1a
 550 03dc EF030000 		.4byte	0x3ef
 551 03e0 00       		.byte	0
 552 03e1 09       		.uleb128 0x9
 553 03e2 E10D0000 		.4byte	.LASF71
 554 03e6 09       		.byte	0x9
 555 03e7 47       		.byte	0x47
 556 03e8 1A       		.byte	0x1a
 557 03e9 EF030000 		.4byte	0x3ef
 558 03ed 04       		.byte	0x4
 559 03ee 00       		.byte	0
 560 03ef 0D       		.uleb128 0xd
 561 03f0 04       		.byte	0x4
 562 03f1 BB030000 		.4byte	0x3bb
 563 03f5 03       		.uleb128 0x3
 564 03f6 D9060000 		.4byte	.LASF72
 565 03fa 09       		.byte	0x9
 566 03fb 4E       		.byte	0x4e
 567 03fc 22       		.byte	0x22
 568 03fd 01040000 		.4byte	0x401
 569 0401 07       		.uleb128 0x7
 570 0402 F40A0000 		.4byte	.LASF73
ARM GAS  /tmp/ccwqMvbB.s 			page 11


 571 0406 0C       		.byte	0xc
 572 0407 09       		.byte	0x9
 573 0408 55       		.byte	0x55
 574 0409 08       		.byte	0x8
 575 040a 36040000 		.4byte	0x436
 576 040e 09       		.uleb128 0x9
 577 040f D60D0000 		.4byte	.LASF68
 578 0413 09       		.byte	0x9
 579 0414 56       		.byte	0x56
 580 0415 1A       		.byte	0x1a
 581 0416 36040000 		.4byte	0x436
 582 041a 00       		.byte	0
 583 041b 09       		.uleb128 0x9
 584 041c E10D0000 		.4byte	.LASF71
 585 0420 09       		.byte	0x9
 586 0421 57       		.byte	0x57
 587 0422 1A       		.byte	0x1a
 588 0423 36040000 		.4byte	0x436
 589 0427 04       		.byte	0x4
 590 0428 09       		.uleb128 0x9
 591 0429 AD010000 		.4byte	.LASF74
 592 042d 09       		.byte	0x9
 593 042e 58       		.byte	0x58
 594 042f 19       		.byte	0x19
 595 0430 1A010000 		.4byte	0x11a
 596 0434 08       		.byte	0x8
 597 0435 00       		.byte	0
 598 0436 0D       		.uleb128 0xd
 599 0437 04       		.byte	0x4
 600 0438 F5030000 		.4byte	0x3f5
 601 043c 03       		.uleb128 0x3
 602 043d 08000000 		.4byte	.LASF75
 603 0441 09       		.byte	0x9
 604 0442 5F       		.byte	0x5f
 605 0443 1E       		.byte	0x1e
 606 0444 48040000 		.4byte	0x448
 607 0448 07       		.uleb128 0x7
 608 0449 02080000 		.4byte	.LASF76
 609 044d 0C       		.byte	0xc
 610 044e 09       		.byte	0x9
 611 044f 64       		.byte	0x64
 612 0450 08       		.byte	0x8
 613 0451 7D040000 		.4byte	0x47d
 614 0455 09       		.uleb128 0x9
 615 0456 D60D0000 		.4byte	.LASF68
 616 045a 09       		.byte	0x9
 617 045b 65       		.byte	0x65
 618 045c 1A       		.byte	0x1a
 619 045d 7D040000 		.4byte	0x47d
 620 0461 00       		.byte	0
 621 0462 09       		.uleb128 0x9
 622 0463 E10D0000 		.4byte	.LASF71
 623 0467 09       		.byte	0x9
 624 0468 66       		.byte	0x66
 625 0469 1A       		.byte	0x1a
 626 046a 7D040000 		.4byte	0x47d
 627 046e 04       		.byte	0x4
ARM GAS  /tmp/ccwqMvbB.s 			page 12


 628 046f 09       		.uleb128 0x9
 629 0470 55090000 		.4byte	.LASF77
 630 0474 09       		.byte	0x9
 631 0475 67       		.byte	0x67
 632 0476 19       		.byte	0x19
 633 0477 82030000 		.4byte	0x382
 634 047b 08       		.byte	0x8
 635 047c 00       		.byte	0
 636 047d 0D       		.uleb128 0xd
 637 047e 04       		.byte	0x4
 638 047f 3C040000 		.4byte	0x43c
 639 0483 0E       		.uleb128 0xe
 640 0484 08       		.byte	0x8
 641 0485 0A       		.byte	0xa
 642 0486 83       		.byte	0x83
 643 0487 05       		.byte	0x5
 644 0488 A7040000 		.4byte	0x4a7
 645 048c 08       		.uleb128 0x8
 646 048d 6E747000 		.ascii	"ntp\000"
 647 0491 0A       		.byte	0xa
 648 0492 87       		.byte	0x87
 649 0493 1E       		.byte	0x1e
 650 0494 A7040000 		.4byte	0x4a7
 651 0498 00       		.byte	0
 652 0499 09       		.uleb128 0x9
 653 049a E9030000 		.4byte	.LASF78
 654 049e 0A       		.byte	0xa
 655 049f 8B       		.byte	0x8b
 656 04a0 1E       		.byte	0x1e
 657 04a1 AD040000 		.4byte	0x4ad
 658 04a5 04       		.byte	0x4
 659 04a6 00       		.byte	0
 660 04a7 0D       		.uleb128 0xd
 661 04a8 04       		.byte	0x4
 662 04a9 62010000 		.4byte	0x162
 663 04ad 0F       		.uleb128 0xf
 664 04ae 04       		.byte	0x4
 665 04af 0E       		.uleb128 0xe
 666 04b0 08       		.byte	0x8
 667 04b1 0A       		.byte	0xa
 668 04b2 90       		.byte	0x90
 669 04b3 05       		.byte	0x5
 670 04b4 D2040000 		.4byte	0x4d2
 671 04b8 08       		.uleb128 0x8
 672 04b9 747000   		.ascii	"tp\000"
 673 04bc 0A       		.byte	0xa
 674 04bd 94       		.byte	0x94
 675 04be 1E       		.byte	0x1e
 676 04bf A7040000 		.4byte	0x4a7
 677 04c3 00       		.byte	0
 678 04c4 08       		.uleb128 0x8
 679 04c5 6D736700 		.ascii	"msg\000"
 680 04c9 0A       		.byte	0xa
 681 04ca 98       		.byte	0x98
 682 04cb 1D       		.byte	0x1d
 683 04cc 26010000 		.4byte	0x126
 684 04d0 04       		.byte	0x4
ARM GAS  /tmp/ccwqMvbB.s 			page 13


 685 04d1 00       		.byte	0
 686 04d2 0E       		.uleb128 0xe
 687 04d3 04       		.byte	0x4
 688 04d4 0A       		.byte	0xa
 689 04d5 9D       		.byte	0x9d
 690 04d6 05       		.byte	0x5
 691 04d7 E9040000 		.4byte	0x4e9
 692 04db 09       		.uleb128 0x9
 693 04dc 8A0A0000 		.4byte	.LASF32
 694 04e0 0A       		.byte	0xa
 695 04e1 A1       		.byte	0xa1
 696 04e2 1E       		.byte	0x1e
 697 04e3 53030000 		.4byte	0x353
 698 04e7 00       		.byte	0
 699 04e8 00       		.byte	0
 700 04e9 0E       		.uleb128 0xe
 701 04ea 04       		.byte	0x4
 702 04eb 0A       		.byte	0xa
 703 04ec A6       		.byte	0xa6
 704 04ed 05       		.byte	0x5
 705 04ee 00050000 		.4byte	0x500
 706 04f2 09       		.uleb128 0x9
 707 04f3 85090000 		.4byte	.LASF79
 708 04f7 0A       		.byte	0xa
 709 04f8 AA       		.byte	0xaa
 710 04f9 1E       		.byte	0x1e
 711 04fa 53030000 		.4byte	0x353
 712 04fe 00       		.byte	0
 713 04ff 00       		.byte	0
 714 0500 0E       		.uleb128 0xe
 715 0501 08       		.byte	0x8
 716 0502 0A       		.byte	0xa
 717 0503 AF       		.byte	0xaf
 718 0504 05       		.byte	0x5
 719 0505 24050000 		.4byte	0x524
 720 0509 08       		.uleb128 0x8
 721 050a 75703100 		.ascii	"up1\000"
 722 050e 0A       		.byte	0xa
 723 050f B3       		.byte	0xb3
 724 0510 1E       		.byte	0x1e
 725 0511 AD040000 		.4byte	0x4ad
 726 0515 00       		.byte	0
 727 0516 08       		.uleb128 0x8
 728 0517 75703200 		.ascii	"up2\000"
 729 051b 0A       		.byte	0xa
 730 051c B7       		.byte	0xb7
 731 051d 1E       		.byte	0x1e
 732 051e AD040000 		.4byte	0x4ad
 733 0522 04       		.byte	0x4
 734 0523 00       		.byte	0
 735 0524 10       		.uleb128 0x10
 736 0525 08       		.byte	0x8
 737 0526 0A       		.byte	0xa
 738 0527 7F       		.byte	0x7f
 739 0528 03       		.byte	0x3
 740 0529 69050000 		.4byte	0x569
 741 052d 11       		.uleb128 0x11
ARM GAS  /tmp/ccwqMvbB.s 			page 14


 742 052e 737700   		.ascii	"sw\000"
 743 0531 0A       		.byte	0xa
 744 0532 8C       		.byte	0x8c
 745 0533 07       		.byte	0x7
 746 0534 83040000 		.4byte	0x483
 747 0538 11       		.uleb128 0x11
 748 0539 72647900 		.ascii	"rdy\000"
 749 053d 0A       		.byte	0xa
 750 053e 99       		.byte	0x99
 751 053f 07       		.byte	0x7
 752 0540 AF040000 		.4byte	0x4af
 753 0544 11       		.uleb128 0x11
 754 0545 69737200 		.ascii	"isr\000"
 755 0549 0A       		.byte	0xa
 756 054a A2       		.byte	0xa2
 757 054b 07       		.byte	0x7
 758 054c D2040000 		.4byte	0x4d2
 759 0550 12       		.uleb128 0x12
 760 0551 C7090000 		.4byte	.LASF80
 761 0555 0A       		.byte	0xa
 762 0556 AB       		.byte	0xab
 763 0557 07       		.byte	0x7
 764 0558 E9040000 		.4byte	0x4e9
 765 055c 12       		.uleb128 0x12
 766 055d A5000000 		.4byte	.LASF81
 767 0561 0A       		.byte	0xa
 768 0562 B8       		.byte	0xb8
 769 0563 07       		.byte	0x7
 770 0564 00050000 		.4byte	0x500
 771 0568 00       		.byte	0
 772 0569 0E       		.uleb128 0xe
 773 056a 10       		.byte	0x10
 774 056b 0A       		.byte	0xa
 775 056c 6C       		.byte	0x6c
 776 056d 09       		.byte	0x9
 777 056e BB050000 		.4byte	0x5bb
 778 0572 13       		.uleb128 0x13
 779 0573 61010000 		.4byte	.LASF82
 780 0577 0A       		.byte	0xa
 781 0578 70       		.byte	0x70
 782 0579 19       		.byte	0x19
 783 057a 96000000 		.4byte	0x96
 784 057e 04       		.byte	0x4
 785 057f 03       		.byte	0x3
 786 0580 1D       		.byte	0x1d
 787 0581 00       		.byte	0
 788 0582 13       		.uleb128 0x13
 789 0583 3D010000 		.4byte	.LASF34
 790 0587 0A       		.byte	0xa
 791 0588 74       		.byte	0x74
 792 0589 19       		.byte	0x19
 793 058a 96000000 		.4byte	0x96
 794 058e 04       		.byte	0x4
 795 058f 05       		.byte	0x5
 796 0590 18       		.byte	0x18
 797 0591 00       		.byte	0
 798 0592 13       		.uleb128 0x13
ARM GAS  /tmp/ccwqMvbB.s 			page 15


 799 0593 1D010000 		.4byte	.LASF83
 800 0597 0A       		.byte	0xa
 801 0598 7A       		.byte	0x7a
 802 0599 19       		.byte	0x19
 803 059a 96000000 		.4byte	0x96
 804 059e 04       		.byte	0x4
 805 059f 18       		.byte	0x18
 806 05a0 00       		.byte	0
 807 05a1 00       		.byte	0
 808 05a2 09       		.uleb128 0x9
 809 05a3 040A0000 		.4byte	.LASF84
 810 05a7 0A       		.byte	0xa
 811 05a8 7E       		.byte	0x7e
 812 05a9 19       		.byte	0x19
 813 05aa 76030000 		.4byte	0x376
 814 05ae 04       		.byte	0x4
 815 05af 08       		.uleb128 0x8
 816 05b0 7500     		.ascii	"u\000"
 817 05b2 0A       		.byte	0xa
 818 05b3 B9       		.byte	0xb9
 819 05b4 05       		.byte	0x5
 820 05b5 24050000 		.4byte	0x524
 821 05b9 08       		.byte	0x8
 822 05ba 00       		.byte	0
 823 05bb 03       		.uleb128 0x3
 824 05bc 67080000 		.4byte	.LASF85
 825 05c0 0A       		.byte	0xa
 826 05c1 BA       		.byte	0xba
 827 05c2 03       		.byte	0x3
 828 05c3 69050000 		.4byte	0x569
 829 05c7 14       		.uleb128 0x14
 830 05c8 0808     		.2byte	0x808
 831 05ca 0A       		.byte	0xa
 832 05cb C0       		.byte	0xc0
 833 05cc 09       		.byte	0x9
 834 05cd 06060000 		.4byte	0x606
 835 05d1 09       		.uleb128 0x9
 836 05d2 4F0A0000 		.4byte	.LASF86
 837 05d6 0A       		.byte	0xa
 838 05d7 C4       		.byte	0xc4
 839 05d8 19       		.byte	0x19
 840 05d9 83000000 		.4byte	0x83
 841 05dd 00       		.byte	0
 842 05de 09       		.uleb128 0x9
 843 05df F7080000 		.4byte	.LASF87
 844 05e3 0A       		.byte	0xa
 845 05e4 C8       		.byte	0xc8
 846 05e5 19       		.byte	0x19
 847 05e6 83000000 		.4byte	0x83
 848 05ea 02       		.byte	0x2
 849 05eb 08       		.uleb128 0x8
 850 05ec 70747200 		.ascii	"ptr\000"
 851 05f0 0A       		.byte	0xa
 852 05f1 CC       		.byte	0xcc
 853 05f2 1A       		.byte	0x1a
 854 05f3 06060000 		.4byte	0x606
 855 05f7 04       		.byte	0x4
ARM GAS  /tmp/ccwqMvbB.s 			page 16


 856 05f8 09       		.uleb128 0x9
 857 05f9 91040000 		.4byte	.LASF88
 858 05fd 0A       		.byte	0xa
 859 05fe D0       		.byte	0xd0
 860 05ff 19       		.byte	0x19
 861 0600 0C060000 		.4byte	0x60c
 862 0604 08       		.byte	0x8
 863 0605 00       		.byte	0
 864 0606 0D       		.uleb128 0xd
 865 0607 04       		.byte	0x4
 866 0608 BB050000 		.4byte	0x5bb
 867 060c 15       		.uleb128 0x15
 868 060d BB050000 		.4byte	0x5bb
 869 0611 1C060000 		.4byte	0x61c
 870 0615 16       		.uleb128 0x16
 871 0616 30000000 		.4byte	0x30
 872 061a 7F       		.byte	0x7f
 873 061b 00       		.byte	0
 874 061c 03       		.uleb128 0x3
 875 061d 80060000 		.4byte	.LASF89
 876 0621 0A       		.byte	0xa
 877 0622 D1       		.byte	0xd1
 878 0623 03       		.byte	0x3
 879 0624 C7050000 		.4byte	0x5c7
 880 0628 15       		.uleb128 0x15
 881 0629 96000000 		.4byte	0x96
 882 062d 38060000 		.4byte	0x638
 883 0631 16       		.uleb128 0x16
 884 0632 30000000 		.4byte	0x30
 885 0636 01       		.byte	0x1
 886 0637 00       		.byte	0
 887 0638 17       		.uleb128 0x17
 888 0639 12070000 		.4byte	.LASF90
 889 063d 0B       		.byte	0xb
 890 063e 0408     		.2byte	0x804
 891 0640 19       		.byte	0x19
 892 0641 5F000000 		.4byte	0x5f
 893 0645 18       		.uleb128 0x18
 894 0646 5D050000 		.4byte	.LASF91
 895 064a 0C       		.byte	0xc
 896 064b 4A       		.byte	0x4a
 897 064c 11       		.byte	0x11
 898 064d 96000000 		.4byte	0x96
 899 0651 15       		.uleb128 0x15
 900 0652 77000000 		.4byte	0x77
 901 0656 61060000 		.4byte	0x661
 902 065a 16       		.uleb128 0x16
 903 065b 30000000 		.4byte	0x30
 904 065f 0F       		.byte	0xf
 905 0660 00       		.byte	0
 906 0661 06       		.uleb128 0x6
 907 0662 51060000 		.4byte	0x651
 908 0666 18       		.uleb128 0x18
 909 0667 D5080000 		.4byte	.LASF92
 910 066b 0C       		.byte	0xc
 911 066c 4B       		.byte	0x4b
 912 066d 16       		.byte	0x16
ARM GAS  /tmp/ccwqMvbB.s 			page 17


 913 066e 61060000 		.4byte	0x661
 914 0672 15       		.uleb128 0x15
 915 0673 77000000 		.4byte	0x77
 916 0677 82060000 		.4byte	0x682
 917 067b 16       		.uleb128 0x16
 918 067c 30000000 		.4byte	0x30
 919 0680 07       		.byte	0x7
 920 0681 00       		.byte	0
 921 0682 06       		.uleb128 0x6
 922 0683 72060000 		.4byte	0x672
 923 0687 18       		.uleb128 0x18
 924 0688 8F0A0000 		.4byte	.LASF93
 925 068c 0C       		.byte	0xc
 926 068d 4C       		.byte	0x4c
 927 068e 16       		.byte	0x16
 928 068f 82060000 		.4byte	0x682
 929 0693 0E       		.uleb128 0xe
 930 0694 B8       		.byte	0xb8
 931 0695 0D       		.byte	0xd
 932 0696 B3       		.byte	0xb3
 933 0697 09       		.byte	0x9
 934 0698 7C080000 		.4byte	0x87c
 935 069c 08       		.uleb128 0x8
 936 069d 49535200 		.ascii	"ISR\000"
 937 06a1 0D       		.byte	0xd
 938 06a2 B5       		.byte	0xb5
 939 06a3 11       		.byte	0x11
 940 06a4 A2000000 		.4byte	0xa2
 941 06a8 00       		.byte	0
 942 06a9 08       		.uleb128 0x8
 943 06aa 49455200 		.ascii	"IER\000"
 944 06ae 0D       		.byte	0xd
 945 06af B6       		.byte	0xb6
 946 06b0 11       		.byte	0x11
 947 06b1 A2000000 		.4byte	0xa2
 948 06b5 04       		.byte	0x4
 949 06b6 08       		.uleb128 0x8
 950 06b7 435200   		.ascii	"CR\000"
 951 06ba 0D       		.byte	0xd
 952 06bb B7       		.byte	0xb7
 953 06bc 11       		.byte	0x11
 954 06bd A2000000 		.4byte	0xa2
 955 06c1 08       		.byte	0x8
 956 06c2 09       		.uleb128 0x9
 957 06c3 EC040000 		.4byte	.LASF94
 958 06c7 0D       		.byte	0xd
 959 06c8 B8       		.byte	0xb8
 960 06c9 11       		.byte	0x11
 961 06ca A2000000 		.4byte	0xa2
 962 06ce 0C       		.byte	0xc
 963 06cf 09       		.uleb128 0x9
 964 06d0 D5020000 		.4byte	.LASF95
 965 06d4 0D       		.byte	0xd
 966 06d5 B9       		.byte	0xb9
 967 06d6 11       		.byte	0x11
 968 06d7 96000000 		.4byte	0x96
 969 06db 10       		.byte	0x10
ARM GAS  /tmp/ccwqMvbB.s 			page 18


 970 06dc 09       		.uleb128 0x9
 971 06dd BB050000 		.4byte	.LASF96
 972 06e1 0D       		.byte	0xd
 973 06e2 BA       		.byte	0xba
 974 06e3 11       		.byte	0x11
 975 06e4 A2000000 		.4byte	0xa2
 976 06e8 14       		.byte	0x14
 977 06e9 09       		.uleb128 0x9
 978 06ea C1050000 		.4byte	.LASF97
 979 06ee 0D       		.byte	0xd
 980 06ef BB       		.byte	0xbb
 981 06f0 11       		.byte	0x11
 982 06f1 A2000000 		.4byte	0xa2
 983 06f5 18       		.byte	0x18
 984 06f6 09       		.uleb128 0x9
 985 06f7 DF020000 		.4byte	.LASF98
 986 06fb 0D       		.byte	0xd
 987 06fc BC       		.byte	0xbc
 988 06fd 11       		.byte	0x11
 989 06fe 96000000 		.4byte	0x96
 990 0702 1C       		.byte	0x1c
 991 0703 08       		.uleb128 0x8
 992 0704 54523100 		.ascii	"TR1\000"
 993 0708 0D       		.byte	0xd
 994 0709 BD       		.byte	0xbd
 995 070a 11       		.byte	0x11
 996 070b A2000000 		.4byte	0xa2
 997 070f 20       		.byte	0x20
 998 0710 08       		.uleb128 0x8
 999 0711 54523200 		.ascii	"TR2\000"
 1000 0715 0D       		.byte	0xd
 1001 0716 BE       		.byte	0xbe
 1002 0717 11       		.byte	0x11
 1003 0718 A2000000 		.4byte	0xa2
 1004 071c 24       		.byte	0x24
 1005 071d 08       		.uleb128 0x8
 1006 071e 54523300 		.ascii	"TR3\000"
 1007 0722 0D       		.byte	0xd
 1008 0723 BF       		.byte	0xbf
 1009 0724 11       		.byte	0x11
 1010 0725 A2000000 		.4byte	0xa2
 1011 0729 28       		.byte	0x28
 1012 072a 09       		.uleb128 0x9
 1013 072b 95030000 		.4byte	.LASF99
 1014 072f 0D       		.byte	0xd
 1015 0730 C0       		.byte	0xc0
 1016 0731 11       		.byte	0x11
 1017 0732 96000000 		.4byte	0x96
 1018 0736 2C       		.byte	0x2c
 1019 0737 09       		.uleb128 0x9
 1020 0738 7F000000 		.4byte	.LASF100
 1021 073c 0D       		.byte	0xd
 1022 073d C1       		.byte	0xc1
 1023 073e 11       		.byte	0x11
 1024 073f A2000000 		.4byte	0xa2
 1025 0743 30       		.byte	0x30
 1026 0744 09       		.uleb128 0x9
ARM GAS  /tmp/ccwqMvbB.s 			page 19


 1027 0745 84000000 		.4byte	.LASF101
 1028 0749 0D       		.byte	0xd
 1029 074a C2       		.byte	0xc2
 1030 074b 11       		.byte	0x11
 1031 074c A2000000 		.4byte	0xa2
 1032 0750 34       		.byte	0x34
 1033 0751 09       		.uleb128 0x9
 1034 0752 89000000 		.4byte	.LASF102
 1035 0756 0D       		.byte	0xd
 1036 0757 C3       		.byte	0xc3
 1037 0758 11       		.byte	0x11
 1038 0759 A2000000 		.4byte	0xa2
 1039 075d 38       		.byte	0x38
 1040 075e 09       		.uleb128 0x9
 1041 075f 8E000000 		.4byte	.LASF103
 1042 0763 0D       		.byte	0xd
 1043 0764 C4       		.byte	0xc4
 1044 0765 11       		.byte	0x11
 1045 0766 A2000000 		.4byte	0xa2
 1046 076a 3C       		.byte	0x3c
 1047 076b 08       		.uleb128 0x8
 1048 076c 445200   		.ascii	"DR\000"
 1049 076f 0D       		.byte	0xd
 1050 0770 C5       		.byte	0xc5
 1051 0771 11       		.byte	0x11
 1052 0772 A2000000 		.4byte	0xa2
 1053 0776 40       		.byte	0x40
 1054 0777 09       		.uleb128 0x9
 1055 0778 F7020000 		.4byte	.LASF104
 1056 077c 0D       		.byte	0xd
 1057 077d C6       		.byte	0xc6
 1058 077e 11       		.byte	0x11
 1059 077f 96000000 		.4byte	0x96
 1060 0783 44       		.byte	0x44
 1061 0784 09       		.uleb128 0x9
 1062 0785 01030000 		.4byte	.LASF105
 1063 0789 0D       		.byte	0xd
 1064 078a C7       		.byte	0xc7
 1065 078b 11       		.byte	0x11
 1066 078c 96000000 		.4byte	0x96
 1067 0790 48       		.byte	0x48
 1068 0791 09       		.uleb128 0x9
 1069 0792 990B0000 		.4byte	.LASF106
 1070 0796 0D       		.byte	0xd
 1071 0797 C8       		.byte	0xc8
 1072 0798 11       		.byte	0x11
 1073 0799 A2000000 		.4byte	0xa2
 1074 079d 4C       		.byte	0x4c
 1075 079e 09       		.uleb128 0x9
 1076 079f 0B030000 		.4byte	.LASF107
 1077 07a3 0D       		.byte	0xd
 1078 07a4 C9       		.byte	0xc9
 1079 07a5 11       		.byte	0x11
 1080 07a6 7C080000 		.4byte	0x87c
 1081 07aa 50       		.byte	0x50
 1082 07ab 09       		.uleb128 0x9
 1083 07ac 340A0000 		.4byte	.LASF108
ARM GAS  /tmp/ccwqMvbB.s 			page 20


 1084 07b0 0D       		.byte	0xd
 1085 07b1 CA       		.byte	0xca
 1086 07b2 11       		.byte	0x11
 1087 07b3 A2000000 		.4byte	0xa2
 1088 07b7 60       		.byte	0x60
 1089 07b8 09       		.uleb128 0x9
 1090 07b9 390A0000 		.4byte	.LASF109
 1091 07bd 0D       		.byte	0xd
 1092 07be CB       		.byte	0xcb
 1093 07bf 11       		.byte	0x11
 1094 07c0 A2000000 		.4byte	0xa2
 1095 07c4 64       		.byte	0x64
 1096 07c5 09       		.uleb128 0x9
 1097 07c6 3E0A0000 		.4byte	.LASF110
 1098 07ca 0D       		.byte	0xd
 1099 07cb CC       		.byte	0xcc
 1100 07cc 11       		.byte	0x11
 1101 07cd A2000000 		.4byte	0xa2
 1102 07d1 68       		.byte	0x68
 1103 07d2 09       		.uleb128 0x9
 1104 07d3 430A0000 		.4byte	.LASF111
 1105 07d7 0D       		.byte	0xd
 1106 07d8 CD       		.byte	0xcd
 1107 07d9 11       		.byte	0x11
 1108 07da A2000000 		.4byte	0xa2
 1109 07de 6C       		.byte	0x6c
 1110 07df 09       		.uleb128 0x9
 1111 07e0 15030000 		.4byte	.LASF112
 1112 07e4 0D       		.byte	0xd
 1113 07e5 CE       		.byte	0xce
 1114 07e6 11       		.byte	0x11
 1115 07e7 7C080000 		.4byte	0x87c
 1116 07eb 70       		.byte	0x70
 1117 07ec 09       		.uleb128 0x9
 1118 07ed 850B0000 		.4byte	.LASF113
 1119 07f1 0D       		.byte	0xd
 1120 07f2 CF       		.byte	0xcf
 1121 07f3 11       		.byte	0x11
 1122 07f4 A2000000 		.4byte	0xa2
 1123 07f8 80       		.byte	0x80
 1124 07f9 09       		.uleb128 0x9
 1125 07fa 8A0B0000 		.4byte	.LASF114
 1126 07fe 0D       		.byte	0xd
 1127 07ff D0       		.byte	0xd0
 1128 0800 11       		.byte	0x11
 1129 0801 A2000000 		.4byte	0xa2
 1130 0805 84       		.byte	0x84
 1131 0806 09       		.uleb128 0x9
 1132 0807 8F0B0000 		.4byte	.LASF115
 1133 080b 0D       		.byte	0xd
 1134 080c D1       		.byte	0xd1
 1135 080d 11       		.byte	0x11
 1136 080e A2000000 		.4byte	0xa2
 1137 0812 88       		.byte	0x88
 1138 0813 09       		.uleb128 0x9
 1139 0814 940B0000 		.4byte	.LASF116
 1140 0818 0D       		.byte	0xd
ARM GAS  /tmp/ccwqMvbB.s 			page 21


 1141 0819 D2       		.byte	0xd2
 1142 081a 11       		.byte	0x11
 1143 081b A2000000 		.4byte	0xa2
 1144 081f 8C       		.byte	0x8c
 1145 0820 09       		.uleb128 0x9
 1146 0821 1F030000 		.4byte	.LASF117
 1147 0825 0D       		.byte	0xd
 1148 0826 D3       		.byte	0xd3
 1149 0827 11       		.byte	0x11
 1150 0828 7C080000 		.4byte	0x87c
 1151 082c 90       		.byte	0x90
 1152 082d 09       		.uleb128 0x9
 1153 082e 4C040000 		.4byte	.LASF118
 1154 0832 0D       		.byte	0xd
 1155 0833 D4       		.byte	0xd4
 1156 0834 11       		.byte	0x11
 1157 0835 A2000000 		.4byte	0xa2
 1158 0839 A0       		.byte	0xa0
 1159 083a 09       		.uleb128 0x9
 1160 083b 26070000 		.4byte	.LASF119
 1161 083f 0D       		.byte	0xd
 1162 0840 D5       		.byte	0xd5
 1163 0841 11       		.byte	0x11
 1164 0842 A2000000 		.4byte	0xa2
 1165 0846 A4       		.byte	0xa4
 1166 0847 09       		.uleb128 0x9
 1167 0848 29030000 		.4byte	.LASF120
 1168 084c 0D       		.byte	0xd
 1169 084d D6       		.byte	0xd6
 1170 084e 11       		.byte	0x11
 1171 084f 96000000 		.4byte	0x96
 1172 0853 A8       		.byte	0xa8
 1173 0854 09       		.uleb128 0x9
 1174 0855 33030000 		.4byte	.LASF121
 1175 0859 0D       		.byte	0xd
 1176 085a D7       		.byte	0xd7
 1177 085b 11       		.byte	0x11
 1178 085c 96000000 		.4byte	0x96
 1179 0860 AC       		.byte	0xac
 1180 0861 09       		.uleb128 0x9
 1181 0862 07050000 		.4byte	.LASF122
 1182 0866 0D       		.byte	0xd
 1183 0867 D8       		.byte	0xd8
 1184 0868 11       		.byte	0x11
 1185 0869 A2000000 		.4byte	0xa2
 1186 086d B0       		.byte	0xb0
 1187 086e 09       		.uleb128 0x9
 1188 086f BF0A0000 		.4byte	.LASF123
 1189 0873 0D       		.byte	0xd
 1190 0874 D9       		.byte	0xd9
 1191 0875 11       		.byte	0x11
 1192 0876 A2000000 		.4byte	0xa2
 1193 087a B4       		.byte	0xb4
 1194 087b 00       		.byte	0
 1195 087c 15       		.uleb128 0x15
 1196 087d 96000000 		.4byte	0x96
 1197 0881 8C080000 		.4byte	0x88c
ARM GAS  /tmp/ccwqMvbB.s 			page 22


 1198 0885 16       		.uleb128 0x16
 1199 0886 30000000 		.4byte	0x30
 1200 088a 03       		.byte	0x3
 1201 088b 00       		.byte	0
 1202 088c 03       		.uleb128 0x3
 1203 088d 7C040000 		.4byte	.LASF124
 1204 0891 0D       		.byte	0xd
 1205 0892 DB       		.byte	0xdb
 1206 0893 03       		.byte	0x3
 1207 0894 93060000 		.4byte	0x693
 1208 0898 0E       		.uleb128 0xe
 1209 0899 10       		.byte	0x10
 1210 089a 0D       		.byte	0xd
 1211 089b DD       		.byte	0xdd
 1212 089c 09       		.byte	0x9
 1213 089d D6080000 		.4byte	0x8d6
 1214 08a1 08       		.uleb128 0x8
 1215 08a2 43535200 		.ascii	"CSR\000"
 1216 08a6 0D       		.byte	0xd
 1217 08a7 DF       		.byte	0xdf
 1218 08a8 11       		.byte	0x11
 1219 08a9 A2000000 		.4byte	0xa2
 1220 08ad 00       		.byte	0
 1221 08ae 09       		.uleb128 0x9
 1222 08af 88040000 		.4byte	.LASF125
 1223 08b3 0D       		.byte	0xd
 1224 08b4 E0       		.byte	0xe0
 1225 08b5 11       		.byte	0x11
 1226 08b6 96000000 		.4byte	0x96
 1227 08ba 04       		.byte	0x4
 1228 08bb 08       		.uleb128 0x8
 1229 08bc 43435200 		.ascii	"CCR\000"
 1230 08c0 0D       		.byte	0xd
 1231 08c1 E1       		.byte	0xe1
 1232 08c2 11       		.byte	0x11
 1233 08c3 A2000000 		.4byte	0xa2
 1234 08c7 08       		.byte	0x8
 1235 08c8 08       		.uleb128 0x8
 1236 08c9 43445200 		.ascii	"CDR\000"
 1237 08cd 0D       		.byte	0xd
 1238 08ce E2       		.byte	0xe2
 1239 08cf 11       		.byte	0x11
 1240 08d0 A2000000 		.4byte	0xa2
 1241 08d4 0C       		.byte	0xc
 1242 08d5 00       		.byte	0
 1243 08d6 03       		.uleb128 0x3
 1244 08d7 770D0000 		.4byte	.LASF126
 1245 08db 0D       		.byte	0xd
 1246 08dc E4       		.byte	0xe4
 1247 08dd 03       		.byte	0x3
 1248 08de 98080000 		.4byte	0x898
 1249 08e2 19       		.uleb128 0x19
 1250 08e3 10       		.byte	0x10
 1251 08e4 0D       		.byte	0xd
 1252 08e5 6501     		.2byte	0x165
 1253 08e7 09       		.byte	0x9
 1254 08e8 25090000 		.4byte	0x925
ARM GAS  /tmp/ccwqMvbB.s 			page 23


 1255 08ec 0A       		.uleb128 0xa
 1256 08ed 43435200 		.ascii	"CCR\000"
 1257 08f1 0D       		.byte	0xd
 1258 08f2 6701     		.2byte	0x167
 1259 08f4 11       		.byte	0x11
 1260 08f5 A2000000 		.4byte	0xa2
 1261 08f9 00       		.byte	0
 1262 08fa 0B       		.uleb128 0xb
 1263 08fb 5B010000 		.4byte	.LASF127
 1264 08ff 0D       		.byte	0xd
 1265 0900 6801     		.2byte	0x168
 1266 0902 11       		.byte	0x11
 1267 0903 A2000000 		.4byte	0xa2
 1268 0907 04       		.byte	0x4
 1269 0908 0B       		.uleb128 0xb
 1270 0909 81020000 		.4byte	.LASF128
 1271 090d 0D       		.byte	0xd
 1272 090e 6901     		.2byte	0x169
 1273 0910 11       		.byte	0x11
 1274 0911 A2000000 		.4byte	0xa2
 1275 0915 08       		.byte	0x8
 1276 0916 0B       		.uleb128 0xb
 1277 0917 C8070000 		.4byte	.LASF129
 1278 091b 0D       		.byte	0xd
 1279 091c 6A01     		.2byte	0x16a
 1280 091e 11       		.byte	0x11
 1281 091f A2000000 		.4byte	0xa2
 1282 0923 0C       		.byte	0xc
 1283 0924 00       		.byte	0
 1284 0925 1A       		.uleb128 0x1a
 1285 0926 C1080000 		.4byte	.LASF130
 1286 092a 0D       		.byte	0xd
 1287 092b 6B01     		.2byte	0x16b
 1288 092d 03       		.byte	0x3
 1289 092e E2080000 		.4byte	0x8e2
 1290 0932 19       		.uleb128 0x19
 1291 0933 08       		.byte	0x8
 1292 0934 0D       		.byte	0xd
 1293 0935 6D01     		.2byte	0x16d
 1294 0937 09       		.byte	0x9
 1295 0938 59090000 		.4byte	0x959
 1296 093c 0A       		.uleb128 0xa
 1297 093d 49535200 		.ascii	"ISR\000"
 1298 0941 0D       		.byte	0xd
 1299 0942 6F01     		.2byte	0x16f
 1300 0944 11       		.byte	0x11
 1301 0945 A2000000 		.4byte	0xa2
 1302 0949 00       		.byte	0
 1303 094a 0B       		.uleb128 0xb
 1304 094b CE030000 		.4byte	.LASF131
 1305 094f 0D       		.byte	0xd
 1306 0950 7001     		.2byte	0x170
 1307 0952 11       		.byte	0x11
 1308 0953 A2000000 		.4byte	0xa2
 1309 0957 04       		.byte	0x4
 1310 0958 00       		.byte	0
 1311 0959 1A       		.uleb128 0x1a
ARM GAS  /tmp/ccwqMvbB.s 			page 24


 1312 095a 3D030000 		.4byte	.LASF132
 1313 095e 0D       		.byte	0xd
 1314 095f 7101     		.2byte	0x171
 1315 0961 03       		.byte	0x3
 1316 0962 32090000 		.4byte	0x932
 1317 0966 19       		.uleb128 0x19
 1318 0967 34       		.byte	0x34
 1319 0968 0D       		.byte	0xd
 1320 0969 FE01     		.2byte	0x1fe
 1321 096b 09       		.byte	0x9
 1322 096c 260A0000 		.4byte	0xa26
 1323 0970 0A       		.uleb128 0xa
 1324 0971 435200   		.ascii	"CR\000"
 1325 0974 0D       		.byte	0xd
 1326 0975 0002     		.2byte	0x200
 1327 0977 11       		.byte	0x11
 1328 0978 A2000000 		.4byte	0xa2
 1329 097c 00       		.byte	0
 1330 097d 0B       		.uleb128 0xb
 1331 097e EC040000 		.4byte	.LASF94
 1332 0982 0D       		.byte	0xd
 1333 0983 0102     		.2byte	0x201
 1334 0985 11       		.byte	0x11
 1335 0986 A2000000 		.4byte	0xa2
 1336 098a 04       		.byte	0x4
 1337 098b 0A       		.uleb128 0xa
 1338 098c 43495200 		.ascii	"CIR\000"
 1339 0990 0D       		.byte	0xd
 1340 0991 0202     		.2byte	0x202
 1341 0993 11       		.byte	0x11
 1342 0994 A2000000 		.4byte	0xa2
 1343 0998 08       		.byte	0x8
 1344 0999 0B       		.uleb128 0xb
 1345 099a F2060000 		.4byte	.LASF133
 1346 099e 0D       		.byte	0xd
 1347 099f 0302     		.2byte	0x203
 1348 09a1 11       		.byte	0x11
 1349 09a2 A2000000 		.4byte	0xa2
 1350 09a6 0C       		.byte	0xc
 1351 09a7 0B       		.uleb128 0xb
 1352 09a8 180B0000 		.4byte	.LASF134
 1353 09ac 0D       		.byte	0xd
 1354 09ad 0402     		.2byte	0x204
 1355 09af 11       		.byte	0x11
 1356 09b0 A2000000 		.4byte	0xa2
 1357 09b4 10       		.byte	0x10
 1358 09b5 0B       		.uleb128 0xb
 1359 09b6 5C0B0000 		.4byte	.LASF135
 1360 09ba 0D       		.byte	0xd
 1361 09bb 0502     		.2byte	0x205
 1362 09bd 11       		.byte	0x11
 1363 09be A2000000 		.4byte	0xa2
 1364 09c2 14       		.byte	0x14
 1365 09c3 0B       		.uleb128 0xb
 1366 09c4 1C020000 		.4byte	.LASF136
 1367 09c8 0D       		.byte	0xd
 1368 09c9 0602     		.2byte	0x206
ARM GAS  /tmp/ccwqMvbB.s 			page 25


 1369 09cb 11       		.byte	0x11
 1370 09cc A2000000 		.4byte	0xa2
 1371 09d0 18       		.byte	0x18
 1372 09d1 0B       		.uleb128 0xb
 1373 09d2 E3080000 		.4byte	.LASF137
 1374 09d6 0D       		.byte	0xd
 1375 09d7 0702     		.2byte	0x207
 1376 09d9 11       		.byte	0x11
 1377 09da A2000000 		.4byte	0xa2
 1378 09de 1C       		.byte	0x1c
 1379 09df 0B       		.uleb128 0xb
 1380 09e0 47040000 		.4byte	.LASF138
 1381 09e4 0D       		.byte	0xd
 1382 09e5 0802     		.2byte	0x208
 1383 09e7 11       		.byte	0x11
 1384 09e8 A2000000 		.4byte	0xa2
 1385 09ec 20       		.byte	0x20
 1386 09ed 0A       		.uleb128 0xa
 1387 09ee 43535200 		.ascii	"CSR\000"
 1388 09f2 0D       		.byte	0xd
 1389 09f3 0902     		.2byte	0x209
 1390 09f5 11       		.byte	0x11
 1391 09f6 A2000000 		.4byte	0xa2
 1392 09fa 24       		.byte	0x24
 1393 09fb 0B       		.uleb128 0xb
 1394 09fc 48060000 		.4byte	.LASF139
 1395 0a00 0D       		.byte	0xd
 1396 0a01 0A02     		.2byte	0x20a
 1397 0a03 11       		.byte	0x11
 1398 0a04 A2000000 		.4byte	0xa2
 1399 0a08 28       		.byte	0x28
 1400 0a09 0B       		.uleb128 0xb
 1401 0a0a 9F070000 		.4byte	.LASF140
 1402 0a0e 0D       		.byte	0xd
 1403 0a0f 0B02     		.2byte	0x20b
 1404 0a11 11       		.byte	0x11
 1405 0a12 A2000000 		.4byte	0xa2
 1406 0a16 2C       		.byte	0x2c
 1407 0a17 0B       		.uleb128 0xb
 1408 0a18 A5070000 		.4byte	.LASF141
 1409 0a1c 0D       		.byte	0xd
 1410 0a1d 0C02     		.2byte	0x20c
 1411 0a1f 11       		.byte	0x11
 1412 0a20 A2000000 		.4byte	0xa2
 1413 0a24 30       		.byte	0x30
 1414 0a25 00       		.byte	0
 1415 0a26 1A       		.uleb128 0x1a
 1416 0a27 9D0A0000 		.4byte	.LASF142
 1417 0a2b 0D       		.byte	0xd
 1418 0a2c 0D02     		.2byte	0x20d
 1419 0a2e 03       		.byte	0x3
 1420 0a2f 66090000 		.4byte	0x966
 1421 0a33 1B       		.uleb128 0x1b
 1422 0a34 7D080000 		.4byte	.LASF143
 1423 0a38 24       		.byte	0x24
 1424 0a39 0E       		.byte	0xe
 1425 0a3a E001     		.2byte	0x1e0
ARM GAS  /tmp/ccwqMvbB.s 			page 26


 1426 0a3c 08       		.byte	0x8
 1427 0a3d B90A0000 		.4byte	0xab9
 1428 0a41 0A       		.uleb128 0xa
 1429 0a42 723400   		.ascii	"r4\000"
 1430 0a45 0E       		.byte	0xe
 1431 0a46 F901     		.2byte	0x1f9
 1432 0a48 11       		.byte	0x11
 1433 0a49 96000000 		.4byte	0x96
 1434 0a4d 00       		.byte	0
 1435 0a4e 0A       		.uleb128 0xa
 1436 0a4f 723500   		.ascii	"r5\000"
 1437 0a52 0E       		.byte	0xe
 1438 0a53 FA01     		.2byte	0x1fa
 1439 0a55 11       		.byte	0x11
 1440 0a56 96000000 		.4byte	0x96
 1441 0a5a 04       		.byte	0x4
 1442 0a5b 0A       		.uleb128 0xa
 1443 0a5c 723600   		.ascii	"r6\000"
 1444 0a5f 0E       		.byte	0xe
 1445 0a60 FB01     		.2byte	0x1fb
 1446 0a62 11       		.byte	0x11
 1447 0a63 96000000 		.4byte	0x96
 1448 0a67 08       		.byte	0x8
 1449 0a68 0A       		.uleb128 0xa
 1450 0a69 723700   		.ascii	"r7\000"
 1451 0a6c 0E       		.byte	0xe
 1452 0a6d FC01     		.2byte	0x1fc
 1453 0a6f 11       		.byte	0x11
 1454 0a70 96000000 		.4byte	0x96
 1455 0a74 0C       		.byte	0xc
 1456 0a75 0A       		.uleb128 0xa
 1457 0a76 723800   		.ascii	"r8\000"
 1458 0a79 0E       		.byte	0xe
 1459 0a7a FD01     		.2byte	0x1fd
 1460 0a7c 11       		.byte	0x11
 1461 0a7d 96000000 		.4byte	0x96
 1462 0a81 10       		.byte	0x10
 1463 0a82 0A       		.uleb128 0xa
 1464 0a83 723900   		.ascii	"r9\000"
 1465 0a86 0E       		.byte	0xe
 1466 0a87 FE01     		.2byte	0x1fe
 1467 0a89 11       		.byte	0x11
 1468 0a8a 96000000 		.4byte	0x96
 1469 0a8e 14       		.byte	0x14
 1470 0a8f 0A       		.uleb128 0xa
 1471 0a90 72313000 		.ascii	"r10\000"
 1472 0a94 0E       		.byte	0xe
 1473 0a95 FF01     		.2byte	0x1ff
 1474 0a97 11       		.byte	0x11
 1475 0a98 96000000 		.4byte	0x96
 1476 0a9c 18       		.byte	0x18
 1477 0a9d 0A       		.uleb128 0xa
 1478 0a9e 72313100 		.ascii	"r11\000"
 1479 0aa2 0E       		.byte	0xe
 1480 0aa3 0002     		.2byte	0x200
 1481 0aa5 11       		.byte	0x11
 1482 0aa6 96000000 		.4byte	0x96
ARM GAS  /tmp/ccwqMvbB.s 			page 27


 1483 0aaa 1C       		.byte	0x1c
 1484 0aab 0A       		.uleb128 0xa
 1485 0aac 6C7200   		.ascii	"lr\000"
 1486 0aaf 0E       		.byte	0xe
 1487 0ab0 0102     		.2byte	0x201
 1488 0ab2 11       		.byte	0x11
 1489 0ab3 96000000 		.4byte	0x96
 1490 0ab7 20       		.byte	0x20
 1491 0ab8 00       		.byte	0
 1492 0ab9 1B       		.uleb128 0x1b
 1493 0aba F70B0000 		.4byte	.LASF144
 1494 0abe 04       		.byte	0x4
 1495 0abf 0E       		.byte	0xe
 1496 0ac0 0A02     		.2byte	0x20a
 1497 0ac2 08       		.byte	0x8
 1498 0ac3 D50A0000 		.4byte	0xad5
 1499 0ac7 0A       		.uleb128 0xa
 1500 0ac8 737000   		.ascii	"sp\000"
 1501 0acb 0E       		.byte	0xe
 1502 0acc 0B02     		.2byte	0x20b
 1503 0ace 1A       		.byte	0x1a
 1504 0acf D50A0000 		.4byte	0xad5
 1505 0ad3 00       		.byte	0
 1506 0ad4 00       		.byte	0
 1507 0ad5 0D       		.uleb128 0xd
 1508 0ad6 04       		.byte	0x4
 1509 0ad7 330A0000 		.4byte	0xa33
 1510 0adb 0E       		.uleb128 0xe
 1511 0adc 04       		.byte	0x4
 1512 0add 0F       		.byte	0xf
 1513 0ade 3F       		.byte	0x3f
 1514 0adf 09       		.byte	0x9
 1515 0ae0 F20A0000 		.4byte	0xaf2
 1516 0ae4 09       		.uleb128 0x9
 1517 0ae5 DB070000 		.4byte	.LASF145
 1518 0ae9 0F       		.byte	0xf
 1519 0aea 43       		.byte	0x43
 1520 0aeb 19       		.byte	0x19
 1521 0aec DE000000 		.4byte	0xde
 1522 0af0 00       		.byte	0
 1523 0af1 00       		.byte	0
 1524 0af2 03       		.uleb128 0x3
 1525 0af3 590A0000 		.4byte	.LASF146
 1526 0af7 0F       		.byte	0xf
 1527 0af8 44       		.byte	0x44
 1528 0af9 03       		.byte	0x3
 1529 0afa DB0A0000 		.4byte	0xadb
 1530 0afe 1C       		.uleb128 0x1c
 1531 0aff 07       		.byte	0x7
 1532 0b00 01       		.byte	0x1
 1533 0b01 7C000000 		.4byte	0x7c
 1534 0b05 05       		.byte	0x5
 1535 0b06 32       		.byte	0x32
 1536 0b07 0E       		.byte	0xe
 1537 0b08 250B0000 		.4byte	0xb25
 1538 0b0c 1D       		.uleb128 0x1d
 1539 0b0d 0E020000 		.4byte	.LASF147
ARM GAS  /tmp/ccwqMvbB.s 			page 28


 1540 0b11 00       		.byte	0
 1541 0b12 1D       		.uleb128 0x1d
 1542 0b13 4F000000 		.4byte	.LASF148
 1543 0b17 01       		.byte	0x1
 1544 0b18 1D       		.uleb128 0x1d
 1545 0b19 3A070000 		.4byte	.LASF149
 1546 0b1d 02       		.byte	0x2
 1547 0b1e 1D       		.uleb128 0x1d
 1548 0b1f E60A0000 		.4byte	.LASF150
 1549 0b23 03       		.byte	0x3
 1550 0b24 00       		.byte	0
 1551 0b25 03       		.uleb128 0x3
 1552 0b26 6F010000 		.4byte	.LASF151
 1553 0b2a 05       		.byte	0x5
 1554 0b2b 37       		.byte	0x37
 1555 0b2c 03       		.byte	0x3
 1556 0b2d FE0A0000 		.4byte	0xafe
 1557 0b31 07       		.uleb128 0x7
 1558 0b32 E0000000 		.4byte	.LASF152
 1559 0b36 18       		.byte	0x18
 1560 0b37 05       		.byte	0x5
 1561 0b38 64       		.byte	0x64
 1562 0b39 10       		.byte	0x10
 1563 0b3a 660B0000 		.4byte	0xb66
 1564 0b3e 09       		.uleb128 0x9
 1565 0b3f 10080000 		.4byte	.LASF153
 1566 0b43 05       		.byte	0x5
 1567 0b44 68       		.byte	0x68
 1568 0b45 21       		.byte	0x21
 1569 0b46 3C040000 		.4byte	0x43c
 1570 0b4a 00       		.byte	0
 1571 0b4b 09       		.uleb128 0x9
 1572 0b4c 73040000 		.4byte	.LASF154
 1573 0b50 05       		.byte	0x5
 1574 0b51 73       		.byte	0x73
 1575 0b52 21       		.byte	0x21
 1576 0b53 76030000 		.4byte	0x376
 1577 0b57 0C       		.byte	0xc
 1578 0b58 09       		.uleb128 0x9
 1579 0b59 2C020000 		.4byte	.LASF155
 1580 0b5d 05       		.byte	0x5
 1581 0b5e 79       		.byte	0x79
 1582 0b5f 21       		.byte	0x21
 1583 0b60 BA000000 		.4byte	0xba
 1584 0b64 10       		.byte	0x10
 1585 0b65 00       		.byte	0
 1586 0b66 03       		.uleb128 0x3
 1587 0b67 92050000 		.4byte	.LASF156
 1588 0b6b 05       		.byte	0x5
 1589 0b6c 7B       		.byte	0x7b
 1590 0b6d 03       		.byte	0x3
 1591 0b6e 310B0000 		.4byte	0xb31
 1592 0b72 07       		.uleb128 0x7
 1593 0b73 A1010000 		.4byte	.LASF157
 1594 0b77 08       		.byte	0x8
 1595 0b78 05       		.byte	0x5
 1596 0b79 80       		.byte	0x80
ARM GAS  /tmp/ccwqMvbB.s 			page 29


 1597 0b7a 10       		.byte	0x10
 1598 0b7b 8D0B0000 		.4byte	0xb8d
 1599 0b7f 09       		.uleb128 0x9
 1600 0b80 7F090000 		.4byte	.LASF158
 1601 0b84 05       		.byte	0x5
 1602 0b85 84       		.byte	0x84
 1603 0b86 21       		.byte	0x21
 1604 0b87 BB030000 		.4byte	0x3bb
 1605 0b8b 00       		.byte	0
 1606 0b8c 00       		.byte	0
 1607 0b8d 03       		.uleb128 0x3
 1608 0b8e F7000000 		.4byte	.LASF159
 1609 0b92 05       		.byte	0x5
 1610 0b93 85       		.byte	0x85
 1611 0b94 03       		.byte	0x3
 1612 0b95 720B0000 		.4byte	0xb72
 1613 0b99 03       		.uleb128 0x3
 1614 0b9a 54080000 		.4byte	.LASF160
 1615 0b9e 05       		.byte	0x5
 1616 0b9f 8A       		.byte	0x8a
 1617 0ba0 14       		.byte	0x14
 1618 0ba1 A7040000 		.4byte	0x4a7
 1619 0ba5 10       		.uleb128 0x10
 1620 0ba6 0C       		.byte	0xc
 1621 0ba7 05       		.byte	0x5
 1622 0ba8 A0       		.byte	0xa0
 1623 0ba9 03       		.byte	0x3
 1624 0baa D30B0000 		.4byte	0xbd3
 1625 0bae 12       		.uleb128 0x12
 1626 0baf EE070000 		.4byte	.LASF161
 1627 0bb3 05       		.byte	0x5
 1628 0bb4 A4       		.byte	0xa4
 1629 0bb5 21       		.byte	0x21
 1630 0bb6 8E030000 		.4byte	0x38e
 1631 0bba 12       		.uleb128 0x12
 1632 0bbb 7F090000 		.4byte	.LASF158
 1633 0bbf 05       		.byte	0x5
 1634 0bc0 A8       		.byte	0xa8
 1635 0bc1 21       		.byte	0x21
 1636 0bc2 BB030000 		.4byte	0x3bb
 1637 0bc6 12       		.uleb128 0x12
 1638 0bc7 480A0000 		.4byte	.LASF162
 1639 0bcb 05       		.byte	0x5
 1640 0bcc AC       		.byte	0xac
 1641 0bcd 21       		.byte	0x21
 1642 0bce F5030000 		.4byte	0x3f5
 1643 0bd2 00       		.byte	0
 1644 0bd3 10       		.uleb128 0x10
 1645 0bd4 04       		.byte	0x4
 1646 0bd5 05       		.byte	0x5
 1647 0bd6 EB       		.byte	0xeb
 1648 0bd7 03       		.byte	0x3
 1649 0bd8 430C0000 		.4byte	0xc43
 1650 0bdc 12       		.uleb128 0x12
 1651 0bdd 050D0000 		.4byte	.LASF163
 1652 0be1 05       		.byte	0x5
 1653 0be2 F2       		.byte	0xf2
ARM GAS  /tmp/ccwqMvbB.s 			page 30


 1654 0be3 21       		.byte	0x21
 1655 0be4 26010000 		.4byte	0x126
 1656 0be8 12       		.uleb128 0x12
 1657 0be9 B9010000 		.4byte	.LASF164
 1658 0bed 05       		.byte	0x5
 1659 0bee F9       		.byte	0xf9
 1660 0bef 21       		.byte	0x21
 1661 0bf0 26010000 		.4byte	0x126
 1662 0bf4 1E       		.uleb128 0x1e
 1663 0bf5 E9030000 		.4byte	.LASF78
 1664 0bf9 05       		.byte	0x5
 1665 0bfa 0001     		.2byte	0x100
 1666 0bfc 22       		.byte	0x22
 1667 0bfd AD040000 		.4byte	0x4ad
 1668 0c01 1E       		.uleb128 0x1e
 1669 0c02 CF020000 		.4byte	.LASF165
 1670 0c06 05       		.byte	0x5
 1671 0c07 0701     		.2byte	0x107
 1672 0c09 22       		.byte	0x22
 1673 0c0a 430C0000 		.4byte	0xc43
 1674 0c0e 1E       		.uleb128 0x1e
 1675 0c0f 75080000 		.4byte	.LASF166
 1676 0c13 05       		.byte	0x5
 1677 0c14 0C01     		.2byte	0x10c
 1678 0c16 21       		.byte	0x21
 1679 0c17 26010000 		.4byte	0x126
 1680 0c1b 1E       		.uleb128 0x1e
 1681 0c1c 28000000 		.4byte	.LASF167
 1682 0c20 05       		.byte	0x5
 1683 0c21 1501     		.2byte	0x115
 1684 0c23 22       		.byte	0x22
 1685 0c24 710C0000 		.4byte	0xc71
 1686 0c28 1E       		.uleb128 0x1e
 1687 0c29 A6040000 		.4byte	.LASF168
 1688 0c2d 05       		.byte	0x5
 1689 0c2e 1E01     		.2byte	0x11e
 1690 0c30 22       		.byte	0x22
 1691 0c31 AC0C0000 		.4byte	0xcac
 1692 0c35 1E       		.uleb128 0x1e
 1693 0c36 9C020000 		.4byte	.LASF169
 1694 0c3a 05       		.byte	0x5
 1695 0c3b 2601     		.2byte	0x126
 1696 0c3d 21       		.byte	0x21
 1697 0c3e 32010000 		.4byte	0x132
 1698 0c42 00       		.byte	0
 1699 0c43 0D       		.uleb128 0xd
 1700 0c44 04       		.byte	0x4
 1701 0c45 990B0000 		.4byte	0xb99
 1702 0c49 07       		.uleb128 0x7
 1703 0c4a 6D050000 		.4byte	.LASF170
 1704 0c4e 0C       		.byte	0xc
 1705 0c4f 10       		.byte	0x10
 1706 0c50 34       		.byte	0x34
 1707 0c51 10       		.byte	0x10
 1708 0c52 710C0000 		.4byte	0xc71
 1709 0c56 09       		.uleb128 0x9
 1710 0c57 7F090000 		.4byte	.LASF158
ARM GAS  /tmp/ccwqMvbB.s 			page 31


 1711 0c5b 10       		.byte	0x10
 1712 0c5c 35       		.byte	0x35
 1713 0c5d 19       		.byte	0x19
 1714 0c5e BB030000 		.4byte	0x3bb
 1715 0c62 00       		.byte	0
 1716 0c63 08       		.uleb128 0x8
 1717 0c64 636E7400 		.ascii	"cnt\000"
 1718 0c68 10       		.byte	0x10
 1719 0c69 37       		.byte	0x37
 1720 0c6a 19       		.byte	0x19
 1721 0c6b 3E010000 		.4byte	0x13e
 1722 0c6f 08       		.byte	0x8
 1723 0c70 00       		.byte	0
 1724 0c71 0D       		.uleb128 0xd
 1725 0c72 04       		.byte	0x4
 1726 0c73 490C0000 		.4byte	0xc49
 1727 0c77 07       		.uleb128 0x7
 1728 0c78 0F0B0000 		.4byte	.LASF171
 1729 0c7c 10       		.byte	0x10
 1730 0c7d 11       		.byte	0x11
 1731 0c7e 39       		.byte	0x39
 1732 0c7f 08       		.byte	0x8
 1733 0c80 AC0C0000 		.4byte	0xcac
 1734 0c84 09       		.uleb128 0x9
 1735 0c85 7F090000 		.4byte	.LASF158
 1736 0c89 11       		.byte	0x11
 1737 0c8a 3A       		.byte	0x3a
 1738 0c8b 19       		.byte	0x19
 1739 0c8c BB030000 		.4byte	0x3bb
 1740 0c90 00       		.byte	0
 1741 0c91 09       		.uleb128 0x9
 1742 0c92 63000000 		.4byte	.LASF31
 1743 0c96 11       		.byte	0x11
 1744 0c97 3C       		.byte	0x3c
 1745 0c98 1A       		.byte	0x1a
 1746 0c99 A7040000 		.4byte	0x4a7
 1747 0c9d 08       		.byte	0x8
 1748 0c9e 09       		.uleb128 0x9
 1749 0c9f D60D0000 		.4byte	.LASF68
 1750 0ca3 11       		.byte	0x11
 1751 0ca4 3E       		.byte	0x3e
 1752 0ca5 1A       		.byte	0x1a
 1753 0ca6 E00F0000 		.4byte	0xfe0
 1754 0caa 0C       		.byte	0xc
 1755 0cab 00       		.byte	0
 1756 0cac 0D       		.uleb128 0xd
 1757 0cad 04       		.byte	0x4
 1758 0cae 770C0000 		.4byte	0xc77
 1759 0cb2 0D       		.uleb128 0xd
 1760 0cb3 04       		.byte	0x4
 1761 0cb4 51020000 		.4byte	0x251
 1762 0cb8 0D       		.uleb128 0xd
 1763 0cb9 04       		.byte	0x4
 1764 0cba EA000000 		.4byte	0xea
 1765 0cbe 1B       		.uleb128 0x1b
 1766 0cbf AD040000 		.4byte	.LASF172
 1767 0cc3 10       		.byte	0x10
ARM GAS  /tmp/ccwqMvbB.s 			page 32


 1768 0cc4 05       		.byte	0x5
 1769 0cc5 5C01     		.2byte	0x15c
 1770 0cc7 10       		.byte	0x10
 1771 0cc8 E90C0000 		.4byte	0xce9
 1772 0ccc 0B       		.uleb128 0xb
 1773 0ccd 480A0000 		.4byte	.LASF162
 1774 0cd1 05       		.byte	0x5
 1775 0cd2 6101     		.2byte	0x161
 1776 0cd4 21       		.byte	0x21
 1777 0cd5 F5030000 		.4byte	0x3f5
 1778 0cd9 00       		.byte	0
 1779 0cda 0B       		.uleb128 0xb
 1780 0cdb CD070000 		.4byte	.LASF173
 1781 0cdf 05       		.byte	0x5
 1782 0ce0 6501     		.2byte	0x165
 1783 0ce2 22       		.byte	0x22
 1784 0ce3 A7040000 		.4byte	0x4a7
 1785 0ce7 0C       		.byte	0xc
 1786 0ce8 00       		.byte	0
 1787 0ce9 1A       		.uleb128 0x1a
 1788 0cea E4050000 		.4byte	.LASF174
 1789 0cee 05       		.byte	0x5
 1790 0cef 6601     		.2byte	0x166
 1791 0cf1 03       		.byte	0x3
 1792 0cf2 BE0C0000 		.4byte	0xcbe
 1793 0cf6 1B       		.uleb128 0x1b
 1794 0cf7 A90A0000 		.4byte	.LASF175
 1795 0cfb 14       		.byte	0x14
 1796 0cfc 05       		.byte	0x5
 1797 0cfd 6B01     		.2byte	0x16b
 1798 0cff 10       		.byte	0x10
 1799 0d00 4B0D0000 		.4byte	0xd4b
 1800 0d04 0B       		.uleb128 0xb
 1801 0d05 8A0A0000 		.4byte	.LASF32
 1802 0d09 05       		.byte	0x5
 1803 0d0a 6F01     		.2byte	0x16f
 1804 0d0c 22       		.byte	0x22
 1805 0d0d 53030000 		.4byte	0x353
 1806 0d11 00       		.byte	0
 1807 0d12 0B       		.uleb128 0xb
 1808 0d13 3F090000 		.4byte	.LASF176
 1809 0d17 05       		.byte	0x5
 1810 0d18 7501     		.2byte	0x175
 1811 0d1a 22       		.byte	0x22
 1812 0d1b B80C0000 		.4byte	0xcb8
 1813 0d1f 04       		.byte	0x4
 1814 0d20 0B       		.uleb128 0xb
 1815 0d21 30040000 		.4byte	.LASF177
 1816 0d25 05       		.byte	0x5
 1817 0d26 7901     		.2byte	0x179
 1818 0d28 22       		.byte	0x22
 1819 0d29 B80C0000 		.4byte	0xcb8
 1820 0d2d 08       		.byte	0x8
 1821 0d2e 0B       		.uleb128 0xb
 1822 0d2f 3E0D0000 		.4byte	.LASF178
 1823 0d33 05       		.byte	0x5
 1824 0d34 7F01     		.2byte	0x17f
ARM GAS  /tmp/ccwqMvbB.s 			page 33


 1825 0d36 22       		.byte	0x22
 1826 0d37 B80C0000 		.4byte	0xcb8
 1827 0d3b 0C       		.byte	0xc
 1828 0d3c 0B       		.uleb128 0xb
 1829 0d3d 39080000 		.4byte	.LASF179
 1830 0d41 05       		.byte	0x5
 1831 0d42 8301     		.2byte	0x183
 1832 0d44 22       		.byte	0x22
 1833 0d45 B80C0000 		.4byte	0xcb8
 1834 0d49 10       		.byte	0x10
 1835 0d4a 00       		.byte	0
 1836 0d4b 1A       		.uleb128 0x1a
 1837 0d4c D10A0000 		.4byte	.LASF180
 1838 0d50 05       		.byte	0x5
 1839 0d51 8501     		.2byte	0x185
 1840 0d53 03       		.byte	0x3
 1841 0d54 F60C0000 		.4byte	0xcf6
 1842 0d58 06       		.uleb128 0x6
 1843 0d59 4B0D0000 		.4byte	0xd4b
 1844 0d5d 0D       		.uleb128 0xd
 1845 0d5e 04       		.byte	0x4
 1846 0d5f 580D0000 		.4byte	0xd58
 1847 0d63 1B       		.uleb128 0x1b
 1848 0d64 EB0C0000 		.4byte	.LASF181
 1849 0d68 0C       		.byte	0xc
 1850 0d69 05       		.byte	0x5
 1851 0d6a C901     		.2byte	0x1c9
 1852 0d6c 10       		.byte	0x10
 1853 0d6d 9C0D0000 		.4byte	0xd9c
 1854 0d71 0B       		.uleb128 0xb
 1855 0d72 3D010000 		.4byte	.LASF34
 1856 0d76 05       		.byte	0x5
 1857 0d77 CD01     		.2byte	0x1cd
 1858 0d79 21       		.byte	0x21
 1859 0d7a 250B0000 		.4byte	0xb25
 1860 0d7e 00       		.byte	0
 1861 0d7f 0B       		.uleb128 0xb
 1862 0d80 45000000 		.4byte	.LASF182
 1863 0d84 05       		.byte	0x5
 1864 0d85 D101     		.2byte	0x1d1
 1865 0d87 22       		.byte	0x22
 1866 0d88 9C0D0000 		.4byte	0xd9c
 1867 0d8c 04       		.byte	0x4
 1868 0d8d 0A       		.uleb128 0xa
 1869 0d8e 746D6300 		.ascii	"tmc\000"
 1870 0d92 05       		.byte	0x5
 1871 0d93 D601     		.2byte	0x1d6
 1872 0d95 21       		.byte	0x21
 1873 0d96 F20A0000 		.4byte	0xaf2
 1874 0d9a 08       		.byte	0x8
 1875 0d9b 00       		.byte	0
 1876 0d9c 15       		.uleb128 0x15
 1877 0d9d B20C0000 		.4byte	0xcb2
 1878 0da1 AC0D0000 		.4byte	0xdac
 1879 0da5 16       		.uleb128 0x16
 1880 0da6 30000000 		.4byte	0x30
 1881 0daa 00       		.byte	0
ARM GAS  /tmp/ccwqMvbB.s 			page 34


 1882 0dab 00       		.byte	0
 1883 0dac 1A       		.uleb128 0x1a
 1884 0dad 1F0D0000 		.4byte	.LASF183
 1885 0db1 05       		.byte	0x5
 1886 0db2 ED01     		.2byte	0x1ed
 1887 0db4 03       		.byte	0x3
 1888 0db5 630D0000 		.4byte	0xd63
 1889 0db9 17       		.uleb128 0x17
 1890 0dba EB0C0000 		.4byte	.LASF181
 1891 0dbe 12       		.byte	0x12
 1892 0dbf 3E01     		.2byte	0x13e
 1893 0dc1 14       		.byte	0x14
 1894 0dc2 AC0D0000 		.4byte	0xdac
 1895 0dc6 17       		.uleb128 0x17
 1896 0dc7 97060000 		.4byte	.LASF184
 1897 0dcb 12       		.byte	0x12
 1898 0dcc 4001     		.2byte	0x140
 1899 0dce 23       		.byte	0x23
 1900 0dcf 580D0000 		.4byte	0xd58
 1901 0dd3 1F       		.uleb128 0x1f
 1902 0dd4 63683000 		.ascii	"ch0\000"
 1903 0dd8 12       		.byte	0x12
 1904 0dd9 4101     		.2byte	0x141
 1905 0ddb 16       		.byte	0x16
 1906 0ddc 51020000 		.4byte	0x251
 1907 0de0 0E       		.uleb128 0xe
 1908 0de1 2C       		.byte	0x2c
 1909 0de2 13       		.byte	0x13
 1910 0de3 34       		.byte	0x34
 1911 0de4 09       		.byte	0x9
 1912 0de5 970F0000 		.4byte	0xf97
 1913 0de9 09       		.uleb128 0x9
 1914 0dea F20D0000 		.4byte	.LASF185
 1915 0dee 13       		.byte	0x13
 1916 0def 35       		.byte	0x35
 1917 0df0 0D       		.byte	0xd
 1918 0df1 970F0000 		.4byte	0xf97
 1919 0df5 00       		.byte	0
 1920 0df6 09       		.uleb128 0x9
 1921 0df7 E0010000 		.4byte	.LASF186
 1922 0dfb 13       		.byte	0x13
 1923 0dfc 36       		.byte	0x36
 1924 0dfd 0D       		.byte	0xd
 1925 0dfe 6B000000 		.4byte	0x6b
 1926 0e02 04       		.byte	0x4
 1927 0e03 09       		.uleb128 0x9
 1928 0e04 F7080000 		.4byte	.LASF87
 1929 0e08 13       		.byte	0x13
 1930 0e09 37       		.byte	0x37
 1931 0e0a 0D       		.byte	0xd
 1932 0e0b 6B000000 		.4byte	0x6b
 1933 0e0f 05       		.byte	0x5
 1934 0e10 09       		.uleb128 0x9
 1935 0e11 BF090000 		.4byte	.LASF187
 1936 0e15 13       		.byte	0x13
 1937 0e16 38       		.byte	0x38
 1938 0e17 0D       		.byte	0xd
ARM GAS  /tmp/ccwqMvbB.s 			page 35


 1939 0e18 83000000 		.4byte	0x83
 1940 0e1c 06       		.byte	0x6
 1941 0e1d 09       		.uleb128 0x9
 1942 0e1e 3F040000 		.4byte	.LASF188
 1943 0e22 13       		.byte	0x13
 1944 0e23 39       		.byte	0x39
 1945 0e24 0D       		.byte	0xd
 1946 0e25 6B000000 		.4byte	0x6b
 1947 0e29 08       		.byte	0x8
 1948 0e2a 09       		.uleb128 0x9
 1949 0e2b 350D0000 		.4byte	.LASF189
 1950 0e2f 13       		.byte	0x13
 1951 0e30 3A       		.byte	0x3a
 1952 0e31 0D       		.byte	0xd
 1953 0e32 6B000000 		.4byte	0x6b
 1954 0e36 09       		.byte	0x9
 1955 0e37 09       		.uleb128 0x9
 1956 0e38 3F050000 		.4byte	.LASF190
 1957 0e3c 13       		.byte	0x13
 1958 0e3d 3B       		.byte	0x3b
 1959 0e3e 0D       		.byte	0xd
 1960 0e3f 6B000000 		.4byte	0x6b
 1961 0e43 0A       		.byte	0xa
 1962 0e44 09       		.uleb128 0x9
 1963 0e45 1F000000 		.4byte	.LASF191
 1964 0e49 13       		.byte	0x13
 1965 0e4a 3C       		.byte	0x3c
 1966 0e4b 0D       		.byte	0xd
 1967 0e4c 6B000000 		.4byte	0x6b
 1968 0e50 0B       		.byte	0xb
 1969 0e51 09       		.uleb128 0x9
 1970 0e52 00000000 		.4byte	.LASF192
 1971 0e56 13       		.byte	0x13
 1972 0e57 3D       		.byte	0x3d
 1973 0e58 0D       		.byte	0xd
 1974 0e59 6B000000 		.4byte	0x6b
 1975 0e5d 0C       		.byte	0xc
 1976 0e5e 09       		.uleb128 0x9
 1977 0e5f 4E070000 		.4byte	.LASF193
 1978 0e63 13       		.byte	0x13
 1979 0e64 3E       		.byte	0x3e
 1980 0e65 0D       		.byte	0xd
 1981 0e66 6B000000 		.4byte	0x6b
 1982 0e6a 0D       		.byte	0xd
 1983 0e6b 09       		.uleb128 0x9
 1984 0e6c 97010000 		.4byte	.LASF194
 1985 0e70 13       		.byte	0x13
 1986 0e71 3F       		.byte	0x3f
 1987 0e72 0D       		.byte	0xd
 1988 0e73 6B000000 		.4byte	0x6b
 1989 0e77 0E       		.byte	0xe
 1990 0e78 09       		.uleb128 0x9
 1991 0e79 30090000 		.4byte	.LASF195
 1992 0e7d 13       		.byte	0x13
 1993 0e7e 40       		.byte	0x40
 1994 0e7f 0D       		.byte	0xd
 1995 0e80 6B000000 		.4byte	0x6b
ARM GAS  /tmp/ccwqMvbB.s 			page 36


 1996 0e84 0F       		.byte	0xf
 1997 0e85 09       		.uleb128 0x9
 1998 0e86 08060000 		.4byte	.LASF196
 1999 0e8a 13       		.byte	0x13
 2000 0e8b 41       		.byte	0x41
 2001 0e8c 0D       		.byte	0xd
 2002 0e8d 6B000000 		.4byte	0x6b
 2003 0e91 10       		.byte	0x10
 2004 0e92 09       		.uleb128 0x9
 2005 0e93 18050000 		.4byte	.LASF197
 2006 0e97 13       		.byte	0x13
 2007 0e98 42       		.byte	0x42
 2008 0e99 0D       		.byte	0xd
 2009 0e9a 6B000000 		.4byte	0x6b
 2010 0e9e 11       		.byte	0x11
 2011 0e9f 09       		.uleb128 0x9
 2012 0ea0 950D0000 		.4byte	.LASF198
 2013 0ea4 13       		.byte	0x13
 2014 0ea5 43       		.byte	0x43
 2015 0ea6 0D       		.byte	0xd
 2016 0ea7 6B000000 		.4byte	0x6b
 2017 0eab 12       		.byte	0x12
 2018 0eac 09       		.uleb128 0x9
 2019 0ead FF030000 		.4byte	.LASF199
 2020 0eb1 13       		.byte	0x13
 2021 0eb2 44       		.byte	0x44
 2022 0eb3 0D       		.byte	0xd
 2023 0eb4 6B000000 		.4byte	0x6b
 2024 0eb8 13       		.byte	0x13
 2025 0eb9 09       		.uleb128 0x9
 2026 0eba 39000000 		.4byte	.LASF200
 2027 0ebe 13       		.byte	0x13
 2028 0ebf 45       		.byte	0x45
 2029 0ec0 0D       		.byte	0xd
 2030 0ec1 6B000000 		.4byte	0x6b
 2031 0ec5 14       		.byte	0x14
 2032 0ec6 09       		.uleb128 0x9
 2033 0ec7 5A040000 		.4byte	.LASF201
 2034 0ecb 13       		.byte	0x13
 2035 0ecc 46       		.byte	0x46
 2036 0ecd 0D       		.byte	0xd
 2037 0ece 6B000000 		.4byte	0x6b
 2038 0ed2 15       		.byte	0x15
 2039 0ed3 09       		.uleb128 0x9
 2040 0ed4 23080000 		.4byte	.LASF202
 2041 0ed8 13       		.byte	0x13
 2042 0ed9 47       		.byte	0x47
 2043 0eda 0D       		.byte	0xd
 2044 0edb A70F0000 		.4byte	0xfa7
 2045 0edf 16       		.byte	0x16
 2046 0ee0 09       		.uleb128 0x9
 2047 0ee1 F2090000 		.4byte	.LASF203
 2048 0ee5 13       		.byte	0x13
 2049 0ee6 48       		.byte	0x48
 2050 0ee7 0D       		.byte	0xd
 2051 0ee8 6B000000 		.4byte	0x6b
 2052 0eec 1A       		.byte	0x1a
ARM GAS  /tmp/ccwqMvbB.s 			page 37


 2053 0eed 09       		.uleb128 0x9
 2054 0eee DC030000 		.4byte	.LASF204
 2055 0ef2 13       		.byte	0x13
 2056 0ef3 49       		.byte	0x49
 2057 0ef4 0D       		.byte	0xd
 2058 0ef5 6B000000 		.4byte	0x6b
 2059 0ef9 1B       		.byte	0x1b
 2060 0efa 09       		.uleb128 0x9
 2061 0efb 6A0D0000 		.4byte	.LASF205
 2062 0eff 13       		.byte	0x13
 2063 0f00 4A       		.byte	0x4a
 2064 0f01 0D       		.byte	0xd
 2065 0f02 6B000000 		.4byte	0x6b
 2066 0f06 1C       		.byte	0x1c
 2067 0f07 09       		.uleb128 0x9
 2068 0f08 E90B0000 		.4byte	.LASF206
 2069 0f0c 13       		.byte	0x13
 2070 0f0d 4B       		.byte	0x4b
 2071 0f0e 0D       		.byte	0xd
 2072 0f0f 6B000000 		.4byte	0x6b
 2073 0f13 1D       		.byte	0x1d
 2074 0f14 09       		.uleb128 0x9
 2075 0f15 C8000000 		.4byte	.LASF207
 2076 0f19 13       		.byte	0x13
 2077 0f1a 4C       		.byte	0x4c
 2078 0f1b 0D       		.byte	0xd
 2079 0f1c 6B000000 		.4byte	0x6b
 2080 0f20 1E       		.byte	0x1e
 2081 0f21 09       		.uleb128 0x9
 2082 0f22 7E010000 		.4byte	.LASF208
 2083 0f26 13       		.byte	0x13
 2084 0f27 4E       		.byte	0x4e
 2085 0f28 0D       		.byte	0xd
 2086 0f29 6B000000 		.4byte	0x6b
 2087 0f2d 1F       		.byte	0x1f
 2088 0f2e 09       		.uleb128 0x9
 2089 0f2f 7C070000 		.4byte	.LASF209
 2090 0f33 13       		.byte	0x13
 2091 0f34 4F       		.byte	0x4f
 2092 0f35 0D       		.byte	0xd
 2093 0f36 6B000000 		.4byte	0x6b
 2094 0f3a 20       		.byte	0x20
 2095 0f3b 09       		.uleb128 0x9
 2096 0f3c 25010000 		.4byte	.LASF210
 2097 0f40 13       		.byte	0x13
 2098 0f41 50       		.byte	0x50
 2099 0f42 0D       		.byte	0xd
 2100 0f43 A70F0000 		.4byte	0xfa7
 2101 0f47 21       		.byte	0x21
 2102 0f48 09       		.uleb128 0x9
 2103 0f49 BA0B0000 		.4byte	.LASF211
 2104 0f4d 13       		.byte	0x13
 2105 0f4e 51       		.byte	0x51
 2106 0f4f 0D       		.byte	0xd
 2107 0f50 6B000000 		.4byte	0x6b
 2108 0f54 25       		.byte	0x25
 2109 0f55 09       		.uleb128 0x9
ARM GAS  /tmp/ccwqMvbB.s 			page 38


 2110 0f56 71060000 		.4byte	.LASF212
 2111 0f5a 13       		.byte	0x13
 2112 0f5b 53       		.byte	0x53
 2113 0f5c 0D       		.byte	0xd
 2114 0f5d 6B000000 		.4byte	0x6b
 2115 0f61 26       		.byte	0x26
 2116 0f62 09       		.uleb128 0x9
 2117 0f63 C7010000 		.4byte	.LASF213
 2118 0f67 13       		.byte	0x13
 2119 0f68 54       		.byte	0x54
 2120 0f69 0D       		.byte	0xd
 2121 0f6a 6B000000 		.4byte	0x6b
 2122 0f6e 27       		.byte	0x27
 2123 0f6f 09       		.uleb128 0x9
 2124 0f70 790A0000 		.4byte	.LASF214
 2125 0f74 13       		.byte	0x13
 2126 0f75 55       		.byte	0x55
 2127 0f76 0D       		.byte	0xd
 2128 0f77 6B000000 		.4byte	0x6b
 2129 0f7b 28       		.byte	0x28
 2130 0f7c 09       		.uleb128 0x9
 2131 0f7d 9F030000 		.4byte	.LASF215
 2132 0f81 13       		.byte	0x13
 2133 0f82 56       		.byte	0x56
 2134 0f83 0D       		.byte	0xd
 2135 0f84 6B000000 		.4byte	0x6b
 2136 0f88 29       		.byte	0x29
 2137 0f89 09       		.uleb128 0x9
 2138 0f8a 090A0000 		.4byte	.LASF216
 2139 0f8e 13       		.byte	0x13
 2140 0f8f 57       		.byte	0x57
 2141 0f90 0D       		.byte	0xd
 2142 0f91 6B000000 		.4byte	0x6b
 2143 0f95 2A       		.byte	0x2a
 2144 0f96 00       		.byte	0
 2145 0f97 15       		.uleb128 0x15
 2146 0f98 5E030000 		.4byte	0x35e
 2147 0f9c A70F0000 		.4byte	0xfa7
 2148 0fa0 16       		.uleb128 0x16
 2149 0fa1 30000000 		.4byte	0x30
 2150 0fa5 03       		.byte	0x3
 2151 0fa6 00       		.byte	0
 2152 0fa7 15       		.uleb128 0x15
 2153 0fa8 6B000000 		.4byte	0x6b
 2154 0fac B70F0000 		.4byte	0xfb7
 2155 0fb0 16       		.uleb128 0x16
 2156 0fb1 30000000 		.4byte	0x30
 2157 0fb5 03       		.byte	0x3
 2158 0fb6 00       		.byte	0
 2159 0fb7 03       		.uleb128 0x3
 2160 0fb8 2B0D0000 		.4byte	.LASF217
 2161 0fbc 13       		.byte	0x13
 2162 0fbd 58       		.byte	0x58
 2163 0fbe 03       		.byte	0x3
 2164 0fbf E00D0000 		.4byte	0xde0
 2165 0fc3 06       		.uleb128 0x6
 2166 0fc4 B70F0000 		.4byte	0xfb7
ARM GAS  /tmp/ccwqMvbB.s 			page 39


 2167 0fc8 18       		.uleb128 0x18
 2168 0fc9 93000000 		.4byte	.LASF218
 2169 0fcd 13       		.byte	0x13
 2170 0fce 7F       		.byte	0x7f
 2171 0fcf 1D       		.byte	0x1d
 2172 0fd0 C30F0000 		.4byte	0xfc3
 2173 0fd4 03       		.uleb128 0x3
 2174 0fd5 D10B0000 		.4byte	.LASF219
 2175 0fd9 11       		.byte	0x11
 2176 0fda 34       		.byte	0x34
 2177 0fdb 19       		.byte	0x19
 2178 0fdc 770C0000 		.4byte	0xc77
 2179 0fe0 0D       		.uleb128 0xd
 2180 0fe1 04       		.byte	0x4
 2181 0fe2 D40F0000 		.4byte	0xfd4
 2182 0fe6 04       		.uleb128 0x4
 2183 0fe7 01       		.byte	0x1
 2184 0fe8 02       		.byte	0x2
 2185 0fe9 8F030000 		.4byte	.LASF220
 2186 0fed 03       		.uleb128 0x3
 2187 0fee 16080000 		.4byte	.LASF221
 2188 0ff2 14       		.byte	0x14
 2189 0ff3 47       		.byte	0x47
 2190 0ff4 11       		.byte	0x11
 2191 0ff5 F90F0000 		.4byte	0xff9
 2192 0ff9 0D       		.uleb128 0xd
 2193 0ffa 04       		.byte	0x4
 2194 0ffb FF0F0000 		.4byte	0xfff
 2195 0fff 20       		.uleb128 0x20
 2196 1000 AD040000 		.4byte	0x4ad
 2197 1004 13100000 		.4byte	0x1013
 2198 1008 21       		.uleb128 0x21
 2199 1009 24000000 		.4byte	0x24
 2200 100d 21       		.uleb128 0x21
 2201 100e 30000000 		.4byte	0x30
 2202 1012 00       		.byte	0
 2203 1013 0E       		.uleb128 0xe
 2204 1014 08       		.byte	0x8
 2205 1015 14       		.byte	0x14
 2206 1016 51       		.byte	0x51
 2207 1017 09       		.byte	0x9
 2208 1018 37100000 		.4byte	0x1037
 2209 101c 09       		.uleb128 0x9
 2210 101d E10B0000 		.4byte	.LASF222
 2211 1021 14       		.byte	0x14
 2212 1022 55       		.byte	0x55
 2213 1023 0C       		.byte	0xc
 2214 1024 37100000 		.4byte	0x1037
 2215 1028 00       		.byte	0
 2216 1029 09       		.uleb128 0x9
 2217 102a F1050000 		.4byte	.LASF223
 2218 102e 14       		.byte	0x14
 2219 102f 59       		.byte	0x59
 2220 1030 0C       		.byte	0xc
 2221 1031 37100000 		.4byte	0x1037
 2222 1035 04       		.byte	0x4
 2223 1036 00       		.byte	0
ARM GAS  /tmp/ccwqMvbB.s 			page 40


 2224 1037 0D       		.uleb128 0xd
 2225 1038 04       		.byte	0x4
 2226 1039 6B000000 		.4byte	0x6b
 2227 103d 03       		.uleb128 0x3
 2228 103e 86020000 		.4byte	.LASF224
 2229 1042 14       		.byte	0x14
 2230 1043 5A       		.byte	0x5a
 2231 1044 03       		.byte	0x3
 2232 1045 13100000 		.4byte	0x1013
 2233 1049 18       		.uleb128 0x18
 2234 104a 8A0D0000 		.4byte	.LASF225
 2235 104e 14       		.byte	0x14
 2236 104f 75       		.byte	0x75
 2237 1050 12       		.byte	0x12
 2238 1051 3D100000 		.4byte	0x103d
 2239 1055 07       		.uleb128 0x7
 2240 1056 15060000 		.4byte	.LASF226
 2241 105a 04       		.byte	0x4
 2242 105b 15       		.byte	0x15
 2243 105c 38       		.byte	0x38
 2244 105d 08       		.byte	0x8
 2245 105e 70100000 		.4byte	0x1070
 2246 1062 09       		.uleb128 0x9
 2247 1063 D60D0000 		.4byte	.LASF68
 2248 1067 15       		.byte	0x15
 2249 1068 39       		.byte	0x39
 2250 1069 1A       		.byte	0x1a
 2251 106a 70100000 		.4byte	0x1070
 2252 106e 00       		.byte	0
 2253 106f 00       		.byte	0
 2254 1070 0D       		.uleb128 0xd
 2255 1071 04       		.byte	0x4
 2256 1072 55100000 		.4byte	0x1055
 2257 1076 0E       		.uleb128 0xe
 2258 1077 10       		.byte	0x10
 2259 1078 15       		.byte	0x15
 2260 1079 40       		.byte	0x40
 2261 107a 09       		.byte	0x9
 2262 107b B4100000 		.4byte	0x10b4
 2263 107f 09       		.uleb128 0x9
 2264 1080 D60D0000 		.4byte	.LASF68
 2265 1084 15       		.byte	0x15
 2266 1085 41       		.byte	0x41
 2267 1086 1A       		.byte	0x1a
 2268 1087 70100000 		.4byte	0x1070
 2269 108b 00       		.byte	0
 2270 108c 09       		.uleb128 0x9
 2271 108d EB080000 		.4byte	.LASF227
 2272 1091 15       		.byte	0x15
 2273 1092 42       		.byte	0x42
 2274 1093 19       		.byte	0x19
 2275 1094 24000000 		.4byte	0x24
 2276 1098 04       		.byte	0x4
 2277 1099 09       		.uleb128 0x9
 2278 109a 06070000 		.4byte	.LASF228
 2279 109e 15       		.byte	0x15
 2280 109f 44       		.byte	0x44
ARM GAS  /tmp/ccwqMvbB.s 			page 41


 2281 10a0 19       		.byte	0x19
 2282 10a1 30000000 		.4byte	0x30
 2283 10a5 08       		.byte	0x8
 2284 10a6 09       		.uleb128 0x9
 2285 10a7 9C000000 		.4byte	.LASF229
 2286 10ab 15       		.byte	0x15
 2287 10ac 45       		.byte	0x45
 2288 10ad 19       		.byte	0x19
 2289 10ae ED0F0000 		.4byte	0xfed
 2290 10b2 0C       		.byte	0xc
 2291 10b3 00       		.byte	0
 2292 10b4 03       		.uleb128 0x3
 2293 10b5 E4090000 		.4byte	.LASF230
 2294 10b9 15       		.byte	0x15
 2295 10ba 47       		.byte	0x47
 2296 10bb 03       		.byte	0x3
 2297 10bc 76100000 		.4byte	0x1076
 2298 10c0 07       		.uleb128 0x7
 2299 10c1 0E010000 		.4byte	.LASF231
 2300 10c5 10       		.byte	0x10
 2301 10c6 16       		.byte	0x16
 2302 10c7 A9       		.byte	0xa9
 2303 10c8 10       		.byte	0x10
 2304 10c9 F5100000 		.4byte	0x10f5
 2305 10cd 09       		.uleb128 0x9
 2306 10ce D60D0000 		.4byte	.LASF68
 2307 10d2 16       		.byte	0x16
 2308 10d3 AD       		.byte	0xad
 2309 10d4 1A       		.byte	0x1a
 2310 10d5 F5100000 		.4byte	0x10f5
 2311 10d9 00       		.byte	0
 2312 10da 09       		.uleb128 0x9
 2313 10db 7A090000 		.4byte	.LASF36
 2314 10df 16       		.byte	0x16
 2315 10e0 B1       		.byte	0xb1
 2316 10e1 19       		.byte	0x19
 2317 10e2 4A010000 		.4byte	0x14a
 2318 10e6 04       		.byte	0x4
 2319 10e7 09       		.uleb128 0x9
 2320 10e8 8A0A0000 		.4byte	.LASF32
 2321 10ec 16       		.byte	0x16
 2322 10ed B3       		.byte	0xb3
 2323 10ee 19       		.byte	0x19
 2324 10ef FB100000 		.4byte	0x10fb
 2325 10f3 08       		.byte	0x8
 2326 10f4 00       		.byte	0
 2327 10f5 0D       		.uleb128 0xd
 2328 10f6 04       		.byte	0x4
 2329 10f7 C0100000 		.4byte	0x10c0
 2330 10fb 15       		.uleb128 0x15
 2331 10fc 5E030000 		.4byte	0x35e
 2332 1100 0B110000 		.4byte	0x110b
 2333 1104 16       		.uleb128 0x16
 2334 1105 30000000 		.4byte	0x30
 2335 1109 07       		.byte	0x7
 2336 110a 00       		.byte	0
 2337 110b 03       		.uleb128 0x3
ARM GAS  /tmp/ccwqMvbB.s 			page 42


 2338 110c 98040000 		.4byte	.LASF232
 2339 1110 16       		.byte	0x16
 2340 1111 B7       		.byte	0xb7
 2341 1112 03       		.byte	0x3
 2342 1113 C0100000 		.4byte	0x10c0
 2343 1117 07       		.uleb128 0x7
 2344 1118 E60D0000 		.4byte	.LASF233
 2345 111c 04       		.byte	0x4
 2346 111d 16       		.byte	0x16
 2347 111e BC       		.byte	0xbc
 2348 111f 10       		.byte	0x10
 2349 1120 32110000 		.4byte	0x1132
 2350 1124 09       		.uleb128 0x9
 2351 1125 D60D0000 		.4byte	.LASF68
 2352 1129 16       		.byte	0x16
 2353 112a BD       		.byte	0xbd
 2354 112b 1A       		.byte	0x1a
 2355 112c 32110000 		.4byte	0x1132
 2356 1130 00       		.byte	0
 2357 1131 00       		.byte	0
 2358 1132 0D       		.uleb128 0xd
 2359 1133 04       		.byte	0x4
 2360 1134 0B110000 		.4byte	0x110b
 2361 1138 03       		.uleb128 0x3
 2362 1139 3F0B0000 		.4byte	.LASF234
 2363 113d 16       		.byte	0x16
 2364 113e BE       		.byte	0xbe
 2365 113f 03       		.byte	0x3
 2366 1140 17110000 		.4byte	0x1117
 2367 1144 1B       		.uleb128 0x1b
 2368 1145 C6060000 		.4byte	.LASF235
 2369 1149 48       		.byte	0x48
 2370 114a 16       		.byte	0x16
 2371 114b 2001     		.2byte	0x120
 2372 114d 10       		.byte	0x10
 2373 114e D1110000 		.4byte	0x11d1
 2374 1152 0A       		.uleb128 0xa
 2375 1153 6D747800 		.ascii	"mtx\000"
 2376 1157 16       		.byte	0x16
 2377 1158 2501     		.2byte	0x125
 2378 115a 19       		.byte	0x19
 2379 115b D40F0000 		.4byte	0xfd4
 2380 115f 00       		.byte	0
 2381 1160 0B       		.uleb128 0xb
 2382 1161 66010000 		.4byte	.LASF236
 2383 1165 16       		.byte	0x16
 2384 1166 2C01     		.2byte	0x12c
 2385 1168 19       		.byte	0x19
 2386 1169 38110000 		.4byte	0x1138
 2387 116d 10       		.byte	0x10
 2388 116e 0B       		.uleb128 0xb
 2389 116f 36020000 		.4byte	.LASF237
 2390 1173 16       		.byte	0x16
 2391 1174 3001     		.2byte	0x130
 2392 1176 19       		.byte	0x19
 2393 1177 B4100000 		.4byte	0x10b4
 2394 117b 14       		.byte	0x14
ARM GAS  /tmp/ccwqMvbB.s 			page 43


 2395 117c 0B       		.uleb128 0xb
 2396 117d AA080000 		.4byte	.LASF238
 2397 1181 16       		.byte	0x16
 2398 1182 3501     		.2byte	0x135
 2399 1184 19       		.byte	0x19
 2400 1185 38110000 		.4byte	0x1138
 2401 1189 24       		.byte	0x24
 2402 118a 0B       		.uleb128 0xb
 2403 118b D3030000 		.4byte	.LASF239
 2404 118f 16       		.byte	0x16
 2405 1190 3B01     		.2byte	0x13b
 2406 1192 19       		.byte	0x19
 2407 1193 38110000 		.4byte	0x1138
 2408 1197 28       		.byte	0x28
 2409 1198 0B       		.uleb128 0xb
 2410 1199 DD040000 		.4byte	.LASF240
 2411 119d 16       		.byte	0x16
 2412 119e 3F01     		.2byte	0x13f
 2413 11a0 19       		.byte	0x19
 2414 11a1 B4100000 		.4byte	0x10b4
 2415 11a5 2C       		.byte	0x2c
 2416 11a6 0B       		.uleb128 0xb
 2417 11a7 AB090000 		.4byte	.LASF241
 2418 11ab 16       		.byte	0x16
 2419 11ac 4501     		.2byte	0x145
 2420 11ae 19       		.byte	0x19
 2421 11af 38110000 		.4byte	0x1138
 2422 11b3 3C       		.byte	0x3c
 2423 11b4 0B       		.uleb128 0xb
 2424 11b5 C7050000 		.4byte	.LASF242
 2425 11b9 16       		.byte	0x16
 2426 11ba 4B01     		.2byte	0x14b
 2427 11bc 19       		.byte	0x19
 2428 11bd 38110000 		.4byte	0x1138
 2429 11c1 40       		.byte	0x40
 2430 11c2 0B       		.uleb128 0xb
 2431 11c3 69040000 		.4byte	.LASF243
 2432 11c7 16       		.byte	0x16
 2433 11c8 5101     		.2byte	0x151
 2434 11ca 19       		.byte	0x19
 2435 11cb 38110000 		.4byte	0x1138
 2436 11cf 44       		.byte	0x44
 2437 11d0 00       		.byte	0
 2438 11d1 1A       		.uleb128 0x1a
 2439 11d2 98080000 		.4byte	.LASF244
 2440 11d6 16       		.byte	0x16
 2441 11d7 5301     		.2byte	0x153
 2442 11d9 03       		.byte	0x3
 2443 11da 44110000 		.4byte	0x1144
 2444 11de 17       		.uleb128 0x17
 2445 11df A0090000 		.4byte	.LASF245
 2446 11e3 16       		.byte	0x16
 2447 11e4 5E01     		.2byte	0x15e
 2448 11e6 1A       		.byte	0x1a
 2449 11e7 D1110000 		.4byte	0x11d1
 2450 11eb 19       		.uleb128 0x19
 2451 11ec 10       		.byte	0x10
ARM GAS  /tmp/ccwqMvbB.s 			page 44


 2452 11ed 17       		.byte	0x17
 2453 11ee 4301     		.2byte	0x143
 2454 11f0 09       		.byte	0x9
 2455 11f1 58120000 		.4byte	0x1258
 2456 11f5 0A       		.uleb128 0xa
 2457 11f6 646D6100 		.ascii	"dma\000"
 2458 11fa 17       		.byte	0x17
 2459 11fb 4401     		.2byte	0x144
 2460 11fd 1A       		.byte	0x1a
 2461 11fe 58120000 		.4byte	0x1258
 2462 1202 00       		.byte	0
 2463 1203 0B       		.uleb128 0xb
 2464 1204 80050000 		.4byte	.LASF246
 2465 1208 17       		.byte	0x17
 2466 1209 4501     		.2byte	0x145
 2467 120b 1A       		.byte	0x1a
 2468 120c 5E120000 		.4byte	0x125e
 2469 1210 04       		.byte	0x4
 2470 1211 0B       		.uleb128 0xb
 2471 1212 B3080000 		.4byte	.LASF247
 2472 1216 17       		.byte	0x17
 2473 1217 4601     		.2byte	0x146
 2474 1219 19       		.byte	0x19
 2475 121a 96000000 		.4byte	0x96
 2476 121e 08       		.byte	0x8
 2477 121f 0B       		.uleb128 0xb
 2478 1220 250A0000 		.4byte	.LASF248
 2479 1224 17       		.byte	0x17
 2480 1225 4D01     		.2byte	0x14d
 2481 1227 19       		.byte	0x19
 2482 1228 6B000000 		.4byte	0x6b
 2483 122c 0C       		.byte	0xc
 2484 122d 0B       		.uleb128 0xb
 2485 122e 7A050000 		.4byte	.LASF249
 2486 1232 17       		.byte	0x17
 2487 1233 4F01     		.2byte	0x14f
 2488 1235 19       		.byte	0x19
 2489 1236 6B000000 		.4byte	0x6b
 2490 123a 0D       		.byte	0xd
 2491 123b 0B       		.uleb128 0xb
 2492 123c 58070000 		.4byte	.LASF250
 2493 1240 17       		.byte	0x17
 2494 1241 5101     		.2byte	0x151
 2495 1243 19       		.byte	0x19
 2496 1244 6B000000 		.4byte	0x6b
 2497 1248 0E       		.byte	0xe
 2498 1249 0B       		.uleb128 0xb
 2499 124a 8C090000 		.4byte	.LASF251
 2500 124e 17       		.byte	0x17
 2501 124f 5201     		.2byte	0x152
 2502 1251 19       		.byte	0x19
 2503 1252 6B000000 		.4byte	0x6b
 2504 1256 0F       		.byte	0xf
 2505 1257 00       		.byte	0
 2506 1258 0D       		.uleb128 0xd
 2507 1259 04       		.byte	0x4
 2508 125a 59090000 		.4byte	0x959
ARM GAS  /tmp/ccwqMvbB.s 			page 45


 2509 125e 0D       		.uleb128 0xd
 2510 125f 04       		.byte	0x4
 2511 1260 25090000 		.4byte	0x925
 2512 1264 1A       		.uleb128 0x1a
 2513 1265 D1050000 		.4byte	.LASF252
 2514 1269 17       		.byte	0x17
 2515 126a 5301     		.2byte	0x153
 2516 126c 03       		.byte	0x3
 2517 126d EB110000 		.4byte	0x11eb
 2518 1271 06       		.uleb128 0x6
 2519 1272 64120000 		.4byte	0x1264
 2520 1276 15       		.uleb128 0x15
 2521 1277 71120000 		.4byte	0x1271
 2522 127b 86120000 		.4byte	0x1286
 2523 127f 16       		.uleb128 0x16
 2524 1280 30000000 		.4byte	0x30
 2525 1284 0B       		.byte	0xb
 2526 1285 00       		.byte	0
 2527 1286 06       		.uleb128 0x6
 2528 1287 76120000 		.4byte	0x1276
 2529 128b 17       		.uleb128 0x17
 2530 128c A8050000 		.4byte	.LASF253
 2531 1290 17       		.byte	0x17
 2532 1291 0F02     		.2byte	0x20f
 2533 1293 21       		.byte	0x21
 2534 1294 86120000 		.4byte	0x1286
 2535 1298 0E       		.uleb128 0xe
 2536 1299 04       		.byte	0x4
 2537 129a 18       		.byte	0x18
 2538 129b 5B       		.byte	0x5b
 2539 129c 05       		.byte	0x5
 2540 129d BC120000 		.4byte	0x12bc
 2541 12a1 08       		.uleb128 0x8
 2542 12a2 73657400 		.ascii	"set\000"
 2543 12a6 18       		.byte	0x18
 2544 12a7 5C       		.byte	0x5c
 2545 12a8 19       		.byte	0x19
 2546 12a9 83000000 		.4byte	0x83
 2547 12ad 00       		.byte	0
 2548 12ae 09       		.uleb128 0x9
 2549 12af E6040000 		.4byte	.LASF254
 2550 12b3 18       		.byte	0x18
 2551 12b4 5D       		.byte	0x5d
 2552 12b5 19       		.byte	0x19
 2553 12b6 83000000 		.4byte	0x83
 2554 12ba 02       		.byte	0x2
 2555 12bb 00       		.byte	0
 2556 12bc 10       		.uleb128 0x10
 2557 12bd 04       		.byte	0x4
 2558 12be 18       		.byte	0x18
 2559 12bf 59       		.byte	0x59
 2560 12c0 0C       		.byte	0xc
 2561 12c1 DA120000 		.4byte	0x12da
 2562 12c5 11       		.uleb128 0x11
 2563 12c6 5700     		.ascii	"W\000"
 2564 12c8 18       		.byte	0x18
 2565 12c9 5A       		.byte	0x5a
ARM GAS  /tmp/ccwqMvbB.s 			page 46


 2566 12ca 19       		.byte	0x19
 2567 12cb 96000000 		.4byte	0x96
 2568 12cf 11       		.uleb128 0x11
 2569 12d0 4800     		.ascii	"H\000"
 2570 12d2 18       		.byte	0x18
 2571 12d3 5E       		.byte	0x5e
 2572 12d4 07       		.byte	0x7
 2573 12d5 98120000 		.4byte	0x1298
 2574 12d9 00       		.byte	0
 2575 12da 05       		.uleb128 0x5
 2576 12db BC120000 		.4byte	0x12bc
 2577 12df 0E       		.uleb128 0xe
 2578 12e0 28       		.byte	0x28
 2579 12e1 18       		.byte	0x18
 2580 12e2 51       		.byte	0x51
 2581 12e3 09       		.byte	0x9
 2582 12e4 6B130000 		.4byte	0x136b
 2583 12e8 09       		.uleb128 0x9
 2584 12e9 2D070000 		.4byte	.LASF255
 2585 12ed 18       		.byte	0x18
 2586 12ee 53       		.byte	0x53
 2587 12ef 19       		.byte	0x19
 2588 12f0 A2000000 		.4byte	0xa2
 2589 12f4 00       		.byte	0
 2590 12f5 09       		.uleb128 0x9
 2591 12f6 FD090000 		.4byte	.LASF256
 2592 12fa 18       		.byte	0x18
 2593 12fb 54       		.byte	0x54
 2594 12fc 19       		.byte	0x19
 2595 12fd A2000000 		.4byte	0xa2
 2596 1301 04       		.byte	0x4
 2597 1302 09       		.uleb128 0x9
 2598 1303 56060000 		.4byte	.LASF257
 2599 1307 18       		.byte	0x18
 2600 1308 55       		.byte	0x55
 2601 1309 19       		.byte	0x19
 2602 130a A2000000 		.4byte	0xa2
 2603 130e 08       		.byte	0x8
 2604 130f 09       		.uleb128 0x9
 2605 1310 C0060000 		.4byte	.LASF258
 2606 1314 18       		.byte	0x18
 2607 1315 56       		.byte	0x56
 2608 1316 19       		.byte	0x19
 2609 1317 A2000000 		.4byte	0xa2
 2610 131b 0C       		.byte	0xc
 2611 131c 08       		.uleb128 0x8
 2612 131d 49445200 		.ascii	"IDR\000"
 2613 1321 18       		.byte	0x18
 2614 1322 57       		.byte	0x57
 2615 1323 19       		.byte	0x19
 2616 1324 A2000000 		.4byte	0xa2
 2617 1328 10       		.byte	0x10
 2618 1329 08       		.uleb128 0x8
 2619 132a 4F445200 		.ascii	"ODR\000"
 2620 132e 18       		.byte	0x18
 2621 132f 58       		.byte	0x58
 2622 1330 19       		.byte	0x19
ARM GAS  /tmp/ccwqMvbB.s 			page 47


 2623 1331 A2000000 		.4byte	0xa2
 2624 1335 14       		.byte	0x14
 2625 1336 09       		.uleb128 0x9
 2626 1337 800B0000 		.4byte	.LASF259
 2627 133b 18       		.byte	0x18
 2628 133c 5F       		.byte	0x5f
 2629 133d 05       		.byte	0x5
 2630 133e DA120000 		.4byte	0x12da
 2631 1342 18       		.byte	0x18
 2632 1343 09       		.uleb128 0x9
 2633 1344 39090000 		.4byte	.LASF260
 2634 1348 18       		.byte	0x18
 2635 1349 60       		.byte	0x60
 2636 134a 19       		.byte	0x19
 2637 134b A2000000 		.4byte	0xa2
 2638 134f 1C       		.byte	0x1c
 2639 1350 09       		.uleb128 0x9
 2640 1351 49070000 		.4byte	.LASF261
 2641 1355 18       		.byte	0x18
 2642 1356 61       		.byte	0x61
 2643 1357 19       		.byte	0x19
 2644 1358 A2000000 		.4byte	0xa2
 2645 135c 20       		.byte	0x20
 2646 135d 09       		.uleb128 0x9
 2647 135e 75090000 		.4byte	.LASF262
 2648 1362 18       		.byte	0x18
 2649 1363 62       		.byte	0x62
 2650 1364 19       		.byte	0x19
 2651 1365 A2000000 		.4byte	0xa2
 2652 1369 24       		.byte	0x24
 2653 136a 00       		.byte	0
 2654 136b 03       		.uleb128 0x3
 2655 136c FC080000 		.4byte	.LASF263
 2656 1370 18       		.byte	0x18
 2657 1371 63       		.byte	0x63
 2658 1372 03       		.byte	0x3
 2659 1373 DF120000 		.4byte	0x12df
 2660 1377 0D       		.uleb128 0xd
 2661 1378 04       		.byte	0x4
 2662 1379 6B130000 		.4byte	0x136b
 2663 137d 1C       		.uleb128 0x1c
 2664 137e 07       		.byte	0x7
 2665 137f 01       		.byte	0x1
 2666 1380 7C000000 		.4byte	0x7c
 2667 1384 19       		.byte	0x19
 2668 1385 46       		.byte	0x46
 2669 1386 0E       		.byte	0xe
 2670 1387 B0130000 		.4byte	0x13b0
 2671 138b 1D       		.uleb128 0x1d
 2672 138c 6B030000 		.4byte	.LASF264
 2673 1390 00       		.byte	0
 2674 1391 1D       		.uleb128 0x1d
 2675 1392 2B0A0000 		.4byte	.LASF265
 2676 1396 01       		.byte	0x1
 2677 1397 1D       		.uleb128 0x1d
 2678 1398 85030000 		.4byte	.LASF266
 2679 139c 02       		.byte	0x2
ARM GAS  /tmp/ccwqMvbB.s 			page 48


 2680 139d 1D       		.uleb128 0x1d
 2681 139e B2000000 		.4byte	.LASF267
 2682 13a2 03       		.byte	0x3
 2683 13a3 1D       		.uleb128 0x1d
 2684 13a4 3B060000 		.4byte	.LASF268
 2685 13a8 04       		.byte	0x4
 2686 13a9 1D       		.uleb128 0x1d
 2687 13aa F5030000 		.4byte	.LASF269
 2688 13ae 05       		.byte	0x5
 2689 13af 00       		.byte	0
 2690 13b0 03       		.uleb128 0x3
 2691 13b1 BD000000 		.4byte	.LASF270
 2692 13b5 19       		.byte	0x19
 2693 13b6 4D       		.byte	0x4d
 2694 13b7 03       		.byte	0x3
 2695 13b8 7D130000 		.4byte	0x137d
 2696 13bc 03       		.uleb128 0x3
 2697 13bd 6B090000 		.4byte	.LASF271
 2698 13c1 19       		.byte	0x19
 2699 13c2 52       		.byte	0x52
 2700 13c3 1F       		.byte	0x1f
 2701 13c4 C8130000 		.4byte	0x13c8
 2702 13c8 07       		.uleb128 0x7
 2703 13c9 89080000 		.4byte	.LASF272
 2704 13cd 38       		.byte	0x38
 2705 13ce 19       		.byte	0x19
 2706 13cf A0       		.byte	0xa0
 2707 13d0 08       		.byte	0x8
 2708 13d1 65140000 		.4byte	0x1465
 2709 13d5 09       		.uleb128 0x9
 2710 13d6 3D010000 		.4byte	.LASF34
 2711 13da 19       		.byte	0x19
 2712 13db A4       		.byte	0xa4
 2713 13dc 1D       		.byte	0x1d
 2714 13dd B0130000 		.4byte	0x13b0
 2715 13e1 00       		.byte	0
 2716 13e2 09       		.uleb128 0x9
 2717 13e3 36010000 		.4byte	.LASF51
 2718 13e7 19       		.byte	0x19
 2719 13e8 A8       		.byte	0xa8
 2720 13e9 1E       		.byte	0x1e
 2721 13ea EC150000 		.4byte	0x15ec
 2722 13ee 04       		.byte	0x4
 2723 13ef 09       		.uleb128 0x9
 2724 13f0 6A0A0000 		.4byte	.LASF273
 2725 13f4 19       		.byte	0x19
 2726 13f5 AC       		.byte	0xac
 2727 13f6 1E       		.byte	0x1e
 2728 13f7 F2150000 		.4byte	0x15f2
 2729 13fb 08       		.byte	0x8
 2730 13fc 09       		.uleb128 0x9
 2731 13fd FB060000 		.4byte	.LASF274
 2732 1401 19       		.byte	0x19
 2733 1402 B0       		.byte	0xb0
 2734 1403 1D       		.byte	0x1d
 2735 1404 24000000 		.4byte	0x24
 2736 1408 0C       		.byte	0xc
ARM GAS  /tmp/ccwqMvbB.s 			page 49


 2737 1409 09       		.uleb128 0x9
 2738 140a F0030000 		.4byte	.LASF275
 2739 140e 19       		.byte	0x19
 2740 140f B4       		.byte	0xb4
 2741 1410 1E       		.byte	0x1e
 2742 1411 F8150000 		.4byte	0x15f8
 2743 1415 10       		.byte	0x10
 2744 1416 09       		.uleb128 0x9
 2745 1417 720A0000 		.4byte	.LASF276
 2746 141b 19       		.byte	0x19
 2747 141c B9       		.byte	0xb9
 2748 141d 1D       		.byte	0x1d
 2749 141e 990B0000 		.4byte	0xb99
 2750 1422 14       		.byte	0x14
 2751 1423 09       		.uleb128 0x9
 2752 1424 0C070000 		.4byte	.LASF277
 2753 1428 19       		.byte	0x19
 2754 1429 BF       		.byte	0xbf
 2755 142a 1D       		.byte	0x1d
 2756 142b D40F0000 		.4byte	0xfd4
 2757 142f 18       		.byte	0x18
 2758 1430 09       		.uleb128 0x9
 2759 1431 ED060000 		.4byte	.LASF278
 2760 1435 19       		.byte	0x19
 2761 1436 C5       		.byte	0xc5
 2762 1437 03       		.byte	0x3
 2763 1438 FE150000 		.4byte	0x15fe
 2764 143c 28       		.byte	0x28
 2765 143d 09       		.uleb128 0x9
 2766 143e C2010000 		.4byte	.LASF279
 2767 1442 19       		.byte	0x19
 2768 1443 C5       		.byte	0xc5
 2769 1444 03       		.byte	0x3
 2770 1445 04160000 		.4byte	0x1604
 2771 1449 2C       		.byte	0x2c
 2772 144a 09       		.uleb128 0x9
 2773 144b C7030000 		.4byte	.LASF280
 2774 144f 19       		.byte	0x19
 2775 1450 C5       		.byte	0xc5
 2776 1451 03       		.byte	0x3
 2777 1452 0A160000 		.4byte	0x160a
 2778 1456 30       		.byte	0x30
 2779 1457 09       		.uleb128 0x9
 2780 1458 E5010000 		.4byte	.LASF281
 2781 145c 19       		.byte	0x19
 2782 145d C5       		.byte	0xc5
 2783 145e 03       		.byte	0x3
 2784 145f 96000000 		.4byte	0x96
 2785 1463 34       		.byte	0x34
 2786 1464 00       		.byte	0
 2787 1465 03       		.uleb128 0x3
 2788 1466 FD0D0000 		.4byte	.LASF282
 2789 146a 19       		.byte	0x19
 2790 146b 57       		.byte	0x57
 2791 146c 1F       		.byte	0x1f
 2792 146d 76140000 		.4byte	0x1476
 2793 1471 06       		.uleb128 0x6
ARM GAS  /tmp/ccwqMvbB.s 			page 50


 2794 1472 65140000 		.4byte	0x1465
 2795 1476 07       		.uleb128 0x7
 2796 1477 F3070000 		.4byte	.LASF283
 2797 147b 04       		.byte	0x4
 2798 147c 19       		.byte	0x19
 2799 147d 98       		.byte	0x98
 2800 147e 08       		.byte	0x8
 2801 147f 91140000 		.4byte	0x1491
 2802 1483 09       		.uleb128 0x9
 2803 1484 02010000 		.4byte	.LASF284
 2804 1488 19       		.byte	0x19
 2805 1489 9A       		.byte	0x9a
 2806 148a 03       		.byte	0x3
 2807 148b 96000000 		.4byte	0x96
 2808 148f 00       		.byte	0
 2809 1490 00       		.byte	0
 2810 1491 03       		.uleb128 0x3
 2811 1492 21060000 		.4byte	.LASF285
 2812 1496 19       		.byte	0x19
 2813 1497 61       		.byte	0x61
 2814 1498 2C       		.byte	0x2c
 2815 1499 A2140000 		.4byte	0x14a2
 2816 149d 06       		.uleb128 0x6
 2817 149e 91140000 		.4byte	0x1491
 2818 14a2 07       		.uleb128 0x7
 2819 14a3 4E0D0000 		.4byte	.LASF286
 2820 14a7 3C       		.byte	0x3c
 2821 14a8 19       		.byte	0x19
 2822 14a9 80       		.byte	0x80
 2823 14aa 08       		.byte	0x8
 2824 14ab 4C150000 		.4byte	0x154c
 2825 14af 09       		.uleb128 0x9
 2826 14b0 21040000 		.4byte	.LASF287
 2827 14b4 19       		.byte	0x19
 2828 14b5 84       		.byte	0x84
 2829 14b6 1D       		.byte	0x1d
 2830 14b7 E60F0000 		.4byte	0xfe6
 2831 14bb 00       		.byte	0
 2832 14bc 09       		.uleb128 0x9
 2833 14bd BB070000 		.4byte	.LASF288
 2834 14c1 19       		.byte	0x19
 2835 14c2 88       		.byte	0x88
 2836 14c3 1D       		.byte	0x1d
 2837 14c4 59150000 		.4byte	0x1559
 2838 14c8 02       		.byte	0x2
 2839 14c9 09       		.uleb128 0x9
 2840 14ca B2010000 		.4byte	.LASF289
 2841 14ce 19       		.byte	0x19
 2842 14cf 8C       		.byte	0x8c
 2843 14d0 1D       		.byte	0x1d
 2844 14d1 A7150000 		.4byte	0x15a7
 2845 14d5 04       		.byte	0x4
 2846 14d6 09       		.uleb128 0x9
 2847 14d7 8E010000 		.4byte	.LASF290
 2848 14db 19       		.byte	0x19
 2849 14dc 90       		.byte	0x90
 2850 14dd 1D       		.byte	0x1d
ARM GAS  /tmp/ccwqMvbB.s 			page 51


 2851 14de CA150000 		.4byte	0x15ca
 2852 14e2 08       		.byte	0x8
 2853 14e3 09       		.uleb128 0x9
 2854 14e4 09010000 		.4byte	.LASF291
 2855 14e8 19       		.byte	0x19
 2856 14e9 92       		.byte	0x92
 2857 14ea 03       		.byte	0x3
 2858 14eb 96000000 		.4byte	0x96
 2859 14ef 0C       		.byte	0xc
 2860 14f0 08       		.uleb128 0x8
 2861 14f1 74723100 		.ascii	"tr1\000"
 2862 14f5 19       		.byte	0x19
 2863 14f6 92       		.byte	0x92
 2864 14f7 03       		.byte	0x3
 2865 14f8 96000000 		.4byte	0x96
 2866 14fc 10       		.byte	0x10
 2867 14fd 08       		.uleb128 0x8
 2868 14fe 74723200 		.ascii	"tr2\000"
 2869 1502 19       		.byte	0x19
 2870 1503 92       		.byte	0x92
 2871 1504 03       		.byte	0x3
 2872 1505 96000000 		.4byte	0x96
 2873 1509 14       		.byte	0x14
 2874 150a 08       		.uleb128 0x8
 2875 150b 74723300 		.ascii	"tr3\000"
 2876 150f 19       		.byte	0x19
 2877 1510 92       		.byte	0x92
 2878 1511 03       		.byte	0x3
 2879 1512 96000000 		.4byte	0x96
 2880 1516 18       		.byte	0x18
 2881 1517 09       		.uleb128 0x9
 2882 1518 33070000 		.4byte	.LASF292
 2883 151c 19       		.byte	0x19
 2884 151d 92       		.byte	0x92
 2885 151e 03       		.byte	0x3
 2886 151f 96000000 		.4byte	0x96
 2887 1523 1C       		.byte	0x1c
 2888 1524 09       		.uleb128 0x9
 2889 1525 CC090000 		.4byte	.LASF293
 2890 1529 19       		.byte	0x19
 2891 152a 92       		.byte	0x92
 2892 152b 03       		.byte	0x3
 2893 152c 96000000 		.4byte	0x96
 2894 1530 20       		.byte	0x20
 2895 1531 09       		.uleb128 0x9
 2896 1532 09020000 		.4byte	.LASF294
 2897 1536 19       		.byte	0x19
 2898 1537 92       		.byte	0x92
 2899 1538 03       		.byte	0x3
 2900 1539 28060000 		.4byte	0x628
 2901 153d 24       		.byte	0x24
 2902 153e 08       		.uleb128 0x8
 2903 153f 73717200 		.ascii	"sqr\000"
 2904 1543 19       		.byte	0x19
 2905 1544 92       		.byte	0x92
 2906 1545 03       		.byte	0x3
 2907 1546 7C080000 		.4byte	0x87c
ARM GAS  /tmp/ccwqMvbB.s 			page 52


 2908 154a 2C       		.byte	0x2c
 2909 154b 00       		.byte	0
 2910 154c 1A       		.uleb128 0x1a
 2911 154d B0030000 		.4byte	.LASF295
 2912 1551 1A       		.byte	0x1a
 2913 1552 5903     		.2byte	0x359
 2914 1554 12       		.byte	0x12
 2915 1555 83000000 		.4byte	0x83
 2916 1559 1A       		.uleb128 0x1a
 2917 155a 5E060000 		.4byte	.LASF296
 2918 155e 1A       		.byte	0x1a
 2919 155f 6103     		.2byte	0x361
 2920 1561 12       		.byte	0x12
 2921 1562 83000000 		.4byte	0x83
 2922 1566 1A       		.uleb128 0x1a
 2923 1567 53030000 		.4byte	.LASF297
 2924 156b 1A       		.byte	0x1a
 2925 156c 6603     		.2byte	0x366
 2926 156e 12       		.byte	0x12
 2927 156f 96000000 		.4byte	0x96
 2928 1573 17       		.uleb128 0x17
 2929 1574 D5070000 		.4byte	.LASF298
 2930 1578 1A       		.byte	0x1a
 2931 1579 2204     		.2byte	0x422
 2932 157b 12       		.byte	0x12
 2933 157c BC130000 		.4byte	0x13bc
 2934 1580 17       		.uleb128 0x17
 2935 1581 DB0D0000 		.4byte	.LASF299
 2936 1585 1A       		.byte	0x1a
 2937 1586 2604     		.2byte	0x426
 2938 1588 12       		.byte	0x12
 2939 1589 BC130000 		.4byte	0x13bc
 2940 158d 17       		.uleb128 0x17
 2941 158e E2070000 		.4byte	.LASF300
 2942 1592 1A       		.byte	0x1a
 2943 1593 2A04     		.2byte	0x42a
 2944 1595 12       		.byte	0x12
 2945 1596 BC130000 		.4byte	0x13bc
 2946 159a 17       		.uleb128 0x17
 2947 159b E8070000 		.4byte	.LASF301
 2948 159f 1A       		.byte	0x1a
 2949 15a0 2E04     		.2byte	0x42e
 2950 15a2 12       		.byte	0x12
 2951 15a3 BC130000 		.4byte	0x13bc
 2952 15a7 03       		.uleb128 0x3
 2953 15a8 71000000 		.4byte	.LASF302
 2954 15ac 19       		.byte	0x19
 2955 15ad 6D       		.byte	0x6d
 2956 15ae 10       		.byte	0x10
 2957 15af B3150000 		.4byte	0x15b3
 2958 15b3 0D       		.uleb128 0xd
 2959 15b4 04       		.byte	0x4
 2960 15b5 B9150000 		.4byte	0x15b9
 2961 15b9 22       		.uleb128 0x22
 2962 15ba C4150000 		.4byte	0x15c4
 2963 15be 21       		.uleb128 0x21
 2964 15bf C4150000 		.4byte	0x15c4
ARM GAS  /tmp/ccwqMvbB.s 			page 53


 2965 15c3 00       		.byte	0
 2966 15c4 0D       		.uleb128 0xd
 2967 15c5 04       		.byte	0x4
 2968 15c6 BC130000 		.4byte	0x13bc
 2969 15ca 03       		.uleb128 0x3
 2970 15cb CA040000 		.4byte	.LASF303
 2971 15cf 19       		.byte	0x19
 2972 15d0 76       		.byte	0x76
 2973 15d1 10       		.byte	0x10
 2974 15d2 D6150000 		.4byte	0x15d6
 2975 15d6 0D       		.uleb128 0xd
 2976 15d7 04       		.byte	0x4
 2977 15d8 DC150000 		.4byte	0x15dc
 2978 15dc 22       		.uleb128 0x22
 2979 15dd EC150000 		.4byte	0x15ec
 2980 15e1 21       		.uleb128 0x21
 2981 15e2 C4150000 		.4byte	0x15c4
 2982 15e6 21       		.uleb128 0x21
 2983 15e7 66150000 		.4byte	0x1566
 2984 15eb 00       		.byte	0
 2985 15ec 0D       		.uleb128 0xd
 2986 15ed 04       		.byte	0x4
 2987 15ee 71140000 		.4byte	0x1471
 2988 15f2 0D       		.uleb128 0xd
 2989 15f3 04       		.byte	0x4
 2990 15f4 4C150000 		.4byte	0x154c
 2991 15f8 0D       		.uleb128 0xd
 2992 15f9 04       		.byte	0x4
 2993 15fa 9D140000 		.4byte	0x149d
 2994 15fe 0D       		.uleb128 0xd
 2995 15ff 04       		.byte	0x4
 2996 1600 8C080000 		.4byte	0x88c
 2997 1604 0D       		.uleb128 0xd
 2998 1605 04       		.byte	0x4
 2999 1606 D6080000 		.4byte	0x8d6
 3000 160a 0D       		.uleb128 0xd
 3001 160b 04       		.byte	0x4
 3002 160c 71120000 		.4byte	0x1271
 3003 1610 0E       		.uleb128 0xe
 3004 1611 1C       		.byte	0x1c
 3005 1612 1B       		.byte	0x1b
 3006 1613 28       		.byte	0x28
 3007 1614 09       		.byte	0x9
 3008 1615 75160000 		.4byte	0x1675
 3009 1619 09       		.uleb128 0x9
 3010 161a C1030000 		.4byte	.LASF304
 3011 161e 1B       		.byte	0x1b
 3012 161f 29       		.byte	0x29
 3013 1620 19       		.byte	0x19
 3014 1621 96000000 		.4byte	0x96
 3015 1625 00       		.byte	0
 3016 1626 09       		.uleb128 0x9
 3017 1627 56050000 		.4byte	.LASF305
 3018 162b 1B       		.byte	0x1b
 3019 162c 2A       		.byte	0x2a
 3020 162d 19       		.byte	0x19
 3021 162e 96000000 		.4byte	0x96
ARM GAS  /tmp/ccwqMvbB.s 			page 54


 3022 1632 04       		.byte	0x4
 3023 1633 09       		.uleb128 0x9
 3024 1634 F1040000 		.4byte	.LASF306
 3025 1638 1B       		.byte	0x1b
 3026 1639 2B       		.byte	0x2b
 3027 163a 19       		.byte	0x19
 3028 163b 96000000 		.4byte	0x96
 3029 163f 08       		.byte	0x8
 3030 1640 09       		.uleb128 0x9
 3031 1641 50060000 		.4byte	.LASF307
 3032 1645 1B       		.byte	0x1b
 3033 1646 2C       		.byte	0x2c
 3034 1647 19       		.byte	0x19
 3035 1648 96000000 		.4byte	0x96
 3036 164c 0C       		.byte	0xc
 3037 164d 08       		.uleb128 0x8
 3038 164e 6F647200 		.ascii	"odr\000"
 3039 1652 1B       		.byte	0x1b
 3040 1653 2D       		.byte	0x2d
 3041 1654 19       		.byte	0x19
 3042 1655 96000000 		.4byte	0x96
 3043 1659 10       		.byte	0x10
 3044 165a 09       		.uleb128 0x9
 3045 165b 13050000 		.4byte	.LASF308
 3046 165f 1B       		.byte	0x1b
 3047 1660 2E       		.byte	0x2e
 3048 1661 19       		.byte	0x19
 3049 1662 96000000 		.4byte	0x96
 3050 1666 14       		.byte	0x14
 3051 1667 09       		.uleb128 0x9
 3052 1668 0E050000 		.4byte	.LASF309
 3053 166c 1B       		.byte	0x1b
 3054 166d 2F       		.byte	0x2f
 3055 166e 19       		.byte	0x19
 3056 166f 96000000 		.4byte	0x96
 3057 1673 18       		.byte	0x18
 3058 1674 00       		.byte	0
 3059 1675 03       		.uleb128 0x3
 3060 1676 AD0B0000 		.4byte	.LASF310
 3061 167a 1B       		.byte	0x1b
 3062 167b 30       		.byte	0x30
 3063 167c 03       		.byte	0x3
 3064 167d 10160000 		.4byte	0x1610
 3065 1681 06       		.uleb128 0x6
 3066 1682 75160000 		.4byte	0x1675
 3067 1686 0E       		.uleb128 0xe
 3068 1687 A8       		.byte	0xa8
 3069 1688 1B       		.byte	0x1b
 3070 1689 35       		.byte	0x35
 3071 168a 09       		.byte	0x9
 3072 168b DE160000 		.4byte	0x16de
 3073 168f 09       		.uleb128 0x9
 3074 1690 20090000 		.4byte	.LASF311
 3075 1694 1B       		.byte	0x1b
 3076 1695 37       		.byte	0x37
 3077 1696 19       		.byte	0x19
 3078 1697 75160000 		.4byte	0x1675
ARM GAS  /tmp/ccwqMvbB.s 			page 55


 3079 169b 00       		.byte	0
 3080 169c 09       		.uleb128 0x9
 3081 169d 1F070000 		.4byte	.LASF312
 3082 16a1 1B       		.byte	0x1b
 3083 16a2 3A       		.byte	0x3a
 3084 16a3 19       		.byte	0x19
 3085 16a4 75160000 		.4byte	0x1675
 3086 16a8 1C       		.byte	0x1c
 3087 16a9 09       		.uleb128 0x9
 3088 16aa F9040000 		.4byte	.LASF313
 3089 16ae 1B       		.byte	0x1b
 3090 16af 3D       		.byte	0x3d
 3091 16b0 19       		.byte	0x19
 3092 16b1 75160000 		.4byte	0x1675
 3093 16b5 38       		.byte	0x38
 3094 16b6 09       		.uleb128 0x9
 3095 16b7 00050000 		.4byte	.LASF314
 3096 16bb 1B       		.byte	0x1b
 3097 16bc 40       		.byte	0x40
 3098 16bd 19       		.byte	0x19
 3099 16be 75160000 		.4byte	0x1675
 3100 16c2 54       		.byte	0x54
 3101 16c3 09       		.uleb128 0x9
 3102 16c4 43010000 		.4byte	.LASF315
 3103 16c8 1B       		.byte	0x1b
 3104 16c9 43       		.byte	0x43
 3105 16ca 19       		.byte	0x19
 3106 16cb 75160000 		.4byte	0x1675
 3107 16cf 70       		.byte	0x70
 3108 16d0 09       		.uleb128 0x9
 3109 16d1 FE0C0000 		.4byte	.LASF316
 3110 16d5 1B       		.byte	0x1b
 3111 16d6 46       		.byte	0x46
 3112 16d7 19       		.byte	0x19
 3113 16d8 75160000 		.4byte	0x1675
 3114 16dc 8C       		.byte	0x8c
 3115 16dd 00       		.byte	0
 3116 16de 03       		.uleb128 0x3
 3117 16df C1020000 		.4byte	.LASF317
 3118 16e3 1B       		.byte	0x1b
 3119 16e4 57       		.byte	0x57
 3120 16e5 03       		.byte	0x3
 3121 16e6 86160000 		.4byte	0x1686
 3122 16ea 06       		.uleb128 0x6
 3123 16eb DE160000 		.4byte	0x16de
 3124 16ef 23       		.uleb128 0x23
 3125 16f0 6C0B0000 		.4byte	.LASF324
 3126 16f4 1B       		.byte	0x1b
 3127 16f5 5C       		.byte	0x5c
 3128 16f6 1C       		.byte	0x1c
 3129 16f7 EA160000 		.4byte	0x16ea
 3130 16fb 24       		.uleb128 0x24
 3131 16fc 520B0000 		.4byte	.LASF318
 3132 1700 1B       		.byte	0x1b
 3133 1701 0801     		.2byte	0x108
 3134 1703 06       		.byte	0x6
 3135 1704 25       		.uleb128 0x25
ARM GAS  /tmp/ccwqMvbB.s 			page 56


 3136 1705 93090000 		.4byte	.LASF319
 3137 1709 1B       		.byte	0x1b
 3138 170a D2       		.byte	0xd2
 3139 170b 06       		.byte	0x6
 3140 170c 26       		.uleb128 0x26
 3141 170d AB070000 		.4byte	.LASF325
 3142 1711 1B       		.byte	0x1b
 3143 1712 9A       		.byte	0x9a
 3144 1713 0D       		.byte	0xd
 3145 1714 27       		.uleb128 0x27
 3146 1715 DA090000 		.4byte	.LASF326
 3147 1719 1B       		.byte	0x1b
 3148 171a 8F       		.byte	0x8f
 3149 171b 0D       		.byte	0xd
 3150 171c 39170000 		.4byte	0x1739
 3151 1720 28       		.uleb128 0x28
 3152 1721 DA000000 		.4byte	.LASF320
 3153 1725 1B       		.byte	0x1b
 3154 1726 8F       		.byte	0x8f
 3155 1727 25       		.byte	0x25
 3156 1728 77130000 		.4byte	0x1377
 3157 172c 28       		.uleb128 0x28
 3158 172d 36010000 		.4byte	.LASF51
 3159 1731 1B       		.byte	0x1b
 3160 1732 8F       		.byte	0x8f
 3161 1733 40       		.byte	0x40
 3162 1734 39170000 		.4byte	0x1739
 3163 1738 00       		.byte	0
 3164 1739 0D       		.uleb128 0xd
 3165 173a 04       		.byte	0x4
 3166 173b 81160000 		.4byte	0x1681
 3167 173f 00       		.byte	0
 3168              		.section	.gnu.debuglto_.debug_abbrev,"e",%progbits
 3169              	.Ldebug_abbrev0:
 3170 0000 01       		.uleb128 0x1
 3171 0001 11       		.uleb128 0x11
 3172 0002 01       		.byte	0x1
 3173 0003 25       		.uleb128 0x25
 3174 0004 0E       		.uleb128 0xe
 3175 0005 13       		.uleb128 0x13
 3176 0006 0B       		.uleb128 0xb
 3177 0007 03       		.uleb128 0x3
 3178 0008 0E       		.uleb128 0xe
 3179 0009 1B       		.uleb128 0x1b
 3180 000a 0E       		.uleb128 0xe
 3181 000b 10       		.uleb128 0x10
 3182 000c 17       		.uleb128 0x17
 3183 000d 00       		.byte	0
 3184 000e 00       		.byte	0
 3185 000f 02       		.uleb128 0x2
 3186 0010 24       		.uleb128 0x24
 3187 0011 00       		.byte	0
 3188 0012 0B       		.uleb128 0xb
 3189 0013 0B       		.uleb128 0xb
 3190 0014 3E       		.uleb128 0x3e
 3191 0015 0B       		.uleb128 0xb
 3192 0016 03       		.uleb128 0x3
ARM GAS  /tmp/ccwqMvbB.s 			page 57


 3193 0017 08       		.uleb128 0x8
 3194 0018 00       		.byte	0
 3195 0019 00       		.byte	0
 3196 001a 03       		.uleb128 0x3
 3197 001b 16       		.uleb128 0x16
 3198 001c 00       		.byte	0
 3199 001d 03       		.uleb128 0x3
 3200 001e 0E       		.uleb128 0xe
 3201 001f 3A       		.uleb128 0x3a
 3202 0020 0B       		.uleb128 0xb
 3203 0021 3B       		.uleb128 0x3b
 3204 0022 0B       		.uleb128 0xb
 3205 0023 39       		.uleb128 0x39
 3206 0024 0B       		.uleb128 0xb
 3207 0025 49       		.uleb128 0x49
 3208 0026 13       		.uleb128 0x13
 3209 0027 00       		.byte	0
 3210 0028 00       		.byte	0
 3211 0029 04       		.uleb128 0x4
 3212 002a 24       		.uleb128 0x24
 3213 002b 00       		.byte	0
 3214 002c 0B       		.uleb128 0xb
 3215 002d 0B       		.uleb128 0xb
 3216 002e 3E       		.uleb128 0x3e
 3217 002f 0B       		.uleb128 0xb
 3218 0030 03       		.uleb128 0x3
 3219 0031 0E       		.uleb128 0xe
 3220 0032 00       		.byte	0
 3221 0033 00       		.byte	0
 3222 0034 05       		.uleb128 0x5
 3223 0035 35       		.uleb128 0x35
 3224 0036 00       		.byte	0
 3225 0037 49       		.uleb128 0x49
 3226 0038 13       		.uleb128 0x13
 3227 0039 00       		.byte	0
 3228 003a 00       		.byte	0
 3229 003b 06       		.uleb128 0x6
 3230 003c 26       		.uleb128 0x26
 3231 003d 00       		.byte	0
 3232 003e 49       		.uleb128 0x49
 3233 003f 13       		.uleb128 0x13
 3234 0040 00       		.byte	0
 3235 0041 00       		.byte	0
 3236 0042 07       		.uleb128 0x7
 3237 0043 13       		.uleb128 0x13
 3238 0044 01       		.byte	0x1
 3239 0045 03       		.uleb128 0x3
 3240 0046 0E       		.uleb128 0xe
 3241 0047 0B       		.uleb128 0xb
 3242 0048 0B       		.uleb128 0xb
 3243 0049 3A       		.uleb128 0x3a
 3244 004a 0B       		.uleb128 0xb
 3245 004b 3B       		.uleb128 0x3b
 3246 004c 0B       		.uleb128 0xb
 3247 004d 39       		.uleb128 0x39
 3248 004e 0B       		.uleb128 0xb
 3249 004f 01       		.uleb128 0x1
ARM GAS  /tmp/ccwqMvbB.s 			page 58


 3250 0050 13       		.uleb128 0x13
 3251 0051 00       		.byte	0
 3252 0052 00       		.byte	0
 3253 0053 08       		.uleb128 0x8
 3254 0054 0D       		.uleb128 0xd
 3255 0055 00       		.byte	0
 3256 0056 03       		.uleb128 0x3
 3257 0057 08       		.uleb128 0x8
 3258 0058 3A       		.uleb128 0x3a
 3259 0059 0B       		.uleb128 0xb
 3260 005a 3B       		.uleb128 0x3b
 3261 005b 0B       		.uleb128 0xb
 3262 005c 39       		.uleb128 0x39
 3263 005d 0B       		.uleb128 0xb
 3264 005e 49       		.uleb128 0x49
 3265 005f 13       		.uleb128 0x13
 3266 0060 38       		.uleb128 0x38
 3267 0061 0B       		.uleb128 0xb
 3268 0062 00       		.byte	0
 3269 0063 00       		.byte	0
 3270 0064 09       		.uleb128 0x9
 3271 0065 0D       		.uleb128 0xd
 3272 0066 00       		.byte	0
 3273 0067 03       		.uleb128 0x3
 3274 0068 0E       		.uleb128 0xe
 3275 0069 3A       		.uleb128 0x3a
 3276 006a 0B       		.uleb128 0xb
 3277 006b 3B       		.uleb128 0x3b
 3278 006c 0B       		.uleb128 0xb
 3279 006d 39       		.uleb128 0x39
 3280 006e 0B       		.uleb128 0xb
 3281 006f 49       		.uleb128 0x49
 3282 0070 13       		.uleb128 0x13
 3283 0071 38       		.uleb128 0x38
 3284 0072 0B       		.uleb128 0xb
 3285 0073 00       		.byte	0
 3286 0074 00       		.byte	0
 3287 0075 0A       		.uleb128 0xa
 3288 0076 0D       		.uleb128 0xd
 3289 0077 00       		.byte	0
 3290 0078 03       		.uleb128 0x3
 3291 0079 08       		.uleb128 0x8
 3292 007a 3A       		.uleb128 0x3a
 3293 007b 0B       		.uleb128 0xb
 3294 007c 3B       		.uleb128 0x3b
 3295 007d 05       		.uleb128 0x5
 3296 007e 39       		.uleb128 0x39
 3297 007f 0B       		.uleb128 0xb
 3298 0080 49       		.uleb128 0x49
 3299 0081 13       		.uleb128 0x13
 3300 0082 38       		.uleb128 0x38
 3301 0083 0B       		.uleb128 0xb
 3302 0084 00       		.byte	0
 3303 0085 00       		.byte	0
 3304 0086 0B       		.uleb128 0xb
 3305 0087 0D       		.uleb128 0xd
 3306 0088 00       		.byte	0
ARM GAS  /tmp/ccwqMvbB.s 			page 59


 3307 0089 03       		.uleb128 0x3
 3308 008a 0E       		.uleb128 0xe
 3309 008b 3A       		.uleb128 0x3a
 3310 008c 0B       		.uleb128 0xb
 3311 008d 3B       		.uleb128 0x3b
 3312 008e 05       		.uleb128 0x5
 3313 008f 39       		.uleb128 0x39
 3314 0090 0B       		.uleb128 0xb
 3315 0091 49       		.uleb128 0x49
 3316 0092 13       		.uleb128 0x13
 3317 0093 38       		.uleb128 0x38
 3318 0094 0B       		.uleb128 0xb
 3319 0095 00       		.byte	0
 3320 0096 00       		.byte	0
 3321 0097 0C       		.uleb128 0xc
 3322 0098 13       		.uleb128 0x13
 3323 0099 01       		.byte	0x1
 3324 009a 03       		.uleb128 0x3
 3325 009b 0E       		.uleb128 0xe
 3326 009c 0B       		.uleb128 0xb
 3327 009d 05       		.uleb128 0x5
 3328 009e 3A       		.uleb128 0x3a
 3329 009f 0B       		.uleb128 0xb
 3330 00a0 3B       		.uleb128 0x3b
 3331 00a1 05       		.uleb128 0x5
 3332 00a2 39       		.uleb128 0x39
 3333 00a3 0B       		.uleb128 0xb
 3334 00a4 01       		.uleb128 0x1
 3335 00a5 13       		.uleb128 0x13
 3336 00a6 00       		.byte	0
 3337 00a7 00       		.byte	0
 3338 00a8 0D       		.uleb128 0xd
 3339 00a9 0F       		.uleb128 0xf
 3340 00aa 00       		.byte	0
 3341 00ab 0B       		.uleb128 0xb
 3342 00ac 0B       		.uleb128 0xb
 3343 00ad 49       		.uleb128 0x49
 3344 00ae 13       		.uleb128 0x13
 3345 00af 00       		.byte	0
 3346 00b0 00       		.byte	0
 3347 00b1 0E       		.uleb128 0xe
 3348 00b2 13       		.uleb128 0x13
 3349 00b3 01       		.byte	0x1
 3350 00b4 0B       		.uleb128 0xb
 3351 00b5 0B       		.uleb128 0xb
 3352 00b6 3A       		.uleb128 0x3a
 3353 00b7 0B       		.uleb128 0xb
 3354 00b8 3B       		.uleb128 0x3b
 3355 00b9 0B       		.uleb128 0xb
 3356 00ba 39       		.uleb128 0x39
 3357 00bb 0B       		.uleb128 0xb
 3358 00bc 01       		.uleb128 0x1
 3359 00bd 13       		.uleb128 0x13
 3360 00be 00       		.byte	0
 3361 00bf 00       		.byte	0
 3362 00c0 0F       		.uleb128 0xf
 3363 00c1 0F       		.uleb128 0xf
ARM GAS  /tmp/ccwqMvbB.s 			page 60


 3364 00c2 00       		.byte	0
 3365 00c3 0B       		.uleb128 0xb
 3366 00c4 0B       		.uleb128 0xb
 3367 00c5 00       		.byte	0
 3368 00c6 00       		.byte	0
 3369 00c7 10       		.uleb128 0x10
 3370 00c8 17       		.uleb128 0x17
 3371 00c9 01       		.byte	0x1
 3372 00ca 0B       		.uleb128 0xb
 3373 00cb 0B       		.uleb128 0xb
 3374 00cc 3A       		.uleb128 0x3a
 3375 00cd 0B       		.uleb128 0xb
 3376 00ce 3B       		.uleb128 0x3b
 3377 00cf 0B       		.uleb128 0xb
 3378 00d0 39       		.uleb128 0x39
 3379 00d1 0B       		.uleb128 0xb
 3380 00d2 01       		.uleb128 0x1
 3381 00d3 13       		.uleb128 0x13
 3382 00d4 00       		.byte	0
 3383 00d5 00       		.byte	0
 3384 00d6 11       		.uleb128 0x11
 3385 00d7 0D       		.uleb128 0xd
 3386 00d8 00       		.byte	0
 3387 00d9 03       		.uleb128 0x3
 3388 00da 08       		.uleb128 0x8
 3389 00db 3A       		.uleb128 0x3a
 3390 00dc 0B       		.uleb128 0xb
 3391 00dd 3B       		.uleb128 0x3b
 3392 00de 0B       		.uleb128 0xb
 3393 00df 39       		.uleb128 0x39
 3394 00e0 0B       		.uleb128 0xb
 3395 00e1 49       		.uleb128 0x49
 3396 00e2 13       		.uleb128 0x13
 3397 00e3 00       		.byte	0
 3398 00e4 00       		.byte	0
 3399 00e5 12       		.uleb128 0x12
 3400 00e6 0D       		.uleb128 0xd
 3401 00e7 00       		.byte	0
 3402 00e8 03       		.uleb128 0x3
 3403 00e9 0E       		.uleb128 0xe
 3404 00ea 3A       		.uleb128 0x3a
 3405 00eb 0B       		.uleb128 0xb
 3406 00ec 3B       		.uleb128 0x3b
 3407 00ed 0B       		.uleb128 0xb
 3408 00ee 39       		.uleb128 0x39
 3409 00ef 0B       		.uleb128 0xb
 3410 00f0 49       		.uleb128 0x49
 3411 00f1 13       		.uleb128 0x13
 3412 00f2 00       		.byte	0
 3413 00f3 00       		.byte	0
 3414 00f4 13       		.uleb128 0x13
 3415 00f5 0D       		.uleb128 0xd
 3416 00f6 00       		.byte	0
 3417 00f7 03       		.uleb128 0x3
 3418 00f8 0E       		.uleb128 0xe
 3419 00f9 3A       		.uleb128 0x3a
 3420 00fa 0B       		.uleb128 0xb
ARM GAS  /tmp/ccwqMvbB.s 			page 61


 3421 00fb 3B       		.uleb128 0x3b
 3422 00fc 0B       		.uleb128 0xb
 3423 00fd 39       		.uleb128 0x39
 3424 00fe 0B       		.uleb128 0xb
 3425 00ff 49       		.uleb128 0x49
 3426 0100 13       		.uleb128 0x13
 3427 0101 0B       		.uleb128 0xb
 3428 0102 0B       		.uleb128 0xb
 3429 0103 0D       		.uleb128 0xd
 3430 0104 0B       		.uleb128 0xb
 3431 0105 0C       		.uleb128 0xc
 3432 0106 0B       		.uleb128 0xb
 3433 0107 38       		.uleb128 0x38
 3434 0108 0B       		.uleb128 0xb
 3435 0109 00       		.byte	0
 3436 010a 00       		.byte	0
 3437 010b 14       		.uleb128 0x14
 3438 010c 13       		.uleb128 0x13
 3439 010d 01       		.byte	0x1
 3440 010e 0B       		.uleb128 0xb
 3441 010f 05       		.uleb128 0x5
 3442 0110 3A       		.uleb128 0x3a
 3443 0111 0B       		.uleb128 0xb
 3444 0112 3B       		.uleb128 0x3b
 3445 0113 0B       		.uleb128 0xb
 3446 0114 39       		.uleb128 0x39
 3447 0115 0B       		.uleb128 0xb
 3448 0116 01       		.uleb128 0x1
 3449 0117 13       		.uleb128 0x13
 3450 0118 00       		.byte	0
 3451 0119 00       		.byte	0
 3452 011a 15       		.uleb128 0x15
 3453 011b 01       		.uleb128 0x1
 3454 011c 01       		.byte	0x1
 3455 011d 49       		.uleb128 0x49
 3456 011e 13       		.uleb128 0x13
 3457 011f 01       		.uleb128 0x1
 3458 0120 13       		.uleb128 0x13
 3459 0121 00       		.byte	0
 3460 0122 00       		.byte	0
 3461 0123 16       		.uleb128 0x16
 3462 0124 21       		.uleb128 0x21
 3463 0125 00       		.byte	0
 3464 0126 49       		.uleb128 0x49
 3465 0127 13       		.uleb128 0x13
 3466 0128 2F       		.uleb128 0x2f
 3467 0129 0B       		.uleb128 0xb
 3468 012a 00       		.byte	0
 3469 012b 00       		.byte	0
 3470 012c 17       		.uleb128 0x17
 3471 012d 34       		.uleb128 0x34
 3472 012e 00       		.byte	0
 3473 012f 03       		.uleb128 0x3
 3474 0130 0E       		.uleb128 0xe
 3475 0131 3A       		.uleb128 0x3a
 3476 0132 0B       		.uleb128 0xb
 3477 0133 3B       		.uleb128 0x3b
ARM GAS  /tmp/ccwqMvbB.s 			page 62


 3478 0134 05       		.uleb128 0x5
 3479 0135 39       		.uleb128 0x39
 3480 0136 0B       		.uleb128 0xb
 3481 0137 49       		.uleb128 0x49
 3482 0138 13       		.uleb128 0x13
 3483 0139 3F       		.uleb128 0x3f
 3484 013a 19       		.uleb128 0x19
 3485 013b 3C       		.uleb128 0x3c
 3486 013c 19       		.uleb128 0x19
 3487 013d 00       		.byte	0
 3488 013e 00       		.byte	0
 3489 013f 18       		.uleb128 0x18
 3490 0140 34       		.uleb128 0x34
 3491 0141 00       		.byte	0
 3492 0142 03       		.uleb128 0x3
 3493 0143 0E       		.uleb128 0xe
 3494 0144 3A       		.uleb128 0x3a
 3495 0145 0B       		.uleb128 0xb
 3496 0146 3B       		.uleb128 0x3b
 3497 0147 0B       		.uleb128 0xb
 3498 0148 39       		.uleb128 0x39
 3499 0149 0B       		.uleb128 0xb
 3500 014a 49       		.uleb128 0x49
 3501 014b 13       		.uleb128 0x13
 3502 014c 3F       		.uleb128 0x3f
 3503 014d 19       		.uleb128 0x19
 3504 014e 3C       		.uleb128 0x3c
 3505 014f 19       		.uleb128 0x19
 3506 0150 00       		.byte	0
 3507 0151 00       		.byte	0
 3508 0152 19       		.uleb128 0x19
 3509 0153 13       		.uleb128 0x13
 3510 0154 01       		.byte	0x1
 3511 0155 0B       		.uleb128 0xb
 3512 0156 0B       		.uleb128 0xb
 3513 0157 3A       		.uleb128 0x3a
 3514 0158 0B       		.uleb128 0xb
 3515 0159 3B       		.uleb128 0x3b
 3516 015a 05       		.uleb128 0x5
 3517 015b 39       		.uleb128 0x39
 3518 015c 0B       		.uleb128 0xb
 3519 015d 01       		.uleb128 0x1
 3520 015e 13       		.uleb128 0x13
 3521 015f 00       		.byte	0
 3522 0160 00       		.byte	0
 3523 0161 1A       		.uleb128 0x1a
 3524 0162 16       		.uleb128 0x16
 3525 0163 00       		.byte	0
 3526 0164 03       		.uleb128 0x3
 3527 0165 0E       		.uleb128 0xe
 3528 0166 3A       		.uleb128 0x3a
 3529 0167 0B       		.uleb128 0xb
 3530 0168 3B       		.uleb128 0x3b
 3531 0169 05       		.uleb128 0x5
 3532 016a 39       		.uleb128 0x39
 3533 016b 0B       		.uleb128 0xb
 3534 016c 49       		.uleb128 0x49
ARM GAS  /tmp/ccwqMvbB.s 			page 63


 3535 016d 13       		.uleb128 0x13
 3536 016e 00       		.byte	0
 3537 016f 00       		.byte	0
 3538 0170 1B       		.uleb128 0x1b
 3539 0171 13       		.uleb128 0x13
 3540 0172 01       		.byte	0x1
 3541 0173 03       		.uleb128 0x3
 3542 0174 0E       		.uleb128 0xe
 3543 0175 0B       		.uleb128 0xb
 3544 0176 0B       		.uleb128 0xb
 3545 0177 3A       		.uleb128 0x3a
 3546 0178 0B       		.uleb128 0xb
 3547 0179 3B       		.uleb128 0x3b
 3548 017a 05       		.uleb128 0x5
 3549 017b 39       		.uleb128 0x39
 3550 017c 0B       		.uleb128 0xb
 3551 017d 01       		.uleb128 0x1
 3552 017e 13       		.uleb128 0x13
 3553 017f 00       		.byte	0
 3554 0180 00       		.byte	0
 3555 0181 1C       		.uleb128 0x1c
 3556 0182 04       		.uleb128 0x4
 3557 0183 01       		.byte	0x1
 3558 0184 3E       		.uleb128 0x3e
 3559 0185 0B       		.uleb128 0xb
 3560 0186 0B       		.uleb128 0xb
 3561 0187 0B       		.uleb128 0xb
 3562 0188 49       		.uleb128 0x49
 3563 0189 13       		.uleb128 0x13
 3564 018a 3A       		.uleb128 0x3a
 3565 018b 0B       		.uleb128 0xb
 3566 018c 3B       		.uleb128 0x3b
 3567 018d 0B       		.uleb128 0xb
 3568 018e 39       		.uleb128 0x39
 3569 018f 0B       		.uleb128 0xb
 3570 0190 01       		.uleb128 0x1
 3571 0191 13       		.uleb128 0x13
 3572 0192 00       		.byte	0
 3573 0193 00       		.byte	0
 3574 0194 1D       		.uleb128 0x1d
 3575 0195 28       		.uleb128 0x28
 3576 0196 00       		.byte	0
 3577 0197 03       		.uleb128 0x3
 3578 0198 0E       		.uleb128 0xe
 3579 0199 1C       		.uleb128 0x1c
 3580 019a 0B       		.uleb128 0xb
 3581 019b 00       		.byte	0
 3582 019c 00       		.byte	0
 3583 019d 1E       		.uleb128 0x1e
 3584 019e 0D       		.uleb128 0xd
 3585 019f 00       		.byte	0
 3586 01a0 03       		.uleb128 0x3
 3587 01a1 0E       		.uleb128 0xe
 3588 01a2 3A       		.uleb128 0x3a
 3589 01a3 0B       		.uleb128 0xb
 3590 01a4 3B       		.uleb128 0x3b
 3591 01a5 05       		.uleb128 0x5
ARM GAS  /tmp/ccwqMvbB.s 			page 64


 3592 01a6 39       		.uleb128 0x39
 3593 01a7 0B       		.uleb128 0xb
 3594 01a8 49       		.uleb128 0x49
 3595 01a9 13       		.uleb128 0x13
 3596 01aa 00       		.byte	0
 3597 01ab 00       		.byte	0
 3598 01ac 1F       		.uleb128 0x1f
 3599 01ad 34       		.uleb128 0x34
 3600 01ae 00       		.byte	0
 3601 01af 03       		.uleb128 0x3
 3602 01b0 08       		.uleb128 0x8
 3603 01b1 3A       		.uleb128 0x3a
 3604 01b2 0B       		.uleb128 0xb
 3605 01b3 3B       		.uleb128 0x3b
 3606 01b4 05       		.uleb128 0x5
 3607 01b5 39       		.uleb128 0x39
 3608 01b6 0B       		.uleb128 0xb
 3609 01b7 49       		.uleb128 0x49
 3610 01b8 13       		.uleb128 0x13
 3611 01b9 3F       		.uleb128 0x3f
 3612 01ba 19       		.uleb128 0x19
 3613 01bb 3C       		.uleb128 0x3c
 3614 01bc 19       		.uleb128 0x19
 3615 01bd 00       		.byte	0
 3616 01be 00       		.byte	0
 3617 01bf 20       		.uleb128 0x20
 3618 01c0 15       		.uleb128 0x15
 3619 01c1 01       		.byte	0x1
 3620 01c2 27       		.uleb128 0x27
 3621 01c3 19       		.uleb128 0x19
 3622 01c4 49       		.uleb128 0x49
 3623 01c5 13       		.uleb128 0x13
 3624 01c6 01       		.uleb128 0x1
 3625 01c7 13       		.uleb128 0x13
 3626 01c8 00       		.byte	0
 3627 01c9 00       		.byte	0
 3628 01ca 21       		.uleb128 0x21
 3629 01cb 05       		.uleb128 0x5
 3630 01cc 00       		.byte	0
 3631 01cd 49       		.uleb128 0x49
 3632 01ce 13       		.uleb128 0x13
 3633 01cf 00       		.byte	0
 3634 01d0 00       		.byte	0
 3635 01d1 22       		.uleb128 0x22
 3636 01d2 15       		.uleb128 0x15
 3637 01d3 01       		.byte	0x1
 3638 01d4 27       		.uleb128 0x27
 3639 01d5 19       		.uleb128 0x19
 3640 01d6 01       		.uleb128 0x1
 3641 01d7 13       		.uleb128 0x13
 3642 01d8 00       		.byte	0
 3643 01d9 00       		.byte	0
 3644 01da 23       		.uleb128 0x23
 3645 01db 34       		.uleb128 0x34
 3646 01dc 00       		.byte	0
 3647 01dd 03       		.uleb128 0x3
 3648 01de 0E       		.uleb128 0xe
ARM GAS  /tmp/ccwqMvbB.s 			page 65


 3649 01df 3A       		.uleb128 0x3a
 3650 01e0 0B       		.uleb128 0xb
 3651 01e1 3B       		.uleb128 0x3b
 3652 01e2 0B       		.uleb128 0xb
 3653 01e3 39       		.uleb128 0x39
 3654 01e4 0B       		.uleb128 0xb
 3655 01e5 49       		.uleb128 0x49
 3656 01e6 13       		.uleb128 0x13
 3657 01e7 00       		.byte	0
 3658 01e8 00       		.byte	0
 3659 01e9 24       		.uleb128 0x24
 3660 01ea 2E       		.uleb128 0x2e
 3661 01eb 00       		.byte	0
 3662 01ec 3F       		.uleb128 0x3f
 3663 01ed 19       		.uleb128 0x19
 3664 01ee 03       		.uleb128 0x3
 3665 01ef 0E       		.uleb128 0xe
 3666 01f0 3A       		.uleb128 0x3a
 3667 01f1 0B       		.uleb128 0xb
 3668 01f2 3B       		.uleb128 0x3b
 3669 01f3 05       		.uleb128 0x5
 3670 01f4 39       		.uleb128 0x39
 3671 01f5 0B       		.uleb128 0xb
 3672 01f6 27       		.uleb128 0x27
 3673 01f7 19       		.uleb128 0x19
 3674 01f8 00       		.byte	0
 3675 01f9 00       		.byte	0
 3676 01fa 25       		.uleb128 0x25
 3677 01fb 2E       		.uleb128 0x2e
 3678 01fc 00       		.byte	0
 3679 01fd 3F       		.uleb128 0x3f
 3680 01fe 19       		.uleb128 0x19
 3681 01ff 03       		.uleb128 0x3
 3682 0200 0E       		.uleb128 0xe
 3683 0201 3A       		.uleb128 0x3a
 3684 0202 0B       		.uleb128 0xb
 3685 0203 3B       		.uleb128 0x3b
 3686 0204 0B       		.uleb128 0xb
 3687 0205 39       		.uleb128 0x39
 3688 0206 0B       		.uleb128 0xb
 3689 0207 27       		.uleb128 0x27
 3690 0208 19       		.uleb128 0x19
 3691 0209 00       		.byte	0
 3692 020a 00       		.byte	0
 3693 020b 26       		.uleb128 0x26
 3694 020c 2E       		.uleb128 0x2e
 3695 020d 00       		.byte	0
 3696 020e 03       		.uleb128 0x3
 3697 020f 0E       		.uleb128 0xe
 3698 0210 3A       		.uleb128 0x3a
 3699 0211 0B       		.uleb128 0xb
 3700 0212 3B       		.uleb128 0x3b
 3701 0213 0B       		.uleb128 0xb
 3702 0214 39       		.uleb128 0x39
 3703 0215 0B       		.uleb128 0xb
 3704 0216 27       		.uleb128 0x27
 3705 0217 19       		.uleb128 0x19
ARM GAS  /tmp/ccwqMvbB.s 			page 66


 3706 0218 00       		.byte	0
 3707 0219 00       		.byte	0
 3708 021a 27       		.uleb128 0x27
 3709 021b 2E       		.uleb128 0x2e
 3710 021c 01       		.byte	0x1
 3711 021d 03       		.uleb128 0x3
 3712 021e 0E       		.uleb128 0xe
 3713 021f 3A       		.uleb128 0x3a
 3714 0220 0B       		.uleb128 0xb
 3715 0221 3B       		.uleb128 0x3b
 3716 0222 0B       		.uleb128 0xb
 3717 0223 39       		.uleb128 0x39
 3718 0224 0B       		.uleb128 0xb
 3719 0225 27       		.uleb128 0x27
 3720 0226 19       		.uleb128 0x19
 3721 0227 01       		.uleb128 0x1
 3722 0228 13       		.uleb128 0x13
 3723 0229 00       		.byte	0
 3724 022a 00       		.byte	0
 3725 022b 28       		.uleb128 0x28
 3726 022c 05       		.uleb128 0x5
 3727 022d 00       		.byte	0
 3728 022e 03       		.uleb128 0x3
 3729 022f 0E       		.uleb128 0xe
 3730 0230 3A       		.uleb128 0x3a
 3731 0231 0B       		.uleb128 0xb
 3732 0232 3B       		.uleb128 0x3b
 3733 0233 0B       		.uleb128 0xb
 3734 0234 39       		.uleb128 0x39
 3735 0235 0B       		.uleb128 0xb
 3736 0236 49       		.uleb128 0x49
 3737 0237 13       		.uleb128 0x13
 3738 0238 00       		.byte	0
 3739 0239 00       		.byte	0
 3740 023a 00       		.byte	0
 3741              		.section	.gnu.debuglto_.debug_line,"e",%progbits
 3742              	.Ldebug_line0:
 3743 0000 55030000 		.4byte	.LELT0-.LSLT0
 3744              	.LSLT0:
 3745 0004 0400     		.2byte	0x4
 3746 0006 4F030000 		.4byte	.LELTP0-.LASLTP0
 3747              	.LASLTP0:
 3748 000a 01       		.byte	0x1
 3749 000b 01       		.byte	0x1
 3750 000c 01       		.byte	0x1
 3751 000d F6       		.byte	0xf6
 3752 000e F2       		.byte	0xf2
 3753 000f 0D       		.byte	0xd
 3754 0010 00       		.byte	0
 3755 0011 01       		.byte	0x1
 3756 0012 01       		.byte	0x1
 3757 0013 01       		.byte	0x1
 3758 0014 01       		.byte	0x1
 3759 0015 00       		.byte	0
 3760 0016 00       		.byte	0
 3761 0017 00       		.byte	0
 3762 0018 01       		.byte	0x1
ARM GAS  /tmp/ccwqMvbB.s 			page 67


 3763 0019 00       		.byte	0
 3764 001a 00       		.byte	0
 3765 001b 01       		.byte	0x1
 3766 001c 2E2E2F2E 		.ascii	"../../../../os/common/ext/ARM/CMSIS/Core/Include"
 3766      2E2F2E2E 
 3766      2F2E2E2F 
 3766      6F732F63 
 3766      6F6D6D6F 
 3767 004c 00       		.byte	0
 3768 004d 2E2E2F2E 		.ascii	"../../../../os/common/ext/ST/STM32F3xx"
 3768      2E2F2E2E 
 3768      2F2E2E2F 
 3768      6F732F63 
 3768      6F6D6D6F 
 3769 0073 00       		.byte	0
 3770 0074 2E2E2F2E 		.ascii	"../../../../os/common/ports/ARM-common"
 3770      2E2F2E2E 
 3770      2F2E2E2F 
 3770      6F732F63 
 3770      6F6D6D6F 
 3771 009a 00       		.byte	0
 3772 009b 2E2E2F2E 		.ascii	"../../../../os/common/ports/ARMv7-M"
 3772      2E2F2E2E 
 3772      2F2E2E2F 
 3772      6F732F63 
 3772      6F6D6D6F 
 3773 00be 00       		.byte	0
 3774 00bf 2E2E2F2E 		.ascii	"../../../../os/hal/boards/ST_STM32F3_DISCOVERY"
 3774      2E2F2E2E 
 3774      2F2E2E2F 
 3774      6F732F68 
 3774      616C2F62 
 3775 00ed 00       		.byte	0
 3776 00ee 2E2E2F2E 		.ascii	"../../../../os/hal/include"
 3776      2E2F2E2E 
 3776      2F2E2E2F 
 3776      6F732F68 
 3776      616C2F69 
 3777 0108 00       		.byte	0
 3778 0109 2E2E2F2E 		.ascii	"../../../../os/hal/ports/STM32/LLD/ADCv3"
 3778      2E2F2E2E 
 3778      2F2E2E2F 
 3778      6F732F68 
 3778      616C2F70 
 3779 0131 00       		.byte	0
 3780 0132 2E2E2F2E 		.ascii	"../../../../os/hal/ports/STM32/LLD/DMAv1"
 3780      2E2F2E2E 
 3780      2F2E2E2F 
 3780      6F732F68 
 3780      616C2F70 
 3781 015a 00       		.byte	0
 3782 015b 2E2E2F2E 		.ascii	"../../../../os/hal/ports/STM32/LLD/GPIOv2"
 3782      2E2F2E2E 
 3782      2F2E2E2F 
 3782      6F732F68 
 3782      616C2F70 
 3783 0184 00       		.byte	0
ARM GAS  /tmp/ccwqMvbB.s 			page 68


 3784 0185 2E2E2F2E 		.ascii	"../../../../os/oslib/include"
 3784      2E2F2E2E 
 3784      2F2E2E2F 
 3784      6F732F6F 
 3784      736C6962 
 3785 01a1 00       		.byte	0
 3786 01a2 2E2E2F2E 		.ascii	"../../../../os/rt/include"
 3786      2E2F2E2E 
 3786      2F2E2E2F 
 3786      6F732F72 
 3786      742F696E 
 3787 01bb 00       		.byte	0
 3788 01bc 2F757372 		.ascii	"/usr/lib/gcc/arm-none-eabi/9.2.1/include"
 3788      2F6C6962 
 3788      2F676363 
 3788      2F61726D 
 3788      2D6E6F6E 
 3789 01e4 00       		.byte	0
 3790 01e5 00       		.byte	0
 3791 01e6 73746464 		.ascii	"stddef.h\000"
 3791      65662E68 
 3791      00
 3792 01ef 0C       		.uleb128 0xc
 3793 01f0 00       		.uleb128 0
 3794 01f1 00       		.uleb128 0
 3795 01f2 73746469 		.ascii	"stdint.h\000"
 3795      6E742E68 
 3795      00
 3796 01fb 0C       		.uleb128 0xc
 3797 01fc 00       		.uleb128 0
 3798 01fd 00       		.uleb128 0
 3799 01fe 63687479 		.ascii	"chtypes.h\000"
 3799      7065732E 
 3799      6800
 3800 0208 03       		.uleb128 0x3
 3801 0209 00       		.uleb128 0
 3802 020a 00       		.uleb128 0
 3803 020b 63686561 		.ascii	"chearly.h\000"
 3803      726C792E 
 3803      6800
 3804 0215 0B       		.uleb128 0xb
 3805 0216 00       		.uleb128 0
 3806 0217 00       		.uleb128 0
 3807 0218 63686F62 		.ascii	"chobjects.h\000"
 3807      6A656374 
 3807      732E6800 
 3808 0224 0B       		.uleb128 0xb
 3809 0225 00       		.uleb128 0
 3810 0226 00       		.uleb128 0
 3811 0227 63687266 		.ascii	"chrfcu.h\000"
 3811      63752E68 
 3811      00
 3812 0230 0B       		.uleb128 0xb
 3813 0231 00       		.uleb128 0
 3814 0232 00       		.uleb128 0
 3815 0233 63686465 		.ascii	"chdebug.h\000"
 3815      6275672E 
ARM GAS  /tmp/ccwqMvbB.s 			page 69


 3815      6800
 3816 023d 0B       		.uleb128 0xb
 3817 023e 00       		.uleb128 0
 3818 023f 00       		.uleb128 0
 3819 0240 63687469 		.ascii	"chtime.h\000"
 3819      6D652E68 
 3819      00
 3820 0249 0B       		.uleb128 0xb
 3821 024a 00       		.uleb128 0
 3822 024b 00       		.uleb128 0
 3823 024c 63686C69 		.ascii	"chlists.h\000"
 3823      7374732E 
 3823      6800
 3824 0256 0B       		.uleb128 0xb
 3825 0257 00       		.uleb128 0
 3826 0258 00       		.uleb128 0
 3827 0259 63687472 		.ascii	"chtrace.h\000"
 3827      6163652E 
 3827      6800
 3828 0263 0B       		.uleb128 0xb
 3829 0264 00       		.uleb128 0
 3830 0265 00       		.uleb128 0
 3831 0266 636F7265 		.ascii	"core_cm4.h\000"
 3831      5F636D34 
 3831      2E6800
 3832 0271 01       		.uleb128 0x1
 3833 0272 00       		.uleb128 0
 3834 0273 00       		.uleb128 0
 3835 0274 73797374 		.ascii	"system_stm32f3xx.h\000"
 3835      656D5F73 
 3835      746D3332 
 3835      66337878 
 3835      2E6800
 3836 0287 02       		.uleb128 0x2
 3837 0288 00       		.uleb128 0
 3838 0289 00       		.uleb128 0
 3839 028a 73746D33 		.ascii	"stm32f303xc.h\000"
 3839      32663330 
 3839      3378632E 
 3839      6800
 3840 0298 02       		.uleb128 0x2
 3841 0299 00       		.uleb128 0
 3842 029a 00       		.uleb128 0
 3843 029b 6368636F 		.ascii	"chcore.h\000"
 3843      72652E68 
 3843      00
 3844 02a4 04       		.uleb128 0x4
 3845 02a5 00       		.uleb128 0
 3846 02a6 00       		.uleb128 0
 3847 02a7 6368746D 		.ascii	"chtm.h\000"
 3847      2E6800
 3848 02ae 0B       		.uleb128 0xb
 3849 02af 00       		.uleb128 0
 3850 02b0 00       		.uleb128 0
 3851 02b1 63687365 		.ascii	"chsem.h\000"
 3851      6D2E6800 
 3852 02b9 0B       		.uleb128 0xb
ARM GAS  /tmp/ccwqMvbB.s 			page 70


 3853 02ba 00       		.uleb128 0
 3854 02bb 00       		.uleb128 0
 3855 02bc 63686D74 		.ascii	"chmtx.h\000"
 3855      782E6800 
 3856 02c4 0B       		.uleb128 0xb
 3857 02c5 00       		.uleb128 0
 3858 02c6 00       		.uleb128 0
 3859 02c7 63687379 		.ascii	"chsys.h\000"
 3859      732E6800 
 3860 02cf 0B       		.uleb128 0xb
 3861 02d0 00       		.uleb128 0
 3862 02d1 00       		.uleb128 0
 3863 02d2 63687265 		.ascii	"chregistry.h\000"
 3863      67697374 
 3863      72792E68 
 3863      00
 3864 02df 0B       		.uleb128 0xb
 3865 02e0 00       		.uleb128 0
 3866 02e1 00       		.uleb128 0
 3867 02e2 63686D65 		.ascii	"chmemcore.h\000"
 3867      6D636F72 
 3867      652E6800 
 3868 02ee 0A       		.uleb128 0xa
 3869 02ef 00       		.uleb128 0
 3870 02f0 00       		.uleb128 0
 3871 02f1 63686D65 		.ascii	"chmempools.h\000"
 3871      6D706F6F 
 3871      6C732E68 
 3871      00
 3872 02fe 0A       		.uleb128 0xa
 3873 02ff 00       		.uleb128 0
 3874 0300 00       		.uleb128 0
 3875 0301 63686661 		.ascii	"chfactory.h\000"
 3875      63746F72 
 3875      792E6800 
 3876 030d 0A       		.uleb128 0xa
 3877 030e 00       		.uleb128 0
 3878 030f 00       		.uleb128 0
 3879 0310 73746D33 		.ascii	"stm32_dma.h\000"
 3879      325F646D 
 3879      612E6800 
 3880 031c 08       		.uleb128 0x8
 3881 031d 00       		.uleb128 0
 3882 031e 00       		.uleb128 0
 3883 031f 73746D33 		.ascii	"stm32_gpio.h\000"
 3883      325F6770 
 3883      696F2E68 
 3883      00
 3884 032c 09       		.uleb128 0x9
 3885 032d 00       		.uleb128 0
 3886 032e 00       		.uleb128 0
 3887 032f 68616C5F 		.ascii	"hal_adc.h\000"
 3887      6164632E 
 3887      6800
 3888 0339 06       		.uleb128 0x6
 3889 033a 00       		.uleb128 0
 3890 033b 00       		.uleb128 0
ARM GAS  /tmp/ccwqMvbB.s 			page 71


 3891 033c 68616C5F 		.ascii	"hal_adc_lld.h\000"
 3891      6164635F 
 3891      6C6C642E 
 3891      6800
 3892 034a 07       		.uleb128 0x7
 3893 034b 00       		.uleb128 0
 3894 034c 00       		.uleb128 0
 3895 034d 626F6172 		.ascii	"board.c\000"
 3895      642E6300 
 3896 0355 05       		.uleb128 0x5
 3897 0356 00       		.uleb128 0
 3898 0357 00       		.uleb128 0
 3899 0358 00       		.byte	0
 3900              	.LELTP0:
 3901              	.LELT0:
 3902              		.section	.gnu.debuglto_.debug_str,"eMS",%progbits,1
 3903              	.LASF192:
 3904 0000 6F66665F 		.ascii	"off_ctx\000"
 3904      63747800 
 3905              	.LASF75:
 3906 0008 63685F64 		.ascii	"ch_delta_list_t\000"
 3906      656C7461 
 3906      5F6C6973 
 3906      745F7400 
 3907              	.LASF5:
 3908 0018 73697A65 		.ascii	"size_t\000"
 3908      5F7400
 3909              	.LASF191:
 3910 001f 6F66665F 		.ascii	"off_prio\000"
 3910      7072696F 
 3910      00
 3911              	.LASF167:
 3912 0028 77747365 		.ascii	"wtsemp\000"
 3912      6D7000
 3913              	.LASF64:
 3914 002f 73797374 		.ascii	"systime_t\000"
 3914      696D655F 
 3914      7400
 3915              	.LASF200:
 3916 0039 6F66665F 		.ascii	"off_preempt\000"
 3916      70726565 
 3916      6D707400 
 3917              	.LASF182:
 3918 0045 696E7374 		.ascii	"instances\000"
 3918      616E6365 
 3918      7300
 3919              	.LASF148:
 3920 004f 63685F73 		.ascii	"ch_sys_initializing\000"
 3920      79735F69 
 3920      6E697469 
 3920      616C697A 
 3920      696E6700 
 3921              	.LASF31:
 3922 0063 6F776E65 		.ascii	"owner\000"
 3922      7200
 3923              	.LASF23:
 3924 0069 74707269 		.ascii	"tprio_t\000"
ARM GAS  /tmp/ccwqMvbB.s 			page 72


 3924      6F5F7400 
 3925              	.LASF302:
 3926 0071 61646363 		.ascii	"adccallback_t\000"
 3926      616C6C62 
 3926      61636B5F 
 3926      7400
 3927              	.LASF100:
 3928 007f 53515231 		.ascii	"SQR1\000"
 3928      00
 3929              	.LASF101:
 3930 0084 53515232 		.ascii	"SQR2\000"
 3930      00
 3931              	.LASF102:
 3932 0089 53515233 		.ascii	"SQR3\000"
 3932      00
 3933              	.LASF103:
 3934 008e 53515234 		.ascii	"SQR4\000"
 3934      00
 3935              	.LASF218:
 3936 0093 63685F64 		.ascii	"ch_debug\000"
 3936      65627567 
 3936      00
 3937              	.LASF229:
 3938 009c 70726F76 		.ascii	"provider\000"
 3938      69646572 
 3938      00
 3939              	.LASF81:
 3940 00a5 75736572 		.ascii	"user\000"
 3940      00
 3941              	.LASF6:
 3942 00aa 696E7433 		.ascii	"int32_t\000"
 3942      325F7400 
 3943              	.LASF267:
 3944 00b2 4144435F 		.ascii	"ADC_ACTIVE\000"
 3944      41435449 
 3944      564500
 3945              	.LASF270:
 3946 00bd 61646373 		.ascii	"adcstate_t\000"
 3946      74617465 
 3946      5F7400
 3947              	.LASF207:
 3948 00c8 6F66665F 		.ascii	"off_sys_instances\000"
 3948      7379735F 
 3948      696E7374 
 3948      616E6365 
 3948      7300
 3949              	.LASF320:
 3950 00da 6770696F 		.ascii	"gpiop\000"
 3950      7000
 3951              	.LASF152:
 3952 00e0 63685F76 		.ascii	"ch_virtual_timers_list\000"
 3952      69727475 
 3952      616C5F74 
 3952      696D6572 
 3952      735F6C69 
 3953              	.LASF159:
 3954 00f7 72656769 		.ascii	"registry_t\000"
ARM GAS  /tmp/ccwqMvbB.s 			page 73


 3954      73747279 
 3954      5F7400
 3955              	.LASF284:
 3956 0102 64696673 		.ascii	"difsel\000"
 3956      656C00
 3957              	.LASF291:
 3958 0109 63666772 		.ascii	"cfgr\000"
 3958      00
 3959              	.LASF231:
 3960 010e 63685F64 		.ascii	"ch_dyn_element\000"
 3960      796E5F65 
 3960      6C656D65 
 3960      6E7400
 3961              	.LASF83:
 3962 011d 72747374 		.ascii	"rtstamp\000"
 3962      616D7000 
 3963              	.LASF210:
 3964 0125 6F66665F 		.ascii	"off_sys_reserved\000"
 3964      7379735F 
 3964      72657365 
 3964      72766564 
 3964      00
 3965              	.LASF51:
 3966 0136 636F6E66 		.ascii	"config\000"
 3966      696700
 3967              	.LASF34:
 3968 013d 73746174 		.ascii	"state\000"
 3968      6500
 3969              	.LASF315:
 3970 0143 50454461 		.ascii	"PEData\000"
 3970      746100
 3971              	.LASF61:
 3972 014a 6C6F636B 		.ascii	"lock_cnt\000"
 3972      5F636E74 
 3972      00
 3973              	.LASF55:
 3974 0153 63685F72 		.ascii	"ch_rfcu\000"
 3974      66637500 
 3975              	.LASF127:
 3976 015b 434E4454 		.ascii	"CNDTR\000"
 3976      5200
 3977              	.LASF82:
 3978 0161 74797065 		.ascii	"type\000"
 3978      00
 3979              	.LASF236:
 3980 0166 6F626A5F 		.ascii	"obj_list\000"
 3980      6C697374 
 3980      00
 3981              	.LASF151:
 3982 016f 73797374 		.ascii	"system_state_t\000"
 3982      656D5F73 
 3982      74617465 
 3982      5F7400
 3983              	.LASF208:
 3984 017e 6F66665F 		.ascii	"off_sys_reglist\000"
 3984      7379735F 
 3984      7265676C 
ARM GAS  /tmp/ccwqMvbB.s 			page 74


 3984      69737400 
 3985              	.LASF290:
 3986 018e 6572726F 		.ascii	"error_cb\000"
 3986      725F6362 
 3986      00
 3987              	.LASF194:
 3988 0197 6F66665F 		.ascii	"off_older\000"
 3988      6F6C6465 
 3988      7200
 3989              	.LASF157:
 3990 01a1 63685F72 		.ascii	"ch_registry\000"
 3990      65676973 
 3990      74727900 
 3991              	.LASF74:
 3992 01ad 7072696F 		.ascii	"prio\000"
 3992      00
 3993              	.LASF289:
 3994 01b2 656E645F 		.ascii	"end_cb\000"
 3994      636200
 3995              	.LASF164:
 3996 01b9 65786974 		.ascii	"exitcode\000"
 3996      636F6465 
 3996      00
 3997              	.LASF279:
 3998 01c2 61646363 		.ascii	"adcc\000"
 3998      00
 3999              	.LASF213:
 4000 01c7 6F66665F 		.ascii	"off_inst_vtlist\000"
 4000      696E7374 
 4000      5F76746C 
 4000      69737400 
 4001              	.LASF7:
 4002 01d7 6C6F6E67 		.ascii	"long int\000"
 4002      20696E74 
 4002      00
 4003              	.LASF186:
 4004 01e0 7A65726F 		.ascii	"zero\000"
 4004      00
 4005              	.LASF281:
 4006 01e5 646D616D 		.ascii	"dmamode\000"
 4006      6F646500 
 4007              	.LASF21:
 4008 01ed 74737461 		.ascii	"tstate_t\000"
 4008      74655F74 
 4008      00
 4009              	.LASF39:
 4010 01f6 6570656E 		.ascii	"epending\000"
 4010      64696E67 
 4010      00
 4011              	.LASF66:
 4012 01ff 63685F6C 		.ascii	"ch_list_t\000"
 4012      6973745F 
 4012      7400
 4013              	.LASF294:
 4014 0209 736D7072 		.ascii	"smpr\000"
 4014      00
 4015              	.LASF147:
ARM GAS  /tmp/ccwqMvbB.s 			page 75


 4016 020e 63685F73 		.ascii	"ch_sys_uninit\000"
 4016      79735F75 
 4016      6E696E69 
 4016      7400
 4017              	.LASF136:
 4018 021c 41504232 		.ascii	"APB2ENR\000"
 4018      454E5200 
 4019              	.LASF67:
 4020 0224 63685F6C 		.ascii	"ch_list\000"
 4020      69737400 
 4021              	.LASF155:
 4022 022c 6C617374 		.ascii	"laststamp\000"
 4022      7374616D 
 4022      7000
 4023              	.LASF237:
 4024 0236 6F626A5F 		.ascii	"obj_pool\000"
 4024      706F6F6C 
 4024      00
 4025              	.LASF323:
 4026 023f 2F686F6D 		.ascii	"/home/ubuntu/Raka/New/ChibiOS_21.11.2/testhal/STM32"
 4026      652F7562 
 4026      756E7475 
 4026      2F52616B 
 4026      612F4E65 
 4027 0272 2F53544D 		.ascii	"/STM32F3xx/ADC\000"
 4027      33324633 
 4027      78782F41 
 4027      444300
 4028              	.LASF128:
 4029 0281 43504152 		.ascii	"CPAR\000"
 4029      00
 4030              	.LASF224:
 4031 0286 6D656D63 		.ascii	"memcore_t\000"
 4031      6F72655F 
 4031      7400
 4032              	.LASF3:
 4033 0290 7369676E 		.ascii	"signed char\000"
 4033      65642063 
 4033      68617200 
 4034              	.LASF169:
 4035 029c 65776D61 		.ascii	"ewmask\000"
 4035      736B00
 4036              	.LASF8:
 4037 02a3 75696E74 		.ascii	"uint8_t\000"
 4037      385F7400 
 4038              	.LASF28:
 4039 02ab 636F7265 		.ascii	"core_id_t\000"
 4039      5F69645F 
 4039      7400
 4040              	.LASF25:
 4041 02b5 6576656E 		.ascii	"eventmask_t\000"
 4041      746D6173 
 4041      6B5F7400 
 4042              	.LASF317:
 4043 02c1 6770696F 		.ascii	"gpio_config_t\000"
 4043      5F636F6E 
 4043      6669675F 
ARM GAS  /tmp/ccwqMvbB.s 			page 76


 4043      7400
 4044              	.LASF165:
 4045 02cf 77747472 		.ascii	"wttrp\000"
 4045      7000
 4046              	.LASF95:
 4047 02d5 52455345 		.ascii	"RESERVED0\000"
 4047      52564544 
 4047      3000
 4048              	.LASF98:
 4049 02df 52455345 		.ascii	"RESERVED1\000"
 4049      52564544 
 4049      3100
 4050              	.LASF9:
 4051 02e9 756E7369 		.ascii	"unsigned char\000"
 4051      676E6564 
 4051      20636861 
 4051      7200
 4052              	.LASF104:
 4053 02f7 52455345 		.ascii	"RESERVED3\000"
 4053      52564544 
 4053      3300
 4054              	.LASF105:
 4055 0301 52455345 		.ascii	"RESERVED4\000"
 4055      52564544 
 4055      3400
 4056              	.LASF107:
 4057 030b 52455345 		.ascii	"RESERVED5\000"
 4057      52564544 
 4057      3500
 4058              	.LASF112:
 4059 0315 52455345 		.ascii	"RESERVED6\000"
 4059      52564544 
 4059      3600
 4060              	.LASF117:
 4061 031f 52455345 		.ascii	"RESERVED7\000"
 4061      52564544 
 4061      3700
 4062              	.LASF120:
 4063 0329 52455345 		.ascii	"RESERVED8\000"
 4063      52564544 
 4063      3800
 4064              	.LASF121:
 4065 0333 52455345 		.ascii	"RESERVED9\000"
 4065      52564544 
 4065      3900
 4066              	.LASF132:
 4067 033d 444D415F 		.ascii	"DMA_TypeDef\000"
 4067      54797065 
 4067      44656600 
 4068              	.LASF59:
 4069 0349 70616E69 		.ascii	"panic_msg\000"
 4069      635F6D73 
 4069      6700
 4070              	.LASF297:
 4071 0353 61646365 		.ascii	"adcerror_t\000"
 4071      72726F72 
 4071      5F7400
ARM GAS  /tmp/ccwqMvbB.s 			page 77


 4072              	.LASF53:
 4073 035e 74726163 		.ascii	"trace_buffer\000"
 4073      655F6275 
 4073      66666572 
 4073      00
 4074              	.LASF264:
 4075 036b 4144435F 		.ascii	"ADC_UNINIT\000"
 4075      554E494E 
 4075      495400
 4076              	.LASF63:
 4077 0376 73797374 		.ascii	"system_debug_t\000"
 4077      656D5F64 
 4077      65627567 
 4077      5F7400
 4078              	.LASF266:
 4079 0385 4144435F 		.ascii	"ADC_READY\000"
 4079      52454144 
 4079      5900
 4080              	.LASF220:
 4081 038f 5F426F6F 		.ascii	"_Bool\000"
 4081      6C00
 4082              	.LASF99:
 4083 0395 52455345 		.ascii	"RESERVED2\000"
 4083      52564544 
 4083      3200
 4084              	.LASF215:
 4085 039f 6F66665F 		.ascii	"off_inst_core_id\000"
 4085      696E7374 
 4085      5F636F72 
 4085      655F6964 
 4085      00
 4086              	.LASF295:
 4087 03b0 61646373 		.ascii	"adcsample_t\000"
 4087      616D706C 
 4087      655F7400 
 4088              	.LASF62:
 4089 03bc 63686172 		.ascii	"char\000"
 4089      00
 4090              	.LASF304:
 4091 03c1 6D6F6465 		.ascii	"moder\000"
 4091      7200
 4092              	.LASF280:
 4093 03c7 646D6173 		.ascii	"dmastp\000"
 4093      747000
 4094              	.LASF131:
 4095 03ce 49464352 		.ascii	"IFCR\000"
 4095      00
 4096              	.LASF239:
 4097 03d3 73656D5F 		.ascii	"sem_list\000"
 4097      6C697374 
 4097      00
 4098              	.LASF204:
 4099 03dc 696E7465 		.ascii	"intervalsize\000"
 4099      7276616C 
 4099      73697A65 
 4099      00
 4100              	.LASF78:
ARM GAS  /tmp/ccwqMvbB.s 			page 78


 4101 03e9 77746F62 		.ascii	"wtobjp\000"
 4101      6A7000
 4102              	.LASF275:
 4103 03f0 67727070 		.ascii	"grpp\000"
 4103      00
 4104              	.LASF269:
 4105 03f5 4144435F 		.ascii	"ADC_ERROR\000"
 4105      4552524F 
 4105      5200
 4106              	.LASF199:
 4107 03ff 6F66665F 		.ascii	"off_refs\000"
 4107      72656673 
 4107      00
 4108              	.LASF35:
 4109 0408 666C6167 		.ascii	"flags\000"
 4109      7300
 4110              	.LASF19:
 4111 040e 73746B61 		.ascii	"stkalign_t\000"
 4111      6C69676E 
 4111      5F7400
 4112              	.LASF49:
 4113 0419 636F7265 		.ascii	"core_id\000"
 4113      5F696400 
 4114              	.LASF287:
 4115 0421 63697263 		.ascii	"circular\000"
 4115      756C6172 
 4115      00
 4116              	.LASF42:
 4117 042a 6D706F6F 		.ascii	"mpool\000"
 4117      6C00
 4118              	.LASF177:
 4119 0430 6D61696E 		.ascii	"mainthread_end\000"
 4119      74687265 
 4119      61645F65 
 4119      6E6400
 4120              	.LASF188:
 4121 043f 70747273 		.ascii	"ptrsize\000"
 4121      697A6500 
 4122              	.LASF138:
 4123 0447 42444352 		.ascii	"BDCR\000"
 4123      00
 4124              	.LASF118:
 4125 044c 41574432 		.ascii	"AWD2CR\000"
 4125      435200
 4126              	.LASF30:
 4127 0453 72717565 		.ascii	"rqueue\000"
 4127      756500
 4128              	.LASF201:
 4129 045a 6F66665F 		.ascii	"off_time\000"
 4129      74696D65 
 4129      00
 4130              	.LASF26:
 4131 0463 636E745F 		.ascii	"cnt_t\000"
 4131      7400
 4132              	.LASF243:
 4133 0469 70697065 		.ascii	"pipe_list\000"
 4133      5F6C6973 
ARM GAS  /tmp/ccwqMvbB.s 			page 79


 4133      7400
 4134              	.LASF154:
 4135 0473 6C617374 		.ascii	"lasttime\000"
 4135      74696D65 
 4135      00
 4136              	.LASF124:
 4137 047c 4144435F 		.ascii	"ADC_TypeDef\000"
 4137      54797065 
 4137      44656600 
 4138              	.LASF125:
 4139 0488 52455345 		.ascii	"RESERVED\000"
 4139      52564544 
 4139      00
 4140              	.LASF88:
 4141 0491 62756666 		.ascii	"buffer\000"
 4141      657200
 4142              	.LASF232:
 4143 0498 64796E5F 		.ascii	"dyn_element_t\000"
 4143      656C656D 
 4143      656E745F 
 4143      7400
 4144              	.LASF168:
 4145 04a6 77746D74 		.ascii	"wtmtxp\000"
 4145      787000
 4146              	.LASF172:
 4147 04ad 63685F72 		.ascii	"ch_ready_list\000"
 4147      65616479 
 4147      5F6C6973 
 4147      7400
 4148              	.LASF45:
 4149 04bb 63685F6F 		.ascii	"ch_os_instance\000"
 4149      735F696E 
 4149      7374616E 
 4149      636500
 4150              	.LASF303:
 4151 04ca 61646365 		.ascii	"adcerrorcallback_t\000"
 4151      72726F72 
 4151      63616C6C 
 4151      6261636B 
 4151      5F7400
 4152              	.LASF240:
 4153 04dd 73656D5F 		.ascii	"sem_pool\000"
 4153      706F6F6C 
 4153      00
 4154              	.LASF254:
 4155 04e6 636C6561 		.ascii	"clear\000"
 4155      7200
 4156              	.LASF94:
 4157 04ec 43464752 		.ascii	"CFGR\000"
 4157      00
 4158              	.LASF306:
 4159 04f1 6F737065 		.ascii	"ospeedr\000"
 4159      65647200 
 4160              	.LASF313:
 4161 04f9 50434461 		.ascii	"PCData\000"
 4161      746100
 4162              	.LASF314:
ARM GAS  /tmp/ccwqMvbB.s 			page 80


 4163 0500 50444461 		.ascii	"PDData\000"
 4163      746100
 4164              	.LASF122:
 4165 0507 44494653 		.ascii	"DIFSEL\000"
 4165      454C00
 4166              	.LASF309:
 4167 050e 61667268 		.ascii	"afrh\000"
 4167      00
 4168              	.LASF308:
 4169 0513 6166726C 		.ascii	"afrl\000"
 4169      00
 4170              	.LASF197:
 4171 0518 6F66665F 		.ascii	"off_state\000"
 4171      73746174 
 4171      6500
 4172              	.LASF13:
 4173 0522 6C6F6E67 		.ascii	"long unsigned int\000"
 4173      20756E73 
 4173      69676E65 
 4173      6420696E 
 4173      7400
 4174              	.LASF69:
 4175 0534 63685F71 		.ascii	"ch_queue_t\000"
 4175      75657565 
 4175      5F7400
 4176              	.LASF190:
 4177 053f 74687265 		.ascii	"threadsize\000"
 4177      61647369 
 4177      7A6500
 4178              	.LASF54:
 4179 054a 72666375 		.ascii	"rfcu_mask_t\000"
 4179      5F6D6173 
 4179      6B5F7400 
 4180              	.LASF305:
 4181 0556 6F747970 		.ascii	"otyper\000"
 4181      657200
 4182              	.LASF91:
 4183 055d 53797374 		.ascii	"SystemCoreClock\000"
 4183      656D436F 
 4183      7265436C 
 4183      6F636B00 
 4184              	.LASF170:
 4185 056d 63685F73 		.ascii	"ch_semaphore\000"
 4185      656D6170 
 4185      686F7265 
 4185      00
 4186              	.LASF249:
 4187 057a 73686966 		.ascii	"shift\000"
 4187      7400
 4188              	.LASF246:
 4189 0580 6368616E 		.ascii	"channel\000"
 4189      6E656C00 
 4190              	.LASF44:
 4191 0588 63685F74 		.ascii	"ch_thread\000"
 4191      68726561 
 4191      6400
 4192              	.LASF156:
ARM GAS  /tmp/ccwqMvbB.s 			page 81


 4193 0592 76697274 		.ascii	"virtual_timers_list_t\000"
 4193      75616C5F 
 4193      74696D65 
 4193      72735F6C 
 4193      6973745F 
 4194              	.LASF253:
 4195 05a8 5F73746D 		.ascii	"_stm32_dma_streams\000"
 4195      33325F64 
 4195      6D615F73 
 4195      74726561 
 4195      6D7300
 4196              	.LASF96:
 4197 05bb 534D5052 		.ascii	"SMPR1\000"
 4197      3100
 4198              	.LASF97:
 4199 05c1 534D5052 		.ascii	"SMPR2\000"
 4199      3200
 4200              	.LASF242:
 4201 05c7 6669666F 		.ascii	"fifo_list\000"
 4201      5F6C6973 
 4201      7400
 4202              	.LASF252:
 4203 05d1 73746D33 		.ascii	"stm32_dma_stream_t\000"
 4203      325F646D 
 4203      615F7374 
 4203      7265616D 
 4203      5F7400
 4204              	.LASF174:
 4205 05e4 72656164 		.ascii	"ready_list_t\000"
 4205      795F6C69 
 4205      73745F74 
 4205      00
 4206              	.LASF223:
 4207 05f1 746F706D 		.ascii	"topmem\000"
 4207      656D00
 4208              	.LASF41:
 4209 05f8 7265616C 		.ascii	"realprio\000"
 4209      7072696F 
 4209      00
 4210              	.LASF27:
 4211 0601 75636E74 		.ascii	"ucnt_t\000"
 4211      5F7400
 4212              	.LASF196:
 4213 0608 6F66665F 		.ascii	"off_stklimit\000"
 4213      73746B6C 
 4213      696D6974 
 4213      00
 4214              	.LASF226:
 4215 0615 706F6F6C 		.ascii	"pool_header\000"
 4215      5F686561 
 4215      64657200 
 4216              	.LASF285:
 4217 0621 41444343 		.ascii	"ADCConversionGroup\000"
 4217      6F6E7665 
 4217      7273696F 
 4217      6E47726F 
 4217      757000
ARM GAS  /tmp/ccwqMvbB.s 			page 82


 4218              	.LASF57:
 4219 0634 72666375 		.ascii	"rfcu_t\000"
 4219      5F7400
 4220              	.LASF268:
 4221 063b 4144435F 		.ascii	"ADC_COMPLETE\000"
 4221      434F4D50 
 4221      4C455445 
 4221      00
 4222              	.LASF139:
 4223 0648 41484252 		.ascii	"AHBRSTR\000"
 4223      53545200 
 4224              	.LASF307:
 4225 0650 70757064 		.ascii	"pupdr\000"
 4225      7200
 4226              	.LASF257:
 4227 0656 4F535045 		.ascii	"OSPEEDR\000"
 4227      45445200 
 4228              	.LASF296:
 4229 065e 6164635F 		.ascii	"adc_channels_num_t\000"
 4229      6368616E 
 4229      6E656C73 
 4229      5F6E756D 
 4229      5F7400
 4230              	.LASF212:
 4231 0671 6F66665F 		.ascii	"off_inst_rlist\000"
 4231      696E7374 
 4231      5F726C69 
 4231      737400
 4232              	.LASF89:
 4233 0680 74726163 		.ascii	"trace_buffer_t\000"
 4233      655F6275 
 4233      66666572 
 4233      5F7400
 4234              	.LASF40:
 4235 068f 6D74786C 		.ascii	"mtxlist\000"
 4235      69737400 
 4236              	.LASF184:
 4237 0697 63685F63 		.ascii	"ch_core0_cfg\000"
 4237      6F726530 
 4237      5F636667 
 4237      00
 4238              	.LASF1:
 4239 06a4 6C6F6E67 		.ascii	"long long int\000"
 4239      206C6F6E 
 4239      6720696E 
 4239      7400
 4240              	.LASF65:
 4241 06b2 73797369 		.ascii	"sysinterval_t\000"
 4241      6E746572 
 4241      76616C5F 
 4241      7400
 4242              	.LASF258:
 4243 06c0 50555044 		.ascii	"PUPDR\000"
 4243      5200
 4244              	.LASF235:
 4245 06c6 63685F6F 		.ascii	"ch_objects_factory\000"
 4245      626A6563 
ARM GAS  /tmp/ccwqMvbB.s 			page 83


 4245      74735F66 
 4245      6163746F 
 4245      727900
 4246              	.LASF72:
 4247 06d9 63685F70 		.ascii	"ch_priority_queue_t\000"
 4247      72696F72 
 4247      6974795F 
 4247      71756575 
 4247      655F7400 
 4248              	.LASF278:
 4249 06ed 6164636D 		.ascii	"adcm\000"
 4249      00
 4250              	.LASF133:
 4251 06f2 41504232 		.ascii	"APB2RSTR\000"
 4251      52535452 
 4251      00
 4252              	.LASF274:
 4253 06fb 64657074 		.ascii	"depth\000"
 4253      6800
 4254              	.LASF56:
 4255 0701 6D61736B 		.ascii	"mask\000"
 4255      00
 4256              	.LASF228:
 4257 0706 616C6967 		.ascii	"align\000"
 4257      6E00
 4258              	.LASF277:
 4259 070c 6D757465 		.ascii	"mutex\000"
 4259      7800
 4260              	.LASF90:
 4261 0712 49544D5F 		.ascii	"ITM_RxBuffer\000"
 4261      52784275 
 4261      66666572 
 4261      00
 4262              	.LASF312:
 4263 071f 50424461 		.ascii	"PBData\000"
 4263      746100
 4264              	.LASF119:
 4265 0726 41574433 		.ascii	"AWD3CR\000"
 4265      435200
 4266              	.LASF255:
 4267 072d 4D4F4445 		.ascii	"MODER\000"
 4267      5200
 4268              	.LASF292:
 4269 0733 61776432 		.ascii	"awd2cr\000"
 4269      637200
 4270              	.LASF149:
 4271 073a 63685F73 		.ascii	"ch_sys_running\000"
 4271      79735F72 
 4271      756E6E69 
 4271      6E6700
 4272              	.LASF261:
 4273 0749 4146524C 		.ascii	"AFRL\000"
 4273      00
 4274              	.LASF193:
 4275 074e 6F66665F 		.ascii	"off_newer\000"
 4275      6E657765 
 4275      7200
ARM GAS  /tmp/ccwqMvbB.s 			page 84


 4276              	.LASF250:
 4277 0758 73656C66 		.ascii	"selfindex\000"
 4277      696E6465 
 4277      7800
 4278              	.LASF16:
 4279 0762 706F7274 		.ascii	"port_rtcnt_t\000"
 4279      5F727463 
 4279      6E745F74 
 4279      00
 4280              	.LASF0:
 4281 076f 756E7369 		.ascii	"unsigned int\000"
 4281      676E6564 
 4281      20696E74 
 4281      00
 4282              	.LASF209:
 4283 077c 6F66665F 		.ascii	"off_sys_rfcu\000"
 4283      7379735F 
 4283      72666375 
 4283      00
 4284              	.LASF18:
 4285 0789 7274636E 		.ascii	"rtcnt_t\000"
 4285      745F7400 
 4286              	.LASF43:
 4287 0791 6F735F69 		.ascii	"os_instance_t\000"
 4287      6E737461 
 4287      6E63655F 
 4287      7400
 4288              	.LASF140:
 4289 079f 43464752 		.ascii	"CFGR2\000"
 4289      3200
 4290              	.LASF141:
 4291 07a5 43464752 		.ascii	"CFGR3\000"
 4291      3300
 4292              	.LASF325:
 4293 07ab 73746D33 		.ascii	"stm32_gpio_init\000"
 4293      325F6770 
 4293      696F5F69 
 4293      6E697400 
 4294              	.LASF288:
 4295 07bb 6E756D5F 		.ascii	"num_channels\000"
 4295      6368616E 
 4295      6E656C73 
 4295      00
 4296              	.LASF129:
 4297 07c8 434D4152 		.ascii	"CMAR\000"
 4297      00
 4298              	.LASF173:
 4299 07cd 63757272 		.ascii	"current\000"
 4299      656E7400 
 4300              	.LASF298:
 4301 07d5 41444344 		.ascii	"ADCD1\000"
 4301      3100
 4302              	.LASF145:
 4303 07db 6F666673 		.ascii	"offset\000"
 4303      657400
 4304              	.LASF300:
 4305 07e2 41444344 		.ascii	"ADCD3\000"
ARM GAS  /tmp/ccwqMvbB.s 			page 85


 4305      3300
 4306              	.LASF301:
 4307 07e8 41444344 		.ascii	"ADCD4\000"
 4307      3400
 4308              	.LASF161:
 4309 07ee 6C697374 		.ascii	"list\000"
 4309      00
 4310              	.LASF283:
 4311 07f3 68616C5F 		.ascii	"hal_adc_config\000"
 4311      6164635F 
 4311      636F6E66 
 4311      696700
 4312              	.LASF76:
 4313 0802 63685F64 		.ascii	"ch_delta_list\000"
 4313      656C7461 
 4313      5F6C6973 
 4313      7400
 4314              	.LASF153:
 4315 0810 646C6973 		.ascii	"dlist\000"
 4315      7400
 4316              	.LASF221:
 4317 0816 6D656D67 		.ascii	"memgetfunc_t\000"
 4317      65746675 
 4317      6E635F74 
 4317      00
 4318              	.LASF202:
 4319 0823 6F66665F 		.ascii	"off_reserved\000"
 4319      72657365 
 4319      72766564 
 4319      00
 4320              	.LASF29:
 4321 0830 74687265 		.ascii	"thread_t\000"
 4321      61645F74 
 4321      00
 4322              	.LASF179:
 4323 0839 69646C65 		.ascii	"idlethread_end\000"
 4323      74687265 
 4323      61645F65 
 4323      6E6400
 4324              	.LASF2:
 4325 0848 6C6F6E67 		.ascii	"long double\000"
 4325      20646F75 
 4325      626C6500 
 4326              	.LASF160:
 4327 0854 74687265 		.ascii	"thread_reference_t\000"
 4327      61645F72 
 4327      65666572 
 4327      656E6365 
 4327      5F7400
 4328              	.LASF85:
 4329 0867 74726163 		.ascii	"trace_event_t\000"
 4329      655F6576 
 4329      656E745F 
 4329      7400
 4330              	.LASF166:
 4331 0875 73656E74 		.ascii	"sentmsg\000"
 4331      6D736700 
ARM GAS  /tmp/ccwqMvbB.s 			page 86


 4332              	.LASF143:
 4333 087d 706F7274 		.ascii	"port_intctx\000"
 4333      5F696E74 
 4333      63747800 
 4334              	.LASF272:
 4335 0889 68616C5F 		.ascii	"hal_adc_driver\000"
 4335      6164635F 
 4335      64726976 
 4335      657200
 4336              	.LASF244:
 4337 0898 6F626A65 		.ascii	"objects_factory_t\000"
 4337      6374735F 
 4337      66616374 
 4337      6F72795F 
 4337      7400
 4338              	.LASF238:
 4339 08aa 6275665F 		.ascii	"buf_list\000"
 4339      6C697374 
 4339      00
 4340              	.LASF247:
 4341 08b3 636D6173 		.ascii	"cmask\000"
 4341      6B00
 4342              	.LASF60:
 4343 08b9 6973725F 		.ascii	"isr_cnt\000"
 4343      636E7400 
 4344              	.LASF130:
 4345 08c1 444D415F 		.ascii	"DMA_Channel_TypeDef\000"
 4345      4368616E 
 4345      6E656C5F 
 4345      54797065 
 4345      44656600 
 4346              	.LASF92:
 4347 08d5 41484250 		.ascii	"AHBPrescTable\000"
 4347      72657363 
 4347      5461626C 
 4347      6500
 4348              	.LASF137:
 4349 08e3 41504231 		.ascii	"APB1ENR\000"
 4349      454E5200 
 4350              	.LASF227:
 4351 08eb 6F626A65 		.ascii	"object_size\000"
 4351      63745F73 
 4351      697A6500 
 4352              	.LASF87:
 4353 08f7 73697A65 		.ascii	"size\000"
 4353      00
 4354              	.LASF263:
 4355 08fc 73746D33 		.ascii	"stm32_gpio_t\000"
 4355      325F6770 
 4355      696F5F74 
 4355      00
 4356              	.LASF15:
 4357 0909 6C6F6E67 		.ascii	"long long unsigned int\000"
 4357      206C6F6E 
 4357      6720756E 
 4357      7369676E 
 4357      65642069 
ARM GAS  /tmp/ccwqMvbB.s 			page 87


 4358              	.LASF311:
 4359 0920 50414461 		.ascii	"PAData\000"
 4359      746100
 4360              	.LASF10:
 4361 0927 75696E74 		.ascii	"uint16_t\000"
 4361      31365F74 
 4361      00
 4362              	.LASF195:
 4363 0930 6F66665F 		.ascii	"off_name\000"
 4363      6E616D65 
 4363      00
 4364              	.LASF260:
 4365 0939 4C4F434B 		.ascii	"LOCKR\000"
 4365      5200
 4366              	.LASF176:
 4367 093f 6D61696E 		.ascii	"mainthread_base\000"
 4367      74687265 
 4367      61645F62 
 4367      61736500 
 4368              	.LASF24:
 4369 094f 6D73675F 		.ascii	"msg_t\000"
 4369      7400
 4370              	.LASF77:
 4371 0955 64656C74 		.ascii	"delta\000"
 4371      6100
 4372              	.LASF17:
 4373 095b 706F7274 		.ascii	"port_stkalign_t\000"
 4373      5F73746B 
 4373      616C6967 
 4373      6E5F7400 
 4374              	.LASF271:
 4375 096b 41444344 		.ascii	"ADCDriver\000"
 4375      72697665 
 4375      7200
 4376              	.LASF262:
 4377 0975 41465248 		.ascii	"AFRH\000"
 4377      00
 4378              	.LASF36:
 4379 097a 72656673 		.ascii	"refs\000"
 4379      00
 4380              	.LASF158:
 4381 097f 71756575 		.ascii	"queue\000"
 4381      6500
 4382              	.LASF79:
 4383 0985 72656173 		.ascii	"reason\000"
 4383      6F6E00
 4384              	.LASF251:
 4385 098c 76656374 		.ascii	"vector\000"
 4385      6F7200
 4386              	.LASF319:
 4387 0993 5F5F6561 		.ascii	"__early_init\000"
 4387      726C795F 
 4387      696E6974 
 4387      00
 4388              	.LASF245:
 4389 09a0 63685F66 		.ascii	"ch_factory\000"
 4389      6163746F 
ARM GAS  /tmp/ccwqMvbB.s 			page 88


 4389      727900
 4390              	.LASF241:
 4391 09ab 6D62785F 		.ascii	"mbx_list\000"
 4391      6C697374 
 4391      00
 4392              	.LASF52:
 4393 09b4 6D61696E 		.ascii	"mainthread\000"
 4393      74687265 
 4393      616400
 4394              	.LASF187:
 4395 09bf 76657273 		.ascii	"version\000"
 4395      696F6E00 
 4396              	.LASF80:
 4397 09c7 68616C74 		.ascii	"halt\000"
 4397      00
 4398              	.LASF293:
 4399 09cc 61776433 		.ascii	"awd3cr\000"
 4399      637200
 4400              	.LASF33:
 4401 09d3 77616261 		.ascii	"wabase\000"
 4401      736500
 4402              	.LASF326:
 4403 09da 6770696F 		.ascii	"gpio_init\000"
 4403      5F696E69 
 4403      7400
 4404              	.LASF230:
 4405 09e4 6D656D6F 		.ascii	"memory_pool_t\000"
 4405      72795F70 
 4405      6F6F6C5F 
 4405      7400
 4406              	.LASF203:
 4407 09f2 696E7463 		.ascii	"intctxsize\000"
 4407      74787369 
 4407      7A6500
 4408              	.LASF256:
 4409 09fd 4F545950 		.ascii	"OTYPER\000"
 4409      455200
 4410              	.LASF84:
 4411 0a04 74696D65 		.ascii	"time\000"
 4411      00
 4412              	.LASF216:
 4413 0a09 6F66665F 		.ascii	"off_inst_rfcu\000"
 4413      696E7374 
 4413      5F726663 
 4413      7500
 4414              	.LASF46:
 4415 0a17 726C6973 		.ascii	"rlist\000"
 4415      7400
 4416              	.LASF20:
 4417 0a1d 746D6F64 		.ascii	"tmode_t\000"
 4417      655F7400 
 4418              	.LASF248:
 4419 0a25 64756D6D 		.ascii	"dummy\000"
 4419      7900
 4420              	.LASF265:
 4421 0a2b 4144435F 		.ascii	"ADC_STOP\000"
 4421      53544F50 
ARM GAS  /tmp/ccwqMvbB.s 			page 89


 4421      00
 4422              	.LASF108:
 4423 0a34 4F465231 		.ascii	"OFR1\000"
 4423      00
 4424              	.LASF109:
 4425 0a39 4F465232 		.ascii	"OFR2\000"
 4425      00
 4426              	.LASF110:
 4427 0a3e 4F465233 		.ascii	"OFR3\000"
 4427      00
 4428              	.LASF111:
 4429 0a43 4F465234 		.ascii	"OFR4\000"
 4429      00
 4430              	.LASF162:
 4431 0a48 70717565 		.ascii	"pqueue\000"
 4431      756500
 4432              	.LASF86:
 4433 0a4f 73757370 		.ascii	"suspended\000"
 4433      656E6465 
 4433      6400
 4434              	.LASF146:
 4435 0a59 746D5F63 		.ascii	"tm_calibration_t\000"
 4435      616C6962 
 4435      72617469 
 4435      6F6E5F74 
 4435      00
 4436              	.LASF273:
 4437 0a6a 73616D70 		.ascii	"samples\000"
 4437      6C657300 
 4438              	.LASF276:
 4439 0a72 74687265 		.ascii	"thread\000"
 4439      616400
 4440              	.LASF214:
 4441 0a79 6F66665F 		.ascii	"off_inst_reglist\000"
 4441      696E7374 
 4441      5F726567 
 4441      6C697374 
 4441      00
 4442              	.LASF32:
 4443 0a8a 6E616D65 		.ascii	"name\000"
 4443      00
 4444              	.LASF93:
 4445 0a8f 41504250 		.ascii	"APBPrescTable\000"
 4445      72657363 
 4445      5461626C 
 4445      6500
 4446              	.LASF142:
 4447 0a9d 5243435F 		.ascii	"RCC_TypeDef\000"
 4447      54797065 
 4447      44656600 
 4448              	.LASF175:
 4449 0aa9 63685F6F 		.ascii	"ch_os_instance_config\000"
 4449      735F696E 
 4449      7374616E 
 4449      63655F63 
 4449      6F6E6669 
 4450              	.LASF123:
ARM GAS  /tmp/ccwqMvbB.s 			page 90


 4451 0abf 43414C46 		.ascii	"CALFACT\000"
 4451      41435400 
 4452              	.LASF4:
 4453 0ac7 73686F72 		.ascii	"short int\000"
 4453      7420696E 
 4453      7400
 4454              	.LASF180:
 4455 0ad1 6F735F69 		.ascii	"os_instance_config_t\000"
 4455      6E737461 
 4455      6E63655F 
 4455      636F6E66 
 4455      69675F74 
 4456              	.LASF150:
 4457 0ae6 63685F73 		.ascii	"ch_sys_halted\000"
 4457      79735F68 
 4457      616C7465 
 4457      6400
 4458              	.LASF73:
 4459 0af4 63685F70 		.ascii	"ch_priority_queue\000"
 4459      72696F72 
 4459      6974795F 
 4459      71756575 
 4459      6500
 4460              	.LASF14:
 4461 0b06 75696E74 		.ascii	"uint64_t\000"
 4461      36345F74 
 4461      00
 4462              	.LASF171:
 4463 0b0f 63685F6D 		.ascii	"ch_mutex\000"
 4463      75746578 
 4463      00
 4464              	.LASF134:
 4465 0b18 41504231 		.ascii	"APB1RSTR\000"
 4465      52535452 
 4465      00
 4466              	.LASF50:
 4467 0b21 72666375 		.ascii	"rfcu\000"
 4467      00
 4468              	.LASF38:
 4469 0b26 6D736771 		.ascii	"msgqueue\000"
 4469      75657565 
 4469      00
 4470              	.LASF58:
 4471 0b2f 63685F73 		.ascii	"ch_system_debug\000"
 4471      79737465 
 4471      6D5F6465 
 4471      62756700 
 4472              	.LASF234:
 4473 0b3f 64796E5F 		.ascii	"dyn_list_t\000"
 4473      6C697374 
 4473      5F7400
 4474              	.LASF48:
 4475 0b4a 7265676C 		.ascii	"reglist\000"
 4475      69737400 
 4476              	.LASF318:
 4477 0b52 626F6172 		.ascii	"boardInit\000"
 4477      64496E69 
ARM GAS  /tmp/ccwqMvbB.s 			page 91


 4477      7400
 4478              	.LASF135:
 4479 0b5c 41484245 		.ascii	"AHBENR\000"
 4479      4E5200
 4480              	.LASF70:
 4481 0b63 63685F71 		.ascii	"ch_queue\000"
 4481      75657565 
 4481      00
 4482              	.LASF324:
 4483 0b6c 6770696F 		.ascii	"gpio_default_config\000"
 4483      5F646566 
 4483      61756C74 
 4483      5F636F6E 
 4483      66696700 
 4484              	.LASF259:
 4485 0b80 42535252 		.ascii	"BSRR\000"
 4485      00
 4486              	.LASF113:
 4487 0b85 4A445231 		.ascii	"JDR1\000"
 4487      00
 4488              	.LASF114:
 4489 0b8a 4A445232 		.ascii	"JDR2\000"
 4489      00
 4490              	.LASF115:
 4491 0b8f 4A445233 		.ascii	"JDR3\000"
 4491      00
 4492              	.LASF116:
 4493 0b94 4A445234 		.ascii	"JDR4\000"
 4493      00
 4494              	.LASF106:
 4495 0b99 4A535152 		.ascii	"JSQR\000"
 4495      00
 4496              	.LASF47:
 4497 0b9e 76746C69 		.ascii	"vtlist\000"
 4497      737400
 4498              	.LASF37:
 4499 0ba5 77616974 		.ascii	"waiting\000"
 4499      696E6700 
 4500              	.LASF310:
 4501 0bad 6770696F 		.ascii	"gpio_setup_t\000"
 4501      5F736574 
 4501      75705F74 
 4501      00
 4502              	.LASF211:
 4503 0bba 6F66665F 		.ascii	"off_inst_rlist_current\000"
 4503      696E7374 
 4503      5F726C69 
 4503      73745F63 
 4503      75727265 
 4504              	.LASF219:
 4505 0bd1 6D757465 		.ascii	"mutex_t\000"
 4505      785F7400 
 4506              	.LASF22:
 4507 0bd9 74726566 		.ascii	"trefs_t\000"
 4507      735F7400 
 4508              	.LASF222:
 4509 0be1 62617365 		.ascii	"basemem\000"
ARM GAS  /tmp/ccwqMvbB.s 			page 92


 4509      6D656D00 
 4510              	.LASF206:
 4511 0be9 6F66665F 		.ascii	"off_sys_state\000"
 4511      7379735F 
 4511      73746174 
 4511      6500
 4512              	.LASF144:
 4513 0bf7 706F7274 		.ascii	"port_context\000"
 4513      5F636F6E 
 4513      74657874 
 4513      00
 4514              	.LASF321:
 4515 0c04 474E5520 		.ascii	"GNU C17 9.2.1 20191025 (release) [ARM/arm-9-branch "
 4515      43313720 
 4515      392E322E 
 4515      31203230 
 4515      31393130 
 4516 0c37 72657669 		.ascii	"revision 277599] -mcpu=cortex-m4 -mthumb -mfloat-ab"
 4516      73696F6E 
 4516      20323737 
 4516      3539395D 
 4516      202D6D63 
 4517 0c6a 693D736F 		.ascii	"i=soft -march=armv7e-m -ggdb -O2 -fomit-frame-point"
 4517      6674202D 
 4517      6D617263 
 4517      683D6172 
 4517      6D763765 
 4518 0c9d 6572202D 		.ascii	"er -falign-functions=16 -ffunction-sections -fdata-"
 4518      66616C69 
 4518      676E2D66 
 4518      756E6374 
 4518      696F6E73 
 4519 0cd0 73656374 		.ascii	"sections -fno-common -flto\000"
 4519      696F6E73 
 4519      202D666E 
 4519      6F2D636F 
 4519      6D6D6F6E 
 4520              	.LASF181:
 4521 0ceb 63685F73 		.ascii	"ch_system\000"
 4521      79737465 
 4521      6D00
 4522              	.LASF12:
 4523 0cf5 75696E74 		.ascii	"uint32_t\000"
 4523      33325F74 
 4523      00
 4524              	.LASF316:
 4525 0cfe 50464461 		.ascii	"PFData\000"
 4525      746100
 4526              	.LASF163:
 4527 0d05 7264796D 		.ascii	"rdymsg\000"
 4527      736700
 4528              	.LASF11:
 4529 0d0c 73686F72 		.ascii	"short unsigned int\000"
 4529      7420756E 
 4529      7369676E 
 4529      65642069 
 4529      6E7400
ARM GAS  /tmp/ccwqMvbB.s 			page 93


 4530              	.LASF183:
 4531 0d1f 63685F73 		.ascii	"ch_system_t\000"
 4531      79737465 
 4531      6D5F7400 
 4532              	.LASF217:
 4533 0d2b 63686465 		.ascii	"chdebug_t\000"
 4533      6275675F 
 4533      7400
 4534              	.LASF189:
 4535 0d35 74696D65 		.ascii	"timesize\000"
 4535      73697A65 
 4535      00
 4536              	.LASF178:
 4537 0d3e 69646C65 		.ascii	"idlethread_base\000"
 4537      74687265 
 4537      61645F62 
 4537      61736500 
 4538              	.LASF286:
 4539 0d4e 68616C5F 		.ascii	"hal_adc_configuration_group\000"
 4539      6164635F 
 4539      636F6E66 
 4539      69677572 
 4539      6174696F 
 4540              	.LASF205:
 4541 0d6a 696E7374 		.ascii	"instancesnum\000"
 4541      616E6365 
 4541      736E756D 
 4541      00
 4542              	.LASF126:
 4543 0d77 4144435F 		.ascii	"ADC_Common_TypeDef\000"
 4543      436F6D6D 
 4543      6F6E5F54 
 4543      79706544 
 4543      656600
 4544              	.LASF225:
 4545 0d8a 63685F6D 		.ascii	"ch_memcore\000"
 4545      656D636F 
 4545      726500
 4546              	.LASF198:
 4547 0d95 6F66665F 		.ascii	"off_flags\000"
 4547      666C6167 
 4547      7300
 4548              	.LASF322:
 4549 0d9f 2E2E2F2E 		.ascii	"../../../../os/hal/boards/ST_STM32F3_DISCOVERY/boar"
 4549      2E2F2E2E 
 4549      2F2E2E2F 
 4549      6F732F68 
 4549      616C2F62 
 4550 0dd2 642E6300 		.ascii	"d.c\000"
 4551              	.LASF68:
 4552 0dd6 6E657874 		.ascii	"next\000"
 4552      00
 4553              	.LASF299:
 4554 0ddb 41444344 		.ascii	"ADCD2\000"
 4554      3200
 4555              	.LASF71:
 4556 0de1 70726576 		.ascii	"prev\000"
ARM GAS  /tmp/ccwqMvbB.s 			page 94


 4556      00
 4557              	.LASF233:
 4558 0de6 63685F64 		.ascii	"ch_dyn_list\000"
 4558      796E5F6C 
 4558      69737400 
 4559              	.LASF185:
 4560 0df2 6964656E 		.ascii	"identifier\000"
 4560      74696669 
 4560      657200
 4561              	.LASF282:
 4562 0dfd 41444343 		.ascii	"ADCConfig\000"
 4562      6F6E6669 
 4562      6700
 4563              		.text
 4564              		.section	.gnu.lto_.profile.74269a69a636a890,"e",%progbits
 4565 0000 789CE360 		.ascii	"x\234\343``\004B \000\000\000]\000\013"
 4565      60044220 
 4565      0000005D 
 4565      000B
 4566              		.text
 4567              		.section	.gnu.lto_.icf.74269a69a636a890,"e",%progbits
 4568 0000 789CE360 		.ascii	"x\234\343``d\020a@\000f\206\246\246\0237\230\031\277"
 4568      60641061 
 4568      40006686 
 4568      A6A61337 
 4568      9819BF
 4569 0013 DD7ED9C5 		.ascii	"\335~\331\305\303\364\372\305\203}l\014\000bj\011\222"
 4569      C3F4FAC5 
 4569      837D6C0C 
 4569      00626A09 
 4569      92
 4570              		.text
 4571              		.section	.gnu.lto_.jmpfuncs.74269a69a636a890,"e",%progbits
 4572 0000 789CE360 		.ascii	"x\234\343``d\340e@\000f f\0041\230\200\030\000\002\235"
 4572      6064E065 
 4572      40006620 
 4572      66043198 
 4572      80180002 
 4573 0015 001D     		.ascii	"\000\035"
 4574              		.text
 4575              		.section	.gnu.lto_.inline.74269a69a636a890,"e",%progbits
 4576 0000 789CE360 		.ascii	"x\234\343``d(g@\000f\006\006\213\206\206\206\035\314"
 4576      60642867 
 4576      40006606 
 4576      068B8686 
 4576      861DCC
 4577 0013 198C0C4C 		.ascii	"\031\214\014LY@\326\012\346\014\006\0066 \243\201)\205"
 4577      5940D60A 
 4577      E60C0606 
 4577      3620A381 
 4577      2985
 4578 0025 898109A4 		.ascii	"\211\201\011\244\206\221\201\025\310}\300\224\316\010"
 4578      86918115 
 4578      C87DC094 
 4578      CE08
 4579 0033 E23702D9 		.ascii	"\3427\002\331u\030J\270\020$\023\0033D\016\267r\006"
 4579      75184AB8 
ARM GAS  /tmp/ccwqMvbB.s 			page 95


 4579      10241303 
 4579      33440EB7 
 4579      7206
 4580 0045 0051D018 		.ascii	"\000Q\320\030\003"
 4580      03
 4581              		.text
 4582              		.section	.gnu.lto_.pureconst.74269a69a636a890,"e",%progbits
 4583 0000 789CE360 		.ascii	"x\234\343``d\340b```f\230\305\3028\203\205\251\201\005"
 4583      6064E062 
 4583      60606066 
 4583      98C5C238 
 4583      8385A981 
 4584 0015 000A6001 		.ascii	"\000\012`\001\330"
 4584      D8
 4585              		.text
 4586              		.section	.gnu.lto_stm32_gpio_init.74269a69a636a890,"e",%progbits
 4587 0000 789CA599 		.ascii	"x\234\245\231\375OTg\026\307\357y\356\235\341U\246\233"
 4587      FD4F5467 
 4587      16C7EF79 
 4587      EE9DE155 
 4587      A69B
 4588 0012 EC76376D 		.ascii	"\354v7m\232\230M\232\246\373\003\262\333l\334\354\376"
 4588      9A984D9A 
 4588      A6FB03B2 
 4588      DB6CDCEC 
 4588      FE
 4589 0023 62D2DDCD 		.ascii	"b\322\335\315\356\017\273\233h\263\355\376\324\264\232"
 4589      EE0FBB9B 
 4589      68B3EDFE 
 4589      D4B49A
 4590 0032 769B34B5 		.ascii	"v\2334\265\331\376\001\2750\264X\265\200\255\274\330"
 4590      D9FE01BD 
 4590      30B458B5 
 4590      80ADBCD8 
 4591 0042 96CE5444 		.ascii	"\226\316TDy)\016T\321R@\007\005\004d\004\225\261\210"
 4591      79290E54 
 4591      D1524007 
 4591      05046404 
 4591      95B188
 4592 0055 0A82BC5B 		.ascii	"\012\202\274[D\001-\250e\3669\347>\317\334\313\310$"
 4592      44012DA8 
 4592      65F639E7 
 4592      3ECFDCCB 
 4592      C824
 4593 0067 E063F47A 		.ascii	"\340c\364z\357\235{\277\337s\236s\316g\356\314$j\240"
 4593      EF9D7BBF 
 4593      DF739E73 
 4593      CE67EECC 
 4593      246AA0
 4594 007a 0D3EA369 		.ascii	"\015>\243i\257h\232\306\377\323@\327\200\231\246\271"
 4594      AF689AC6 
 4594      FFD340D7 
 4594      8099A6B9 
 4595 008a 29213391 		.ascii	")!3\221\001\320\236\231\010\332\373\014\336\207<\275"
 4595      01D09E99 
 4595      08DAFB0C 
 4595      DE873CBD 
ARM GAS  /tmp/ccwqMvbB.s 			page 96


 4596 009a 48875339 		.ascii	"H\207S9c\365\354\371C\374\0253X4\237\\b\366\230\272"
 4596      63F5ECF9 
 4596      43FC1533 
 4596      58349F5C 
 4596      62F698BA 
 4597 00ae 4FD7B47D 		.ascii	"O\327\264}\374\237\365\007\276\203\3475\215_:\\\273"
 4597      FC9FF507 
 4597      BE83E735 
 4597      8D5F3A5C 
 4597      BB
 4598 00bf 54B0CE6D 		.ascii	"T\260\316m\210\227\240\001\334\334M\323\002\027\\As"
 4598      8897A001 
 4598      DCDC4DD3 
 4598      02175C41 
 4598      73
 4599 00d0 29926306 		.ascii	")\222c\006\257\036\200\242\177n\004\315\247\003\303"
 4599      AF1E80A2 
 4599      7F6E04CD 
 4599      A703C3
 4600 00df 8D8E1B03 		.ascii	"\215\216\033\0037.\334\270q\223\214\233T\334h\332.]"
 4600      372EDCB8 
 4600      71938C9B 
 4600      54DC68DA 
 4600      2E5D
 4601 00f1 435F03CC 		.ascii	"C_\003\314\240\246\355\326\231u\340\345\007c`\356\177"
 4601      A0A6EDD6 
 4601      9975E0E5 
 4601      076360EE 
 4601      7F
 4602 0102 50A093C7 		.ascii	"P\240\223\307\024\234jL\302\275\022\035x\024\271\336"
 4602      149C6A4C 
 4602      C2BD121D 
 4602      7814B9DE 
 4603 0112 9981C45C 		.ascii	"\231\201\304\\\036#\003\014\352~\241\267\325c\035\232"
 4603      1E23030C 
 4603      EA7EA1B7 
 4603      D5631D9A 
 4604 0122 FE1DA6C1 		.ascii	"\376\035\246\301O\215t\327\366%\226Ai&\227[\357\323"
 4604      4F8D74D7 
 4604      F6259641 
 4604      6926975B 
 4604      EFD3
 4605 0134 756882A7 		.ascii	"uh\202\247\241\021\236\246$:\332\367\264\030\031\207"
 4605      A1119EA6 
 4605      243ADAF7 
 4605      B4181987 
 4606 0144 CD6CF0E9 		.ascii	"\315l\360\351\006\234\2002(\266\3229\011\031\334\312"
 4606      069C8032 
 4606      28B6D239 
 4606      0919DCCA 
 4607 0154 FB490E58 		.ascii	"\373I\016X^\314\262\013\315,\265\220\035\256\336\202"
 4607      5ECCB20B 
 4607      CD2CB590 
 4607      1DAEDE82 
 4608 0164 0E41AEC3 		.ascii	"\016A\256\303#\032\330I\227\255\315\255\331v;\005\031"
 4608      231AD849 
 4608      97ADCDAD 
ARM GAS  /tmp/ccwqMvbB.s 			page 97


 4608      D9763B05 
 4608      19
 4609 0175 DC02F3FC 		.ascii	"\334\002\363\374ul\222\372\332DO\333\242-V\012\2052"
 4609      756C92FA 
 4609      DA444FDB 
 4609      A22D560A 
 4609      8532
 4610 0187 05C3122B 		.ascii	"\005\303\022+\273\2778\223d\245\020\211\344<\364@\253"
 4610      BBBF3893 
 4610      64A51089 
 4610      E43CF440 
 4610      AB
 4611 0198 420E6DB6 		.ascii	"B\016m\266\335\031\314\301X1\207\344U\213f\342k\006"
 4611      DD19CCC1 
 4611      583187E4 
 4611      558B66E2 
 4611      6B06
 4612 01aa B4DBB21D 		.ascii	"\264\333\262\035<\013\254\177%#U\334\215<\332\012\256"
 4612      3C0BAC7F 
 4612      252355DC 
 4612      8D3CDA0A 
 4612      AE
 4613 01bb B585DD49 		.ascii	"\265\205\335I\372\330\256p6\246\320(\246T\326.[;\204"
 4613      FAD8AE70 
 4613      36A6D028 
 4613      A654D62E 
 4613      5B3B84
 4614 01ce 4BE25E71 		.ascii	"K\342^qIR\327\272$\347l\331n\261$c\366\222\004\012u"
 4614      4952D7BA 
 4614      24E76CD9 
 4614      6EB12463 
 4614      F692040A 
 4615 01e3 B19FB55E 		.ascii	"\261\237\265^\204<\220U\262\220\212uv\001\216\301\336"
 4615      843C9055 
 4615      B2908A75 
 4615      76018EC1 
 4615      DE
 4616 01f4 CEA31DC9 		.ascii	"\316\243\035\311x\350\206\365\374p\327hy&\323\377HC"
 4616      78E886F5 
 4616      FC70D768 
 4616      7926D3FF 
 4616      4843
 4617 0206 73A969A2 		.ascii	"s\251i\242\321\365\\\231if\231\301\245\212\247\016x"
 4617      D1F55C99 
 4617      696699C1 
 4617      A58AA70E 
 4617      78
 4618 0217 CDBFF9F4 		.ascii	"\315\277\371\364\004\270\000\372>\336$\347yP=<(\270"
 4618      04B800FA 
 4618      3EDE24E7 
 4618      79503D3C 
 4618      28B8
 4619 0229 08CFF1D3 		.ascii	"\010\317\361\323\233\374\351x\317\345\023\271\213\306"
 4619      9BFCE978 
 4619      CFE513B9 
 4619      8BC6
 4620 0237 B3A574CF 		.ascii	"\263\245t\317\245\252\247\276\362\232\355\246\021\275"
ARM GAS  /tmp/ccwqMvbB.s 			page 98


 4620      A5AAA7BE 
 4620      F29AEDA6 
 4620      11BD
 4621 0245 4B5B7617 		.ascii	"K[v\027\325\261\027\236\345\267y\373\206^\306 \022\020"
 4621      D5B1179E 
 4621      E5B779FB 
 4621      865EC620 
 4621      1210
 4622 0257 3E4103C2 		.ascii	">A\003\302\374\022\036\263_\304\317\257\230\\\012\214"
 4622      FC121EB3 
 4622      5FC4CFAF 
 4622      985C0A8C 
 4623 0267 1BFA660A 		.ascii	"\033\372f\012\354A\177\250\236E\003{\242\370\250i&\371"
 4623      EC417FA8 
 4623      9E45037B 
 4623      A2F8A869 
 4623      26F9
 4624 0279 F444B814 		.ascii	"\364D\270\024\023\331\367\030Y\342\246\257)2\357\356"
 4624      13D9F718 
 4624      59E2A6AF 
 4624      2932EFEE 
 4625 0289 E3A19447 		.ascii	"\343\241\224G#\023wi\313\356\242\310\372(\262(H\222"
 4625      23137769 
 4625      CBEEA2C8 
 4625      FA28B228 
 4625      4892
 4626 029b C8BA61BE 		.ascii	"\310\272a\276i*)\033\2622\177\305\317\224b+\362\223"
 4626      692A291B 
 4626      B2327FC5 
 4626      CF94622B 
 4626      F293
 4627 02ad 83E66C28 		.ascii	"\203\346l(\031\013\366\204OO\206~\310\006\270,\313U"
 4627      190BF684 
 4627      4F4F867E 
 4627      C806B82C 
 4627      CB55
 4628 02bf 17FE86F1 		.ascii	"\027\376\206\361r\345\233&O\346\025\237\236\002W\250"
 4628      72E59B26 
 4628      4FE6159F 
 4628      9E0257A8 
 4629 02cf 62CCBA35 		.ascii	"b\314\2725\324\336\337\007\250W\314/H\303p\256B\206"
 4629      D4DEDF07 
 4629      A857CC2F 
 4629      48C370AE 
 4629      4286
 4630 02e1 05CD6BFC 		.ascii	"\005\315k\374<\026\2614\262\367\231(W\263\221~\264,"
 4630      3C16B134 
 4630      B2F79928 
 4630      57B3917E 
 4630      B42C
 4631 02f3 3C3C5C3C 		.ascii	"<<\\<\"\354>l\000\030\020E/\373\3052\014\003\014\362"
 4631      22EC3E6C 
 4631      00181045 
 4631      2FFBC532 
 4631      0C030CF2 
 4632 0307 179C68C6 		.ascii	"\027\234h\306+\255\223p\335j\277\201\235\025.\334w&"
 4632      2BAD9370 
ARM GAS  /tmp/ccwqMvbB.s 			page 99


 4632      DD6ABF81 
 4632      9D152EDC 
 4632      7726
 4633 0319 9C400937 		.ascii	"\234@\0117\337yp0\215\347\306{8\025\313\002C\"\263H"
 4633      DF797030 
 4633      8DE7C67B 
 4633      3815CB02 
 4633      4322B348 
 4634 032d 5D28ECB2 		.ascii	"](\354\262\032\321\377:v\3420\345\245[q\300\015\310"
 4634      1AD1FF3A 
 4634      76E230E5 
 4634      A55B71C0 
 4634      0DC8
 4635 033f E0179D99 		.ascii	"\340\027\235\231\231\356\005\013*\032\214PQ\315\375"
 4635      99EE050B 
 4635      2A1A8C50 
 4635      51CDFD
 4636 034e 557C4E1F 		.ascii	"U|N\037\365]\275\321(\031\031\302h\214\214\206&&\332"
 4636      F55DBDD1 
 4636      281919C2 
 4636      688C8C86 
 4636      2626DA
 4637 0361 12048017 		.ascii	"\022\004\200\027\274c:\214\013\263\200\242\331\004\231"
 4637      BC633A8C 
 4637      0BB380A2 
 4637      D90499
 4638 0370 B984D924 		.ascii	"\271\204\331$\231\265\036\233\\\362Xf\275\373{\375n"
 4638      99B51E9B 
 4638      5CF25866 
 4638      BDFB7BFD 
 4638      6E
 4639 0381 98126647 		.ascii	"\230\022fG\024\315n\222\231[\230\375@f\245u\325\345"
 4639      14CD6E92 
 4639      995B98FD 
 4639      4066A575 
 4639      D5E5
 4640 0393 1EC9651D 		.ascii	"\036\311e\035\246\205\325qE\253[d\225 \254f\310\252"
 4640      A685D571 
 4640      45AB5B64 
 4640      9520AC66 
 4640      C8AA
 4641 03a5 BBA1AB2B 		.ascii	"\273\241\253+U\276\213\005+]p[\2305(\232\335!\263Da"
 4641      55BE8B05 
 4641      2B5D705B 
 4641      9835289A 
 4641      DD21B344 
 4642 03ba 364B6615 		.ascii	"6Kf\025\0237Z\304\373\215\031\374\023\314\011\253\223"
 4642      13375AC4 
 4642      FB8D19FC 
 4642      13CC09AB 
 4642      93
 4643 03cb 8A56F364 		.ascii	"\212V\363d\225$\254\356\222U[\353\355k\242\013\315\236"
 4643      9524ACEE 
 4643      92555BEB 
 4643      ED6BA20B 
 4643      CD9E
 4644 03dd AC5E06F7 		.ascii	"\254^\006\367\226\343\205\346(\312H\234,\353\331\242"
ARM GAS  /tmp/ccwqMvbB.s 			page 100


 4644      96E385E6 
 4644      28CA489C 
 4644      2CEBD9A2 
 4645 03ed FEC95878 		.ascii	"\376\311Xx\256\031o?\022D\346:\303\315\036\301\267\035"
 4645      AE196F3F 
 4645      1244E63A 
 4645      C3CD1EC1 
 4645      B71D
 4646 03ff C8B70511 		.ascii	"\310\267\005\021@C\224ok\306\323\")\257\202G\367\343"
 4646      4043946F 
 4646      6BC6D322 
 4646      29AF8247 
 4646      F7E3
 4647 0411 F1A8C1E2 		.ascii	"\361\250\301\342\321\003Z\261\344x<z(y\364S|\036a\032"
 4647      D1035AB1 
 4647      E4783C7A 
 4647      2879F453 
 4647      7C1E611A 
 4648 0425 3C1ECCD6 		.ascii	"<\036\314\326\301\243\245\225x\204g\005{\"\2162Gh\021"
 4648      C1A3A595 
 4648      78846705 
 4648      7B228E32 
 4648      476811
 4649 0438 0ECF068A 		.ascii	"\016\317\006\212\014Y\346\005G\231\217t\347\326\247"
 4649      0C59E605 
 4649      47998F74 
 4649      E7D6A7
 4650 0447 38CB6C32 		.ascii	"8\313l2\001\0334\201L\206e\356\354\231\275-\3327\010"
 4650      011B3481 
 4650      4C8665EE 
 4650      EC99BD2D 
 4650      DA3708
 4651 045a 90C56CDA 		.ascii	"\220\305l\332\2508y\231\240\0159e\223\323\2673\2477"
 4651      A8387999 
 4651      A00D3965 
 4651      93D3B733 
 4651      A737
 4652 046c 0BA3211D 		.ascii	"\013\243!\035>`6jT\234>d\0025\344\224CN\037V\344\237"
 4652      3E60366A 
 4652      549C3E64 
 4652      0235E494 
 4652      434E1F56 
 4653 0482 15D35FB0 		.ascii	"\025\323_\260\263\227\217\344\016f\243F\305\354#&PC"
 4653      B3978FE4 
 4653      0E66A346 
 4653      C5EC2326 
 4653      5043
 4654 0494 663B59C6 		.ascii	"f;Y\3062\262\250(\357b\202,\244\274\233\322X\252\316"
 4654      32B2A828 
 4654      EF62822C 
 4654      A4BC9BD2 
 4654      58AACE
 4655 04a7 3BEF9664 		.ascii	";\357\226d1\375\006|\314l\262\250\230\3452A\0262\313"
 4655      31FD067C 
 4655      CC6CB2A8 
 4655      98E53241 
 4655      1632CB
ARM GAS  /tmp/ccwqMvbB.s 			page 101


 4656 04ba E3698C38 		.ascii	"\343i\2148@\242\242\234\317\004HHy\017\245qh\364\360"
 4656      40A2A29C 
 4656      CF044848 
 4656      790FA571 
 4656      68F4F0
 4657 04cd 8821D268 		.ascii	"\210!\322hf\360\011[6\305\324\3766F\026%FF\3251\362"
 4657      66F0095B 
 4657      36C5D4FE 
 4657      36461625 
 4657      4646D531 
 4658 04e2 29C361FF 		.ascii	")\303a\377\240\346\243rC`$\0371\262W\0040\376\370\030"
 4658      A0E6A372 
 4658      4360241F 
 4658      31B25704 
 4658      30FEF818 
 4659 04f6 2960ABC4 		.ascii	")`\253\304H!\213\203\221q\013#E\264^)\3610R\314\004"
 4659      48218B83 
 4659      91710B23 
 4659      45B45E29 
 4659      F13052CC 
 4660 050b 46F6B1B8 		.ascii	"F\366\261\270\030\3014x<\230\255\003#\237\261\2250\302"
 4660      18C13478 
 4660      3C98AD03 
 4660      239FB195 
 4660      30C2
 4661 051d CF0A8C7C 		.ascii	"\317\012\214|\316\354\"\363}~QOm]5\310\"\3635\212\026"
 4661      CEEC22F3 
 4661      7D7E514F 
 4661      6D5D35C8 
 4661      22F3358A 
 4662 0532 F9D2E444 		.ascii	"\371\322\344DV\232\263\310_H\214\240\011\2248\332\007"
 4662      569AB3C8 
 4662      5F488CA0 
 4662      099438DA 
 4662      07
 4663 0543 B1A1A2FC 		.ascii	"\261\241\242\374\245\304\006)\373\250}\016\354n\256"
 4663      A5C40629 
 4663      FBA87D0E 
 4663      EC6EAE
 4664 0552 F244A7C0 		.ascii	"\362D\247\300\364\200\337A\016\025\263\257$9\310l\277"
 4664      F480DF41 
 4664      0E15B3AF 
 4664      2439C86C 
 4664      BF
 4665 0563 458E138B 		.ascii	"E\216\023\213/[^\341\312\360o\240\324\301\015\025\253"
 4665      2F5B5EE1 
 4665      CAF06FA0 
 4665      D4C10D15 
 4665      AB
 4666 0574 03921B64 		.ascii	"\003\222\033dU\026\303\015\025\345\203\222\033\244|"
 4666      5516C30D 
 4666      15E58392 
 4666      1BA47C
 4667 0583 8892989F 		.ascii	"\210\222\230\237\371,/E\256\330U\035\312\035\330P\361"
 4667      F92C2F45 
 4667      AED8551D 
 4667      CA1DD850 
ARM GAS  /tmp/ccwqMvbB.s 			page 102


 4667      F1
 4668 0594 AA90D820 		.ascii	"\252\220\330 \257\312\030l\250(WIl\220\362\327\224E"
 4668      AFCA186C 
 4668      A8285749 
 4668      6C90F2D7 
 4668      9445
 4669 05a6 70F85EAD 		.ascii	"p\370^\255|\324\3719T/\037Z\352v\233\032\005LP\343\216"
 4669      7CD4F939 
 4669      542F1F5A 
 4669      EA769B1A 
 4669      054C50E3 
 4670 05bb 3A350ED3 		.ascii	":5\016\323lw|~\375\262[P\243\030\251\021\020\001\314"
 4670      6C777C7E 
 4670      FDB25B50 
 4670      A318A911 
 4670      1001CC
 4671 05ce 3D3E356A 		.ascii	"=>5jVK\215\332x\324\230\263\250\361\015-Wj<j\034\221"
 4671      564B8DDA 
 4671      78D498B3 
 4671      A8F10D2D 
 4671      576A3C6A 
 4672 05e4 D4381A9F 		.ascii	"\3248\032\237\032\230\006\217\007\263uP\243nEj\324E"
 4672      1A98068F 
 4672      07B37550 
 4672      A36E456A 
 4672      D445
 4673 05f6 A971CC51 		.ascii	"\251q\314Q\343cT\343\223\005W\302nY\343\200\243\306"
 4673      E36354E3 
 4673      930557C2 
 4673      6E59E380 
 4673      A3C6
 4674 0608 75B5B383 		.ascii	"u\265\263\203\340\254\361qI\0154\201oc\250\241\242\\"
 4674      E0ACF171 
 4674      490D3481 
 4674      6F63A8A1 
 4674      A25C
 4675 061a 2FA941CA 		.ascii	"/\251A\312\3379\224\003\212\312\015\022\021\244\334"
 4675      DF399403 
 4675      8ACA0D12 
 4675      11A4DC
 4676 0629 487DF965 		.ascii	"H}\371e\2557\307\023e\004\177\270hr@B\305\354\204\204"
 4676      AD37C713 
 4676      65047FB8 
 4676      68724042 
 4676      C5EC8484 
 4677 063d 04999D8C 		.ascii	"\004\231\235\214\201\204\212rPB\202\224\233\035\013"
 4677      81848A72 
 4677      50428294 
 4677      9B1D0B
 4678 064c D4A0A87C 		.ascii	"\324\240\250|J\"\201\224O\307 AE\271E\"\201\224[\243"
 4678      4A228194 
 4678      4FC72041 
 4678      45B94522 
 4678      81945BA3 
 4679 0660 CAD109A4 		.ascii	"\312\321\011\244\326\265\021P#\021\360\223:\002\332"
 4679      D6B51150 
 4679      2311F093 
ARM GAS  /tmp/ccwqMvbB.s 			page 103


 4679      3A02DA
 4680 066f 68502BAB 		.ascii	"hP+\253\273*\326\011\004\370\021\001g\004\002\"\217"
 4680      BB2AD609 
 4680      04F81101 
 4680      67040222 
 4680      8F
 4681 0680 8F80F6D5 		.ascii	"\217\200\366\325\"\240#\036\002\"\026\002:iy\326\305"
 4681      22A0231E 
 4681      02221602 
 4681      3A6979D6 
 4681      C5
 4682 0691 43C05989 		.ascii	"C\300Y\211\200\256\370\010\3004x<\230\255\003\001\241"
 4682      80AEF808 
 4682      C034783C 
 4682      98AD0301 
 4682      A1
 4683 06a2 1511108A 		.ascii	"\025\021\020\212\"\340\234\243\246\347\250\246%\323"
 4683      22E09CA3 
 4683      A6E7A8A6 
 4683      25D3
 4684 06b0 79F949B2 		.ascii	"y\371I\262\246g\0345\035\030\353\237Z\3661\263[\"\000"
 4684      A6671C35 
 4684      1D18EB9F 
 4684      5AF631B3 
 4684      5B2200
 4685 06c3 4DA02706 		.ascii	"M\240'\006\001*\312\347%\002H\371\002\015\352h\240l"
 4685      012ACAE7 
 4685      250248F9 
 4685      020DEA68 
 4685      A06C
 4686 06d5 5EBC8104 		.ascii	"^\274\201\0043\037F<p\321\361\340\240b\326+\251@fa2"
 4686      331F463C 
 4686      70D1F1E0 
 4686      A062D62B 
 4686      A9406661 
 4687 06ea 2BADA92D 		.ascii	"+\255\251-d\342#Ge\2307\200\003\012*^\337K(\220W\237"
 4687      64E22347 
 4687      65983780 
 4687      030A2A5E 
 4687      DF4B2890 
 4688 0700 F5CE78FD 		.ascii	"\365\316x\375\343E]|\271\301\233\204\331\220Pq\352\227"
 4688      E3455D7C 
 4688      B9C19B84 
 4688      D9905071 
 4688      EA97
 4689 0712 9020A72B 		.ascii	"\220 \247+1\220PQ\276*!A\312\327b \241\242< !A\312\203"
 4689      31905051 
 4689      BE2A2141 
 4689      CAD76220 
 4689      A1A23C20 
 4690 072a B43A0B67 		.ascii	"\264:\013g\003M\262\354&~\370\273\276|l\251\337mn\264"
 4690      034DB2EC 
 4690      267EF8BB 
 4690      BE7C6CA9 
 4690      DF6D6EB4 
 4691 073e 4B6E54FC 		.ascii	"KnT\374R\231\033C4\335\3255{\246]\202\033\345\310\215"
 4691      52991B43 
ARM GAS  /tmp/ccwqMvbB.s 			page 104


 4691      34DDD535 
 4691      7BA65D82 
 4691      1BE5C88D 
 4692 0752 61114055 		.ascii	"a\021@U\321cs\343\306j\2711\022\217\033UE\304\215QZ"
 4692      D16373E3 
 4692      C66AB931 
 4692      128F1B55 
 4692      45C48D51 
 4693 0767 B1B478DC 		.ascii	"\261\264x\334\030\223\334\030\217\317\015L\203\307\203"
 4693      1893DC18 
 4693      8FCF0D4C 
 4693      83C783
 4694 0776 D93AB831 		.ascii	"\331:\2701\261\"7&\242\334\230t\224y\222\312\334\350"
 4694      B1223726 
 4694      A2DC9874 
 4694      947992CA 
 4694      DCE8
 4695 0788 1F29F4C8 		.ascii	"\037)\364\3102\017;\037\017\333\016\356Iv\226yJr\003"
 4695      320F3B1F 
 4695      0FDB0EEE 
 4695      49769679 
 4695      4A7203
 4696 079b 4DE0660C 		.ascii	"M\340f\0147T\224\177\220\334 \345ik\274j>\275(\276\025"
 4696      3754947F 
 4696      90DC20E5 
 4696      696BBC6A 
 4696      3EBD28BE 
 4697 07b0 F5C02D07 		.ascii	"\365\300-\0073T\214f$3\310\3506\031\371\315\2737\323"
 4697      33548C66 
 4697      2433C8E8 
 4697      3619F9CD 
 4697      BB37D3
 4698 07c3 2CA31E7A 		.ascii	",\243\036z\222\270\343\200\206\212\331\254\204"
 4698      92B8E380 
 4698      868AD9AC 
 4698      84
 4699 07d0 0699CDC5 		.ascii	"\006\231\315\305<I\250(\317KH\220\362\335\030H\250("
 4699      3C49A828 
 4699      CF4B4890 
 4699      F2DD1848 
 4699      A828
 4700 07e2 DF939020 		.ascii	"\337\223\220 \345\037c \241\242\274 !A\312\213\216'"
 4700      E51F6320 
 4700      A1A2BC20 
 4700      2141CA8B 
 4700      8E27
 4701 07f4 093190D4 		.ascii	"\0111\220\324\3116\021n\340\321-\374\242\363\013\372"
 4701      C936116E 
 4701      E0D12DFC 
 4701      A2F30BFA 
 4702 0804 C58A7EA9 		.ascii	"\305\212~\251\335\245\203\365\023jV\020\0177\246\247"
 4702      DDA583F5 
 4702      136A5610 
 4702      0F37A6A7 
 4703 0814 6F88FEDD 		.ascii	"o\210\376\335\376\336\206\377\276\366\366\206\327\267"
 4703      FEDE86FF 
 4703      BEF6F686 
ARM GAS  /tmp/ccwqMvbB.s 			page 105


 4703      D7B7
 4704 0822 BFF6BF6D 		.ascii	"\277\366\277m\357m\330\362\322\253[^\372\307\013\277"
 4704      EF6DD8F2 
 4704      D2AB5B5E 
 4704      FAC70BBF 
 4705 0832 FBEB0BAF 		.ascii	"\373\353\013\257\376\371\357[^\374\327\277\377\262\371"
 4705      FEF9EF5B 
 4705      5EFCD7BF 
 4705      FFB2F9
 4706 0841 3FD66BE9 		.ascii	"?\326k\351[5\327\233\357\276\265\375\335\237\211\303"
 4706      5B35D79B 
 4706      EFBEB5FD 
 4706      DD9F89C3 
 4707 0851 F4377EBF 		.ascii	"\3647~\277q\333\266\337n\375\203\346\336\272\375\235"
 4707      71DBB6DF 
 4707      6EFD83E6 
 4707      DEBAFD9D 
 4708 0861 37DE7AF3 		.ascii	"7\336z\363\377\336<\332\253"
 4708      FFDE3CDA 
 4708      AB
 4709              		.text
 4710              		.section	.gnu.lto___early_init.74269a69a636a890,"e",%progbits
 4711 0000 789CE360 		.ascii	"x\234\343``d\370\316\300\300`\011\304\262@\314\310\314"
 4711      6064F8CE 
 4711      C0C06009 
 4711      C4B240CC 
 4711      C8CC
 4712 0012 C0C8D4D0 		.ascii	"\300\310\324\320\320\340\300\336\310\301\304\310\010"
 4712      D0E0C0DE 
 4712      C8C1C4C8 
 4712      08
 4713 001f 66357030 		.ascii	"f5p02\32431\3263\3663Ogf<\324\376l'\223\346r\240L\303"
 4713      32D43331 
 4713      D633F633 
 4713      4F67663C 
 4713      D4FE6C27 
 4714 0039 81E957F8 		.ascii	"\201\351W\370\332\032Z%\346330\314\004b\010`\334\305"
 4714      DA1A5A25 
 4714      E6333330 
 4714      CC046208 
 4714      60DCC5
 4715 004c A8C9C000 		.ascii	"\250\311\300\000T\371h\343\277\251\274l,P)\306\335\214"
 4715      54F968E3 
 4715      BFA9BC6C 
 4715      2C5029C6 
 4715      DD8C
 4716 005e 6C40CB18 		.ascii	"l@\313\030\030\326_b=\320\360\357\177{\303\2013\213"
