ARM GAS  /tmp/ccGUgTIG.s 			page 1


   1              		.cpu cortex-m4
   2              		.eabi_attribute 20, 1
   3              		.eabi_attribute 21, 1
   4              		.eabi_attribute 23, 3
   5              		.eabi_attribute 24, 1
   6              		.eabi_attribute 25, 1
   7              		.eabi_attribute 26, 1
   8              		.eabi_attribute 30, 2
   9              		.eabi_attribute 34, 1
  10              		.eabi_attribute 18, 4
  11              		.file	"chfactory.c"
  12              		.file 1 "/usr/lib/gcc/arm-none-eabi/9.2.1/include/stddef.h"
  13              		.file 2 "/usr/include/newlib/sys/_types.h"
  14              		.file 3 "/usr/include/newlib/sys/reent.h"
  15              		.file 4 "/usr/include/newlib/sys/lock.h"
  16              		.file 5 "/usr/lib/gcc/arm-none-eabi/9.2.1/include/stdint.h"
  17              		.file 6 "../../../../os/common/ports/ARM-common/chtypes.h"
  18              		.file 7 "../../../../os/rt/include/chearly.h"
  19              		.file 8 "../../../../os/rt/include/chobjects.h"
  20              		.file 9 "../../../../os/rt/include/chrfcu.h"
  21              		.file 10 "../../../../os/rt/include/chdebug.h"
  22              		.file 11 "../../../../os/rt/include/chtime.h"
  23              		.file 12 "../../../../os/rt/include/chlists.h"
  24              		.file 13 "../../../../os/rt/include/chtrace.h"
  25              		.file 14 "../../../../os/common/ext/ARM/CMSIS/Core/Include/core_cm4.h"
  26              		.file 15 "../../../../os/common/ext/ST/STM32F3xx/system_stm32f3xx.h"
  27              		.file 16 "../../../../os/common/ports/ARMv7-M/chcore.h"
  28              		.file 17 "../../../../os/rt/include/chtm.h"
  29              		.file 18 "../../../../os/rt/include/chsem.h"
  30              		.file 19 "../../../../os/rt/include/chmtx.h"
  31              		.file 20 "../../../../os/rt/include/chsys.h"
  32              		.file 21 "../../../../os/rt/include/chregistry.h"
  33              		.file 22 "../../../../os/oslib/include/chmboxes.h"
  34              		.file 23 "../../../../os/oslib/include/chmemcore.h"
  35              		.file 24 "../../../../os/oslib/include/chmempools.h"
  36              		.file 25 "../../../../os/oslib/include/chobjfifos.h"
  37              		.file 26 "../../../../os/oslib/include/chpipes.h"
  38              		.file 27 "../../../../os/oslib/include/chfactory.h"
  39              		.file 28 "../../../../os/oslib/src/chfactory.c"
  40              		.section	.gnu.debuglto_.debug_info,"e",%progbits
  41              	.Ldebug_info0:
  42              		.hidden	chfactory.c.5495ff15
  43              		.weak	chfactory.c.5495ff15
  44              	chfactory.c.5495ff15:
  45 0000 43200000 		.4byte	0x2043
  46 0004 0400     		.2byte	0x4
  47 0006 00000000 		.4byte	.Ldebug_abbrev0
  48 000a 04       		.byte	0x4
  49 000b 01       		.uleb128 0x1
  50 000c B00F0000 		.4byte	.LASF377
  51 0010 0C       		.byte	0xc
  52 0011 18000000 		.4byte	.LASF378
  53 0015 68030000 		.4byte	.LASF379
  54 0019 00000000 		.4byte	.Ldebug_line0
  55 001d 02       		.uleb128 0x2
  56 001e 04       		.byte	0x4
  57 001f 05       		.byte	0x5
ARM GAS  /tmp/ccGUgTIG.s 			page 2


  58 0020 696E7400 		.ascii	"int\000"
  59 0024 03       		.uleb128 0x3
  60 0025 52000000 		.4byte	.LASF3
  61 0029 01       		.byte	0x1
  62 002a D1       		.byte	0xd1
  63 002b 17       		.byte	0x17
  64 002c 30000000 		.4byte	0x30
  65 0030 04       		.uleb128 0x4
  66 0031 04       		.byte	0x4
  67 0032 07       		.byte	0x7
  68 0033 48090000 		.4byte	.LASF0
  69 0037 04       		.uleb128 0x4
  70 0038 08       		.byte	0x8
  71 0039 05       		.byte	0x5
  72 003a 59080000 		.4byte	.LASF1
  73 003e 04       		.uleb128 0x4
  74 003f 08       		.byte	0x8
  75 0040 04       		.byte	0x4
  76 0041 DC0A0000 		.4byte	.LASF2
  77 0045 05       		.uleb128 0x5
  78 0046 250D0000 		.4byte	.LASF4
  79 004a 01       		.byte	0x1
  80 004b 5E01     		.2byte	0x15e
  81 004d 17       		.byte	0x17
  82 004e 30000000 		.4byte	0x30
  83 0052 04       		.uleb128 0x4
  84 0053 01       		.byte	0x1
  85 0054 06       		.byte	0x6
  86 0055 C1030000 		.4byte	.LASF5
  87 0059 04       		.uleb128 0x4
  88 005a 01       		.byte	0x1
  89 005b 08       		.byte	0x8
  90 005c 5A040000 		.4byte	.LASF6
  91 0060 04       		.uleb128 0x4
  92 0061 02       		.byte	0x2
  93 0062 05       		.byte	0x5
  94 0063 480E0000 		.4byte	.LASF7
  95 0067 04       		.uleb128 0x4
  96 0068 02       		.byte	0x2
  97 0069 07       		.byte	0x7
  98 006a F0100000 		.4byte	.LASF8
  99 006e 04       		.uleb128 0x4
 100 006f 04       		.byte	0x4
 101 0070 05       		.byte	0x5
 102 0071 AB020000 		.4byte	.LASF9
 103 0075 04       		.uleb128 0x4
 104 0076 04       		.byte	0x4
 105 0077 07       		.byte	0x7
 106 0078 CB060000 		.4byte	.LASF10
 107 007c 04       		.uleb128 0x4
 108 007d 08       		.byte	0x8
 109 007e 07       		.byte	0x7
 110 007f CE0B0000 		.4byte	.LASF11
 111 0083 03       		.uleb128 0x3
 112 0084 D8100000 		.4byte	.LASF12
 113 0088 02       		.byte	0x2
 114 0089 2E       		.byte	0x2e
ARM GAS  /tmp/ccGUgTIG.s 			page 3


 115 008a 0E       		.byte	0xe
 116 008b 6E000000 		.4byte	0x6e
 117 008f 03       		.uleb128 0x3
 118 0090 620B0000 		.4byte	.LASF13
 119 0094 02       		.byte	0x2
 120 0095 74       		.byte	0x74
 121 0096 0E       		.byte	0xe
 122 0097 6E000000 		.4byte	0x6e
 123 009b 06       		.uleb128 0x6
 124 009c 04       		.byte	0x4
 125 009d 02       		.byte	0x2
 126 009e A5       		.byte	0xa5
 127 009f 03       		.byte	0x3
 128 00a0 BD000000 		.4byte	0xbd
 129 00a4 07       		.uleb128 0x7
 130 00a5 4C020000 		.4byte	.LASF14
 131 00a9 02       		.byte	0x2
 132 00aa A7       		.byte	0xa7
 133 00ab 0C       		.byte	0xc
 134 00ac 45000000 		.4byte	0x45
 135 00b0 07       		.uleb128 0x7
 136 00b1 6A0B0000 		.4byte	.LASF15
 137 00b5 02       		.byte	0x2
 138 00b6 A8       		.byte	0xa8
 139 00b7 13       		.byte	0x13
 140 00b8 BD000000 		.4byte	0xbd
 141 00bc 00       		.byte	0
 142 00bd 08       		.uleb128 0x8
 143 00be 59000000 		.4byte	0x59
 144 00c2 CD000000 		.4byte	0xcd
 145 00c6 09       		.uleb128 0x9
 146 00c7 30000000 		.4byte	0x30
 147 00cb 03       		.byte	0x3
 148 00cc 00       		.byte	0
 149 00cd 0A       		.uleb128 0xa
 150 00ce 08       		.byte	0x8
 151 00cf 02       		.byte	0x2
 152 00d0 A2       		.byte	0xa2
 153 00d1 09       		.byte	0x9
 154 00d2 F1000000 		.4byte	0xf1
 155 00d6 0B       		.uleb128 0xb
 156 00d7 780A0000 		.4byte	.LASF16
 157 00db 02       		.byte	0x2
 158 00dc A4       		.byte	0xa4
 159 00dd 07       		.byte	0x7
 160 00de 1D000000 		.4byte	0x1d
 161 00e2 00       		.byte	0
 162 00e3 0B       		.uleb128 0xb
 163 00e4 6D000000 		.4byte	.LASF17
 164 00e8 02       		.byte	0x2
 165 00e9 A9       		.byte	0xa9
 166 00ea 05       		.byte	0x5
 167 00eb 9B000000 		.4byte	0x9b
 168 00ef 04       		.byte	0x4
 169 00f0 00       		.byte	0
 170 00f1 03       		.uleb128 0x3
 171 00f2 D00C0000 		.4byte	.LASF18
ARM GAS  /tmp/ccGUgTIG.s 			page 4


 172 00f6 02       		.byte	0x2
 173 00f7 AA       		.byte	0xaa
 174 00f8 03       		.byte	0x3
 175 00f9 CD000000 		.4byte	0xcd
 176 00fd 0C       		.uleb128 0xc
 177 00fe 04       		.byte	0x4
 178 00ff 03       		.uleb128 0x3
 179 0100 AE100000 		.4byte	.LASF19
 180 0104 03       		.byte	0x3
 181 0105 16       		.byte	0x16
 182 0106 19       		.byte	0x19
 183 0107 75000000 		.4byte	0x75
 184 010b 03       		.uleb128 0x3
 185 010c 57070000 		.4byte	.LASF20
 186 0110 04       		.byte	0x4
 187 0111 0C       		.byte	0xc
 188 0112 0D       		.byte	0xd
 189 0113 1D000000 		.4byte	0x1d
 190 0117 03       		.uleb128 0x3
 191 0118 B30C0000 		.4byte	.LASF21
 192 011c 03       		.byte	0x3
 193 011d 23       		.byte	0x23
 194 011e 1B       		.byte	0x1b
 195 011f 0B010000 		.4byte	0x10b
 196 0123 0D       		.uleb128 0xd
 197 0124 BC070000 		.4byte	.LASF26
 198 0128 18       		.byte	0x18
 199 0129 03       		.byte	0x3
 200 012a 34       		.byte	0x34
 201 012b 08       		.byte	0x8
 202 012c 7D010000 		.4byte	0x17d
 203 0130 0B       		.uleb128 0xb
 204 0131 450D0000 		.4byte	.LASF22
 205 0135 03       		.byte	0x3
 206 0136 36       		.byte	0x36
 207 0137 13       		.byte	0x13
 208 0138 7D010000 		.4byte	0x17d
 209 013c 00       		.byte	0
 210 013d 0E       		.uleb128 0xe
 211 013e 5F6B00   		.ascii	"_k\000"
 212 0141 03       		.byte	0x3
 213 0142 37       		.byte	0x37
 214 0143 07       		.byte	0x7
 215 0144 1D000000 		.4byte	0x1d
 216 0148 04       		.byte	0x4
 217 0149 0B       		.uleb128 0xb
 218 014a E2070000 		.4byte	.LASF23
 219 014e 03       		.byte	0x3
 220 014f 37       		.byte	0x37
 221 0150 0B       		.byte	0xb
 222 0151 1D000000 		.4byte	0x1d
 223 0155 08       		.byte	0x8
 224 0156 0B       		.uleb128 0xb
 225 0157 1C090000 		.4byte	.LASF24
 226 015b 03       		.byte	0x3
 227 015c 37       		.byte	0x37
 228 015d 14       		.byte	0x14
ARM GAS  /tmp/ccGUgTIG.s 			page 5


 229 015e 1D000000 		.4byte	0x1d
 230 0162 0C       		.byte	0xc
 231 0163 0B       		.uleb128 0xb
 232 0164 1B060000 		.4byte	.LASF25
 233 0168 03       		.byte	0x3
 234 0169 37       		.byte	0x37
 235 016a 1B       		.byte	0x1b
 236 016b 1D000000 		.4byte	0x1d
 237 016f 10       		.byte	0x10
 238 0170 0E       		.uleb128 0xe
 239 0171 5F7800   		.ascii	"_x\000"
 240 0174 03       		.byte	0x3
 241 0175 38       		.byte	0x38
 242 0176 0B       		.byte	0xb
 243 0177 83010000 		.4byte	0x183
 244 017b 14       		.byte	0x14
 245 017c 00       		.byte	0
 246 017d 0F       		.uleb128 0xf
 247 017e 04       		.byte	0x4
 248 017f 23010000 		.4byte	0x123
 249 0183 08       		.uleb128 0x8
 250 0184 FF000000 		.4byte	0xff
 251 0188 93010000 		.4byte	0x193
 252 018c 09       		.uleb128 0x9
 253 018d 30000000 		.4byte	0x30
 254 0191 00       		.byte	0
 255 0192 00       		.byte	0
 256 0193 0D       		.uleb128 0xd
 257 0194 31010000 		.4byte	.LASF27
 258 0198 24       		.byte	0x24
 259 0199 03       		.byte	0x3
 260 019a 3C       		.byte	0x3c
 261 019b 08       		.byte	0x8
 262 019c 16020000 		.4byte	0x216
 263 01a0 0B       		.uleb128 0xb
 264 01a1 4D010000 		.4byte	.LASF28
 265 01a5 03       		.byte	0x3
 266 01a6 3E       		.byte	0x3e
 267 01a7 09       		.byte	0x9
 268 01a8 1D000000 		.4byte	0x1d
 269 01ac 00       		.byte	0
 270 01ad 0B       		.uleb128 0xb
 271 01ae A7110000 		.4byte	.LASF29
 272 01b2 03       		.byte	0x3
 273 01b3 3F       		.byte	0x3f
 274 01b4 09       		.byte	0x9
 275 01b5 1D000000 		.4byte	0x1d
 276 01b9 04       		.byte	0x4
 277 01ba 0B       		.uleb128 0xb
 278 01bb 03110000 		.4byte	.LASF30
 279 01bf 03       		.byte	0x3
 280 01c0 40       		.byte	0x40
 281 01c1 09       		.byte	0x9
 282 01c2 1D000000 		.4byte	0x1d
 283 01c6 08       		.byte	0x8
 284 01c7 0B       		.uleb128 0xb
 285 01c8 AA090000 		.4byte	.LASF31
ARM GAS  /tmp/ccGUgTIG.s 			page 6


 286 01cc 03       		.byte	0x3
 287 01cd 41       		.byte	0x41
 288 01ce 09       		.byte	0x9
 289 01cf 1D000000 		.4byte	0x1d
 290 01d3 0C       		.byte	0xc
 291 01d4 0B       		.uleb128 0xb
 292 01d5 3C030000 		.4byte	.LASF32
 293 01d9 03       		.byte	0x3
 294 01da 42       		.byte	0x42
 295 01db 09       		.byte	0x9
 296 01dc 1D000000 		.4byte	0x1d
 297 01e0 10       		.byte	0x10
 298 01e1 0B       		.uleb128 0xb
 299 01e2 EF0E0000 		.4byte	.LASF33
 300 01e6 03       		.byte	0x3
 301 01e7 43       		.byte	0x43
 302 01e8 09       		.byte	0x9
 303 01e9 1D000000 		.4byte	0x1d
 304 01ed 14       		.byte	0x14
 305 01ee 0B       		.uleb128 0xb
 306 01ef A10A0000 		.4byte	.LASF34
 307 01f3 03       		.byte	0x3
 308 01f4 44       		.byte	0x44
 309 01f5 09       		.byte	0x9
 310 01f6 1D000000 		.4byte	0x1d
 311 01fa 18       		.byte	0x18
 312 01fb 0B       		.uleb128 0xb
 313 01fc E80A0000 		.4byte	.LASF35
 314 0200 03       		.byte	0x3
 315 0201 45       		.byte	0x45
 316 0202 09       		.byte	0x9
 317 0203 1D000000 		.4byte	0x1d
 318 0207 1C       		.byte	0x1c
 319 0208 0B       		.uleb128 0xb
 320 0209 81110000 		.4byte	.LASF36
 321 020d 03       		.byte	0x3
 322 020e 46       		.byte	0x46
 323 020f 09       		.byte	0x9
 324 0210 1D000000 		.4byte	0x1d
 325 0214 20       		.byte	0x20
 326 0215 00       		.byte	0
 327 0216 10       		.uleb128 0x10
 328 0217 61020000 		.4byte	.LASF37
 329 021b 0801     		.2byte	0x108
 330 021d 03       		.byte	0x3
 331 021e 4F       		.byte	0x4f
 332 021f 08       		.byte	0x8
 333 0220 5B020000 		.4byte	0x25b
 334 0224 0B       		.uleb128 0xb
 335 0225 79110000 		.4byte	.LASF38
 336 0229 03       		.byte	0x3
 337 022a 50       		.byte	0x50
 338 022b 0A       		.byte	0xa
 339 022c 5B020000 		.4byte	0x25b
 340 0230 00       		.byte	0
 341 0231 0B       		.uleb128 0xb
 342 0232 F70B0000 		.4byte	.LASF39
ARM GAS  /tmp/ccGUgTIG.s 			page 7


 343 0236 03       		.byte	0x3
 344 0237 51       		.byte	0x51
 345 0238 09       		.byte	0x9
 346 0239 5B020000 		.4byte	0x25b
 347 023d 80       		.byte	0x80
 348 023e 11       		.uleb128 0x11
 349 023f CB0E0000 		.4byte	.LASF40
 350 0243 03       		.byte	0x3
 351 0244 53       		.byte	0x53
 352 0245 0A       		.byte	0xa
 353 0246 FF000000 		.4byte	0xff
 354 024a 0001     		.2byte	0x100
 355 024c 11       		.uleb128 0x11
 356 024d 6E0F0000 		.4byte	.LASF41
 357 0251 03       		.byte	0x3
 358 0252 56       		.byte	0x56
 359 0253 0A       		.byte	0xa
 360 0254 FF000000 		.4byte	0xff
 361 0258 0401     		.2byte	0x104
 362 025a 00       		.byte	0
 363 025b 08       		.uleb128 0x8
 364 025c FD000000 		.4byte	0xfd
 365 0260 6B020000 		.4byte	0x26b
 366 0264 09       		.uleb128 0x9
 367 0265 30000000 		.4byte	0x30
 368 0269 1F       		.byte	0x1f
 369 026a 00       		.byte	0
 370 026b 10       		.uleb128 0x10
 371 026c 5C0A0000 		.4byte	.LASF42
 372 0270 9001     		.2byte	0x190
 373 0272 03       		.byte	0x3
 374 0273 62       		.byte	0x62
 375 0274 08       		.byte	0x8
 376 0275 AE020000 		.4byte	0x2ae
 377 0279 0B       		.uleb128 0xb
 378 027a 450D0000 		.4byte	.LASF22
 379 027e 03       		.byte	0x3
 380 027f 63       		.byte	0x63
 381 0280 12       		.byte	0x12
 382 0281 AE020000 		.4byte	0x2ae
 383 0285 00       		.byte	0
 384 0286 0B       		.uleb128 0xb
 385 0287 230F0000 		.4byte	.LASF43
 386 028b 03       		.byte	0x3
 387 028c 64       		.byte	0x64
 388 028d 06       		.byte	0x6
 389 028e 1D000000 		.4byte	0x1d
 390 0292 04       		.byte	0x4
 391 0293 0B       		.uleb128 0xb
 392 0294 1B050000 		.4byte	.LASF44
 393 0298 03       		.byte	0x3
 394 0299 66       		.byte	0x66
 395 029a 09       		.byte	0x9
 396 029b B4020000 		.4byte	0x2b4
 397 029f 08       		.byte	0x8
 398 02a0 0B       		.uleb128 0xb
 399 02a1 61020000 		.4byte	.LASF37
ARM GAS  /tmp/ccGUgTIG.s 			page 8


 400 02a5 03       		.byte	0x3
 401 02a6 67       		.byte	0x67
 402 02a7 1E       		.byte	0x1e
 403 02a8 16020000 		.4byte	0x216
 404 02ac 88       		.byte	0x88
 405 02ad 00       		.byte	0
 406 02ae 0F       		.uleb128 0xf
 407 02af 04       		.byte	0x4
 408 02b0 6B020000 		.4byte	0x26b
 409 02b4 08       		.uleb128 0x8
 410 02b5 C4020000 		.4byte	0x2c4
 411 02b9 C4020000 		.4byte	0x2c4
 412 02bd 09       		.uleb128 0x9
 413 02be 30000000 		.4byte	0x30
 414 02c2 1F       		.byte	0x1f
 415 02c3 00       		.byte	0
 416 02c4 0F       		.uleb128 0xf
 417 02c5 04       		.byte	0x4
 418 02c6 CA020000 		.4byte	0x2ca
 419 02ca 12       		.uleb128 0x12
 420 02cb 0D       		.uleb128 0xd
 421 02cc 590F0000 		.4byte	.LASF45
 422 02d0 08       		.byte	0x8
 423 02d1 03       		.byte	0x3
 424 02d2 7A       		.byte	0x7a
 425 02d3 08       		.byte	0x8
 426 02d4 F3020000 		.4byte	0x2f3
 427 02d8 0B       		.uleb128 0xb
 428 02d9 600C0000 		.4byte	.LASF46
 429 02dd 03       		.byte	0x3
 430 02de 7B       		.byte	0x7b
 431 02df 11       		.byte	0x11
 432 02e0 F3020000 		.4byte	0x2f3
 433 02e4 00       		.byte	0
 434 02e5 0B       		.uleb128 0xb
 435 02e6 DE020000 		.4byte	.LASF47
 436 02ea 03       		.byte	0x3
 437 02eb 7C       		.byte	0x7c
 438 02ec 06       		.byte	0x6
 439 02ed 1D000000 		.4byte	0x1d
 440 02f1 04       		.byte	0x4
 441 02f2 00       		.byte	0
 442 02f3 0F       		.uleb128 0xf
 443 02f4 04       		.byte	0x4
 444 02f5 59000000 		.4byte	0x59
 445 02f9 0D       		.uleb128 0xd
 446 02fa FF060000 		.4byte	.LASF48
 447 02fe 68       		.byte	0x68
 448 02ff 03       		.byte	0x3
 449 0300 BA       		.byte	0xba
 450 0301 08       		.byte	0x8
 451 0302 3C040000 		.4byte	0x43c
 452 0306 0E       		.uleb128 0xe
 453 0307 5F7000   		.ascii	"_p\000"
 454 030a 03       		.byte	0x3
 455 030b BB       		.byte	0xbb
 456 030c 12       		.byte	0x12
ARM GAS  /tmp/ccGUgTIG.s 			page 9


 457 030d F3020000 		.4byte	0x2f3
 458 0311 00       		.byte	0
 459 0312 0E       		.uleb128 0xe
 460 0313 5F7200   		.ascii	"_r\000"
 461 0316 03       		.byte	0x3
 462 0317 BC       		.byte	0xbc
 463 0318 07       		.byte	0x7
 464 0319 1D000000 		.4byte	0x1d
 465 031d 04       		.byte	0x4
 466 031e 0E       		.uleb128 0xe
 467 031f 5F7700   		.ascii	"_w\000"
 468 0322 03       		.byte	0x3
 469 0323 BD       		.byte	0xbd
 470 0324 07       		.byte	0x7
 471 0325 1D000000 		.4byte	0x1d
 472 0329 08       		.byte	0x8
 473 032a 0B       		.uleb128 0xb
 474 032b 360A0000 		.4byte	.LASF49
 475 032f 03       		.byte	0x3
 476 0330 BE       		.byte	0xbe
 477 0331 09       		.byte	0x9
 478 0332 60000000 		.4byte	0x60
 479 0336 0C       		.byte	0xc
 480 0337 0B       		.uleb128 0xb
 481 0338 5B020000 		.4byte	.LASF50
 482 033c 03       		.byte	0x3
 483 033d BF       		.byte	0xbf
 484 033e 09       		.byte	0x9
 485 033f 60000000 		.4byte	0x60
 486 0343 0E       		.byte	0xe
 487 0344 0E       		.uleb128 0xe
 488 0345 5F626600 		.ascii	"_bf\000"
 489 0349 03       		.byte	0x3
 490 034a C0       		.byte	0xc0
 491 034b 11       		.byte	0x11
 492 034c CB020000 		.4byte	0x2cb
 493 0350 10       		.byte	0x10
 494 0351 0B       		.uleb128 0xb
 495 0352 0E0F0000 		.4byte	.LASF51
 496 0356 03       		.byte	0x3
 497 0357 C1       		.byte	0xc1
 498 0358 07       		.byte	0x7
 499 0359 1D000000 		.4byte	0x1d
 500 035d 18       		.byte	0x18
 501 035e 0B       		.uleb128 0xb
 502 035f FC050000 		.4byte	.LASF52
 503 0363 03       		.byte	0x3
 504 0364 C8       		.byte	0xc8
 505 0365 0A       		.byte	0xa
 506 0366 FD000000 		.4byte	0xfd
 507 036a 1C       		.byte	0x1c
 508 036b 0B       		.uleb128 0xb
 509 036c A0000000 		.4byte	.LASF53
 510 0370 03       		.byte	0x3
 511 0371 CA       		.byte	0xca
 512 0372 1D       		.byte	0x1d
 513 0373 C0050000 		.4byte	0x5c0
ARM GAS  /tmp/ccGUgTIG.s 			page 10


 514 0377 20       		.byte	0x20
 515 0378 0B       		.uleb128 0xb
 516 0379 D4000000 		.4byte	.LASF54
 517 037d 03       		.byte	0x3
 518 037e CC       		.byte	0xcc
 519 037f 1D       		.byte	0x1d
 520 0380 EF050000 		.4byte	0x5ef
 521 0384 24       		.byte	0x24
 522 0385 0B       		.uleb128 0xb
 523 0386 430B0000 		.4byte	.LASF55
 524 038a 03       		.byte	0x3
 525 038b CF       		.byte	0xcf
 526 038c 0D       		.byte	0xd
 527 038d 13060000 		.4byte	0x613
 528 0391 28       		.byte	0x28
 529 0392 0B       		.uleb128 0xb
 530 0393 20050000 		.4byte	.LASF56
 531 0397 03       		.byte	0x3
 532 0398 D0       		.byte	0xd0
 533 0399 09       		.byte	0x9
 534 039a 2D060000 		.4byte	0x62d
 535 039e 2C       		.byte	0x2c
 536 039f 0E       		.uleb128 0xe
 537 03a0 5F756200 		.ascii	"_ub\000"
 538 03a4 03       		.byte	0x3
 539 03a5 D3       		.byte	0xd3
 540 03a6 11       		.byte	0x11
 541 03a7 CB020000 		.4byte	0x2cb
 542 03ab 30       		.byte	0x30
 543 03ac 0E       		.uleb128 0xe
 544 03ad 5F757000 		.ascii	"_up\000"
 545 03b1 03       		.byte	0x3
 546 03b2 D4       		.byte	0xd4
 547 03b3 12       		.byte	0x12
 548 03b4 F3020000 		.4byte	0x2f3
 549 03b8 38       		.byte	0x38
 550 03b9 0E       		.uleb128 0xe
 551 03ba 5F757200 		.ascii	"_ur\000"
 552 03be 03       		.byte	0x3
 553 03bf D5       		.byte	0xd5
 554 03c0 07       		.byte	0x7
 555 03c1 1D000000 		.4byte	0x1d
 556 03c5 3C       		.byte	0x3c
 557 03c6 0B       		.uleb128 0xb
 558 03c7 B9090000 		.4byte	.LASF57
 559 03cb 03       		.byte	0x3
 560 03cc D8       		.byte	0xd8
 561 03cd 11       		.byte	0x11
 562 03ce 33060000 		.4byte	0x633
 563 03d2 40       		.byte	0x40
 564 03d3 0B       		.uleb128 0xb
 565 03d4 47010000 		.4byte	.LASF58
 566 03d8 03       		.byte	0x3
 567 03d9 D9       		.byte	0xd9
 568 03da 11       		.byte	0x11
 569 03db 43060000 		.4byte	0x643
 570 03df 43       		.byte	0x43
ARM GAS  /tmp/ccGUgTIG.s 			page 11


 571 03e0 0E       		.uleb128 0xe
 572 03e1 5F6C6200 		.ascii	"_lb\000"
 573 03e5 03       		.byte	0x3
 574 03e6 DC       		.byte	0xdc
 575 03e7 11       		.byte	0x11
 576 03e8 CB020000 		.4byte	0x2cb
 577 03ec 44       		.byte	0x44
 578 03ed 0B       		.uleb128 0xb
 579 03ee 570C0000 		.4byte	.LASF59
 580 03f2 03       		.byte	0x3
 581 03f3 DF       		.byte	0xdf
 582 03f4 07       		.byte	0x7
 583 03f5 1D000000 		.4byte	0x1d
 584 03f9 4C       		.byte	0x4c
 585 03fa 0B       		.uleb128 0xb
 586 03fb 5E060000 		.4byte	.LASF60
 587 03ff 03       		.byte	0x3
 588 0400 E0       		.byte	0xe0
 589 0401 0A       		.byte	0xa
 590 0402 83000000 		.4byte	0x83
 591 0406 50       		.byte	0x50
 592 0407 0B       		.uleb128 0xb
 593 0408 4B0D0000 		.4byte	.LASF61
 594 040c 03       		.byte	0x3
 595 040d E3       		.byte	0xe3
 596 040e 12       		.byte	0x12
 597 040f 5A040000 		.4byte	0x45a
 598 0413 54       		.byte	0x54
 599 0414 0B       		.uleb128 0xb
 600 0415 9F010000 		.4byte	.LASF62
 601 0419 03       		.byte	0x3
 602 041a E7       		.byte	0xe7
 603 041b 0C       		.byte	0xc
 604 041c 17010000 		.4byte	0x117
 605 0420 58       		.byte	0x58
 606 0421 0B       		.uleb128 0xb
 607 0422 000A0000 		.4byte	.LASF63
 608 0426 03       		.byte	0x3
 609 0427 E9       		.byte	0xe9
 610 0428 0E       		.byte	0xe
 611 0429 F1000000 		.4byte	0xf1
 612 042d 5C       		.byte	0x5c
 613 042e 0B       		.uleb128 0xb
 614 042f 12070000 		.4byte	.LASF64
 615 0433 03       		.byte	0x3
 616 0434 EA       		.byte	0xea
 617 0435 09       		.byte	0x9
 618 0436 1D000000 		.4byte	0x1d
 619 043a 64       		.byte	0x64
 620 043b 00       		.byte	0
 621 043c 13       		.uleb128 0x13
 622 043d 1D000000 		.4byte	0x1d
 623 0441 5A040000 		.4byte	0x45a
 624 0445 14       		.uleb128 0x14
 625 0446 5A040000 		.4byte	0x45a
 626 044a 14       		.uleb128 0x14
 627 044b FD000000 		.4byte	0xfd
ARM GAS  /tmp/ccGUgTIG.s 			page 12


 628 044f 14       		.uleb128 0x14
 629 0450 AE050000 		.4byte	0x5ae
 630 0454 14       		.uleb128 0x14
 631 0455 1D000000 		.4byte	0x1d
 632 0459 00       		.byte	0
 633 045a 0F       		.uleb128 0xf
 634 045b 04       		.byte	0x4
 635 045c 65040000 		.4byte	0x465
 636 0460 15       		.uleb128 0x15
 637 0461 5A040000 		.4byte	0x45a
 638 0465 16       		.uleb128 0x16
 639 0466 A2040000 		.4byte	.LASF65
 640 046a 2804     		.2byte	0x428
 641 046c 03       		.byte	0x3
 642 046d 6502     		.2byte	0x265
 643 046f 08       		.byte	0x8
 644 0470 AE050000 		.4byte	0x5ae
 645 0474 17       		.uleb128 0x17
 646 0475 69070000 		.4byte	.LASF66
 647 0479 03       		.byte	0x3
 648 047a 6702     		.2byte	0x267
 649 047c 07       		.byte	0x7
 650 047d 1D000000 		.4byte	0x1d
 651 0481 00       		.byte	0
 652 0482 17       		.uleb128 0x17
 653 0483 44050000 		.4byte	.LASF67
 654 0487 03       		.byte	0x3
 655 0488 6C02     		.2byte	0x26c
 656 048a 0B       		.byte	0xb
 657 048b 9F060000 		.4byte	0x69f
 658 048f 04       		.byte	0x4
 659 0490 17       		.uleb128 0x17
 660 0491 320C0000 		.4byte	.LASF68
 661 0495 03       		.byte	0x3
 662 0496 6C02     		.2byte	0x26c
 663 0498 14       		.byte	0x14
 664 0499 9F060000 		.4byte	0x69f
 665 049d 08       		.byte	0x8
 666 049e 17       		.uleb128 0x17
 667 049f D3090000 		.4byte	.LASF69
 668 04a3 03       		.byte	0x3
 669 04a4 6C02     		.2byte	0x26c
 670 04a6 1E       		.byte	0x1e
 671 04a7 9F060000 		.4byte	0x69f
 672 04ab 0C       		.byte	0xc
 673 04ac 17       		.uleb128 0x17
 674 04ad 1E0F0000 		.4byte	.LASF70
 675 04b1 03       		.byte	0x3
 676 04b2 6E02     		.2byte	0x26e
 677 04b4 08       		.byte	0x8
 678 04b5 1D000000 		.4byte	0x1d
 679 04b9 10       		.byte	0x10
 680 04ba 17       		.uleb128 0x17
 681 04bb 39080000 		.4byte	.LASF71
 682 04bf 03       		.byte	0x3
 683 04c0 6F02     		.2byte	0x26f
 684 04c2 08       		.byte	0x8
ARM GAS  /tmp/ccGUgTIG.s 			page 13


 685 04c3 9F080000 		.4byte	0x89f
 686 04c7 14       		.byte	0x14
 687 04c8 17       		.uleb128 0x17
 688 04c9 7B040000 		.4byte	.LASF72
 689 04cd 03       		.byte	0x3
 690 04ce 7202     		.2byte	0x272
 691 04d0 07       		.byte	0x7
 692 04d1 1D000000 		.4byte	0x1d
 693 04d5 30       		.byte	0x30
 694 04d6 17       		.uleb128 0x17
 695 04d7 A6100000 		.4byte	.LASF73
 696 04db 03       		.byte	0x3
 697 04dc 7302     		.2byte	0x273
 698 04de 16       		.byte	0x16
 699 04df B4080000 		.4byte	0x8b4
 700 04e3 34       		.byte	0x34
 701 04e4 17       		.uleb128 0x17
 702 04e5 07070000 		.4byte	.LASF74
 703 04e9 03       		.byte	0x3
 704 04ea 7502     		.2byte	0x275
 705 04ec 07       		.byte	0x7
 706 04ed 1D000000 		.4byte	0x1d
 707 04f1 38       		.byte	0x38
 708 04f2 17       		.uleb128 0x17
 709 04f3 F0070000 		.4byte	.LASF75
 710 04f7 03       		.byte	0x3
 711 04f8 7702     		.2byte	0x277
 712 04fa 0A       		.byte	0xa
 713 04fb C5080000 		.4byte	0x8c5
 714 04ff 3C       		.byte	0x3c
 715 0500 17       		.uleb128 0x17
 716 0501 CB100000 		.4byte	.LASF76
 717 0505 03       		.byte	0x3
 718 0506 7A02     		.2byte	0x27a
 719 0508 13       		.byte	0x13
 720 0509 7D010000 		.4byte	0x17d
 721 050d 40       		.byte	0x40
 722 050e 17       		.uleb128 0x17
 723 050f C0020000 		.4byte	.LASF77
 724 0513 03       		.byte	0x3
 725 0514 7B02     		.2byte	0x27b
 726 0516 07       		.byte	0x7
 727 0517 1D000000 		.4byte	0x1d
 728 051b 44       		.byte	0x44
 729 051c 17       		.uleb128 0x17
 730 051d C6060000 		.4byte	.LASF78
 731 0521 03       		.byte	0x3
 732 0522 7C02     		.2byte	0x27c
 733 0524 13       		.byte	0x13
 734 0525 7D010000 		.4byte	0x17d
 735 0529 48       		.byte	0x48
 736 052a 17       		.uleb128 0x17
 737 052b F3080000 		.4byte	.LASF79
 738 052f 03       		.byte	0x3
 739 0530 7D02     		.2byte	0x27d
 740 0532 14       		.byte	0x14
 741 0533 CB080000 		.4byte	0x8cb
ARM GAS  /tmp/ccGUgTIG.s 			page 14


 742 0537 4C       		.byte	0x4c
 743 0538 17       		.uleb128 0x17
 744 0539 F6000000 		.4byte	.LASF80
 745 053d 03       		.byte	0x3
 746 053e 8002     		.2byte	0x280
 747 0540 07       		.byte	0x7
 748 0541 1D000000 		.4byte	0x1d
 749 0545 50       		.byte	0x50
 750 0546 17       		.uleb128 0x17
 751 0547 66060000 		.4byte	.LASF81
 752 054b 03       		.byte	0x3
 753 054c 8102     		.2byte	0x281
 754 054e 09       		.byte	0x9
 755 054f AE050000 		.4byte	0x5ae
 756 0553 54       		.byte	0x54
 757 0554 17       		.uleb128 0x17
 758 0555 B4090000 		.4byte	.LASF82
 759 0559 03       		.byte	0x3
 760 055a A402     		.2byte	0x2a4
 761 055c 07       		.byte	0x7
 762 055d 7A080000 		.4byte	0x87a
 763 0561 58       		.byte	0x58
 764 0562 18       		.uleb128 0x18
 765 0563 5C0A0000 		.4byte	.LASF42
 766 0567 03       		.byte	0x3
 767 0568 A802     		.2byte	0x2a8
 768 056a 13       		.byte	0x13
 769 056b AE020000 		.4byte	0x2ae
 770 056f 4801     		.2byte	0x148
 771 0571 18       		.uleb128 0x18
 772 0572 FA070000 		.4byte	.LASF83
 773 0576 03       		.byte	0x3
 774 0577 A902     		.2byte	0x2a9
 775 0579 12       		.byte	0x12
 776 057a 6B020000 		.4byte	0x26b
 777 057e 4C01     		.2byte	0x14c
 778 0580 18       		.uleb128 0x18
 779 0581 3D060000 		.4byte	.LASF84
 780 0585 03       		.byte	0x3
 781 0586 AD02     		.2byte	0x2ad
 782 0588 0C       		.byte	0xc
 783 0589 DC080000 		.4byte	0x8dc
 784 058d DC02     		.2byte	0x2dc
 785 058f 18       		.uleb128 0x18
 786 0590 A3080000 		.4byte	.LASF85
 787 0594 03       		.byte	0x3
 788 0595 B202     		.2byte	0x2b2
 789 0597 10       		.byte	0x10
 790 0598 60060000 		.4byte	0x660
 791 059c E002     		.2byte	0x2e0
 792 059e 18       		.uleb128 0x18
 793 059f 8B000000 		.4byte	.LASF86
 794 05a3 03       		.byte	0x3
 795 05a4 B402     		.2byte	0x2b4
 796 05a6 0A       		.byte	0xa
 797 05a7 E8080000 		.4byte	0x8e8
 798 05ab EC02     		.2byte	0x2ec
ARM GAS  /tmp/ccGUgTIG.s 			page 15


 799 05ad 00       		.byte	0
 800 05ae 0F       		.uleb128 0xf
 801 05af 04       		.byte	0x4
 802 05b0 B4050000 		.4byte	0x5b4
 803 05b4 04       		.uleb128 0x4
 804 05b5 01       		.byte	0x1
 805 05b6 08       		.byte	0x8
 806 05b7 FA040000 		.4byte	.LASF87
 807 05bb 15       		.uleb128 0x15
 808 05bc B4050000 		.4byte	0x5b4
 809 05c0 0F       		.uleb128 0xf
 810 05c1 04       		.byte	0x4
 811 05c2 3C040000 		.4byte	0x43c
 812 05c6 13       		.uleb128 0x13
 813 05c7 1D000000 		.4byte	0x1d
 814 05cb E4050000 		.4byte	0x5e4
 815 05cf 14       		.uleb128 0x14
 816 05d0 5A040000 		.4byte	0x45a
 817 05d4 14       		.uleb128 0x14
 818 05d5 FD000000 		.4byte	0xfd
 819 05d9 14       		.uleb128 0x14
 820 05da E4050000 		.4byte	0x5e4
 821 05de 14       		.uleb128 0x14
 822 05df 1D000000 		.4byte	0x1d
 823 05e3 00       		.byte	0
 824 05e4 0F       		.uleb128 0xf
 825 05e5 04       		.byte	0x4
 826 05e6 BB050000 		.4byte	0x5bb
 827 05ea 19       		.uleb128 0x19
 828 05eb E4050000 		.4byte	0x5e4
 829 05ef 0F       		.uleb128 0xf
 830 05f0 04       		.byte	0x4
 831 05f1 C6050000 		.4byte	0x5c6
 832 05f5 13       		.uleb128 0x13
 833 05f6 8F000000 		.4byte	0x8f
 834 05fa 13060000 		.4byte	0x613
 835 05fe 14       		.uleb128 0x14
 836 05ff 5A040000 		.4byte	0x45a
 837 0603 14       		.uleb128 0x14
 838 0604 FD000000 		.4byte	0xfd
 839 0608 14       		.uleb128 0x14
 840 0609 8F000000 		.4byte	0x8f
 841 060d 14       		.uleb128 0x14
 842 060e 1D000000 		.4byte	0x1d
 843 0612 00       		.byte	0
 844 0613 0F       		.uleb128 0xf
 845 0614 04       		.byte	0x4
 846 0615 F5050000 		.4byte	0x5f5
 847 0619 13       		.uleb128 0x13
 848 061a 1D000000 		.4byte	0x1d
 849 061e 2D060000 		.4byte	0x62d
 850 0622 14       		.uleb128 0x14
 851 0623 5A040000 		.4byte	0x45a
 852 0627 14       		.uleb128 0x14
 853 0628 FD000000 		.4byte	0xfd
 854 062c 00       		.byte	0
 855 062d 0F       		.uleb128 0xf
ARM GAS  /tmp/ccGUgTIG.s 			page 16


 856 062e 04       		.byte	0x4
 857 062f 19060000 		.4byte	0x619
 858 0633 08       		.uleb128 0x8
 859 0634 59000000 		.4byte	0x59
 860 0638 43060000 		.4byte	0x643
 861 063c 09       		.uleb128 0x9
 862 063d 30000000 		.4byte	0x30
 863 0641 02       		.byte	0x2
 864 0642 00       		.byte	0
 865 0643 08       		.uleb128 0x8
 866 0644 59000000 		.4byte	0x59
 867 0648 53060000 		.4byte	0x653
 868 064c 09       		.uleb128 0x9
 869 064d 30000000 		.4byte	0x30
 870 0651 00       		.byte	0
 871 0652 00       		.byte	0
 872 0653 05       		.uleb128 0x5
 873 0654 C40C0000 		.4byte	.LASF88
 874 0658 03       		.byte	0x3
 875 0659 2401     		.2byte	0x124
 876 065b 1A       		.byte	0x1a
 877 065c F9020000 		.4byte	0x2f9
 878 0660 1A       		.uleb128 0x1a
 879 0661 09090000 		.4byte	.LASF89
 880 0665 0C       		.byte	0xc
 881 0666 03       		.byte	0x3
 882 0667 2801     		.2byte	0x128
 883 0669 08       		.byte	0x8
 884 066a 99060000 		.4byte	0x699
 885 066e 17       		.uleb128 0x17
 886 066f 450D0000 		.4byte	.LASF22
 887 0673 03       		.byte	0x3
 888 0674 2A01     		.2byte	0x12a
 889 0676 11       		.byte	0x11
 890 0677 99060000 		.4byte	0x699
 891 067b 00       		.byte	0
 892 067c 17       		.uleb128 0x17
 893 067d 75080000 		.4byte	.LASF90
 894 0681 03       		.byte	0x3
 895 0682 2B01     		.2byte	0x12b
 896 0684 07       		.byte	0x7
 897 0685 1D000000 		.4byte	0x1d
 898 0689 04       		.byte	0x4
 899 068a 17       		.uleb128 0x17
 900 068b FD080000 		.4byte	.LASF91
 901 068f 03       		.byte	0x3
 902 0690 2C01     		.2byte	0x12c
 903 0692 0B       		.byte	0xb
 904 0693 9F060000 		.4byte	0x69f
 905 0697 08       		.byte	0x8
 906 0698 00       		.byte	0
 907 0699 0F       		.uleb128 0xf
 908 069a 04       		.byte	0x4
 909 069b 60060000 		.4byte	0x660
 910 069f 0F       		.uleb128 0xf
 911 06a0 04       		.byte	0x4
 912 06a1 53060000 		.4byte	0x653
ARM GAS  /tmp/ccGUgTIG.s 			page 17


 913 06a5 1A       		.uleb128 0x1a
 914 06a6 2A0C0000 		.4byte	.LASF92
 915 06aa 0E       		.byte	0xe
 916 06ab 03       		.byte	0x3
 917 06ac 4401     		.2byte	0x144
 918 06ae 08       		.byte	0x8
 919 06af DE060000 		.4byte	0x6de
 920 06b3 17       		.uleb128 0x17
 921 06b4 340B0000 		.4byte	.LASF93
 922 06b8 03       		.byte	0x3
 923 06b9 4501     		.2byte	0x145
 924 06bb 12       		.byte	0x12
 925 06bc DE060000 		.4byte	0x6de
 926 06c0 00       		.byte	0
 927 06c1 17       		.uleb128 0x17
 928 06c2 C8010000 		.4byte	.LASF94
 929 06c6 03       		.byte	0x3
 930 06c7 4601     		.2byte	0x146
 931 06c9 12       		.byte	0x12
 932 06ca DE060000 		.4byte	0x6de
 933 06ce 06       		.byte	0x6
 934 06cf 17       		.uleb128 0x17
 935 06d0 EB100000 		.4byte	.LASF95
 936 06d4 03       		.byte	0x3
 937 06d5 4701     		.2byte	0x147
 938 06d7 12       		.byte	0x12
 939 06d8 67000000 		.4byte	0x67
 940 06dc 0C       		.byte	0xc
 941 06dd 00       		.byte	0
 942 06de 08       		.uleb128 0x8
 943 06df 67000000 		.4byte	0x67
 944 06e3 EE060000 		.4byte	0x6ee
 945 06e7 09       		.uleb128 0x9
 946 06e8 30000000 		.4byte	0x30
 947 06ec 02       		.byte	0x2
 948 06ed 00       		.byte	0
 949 06ee 1B       		.uleb128 0x1b
 950 06ef D0       		.byte	0xd0
 951 06f0 03       		.byte	0x3
 952 06f1 8502     		.2byte	0x285
 953 06f3 07       		.byte	0x7
 954 06f4 03080000 		.4byte	0x803
 955 06f8 17       		.uleb128 0x17
 956 06f9 AA030000 		.4byte	.LASF96
 957 06fd 03       		.byte	0x3
 958 06fe 8702     		.2byte	0x287
 959 0700 18       		.byte	0x18
 960 0701 30000000 		.4byte	0x30
 961 0705 00       		.byte	0
 962 0706 17       		.uleb128 0x17
 963 0707 730C0000 		.4byte	.LASF97
 964 070b 03       		.byte	0x3
 965 070c 8802     		.2byte	0x288
 966 070e 12       		.byte	0x12
 967 070f AE050000 		.4byte	0x5ae
 968 0713 04       		.byte	0x4
 969 0714 17       		.uleb128 0x17
ARM GAS  /tmp/ccGUgTIG.s 			page 18


 970 0715 E3000000 		.4byte	.LASF98
 971 0719 03       		.byte	0x3
 972 071a 8902     		.2byte	0x289
 973 071c 10       		.byte	0x10
 974 071d 03080000 		.4byte	0x803
 975 0721 08       		.byte	0x8
 976 0722 17       		.uleb128 0x17
 977 0723 E9020000 		.4byte	.LASF99
 978 0727 03       		.byte	0x3
 979 0728 8A02     		.2byte	0x28a
 980 072a 17       		.byte	0x17
 981 072b 93010000 		.4byte	0x193
 982 072f 24       		.byte	0x24
 983 0730 17       		.uleb128 0x17
 984 0731 CC080000 		.4byte	.LASF100
 985 0735 03       		.byte	0x3
 986 0736 8B02     		.2byte	0x28b
 987 0738 0F       		.byte	0xf
 988 0739 1D000000 		.4byte	0x1d
 989 073d 48       		.byte	0x48
 990 073e 17       		.uleb128 0x17
 991 073f 2B0A0000 		.4byte	.LASF101
 992 0743 03       		.byte	0x3
 993 0744 8C02     		.2byte	0x28c
 994 0746 2C       		.byte	0x2c
 995 0747 7C000000 		.4byte	0x7c
 996 074b 50       		.byte	0x50
 997 074c 17       		.uleb128 0x17
 998 074d 190D0000 		.4byte	.LASF102
 999 0751 03       		.byte	0x3
 1000 0752 8D02     		.2byte	0x28d
 1001 0754 1A       		.byte	0x1a
 1002 0755 A5060000 		.4byte	0x6a5
 1003 0759 58       		.byte	0x58
 1004 075a 17       		.uleb128 0x17
 1005 075b 110E0000 		.4byte	.LASF103
 1006 075f 03       		.byte	0x3
 1007 0760 8E02     		.2byte	0x28e
 1008 0762 16       		.byte	0x16
 1009 0763 F1000000 		.4byte	0xf1
 1010 0767 68       		.byte	0x68
 1011 0768 17       		.uleb128 0x17
 1012 0769 AD0B0000 		.4byte	.LASF104
 1013 076d 03       		.byte	0x3
 1014 076e 8F02     		.2byte	0x28f
 1015 0770 16       		.byte	0x16
 1016 0771 F1000000 		.4byte	0xf1
 1017 0775 70       		.byte	0x70
 1018 0776 17       		.uleb128 0x17
 1019 0777 F2090000 		.4byte	.LASF105
 1020 077b 03       		.byte	0x3
 1021 077c 9002     		.2byte	0x290
 1022 077e 16       		.byte	0x16
 1023 077f F1000000 		.4byte	0xf1
 1024 0783 78       		.byte	0x78
 1025 0784 17       		.uleb128 0x17
 1026 0785 56010000 		.4byte	.LASF106
ARM GAS  /tmp/ccGUgTIG.s 			page 19


 1027 0789 03       		.byte	0x3
 1028 078a 9102     		.2byte	0x291
 1029 078c 10       		.byte	0x10
 1030 078d 13080000 		.4byte	0x813
 1031 0791 80       		.byte	0x80
 1032 0792 17       		.uleb128 0x17
 1033 0793 87070000 		.4byte	.LASF107
 1034 0797 03       		.byte	0x3
 1035 0798 9202     		.2byte	0x292
 1036 079a 10       		.byte	0x10
 1037 079b 23080000 		.4byte	0x823
 1038 079f 88       		.byte	0x88
 1039 07a0 17       		.uleb128 0x17
 1040 07a1 C7110000 		.4byte	.LASF108
 1041 07a5 03       		.byte	0x3
 1042 07a6 9302     		.2byte	0x293
 1043 07a8 0F       		.byte	0xf
 1044 07a9 1D000000 		.4byte	0x1d
 1045 07ad A0       		.byte	0xa0
 1046 07ae 17       		.uleb128 0x17
 1047 07af 9D020000 		.4byte	.LASF109
 1048 07b3 03       		.byte	0x3
 1049 07b4 9402     		.2byte	0x294
 1050 07b6 16       		.byte	0x16
 1051 07b7 F1000000 		.4byte	0xf1
 1052 07bb A4       		.byte	0xa4
 1053 07bc 17       		.uleb128 0x17
 1054 07bd 8B0C0000 		.4byte	.LASF110
 1055 07c1 03       		.byte	0x3
 1056 07c2 9502     		.2byte	0x295
 1057 07c4 16       		.byte	0x16
 1058 07c5 F1000000 		.4byte	0xf1
 1059 07c9 AC       		.byte	0xac
 1060 07ca 17       		.uleb128 0x17
 1061 07cb 23110000 		.4byte	.LASF111
 1062 07cf 03       		.byte	0x3
 1063 07d0 9602     		.2byte	0x296
 1064 07d2 16       		.byte	0x16
 1065 07d3 F1000000 		.4byte	0xf1
 1066 07d7 B4       		.byte	0xb4
 1067 07d8 17       		.uleb128 0x17
 1068 07d9 9B090000 		.4byte	.LASF112
 1069 07dd 03       		.byte	0x3
 1070 07de 9702     		.2byte	0x297
 1071 07e0 16       		.byte	0x16
 1072 07e1 F1000000 		.4byte	0xf1
 1073 07e5 BC       		.byte	0xbc
 1074 07e6 17       		.uleb128 0x17
 1075 07e7 36010000 		.4byte	.LASF113
 1076 07eb 03       		.byte	0x3
 1077 07ec 9802     		.2byte	0x298
 1078 07ee 16       		.byte	0x16
 1079 07ef F1000000 		.4byte	0xf1
 1080 07f3 C4       		.byte	0xc4
 1081 07f4 17       		.uleb128 0x17
 1082 07f5 7D090000 		.4byte	.LASF114
 1083 07f9 03       		.byte	0x3
ARM GAS  /tmp/ccGUgTIG.s 			page 20


 1084 07fa 9902     		.2byte	0x299
 1085 07fc 08       		.byte	0x8
 1086 07fd 1D000000 		.4byte	0x1d
 1087 0801 CC       		.byte	0xcc
 1088 0802 00       		.byte	0
 1089 0803 08       		.uleb128 0x8
 1090 0804 B4050000 		.4byte	0x5b4
 1091 0808 13080000 		.4byte	0x813
 1092 080c 09       		.uleb128 0x9
 1093 080d 30000000 		.4byte	0x30
 1094 0811 19       		.byte	0x19
 1095 0812 00       		.byte	0
 1096 0813 08       		.uleb128 0x8
 1097 0814 B4050000 		.4byte	0x5b4
 1098 0818 23080000 		.4byte	0x823
 1099 081c 09       		.uleb128 0x9
 1100 081d 30000000 		.4byte	0x30
 1101 0821 07       		.byte	0x7
 1102 0822 00       		.byte	0
 1103 0823 08       		.uleb128 0x8
 1104 0824 B4050000 		.4byte	0x5b4
 1105 0828 33080000 		.4byte	0x833
 1106 082c 09       		.uleb128 0x9
 1107 082d 30000000 		.4byte	0x30
 1108 0831 17       		.byte	0x17
 1109 0832 00       		.byte	0
 1110 0833 1B       		.uleb128 0x1b
 1111 0834 F0       		.byte	0xf0
 1112 0835 03       		.byte	0x3
 1113 0836 9E02     		.2byte	0x29e
 1114 0838 07       		.byte	0x7
 1115 0839 5A080000 		.4byte	0x85a
 1116 083d 17       		.uleb128 0x17
 1117 083e 860F0000 		.4byte	.LASF115
 1118 0842 03       		.byte	0x3
 1119 0843 A102     		.2byte	0x2a1
 1120 0845 1B       		.byte	0x1b
 1121 0846 5A080000 		.4byte	0x85a
 1122 084a 00       		.byte	0
 1123 084b 17       		.uleb128 0x17
 1124 084c AB080000 		.4byte	.LASF116
 1125 0850 03       		.byte	0x3
 1126 0851 A202     		.2byte	0x2a2
 1127 0853 18       		.byte	0x18
 1128 0854 6A080000 		.4byte	0x86a
 1129 0858 78       		.byte	0x78
 1130 0859 00       		.byte	0
 1131 085a 08       		.uleb128 0x8
 1132 085b F3020000 		.4byte	0x2f3
 1133 085f 6A080000 		.4byte	0x86a
 1134 0863 09       		.uleb128 0x9
 1135 0864 30000000 		.4byte	0x30
 1136 0868 1D       		.byte	0x1d
 1137 0869 00       		.byte	0
 1138 086a 08       		.uleb128 0x8
 1139 086b 30000000 		.4byte	0x30
 1140 086f 7A080000 		.4byte	0x87a
ARM GAS  /tmp/ccGUgTIG.s 			page 21


 1141 0873 09       		.uleb128 0x9
 1142 0874 30000000 		.4byte	0x30
 1143 0878 1D       		.byte	0x1d
 1144 0879 00       		.byte	0
 1145 087a 1C       		.uleb128 0x1c
 1146 087b F0       		.byte	0xf0
 1147 087c 03       		.byte	0x3
 1148 087d 8302     		.2byte	0x283
 1149 087f 03       		.byte	0x3
 1150 0880 9F080000 		.4byte	0x89f
 1151 0884 1D       		.uleb128 0x1d
 1152 0885 A2040000 		.4byte	.LASF65
 1153 0889 03       		.byte	0x3
 1154 088a 9A02     		.2byte	0x29a
 1155 088c 0B       		.byte	0xb
 1156 088d EE060000 		.4byte	0x6ee
 1157 0891 1D       		.uleb128 0x1d
 1158 0892 29010000 		.4byte	.LASF117
 1159 0896 03       		.byte	0x3
 1160 0897 A302     		.2byte	0x2a3
 1161 0899 0B       		.byte	0xb
 1162 089a 33080000 		.4byte	0x833
 1163 089e 00       		.byte	0
 1164 089f 08       		.uleb128 0x8
 1165 08a0 B4050000 		.4byte	0x5b4
 1166 08a4 AF080000 		.4byte	0x8af
 1167 08a8 09       		.uleb128 0x9
 1168 08a9 30000000 		.4byte	0x30
 1169 08ad 18       		.byte	0x18
 1170 08ae 00       		.byte	0
 1171 08af 1E       		.uleb128 0x1e
 1172 08b0 62000000 		.4byte	.LASF380
 1173 08b4 0F       		.uleb128 0xf
 1174 08b5 04       		.byte	0x4
 1175 08b6 AF080000 		.4byte	0x8af
 1176 08ba 1F       		.uleb128 0x1f
 1177 08bb C5080000 		.4byte	0x8c5
 1178 08bf 14       		.uleb128 0x14
 1179 08c0 5A040000 		.4byte	0x45a
 1180 08c4 00       		.byte	0
 1181 08c5 0F       		.uleb128 0xf
 1182 08c6 04       		.byte	0x4
 1183 08c7 BA080000 		.4byte	0x8ba
 1184 08cb 0F       		.uleb128 0xf
 1185 08cc 04       		.byte	0x4
 1186 08cd 7D010000 		.4byte	0x17d
 1187 08d1 1F       		.uleb128 0x1f
 1188 08d2 DC080000 		.4byte	0x8dc
 1189 08d6 14       		.uleb128 0x14
 1190 08d7 1D000000 		.4byte	0x1d
 1191 08db 00       		.byte	0
 1192 08dc 0F       		.uleb128 0xf
 1193 08dd 04       		.byte	0x4
 1194 08de E2080000 		.4byte	0x8e2
 1195 08e2 0F       		.uleb128 0xf
 1196 08e3 04       		.byte	0x4
 1197 08e4 D1080000 		.4byte	0x8d1
ARM GAS  /tmp/ccGUgTIG.s 			page 22


 1198 08e8 08       		.uleb128 0x8
 1199 08e9 53060000 		.4byte	0x653
 1200 08ed F8080000 		.4byte	0x8f8
 1201 08f1 09       		.uleb128 0x9
 1202 08f2 30000000 		.4byte	0x30
 1203 08f6 02       		.byte	0x2
 1204 08f7 00       		.byte	0
 1205 08f8 20       		.uleb128 0x20
 1206 08f9 B4020000 		.4byte	.LASF118
 1207 08fd 03       		.byte	0x3
 1208 08fe 3303     		.2byte	0x333
 1209 0900 17       		.byte	0x17
 1210 0901 5A040000 		.4byte	0x45a
 1211 0905 20       		.uleb128 0x20
 1212 0906 C1040000 		.4byte	.LASF119
 1213 090a 03       		.byte	0x3
 1214 090b 3403     		.2byte	0x334
 1215 090d 1D       		.byte	0x1d
 1216 090e 60040000 		.4byte	0x460
 1217 0912 03       		.uleb128 0x3
 1218 0913 DB000000 		.4byte	.LASF120
 1219 0917 05       		.byte	0x5
 1220 0918 28       		.byte	0x28
 1221 0919 18       		.byte	0x18
 1222 091a 6E000000 		.4byte	0x6e
 1223 091e 19       		.uleb128 0x19
 1224 091f 12090000 		.4byte	0x912
 1225 0923 03       		.uleb128 0x3
 1226 0924 D4030000 		.4byte	.LASF121
 1227 0928 05       		.byte	0x5
 1228 0929 2E       		.byte	0x2e
 1229 092a 18       		.byte	0x18
 1230 092b 59000000 		.4byte	0x59
 1231 092f 15       		.uleb128 0x15
 1232 0930 23090000 		.4byte	0x923
 1233 0934 03       		.uleb128 0x3
 1234 0935 E50B0000 		.4byte	.LASF122
 1235 0939 05       		.byte	0x5
 1236 093a 31       		.byte	0x31
 1237 093b 19       		.byte	0x19
 1238 093c 67000000 		.4byte	0x67
 1239 0940 03       		.uleb128 0x3
 1240 0941 C2100000 		.4byte	.LASF123
 1241 0945 05       		.byte	0x5
 1242 0946 34       		.byte	0x34
 1243 0947 19       		.byte	0x19
 1244 0948 75000000 		.4byte	0x75
 1245 094c 03       		.uleb128 0x3
 1246 094d 8F0E0000 		.4byte	.LASF124
 1247 0951 05       		.byte	0x5
 1248 0952 37       		.byte	0x37
 1249 0953 19       		.byte	0x19
 1250 0954 7C000000 		.4byte	0x7c
 1251 0958 19       		.uleb128 0x19
 1252 0959 4C090000 		.4byte	0x94c
 1253 095d 03       		.uleb128 0x3
 1254 095e 3B090000 		.4byte	.LASF125
ARM GAS  /tmp/ccGUgTIG.s 			page 23


 1255 0962 06       		.byte	0x6
 1256 0963 36       		.byte	0x36
 1257 0964 1D       		.byte	0x1d
 1258 0965 40090000 		.4byte	0x940
 1259 0969 03       		.uleb128 0x3
 1260 096a 470C0000 		.4byte	.LASF126
 1261 096e 06       		.byte	0x6
 1262 096f 48       		.byte	0x48
 1263 0970 1D       		.byte	0x1d
 1264 0971 4C090000 		.4byte	0x94c
 1265 0975 03       		.uleb128 0x3
 1266 0976 62090000 		.4byte	.LASF127
 1267 097a 07       		.byte	0x7
 1268 097b 4D       		.byte	0x4d
 1269 097c 19       		.byte	0x19
 1270 097d 5D090000 		.4byte	0x95d
 1271 0981 03       		.uleb128 0x3
 1272 0982 5A050000 		.4byte	.LASF128
 1273 0986 07       		.byte	0x7
 1274 0987 50       		.byte	0x50
 1275 0988 19       		.byte	0x19
 1276 0989 69090000 		.4byte	0x969
 1277 098d 03       		.uleb128 0x3
 1278 098e 650D0000 		.4byte	.LASF129
 1279 0992 07       		.byte	0x7
 1280 0993 53       		.byte	0x53
 1281 0994 19       		.byte	0x19
 1282 0995 23090000 		.4byte	0x923
 1283 0999 03       		.uleb128 0x3
 1284 099a 0A030000 		.4byte	.LASF130
 1285 099e 07       		.byte	0x7
 1286 099f 54       		.byte	0x54
 1287 09a0 19       		.byte	0x19
 1288 09a1 23090000 		.4byte	0x923
 1289 09a5 03       		.uleb128 0x3
 1290 09a6 7E0F0000 		.4byte	.LASF131
 1291 09aa 07       		.byte	0x7
 1292 09ab 55       		.byte	0x55
 1293 09ac 19       		.byte	0x19
 1294 09ad 23090000 		.4byte	0x923
 1295 09b1 03       		.uleb128 0x3
 1296 09b2 A6000000 		.4byte	.LASF132
 1297 09b6 07       		.byte	0x7
 1298 09b7 57       		.byte	0x57
 1299 09b8 19       		.byte	0x19
 1300 09b9 40090000 		.4byte	0x940
 1301 09bd 03       		.uleb128 0x3
 1302 09be 130C0000 		.4byte	.LASF133
 1303 09c2 07       		.byte	0x7
 1304 09c3 58       		.byte	0x58
 1305 09c4 19       		.byte	0x19
 1306 09c5 12090000 		.4byte	0x912
 1307 09c9 03       		.uleb128 0x3
 1308 09ca 34040000 		.4byte	.LASF134
 1309 09ce 07       		.byte	0x7
 1310 09cf 5A       		.byte	0x5a
 1311 09d0 19       		.byte	0x19
ARM GAS  /tmp/ccGUgTIG.s 			page 24


 1312 09d1 40090000 		.4byte	0x940
 1313 09d5 03       		.uleb128 0x3
 1314 09d6 D8050000 		.4byte	.LASF135
 1315 09da 07       		.byte	0x7
 1316 09db 5C       		.byte	0x5c
 1317 09dc 19       		.byte	0x19
 1318 09dd 12090000 		.4byte	0x912
 1319 09e1 03       		.uleb128 0x3
 1320 09e2 9C070000 		.4byte	.LASF136
 1321 09e6 07       		.byte	0x7
 1322 09e7 5D       		.byte	0x5d
 1323 09e8 19       		.byte	0x19
 1324 09e9 40090000 		.4byte	0x940
 1325 09ed 03       		.uleb128 0x3
 1326 09ee 06040000 		.4byte	.LASF137
 1327 09f2 07       		.byte	0x7
 1328 09f3 80       		.byte	0x80
 1329 09f4 12       		.byte	0x12
 1330 09f5 30000000 		.4byte	0x30
 1331 09f9 03       		.uleb128 0x3
 1332 09fa C40A0000 		.4byte	.LASF138
 1333 09fe 07       		.byte	0x7
 1334 09ff 85       		.byte	0x85
 1335 0a00 1A       		.byte	0x1a
 1336 0a01 050A0000 		.4byte	0xa05
 1337 0a05 0D       		.uleb128 0xd
 1338 0a06 37070000 		.4byte	.LASF139
 1339 0a0a 48       		.byte	0x48
 1340 0a0b 08       		.byte	0x8
 1341 0a0c 9C       		.byte	0x9c
 1342 0a0d 08       		.byte	0x8
 1343 0a0e E80A0000 		.4byte	0xae8
 1344 0a12 0E       		.uleb128 0xe
 1345 0a13 68647200 		.ascii	"hdr\000"
 1346 0a17 08       		.byte	0x8
 1347 0a18 AD       		.byte	0xad
 1348 0a19 05       		.byte	0x5
 1349 0a1a 9A100000 		.4byte	0x109a
 1350 0a1e 00       		.byte	0
 1351 0a1f 0E       		.uleb128 0xe
 1352 0a20 63747800 		.ascii	"ctx\000"
 1353 0a24 08       		.byte	0x8
 1354 0a25 B1       		.byte	0xb1
 1355 0a26 21       		.byte	0x21
 1356 0a27 870F0000 		.4byte	0xf87
 1357 0a2b 0C       		.byte	0xc
 1358 0a2c 0B       		.uleb128 0xb
 1359 0a2d AB050000 		.4byte	.LASF140
 1360 0a31 08       		.byte	0x8
 1361 0a32 B6       		.byte	0xb6
 1362 0a33 21       		.byte	0x21
 1363 0a34 3B0C0000 		.4byte	0xc3b
 1364 0a38 10       		.byte	0x10
 1365 0a39 0B       		.uleb128 0xb
 1366 0a3a 9A000000 		.4byte	.LASF141
 1367 0a3e 08       		.byte	0x8
 1368 0a3f BB       		.byte	0xbb
ARM GAS  /tmp/ccGUgTIG.s 			page 25


 1369 0a40 22       		.byte	0x22
 1370 0a41 A7110000 		.4byte	0x11a7
 1371 0a45 18       		.byte	0x18
 1372 0a46 0B       		.uleb128 0xb
 1373 0a47 D10D0000 		.4byte	.LASF142
 1374 0a4b 08       		.byte	0x8
 1375 0a4c C0       		.byte	0xc0
 1376 0a4d 22       		.byte	0x22
 1377 0a4e E4050000 		.4byte	0x5e4
 1378 0a52 1C       		.byte	0x1c
 1379 0a53 0B       		.uleb128 0xb
 1380 0a54 1E0D0000 		.4byte	.LASF143
 1381 0a58 08       		.byte	0x8
 1382 0a59 C9       		.byte	0xc9
 1383 0a5a 22       		.byte	0x22
 1384 0a5b AD110000 		.4byte	0x11ad
 1385 0a5f 20       		.byte	0x20
 1386 0a60 0B       		.uleb128 0xb
 1387 0a61 99010000 		.4byte	.LASF144
 1388 0a65 08       		.byte	0x8
 1389 0a66 CE       		.byte	0xce
 1390 0a67 21       		.byte	0x21
 1391 0a68 99090000 		.4byte	0x999
 1392 0a6c 24       		.byte	0x24
 1393 0a6d 0B       		.uleb128 0xb
 1394 0a6e 54050000 		.4byte	.LASF145
 1395 0a72 08       		.byte	0x8
 1396 0a73 D2       		.byte	0xd2
 1397 0a74 21       		.byte	0x21
 1398 0a75 8D090000 		.4byte	0x98d
 1399 0a79 25       		.byte	0x25
 1400 0a7a 0B       		.uleb128 0xb
 1401 0a7b 78090000 		.4byte	.LASF146
 1402 0a7f 08       		.byte	0x8
 1403 0a80 D7       		.byte	0xd7
 1404 0a81 21       		.byte	0x21
 1405 0a82 A5090000 		.4byte	0x9a5
 1406 0a86 26       		.byte	0x26
 1407 0a87 21       		.uleb128 0x21
 1408 0a88 7500     		.ascii	"u\000"
 1409 0a8a 08       		.byte	0x8
 1410 0a8b 2801     		.2byte	0x128
 1411 0a8d 21       		.byte	0x21
 1412 0a8e C8100000 		.4byte	0x10c8
 1413 0a92 28       		.byte	0x28
 1414 0a93 17       		.uleb128 0x17
 1415 0a94 280F0000 		.4byte	.LASF147
 1416 0a98 08       		.byte	0x8
 1417 0a99 2D01     		.2byte	0x12d
 1418 0a9b 21       		.byte	0x21
 1419 0a9c 0E0C0000 		.4byte	0xc0e
 1420 0aa0 2C       		.byte	0x2c
 1421 0aa1 17       		.uleb128 0x17
 1422 0aa2 A60E0000 		.4byte	.LASF148
 1423 0aa6 08       		.byte	0x8
 1424 0aa7 3301     		.2byte	0x133
 1425 0aa9 21       		.byte	0x21
ARM GAS  /tmp/ccGUgTIG.s 			page 26


 1426 0aaa 3B0C0000 		.4byte	0xc3b
 1427 0aae 30       		.byte	0x30
 1428 0aaf 17       		.uleb128 0x17
 1429 0ab0 13030000 		.4byte	.LASF149
 1430 0ab4 08       		.byte	0x8
 1431 0ab5 3901     		.2byte	0x139
 1432 0ab7 21       		.byte	0x21
 1433 0ab8 C9090000 		.4byte	0x9c9
 1434 0abc 38       		.byte	0x38
 1435 0abd 17       		.uleb128 0x17
 1436 0abe 44080000 		.4byte	.LASF150
 1437 0ac2 08       		.byte	0x8
 1438 0ac3 4001     		.2byte	0x140
 1439 0ac5 22       		.byte	0x22
 1440 0ac6 A1110000 		.4byte	0x11a1
 1441 0aca 3C       		.byte	0x3c
 1442 0acb 17       		.uleb128 0x17
 1443 0acc 93070000 		.4byte	.LASF151
 1444 0ad0 08       		.byte	0x8
 1445 0ad1 4401     		.2byte	0x144
 1446 0ad3 21       		.byte	0x21
 1447 0ad4 B1090000 		.4byte	0x9b1
 1448 0ad8 40       		.byte	0x40
 1449 0ad9 17       		.uleb128 0x17
 1450 0ada 6D050000 		.4byte	.LASF152
 1451 0ade 08       		.byte	0x8
 1452 0adf 4B01     		.2byte	0x14b
 1453 0ae1 22       		.byte	0x22
 1454 0ae2 FD000000 		.4byte	0xfd
 1455 0ae6 44       		.byte	0x44
 1456 0ae7 00       		.byte	0
 1457 0ae8 03       		.uleb128 0x3
 1458 0ae9 6A090000 		.4byte	.LASF153
 1459 0aed 07       		.byte	0x7
 1460 0aee 8A       		.byte	0x8a
 1461 0aef 1F       		.byte	0x1f
 1462 0af0 F40A0000 		.4byte	0xaf4
 1463 0af4 16       		.uleb128 0x16
 1464 0af5 2E060000 		.4byte	.LASF154
 1465 0af9 9808     		.2byte	0x898
 1466 0afb 08       		.byte	0x8
 1467 0afc 8A01     		.2byte	0x18a
 1468 0afe 08       		.byte	0x8
 1469 0aff 820B0000 		.4byte	0xb82
 1470 0b03 17       		.uleb128 0x17
 1471 0b04 5F0D0000 		.4byte	.LASF155
 1472 0b08 08       		.byte	0x8
 1473 0b09 8E01     		.2byte	0x18e
 1474 0b0b 21       		.byte	0x21
 1475 0b0c DE110000 		.4byte	0x11de
 1476 0b10 00       		.byte	0
 1477 0b11 17       		.uleb128 0x17
 1478 0b12 170F0000 		.4byte	.LASF156
 1479 0b16 08       		.byte	0x8
 1480 0b17 9201     		.2byte	0x192
 1481 0b19 21       		.byte	0x21
 1482 0b1a 34100000 		.4byte	0x1034
ARM GAS  /tmp/ccGUgTIG.s 			page 27


 1483 0b1e 10       		.byte	0x10
 1484 0b1f 17       		.uleb128 0x17
 1485 0b20 57030000 		.4byte	.LASF157
 1486 0b24 08       		.byte	0x8
 1487 0b25 9901     		.2byte	0x199
 1488 0b27 21       		.byte	0x21
 1489 0b28 5B100000 		.4byte	0x105b
 1490 0b2c 28       		.byte	0x28
 1491 0b2d 17       		.uleb128 0x17
 1492 0b2e 65050000 		.4byte	.LASF158
 1493 0b32 08       		.byte	0x8
 1494 0b33 9E01     		.2byte	0x19e
 1495 0b35 21       		.byte	0x21
 1496 0b36 ED090000 		.4byte	0x9ed
 1497 0b3a 30       		.byte	0x30
 1498 0b3b 17       		.uleb128 0x17
 1499 0b3c A10E0000 		.4byte	.LASF159
 1500 0b40 08       		.byte	0x8
 1501 0b41 A401     		.2byte	0x1a4
 1502 0b43 21       		.byte	0x21
 1503 0b44 A90B0000 		.4byte	0xba9
 1504 0b48 34       		.byte	0x34
 1505 0b49 17       		.uleb128 0x17
 1506 0b4a 92010000 		.4byte	.LASF160
 1507 0b4e 08       		.byte	0x8
 1508 0b4f A901     		.2byte	0x1a9
 1509 0b51 22       		.byte	0x22
 1510 0b52 52120000 		.4byte	0x1252
 1511 0b56 38       		.byte	0x38
 1512 0b57 17       		.uleb128 0x17
 1513 0b58 A80C0000 		.4byte	.LASF161
 1514 0b5c 08       		.byte	0x8
 1515 0b5d AD01     		.2byte	0x1ad
 1516 0b5f 21       		.byte	0x21
 1517 0b60 F9090000 		.4byte	0x9f9
 1518 0b64 3C       		.byte	0x3c
 1519 0b65 21       		.uleb128 0x21
 1520 0b66 64626700 		.ascii	"dbg\000"
 1521 0b6a 08       		.byte	0x8
 1522 0b6b B101     		.2byte	0x1b1
 1523 0b6d 21       		.byte	0x21
 1524 0b6e EA0B0000 		.4byte	0xbea
 1525 0b72 84       		.byte	0x84
 1526 0b73 17       		.uleb128 0x17
 1527 0b74 DE050000 		.4byte	.LASF162
 1528 0b78 08       		.byte	0x8
 1529 0b79 B601     		.2byte	0x1b6
 1530 0b7b 21       		.byte	0x21
 1531 0b7c 9A0E0000 		.4byte	0xe9a
 1532 0b80 90       		.byte	0x90
 1533 0b81 00       		.byte	0
 1534 0b82 03       		.uleb128 0x3
 1535 0b83 F3060000 		.4byte	.LASF163
 1536 0b87 09       		.byte	0x9
 1537 0b88 3F       		.byte	0x3f
 1538 0b89 12       		.byte	0x12
 1539 0b8a 40090000 		.4byte	0x940
ARM GAS  /tmp/ccGUgTIG.s 			page 28


 1540 0b8e 0D       		.uleb128 0xd
 1541 0b8f AE010000 		.4byte	.LASF164
 1542 0b93 04       		.byte	0x4
 1543 0b94 09       		.byte	0x9
 1544 0b95 44       		.byte	0x44
 1545 0b96 10       		.byte	0x10
 1546 0b97 A90B0000 		.4byte	0xba9
 1547 0b9b 0B       		.uleb128 0xb
 1548 0b9c EE080000 		.4byte	.LASF165
 1549 0ba0 09       		.byte	0x9
 1550 0ba1 48       		.byte	0x48
 1551 0ba2 21       		.byte	0x21
 1552 0ba3 820B0000 		.4byte	0xb82
 1553 0ba7 00       		.byte	0
 1554 0ba8 00       		.byte	0
 1555 0ba9 03       		.uleb128 0x3
 1556 0baa DB070000 		.4byte	.LASF166
 1557 0bae 09       		.byte	0x9
 1558 0baf 49       		.byte	0x49
 1559 0bb0 03       		.byte	0x3
 1560 0bb1 8E0B0000 		.4byte	0xb8e
 1561 0bb5 0D       		.uleb128 0xd
 1562 0bb6 D40E0000 		.4byte	.LASF167
 1563 0bba 0C       		.byte	0xc
 1564 0bbb 0A       		.byte	0xa
 1565 0bbc 3E       		.byte	0x3e
 1566 0bbd 10       		.byte	0x10
 1567 0bbe EA0B0000 		.4byte	0xbea
 1568 0bc2 0B       		.uleb128 0xb
 1569 0bc3 71040000 		.4byte	.LASF168
 1570 0bc7 0A       		.byte	0xa
 1571 0bc8 46       		.byte	0x46
 1572 0bc9 24       		.byte	0x24
 1573 0bca EA050000 		.4byte	0x5ea
 1574 0bce 00       		.byte	0
 1575 0bcf 0B       		.uleb128 0xb
 1576 0bd0 490B0000 		.4byte	.LASF169
 1577 0bd4 0A       		.byte	0xa
 1578 0bd5 4B       		.byte	0x4b
 1579 0bd6 19       		.byte	0x19
 1580 0bd7 D5090000 		.4byte	0x9d5
 1581 0bdb 04       		.byte	0x4
 1582 0bdc 0B       		.uleb128 0xb
 1583 0bdd A5010000 		.4byte	.LASF170
 1584 0be1 0A       		.byte	0xa
 1585 0be2 4F       		.byte	0x4f
 1586 0be3 19       		.byte	0x19
 1587 0be4 D5090000 		.4byte	0x9d5
 1588 0be8 08       		.byte	0x8
 1589 0be9 00       		.byte	0
 1590 0bea 03       		.uleb128 0x3
 1591 0beb D4040000 		.4byte	.LASF171
 1592 0bef 0A       		.byte	0xa
 1593 0bf0 51       		.byte	0x51
 1594 0bf1 03       		.byte	0x3
 1595 0bf2 B50B0000 		.4byte	0xbb5
 1596 0bf6 03       		.uleb128 0x3
ARM GAS  /tmp/ccGUgTIG.s 			page 29


 1597 0bf7 75000000 		.4byte	.LASF172
 1598 0bfb 0B       		.byte	0xb
 1599 0bfc 6D       		.byte	0x6d
 1600 0bfd 12       		.byte	0x12
 1601 0bfe 40090000 		.4byte	0x940
 1602 0c02 03       		.uleb128 0x3
 1603 0c03 67080000 		.4byte	.LASF173
 1604 0c07 0B       		.byte	0xb
 1605 0c08 79       		.byte	0x79
 1606 0c09 12       		.byte	0x12
 1607 0c0a 40090000 		.4byte	0x940
 1608 0c0e 03       		.uleb128 0x3
 1609 0c0f 2C030000 		.4byte	.LASF174
 1610 0c13 0C       		.byte	0xc
 1611 0c14 32       		.byte	0x32
 1612 0c15 18       		.byte	0x18
 1613 0c16 1A0C0000 		.4byte	0xc1a
 1614 0c1a 0D       		.uleb128 0xd
 1615 0c1b 45030000 		.4byte	.LASF175
 1616 0c1f 04       		.byte	0x4
 1617 0c20 0C       		.byte	0xc
 1618 0c21 38       		.byte	0x38
 1619 0c22 08       		.byte	0x8
 1620 0c23 350C0000 		.4byte	0xc35
 1621 0c27 0B       		.uleb128 0xb
 1622 0c28 8C110000 		.4byte	.LASF176
 1623 0c2c 0C       		.byte	0xc
 1624 0c2d 39       		.byte	0x39
 1625 0c2e 1A       		.byte	0x1a
 1626 0c2f 350C0000 		.4byte	0xc35
 1627 0c33 00       		.byte	0
 1628 0c34 00       		.byte	0
 1629 0c35 0F       		.uleb128 0xf
 1630 0c36 04       		.byte	0x4
 1631 0c37 0E0C0000 		.4byte	0xc0e
 1632 0c3b 03       		.uleb128 0x3
 1633 0c3c DD060000 		.4byte	.LASF177
 1634 0c40 0C       		.byte	0xc
 1635 0c41 3F       		.byte	0x3f
 1636 0c42 19       		.byte	0x19
 1637 0c43 470C0000 		.4byte	0xc47
 1638 0c47 0D       		.uleb128 0xd
 1639 0c48 F90E0000 		.4byte	.LASF178
 1640 0c4c 08       		.byte	0x8
 1641 0c4d 0C       		.byte	0xc
 1642 0c4e 45       		.byte	0x45
 1643 0c4f 08       		.byte	0x8
 1644 0c50 6F0C0000 		.4byte	0xc6f
 1645 0c54 0B       		.uleb128 0xb
 1646 0c55 8C110000 		.4byte	.LASF176
 1647 0c59 0C       		.byte	0xc
 1648 0c5a 46       		.byte	0x46
 1649 0c5b 1A       		.byte	0x1a
 1650 0c5c 6F0C0000 		.4byte	0xc6f
 1651 0c60 00       		.byte	0
 1652 0c61 0B       		.uleb128 0xb
 1653 0c62 34110000 		.4byte	.LASF179
ARM GAS  /tmp/ccGUgTIG.s 			page 30


 1654 0c66 0C       		.byte	0xc
 1655 0c67 47       		.byte	0x47
 1656 0c68 1A       		.byte	0x1a
 1657 0c69 6F0C0000 		.4byte	0xc6f
 1658 0c6d 04       		.byte	0x4
 1659 0c6e 00       		.byte	0
 1660 0c6f 0F       		.uleb128 0xf
 1661 0c70 04       		.byte	0x4
 1662 0c71 3B0C0000 		.4byte	0xc3b
 1663 0c75 03       		.uleb128 0x3
 1664 0c76 8F080000 		.4byte	.LASF180
 1665 0c7a 0C       		.byte	0xc
 1666 0c7b 4E       		.byte	0x4e
 1667 0c7c 22       		.byte	0x22
 1668 0c7d 810C0000 		.4byte	0xc81
 1669 0c81 0D       		.uleb128 0xd
 1670 0c82 7D0E0000 		.4byte	.LASF181
 1671 0c86 0C       		.byte	0xc
 1672 0c87 0C       		.byte	0xc
 1673 0c88 55       		.byte	0x55
 1674 0c89 08       		.byte	0x8
 1675 0c8a B60C0000 		.4byte	0xcb6
 1676 0c8e 0B       		.uleb128 0xb
 1677 0c8f 8C110000 		.4byte	.LASF176
 1678 0c93 0C       		.byte	0xc
 1679 0c94 56       		.byte	0x56
 1680 0c95 1A       		.byte	0x1a
 1681 0c96 B60C0000 		.4byte	0xcb6
 1682 0c9a 00       		.byte	0
 1683 0c9b 0B       		.uleb128 0xb
 1684 0c9c 34110000 		.4byte	.LASF179
 1685 0ca0 0C       		.byte	0xc
 1686 0ca1 57       		.byte	0x57
 1687 0ca2 1A       		.byte	0x1a
 1688 0ca3 B60C0000 		.4byte	0xcb6
 1689 0ca7 04       		.byte	0x4
 1690 0ca8 0B       		.uleb128 0xb
 1691 0ca9 07020000 		.4byte	.LASF182
 1692 0cad 0C       		.byte	0xc
 1693 0cae 58       		.byte	0x58
 1694 0caf 19       		.byte	0x19
 1695 0cb0 B1090000 		.4byte	0x9b1
 1696 0cb4 08       		.byte	0x8
 1697 0cb5 00       		.byte	0
 1698 0cb6 0F       		.uleb128 0xf
 1699 0cb7 04       		.byte	0x4
 1700 0cb8 750C0000 		.4byte	0xc75
 1701 0cbc 03       		.uleb128 0x3
 1702 0cbd 08000000 		.4byte	.LASF183
 1703 0cc1 0C       		.byte	0xc
 1704 0cc2 5F       		.byte	0x5f
 1705 0cc3 1E       		.byte	0x1e
 1706 0cc4 C80C0000 		.4byte	0xcc8
 1707 0cc8 0D       		.uleb128 0xd
 1708 0cc9 640A0000 		.4byte	.LASF184
 1709 0ccd 0C       		.byte	0xc
 1710 0cce 0C       		.byte	0xc
ARM GAS  /tmp/ccGUgTIG.s 			page 31


 1711 0ccf 64       		.byte	0x64
 1712 0cd0 08       		.byte	0x8
 1713 0cd1 FD0C0000 		.4byte	0xcfd
 1714 0cd5 0B       		.uleb128 0xb
 1715 0cd6 8C110000 		.4byte	.LASF176
 1716 0cda 0C       		.byte	0xc
 1717 0cdb 65       		.byte	0x65
 1718 0cdc 1A       		.byte	0x1a
 1719 0cdd FD0C0000 		.4byte	0xcfd
 1720 0ce1 00       		.byte	0
 1721 0ce2 0B       		.uleb128 0xb
 1722 0ce3 34110000 		.4byte	.LASF179
 1723 0ce7 0C       		.byte	0xc
 1724 0ce8 66       		.byte	0x66
 1725 0ce9 1A       		.byte	0x1a
 1726 0cea FD0C0000 		.4byte	0xcfd
 1727 0cee 04       		.byte	0x4
 1728 0cef 0B       		.uleb128 0xb
 1729 0cf0 410C0000 		.4byte	.LASF185
 1730 0cf4 0C       		.byte	0xc
 1731 0cf5 67       		.byte	0x67
 1732 0cf6 19       		.byte	0x19
 1733 0cf7 020C0000 		.4byte	0xc02
 1734 0cfb 08       		.byte	0x8
 1735 0cfc 00       		.byte	0
 1736 0cfd 0F       		.uleb128 0xf
 1737 0cfe 04       		.byte	0x4
 1738 0cff BC0C0000 		.4byte	0xcbc
 1739 0d03 0A       		.uleb128 0xa
 1740 0d04 08       		.byte	0x8
 1741 0d05 0D       		.byte	0xd
 1742 0d06 83       		.byte	0x83
 1743 0d07 05       		.byte	0x5
 1744 0d08 270D0000 		.4byte	0xd27
 1745 0d0c 0E       		.uleb128 0xe
 1746 0d0d 6E747000 		.ascii	"ntp\000"
 1747 0d11 0D       		.byte	0xd
 1748 0d12 87       		.byte	0x87
 1749 0d13 1E       		.byte	0x1e
 1750 0d14 270D0000 		.4byte	0xd27
 1751 0d18 00       		.byte	0
 1752 0d19 0B       		.uleb128 0xb
 1753 0d1a 3D050000 		.4byte	.LASF186
 1754 0d1e 0D       		.byte	0xd
 1755 0d1f 8B       		.byte	0x8b
 1756 0d20 1E       		.byte	0x1e
 1757 0d21 FD000000 		.4byte	0xfd
 1758 0d25 04       		.byte	0x4
 1759 0d26 00       		.byte	0
 1760 0d27 0F       		.uleb128 0xf
 1761 0d28 04       		.byte	0x4
 1762 0d29 F9090000 		.4byte	0x9f9
 1763 0d2d 0A       		.uleb128 0xa
 1764 0d2e 08       		.byte	0x8
 1765 0d2f 0D       		.byte	0xd
 1766 0d30 90       		.byte	0x90
 1767 0d31 05       		.byte	0x5
ARM GAS  /tmp/ccGUgTIG.s 			page 32


 1768 0d32 500D0000 		.4byte	0xd50
 1769 0d36 0E       		.uleb128 0xe
 1770 0d37 747000   		.ascii	"tp\000"
 1771 0d3a 0D       		.byte	0xd
 1772 0d3b 94       		.byte	0x94
 1773 0d3c 1E       		.byte	0x1e
 1774 0d3d 270D0000 		.4byte	0xd27
 1775 0d41 00       		.byte	0
 1776 0d42 0E       		.uleb128 0xe
 1777 0d43 6D736700 		.ascii	"msg\000"
 1778 0d47 0D       		.byte	0xd
 1779 0d48 98       		.byte	0x98
 1780 0d49 1D       		.byte	0x1d
 1781 0d4a BD090000 		.4byte	0x9bd
 1782 0d4e 04       		.byte	0x4
 1783 0d4f 00       		.byte	0
 1784 0d50 0A       		.uleb128 0xa
 1785 0d51 04       		.byte	0x4
 1786 0d52 0D       		.byte	0xd
 1787 0d53 9D       		.byte	0x9d
 1788 0d54 05       		.byte	0x5
 1789 0d55 670D0000 		.4byte	0xd67
 1790 0d59 0B       		.uleb128 0xb
 1791 0d5a D10D0000 		.4byte	.LASF142
 1792 0d5e 0D       		.byte	0xd
 1793 0d5f A1       		.byte	0xa1
 1794 0d60 1E       		.byte	0x1e
 1795 0d61 E4050000 		.4byte	0x5e4
 1796 0d65 00       		.byte	0
 1797 0d66 00       		.byte	0
 1798 0d67 0A       		.uleb128 0xa
 1799 0d68 04       		.byte	0x4
 1800 0d69 0D       		.byte	0xd
 1801 0d6a A6       		.byte	0xa6
 1802 0d6b 05       		.byte	0x5
 1803 0d6c 7E0D0000 		.4byte	0xd7e
 1804 0d70 0B       		.uleb128 0xb
 1805 0d71 6C0C0000 		.4byte	.LASF187
 1806 0d75 0D       		.byte	0xd
 1807 0d76 AA       		.byte	0xaa
 1808 0d77 1E       		.byte	0x1e
 1809 0d78 E4050000 		.4byte	0x5e4
 1810 0d7c 00       		.byte	0
 1811 0d7d 00       		.byte	0
 1812 0d7e 0A       		.uleb128 0xa
 1813 0d7f 08       		.byte	0x8
 1814 0d80 0D       		.byte	0xd
 1815 0d81 AF       		.byte	0xaf
 1816 0d82 05       		.byte	0x5
 1817 0d83 A20D0000 		.4byte	0xda2
 1818 0d87 0E       		.uleb128 0xe
 1819 0d88 75703100 		.ascii	"up1\000"
 1820 0d8c 0D       		.byte	0xd
 1821 0d8d B3       		.byte	0xb3
 1822 0d8e 1E       		.byte	0x1e
 1823 0d8f FD000000 		.4byte	0xfd
 1824 0d93 00       		.byte	0
ARM GAS  /tmp/ccGUgTIG.s 			page 33


 1825 0d94 0E       		.uleb128 0xe
 1826 0d95 75703200 		.ascii	"up2\000"
 1827 0d99 0D       		.byte	0xd
 1828 0d9a B7       		.byte	0xb7
 1829 0d9b 1E       		.byte	0x1e
 1830 0d9c FD000000 		.4byte	0xfd
 1831 0da0 04       		.byte	0x4
 1832 0da1 00       		.byte	0
 1833 0da2 06       		.uleb128 0x6
 1834 0da3 08       		.byte	0x8
 1835 0da4 0D       		.byte	0xd
 1836 0da5 7F       		.byte	0x7f
 1837 0da6 03       		.byte	0x3
 1838 0da7 E70D0000 		.4byte	0xde7
 1839 0dab 22       		.uleb128 0x22
 1840 0dac 737700   		.ascii	"sw\000"
 1841 0daf 0D       		.byte	0xd
 1842 0db0 8C       		.byte	0x8c
 1843 0db1 07       		.byte	0x7
 1844 0db2 030D0000 		.4byte	0xd03
 1845 0db6 22       		.uleb128 0x22
 1846 0db7 72647900 		.ascii	"rdy\000"
 1847 0dbb 0D       		.byte	0xd
 1848 0dbc 99       		.byte	0x99
 1849 0dbd 07       		.byte	0x7
 1850 0dbe 2D0D0000 		.4byte	0xd2d
 1851 0dc2 22       		.uleb128 0x22
 1852 0dc3 69737200 		.ascii	"isr\000"
 1853 0dc7 0D       		.byte	0xd
 1854 0dc8 A2       		.byte	0xa2
 1855 0dc9 07       		.byte	0x7
 1856 0dca 500D0000 		.4byte	0xd50
 1857 0dce 07       		.uleb128 0x7
 1858 0dcf CB0C0000 		.4byte	.LASF188
 1859 0dd3 0D       		.byte	0xd
 1860 0dd4 AB       		.byte	0xab
 1861 0dd5 07       		.byte	0x7
 1862 0dd6 670D0000 		.4byte	0xd67
 1863 0dda 07       		.uleb128 0x7
 1864 0ddb CF000000 		.4byte	.LASF189
 1865 0ddf 0D       		.byte	0xd
 1866 0de0 B8       		.byte	0xb8
 1867 0de1 07       		.byte	0x7
 1868 0de2 7E0D0000 		.4byte	0xd7e
 1869 0de6 00       		.byte	0
 1870 0de7 0A       		.uleb128 0xa
 1871 0de8 10       		.byte	0x10
 1872 0de9 0D       		.byte	0xd
 1873 0dea 6C       		.byte	0x6c
 1874 0deb 09       		.byte	0x9
 1875 0dec 390E0000 		.4byte	0xe39
 1876 0df0 23       		.uleb128 0x23
 1877 0df1 C3010000 		.4byte	.LASF190
 1878 0df5 0D       		.byte	0xd
 1879 0df6 70       		.byte	0x70
 1880 0df7 19       		.byte	0x19
 1881 0df8 40090000 		.4byte	0x940
ARM GAS  /tmp/ccGUgTIG.s 			page 34


 1882 0dfc 04       		.byte	0x4
 1883 0dfd 03       		.byte	0x3
 1884 0dfe 1D       		.byte	0x1d
 1885 0dff 00       		.byte	0
 1886 0e00 23       		.uleb128 0x23
 1887 0e01 99010000 		.4byte	.LASF144
 1888 0e05 0D       		.byte	0xd
 1889 0e06 74       		.byte	0x74
 1890 0e07 19       		.byte	0x19
 1891 0e08 40090000 		.4byte	0x940
 1892 0e0c 04       		.byte	0x4
 1893 0e0d 05       		.byte	0x5
 1894 0e0e 18       		.byte	0x18
 1895 0e0f 00       		.byte	0
 1896 0e10 23       		.uleb128 0x23
 1897 0e11 79010000 		.4byte	.LASF191
 1898 0e15 0D       		.byte	0xd
 1899 0e16 7A       		.byte	0x7a
 1900 0e17 19       		.byte	0x19
 1901 0e18 40090000 		.4byte	0x940
 1902 0e1c 04       		.byte	0x4
 1903 0e1d 18       		.byte	0x18
 1904 0e1e 00       		.byte	0
 1905 0e1f 00       		.byte	0
 1906 0e20 0B       		.uleb128 0xb
 1907 0e21 4F110000 		.4byte	.LASF192
 1908 0e25 0D       		.byte	0xd
 1909 0e26 7E       		.byte	0x7e
 1910 0e27 19       		.byte	0x19
 1911 0e28 F60B0000 		.4byte	0xbf6
 1912 0e2c 04       		.byte	0x4
 1913 0e2d 0E       		.uleb128 0xe
 1914 0e2e 7500     		.ascii	"u\000"
 1915 0e30 0D       		.byte	0xd
 1916 0e31 B9       		.byte	0xb9
 1917 0e32 05       		.byte	0x5
 1918 0e33 A20D0000 		.4byte	0xda2
 1919 0e37 08       		.byte	0x8
 1920 0e38 00       		.byte	0
 1921 0e39 03       		.uleb128 0x3
 1922 0e3a F20A0000 		.4byte	.LASF193
 1923 0e3e 0D       		.byte	0xd
 1924 0e3f BA       		.byte	0xba
 1925 0e40 03       		.byte	0x3
 1926 0e41 E70D0000 		.4byte	0xde7
 1927 0e45 24       		.uleb128 0x24
 1928 0e46 0808     		.2byte	0x808
 1929 0e48 0D       		.byte	0xd
 1930 0e49 C0       		.byte	0xc0
 1931 0e4a 09       		.byte	0x9
 1932 0e4b 840E0000 		.4byte	0xe84
 1933 0e4f 0B       		.uleb128 0xb
 1934 0e50 A50D0000 		.4byte	.LASF194
 1935 0e54 0D       		.byte	0xd
 1936 0e55 C4       		.byte	0xc4
 1937 0e56 19       		.byte	0x19
 1938 0e57 34090000 		.4byte	0x934
ARM GAS  /tmp/ccGUgTIG.s 			page 35


 1939 0e5b 00       		.byte	0
 1940 0e5c 0B       		.uleb128 0xb
 1941 0e5d C90B0000 		.4byte	.LASF195
 1942 0e61 0D       		.byte	0xd
 1943 0e62 C8       		.byte	0xc8
 1944 0e63 19       		.byte	0x19
 1945 0e64 34090000 		.4byte	0x934
 1946 0e68 02       		.byte	0x2
 1947 0e69 0E       		.uleb128 0xe
 1948 0e6a 70747200 		.ascii	"ptr\000"
 1949 0e6e 0D       		.byte	0xd
 1950 0e6f CC       		.byte	0xcc
 1951 0e70 1A       		.byte	0x1a
 1952 0e71 840E0000 		.4byte	0xe84
 1953 0e75 04       		.byte	0x4
 1954 0e76 0B       		.uleb128 0xb
 1955 0e77 F5050000 		.4byte	.LASF196
 1956 0e7b 0D       		.byte	0xd
 1957 0e7c D0       		.byte	0xd0
 1958 0e7d 19       		.byte	0x19
 1959 0e7e 8A0E0000 		.4byte	0xe8a
 1960 0e82 08       		.byte	0x8
 1961 0e83 00       		.byte	0
 1962 0e84 0F       		.uleb128 0xf
 1963 0e85 04       		.byte	0x4
 1964 0e86 390E0000 		.4byte	0xe39
 1965 0e8a 08       		.uleb128 0x8
 1966 0e8b 390E0000 		.4byte	0xe39
 1967 0e8f 9A0E0000 		.4byte	0xe9a
 1968 0e93 09       		.uleb128 0x9
 1969 0e94 30000000 		.4byte	0x30
 1970 0e98 7F       		.byte	0x7f
 1971 0e99 00       		.byte	0
 1972 0e9a 03       		.uleb128 0x3
 1973 0e9b 12080000 		.4byte	.LASF197
 1974 0e9f 0D       		.byte	0xd
 1975 0ea0 D1       		.byte	0xd1
 1976 0ea1 03       		.byte	0x3
 1977 0ea2 450E0000 		.4byte	0xe45
 1978 0ea6 20       		.uleb128 0x20
 1979 0ea7 0F090000 		.4byte	.LASF198
 1980 0eab 0E       		.byte	0xe
 1981 0eac 0408     		.2byte	0x804
 1982 0eae 19       		.byte	0x19
 1983 0eaf 1E090000 		.4byte	0x91e
 1984 0eb3 25       		.uleb128 0x25
 1985 0eb4 1A070000 		.4byte	.LASF199
 1986 0eb8 0F       		.byte	0xf
 1987 0eb9 4A       		.byte	0x4a
 1988 0eba 11       		.byte	0x11
 1989 0ebb 40090000 		.4byte	0x940
 1990 0ebf 08       		.uleb128 0x8
 1991 0ec0 2F090000 		.4byte	0x92f
 1992 0ec4 CF0E0000 		.4byte	0xecf
 1993 0ec8 09       		.uleb128 0x9
 1994 0ec9 30000000 		.4byte	0x30
 1995 0ecd 0F       		.byte	0xf
ARM GAS  /tmp/ccGUgTIG.s 			page 36


 1996 0ece 00       		.byte	0
 1997 0ecf 15       		.uleb128 0x15
 1998 0ed0 BF0E0000 		.4byte	0xebf
 1999 0ed4 25       		.uleb128 0x25
 2000 0ed5 810B0000 		.4byte	.LASF200
 2001 0ed9 0F       		.byte	0xf
 2002 0eda 4B       		.byte	0x4b
 2003 0edb 16       		.byte	0x16
 2004 0edc CF0E0000 		.4byte	0xecf
 2005 0ee0 08       		.uleb128 0x8
 2006 0ee1 2F090000 		.4byte	0x92f
 2007 0ee5 F00E0000 		.4byte	0xef0
 2008 0ee9 09       		.uleb128 0x9
 2009 0eea 30000000 		.4byte	0x30
 2010 0eee 07       		.byte	0x7
 2011 0eef 00       		.byte	0
 2012 0ef0 15       		.uleb128 0x15
 2013 0ef1 E00E0000 		.4byte	0xee0
 2014 0ef5 25       		.uleb128 0x25
 2015 0ef6 E60D0000 		.4byte	.LASF201
 2016 0efa 0F       		.byte	0xf
 2017 0efb 4C       		.byte	0x4c
 2018 0efc 16       		.byte	0x16
 2019 0efd F00E0000 		.4byte	0xef0
 2020 0f01 1A       		.uleb128 0x1a
 2021 0f02 160B0000 		.4byte	.LASF202
 2022 0f06 24       		.byte	0x24
 2023 0f07 10       		.byte	0x10
 2024 0f08 E001     		.2byte	0x1e0
 2025 0f0a 08       		.byte	0x8
 2026 0f0b 870F0000 		.4byte	0xf87
 2027 0f0f 21       		.uleb128 0x21
 2028 0f10 723400   		.ascii	"r4\000"
 2029 0f13 10       		.byte	0x10
 2030 0f14 F901     		.2byte	0x1f9
 2031 0f16 11       		.byte	0x11
 2032 0f17 40090000 		.4byte	0x940
 2033 0f1b 00       		.byte	0
 2034 0f1c 21       		.uleb128 0x21
 2035 0f1d 723500   		.ascii	"r5\000"
 2036 0f20 10       		.byte	0x10
 2037 0f21 FA01     		.2byte	0x1fa
 2038 0f23 11       		.byte	0x11
 2039 0f24 40090000 		.4byte	0x940
 2040 0f28 04       		.byte	0x4
 2041 0f29 21       		.uleb128 0x21
 2042 0f2a 723600   		.ascii	"r6\000"
 2043 0f2d 10       		.byte	0x10
 2044 0f2e FB01     		.2byte	0x1fb
 2045 0f30 11       		.byte	0x11
 2046 0f31 40090000 		.4byte	0x940
 2047 0f35 08       		.byte	0x8
 2048 0f36 21       		.uleb128 0x21
 2049 0f37 723700   		.ascii	"r7\000"
 2050 0f3a 10       		.byte	0x10
 2051 0f3b FC01     		.2byte	0x1fc
 2052 0f3d 11       		.byte	0x11
ARM GAS  /tmp/ccGUgTIG.s 			page 37


 2053 0f3e 40090000 		.4byte	0x940
 2054 0f42 0C       		.byte	0xc
 2055 0f43 21       		.uleb128 0x21
 2056 0f44 723800   		.ascii	"r8\000"
 2057 0f47 10       		.byte	0x10
 2058 0f48 FD01     		.2byte	0x1fd
 2059 0f4a 11       		.byte	0x11
 2060 0f4b 40090000 		.4byte	0x940
 2061 0f4f 10       		.byte	0x10
 2062 0f50 21       		.uleb128 0x21
 2063 0f51 723900   		.ascii	"r9\000"
 2064 0f54 10       		.byte	0x10
 2065 0f55 FE01     		.2byte	0x1fe
 2066 0f57 11       		.byte	0x11
 2067 0f58 40090000 		.4byte	0x940
 2068 0f5c 14       		.byte	0x14
 2069 0f5d 21       		.uleb128 0x21
 2070 0f5e 72313000 		.ascii	"r10\000"
 2071 0f62 10       		.byte	0x10
 2072 0f63 FF01     		.2byte	0x1ff
 2073 0f65 11       		.byte	0x11
 2074 0f66 40090000 		.4byte	0x940
 2075 0f6a 18       		.byte	0x18
 2076 0f6b 21       		.uleb128 0x21
 2077 0f6c 72313100 		.ascii	"r11\000"
 2078 0f70 10       		.byte	0x10
 2079 0f71 0002     		.2byte	0x200
 2080 0f73 11       		.byte	0x11
 2081 0f74 40090000 		.4byte	0x940
 2082 0f78 1C       		.byte	0x1c
 2083 0f79 21       		.uleb128 0x21
 2084 0f7a 6C7200   		.ascii	"lr\000"
 2085 0f7d 10       		.byte	0x10
 2086 0f7e 0102     		.2byte	0x201
 2087 0f80 11       		.byte	0x11
 2088 0f81 40090000 		.4byte	0x940
 2089 0f85 20       		.byte	0x20
 2090 0f86 00       		.byte	0
 2091 0f87 1A       		.uleb128 0x1a
 2092 0f88 A30F0000 		.4byte	.LASF203
 2093 0f8c 04       		.byte	0x4
 2094 0f8d 10       		.byte	0x10
 2095 0f8e 0A02     		.2byte	0x20a
 2096 0f90 08       		.byte	0x8
 2097 0f91 A30F0000 		.4byte	0xfa3
 2098 0f95 21       		.uleb128 0x21
 2099 0f96 737000   		.ascii	"sp\000"
 2100 0f99 10       		.byte	0x10
 2101 0f9a 0B02     		.2byte	0x20b
 2102 0f9c 1A       		.byte	0x1a
 2103 0f9d A30F0000 		.4byte	0xfa3
 2104 0fa1 00       		.byte	0
 2105 0fa2 00       		.byte	0
 2106 0fa3 0F       		.uleb128 0xf
 2107 0fa4 04       		.byte	0x4
 2108 0fa5 010F0000 		.4byte	0xf01
 2109 0fa9 0A       		.uleb128 0xa
ARM GAS  /tmp/ccGUgTIG.s 			page 38


 2110 0faa 04       		.byte	0x4
 2111 0fab 11       		.byte	0x11
 2112 0fac 3F       		.byte	0x3f
 2113 0fad 09       		.byte	0x9
 2114 0fae C00F0000 		.4byte	0xfc0
 2115 0fb2 0B       		.uleb128 0xb
 2116 0fb3 3D0A0000 		.4byte	.LASF204
 2117 0fb7 11       		.byte	0x11
 2118 0fb8 43       		.byte	0x43
 2119 0fb9 19       		.byte	0x19
 2120 0fba 75090000 		.4byte	0x975
 2121 0fbe 00       		.byte	0
 2122 0fbf 00       		.byte	0
 2123 0fc0 03       		.uleb128 0x3
 2124 0fc1 AF0D0000 		.4byte	.LASF205
 2125 0fc5 11       		.byte	0x11
 2126 0fc6 44       		.byte	0x44
 2127 0fc7 03       		.byte	0x3
 2128 0fc8 A90F0000 		.4byte	0xfa9
 2129 0fcc 26       		.uleb128 0x26
 2130 0fcd 07       		.byte	0x7
 2131 0fce 01       		.byte	0x1
 2132 0fcf 59000000 		.4byte	0x59
 2133 0fd3 08       		.byte	0x8
 2134 0fd4 32       		.byte	0x32
 2135 0fd5 0E       		.byte	0xe
 2136 0fd6 F30F0000 		.4byte	0xff3
 2137 0fda 27       		.uleb128 0x27
 2138 0fdb DB080000 		.4byte	.LASF206
 2139 0fdf 00       		.byte	0
 2140 0fe0 27       		.uleb128 0x27
 2141 0fe1 BF090000 		.4byte	.LASF207
 2142 0fe5 01       		.byte	0x1
 2143 0fe6 27       		.uleb128 0x27
 2144 0fe7 22090000 		.4byte	.LASF208
 2145 0feb 02       		.byte	0x2
 2146 0fec 27       		.uleb128 0x27
 2147 0fed 6F0E0000 		.4byte	.LASF209
 2148 0ff1 03       		.byte	0x3
 2149 0ff2 00       		.byte	0
 2150 0ff3 03       		.uleb128 0x3
 2151 0ff4 E2010000 		.4byte	.LASF210
 2152 0ff8 08       		.byte	0x8
 2153 0ff9 37       		.byte	0x37
 2154 0ffa 03       		.byte	0x3
 2155 0ffb CC0F0000 		.4byte	0xfcc
 2156 0fff 0D       		.uleb128 0xd
 2157 1000 07010000 		.4byte	.LASF211
 2158 1004 18       		.byte	0x18
 2159 1005 08       		.byte	0x8
 2160 1006 64       		.byte	0x64
 2161 1007 10       		.byte	0x10
 2162 1008 34100000 		.4byte	0x1034
 2163 100c 0B       		.uleb128 0xb
 2164 100d 720A0000 		.4byte	.LASF212
 2165 1011 08       		.byte	0x8
 2166 1012 68       		.byte	0x68
ARM GAS  /tmp/ccGUgTIG.s 			page 39


 2167 1013 21       		.byte	0x21
 2168 1014 BC0C0000 		.4byte	0xcbc
 2169 1018 00       		.byte	0
 2170 1019 0B       		.uleb128 0xb
 2171 101a 68040000 		.4byte	.LASF213
 2172 101e 08       		.byte	0x8
 2173 101f 73       		.byte	0x73
 2174 1020 21       		.byte	0x21
 2175 1021 F60B0000 		.4byte	0xbf6
 2176 1025 0C       		.byte	0xc
 2177 1026 0B       		.uleb128 0xb
 2178 1027 4D030000 		.4byte	.LASF214
 2179 102b 08       		.byte	0x8
 2180 102c 79       		.byte	0x79
 2181 102d 21       		.byte	0x21
 2182 102e 58090000 		.4byte	0x958
 2183 1032 10       		.byte	0x10
 2184 1033 00       		.byte	0
 2185 1034 03       		.uleb128 0x3
 2186 1035 41070000 		.4byte	.LASF215
 2187 1039 08       		.byte	0x8
 2188 103a 7B       		.byte	0x7b
 2189 103b 03       		.byte	0x3
 2190 103c FF0F0000 		.4byte	0xfff
 2191 1040 0D       		.uleb128 0xd
 2192 1041 FB010000 		.4byte	.LASF216
 2193 1045 08       		.byte	0x8
 2194 1046 08       		.byte	0x8
 2195 1047 80       		.byte	0x80
 2196 1048 10       		.byte	0x10
 2197 1049 5B100000 		.4byte	0x105b
 2198 104d 0B       		.uleb128 0xb
 2199 104e 660C0000 		.4byte	.LASF217
 2200 1052 08       		.byte	0x8
 2201 1053 84       		.byte	0x84
 2202 1054 21       		.byte	0x21
 2203 1055 3B0C0000 		.4byte	0xc3b
 2204 1059 00       		.byte	0
 2205 105a 00       		.byte	0
 2206 105b 03       		.uleb128 0x3
 2207 105c 1E010000 		.4byte	.LASF218
 2208 1060 08       		.byte	0x8
 2209 1061 85       		.byte	0x85
 2210 1062 03       		.byte	0x3
 2211 1063 40100000 		.4byte	0x1040
 2212 1067 03       		.uleb128 0x3
 2213 1068 490A0000 		.4byte	.LASF219
 2214 106c 08       		.byte	0x8
 2215 106d 8A       		.byte	0x8a
 2216 106e 14       		.byte	0x14
 2217 106f 270D0000 		.4byte	0xd27
 2218 1073 0D       		.uleb128 0xd
 2219 1074 190C0000 		.4byte	.LASF220
 2220 1078 08       		.byte	0x8
 2221 1079 08       		.byte	0x8
 2222 107a 8F       		.byte	0x8f
 2223 107b 10       		.byte	0x10
ARM GAS  /tmp/ccGUgTIG.s 			page 40


 2224 107c 8E100000 		.4byte	0x108e
 2225 1080 0B       		.uleb128 0xb
 2226 1081 660C0000 		.4byte	.LASF217
 2227 1085 08       		.byte	0x8
 2228 1086 93       		.byte	0x93
 2229 1087 21       		.byte	0x21
 2230 1088 3B0C0000 		.4byte	0xc3b
 2231 108c 00       		.byte	0
 2232 108d 00       		.byte	0
 2233 108e 03       		.uleb128 0x3
 2234 108f 1C030000 		.4byte	.LASF221
 2235 1093 08       		.byte	0x8
 2236 1094 94       		.byte	0x94
 2237 1095 03       		.byte	0x3
 2238 1096 73100000 		.4byte	0x1073
 2239 109a 06       		.uleb128 0x6
 2240 109b 0C       		.byte	0xc
 2241 109c 08       		.byte	0x8
 2242 109d A0       		.byte	0xa0
 2243 109e 03       		.byte	0x3
 2244 109f C8100000 		.4byte	0x10c8
 2245 10a3 07       		.uleb128 0x7
 2246 10a4 440A0000 		.4byte	.LASF222
 2247 10a8 08       		.byte	0x8
 2248 10a9 A4       		.byte	0xa4
 2249 10aa 21       		.byte	0x21
 2250 10ab 0E0C0000 		.4byte	0xc0e
 2251 10af 07       		.uleb128 0x7
 2252 10b0 660C0000 		.4byte	.LASF217
 2253 10b4 08       		.byte	0x8
 2254 10b5 A8       		.byte	0xa8
 2255 10b6 21       		.byte	0x21
 2256 10b7 3B0C0000 		.4byte	0xc3b
 2257 10bb 07       		.uleb128 0x7
 2258 10bc 980D0000 		.4byte	.LASF223
 2259 10c0 08       		.byte	0x8
 2260 10c1 AC       		.byte	0xac
 2261 10c2 21       		.byte	0x21
 2262 10c3 750C0000 		.4byte	0xc75
 2263 10c7 00       		.byte	0
 2264 10c8 06       		.uleb128 0x6
 2265 10c9 04       		.byte	0x4
 2266 10ca 08       		.byte	0x8
 2267 10cb EB       		.byte	0xeb
 2268 10cc 03       		.byte	0x3
 2269 10cd 38110000 		.4byte	0x1138
 2270 10d1 07       		.uleb128 0x7
 2271 10d2 E4100000 		.4byte	.LASF224
 2272 10d6 08       		.byte	0x8
 2273 10d7 F2       		.byte	0xf2
 2274 10d8 21       		.byte	0x21
 2275 10d9 BD090000 		.4byte	0x9bd
 2276 10dd 07       		.uleb128 0x7
 2277 10de 52020000 		.4byte	.LASF225
 2278 10e2 08       		.byte	0x8
 2279 10e3 F9       		.byte	0xf9
 2280 10e4 21       		.byte	0x21
ARM GAS  /tmp/ccGUgTIG.s 			page 41


 2281 10e5 BD090000 		.4byte	0x9bd
 2282 10e9 1D       		.uleb128 0x1d
 2283 10ea 3D050000 		.4byte	.LASF186
 2284 10ee 08       		.byte	0x8
 2285 10ef 0001     		.2byte	0x100
 2286 10f1 22       		.byte	0x22
 2287 10f2 FD000000 		.4byte	0xfd
 2288 10f6 1D       		.uleb128 0x1d
 2289 10f7 54040000 		.4byte	.LASF226
 2290 10fb 08       		.byte	0x8
 2291 10fc 0701     		.2byte	0x107
 2292 10fe 22       		.byte	0x22
 2293 10ff 38110000 		.4byte	0x1138
 2294 1103 1D       		.uleb128 0x1d
 2295 1104 000B0000 		.4byte	.LASF227
 2296 1108 08       		.byte	0x8
 2297 1109 0C01     		.2byte	0x10c
 2298 110b 21       		.byte	0x21
 2299 110c BD090000 		.4byte	0x9bd
 2300 1110 1D       		.uleb128 0x1d
 2301 1111 DD110000 		.4byte	.LASF228
 2302 1115 08       		.byte	0x8
 2303 1116 1501     		.2byte	0x115
 2304 1118 22       		.byte	0x22
 2305 1119 66110000 		.4byte	0x1166
 2306 111d 1D       		.uleb128 0x1d
 2307 111e 14060000 		.4byte	.LASF229
 2308 1122 08       		.byte	0x8
 2309 1123 1E01     		.2byte	0x11e
 2310 1125 22       		.byte	0x22
 2311 1126 A1110000 		.4byte	0x11a1
 2312 112a 1D       		.uleb128 0x1d
 2313 112b CD030000 		.4byte	.LASF230
 2314 112f 08       		.byte	0x8
 2315 1130 2601     		.2byte	0x126
 2316 1132 21       		.byte	0x21
 2317 1133 C9090000 		.4byte	0x9c9
 2318 1137 00       		.byte	0
 2319 1138 0F       		.uleb128 0xf
 2320 1139 04       		.byte	0x4
 2321 113a 67100000 		.4byte	0x1067
 2322 113e 0D       		.uleb128 0xd
 2323 113f 2A070000 		.4byte	.LASF231
 2324 1143 0C       		.byte	0xc
 2325 1144 12       		.byte	0x12
 2326 1145 34       		.byte	0x34
 2327 1146 10       		.byte	0x10
 2328 1147 66110000 		.4byte	0x1166
 2329 114b 0B       		.uleb128 0xb
 2330 114c 660C0000 		.4byte	.LASF217
 2331 1150 12       		.byte	0x12
 2332 1151 35       		.byte	0x35
 2333 1152 19       		.byte	0x19
 2334 1153 3B0C0000 		.4byte	0xc3b
 2335 1157 00       		.byte	0
 2336 1158 0E       		.uleb128 0xe
 2337 1159 636E7400 		.ascii	"cnt\000"
ARM GAS  /tmp/ccGUgTIG.s 			page 42


 2338 115d 12       		.byte	0x12
 2339 115e 37       		.byte	0x37
 2340 115f 19       		.byte	0x19
 2341 1160 D5090000 		.4byte	0x9d5
 2342 1164 08       		.byte	0x8
 2343 1165 00       		.byte	0
 2344 1166 0F       		.uleb128 0xf
 2345 1167 04       		.byte	0x4
 2346 1168 3E110000 		.4byte	0x113e
 2347 116c 0D       		.uleb128 0xd
 2348 116d 980E0000 		.4byte	.LASF232
 2349 1171 10       		.byte	0x10
 2350 1172 13       		.byte	0x13
 2351 1173 39       		.byte	0x39
 2352 1174 08       		.byte	0x8
 2353 1175 A1110000 		.4byte	0x11a1
 2354 1179 0B       		.uleb128 0xb
 2355 117a 660C0000 		.4byte	.LASF217
 2356 117e 13       		.byte	0x13
 2357 117f 3A       		.byte	0x3a
 2358 1180 19       		.byte	0x19
 2359 1181 3B0C0000 		.4byte	0xc3b
 2360 1185 00       		.byte	0
 2361 1186 0B       		.uleb128 0xb
 2362 1187 9A000000 		.4byte	.LASF141
 2363 118b 13       		.byte	0x13
 2364 118c 3C       		.byte	0x3c
 2365 118d 1A       		.byte	0x1a
 2366 118e 270D0000 		.4byte	0xd27
 2367 1192 08       		.byte	0x8
 2368 1193 0B       		.uleb128 0xb
 2369 1194 8C110000 		.4byte	.LASF176
 2370 1198 13       		.byte	0x13
 2371 1199 3E       		.byte	0x3e
 2372 119a 1A       		.byte	0x1a
 2373 119b E1140000 		.4byte	0x14e1
 2374 119f 0C       		.byte	0xc
 2375 11a0 00       		.byte	0
 2376 11a1 0F       		.uleb128 0xf
 2377 11a2 04       		.byte	0x4
 2378 11a3 6C110000 		.4byte	0x116c
 2379 11a7 0F       		.uleb128 0xf
 2380 11a8 04       		.byte	0x4
 2381 11a9 E80A0000 		.4byte	0xae8
 2382 11ad 0F       		.uleb128 0xf
 2383 11ae 04       		.byte	0x4
 2384 11af 81090000 		.4byte	0x981
 2385 11b3 1A       		.uleb128 0x1a
 2386 11b4 20060000 		.4byte	.LASF233
 2387 11b8 10       		.byte	0x10
 2388 11b9 08       		.byte	0x8
 2389 11ba 5C01     		.2byte	0x15c
 2390 11bc 10       		.byte	0x10
 2391 11bd DE110000 		.4byte	0x11de
 2392 11c1 17       		.uleb128 0x17
 2393 11c2 980D0000 		.4byte	.LASF223
 2394 11c6 08       		.byte	0x8
ARM GAS  /tmp/ccGUgTIG.s 			page 43


 2395 11c7 6101     		.2byte	0x161
 2396 11c9 21       		.byte	0x21
 2397 11ca 750C0000 		.4byte	0xc75
 2398 11ce 00       		.byte	0
 2399 11cf 17       		.uleb128 0x17
 2400 11d0 230A0000 		.4byte	.LASF234
 2401 11d4 08       		.byte	0x8
 2402 11d5 6501     		.2byte	0x165
 2403 11d7 22       		.byte	0x22
 2404 11d8 270D0000 		.4byte	0xd27
 2405 11dc 0C       		.byte	0xc
 2406 11dd 00       		.byte	0
 2407 11de 05       		.uleb128 0x5
 2408 11df 7A070000 		.4byte	.LASF235
 2409 11e3 08       		.byte	0x8
 2410 11e4 6601     		.2byte	0x166
 2411 11e6 03       		.byte	0x3
 2412 11e7 B3110000 		.4byte	0x11b3
 2413 11eb 1A       		.uleb128 0x1a
 2414 11ec 320E0000 		.4byte	.LASF236
 2415 11f0 14       		.byte	0x14
 2416 11f1 08       		.byte	0x8
 2417 11f2 6B01     		.2byte	0x16b
 2418 11f4 10       		.byte	0x10
 2419 11f5 40120000 		.4byte	0x1240
 2420 11f9 17       		.uleb128 0x17
 2421 11fa D10D0000 		.4byte	.LASF142
 2422 11fe 08       		.byte	0x8
 2423 11ff 6F01     		.2byte	0x16f
 2424 1201 22       		.byte	0x22
 2425 1202 E4050000 		.4byte	0x5e4
 2426 1206 00       		.byte	0
 2427 1207 17       		.uleb128 0x17
 2428 1208 030C0000 		.4byte	.LASF237
 2429 120c 08       		.byte	0x8
 2430 120d 7501     		.2byte	0x175
 2431 120f 22       		.byte	0x22
 2432 1210 AD110000 		.4byte	0x11ad
 2433 1214 04       		.byte	0x4
 2434 1215 17       		.uleb128 0x17
 2435 1216 73050000 		.4byte	.LASF238
 2436 121a 08       		.byte	0x8
 2437 121b 7901     		.2byte	0x179
 2438 121d 22       		.byte	0x22
 2439 121e AD110000 		.4byte	0x11ad
 2440 1222 08       		.byte	0x8
 2441 1223 17       		.uleb128 0x17
 2442 1224 54110000 		.4byte	.LASF239
 2443 1228 08       		.byte	0x8
 2444 1229 7F01     		.2byte	0x17f
 2445 122b 22       		.byte	0x22
 2446 122c AD110000 		.4byte	0x11ad
 2447 1230 0C       		.byte	0xc
 2448 1231 17       		.uleb128 0x17
 2449 1232 CD0A0000 		.4byte	.LASF240
 2450 1236 08       		.byte	0x8
 2451 1237 8301     		.2byte	0x183
ARM GAS  /tmp/ccGUgTIG.s 			page 44


 2452 1239 22       		.byte	0x22
 2453 123a AD110000 		.4byte	0x11ad
 2454 123e 10       		.byte	0x10
 2455 123f 00       		.byte	0
 2456 1240 05       		.uleb128 0x5
 2457 1241 5A0E0000 		.4byte	.LASF241
 2458 1245 08       		.byte	0x8
 2459 1246 8501     		.2byte	0x185
 2460 1248 03       		.byte	0x3
 2461 1249 EB110000 		.4byte	0x11eb
 2462 124d 15       		.uleb128 0x15
 2463 124e 40120000 		.4byte	0x1240
 2464 1252 0F       		.uleb128 0xf
 2465 1253 04       		.byte	0x4
 2466 1254 4D120000 		.4byte	0x124d
 2467 1258 1A       		.uleb128 0x1a
 2468 1259 97100000 		.4byte	.LASF242
 2469 125d 0C       		.byte	0xc
 2470 125e 08       		.byte	0x8
 2471 125f C901     		.2byte	0x1c9
 2472 1261 10       		.byte	0x10
 2473 1262 91120000 		.4byte	0x1291
 2474 1266 17       		.uleb128 0x17
 2475 1267 99010000 		.4byte	.LASF144
 2476 126b 08       		.byte	0x8
 2477 126c CD01     		.2byte	0x1cd
 2478 126e 21       		.byte	0x21
 2479 126f F30F0000 		.4byte	0xff3
 2480 1273 00       		.byte	0
 2481 1274 17       		.uleb128 0x17
 2482 1275 90000000 		.4byte	.LASF243
 2483 1279 08       		.byte	0x8
 2484 127a D101     		.2byte	0x1d1
 2485 127c 22       		.byte	0x22
 2486 127d 91120000 		.4byte	0x1291
 2487 1281 04       		.byte	0x4
 2488 1282 21       		.uleb128 0x21
 2489 1283 746D6300 		.ascii	"tmc\000"
 2490 1287 08       		.byte	0x8
 2491 1288 D601     		.2byte	0x1d6
 2492 128a 21       		.byte	0x21
 2493 128b C00F0000 		.4byte	0xfc0
 2494 128f 08       		.byte	0x8
 2495 1290 00       		.byte	0
 2496 1291 08       		.uleb128 0x8
 2497 1292 A7110000 		.4byte	0x11a7
 2498 1296 A1120000 		.4byte	0x12a1
 2499 129a 09       		.uleb128 0x9
 2500 129b 30000000 		.4byte	0x30
 2501 129f 00       		.byte	0
 2502 12a0 00       		.byte	0
 2503 12a1 05       		.uleb128 0x5
 2504 12a2 0D110000 		.4byte	.LASF244
 2505 12a6 08       		.byte	0x8
 2506 12a7 ED01     		.2byte	0x1ed
 2507 12a9 03       		.byte	0x3
 2508 12aa 58120000 		.4byte	0x1258
ARM GAS  /tmp/ccGUgTIG.s 			page 45


 2509 12ae 20       		.uleb128 0x20
 2510 12af 97100000 		.4byte	.LASF242
 2511 12b3 14       		.byte	0x14
 2512 12b4 3E01     		.2byte	0x13e
 2513 12b6 14       		.byte	0x14
 2514 12b7 A1120000 		.4byte	0x12a1
 2515 12bb 20       		.uleb128 0x20
 2516 12bc 4C080000 		.4byte	.LASF245
 2517 12c0 14       		.byte	0x14
 2518 12c1 4001     		.2byte	0x140
 2519 12c3 23       		.byte	0x23
 2520 12c4 4D120000 		.4byte	0x124d
 2521 12c8 28       		.uleb128 0x28
 2522 12c9 63683000 		.ascii	"ch0\000"
 2523 12cd 14       		.byte	0x14
 2524 12ce 4101     		.2byte	0x141
 2525 12d0 16       		.byte	0x16
 2526 12d1 E80A0000 		.4byte	0xae8
 2527 12d5 0A       		.uleb128 0xa
 2528 12d6 2C       		.byte	0x2c
 2529 12d7 15       		.byte	0x15
 2530 12d8 34       		.byte	0x34
 2531 12d9 09       		.byte	0x9
 2532 12da 8C140000 		.4byte	0x148c
 2533 12de 0B       		.uleb128 0xb
 2534 12df BC110000 		.4byte	.LASF246
 2535 12e3 15       		.byte	0x15
 2536 12e4 35       		.byte	0x35
 2537 12e5 0D       		.byte	0xd
 2538 12e6 8C140000 		.4byte	0x148c
 2539 12ea 00       		.byte	0
 2540 12eb 0B       		.uleb128 0xb
 2541 12ec E4020000 		.4byte	.LASF247
 2542 12f0 15       		.byte	0x15
 2543 12f1 36       		.byte	0x36
 2544 12f2 0D       		.byte	0xd
 2545 12f3 23090000 		.4byte	0x923
 2546 12f7 04       		.byte	0x4
 2547 12f8 0B       		.uleb128 0xb
 2548 12f9 C90B0000 		.4byte	.LASF195
 2549 12fd 15       		.byte	0x15
 2550 12fe 37       		.byte	0x37
 2551 12ff 0D       		.byte	0xd
 2552 1300 23090000 		.4byte	0x923
 2553 1304 05       		.byte	0x5
 2554 1305 0B       		.uleb128 0xb
 2555 1306 BC0C0000 		.4byte	.LASF248
 2556 130a 15       		.byte	0x15
 2557 130b 38       		.byte	0x38
 2558 130c 0D       		.byte	0xd
 2559 130d 34090000 		.4byte	0x934
 2560 1311 06       		.byte	0x6
 2561 1312 0B       		.uleb128 0xb
 2562 1313 96050000 		.4byte	.LASF249
 2563 1317 15       		.byte	0x15
 2564 1318 39       		.byte	0x39
 2565 1319 0D       		.byte	0xd
ARM GAS  /tmp/ccGUgTIG.s 			page 46


 2566 131a 23090000 		.4byte	0x923
 2567 131e 08       		.byte	0x8
 2568 131f 0B       		.uleb128 0xb
 2569 1320 D4110000 		.4byte	.LASF250
 2570 1324 15       		.byte	0x15
 2571 1325 3A       		.byte	0x3a
 2572 1326 0D       		.byte	0xd
 2573 1327 23090000 		.4byte	0x923
 2574 132b 09       		.byte	0x9
 2575 132c 0B       		.uleb128 0xb
 2576 132d E8060000 		.4byte	.LASF251
 2577 1331 15       		.byte	0x15
 2578 1332 3B       		.byte	0x3b
 2579 1333 0D       		.byte	0xd
 2580 1334 23090000 		.4byte	0x923
 2581 1338 0A       		.byte	0xa
 2582 1339 0B       		.uleb128 0xb
 2583 133a 59000000 		.4byte	.LASF252
 2584 133e 15       		.byte	0x15
 2585 133f 3C       		.byte	0x3c
 2586 1340 0D       		.byte	0xd
 2587 1341 23090000 		.4byte	0x923
 2588 1345 0B       		.byte	0xb
 2589 1346 0B       		.uleb128 0xb
 2590 1347 00000000 		.4byte	.LASF253
 2591 134b 15       		.byte	0x15
 2592 134c 3D       		.byte	0x3d
 2593 134d 0D       		.byte	0xd
 2594 134e 23090000 		.4byte	0x923
 2595 1352 0C       		.byte	0xc
 2596 1353 0B       		.uleb128 0xb
 2597 1354 31090000 		.4byte	.LASF254
 2598 1358 15       		.byte	0x15
 2599 1359 3E       		.byte	0x3e
 2600 135a 0D       		.byte	0xd
 2601 135b 23090000 		.4byte	0x923
 2602 135f 0D       		.byte	0xd
 2603 1360 0B       		.uleb128 0xb
 2604 1361 F1010000 		.4byte	.LASF255
 2605 1365 15       		.byte	0x15
 2606 1366 3F       		.byte	0x3f
 2607 1367 0D       		.byte	0xd
 2608 1368 23090000 		.4byte	0x923
 2609 136c 0E       		.byte	0xe
 2610 136d 0B       		.uleb128 0xb
 2611 136e EE0B0000 		.4byte	.LASF256
 2612 1372 15       		.byte	0x15
 2613 1373 40       		.byte	0x40
 2614 1374 0D       		.byte	0xd
 2615 1375 23090000 		.4byte	0x923
 2616 1379 0F       		.byte	0xf
 2617 137a 0B       		.uleb128 0xb
 2618 137b A3070000 		.4byte	.LASF257
 2619 137f 15       		.byte	0x15
 2620 1380 41       		.byte	0x41
 2621 1381 0D       		.byte	0xd
 2622 1382 23090000 		.4byte	0x923
ARM GAS  /tmp/ccGUgTIG.s 			page 47


 2623 1386 10       		.byte	0x10
 2624 1387 0B       		.uleb128 0xb
 2625 1388 B7060000 		.4byte	.LASF258
 2626 138c 15       		.byte	0x15
 2627 138d 42       		.byte	0x42
 2628 138e 0D       		.byte	0xd
 2629 138f 23090000 		.4byte	0x923
 2630 1393 11       		.byte	0x11
 2631 1394 0B       		.uleb128 0xb
 2632 1395 6F110000 		.4byte	.LASF259
 2633 1399 15       		.byte	0x15
 2634 139a 43       		.byte	0x43
 2635 139b 0D       		.byte	0xd
 2636 139c 23090000 		.4byte	0x923
 2637 13a0 12       		.byte	0x12
 2638 13a1 0B       		.uleb128 0xb
 2639 13a2 4B050000 		.4byte	.LASF260
 2640 13a6 15       		.byte	0x15
 2641 13a7 44       		.byte	0x44
 2642 13a8 0D       		.byte	0xd
 2643 13a9 23090000 		.4byte	0x923
 2644 13ad 13       		.byte	0x13
 2645 13ae 0B       		.uleb128 0xb
 2646 13af 7F000000 		.4byte	.LASF261
 2647 13b3 15       		.byte	0x15
 2648 13b4 45       		.byte	0x45
 2649 13b5 0D       		.byte	0xd
 2650 13b6 23090000 		.4byte	0x923
 2651 13ba 14       		.byte	0x14
 2652 13bb 0B       		.uleb128 0xb
 2653 13bc B2050000 		.4byte	.LASF262
 2654 13c0 15       		.byte	0x15
 2655 13c1 46       		.byte	0x46
 2656 13c2 0D       		.byte	0xd
 2657 13c3 23090000 		.4byte	0x923
 2658 13c7 15       		.byte	0x15
 2659 13c8 0B       		.uleb128 0xb
 2660 13c9 940A0000 		.4byte	.LASF263
 2661 13cd 15       		.byte	0x15
 2662 13ce 47       		.byte	0x47
 2663 13cf 0D       		.byte	0xd
 2664 13d0 9C140000 		.4byte	0x149c
 2665 13d4 16       		.byte	0x16
 2666 13d5 0B       		.uleb128 0xb
 2667 13d6 3A0D0000 		.4byte	.LASF264
 2668 13da 15       		.byte	0x15
 2669 13db 48       		.byte	0x48
 2670 13dc 0D       		.byte	0xd
 2671 13dd 23090000 		.4byte	0x923
 2672 13e1 1A       		.byte	0x1a
 2673 13e2 0B       		.uleb128 0xb
 2674 13e3 30050000 		.4byte	.LASF265
 2675 13e7 15       		.byte	0x15
 2676 13e8 49       		.byte	0x49
 2677 13e9 0D       		.byte	0xd
 2678 13ea 23090000 		.4byte	0x923
 2679 13ee 1B       		.byte	0x1b
ARM GAS  /tmp/ccGUgTIG.s 			page 48


 2680 13ef 0B       		.uleb128 0xb
 2681 13f0 B6010000 		.4byte	.LASF266
 2682 13f4 15       		.byte	0x15
 2683 13f5 4A       		.byte	0x4a
 2684 13f6 0D       		.byte	0xd
 2685 13f7 23090000 		.4byte	0x923
 2686 13fb 1C       		.byte	0x1c
 2687 13fc 0B       		.uleb128 0xb
 2688 13fd 950F0000 		.4byte	.LASF267
 2689 1401 15       		.byte	0x15
 2690 1402 4B       		.byte	0x4b
 2691 1403 0D       		.byte	0xd
 2692 1404 23090000 		.4byte	0x923
 2693 1408 1D       		.byte	0x1d
 2694 1409 0B       		.uleb128 0xb
 2695 140a 470F0000 		.4byte	.LASF268
 2696 140e 15       		.byte	0x15
 2697 140f 4C       		.byte	0x4c
 2698 1410 0D       		.byte	0xd
 2699 1411 23090000 		.4byte	0x923
 2700 1415 1E       		.byte	0x1e
 2701 1416 0B       		.uleb128 0xb
 2702 1417 6D0D0000 		.4byte	.LASF269
 2703 141b 15       		.byte	0x15
 2704 141c 4E       		.byte	0x4e
 2705 141d 0D       		.byte	0xd
 2706 141e 23090000 		.4byte	0x923
 2707 1422 1F       		.byte	0x1f
 2708 1423 0B       		.uleb128 0xb
 2709 1424 55090000 		.4byte	.LASF270
 2710 1428 15       		.byte	0x15
 2711 1429 4F       		.byte	0x4f
 2712 142a 0D       		.byte	0xd
 2713 142b 23090000 		.4byte	0x923
 2714 142f 20       		.byte	0x20
 2715 1430 0B       		.uleb128 0xb
 2716 1431 81010000 		.4byte	.LASF271
 2717 1435 15       		.byte	0x15
 2718 1436 50       		.byte	0x50
 2719 1437 0D       		.byte	0xd
 2720 1438 9C140000 		.4byte	0x149c
 2721 143c 21       		.byte	0x21
 2722 143d 0B       		.uleb128 0xb
 2723 143e 300F0000 		.4byte	.LASF272
 2724 1442 15       		.byte	0x15
 2725 1443 51       		.byte	0x51
 2726 1444 0D       		.byte	0xd
 2727 1445 23090000 		.4byte	0x923
 2728 1449 25       		.byte	0x25
 2729 144a 0B       		.uleb128 0xb
 2730 144b 03080000 		.4byte	.LASF273
 2731 144f 15       		.byte	0x15
 2732 1450 53       		.byte	0x53
 2733 1451 0D       		.byte	0xd
 2734 1452 23090000 		.4byte	0x923
 2735 1456 26       		.byte	0x26
 2736 1457 0B       		.uleb128 0xb
ARM GAS  /tmp/ccGUgTIG.s 			page 49


 2737 1458 6F020000 		.4byte	.LASF274
 2738 145c 15       		.byte	0x15
 2739 145d 54       		.byte	0x54
 2740 145e 0D       		.byte	0xd
 2741 145f 23090000 		.4byte	0x923
 2742 1463 27       		.byte	0x27
 2743 1464 0B       		.uleb128 0xb
 2744 1465 C00D0000 		.4byte	.LASF275
 2745 1469 15       		.byte	0x15
 2746 146a 55       		.byte	0x55
 2747 146b 0D       		.byte	0xd
 2748 146c 23090000 		.4byte	0x923
 2749 1470 28       		.byte	0x28
 2750 1471 0B       		.uleb128 0xb
 2751 1472 E9040000 		.4byte	.LASF276
 2752 1476 15       		.byte	0x15
 2753 1477 56       		.byte	0x56
 2754 1478 0D       		.byte	0xd
 2755 1479 23090000 		.4byte	0x923
 2756 147d 29       		.byte	0x29
 2757 147e 0B       		.uleb128 0xb
 2758 147f 510D0000 		.4byte	.LASF277
 2759 1483 15       		.byte	0x15
 2760 1484 57       		.byte	0x57
 2761 1485 0D       		.byte	0xd
 2762 1486 23090000 		.4byte	0x923
 2763 148a 2A       		.byte	0x2a
 2764 148b 00       		.byte	0
 2765 148c 08       		.uleb128 0x8
 2766 148d B4050000 		.4byte	0x5b4
 2767 1491 9C140000 		.4byte	0x149c
 2768 1495 09       		.uleb128 0x9
 2769 1496 30000000 		.4byte	0x30
 2770 149a 03       		.byte	0x3
 2771 149b 00       		.byte	0
 2772 149c 08       		.uleb128 0x8
 2773 149d 23090000 		.4byte	0x923
 2774 14a1 AC140000 		.4byte	0x14ac
 2775 14a5 09       		.uleb128 0x9
 2776 14a6 30000000 		.4byte	0x30
 2777 14aa 03       		.byte	0x3
 2778 14ab 00       		.byte	0
 2779 14ac 03       		.uleb128 0x3
 2780 14ad 19110000 		.4byte	.LASF278
 2781 14b1 15       		.byte	0x15
 2782 14b2 58       		.byte	0x58
 2783 14b3 03       		.byte	0x3
 2784 14b4 D5120000 		.4byte	0x12d5
 2785 14b8 15       		.uleb128 0x15
 2786 14b9 AC140000 		.4byte	0x14ac
 2787 14bd 25       		.uleb128 0x25
 2788 14be BD000000 		.4byte	.LASF279
 2789 14c2 15       		.byte	0x15
 2790 14c3 7F       		.byte	0x7f
 2791 14c4 1D       		.byte	0x1d
 2792 14c5 B8140000 		.4byte	0x14b8
 2793 14c9 03       		.uleb128 0x3
ARM GAS  /tmp/ccGUgTIG.s 			page 50


 2794 14ca 9B110000 		.4byte	.LASF280
 2795 14ce 12       		.byte	0x12
 2796 14cf 38       		.byte	0x38
 2797 14d0 03       		.byte	0x3
 2798 14d1 3E110000 		.4byte	0x113e
 2799 14d5 03       		.uleb128 0x3
 2800 14d6 760F0000 		.4byte	.LASF281
 2801 14da 13       		.byte	0x13
 2802 14db 34       		.byte	0x34
 2803 14dc 19       		.byte	0x19
 2804 14dd 6C110000 		.4byte	0x116c
 2805 14e1 0F       		.uleb128 0xf
 2806 14e2 04       		.byte	0x4
 2807 14e3 D5140000 		.4byte	0x14d5
 2808 14e7 0A       		.uleb128 0xa
 2809 14e8 28       		.byte	0x28
 2810 14e9 16       		.byte	0x16
 2811 14ea 34       		.byte	0x34
 2812 14eb 09       		.byte	0x9
 2813 14ec 57150000 		.4byte	0x1557
 2814 14f0 0B       		.uleb128 0xb
 2815 14f1 F5050000 		.4byte	.LASF196
 2816 14f5 16       		.byte	0x16
 2817 14f6 35       		.byte	0x35
 2818 14f7 1A       		.byte	0x1a
 2819 14f8 57150000 		.4byte	0x1557
 2820 14fc 00       		.byte	0
 2821 14fd 0E       		.uleb128 0xe
 2822 14fe 746F7000 		.ascii	"top\000"
 2823 1502 16       		.byte	0x16
 2824 1503 37       		.byte	0x37
 2825 1504 1A       		.byte	0x1a
 2826 1505 57150000 		.4byte	0x1557
 2827 1509 04       		.byte	0x4
 2828 150a 0B       		.uleb128 0xb
 2829 150b EA070000 		.4byte	.LASF282
 2830 150f 16       		.byte	0x16
 2831 1510 39       		.byte	0x39
 2832 1511 1A       		.byte	0x1a
 2833 1512 57150000 		.4byte	0x1557
 2834 1516 08       		.byte	0x8
 2835 1517 0B       		.uleb128 0xb
 2836 1518 36030000 		.4byte	.LASF283
 2837 151c 16       		.byte	0x16
 2838 151d 3A       		.byte	0x3a
 2839 151e 1A       		.byte	0x1a
 2840 151f 57150000 		.4byte	0x1557
 2841 1523 0C       		.byte	0xc
 2842 1524 0E       		.uleb128 0xe
 2843 1525 636E7400 		.ascii	"cnt\000"
 2844 1529 16       		.byte	0x16
 2845 152a 3B       		.byte	0x3b
 2846 152b 19       		.byte	0x19
 2847 152c 24000000 		.4byte	0x24
 2848 1530 10       		.byte	0x10
 2849 1531 0B       		.uleb128 0xb
 2850 1532 9F0D0000 		.4byte	.LASF284
ARM GAS  /tmp/ccGUgTIG.s 			page 51


 2851 1536 16       		.byte	0x16
 2852 1537 3C       		.byte	0x3c
 2853 1538 19       		.byte	0x19
 2854 1539 5D150000 		.4byte	0x155d
 2855 153d 14       		.byte	0x14
 2856 153e 0E       		.uleb128 0xe
 2857 153f 717700   		.ascii	"qw\000"
 2858 1542 16       		.byte	0x16
 2859 1543 3D       		.byte	0x3d
 2860 1544 19       		.byte	0x19
 2861 1545 8E100000 		.4byte	0x108e
 2862 1549 18       		.byte	0x18
 2863 154a 0E       		.uleb128 0xe
 2864 154b 717200   		.ascii	"qr\000"
 2865 154e 16       		.byte	0x16
 2866 154f 3E       		.byte	0x3e
 2867 1550 19       		.byte	0x19
 2868 1551 8E100000 		.4byte	0x108e
 2869 1555 20       		.byte	0x20
 2870 1556 00       		.byte	0
 2871 1557 0F       		.uleb128 0xf
 2872 1558 04       		.byte	0x4
 2873 1559 BD090000 		.4byte	0x9bd
 2874 155d 04       		.uleb128 0x4
 2875 155e 01       		.byte	0x1
 2876 155f 02       		.byte	0x2
 2877 1560 E3040000 		.4byte	.LASF285
 2878 1564 03       		.uleb128 0x3
 2879 1565 91110000 		.4byte	.LASF286
 2880 1569 16       		.byte	0x16
 2881 156a 3F       		.byte	0x3f
 2882 156b 03       		.byte	0x3
 2883 156c E7140000 		.4byte	0x14e7
 2884 1570 03       		.uleb128 0x3
 2885 1571 800A0000 		.4byte	.LASF287
 2886 1575 17       		.byte	0x17
 2887 1576 47       		.byte	0x47
 2888 1577 11       		.byte	0x11
 2889 1578 7C150000 		.4byte	0x157c
 2890 157c 0F       		.uleb128 0xf
 2891 157d 04       		.byte	0x4
 2892 157e 82150000 		.4byte	0x1582
 2893 1582 13       		.uleb128 0x13
 2894 1583 FD000000 		.4byte	0xfd
 2895 1587 96150000 		.4byte	0x1596
 2896 158b 14       		.uleb128 0x14
 2897 158c 24000000 		.4byte	0x24
 2898 1590 14       		.uleb128 0x14
 2899 1591 30000000 		.4byte	0x30
 2900 1595 00       		.byte	0
 2901 1596 0A       		.uleb128 0xa
 2902 1597 08       		.byte	0x8
 2903 1598 17       		.byte	0x17
 2904 1599 51       		.byte	0x51
 2905 159a 09       		.byte	0x9
 2906 159b BA150000 		.4byte	0x15ba
 2907 159f 0B       		.uleb128 0xb
ARM GAS  /tmp/ccGUgTIG.s 			page 52


 2908 15a0 8D0F0000 		.4byte	.LASF288
 2909 15a4 17       		.byte	0x17
 2910 15a5 55       		.byte	0x55
 2911 15a6 0C       		.byte	0xc
 2912 15a7 BA150000 		.4byte	0x15ba
 2913 15ab 00       		.byte	0
 2914 15ac 0B       		.uleb128 0xb
 2915 15ad 3A0C0000 		.4byte	.LASF289
 2916 15b1 17       		.byte	0x17
 2917 15b2 59       		.byte	0x59
 2918 15b3 0C       		.byte	0xc
 2919 15b4 BA150000 		.4byte	0x15ba
 2920 15b8 04       		.byte	0x4
 2921 15b9 00       		.byte	0
 2922 15ba 0F       		.uleb128 0xf
 2923 15bb 04       		.byte	0x4
 2924 15bc 23090000 		.4byte	0x923
 2925 15c0 03       		.uleb128 0x3
 2926 15c1 B7030000 		.4byte	.LASF290
 2927 15c5 17       		.byte	0x17
 2928 15c6 5A       		.byte	0x5a
 2929 15c7 03       		.byte	0x3
 2930 15c8 96150000 		.4byte	0x1596
 2931 15cc 25       		.uleb128 0x25
 2932 15cd 64110000 		.4byte	.LASF291
 2933 15d1 17       		.byte	0x17
 2934 15d2 75       		.byte	0x75
 2935 15d3 12       		.byte	0x12
 2936 15d4 C0150000 		.4byte	0x15c0
 2937 15d8 0D       		.uleb128 0xd
 2938 15d9 B0070000 		.4byte	.LASF292
 2939 15dd 04       		.byte	0x4
 2940 15de 18       		.byte	0x18
 2941 15df 38       		.byte	0x38
 2942 15e0 08       		.byte	0x8
 2943 15e1 F3150000 		.4byte	0x15f3
 2944 15e5 0B       		.uleb128 0xb
 2945 15e6 8C110000 		.4byte	.LASF176
 2946 15ea 18       		.byte	0x18
 2947 15eb 39       		.byte	0x39
 2948 15ec 1A       		.byte	0x1a
 2949 15ed F3150000 		.4byte	0x15f3
 2950 15f1 00       		.byte	0
 2951 15f2 00       		.byte	0
 2952 15f3 0F       		.uleb128 0xf
 2953 15f4 04       		.byte	0x4
 2954 15f5 D8150000 		.4byte	0x15d8
 2955 15f9 0A       		.uleb128 0xa
 2956 15fa 10       		.byte	0x10
 2957 15fb 18       		.byte	0x18
 2958 15fc 40       		.byte	0x40
 2959 15fd 09       		.byte	0x9
 2960 15fe 37160000 		.4byte	0x1637
 2961 1602 0B       		.uleb128 0xb
 2962 1603 8C110000 		.4byte	.LASF176
 2963 1607 18       		.byte	0x18
 2964 1608 41       		.byte	0x41
ARM GAS  /tmp/ccGUgTIG.s 			page 53


 2965 1609 1A       		.byte	0x1a
 2966 160a F3150000 		.4byte	0x15f3
 2967 160e 00       		.byte	0
 2968 160f 0B       		.uleb128 0xb
 2969 1610 020F0000 		.4byte	.LASF293
 2970 1614 18       		.byte	0x18
 2971 1615 42       		.byte	0x42
 2972 1616 19       		.byte	0x19
 2973 1617 24000000 		.4byte	0x24
 2974 161b 04       		.byte	0x4
 2975 161c 0B       		.uleb128 0xb
 2976 161d 03090000 		.4byte	.LASF294
 2977 1621 18       		.byte	0x18
 2978 1622 44       		.byte	0x44
 2979 1623 19       		.byte	0x19
 2980 1624 30000000 		.4byte	0x30
 2981 1628 08       		.byte	0x8
 2982 1629 0B       		.uleb128 0xb
 2983 162a C6000000 		.4byte	.LASF295
 2984 162e 18       		.byte	0x18
 2985 162f 45       		.byte	0x45
 2986 1630 19       		.byte	0x19
 2987 1631 70150000 		.4byte	0x1570
 2988 1635 0C       		.byte	0xc
 2989 1636 00       		.byte	0
 2990 1637 03       		.uleb128 0x3
 2991 1638 2C0D0000 		.4byte	.LASF296
 2992 163c 18       		.byte	0x18
 2993 163d 47       		.byte	0x47
 2994 163e 03       		.byte	0x3
 2995 163f F9150000 		.4byte	0x15f9
 2996 1643 0A       		.uleb128 0xa
 2997 1644 1C       		.byte	0x1c
 2998 1645 18       		.byte	0x18
 2999 1646 4D       		.byte	0x4d
 3000 1647 09       		.byte	0x9
 3001 1648 67160000 		.4byte	0x1667
 3002 164c 0E       		.uleb128 0xe
 3003 164d 73656D00 		.ascii	"sem\000"
 3004 1651 18       		.byte	0x18
 3005 1652 4E       		.byte	0x4e
 3006 1653 19       		.byte	0x19
 3007 1654 C9140000 		.4byte	0x14c9
 3008 1658 00       		.byte	0
 3009 1659 0B       		.uleb128 0xb
 3010 165a 84060000 		.4byte	.LASF297
 3011 165e 18       		.byte	0x18
 3012 165f 50       		.byte	0x50
 3013 1660 19       		.byte	0x19
 3014 1661 37160000 		.4byte	0x1637
 3015 1665 0C       		.byte	0xc
 3016 1666 00       		.byte	0
 3017 1667 03       		.uleb128 0x3
 3018 1668 39110000 		.4byte	.LASF298
 3019 166c 18       		.byte	0x18
 3020 166d 51       		.byte	0x51
 3021 166e 03       		.byte	0x3
ARM GAS  /tmp/ccGUgTIG.s 			page 54


 3022 166f 43160000 		.4byte	0x1643
 3023 1673 0D       		.uleb128 0xd
 3024 1674 D60D0000 		.4byte	.LASF299
 3025 1678 44       		.byte	0x44
 3026 1679 19       		.byte	0x19
 3027 167a 50       		.byte	0x50
 3028 167b 10       		.byte	0x10
 3029 167c 9B160000 		.4byte	0x169b
 3030 1680 0B       		.uleb128 0xb
 3031 1681 DF100000 		.4byte	.LASF300
 3032 1685 19       		.byte	0x19
 3033 1686 54       		.byte	0x54
 3034 1687 1D       		.byte	0x1d
 3035 1688 67160000 		.4byte	0x1667
 3036 168c 00       		.byte	0
 3037 168d 0E       		.uleb128 0xe
 3038 168e 6D627800 		.ascii	"mbx\000"
 3039 1692 19       		.byte	0x19
 3040 1693 58       		.byte	0x58
 3041 1694 1D       		.byte	0x1d
 3042 1695 64150000 		.4byte	0x1564
 3043 1699 1C       		.byte	0x1c
 3044 169a 00       		.byte	0
 3045 169b 03       		.uleb128 0x3
 3046 169c 87050000 		.4byte	.LASF301
 3047 16a0 19       		.byte	0x19
 3048 16a1 59       		.byte	0x59
 3049 16a2 03       		.byte	0x3
 3050 16a3 73160000 		.4byte	0x1673
 3051 16a7 0A       		.uleb128 0xa
 3052 16a8 50       		.byte	0x50
 3053 16a9 1A       		.byte	0x1a
 3054 16aa 34       		.byte	0x34
 3055 16ab 09       		.byte	0x9
 3056 16ac 40170000 		.4byte	0x1740
 3057 16b0 0B       		.uleb128 0xb
 3058 16b1 F5050000 		.4byte	.LASF196
 3059 16b5 1A       		.byte	0x1a
 3060 16b6 35       		.byte	0x35
 3061 16b7 1A       		.byte	0x1a
 3062 16b8 BA150000 		.4byte	0x15ba
 3063 16bc 00       		.byte	0
 3064 16bd 0E       		.uleb128 0xe
 3065 16be 746F7000 		.ascii	"top\000"
 3066 16c2 1A       		.byte	0x1a
 3067 16c3 37       		.byte	0x37
 3068 16c4 1A       		.byte	0x1a
 3069 16c5 BA150000 		.4byte	0x15ba
 3070 16c9 04       		.byte	0x4
 3071 16ca 0B       		.uleb128 0xb
 3072 16cb EA070000 		.4byte	.LASF282
 3073 16cf 1A       		.byte	0x1a
 3074 16d0 39       		.byte	0x39
 3075 16d1 1A       		.byte	0x1a
 3076 16d2 BA150000 		.4byte	0x15ba
 3077 16d6 08       		.byte	0x8
 3078 16d7 0B       		.uleb128 0xb
ARM GAS  /tmp/ccGUgTIG.s 			page 55


 3079 16d8 36030000 		.4byte	.LASF283
 3080 16dc 1A       		.byte	0x1a
 3081 16dd 3A       		.byte	0x3a
 3082 16de 1A       		.byte	0x1a
 3083 16df BA150000 		.4byte	0x15ba
 3084 16e3 0C       		.byte	0xc
 3085 16e4 0E       		.uleb128 0xe
 3086 16e5 636E7400 		.ascii	"cnt\000"
 3087 16e9 1A       		.byte	0x1a
 3088 16ea 3B       		.byte	0x3b
 3089 16eb 19       		.byte	0x19
 3090 16ec 24000000 		.4byte	0x24
 3091 16f0 10       		.byte	0x10
 3092 16f1 0B       		.uleb128 0xb
 3093 16f2 9F0D0000 		.4byte	.LASF284
 3094 16f6 1A       		.byte	0x1a
 3095 16f7 3C       		.byte	0x3c
 3096 16f8 19       		.byte	0x19
 3097 16f9 5D150000 		.4byte	0x155d
 3098 16fd 14       		.byte	0x14
 3099 16fe 0E       		.uleb128 0xe
 3100 16ff 77747200 		.ascii	"wtr\000"
 3101 1703 1A       		.byte	0x1a
 3102 1704 3D       		.byte	0x3d
 3103 1705 19       		.byte	0x19
 3104 1706 67100000 		.4byte	0x1067
 3105 170a 18       		.byte	0x18
 3106 170b 0E       		.uleb128 0xe
 3107 170c 72747200 		.ascii	"rtr\000"
 3108 1710 1A       		.byte	0x1a
 3109 1711 3E       		.byte	0x3e
 3110 1712 19       		.byte	0x19
 3111 1713 67100000 		.4byte	0x1067
 3112 1717 1C       		.byte	0x1c
 3113 1718 0B       		.uleb128 0xb
 3114 1719 D3100000 		.4byte	.LASF302
 3115 171d 1A       		.byte	0x1a
 3116 171e 40       		.byte	0x40
 3117 171f 19       		.byte	0x19
 3118 1720 D5140000 		.4byte	0x14d5
 3119 1724 20       		.byte	0x20
 3120 1725 0B       		.uleb128 0xb
 3121 1726 82050000 		.4byte	.LASF303
 3122 172a 1A       		.byte	0x1a
 3123 172b 41       		.byte	0x41
 3124 172c 19       		.byte	0x19
 3125 172d D5140000 		.4byte	0x14d5
 3126 1731 30       		.byte	0x30
 3127 1732 0B       		.uleb128 0xb
 3128 1733 A30C0000 		.4byte	.LASF304
 3129 1737 1A       		.byte	0x1a
 3130 1738 42       		.byte	0x42
 3131 1739 19       		.byte	0x19
 3132 173a D5140000 		.4byte	0x14d5
 3133 173e 40       		.byte	0x40
 3134 173f 00       		.byte	0
 3135 1740 03       		.uleb128 0x3
ARM GAS  /tmp/ccGUgTIG.s 			page 56


 3136 1741 910D0000 		.4byte	.LASF305
 3137 1745 1A       		.byte	0x1a
 3138 1746 48       		.byte	0x48
 3139 1747 03       		.byte	0x3
 3140 1748 A7160000 		.4byte	0x16a7
 3141 174c 0D       		.uleb128 0xd
 3142 174d 60010000 		.4byte	.LASF306
 3143 1751 10       		.byte	0x10
 3144 1752 1B       		.byte	0x1b
 3145 1753 A9       		.byte	0xa9
 3146 1754 10       		.byte	0x10
 3147 1755 81170000 		.4byte	0x1781
 3148 1759 0B       		.uleb128 0xb
 3149 175a 8C110000 		.4byte	.LASF176
 3150 175e 1B       		.byte	0x1b
 3151 175f AD       		.byte	0xad
 3152 1760 1A       		.byte	0x1a
 3153 1761 81170000 		.4byte	0x1781
 3154 1765 00       		.byte	0
 3155 1766 0B       		.uleb128 0xb
 3156 1767 78090000 		.4byte	.LASF146
 3157 176b 1B       		.byte	0x1b
 3158 176c B1       		.byte	0xb1
 3159 176d 19       		.byte	0x19
 3160 176e E1090000 		.4byte	0x9e1
 3161 1772 04       		.byte	0x4
 3162 1773 0B       		.uleb128 0xb
 3163 1774 D10D0000 		.4byte	.LASF142
 3164 1778 1B       		.byte	0x1b
 3165 1779 B3       		.byte	0xb3
 3166 177a 19       		.byte	0x19
 3167 177b 13080000 		.4byte	0x813
 3168 177f 08       		.byte	0x8
 3169 1780 00       		.byte	0
 3170 1781 0F       		.uleb128 0xf
 3171 1782 04       		.byte	0x4
 3172 1783 4C170000 		.4byte	0x174c
 3173 1787 03       		.uleb128 0x3
 3174 1788 600F0000 		.4byte	.LASF307
 3175 178c 1B       		.byte	0x1b
 3176 178d B7       		.byte	0xb7
 3177 178e 03       		.byte	0x3
 3178 178f 4C170000 		.4byte	0x174c
 3179 1793 0D       		.uleb128 0xd
 3180 1794 B0110000 		.4byte	.LASF308
 3181 1798 04       		.byte	0x4
 3182 1799 1B       		.byte	0x1b
 3183 179a BC       		.byte	0xbc
 3184 179b 10       		.byte	0x10
 3185 179c AE170000 		.4byte	0x17ae
 3186 17a0 0B       		.uleb128 0xb
 3187 17a1 8C110000 		.4byte	.LASF176
 3188 17a5 1B       		.byte	0x1b
 3189 17a6 BD       		.byte	0xbd
 3190 17a7 1A       		.byte	0x1a
 3191 17a8 AE170000 		.4byte	0x17ae
 3192 17ac 00       		.byte	0
ARM GAS  /tmp/ccGUgTIG.s 			page 57


 3193 17ad 00       		.byte	0
 3194 17ae 0F       		.uleb128 0xf
 3195 17af 04       		.byte	0x4
 3196 17b0 87170000 		.4byte	0x1787
 3197 17b4 03       		.uleb128 0x3
 3198 17b5 E40E0000 		.4byte	.LASF309
 3199 17b9 1B       		.byte	0x1b
 3200 17ba BE       		.byte	0xbe
 3201 17bb 03       		.byte	0x3
 3202 17bc 93170000 		.4byte	0x1793
 3203 17c0 0D       		.uleb128 0xd
 3204 17c1 FF040000 		.4byte	.LASF310
 3205 17c5 14       		.byte	0x14
 3206 17c6 1B       		.byte	0x1b
 3207 17c7 C4       		.byte	0xc4
 3208 17c8 10       		.byte	0x10
 3209 17c9 E8170000 		.4byte	0x17e8
 3210 17cd 0B       		.uleb128 0xb
 3211 17ce 8F0B0000 		.4byte	.LASF311
 3212 17d2 1B       		.byte	0x1b
 3213 17d3 C8       		.byte	0xc8
 3214 17d4 19       		.byte	0x19
 3215 17d5 87170000 		.4byte	0x1787
 3216 17d9 00       		.byte	0
 3217 17da 0B       		.uleb128 0xb
 3218 17db A1100000 		.4byte	.LASF312
 3219 17df 1B       		.byte	0x1b
 3220 17e0 CD       		.byte	0xcd
 3221 17e1 1A       		.byte	0x1a
 3222 17e2 FD000000 		.4byte	0xfd
 3223 17e6 10       		.byte	0x10
 3224 17e7 00       		.byte	0
 3225 17e8 03       		.uleb128 0x3
 3226 17e9 CA020000 		.4byte	.LASF313
 3227 17ed 1B       		.byte	0x1b
 3228 17ee CE       		.byte	0xce
 3229 17ef 03       		.byte	0x3
 3230 17f0 C0170000 		.4byte	0x17c0
 3231 17f4 0D       		.uleb128 0xd
 3232 17f5 47060000 		.4byte	.LASF314
 3233 17f9 10       		.byte	0x10
 3234 17fa 1B       		.byte	0x1b
 3235 17fb D5       		.byte	0xd5
 3236 17fc 10       		.byte	0x10
 3237 17fd 0F180000 		.4byte	0x180f
 3238 1801 0B       		.uleb128 0xb
 3239 1802 8F0B0000 		.4byte	.LASF311
 3240 1806 1B       		.byte	0x1b
 3241 1807 D9       		.byte	0xd9
 3242 1808 19       		.byte	0x19
 3243 1809 87170000 		.4byte	0x1787
 3244 180d 00       		.byte	0
 3245 180e 00       		.byte	0
 3246 180f 03       		.uleb128 0x3
 3247 1810 6E060000 		.4byte	.LASF315
 3248 1814 1B       		.byte	0x1b
 3249 1815 DA       		.byte	0xda
ARM GAS  /tmp/ccGUgTIG.s 			page 58


 3250 1816 03       		.byte	0x3
 3251 1817 F4170000 		.4byte	0x17f4
 3252 181b 0D       		.uleb128 0xd
 3253 181c 510B0000 		.4byte	.LASF316
 3254 1820 1C       		.byte	0x1c
 3255 1821 1B       		.byte	0x1b
 3256 1822 E1       		.byte	0xe1
 3257 1823 10       		.byte	0x10
 3258 1824 43180000 		.4byte	0x1843
 3259 1828 0B       		.uleb128 0xb
 3260 1829 8F0B0000 		.4byte	.LASF311
 3261 182d 1B       		.byte	0x1b
 3262 182e E5       		.byte	0xe5
 3263 182f 19       		.byte	0x19
 3264 1830 87170000 		.4byte	0x1787
 3265 1834 00       		.byte	0
 3266 1835 0E       		.uleb128 0xe
 3267 1836 73656D00 		.ascii	"sem\000"
 3268 183a 1B       		.byte	0x1b
 3269 183b E9       		.byte	0xe9
 3270 183c 19       		.byte	0x19
 3271 183d C9140000 		.4byte	0x14c9
 3272 1841 10       		.byte	0x10
 3273 1842 00       		.byte	0
 3274 1843 03       		.uleb128 0x3
 3275 1844 04060000 		.4byte	.LASF317
 3276 1848 1B       		.byte	0x1b
 3277 1849 EA       		.byte	0xea
 3278 184a 03       		.byte	0x3
 3279 184b 1B180000 		.4byte	0x181b
 3280 184f 0D       		.uleb128 0xd
 3281 1850 AE000000 		.4byte	.LASF318
 3282 1854 38       		.byte	0x38
 3283 1855 1B       		.byte	0x1b
 3284 1856 F1       		.byte	0xf1
 3285 1857 10       		.byte	0x10
 3286 1858 77180000 		.4byte	0x1877
 3287 185c 0B       		.uleb128 0xb
 3288 185d 8F0B0000 		.4byte	.LASF311
 3289 1861 1B       		.byte	0x1b
 3290 1862 F5       		.byte	0xf5
 3291 1863 19       		.byte	0x19
 3292 1864 87170000 		.4byte	0x1787
 3293 1868 00       		.byte	0
 3294 1869 0E       		.uleb128 0xe
 3295 186a 6D627800 		.ascii	"mbx\000"
 3296 186e 1B       		.byte	0x1b
 3297 186f F9       		.byte	0xf9
 3298 1870 19       		.byte	0x19
 3299 1871 64150000 		.4byte	0x1564
 3300 1875 10       		.byte	0x10
 3301 1876 00       		.byte	0
 3302 1877 03       		.uleb128 0x3
 3303 1878 BB0B0000 		.4byte	.LASF319
 3304 187c 1B       		.byte	0x1b
 3305 187d FA       		.byte	0xfa
 3306 187e 03       		.byte	0x3
ARM GAS  /tmp/ccGUgTIG.s 			page 59


 3307 187f 4F180000 		.4byte	0x184f
 3308 1883 1A       		.uleb128 0x1a
 3309 1884 7D0D0000 		.4byte	.LASF320
 3310 1888 54       		.byte	0x54
 3311 1889 1B       		.byte	0x1b
 3312 188a 0101     		.2byte	0x101
 3313 188c 10       		.byte	0x10
 3314 188d AE180000 		.4byte	0x18ae
 3315 1891 17       		.uleb128 0x17
 3316 1892 8F0B0000 		.4byte	.LASF311
 3317 1896 1B       		.byte	0x1b
 3318 1897 0501     		.2byte	0x105
 3319 1899 19       		.byte	0x19
 3320 189a 87170000 		.4byte	0x1787
 3321 189e 00       		.byte	0
 3322 189f 17       		.uleb128 0x17
 3323 18a0 98020000 		.4byte	.LASF321
 3324 18a4 1B       		.byte	0x1b
 3325 18a5 0901     		.2byte	0x109
 3326 18a7 19       		.byte	0x19
 3327 18a8 9B160000 		.4byte	0x169b
 3328 18ac 10       		.byte	0x10
 3329 18ad 00       		.byte	0
 3330 18ae 05       		.uleb128 0x5
 3331 18af 21040000 		.4byte	.LASF322
 3332 18b3 1B       		.byte	0x1b
 3333 18b4 0A01     		.2byte	0x10a
 3334 18b6 03       		.byte	0x3
 3335 18b7 83180000 		.4byte	0x1883
 3336 18bb 1A       		.uleb128 0x1a
 3337 18bc B6100000 		.4byte	.LASF323
 3338 18c0 60       		.byte	0x60
 3339 18c1 1B       		.byte	0x1b
 3340 18c2 1101     		.2byte	0x111
 3341 18c4 10       		.byte	0x10
 3342 18c5 E6180000 		.4byte	0x18e6
 3343 18c9 17       		.uleb128 0x17
 3344 18ca 8F0B0000 		.4byte	.LASF311
 3345 18ce 1B       		.byte	0x1b
 3346 18cf 1501     		.2byte	0x115
 3347 18d1 19       		.byte	0x19
 3348 18d2 87170000 		.4byte	0x1787
 3349 18d6 00       		.byte	0
 3350 18d7 17       		.uleb128 0x17
 3351 18d8 E9080000 		.4byte	.LASF324
 3352 18dc 1B       		.byte	0x1b
 3353 18dd 1901     		.2byte	0x119
 3354 18df 19       		.byte	0x19
 3355 18e0 40170000 		.4byte	0x1740
 3356 18e4 10       		.byte	0x10
 3357 18e5 00       		.byte	0
 3358 18e6 05       		.uleb128 0x5
 3359 18e7 CE010000 		.4byte	.LASF325
 3360 18eb 1B       		.byte	0x1b
 3361 18ec 1A01     		.2byte	0x11a
 3362 18ee 03       		.byte	0x3
 3363 18ef BB180000 		.4byte	0x18bb
ARM GAS  /tmp/ccGUgTIG.s 			page 60


 3364 18f3 1A       		.uleb128 0x1a
 3365 18f4 7C080000 		.4byte	.LASF326
 3366 18f8 48       		.byte	0x48
 3367 18f9 1B       		.byte	0x1b
 3368 18fa 2001     		.2byte	0x120
 3369 18fc 10       		.byte	0x10
 3370 18fd 80190000 		.4byte	0x1980
 3371 1901 21       		.uleb128 0x21
 3372 1902 6D747800 		.ascii	"mtx\000"
 3373 1906 1B       		.byte	0x1b
 3374 1907 2501     		.2byte	0x125
 3375 1909 19       		.byte	0x19
 3376 190a D5140000 		.4byte	0x14d5
 3377 190e 00       		.byte	0
 3378 190f 17       		.uleb128 0x17
 3379 1910 D9010000 		.4byte	.LASF327
 3380 1914 1B       		.byte	0x1b
 3381 1915 2C01     		.2byte	0x12c
 3382 1917 19       		.byte	0x19
 3383 1918 B4170000 		.4byte	0x17b4
 3384 191c 10       		.byte	0x10
 3385 191d 17       		.uleb128 0x17
 3386 191e 5F030000 		.4byte	.LASF328
 3387 1922 1B       		.byte	0x1b
 3388 1923 3001     		.2byte	0x130
 3389 1925 19       		.byte	0x19
 3390 1926 37160000 		.4byte	0x1637
 3391 192a 14       		.byte	0x14
 3392 192b 17       		.uleb128 0x17
 3393 192c 3A0B0000 		.4byte	.LASF329
 3394 1930 1B       		.byte	0x1b
 3395 1931 3501     		.2byte	0x135
 3396 1933 19       		.byte	0x19
 3397 1934 B4170000 		.4byte	0x17b4
 3398 1938 24       		.byte	0x24
 3399 1939 17       		.uleb128 0x17
 3400 193a 27050000 		.4byte	.LASF330
 3401 193e 1B       		.byte	0x1b
 3402 193f 3B01     		.2byte	0x13b
 3403 1941 19       		.byte	0x19
 3404 1942 B4170000 		.4byte	0x17b4
 3405 1946 28       		.byte	0x28
 3406 1947 17       		.uleb128 0x17
 3407 1948 55060000 		.4byte	.LASF331
 3408 194c 1B       		.byte	0x1b
 3409 194d 3F01     		.2byte	0x13f
 3410 194f 19       		.byte	0x19
 3411 1950 37160000 		.4byte	0x1637
 3412 1954 2C       		.byte	0x2c
 3413 1955 17       		.uleb128 0x17
 3414 1956 9A0C0000 		.4byte	.LASF332
 3415 195a 1B       		.byte	0x1b
 3416 195b 4501     		.2byte	0x145
 3417 195d 19       		.byte	0x19
 3418 195e B4170000 		.4byte	0x17b4
 3419 1962 3C       		.byte	0x3c
 3420 1963 17       		.uleb128 0x17
ARM GAS  /tmp/ccGUgTIG.s 			page 61


 3421 1964 70070000 		.4byte	.LASF333
 3422 1968 1B       		.byte	0x1b
 3423 1969 4B01     		.2byte	0x14b
 3424 196b 19       		.byte	0x19
 3425 196c B4170000 		.4byte	0x17b4
 3426 1970 40       		.byte	0x40
 3427 1971 17       		.uleb128 0x17
 3428 1972 EB050000 		.4byte	.LASF334
 3429 1976 1B       		.byte	0x1b
 3430 1977 5101     		.2byte	0x151
 3431 1979 19       		.byte	0x19
 3432 197a B4170000 		.4byte	0x17b4
 3433 197e 44       		.byte	0x44
 3434 197f 00       		.byte	0
 3435 1980 05       		.uleb128 0x5
 3436 1981 220B0000 		.4byte	.LASF335
 3437 1985 1B       		.byte	0x1b
 3438 1986 5301     		.2byte	0x153
 3439 1988 03       		.byte	0x3
 3440 1989 F3180000 		.4byte	0x18f3
 3441 198d 20       		.uleb128 0x20
 3442 198e 800C0000 		.4byte	.LASF336
 3443 1992 1B       		.byte	0x1b
 3444 1993 5E01     		.2byte	0x15e
 3445 1995 1A       		.byte	0x1a
 3446 1996 80190000 		.4byte	0x1980
 3447 199a 29       		.uleb128 0x29
 3448 199b 8D190000 		.4byte	0x198d
 3449 199f 1C       		.byte	0x1c
 3450 19a0 48       		.byte	0x48
 3451 19a1 13       		.byte	0x13
 3452 19a2 2A       		.uleb128 0x2a
 3453 19a3 3D000000 		.4byte	.LASF339
 3454 19a7 1C       		.byte	0x1c
 3455 19a8 3103     		.2byte	0x331
 3456 19aa 06       		.byte	0x6
 3457 19ab BD190000 		.4byte	0x19bd
 3458 19af 2B       		.uleb128 0x2b
 3459 19b0 64707000 		.ascii	"dpp\000"
 3460 19b4 1C       		.byte	0x1c
 3461 19b5 3103     		.2byte	0x331
 3462 19b7 27       		.byte	0x27
 3463 19b8 BD190000 		.4byte	0x19bd
 3464 19bc 00       		.byte	0
 3465 19bd 0F       		.uleb128 0xf
 3466 19be 04       		.byte	0x4
 3467 19bf E6180000 		.4byte	0x18e6
 3468 19c3 2C       		.uleb128 0x2c
 3469 19c4 F8020000 		.4byte	.LASF337
 3470 19c8 1C       		.byte	0x1c
 3471 19c9 1B03     		.2byte	0x31b
 3472 19cb 0D       		.byte	0xd
 3473 19cc BD190000 		.4byte	0x19bd
 3474 19d0 EF190000 		.4byte	0x19ef
 3475 19d4 2D       		.uleb128 0x2d
 3476 19d5 D10D0000 		.4byte	.LASF142
 3477 19d9 1C       		.byte	0x1c
ARM GAS  /tmp/ccGUgTIG.s 			page 62


 3478 19da 1B03     		.2byte	0x31b
 3479 19dc 2B       		.byte	0x2b
 3480 19dd E4050000 		.4byte	0x5e4
 3481 19e1 2E       		.uleb128 0x2e
 3482 19e2 64707000 		.ascii	"dpp\000"
 3483 19e6 1C       		.byte	0x1c
 3484 19e7 1C03     		.2byte	0x31c
 3485 19e9 0F       		.byte	0xf
 3486 19ea BD190000 		.4byte	0x19bd
 3487 19ee 00       		.byte	0
 3488 19ef 2C       		.uleb128 0x2c
 3489 19f0 1E0E0000 		.4byte	.LASF338
 3490 19f4 1C       		.byte	0x1c
 3491 19f5 FA02     		.2byte	0x2fa
 3492 19f7 0D       		.byte	0xd
 3493 19f8 BD190000 		.4byte	0x19bd
 3494 19fc 281A0000 		.4byte	0x1a28
 3495 1a00 2D       		.uleb128 0x2d
 3496 1a01 D10D0000 		.4byte	.LASF142
 3497 1a05 1C       		.byte	0x1c
 3498 1a06 FA02     		.2byte	0x2fa
 3499 1a08 2D       		.byte	0x2d
 3500 1a09 E4050000 		.4byte	0x5e4
 3501 1a0d 2D       		.uleb128 0x2d
 3502 1a0e C90B0000 		.4byte	.LASF195
 3503 1a12 1C       		.byte	0x1c
 3504 1a13 FA02     		.2byte	0x2fa
 3505 1a15 3A       		.byte	0x3a
 3506 1a16 24000000 		.4byte	0x24
 3507 1a1a 2E       		.uleb128 0x2e
 3508 1a1b 64707000 		.ascii	"dpp\000"
 3509 1a1f 1C       		.byte	0x1c
 3510 1a20 FB02     		.2byte	0x2fb
 3511 1a22 0F       		.byte	0xf
 3512 1a23 BD190000 		.4byte	0x19bd
 3513 1a27 00       		.byte	0
 3514 1a28 2A       		.uleb128 0x2a
 3515 1a29 AF0E0000 		.4byte	.LASF340
 3516 1a2d 1C       		.byte	0x1c
 3517 1a2e DE02     		.2byte	0x2de
 3518 1a30 06       		.byte	0x6
 3519 1a31 431A0000 		.4byte	0x1a43
 3520 1a35 2D       		.uleb128 0x2d
 3521 1a36 D3050000 		.4byte	.LASF341
 3522 1a3a 1C       		.byte	0x1c
 3523 1a3b DE02     		.2byte	0x2de
 3524 1a3d 36       		.byte	0x36
 3525 1a3e 431A0000 		.4byte	0x1a43
 3526 1a42 00       		.byte	0
 3527 1a43 0F       		.uleb128 0xf
 3528 1a44 04       		.byte	0x4
 3529 1a45 AE180000 		.4byte	0x18ae
 3530 1a49 2C       		.uleb128 0x2c
 3531 1a4a 7F020000 		.4byte	.LASF342
 3532 1a4e 1C       		.byte	0x1c
 3533 1a4f C802     		.2byte	0x2c8
 3534 1a51 15       		.byte	0x15
ARM GAS  /tmp/ccGUgTIG.s 			page 63


 3535 1a52 431A0000 		.4byte	0x1a43
 3536 1a56 751A0000 		.4byte	0x1a75
 3537 1a5a 2D       		.uleb128 0x2d
 3538 1a5b D10D0000 		.4byte	.LASF142
 3539 1a5f 1C       		.byte	0x1c
 3540 1a60 C802     		.2byte	0x2c8
 3541 1a62 3A       		.byte	0x3a
 3542 1a63 E4050000 		.4byte	0x5e4
 3543 1a67 2F       		.uleb128 0x2f
 3544 1a68 D3050000 		.4byte	.LASF341
 3545 1a6c 1C       		.byte	0x1c
 3546 1a6d C902     		.2byte	0x2c9
 3547 1a6f 17       		.byte	0x17
 3548 1a70 431A0000 		.4byte	0x1a43
 3549 1a74 00       		.byte	0
 3550 1a75 2C       		.uleb128 0x2c
 3551 1a76 DC030000 		.4byte	.LASF343
 3552 1a7a 1C       		.byte	0x1c
 3553 1a7b 9802     		.2byte	0x298
 3554 1a7d 15       		.byte	0x15
 3555 1a7e 431A0000 		.4byte	0x1a43
 3556 1a82 FE1A0000 		.4byte	0x1afe
 3557 1a86 2D       		.uleb128 0x2d
 3558 1a87 D10D0000 		.4byte	.LASF142
 3559 1a8b 1C       		.byte	0x1c
 3560 1a8c 9802     		.2byte	0x298
 3561 1a8e 3C       		.byte	0x3c
 3562 1a8f E4050000 		.4byte	0x5e4
 3563 1a93 2D       		.uleb128 0x2d
 3564 1a94 520E0000 		.4byte	.LASF344
 3565 1a98 1C       		.byte	0x1c
 3566 1a99 9902     		.2byte	0x299
 3567 1a9b 37       		.byte	0x37
 3568 1a9c 24000000 		.4byte	0x24
 3569 1aa0 2D       		.uleb128 0x2d
 3570 1aa1 C1060000 		.4byte	.LASF345
 3571 1aa5 1C       		.byte	0x1c
 3572 1aa6 9A02     		.2byte	0x29a
 3573 1aa8 37       		.byte	0x37
 3574 1aa9 24000000 		.4byte	0x24
 3575 1aad 2D       		.uleb128 0x2d
 3576 1aae 7B060000 		.4byte	.LASF346
 3577 1ab2 1C       		.byte	0x1c
 3578 1ab3 9B02     		.2byte	0x29b
 3579 1ab5 39       		.byte	0x39
 3580 1ab6 30000000 		.4byte	0x30
 3581 1aba 2F       		.uleb128 0x2f
 3582 1abb A5050000 		.4byte	.LASF347
 3583 1abf 1C       		.byte	0x1c
 3584 1ac0 9C02     		.2byte	0x29c
 3585 1ac2 0A       		.byte	0xa
 3586 1ac3 24000000 		.4byte	0x24
 3587 1ac7 2F       		.uleb128 0x2f
 3588 1ac8 F0000000 		.4byte	.LASF348
 3589 1acc 1C       		.byte	0x1c
 3590 1acd 9C02     		.2byte	0x29c
 3591 1acf 11       		.byte	0x11
ARM GAS  /tmp/ccGUgTIG.s 			page 64


 3592 1ad0 24000000 		.4byte	0x24
 3593 1ad4 2F       		.uleb128 0x2f
 3594 1ad5 D3050000 		.4byte	.LASF341
 3595 1ad9 1C       		.byte	0x1c
 3596 1ada 9D02     		.2byte	0x29d
 3597 1adc 17       		.byte	0x17
 3598 1add 431A0000 		.4byte	0x1a43
 3599 1ae1 30       		.uleb128 0x30
 3600 1ae2 2F       		.uleb128 0x2f
 3601 1ae3 8D0A0000 		.4byte	.LASF349
 3602 1ae7 1C       		.byte	0x1c
 3603 1ae8 AD02     		.2byte	0x2ad
 3604 1aea 0C       		.byte	0xc
 3605 1aeb 57150000 		.4byte	0x1557
 3606 1aef 2F       		.uleb128 0x2f
 3607 1af0 9E050000 		.4byte	.LASF350
 3608 1af4 1C       		.byte	0x1c
 3609 1af5 AE02     		.2byte	0x2ae
 3610 1af7 0E       		.byte	0xe
 3611 1af8 BA150000 		.4byte	0x15ba
 3612 1afc 00       		.byte	0
 3613 1afd 00       		.byte	0
 3614 1afe 2A       		.uleb128 0x2a
 3615 1aff 0C020000 		.4byte	.LASF351
 3616 1b03 1C       		.byte	0x1c
 3617 1b04 7A02     		.2byte	0x27a
 3618 1b06 06       		.byte	0x6
 3619 1b07 191B0000 		.4byte	0x1b19
 3620 1b0b 2B       		.uleb128 0x2b
 3621 1b0c 646D7000 		.ascii	"dmp\000"
 3622 1b10 1C       		.byte	0x1c
 3623 1b11 7A02     		.2byte	0x27a
 3624 1b13 2D       		.byte	0x2d
 3625 1b14 191B0000 		.4byte	0x1b19
 3626 1b18 00       		.byte	0
 3627 1b19 0F       		.uleb128 0xf
 3628 1b1a 04       		.byte	0x4
 3629 1b1b 77180000 		.4byte	0x1877
 3630 1b1f 2C       		.uleb128 0x2c
 3631 1b20 86090000 		.4byte	.LASF352
 3632 1b24 1C       		.byte	0x1c
 3633 1b25 6402     		.2byte	0x264
 3634 1b27 10       		.byte	0x10
 3635 1b28 191B0000 		.4byte	0x1b19
 3636 1b2c 4B1B0000 		.4byte	0x1b4b
 3637 1b30 2D       		.uleb128 0x2d
 3638 1b31 D10D0000 		.4byte	.LASF142
 3639 1b35 1C       		.byte	0x1c
 3640 1b36 6402     		.2byte	0x264
 3641 1b38 31       		.byte	0x31
 3642 1b39 E4050000 		.4byte	0x5e4
 3643 1b3d 2E       		.uleb128 0x2e
 3644 1b3e 646D7000 		.ascii	"dmp\000"
 3645 1b42 1C       		.byte	0x1c
 3646 1b43 6502     		.2byte	0x265
 3647 1b45 12       		.byte	0x12
 3648 1b46 191B0000 		.4byte	0x1b19
ARM GAS  /tmp/ccGUgTIG.s 			page 65


 3649 1b4a 00       		.byte	0
 3650 1b4b 2C       		.uleb128 0x2c
 3651 1b4c DB090000 		.4byte	.LASF353
 3652 1b50 1C       		.byte	0x1c
 3653 1b51 4302     		.2byte	0x243
 3654 1b53 10       		.byte	0x10
 3655 1b54 191B0000 		.4byte	0x1b19
 3656 1b58 821B0000 		.4byte	0x1b82
 3657 1b5c 2D       		.uleb128 0x2d
 3658 1b5d D10D0000 		.4byte	.LASF142
 3659 1b61 1C       		.byte	0x1c
 3660 1b62 4302     		.2byte	0x243
 3661 1b64 33       		.byte	0x33
 3662 1b65 E4050000 		.4byte	0x5e4
 3663 1b69 2B       		.uleb128 0x2b
 3664 1b6a 6E00     		.ascii	"n\000"
 3665 1b6c 1C       		.byte	0x1c
 3666 1b6d 4302     		.2byte	0x243
 3667 1b6f 40       		.byte	0x40
 3668 1b70 24000000 		.4byte	0x24
 3669 1b74 2E       		.uleb128 0x2e
 3670 1b75 646D7000 		.ascii	"dmp\000"
 3671 1b79 1C       		.byte	0x1c
 3672 1b7a 4402     		.2byte	0x244
 3673 1b7c 12       		.byte	0x12
 3674 1b7d 191B0000 		.4byte	0x1b19
 3675 1b81 00       		.byte	0
 3676 1b82 2A       		.uleb128 0x2a
 3677 1b83 090A0000 		.4byte	.LASF354
 3678 1b87 1C       		.byte	0x1c
 3679 1b88 2702     		.2byte	0x227
 3680 1b8a 06       		.byte	0x6
 3681 1b8b 9D1B0000 		.4byte	0x1b9d
 3682 1b8f 2B       		.uleb128 0x2b
 3683 1b90 64737000 		.ascii	"dsp\000"
 3684 1b94 1C       		.byte	0x1c
 3685 1b95 2702     		.2byte	0x227
 3686 1b97 31       		.byte	0x31
 3687 1b98 9D1B0000 		.4byte	0x1b9d
 3688 1b9c 00       		.byte	0
 3689 1b9d 0F       		.uleb128 0xf
 3690 1b9e 04       		.byte	0x4
 3691 1b9f 43180000 		.4byte	0x1843
 3692 1ba3 2C       		.uleb128 0x2c
 3693 1ba4 89060000 		.4byte	.LASF355
 3694 1ba8 1C       		.byte	0x1c
 3695 1ba9 1102     		.2byte	0x211
 3696 1bab 12       		.byte	0x12
 3697 1bac 9D1B0000 		.4byte	0x1b9d
 3698 1bb0 CF1B0000 		.4byte	0x1bcf
 3699 1bb4 2D       		.uleb128 0x2d
 3700 1bb5 D10D0000 		.4byte	.LASF142
 3701 1bb9 1C       		.byte	0x1c
 3702 1bba 1102     		.2byte	0x211
 3703 1bbc 35       		.byte	0x35
 3704 1bbd E4050000 		.4byte	0x5e4
 3705 1bc1 2E       		.uleb128 0x2e
ARM GAS  /tmp/ccGUgTIG.s 			page 66


 3706 1bc2 64737000 		.ascii	"dsp\000"
 3707 1bc6 1C       		.byte	0x1c
 3708 1bc7 1202     		.2byte	0x212
 3709 1bc9 14       		.byte	0x14
 3710 1bca 9D1B0000 		.4byte	0x1b9d
 3711 1bce 00       		.byte	0
 3712 1bcf 2C       		.uleb128 0x2c
 3713 1bd0 AB0A0000 		.4byte	.LASF356
 3714 1bd4 1C       		.byte	0x1c
 3715 1bd5 F201     		.2byte	0x1f2
 3716 1bd7 12       		.byte	0x12
 3717 1bd8 9D1B0000 		.4byte	0x1b9d
 3718 1bdc 061C0000 		.4byte	0x1c06
 3719 1be0 2D       		.uleb128 0x2d
 3720 1be1 D10D0000 		.4byte	.LASF142
 3721 1be5 1C       		.byte	0x1c
 3722 1be6 F201     		.2byte	0x1f2
 3723 1be8 37       		.byte	0x37
 3724 1be9 E4050000 		.4byte	0x5e4
 3725 1bed 2B       		.uleb128 0x2b
 3726 1bee 6E00     		.ascii	"n\000"
 3727 1bf0 1C       		.byte	0x1c
 3728 1bf1 F201     		.2byte	0x1f2
 3729 1bf3 43       		.byte	0x43
 3730 1bf4 D5090000 		.4byte	0x9d5
 3731 1bf8 2E       		.uleb128 0x2e
 3732 1bf9 64737000 		.ascii	"dsp\000"
 3733 1bfd 1C       		.byte	0x1c
 3734 1bfe F301     		.2byte	0x1f3
 3735 1c00 14       		.byte	0x14
 3736 1c01 9D1B0000 		.4byte	0x1b9d
 3737 1c05 00       		.byte	0
 3738 1c06 2A       		.uleb128 0x2a
 3739 1c07 020D0000 		.4byte	.LASF357
 3740 1c0b 1C       		.byte	0x1c
 3741 1c0c D801     		.2byte	0x1d8
 3742 1c0e 06       		.byte	0x6
 3743 1c0f 211C0000 		.4byte	0x1c21
 3744 1c13 2B       		.uleb128 0x2b
 3745 1c14 64627000 		.ascii	"dbp\000"
 3746 1c18 1C       		.byte	0x1c
 3747 1c19 D801     		.2byte	0x1d8
 3748 1c1b 2B       		.byte	0x2b
 3749 1c1c 211C0000 		.4byte	0x1c21
 3750 1c20 00       		.byte	0
 3751 1c21 0F       		.uleb128 0xf
 3752 1c22 04       		.byte	0x4
 3753 1c23 0F180000 		.4byte	0x180f
 3754 1c27 2C       		.uleb128 0x2c
 3755 1c28 38020000 		.4byte	.LASF358
 3756 1c2c 1C       		.byte	0x1c
 3757 1c2d C201     		.2byte	0x1c2
 3758 1c2f 0F       		.byte	0xf
 3759 1c30 211C0000 		.4byte	0x1c21
 3760 1c34 531C0000 		.4byte	0x1c53
 3761 1c38 2D       		.uleb128 0x2d
 3762 1c39 D10D0000 		.4byte	.LASF142
ARM GAS  /tmp/ccGUgTIG.s 			page 67


 3763 1c3d 1C       		.byte	0x1c
 3764 1c3e C201     		.2byte	0x1c2
 3765 1c40 2F       		.byte	0x2f
 3766 1c41 E4050000 		.4byte	0x5e4
 3767 1c45 2E       		.uleb128 0x2e
 3768 1c46 64627000 		.ascii	"dbp\000"
 3769 1c4a 1C       		.byte	0x1c
 3770 1c4b C301     		.2byte	0x1c3
 3771 1c4d 11       		.byte	0x11
 3772 1c4e 211C0000 		.4byte	0x1c21
 3773 1c52 00       		.byte	0
 3774 1c53 2C       		.uleb128 0x2c
 3775 1c54 970B0000 		.4byte	.LASF359
 3776 1c58 1C       		.byte	0x1c
 3777 1c59 A201     		.2byte	0x1a2
 3778 1c5b 0F       		.byte	0xf
 3779 1c5c 211C0000 		.4byte	0x1c21
 3780 1c60 8C1C0000 		.4byte	0x1c8c
 3781 1c64 2D       		.uleb128 0x2d
 3782 1c65 D10D0000 		.4byte	.LASF142
 3783 1c69 1C       		.byte	0x1c
 3784 1c6a A201     		.2byte	0x1a2
 3785 1c6c 31       		.byte	0x31
 3786 1c6d E4050000 		.4byte	0x5e4
 3787 1c71 2D       		.uleb128 0x2d
 3788 1c72 C90B0000 		.4byte	.LASF195
 3789 1c76 1C       		.byte	0x1c
 3790 1c77 A201     		.2byte	0x1a2
 3791 1c79 3E       		.byte	0x3e
 3792 1c7a 24000000 		.4byte	0x24
 3793 1c7e 2E       		.uleb128 0x2e
 3794 1c7f 64627000 		.ascii	"dbp\000"
 3795 1c83 1C       		.byte	0x1c
 3796 1c84 A301     		.2byte	0x1a3
 3797 1c86 11       		.byte	0x11
 3798 1c87 211C0000 		.4byte	0x1c21
 3799 1c8b 00       		.byte	0
 3800 1c8c 2A       		.uleb128 0x2a
 3801 1c8d EB0C0000 		.4byte	.LASF360
 3802 1c91 1C       		.byte	0x1c
 3803 1c92 8601     		.2byte	0x186
 3804 1c94 06       		.byte	0x6
 3805 1c95 A71C0000 		.4byte	0x1ca7
 3806 1c99 2B       		.uleb128 0x2b
 3807 1c9a 726F7000 		.ascii	"rop\000"
 3808 1c9e 1C       		.byte	0x1c
 3809 1c9f 8601     		.2byte	0x186
 3810 1ca1 32       		.byte	0x32
 3811 1ca2 A71C0000 		.4byte	0x1ca7
 3812 1ca6 00       		.byte	0
 3813 1ca7 0F       		.uleb128 0xf
 3814 1ca8 04       		.byte	0x4
 3815 1ca9 E8170000 		.4byte	0x17e8
 3816 1cad 2C       		.uleb128 0x2c
 3817 1cae F40D0000 		.4byte	.LASF361
 3818 1cb2 1C       		.byte	0x1c
 3819 1cb3 6501     		.2byte	0x165
ARM GAS  /tmp/ccGUgTIG.s 			page 68


 3820 1cb5 16       		.byte	0x16
 3821 1cb6 A71C0000 		.4byte	0x1ca7
 3822 1cba D91C0000 		.4byte	0x1cd9
 3823 1cbe 2D       		.uleb128 0x2d
 3824 1cbf A1100000 		.4byte	.LASF312
 3825 1cc3 1C       		.byte	0x1c
 3826 1cc4 6501     		.2byte	0x165
 3827 1cc6 39       		.byte	0x39
 3828 1cc7 FD000000 		.4byte	0xfd
 3829 1ccb 2E       		.uleb128 0x2e
 3830 1ccc 726F7000 		.ascii	"rop\000"
 3831 1cd0 1C       		.byte	0x1c
 3832 1cd1 6601     		.2byte	0x166
 3833 1cd3 18       		.byte	0x18
 3834 1cd4 A71C0000 		.4byte	0x1ca7
 3835 1cd8 00       		.byte	0
 3836 1cd9 2C       		.uleb128 0x2c
 3837 1cda 24020000 		.4byte	.LASF362
 3838 1cde 1C       		.byte	0x1c
 3839 1cdf 4C01     		.2byte	0x14c
 3840 1ce1 16       		.byte	0x16
 3841 1ce2 A71C0000 		.4byte	0x1ca7
 3842 1ce6 051D0000 		.4byte	0x1d05
 3843 1cea 2D       		.uleb128 0x2d
 3844 1ceb D10D0000 		.4byte	.LASF142
 3845 1cef 1C       		.byte	0x1c
 3846 1cf0 4C01     		.2byte	0x14c
 3847 1cf2 36       		.byte	0x36
 3848 1cf3 E4050000 		.4byte	0x5e4
 3849 1cf7 2E       		.uleb128 0x2e
 3850 1cf8 726F7000 		.ascii	"rop\000"
 3851 1cfc 1C       		.byte	0x1c
 3852 1cfd 4D01     		.2byte	0x14d
 3853 1cff 18       		.byte	0x18
 3854 1d00 A71C0000 		.4byte	0x1ca7
 3855 1d04 00       		.byte	0
 3856 1d05 2C       		.uleb128 0x2c
 3857 1d06 A9040000 		.4byte	.LASF363
 3858 1d0a 1C       		.byte	0x1c
 3859 1d0b 2C01     		.2byte	0x12c
 3860 1d0d 16       		.byte	0x16
 3861 1d0e A71C0000 		.4byte	0x1ca7
 3862 1d12 3E1D0000 		.4byte	0x1d3e
 3863 1d16 2D       		.uleb128 0x2d
 3864 1d17 D10D0000 		.4byte	.LASF142
 3865 1d1b 1C       		.byte	0x1c
 3866 1d1c 2C01     		.2byte	0x12c
 3867 1d1e 3A       		.byte	0x3a
 3868 1d1f E4050000 		.4byte	0x5e4
 3869 1d23 2D       		.uleb128 0x2d
 3870 1d24 A1100000 		.4byte	.LASF312
 3871 1d28 1C       		.byte	0x1c
 3872 1d29 2D01     		.2byte	0x12d
 3873 1d2b 34       		.byte	0x34
 3874 1d2c FD000000 		.4byte	0xfd
 3875 1d30 2E       		.uleb128 0x2e
 3876 1d31 726F7000 		.ascii	"rop\000"
ARM GAS  /tmp/ccGUgTIG.s 			page 69


 3877 1d35 1C       		.byte	0x1c
 3878 1d36 2E01     		.2byte	0x12e
 3879 1d38 18       		.byte	0x18
 3880 1d39 A71C0000 		.4byte	0x1ca7
 3881 1d3d 00       		.byte	0
 3882 1d3e 31       		.uleb128 0x31
 3883 1d3f F7030000 		.4byte	.LASF381
 3884 1d43 1C       		.byte	0x1c
 3885 1d44 FB       		.byte	0xfb
 3886 1d45 06       		.byte	0x6
 3887 1d46 32       		.uleb128 0x32
 3888 1d47 710B0000 		.4byte	.LASF365
 3889 1d4b 1C       		.byte	0x1c
 3890 1d4c E3       		.byte	0xe3
 3891 1d4d 17       		.byte	0x17
 3892 1d4e AE170000 		.4byte	0x17ae
 3893 1d52 841D0000 		.4byte	0x1d84
 3894 1d56 33       		.uleb128 0x33
 3895 1d57 D10D0000 		.4byte	.LASF142
 3896 1d5b 1C       		.byte	0x1c
 3897 1d5c E3       		.byte	0xe3
 3898 1d5d 33       		.byte	0x33
 3899 1d5e E4050000 		.4byte	0x5e4
 3900 1d62 34       		.uleb128 0x34
 3901 1d63 646C7000 		.ascii	"dlp\000"
 3902 1d67 1C       		.byte	0x1c
 3903 1d68 E3       		.byte	0xe3
 3904 1d69 45       		.byte	0x45
 3905 1d6a 841D0000 		.4byte	0x1d84
 3906 1d6e 35       		.uleb128 0x35
 3907 1d6f 64657000 		.ascii	"dep\000"
 3908 1d73 1C       		.byte	0x1c
 3909 1d74 E4       		.byte	0xe4
 3910 1d75 12       		.byte	0x12
 3911 1d76 AE170000 		.4byte	0x17ae
 3912 1d7a 36       		.uleb128 0x36
 3913 1d7b FE000000 		.4byte	.LASF364
 3914 1d7f 9A1D0000 		.4byte	0x1d9a
 3915 1d83 00       		.byte	0
 3916 1d84 0F       		.uleb128 0xf
 3917 1d85 04       		.byte	0x4
 3918 1d86 B4170000 		.4byte	0x17b4
 3919 1d8a 08       		.uleb128 0x8
 3920 1d8b BB050000 		.4byte	0x5bb
 3921 1d8f 9A1D0000 		.4byte	0x1d9a
 3922 1d93 09       		.uleb128 0x9
 3923 1d94 30000000 		.4byte	0x30
 3924 1d98 0F       		.byte	0xf
 3925 1d99 00       		.byte	0
 3926 1d9a 15       		.uleb128 0x15
 3927 1d9b 8A1D0000 		.4byte	0x1d8a
 3928 1d9f 37       		.uleb128 0x37
 3929 1da0 BB050000 		.4byte	.LASF367
 3930 1da4 1C       		.byte	0x1c
 3931 1da5 D4       		.byte	0xd4
 3932 1da6 0D       		.byte	0xd
 3933 1da7 D81D0000 		.4byte	0x1dd8
ARM GAS  /tmp/ccGUgTIG.s 			page 70


 3934 1dab 34       		.uleb128 0x34
 3935 1dac 64657000 		.ascii	"dep\000"
 3936 1db0 1C       		.byte	0x1c
 3937 1db1 D4       		.byte	0xd4
 3938 1db2 34       		.byte	0x34
 3939 1db3 AE170000 		.4byte	0x17ae
 3940 1db7 34       		.uleb128 0x34
 3941 1db8 646C7000 		.ascii	"dlp\000"
 3942 1dbc 1C       		.byte	0x1c
 3943 1dbd D5       		.byte	0xd5
 3944 1dbe 31       		.byte	0x31
 3945 1dbf 841D0000 		.4byte	0x1d84
 3946 1dc3 34       		.uleb128 0x34
 3947 1dc4 6D7000   		.ascii	"mp\000"
 3948 1dc7 1C       		.byte	0x1c
 3949 1dc8 D6       		.byte	0xd6
 3950 1dc9 34       		.byte	0x34
 3951 1dca D81D0000 		.4byte	0x1dd8
 3952 1dce 36       		.uleb128 0x36
 3953 1dcf FE000000 		.4byte	.LASF364
 3954 1dd3 EE1D0000 		.4byte	0x1dee
 3955 1dd7 00       		.byte	0
 3956 1dd8 0F       		.uleb128 0xf
 3957 1dd9 04       		.byte	0x4
 3958 1dda 37160000 		.4byte	0x1637
 3959 1dde 08       		.uleb128 0x8
 3960 1ddf BB050000 		.4byte	0x5bb
 3961 1de3 EE1D0000 		.4byte	0x1dee
 3962 1de7 09       		.uleb128 0x9
 3963 1de8 30000000 		.4byte	0x30
 3964 1dec 17       		.byte	0x17
 3965 1ded 00       		.byte	0
 3966 1dee 15       		.uleb128 0x15
 3967 1def DE1D0000 		.4byte	0x1dde
 3968 1df3 32       		.uleb128 0x32
 3969 1df4 C4070000 		.4byte	.LASF366
 3970 1df8 1C       		.byte	0x1c
 3971 1df9 B6       		.byte	0xb6
 3972 1dfa 17       		.byte	0x17
 3973 1dfb AE170000 		.4byte	0x17ae
 3974 1dff 3C1E0000 		.4byte	0x1e3c
 3975 1e03 33       		.uleb128 0x33
 3976 1e04 D10D0000 		.4byte	.LASF142
 3977 1e08 1C       		.byte	0x1c
 3978 1e09 B6       		.byte	0xb6
 3979 1e0a 3A       		.byte	0x3a
 3980 1e0b E4050000 		.4byte	0x5e4
 3981 1e0f 34       		.uleb128 0x34
 3982 1e10 646C7000 		.ascii	"dlp\000"
 3983 1e14 1C       		.byte	0x1c
 3984 1e15 B7       		.byte	0xb7
 3985 1e16 3A       		.byte	0x3a
 3986 1e17 841D0000 		.4byte	0x1d84
 3987 1e1b 34       		.uleb128 0x34
 3988 1e1c 6D7000   		.ascii	"mp\000"
 3989 1e1f 1C       		.byte	0x1c
 3990 1e20 B8       		.byte	0xb8
ARM GAS  /tmp/ccGUgTIG.s 			page 71


 3991 1e21 3D       		.byte	0x3d
 3992 1e22 D81D0000 		.4byte	0x1dd8
 3993 1e26 35       		.uleb128 0x35
 3994 1e27 64657000 		.ascii	"dep\000"
 3995 1e2b 1C       		.byte	0x1c
 3996 1e2c B9       		.byte	0xb9
 3997 1e2d 12       		.byte	0x12
 3998 1e2e AE170000 		.4byte	0x17ae
 3999 1e32 36       		.uleb128 0x36
 4000 1e33 FE000000 		.4byte	.LASF364
 4001 1e37 4C1E0000 		.4byte	0x1e4c
 4002 1e3b 00       		.byte	0
 4003 1e3c 08       		.uleb128 0x8
 4004 1e3d BB050000 		.4byte	0x5bb
 4005 1e41 4C1E0000 		.4byte	0x1e4c
 4006 1e45 09       		.uleb128 0x9
 4007 1e46 30000000 		.4byte	0x30
 4008 1e4a 16       		.byte	0x16
 4009 1e4b 00       		.byte	0
 4010 1e4c 15       		.uleb128 0x15
 4011 1e4d 3C1E0000 		.4byte	0x1e3c
 4012 1e51 37       		.uleb128 0x37
 4013 1e52 B4080000 		.4byte	.LASF368
 4014 1e56 1C       		.byte	0x1c
 4015 1e57 A7       		.byte	0xa7
 4016 1e58 0D       		.byte	0xd
 4017 1e59 7F1E0000 		.4byte	0x1e7f
 4018 1e5d 34       		.uleb128 0x34
 4019 1e5e 64657000 		.ascii	"dep\000"
 4020 1e62 1C       		.byte	0x1c
 4021 1e63 A7       		.byte	0xa7
 4022 1e64 34       		.byte	0x34
 4023 1e65 AE170000 		.4byte	0x17ae
 4024 1e69 34       		.uleb128 0x34
 4025 1e6a 646C7000 		.ascii	"dlp\000"
 4026 1e6e 1C       		.byte	0x1c
 4027 1e6f A8       		.byte	0xa8
 4028 1e70 31       		.byte	0x31
 4029 1e71 841D0000 		.4byte	0x1d84
 4030 1e75 36       		.uleb128 0x36
 4031 1e76 FE000000 		.4byte	.LASF364
 4032 1e7a EE1D0000 		.4byte	0x1dee
 4033 1e7e 00       		.byte	0
 4034 1e7f 32       		.uleb128 0x32
 4035 1e80 A0060000 		.4byte	.LASF369
 4036 1e84 1C       		.byte	0x1c
 4037 1e85 88       		.byte	0x88
 4038 1e86 17       		.byte	0x17
 4039 1e87 AE170000 		.4byte	0x17ae
 4040 1e8b D51E0000 		.4byte	0x1ed5
 4041 1e8f 33       		.uleb128 0x33
 4042 1e90 D10D0000 		.4byte	.LASF142
 4043 1e94 1C       		.byte	0x1c
 4044 1e95 88       		.byte	0x88
 4045 1e96 3A       		.byte	0x3a
 4046 1e97 E4050000 		.4byte	0x5e4
 4047 1e9b 34       		.uleb128 0x34
ARM GAS  /tmp/ccGUgTIG.s 			page 72


 4048 1e9c 646C7000 		.ascii	"dlp\000"
 4049 1ea0 1C       		.byte	0x1c
 4050 1ea1 89       		.byte	0x89
 4051 1ea2 3A       		.byte	0x3a
 4052 1ea3 841D0000 		.4byte	0x1d84
 4053 1ea7 33       		.uleb128 0x33
 4054 1ea8 C90B0000 		.4byte	.LASF195
 4055 1eac 1C       		.byte	0x1c
 4056 1ead 8A       		.byte	0x8a
 4057 1eae 35       		.byte	0x35
 4058 1eaf 24000000 		.4byte	0x24
 4059 1eb3 33       		.uleb128 0x33
 4060 1eb4 03090000 		.4byte	.LASF294
 4061 1eb8 1C       		.byte	0x1c
 4062 1eb9 8B       		.byte	0x8b
 4063 1eba 37       		.byte	0x37
 4064 1ebb 30000000 		.4byte	0x30
 4065 1ebf 35       		.uleb128 0x35
 4066 1ec0 64657000 		.ascii	"dep\000"
 4067 1ec4 1C       		.byte	0x1c
 4068 1ec5 8C       		.byte	0x8c
 4069 1ec6 12       		.byte	0x12
 4070 1ec7 AE170000 		.4byte	0x17ae
 4071 1ecb 36       		.uleb128 0x36
 4072 1ecc FE000000 		.4byte	.LASF364
 4073 1ed0 4C1E0000 		.4byte	0x1e4c
 4074 1ed4 00       		.byte	0
 4075 1ed5 32       		.uleb128 0x32
 4076 1ed6 DB0C0000 		.4byte	.LASF370
 4077 1eda 1C       		.byte	0x1c
 4078 1edb 74       		.byte	0x74
 4079 1edc 17       		.byte	0x17
 4080 1edd AE170000 		.4byte	0x17ae
 4081 1ee1 0A1F0000 		.4byte	0x1f0a
 4082 1ee5 33       		.uleb128 0x33
 4083 1ee6 8F0B0000 		.4byte	.LASF311
 4084 1eea 1C       		.byte	0x1c
 4085 1eeb 74       		.byte	0x74
 4086 1eec 36       		.byte	0x36
 4087 1eed AE170000 		.4byte	0x17ae
 4088 1ef1 34       		.uleb128 0x34
 4089 1ef2 646C7000 		.ascii	"dlp\000"
 4090 1ef6 1C       		.byte	0x1c
 4091 1ef7 75       		.byte	0x75
 4092 1ef8 33       		.byte	0x33
 4093 1ef9 841D0000 		.4byte	0x1d84
 4094 1efd 38       		.uleb128 0x38
 4095 1efe 34110000 		.4byte	.LASF179
 4096 1f02 1C       		.byte	0x1c
 4097 1f03 76       		.byte	0x76
 4098 1f04 12       		.byte	0x12
 4099 1f05 AE170000 		.4byte	0x17ae
 4100 1f09 00       		.byte	0
 4101 1f0a 32       		.uleb128 0x32
 4102 1f0b 080B0000 		.4byte	.LASF371
 4103 1f0f 1C       		.byte	0x1c
 4104 1f10 67       		.byte	0x67
ARM GAS  /tmp/ccGUgTIG.s 			page 73


 4105 1f11 17       		.byte	0x17
 4106 1f12 AE170000 		.4byte	0x17ae
 4107 1f16 3D1F0000 		.4byte	0x1f3d
 4108 1f1a 33       		.uleb128 0x33
 4109 1f1b D10D0000 		.4byte	.LASF142
 4110 1f1f 1C       		.byte	0x1c
 4111 1f20 67       		.byte	0x67
 4112 1f21 31       		.byte	0x31
 4113 1f22 E4050000 		.4byte	0x5e4
 4114 1f26 34       		.uleb128 0x34
 4115 1f27 646C7000 		.ascii	"dlp\000"
 4116 1f2b 1C       		.byte	0x1c
 4117 1f2c 67       		.byte	0x67
 4118 1f2d 43       		.byte	0x43
 4119 1f2e 841D0000 		.4byte	0x1d84
 4120 1f32 35       		.uleb128 0x35
 4121 1f33 7000     		.ascii	"p\000"
 4122 1f35 1C       		.byte	0x1c
 4123 1f36 68       		.byte	0x68
 4124 1f37 12       		.byte	0x12
 4125 1f38 AE170000 		.4byte	0x17ae
 4126 1f3c 00       		.byte	0
 4127 1f3d 37       		.uleb128 0x37
 4128 1f3e 94040000 		.4byte	.LASF372
 4129 1f42 1C       		.byte	0x1c
 4130 1f43 62       		.byte	0x62
 4131 1f44 14       		.byte	0x14
 4132 1f45 561F0000 		.4byte	0x1f56
 4133 1f49 34       		.uleb128 0x34
 4134 1f4a 646C7000 		.ascii	"dlp\000"
 4135 1f4e 1C       		.byte	0x1c
 4136 1f4f 62       		.byte	0x62
 4137 1f50 2E       		.byte	0x2e
 4138 1f51 841D0000 		.4byte	0x1d84
 4139 1f55 00       		.byte	0
 4140 1f56 37       		.uleb128 0x37
 4141 1f57 6F010000 		.4byte	.LASF373
 4142 1f5b 1C       		.byte	0x1c
 4143 1f5c 56       		.byte	0x56
 4144 1f5d 0D       		.byte	0xd
 4145 1f5e 8D1F0000 		.4byte	0x1f8d
 4146 1f62 34       		.uleb128 0x34
 4147 1f63 737000   		.ascii	"sp\000"
 4148 1f66 1C       		.byte	0x1c
 4149 1f67 56       		.byte	0x56
 4150 1f68 23       		.byte	0x23
 4151 1f69 E4050000 		.4byte	0x5e4
 4152 1f6d 34       		.uleb128 0x34
 4153 1f6e 647000   		.ascii	"dp\000"
 4154 1f71 1C       		.byte	0x1c
 4155 1f72 56       		.byte	0x56
 4156 1f73 2D       		.byte	0x2d
 4157 1f74 AE050000 		.4byte	0x5ae
 4158 1f78 35       		.uleb128 0x35
 4159 1f79 6900     		.ascii	"i\000"
 4160 1f7b 1C       		.byte	0x1c
 4161 1f7c 57       		.byte	0x57
ARM GAS  /tmp/ccGUgTIG.s 			page 74


 4162 1f7d 0C       		.byte	0xc
 4163 1f7e 30000000 		.4byte	0x30
 4164 1f82 35       		.uleb128 0x35
 4165 1f83 6300     		.ascii	"c\000"
 4166 1f85 1C       		.byte	0x1c
 4167 1f86 58       		.byte	0x58
 4168 1f87 08       		.byte	0x8
 4169 1f88 B4050000 		.4byte	0x5b4
 4170 1f8c 00       		.byte	0
 4171 1f8d 37       		.uleb128 0x37
 4172 1f8e 21080000 		.4byte	.LASF374
 4173 1f92 19       		.byte	0x19
 4174 1f93 80       		.byte	0x80
 4175 1f94 14       		.byte	0x14
 4176 1f95 EB1F0000 		.4byte	0x1feb
 4177 1f99 34       		.uleb128 0x34
 4178 1f9a 6F667000 		.ascii	"ofp\000"
 4179 1f9e 19       		.byte	0x19
 4180 1f9f 80       		.byte	0x80
 4181 1fa0 3C       		.byte	0x3c
 4182 1fa1 EB1F0000 		.4byte	0x1feb
 4183 1fa5 33       		.uleb128 0x33
 4184 1fa6 520E0000 		.4byte	.LASF344
 4185 1faa 19       		.byte	0x19
 4186 1fab 80       		.byte	0x80
 4187 1fac 48       		.byte	0x48
 4188 1fad 24000000 		.4byte	0x24
 4189 1fb1 33       		.uleb128 0x33
 4190 1fb2 C1060000 		.4byte	.LASF345
 4191 1fb6 19       		.byte	0x19
 4192 1fb7 81       		.byte	0x81
 4193 1fb8 33       		.byte	0x33
 4194 1fb9 24000000 		.4byte	0x24
 4195 1fbd 33       		.uleb128 0x33
 4196 1fbe 7B060000 		.4byte	.LASF346
 4197 1fc2 19       		.byte	0x19
 4198 1fc3 81       		.byte	0x81
 4199 1fc4 42       		.byte	0x42
 4200 1fc5 30000000 		.4byte	0x30
 4201 1fc9 33       		.uleb128 0x33
 4202 1fca 9E050000 		.4byte	.LASF350
 4203 1fce 19       		.byte	0x19
 4204 1fcf 82       		.byte	0x82
 4205 1fd0 32       		.byte	0x32
 4206 1fd1 FD000000 		.4byte	0xfd
 4207 1fd5 33       		.uleb128 0x33
 4208 1fd6 8D0A0000 		.4byte	.LASF349
 4209 1fda 19       		.byte	0x19
 4210 1fdb 82       		.byte	0x82
 4211 1fdc 41       		.byte	0x41
 4212 1fdd 57150000 		.4byte	0x1557
 4213 1fe1 36       		.uleb128 0x36
 4214 1fe2 FE000000 		.4byte	.LASF364
 4215 1fe6 EE1D0000 		.4byte	0x1dee
 4216 1fea 00       		.byte	0
 4217 1feb 0F       		.uleb128 0xf
 4218 1fec 04       		.byte	0x4
ARM GAS  /tmp/ccGUgTIG.s 			page 75


 4219 1fed 9B160000 		.4byte	0x169b
 4220 1ff1 37       		.uleb128 0x37
 4221 1ff2 10040000 		.4byte	.LASF375
 4222 1ff6 18       		.byte	0x18
 4223 1ff7 BD       		.byte	0xbd
 4224 1ff8 14       		.byte	0x14
 4225 1ff9 21200000 		.4byte	0x2021
 4226 1ffd 34       		.uleb128 0x34
 4227 1ffe 6D7000   		.ascii	"mp\000"
 4228 2001 18       		.byte	0x18
 4229 2002 BD       		.byte	0xbd
 4230 2003 34       		.byte	0x34
 4231 2004 D81D0000 		.4byte	0x1dd8
 4232 2008 33       		.uleb128 0x33
 4233 2009 C90B0000 		.4byte	.LASF195
 4234 200d 18       		.byte	0x18
 4235 200e BE       		.byte	0xbe
 4236 200f 2C       		.byte	0x2c
 4237 2010 24000000 		.4byte	0x24
 4238 2014 33       		.uleb128 0x33
 4239 2015 C6000000 		.4byte	.LASF295
 4240 2019 18       		.byte	0x18
 4241 201a BF       		.byte	0xbf
 4242 201b 32       		.byte	0x32
 4243 201c 70150000 		.4byte	0x1570
 4244 2020 00       		.byte	0
 4245 2021 39       		.uleb128 0x39
 4246 2022 40040000 		.4byte	.LASF376
 4247 2026 17       		.byte	0x17
 4248 2027 96       		.byte	0x96
 4249 2028 15       		.byte	0x15
 4250 2029 FD000000 		.4byte	0xfd
 4251 202d 33       		.uleb128 0x33
 4252 202e C90B0000 		.4byte	.LASF195
 4253 2032 17       		.byte	0x17
 4254 2033 96       		.byte	0x96
 4255 2034 30       		.byte	0x30
 4256 2035 24000000 		.4byte	0x24
 4257 2039 33       		.uleb128 0x33
 4258 203a 03090000 		.4byte	.LASF294
 4259 203e 17       		.byte	0x17
 4260 203f 96       		.byte	0x96
 4261 2040 3F       		.byte	0x3f
 4262 2041 30000000 		.4byte	0x30
 4263 2045 00       		.byte	0
 4264 2046 00       		.byte	0
 4265              		.section	.gnu.debuglto_.debug_abbrev,"e",%progbits
 4266              	.Ldebug_abbrev0:
 4267 0000 01       		.uleb128 0x1
 4268 0001 11       		.uleb128 0x11
 4269 0002 01       		.byte	0x1
 4270 0003 25       		.uleb128 0x25
 4271 0004 0E       		.uleb128 0xe
 4272 0005 13       		.uleb128 0x13
 4273 0006 0B       		.uleb128 0xb
 4274 0007 03       		.uleb128 0x3
 4275 0008 0E       		.uleb128 0xe
ARM GAS  /tmp/ccGUgTIG.s 			page 76


 4276 0009 1B       		.uleb128 0x1b
 4277 000a 0E       		.uleb128 0xe
 4278 000b 10       		.uleb128 0x10
 4279 000c 17       		.uleb128 0x17
 4280 000d 00       		.byte	0
 4281 000e 00       		.byte	0
 4282 000f 02       		.uleb128 0x2
 4283 0010 24       		.uleb128 0x24
 4284 0011 00       		.byte	0
 4285 0012 0B       		.uleb128 0xb
 4286 0013 0B       		.uleb128 0xb
 4287 0014 3E       		.uleb128 0x3e
 4288 0015 0B       		.uleb128 0xb
 4289 0016 03       		.uleb128 0x3
 4290 0017 08       		.uleb128 0x8
 4291 0018 00       		.byte	0
 4292 0019 00       		.byte	0
 4293 001a 03       		.uleb128 0x3
 4294 001b 16       		.uleb128 0x16
 4295 001c 00       		.byte	0
 4296 001d 03       		.uleb128 0x3
 4297 001e 0E       		.uleb128 0xe
 4298 001f 3A       		.uleb128 0x3a
 4299 0020 0B       		.uleb128 0xb
 4300 0021 3B       		.uleb128 0x3b
 4301 0022 0B       		.uleb128 0xb
 4302 0023 39       		.uleb128 0x39
 4303 0024 0B       		.uleb128 0xb
 4304 0025 49       		.uleb128 0x49
 4305 0026 13       		.uleb128 0x13
 4306 0027 00       		.byte	0
 4307 0028 00       		.byte	0
 4308 0029 04       		.uleb128 0x4
 4309 002a 24       		.uleb128 0x24
 4310 002b 00       		.byte	0
 4311 002c 0B       		.uleb128 0xb
 4312 002d 0B       		.uleb128 0xb
 4313 002e 3E       		.uleb128 0x3e
 4314 002f 0B       		.uleb128 0xb
 4315 0030 03       		.uleb128 0x3
 4316 0031 0E       		.uleb128 0xe
 4317 0032 00       		.byte	0
 4318 0033 00       		.byte	0
 4319 0034 05       		.uleb128 0x5
 4320 0035 16       		.uleb128 0x16
 4321 0036 00       		.byte	0
 4322 0037 03       		.uleb128 0x3
 4323 0038 0E       		.uleb128 0xe
 4324 0039 3A       		.uleb128 0x3a
 4325 003a 0B       		.uleb128 0xb
 4326 003b 3B       		.uleb128 0x3b
 4327 003c 05       		.uleb128 0x5
 4328 003d 39       		.uleb128 0x39
 4329 003e 0B       		.uleb128 0xb
 4330 003f 49       		.uleb128 0x49
 4331 0040 13       		.uleb128 0x13
 4332 0041 00       		.byte	0
ARM GAS  /tmp/ccGUgTIG.s 			page 77


 4333 0042 00       		.byte	0
 4334 0043 06       		.uleb128 0x6
 4335 0044 17       		.uleb128 0x17
 4336 0045 01       		.byte	0x1
 4337 0046 0B       		.uleb128 0xb
 4338 0047 0B       		.uleb128 0xb
 4339 0048 3A       		.uleb128 0x3a
 4340 0049 0B       		.uleb128 0xb
 4341 004a 3B       		.uleb128 0x3b
 4342 004b 0B       		.uleb128 0xb
 4343 004c 39       		.uleb128 0x39
 4344 004d 0B       		.uleb128 0xb
 4345 004e 01       		.uleb128 0x1
 4346 004f 13       		.uleb128 0x13
 4347 0050 00       		.byte	0
 4348 0051 00       		.byte	0
 4349 0052 07       		.uleb128 0x7
 4350 0053 0D       		.uleb128 0xd
 4351 0054 00       		.byte	0
 4352 0055 03       		.uleb128 0x3
 4353 0056 0E       		.uleb128 0xe
 4354 0057 3A       		.uleb128 0x3a
 4355 0058 0B       		.uleb128 0xb
 4356 0059 3B       		.uleb128 0x3b
 4357 005a 0B       		.uleb128 0xb
 4358 005b 39       		.uleb128 0x39
 4359 005c 0B       		.uleb128 0xb
 4360 005d 49       		.uleb128 0x49
 4361 005e 13       		.uleb128 0x13
 4362 005f 00       		.byte	0
 4363 0060 00       		.byte	0
 4364 0061 08       		.uleb128 0x8
 4365 0062 01       		.uleb128 0x1
 4366 0063 01       		.byte	0x1
 4367 0064 49       		.uleb128 0x49
 4368 0065 13       		.uleb128 0x13
 4369 0066 01       		.uleb128 0x1
 4370 0067 13       		.uleb128 0x13
 4371 0068 00       		.byte	0
 4372 0069 00       		.byte	0
 4373 006a 09       		.uleb128 0x9
 4374 006b 21       		.uleb128 0x21
 4375 006c 00       		.byte	0
 4376 006d 49       		.uleb128 0x49
 4377 006e 13       		.uleb128 0x13
 4378 006f 2F       		.uleb128 0x2f
 4379 0070 0B       		.uleb128 0xb
 4380 0071 00       		.byte	0
 4381 0072 00       		.byte	0
 4382 0073 0A       		.uleb128 0xa
 4383 0074 13       		.uleb128 0x13
 4384 0075 01       		.byte	0x1
 4385 0076 0B       		.uleb128 0xb
 4386 0077 0B       		.uleb128 0xb
 4387 0078 3A       		.uleb128 0x3a
 4388 0079 0B       		.uleb128 0xb
 4389 007a 3B       		.uleb128 0x3b
ARM GAS  /tmp/ccGUgTIG.s 			page 78


 4390 007b 0B       		.uleb128 0xb
 4391 007c 39       		.uleb128 0x39
 4392 007d 0B       		.uleb128 0xb
 4393 007e 01       		.uleb128 0x1
 4394 007f 13       		.uleb128 0x13
 4395 0080 00       		.byte	0
 4396 0081 00       		.byte	0
 4397 0082 0B       		.uleb128 0xb
 4398 0083 0D       		.uleb128 0xd
 4399 0084 00       		.byte	0
 4400 0085 03       		.uleb128 0x3
 4401 0086 0E       		.uleb128 0xe
 4402 0087 3A       		.uleb128 0x3a
 4403 0088 0B       		.uleb128 0xb
 4404 0089 3B       		.uleb128 0x3b
 4405 008a 0B       		.uleb128 0xb
 4406 008b 39       		.uleb128 0x39
 4407 008c 0B       		.uleb128 0xb
 4408 008d 49       		.uleb128 0x49
 4409 008e 13       		.uleb128 0x13
 4410 008f 38       		.uleb128 0x38
 4411 0090 0B       		.uleb128 0xb
 4412 0091 00       		.byte	0
 4413 0092 00       		.byte	0
 4414 0093 0C       		.uleb128 0xc
 4415 0094 0F       		.uleb128 0xf
 4416 0095 00       		.byte	0
 4417 0096 0B       		.uleb128 0xb
 4418 0097 0B       		.uleb128 0xb
 4419 0098 00       		.byte	0
 4420 0099 00       		.byte	0
 4421 009a 0D       		.uleb128 0xd
 4422 009b 13       		.uleb128 0x13
 4423 009c 01       		.byte	0x1
 4424 009d 03       		.uleb128 0x3
 4425 009e 0E       		.uleb128 0xe
 4426 009f 0B       		.uleb128 0xb
 4427 00a0 0B       		.uleb128 0xb
 4428 00a1 3A       		.uleb128 0x3a
 4429 00a2 0B       		.uleb128 0xb
 4430 00a3 3B       		.uleb128 0x3b
 4431 00a4 0B       		.uleb128 0xb
 4432 00a5 39       		.uleb128 0x39
 4433 00a6 0B       		.uleb128 0xb
 4434 00a7 01       		.uleb128 0x1
 4435 00a8 13       		.uleb128 0x13
 4436 00a9 00       		.byte	0
 4437 00aa 00       		.byte	0
 4438 00ab 0E       		.uleb128 0xe
 4439 00ac 0D       		.uleb128 0xd
 4440 00ad 00       		.byte	0
 4441 00ae 03       		.uleb128 0x3
 4442 00af 08       		.uleb128 0x8
 4443 00b0 3A       		.uleb128 0x3a
 4444 00b1 0B       		.uleb128 0xb
 4445 00b2 3B       		.uleb128 0x3b
 4446 00b3 0B       		.uleb128 0xb
ARM GAS  /tmp/ccGUgTIG.s 			page 79


 4447 00b4 39       		.uleb128 0x39
 4448 00b5 0B       		.uleb128 0xb
 4449 00b6 49       		.uleb128 0x49
 4450 00b7 13       		.uleb128 0x13
 4451 00b8 38       		.uleb128 0x38
 4452 00b9 0B       		.uleb128 0xb
 4453 00ba 00       		.byte	0
 4454 00bb 00       		.byte	0
 4455 00bc 0F       		.uleb128 0xf
 4456 00bd 0F       		.uleb128 0xf
 4457 00be 00       		.byte	0
 4458 00bf 0B       		.uleb128 0xb
 4459 00c0 0B       		.uleb128 0xb
 4460 00c1 49       		.uleb128 0x49
 4461 00c2 13       		.uleb128 0x13
 4462 00c3 00       		.byte	0
 4463 00c4 00       		.byte	0
 4464 00c5 10       		.uleb128 0x10
 4465 00c6 13       		.uleb128 0x13
 4466 00c7 01       		.byte	0x1
 4467 00c8 03       		.uleb128 0x3
 4468 00c9 0E       		.uleb128 0xe
 4469 00ca 0B       		.uleb128 0xb
 4470 00cb 05       		.uleb128 0x5
 4471 00cc 3A       		.uleb128 0x3a
 4472 00cd 0B       		.uleb128 0xb
 4473 00ce 3B       		.uleb128 0x3b
 4474 00cf 0B       		.uleb128 0xb
 4475 00d0 39       		.uleb128 0x39
 4476 00d1 0B       		.uleb128 0xb
 4477 00d2 01       		.uleb128 0x1
 4478 00d3 13       		.uleb128 0x13
 4479 00d4 00       		.byte	0
 4480 00d5 00       		.byte	0
 4481 00d6 11       		.uleb128 0x11
 4482 00d7 0D       		.uleb128 0xd
 4483 00d8 00       		.byte	0
 4484 00d9 03       		.uleb128 0x3
 4485 00da 0E       		.uleb128 0xe
 4486 00db 3A       		.uleb128 0x3a
 4487 00dc 0B       		.uleb128 0xb
 4488 00dd 3B       		.uleb128 0x3b
 4489 00de 0B       		.uleb128 0xb
 4490 00df 39       		.uleb128 0x39
 4491 00e0 0B       		.uleb128 0xb
 4492 00e1 49       		.uleb128 0x49
 4493 00e2 13       		.uleb128 0x13
 4494 00e3 38       		.uleb128 0x38
 4495 00e4 05       		.uleb128 0x5
 4496 00e5 00       		.byte	0
 4497 00e6 00       		.byte	0
 4498 00e7 12       		.uleb128 0x12
 4499 00e8 15       		.uleb128 0x15
 4500 00e9 00       		.byte	0
 4501 00ea 27       		.uleb128 0x27
 4502 00eb 19       		.uleb128 0x19
 4503 00ec 00       		.byte	0
ARM GAS  /tmp/ccGUgTIG.s 			page 80


 4504 00ed 00       		.byte	0
 4505 00ee 13       		.uleb128 0x13
 4506 00ef 15       		.uleb128 0x15
 4507 00f0 01       		.byte	0x1
 4508 00f1 27       		.uleb128 0x27
 4509 00f2 19       		.uleb128 0x19
 4510 00f3 49       		.uleb128 0x49
 4511 00f4 13       		.uleb128 0x13
 4512 00f5 01       		.uleb128 0x1
 4513 00f6 13       		.uleb128 0x13
 4514 00f7 00       		.byte	0
 4515 00f8 00       		.byte	0
 4516 00f9 14       		.uleb128 0x14
 4517 00fa 05       		.uleb128 0x5
 4518 00fb 00       		.byte	0
 4519 00fc 49       		.uleb128 0x49
 4520 00fd 13       		.uleb128 0x13
 4521 00fe 00       		.byte	0
 4522 00ff 00       		.byte	0
 4523 0100 15       		.uleb128 0x15
 4524 0101 26       		.uleb128 0x26
 4525 0102 00       		.byte	0
 4526 0103 49       		.uleb128 0x49
 4527 0104 13       		.uleb128 0x13
 4528 0105 00       		.byte	0
 4529 0106 00       		.byte	0
 4530 0107 16       		.uleb128 0x16
 4531 0108 13       		.uleb128 0x13
 4532 0109 01       		.byte	0x1
 4533 010a 03       		.uleb128 0x3
 4534 010b 0E       		.uleb128 0xe
 4535 010c 0B       		.uleb128 0xb
 4536 010d 05       		.uleb128 0x5
 4537 010e 3A       		.uleb128 0x3a
 4538 010f 0B       		.uleb128 0xb
 4539 0110 3B       		.uleb128 0x3b
 4540 0111 05       		.uleb128 0x5
 4541 0112 39       		.uleb128 0x39
 4542 0113 0B       		.uleb128 0xb
 4543 0114 01       		.uleb128 0x1
 4544 0115 13       		.uleb128 0x13
 4545 0116 00       		.byte	0
 4546 0117 00       		.byte	0
 4547 0118 17       		.uleb128 0x17
 4548 0119 0D       		.uleb128 0xd
 4549 011a 00       		.byte	0
 4550 011b 03       		.uleb128 0x3
 4551 011c 0E       		.uleb128 0xe
 4552 011d 3A       		.uleb128 0x3a
 4553 011e 0B       		.uleb128 0xb
 4554 011f 3B       		.uleb128 0x3b
 4555 0120 05       		.uleb128 0x5
 4556 0121 39       		.uleb128 0x39
 4557 0122 0B       		.uleb128 0xb
 4558 0123 49       		.uleb128 0x49
 4559 0124 13       		.uleb128 0x13
 4560 0125 38       		.uleb128 0x38
ARM GAS  /tmp/ccGUgTIG.s 			page 81


 4561 0126 0B       		.uleb128 0xb
 4562 0127 00       		.byte	0
 4563 0128 00       		.byte	0
 4564 0129 18       		.uleb128 0x18
 4565 012a 0D       		.uleb128 0xd
 4566 012b 00       		.byte	0
 4567 012c 03       		.uleb128 0x3
 4568 012d 0E       		.uleb128 0xe
 4569 012e 3A       		.uleb128 0x3a
 4570 012f 0B       		.uleb128 0xb
 4571 0130 3B       		.uleb128 0x3b
 4572 0131 05       		.uleb128 0x5
 4573 0132 39       		.uleb128 0x39
 4574 0133 0B       		.uleb128 0xb
 4575 0134 49       		.uleb128 0x49
 4576 0135 13       		.uleb128 0x13
 4577 0136 38       		.uleb128 0x38
 4578 0137 05       		.uleb128 0x5
 4579 0138 00       		.byte	0
 4580 0139 00       		.byte	0
 4581 013a 19       		.uleb128 0x19
 4582 013b 35       		.uleb128 0x35
 4583 013c 00       		.byte	0
 4584 013d 49       		.uleb128 0x49
 4585 013e 13       		.uleb128 0x13
 4586 013f 00       		.byte	0
 4587 0140 00       		.byte	0
 4588 0141 1A       		.uleb128 0x1a
 4589 0142 13       		.uleb128 0x13
 4590 0143 01       		.byte	0x1
 4591 0144 03       		.uleb128 0x3
 4592 0145 0E       		.uleb128 0xe
 4593 0146 0B       		.uleb128 0xb
 4594 0147 0B       		.uleb128 0xb
 4595 0148 3A       		.uleb128 0x3a
 4596 0149 0B       		.uleb128 0xb
 4597 014a 3B       		.uleb128 0x3b
 4598 014b 05       		.uleb128 0x5
 4599 014c 39       		.uleb128 0x39
 4600 014d 0B       		.uleb128 0xb
 4601 014e 01       		.uleb128 0x1
 4602 014f 13       		.uleb128 0x13
 4603 0150 00       		.byte	0
 4604 0151 00       		.byte	0
 4605 0152 1B       		.uleb128 0x1b
 4606 0153 13       		.uleb128 0x13
 4607 0154 01       		.byte	0x1
 4608 0155 0B       		.uleb128 0xb
 4609 0156 0B       		.uleb128 0xb
 4610 0157 3A       		.uleb128 0x3a
 4611 0158 0B       		.uleb128 0xb
 4612 0159 3B       		.uleb128 0x3b
 4613 015a 05       		.uleb128 0x5
 4614 015b 39       		.uleb128 0x39
 4615 015c 0B       		.uleb128 0xb
 4616 015d 01       		.uleb128 0x1
 4617 015e 13       		.uleb128 0x13
ARM GAS  /tmp/ccGUgTIG.s 			page 82


 4618 015f 00       		.byte	0
 4619 0160 00       		.byte	0
 4620 0161 1C       		.uleb128 0x1c
 4621 0162 17       		.uleb128 0x17
 4622 0163 01       		.byte	0x1
 4623 0164 0B       		.uleb128 0xb
 4624 0165 0B       		.uleb128 0xb
 4625 0166 3A       		.uleb128 0x3a
 4626 0167 0B       		.uleb128 0xb
 4627 0168 3B       		.uleb128 0x3b
 4628 0169 05       		.uleb128 0x5
 4629 016a 39       		.uleb128 0x39
 4630 016b 0B       		.uleb128 0xb
 4631 016c 01       		.uleb128 0x1
 4632 016d 13       		.uleb128 0x13
 4633 016e 00       		.byte	0
 4634 016f 00       		.byte	0
 4635 0170 1D       		.uleb128 0x1d
 4636 0171 0D       		.uleb128 0xd
 4637 0172 00       		.byte	0
 4638 0173 03       		.uleb128 0x3
 4639 0174 0E       		.uleb128 0xe
 4640 0175 3A       		.uleb128 0x3a
 4641 0176 0B       		.uleb128 0xb
 4642 0177 3B       		.uleb128 0x3b
 4643 0178 05       		.uleb128 0x5
 4644 0179 39       		.uleb128 0x39
 4645 017a 0B       		.uleb128 0xb
 4646 017b 49       		.uleb128 0x49
 4647 017c 13       		.uleb128 0x13
 4648 017d 00       		.byte	0
 4649 017e 00       		.byte	0
 4650 017f 1E       		.uleb128 0x1e
 4651 0180 13       		.uleb128 0x13
 4652 0181 00       		.byte	0
 4653 0182 03       		.uleb128 0x3
 4654 0183 0E       		.uleb128 0xe
 4655 0184 3C       		.uleb128 0x3c
 4656 0185 19       		.uleb128 0x19
 4657 0186 00       		.byte	0
 4658 0187 00       		.byte	0
 4659 0188 1F       		.uleb128 0x1f
 4660 0189 15       		.uleb128 0x15
 4661 018a 01       		.byte	0x1
 4662 018b 27       		.uleb128 0x27
 4663 018c 19       		.uleb128 0x19
 4664 018d 01       		.uleb128 0x1
 4665 018e 13       		.uleb128 0x13
 4666 018f 00       		.byte	0
 4667 0190 00       		.byte	0
 4668 0191 20       		.uleb128 0x20
 4669 0192 34       		.uleb128 0x34
 4670 0193 00       		.byte	0
 4671 0194 03       		.uleb128 0x3
 4672 0195 0E       		.uleb128 0xe
 4673 0196 3A       		.uleb128 0x3a
 4674 0197 0B       		.uleb128 0xb
ARM GAS  /tmp/ccGUgTIG.s 			page 83


 4675 0198 3B       		.uleb128 0x3b
 4676 0199 05       		.uleb128 0x5
 4677 019a 39       		.uleb128 0x39
 4678 019b 0B       		.uleb128 0xb
 4679 019c 49       		.uleb128 0x49
 4680 019d 13       		.uleb128 0x13
 4681 019e 3F       		.uleb128 0x3f
 4682 019f 19       		.uleb128 0x19
 4683 01a0 3C       		.uleb128 0x3c
 4684 01a1 19       		.uleb128 0x19
 4685 01a2 00       		.byte	0
 4686 01a3 00       		.byte	0
 4687 01a4 21       		.uleb128 0x21
 4688 01a5 0D       		.uleb128 0xd
 4689 01a6 00       		.byte	0
 4690 01a7 03       		.uleb128 0x3
 4691 01a8 08       		.uleb128 0x8
 4692 01a9 3A       		.uleb128 0x3a
 4693 01aa 0B       		.uleb128 0xb
 4694 01ab 3B       		.uleb128 0x3b
 4695 01ac 05       		.uleb128 0x5
 4696 01ad 39       		.uleb128 0x39
 4697 01ae 0B       		.uleb128 0xb
 4698 01af 49       		.uleb128 0x49
 4699 01b0 13       		.uleb128 0x13
 4700 01b1 38       		.uleb128 0x38
 4701 01b2 0B       		.uleb128 0xb
 4702 01b3 00       		.byte	0
 4703 01b4 00       		.byte	0
 4704 01b5 22       		.uleb128 0x22
 4705 01b6 0D       		.uleb128 0xd
 4706 01b7 00       		.byte	0
 4707 01b8 03       		.uleb128 0x3
 4708 01b9 08       		.uleb128 0x8
 4709 01ba 3A       		.uleb128 0x3a
 4710 01bb 0B       		.uleb128 0xb
 4711 01bc 3B       		.uleb128 0x3b
 4712 01bd 0B       		.uleb128 0xb
 4713 01be 39       		.uleb128 0x39
 4714 01bf 0B       		.uleb128 0xb
 4715 01c0 49       		.uleb128 0x49
 4716 01c1 13       		.uleb128 0x13
 4717 01c2 00       		.byte	0
 4718 01c3 00       		.byte	0
 4719 01c4 23       		.uleb128 0x23
 4720 01c5 0D       		.uleb128 0xd
 4721 01c6 00       		.byte	0
 4722 01c7 03       		.uleb128 0x3
 4723 01c8 0E       		.uleb128 0xe
 4724 01c9 3A       		.uleb128 0x3a
 4725 01ca 0B       		.uleb128 0xb
 4726 01cb 3B       		.uleb128 0x3b
 4727 01cc 0B       		.uleb128 0xb
 4728 01cd 39       		.uleb128 0x39
 4729 01ce 0B       		.uleb128 0xb
 4730 01cf 49       		.uleb128 0x49
 4731 01d0 13       		.uleb128 0x13
ARM GAS  /tmp/ccGUgTIG.s 			page 84


 4732 01d1 0B       		.uleb128 0xb
 4733 01d2 0B       		.uleb128 0xb
 4734 01d3 0D       		.uleb128 0xd
 4735 01d4 0B       		.uleb128 0xb
 4736 01d5 0C       		.uleb128 0xc
 4737 01d6 0B       		.uleb128 0xb
 4738 01d7 38       		.uleb128 0x38
 4739 01d8 0B       		.uleb128 0xb
 4740 01d9 00       		.byte	0
 4741 01da 00       		.byte	0
 4742 01db 24       		.uleb128 0x24
 4743 01dc 13       		.uleb128 0x13
 4744 01dd 01       		.byte	0x1
 4745 01de 0B       		.uleb128 0xb
 4746 01df 05       		.uleb128 0x5
 4747 01e0 3A       		.uleb128 0x3a
 4748 01e1 0B       		.uleb128 0xb
 4749 01e2 3B       		.uleb128 0x3b
 4750 01e3 0B       		.uleb128 0xb
 4751 01e4 39       		.uleb128 0x39
 4752 01e5 0B       		.uleb128 0xb
 4753 01e6 01       		.uleb128 0x1
 4754 01e7 13       		.uleb128 0x13
 4755 01e8 00       		.byte	0
 4756 01e9 00       		.byte	0
 4757 01ea 25       		.uleb128 0x25
 4758 01eb 34       		.uleb128 0x34
 4759 01ec 00       		.byte	0
 4760 01ed 03       		.uleb128 0x3
 4761 01ee 0E       		.uleb128 0xe
 4762 01ef 3A       		.uleb128 0x3a
 4763 01f0 0B       		.uleb128 0xb
 4764 01f1 3B       		.uleb128 0x3b
 4765 01f2 0B       		.uleb128 0xb
 4766 01f3 39       		.uleb128 0x39
 4767 01f4 0B       		.uleb128 0xb
 4768 01f5 49       		.uleb128 0x49
 4769 01f6 13       		.uleb128 0x13
 4770 01f7 3F       		.uleb128 0x3f
 4771 01f8 19       		.uleb128 0x19
 4772 01f9 3C       		.uleb128 0x3c
 4773 01fa 19       		.uleb128 0x19
 4774 01fb 00       		.byte	0
 4775 01fc 00       		.byte	0
 4776 01fd 26       		.uleb128 0x26
 4777 01fe 04       		.uleb128 0x4
 4778 01ff 01       		.byte	0x1
 4779 0200 3E       		.uleb128 0x3e
 4780 0201 0B       		.uleb128 0xb
 4781 0202 0B       		.uleb128 0xb
 4782 0203 0B       		.uleb128 0xb
 4783 0204 49       		.uleb128 0x49
 4784 0205 13       		.uleb128 0x13
 4785 0206 3A       		.uleb128 0x3a
 4786 0207 0B       		.uleb128 0xb
 4787 0208 3B       		.uleb128 0x3b
 4788 0209 0B       		.uleb128 0xb
ARM GAS  /tmp/ccGUgTIG.s 			page 85


 4789 020a 39       		.uleb128 0x39
 4790 020b 0B       		.uleb128 0xb
 4791 020c 01       		.uleb128 0x1
 4792 020d 13       		.uleb128 0x13
 4793 020e 00       		.byte	0
 4794 020f 00       		.byte	0
 4795 0210 27       		.uleb128 0x27
 4796 0211 28       		.uleb128 0x28
 4797 0212 00       		.byte	0
 4798 0213 03       		.uleb128 0x3
 4799 0214 0E       		.uleb128 0xe
 4800 0215 1C       		.uleb128 0x1c
 4801 0216 0B       		.uleb128 0xb
 4802 0217 00       		.byte	0
 4803 0218 00       		.byte	0
 4804 0219 28       		.uleb128 0x28
 4805 021a 34       		.uleb128 0x34
 4806 021b 00       		.byte	0
 4807 021c 03       		.uleb128 0x3
 4808 021d 08       		.uleb128 0x8
 4809 021e 3A       		.uleb128 0x3a
 4810 021f 0B       		.uleb128 0xb
 4811 0220 3B       		.uleb128 0x3b
 4812 0221 05       		.uleb128 0x5
 4813 0222 39       		.uleb128 0x39
 4814 0223 0B       		.uleb128 0xb
 4815 0224 49       		.uleb128 0x49
 4816 0225 13       		.uleb128 0x13
 4817 0226 3F       		.uleb128 0x3f
 4818 0227 19       		.uleb128 0x19
 4819 0228 3C       		.uleb128 0x3c
 4820 0229 19       		.uleb128 0x19
 4821 022a 00       		.byte	0
 4822 022b 00       		.byte	0
 4823 022c 29       		.uleb128 0x29
 4824 022d 34       		.uleb128 0x34
 4825 022e 00       		.byte	0
 4826 022f 47       		.uleb128 0x47
 4827 0230 13       		.uleb128 0x13
 4828 0231 3A       		.uleb128 0x3a
 4829 0232 0B       		.uleb128 0xb
 4830 0233 3B       		.uleb128 0x3b
 4831 0234 0B       		.uleb128 0xb
 4832 0235 39       		.uleb128 0x39
 4833 0236 0B       		.uleb128 0xb
 4834 0237 00       		.byte	0
 4835 0238 00       		.byte	0
 4836 0239 2A       		.uleb128 0x2a
 4837 023a 2E       		.uleb128 0x2e
 4838 023b 01       		.byte	0x1
 4839 023c 3F       		.uleb128 0x3f
 4840 023d 19       		.uleb128 0x19
 4841 023e 03       		.uleb128 0x3
 4842 023f 0E       		.uleb128 0xe
 4843 0240 3A       		.uleb128 0x3a
 4844 0241 0B       		.uleb128 0xb
 4845 0242 3B       		.uleb128 0x3b
ARM GAS  /tmp/ccGUgTIG.s 			page 86


 4846 0243 05       		.uleb128 0x5
 4847 0244 39       		.uleb128 0x39
 4848 0245 0B       		.uleb128 0xb
 4849 0246 27       		.uleb128 0x27
 4850 0247 19       		.uleb128 0x19
 4851 0248 01       		.uleb128 0x1
 4852 0249 13       		.uleb128 0x13
 4853 024a 00       		.byte	0
 4854 024b 00       		.byte	0
 4855 024c 2B       		.uleb128 0x2b
 4856 024d 05       		.uleb128 0x5
 4857 024e 00       		.byte	0
 4858 024f 03       		.uleb128 0x3
 4859 0250 08       		.uleb128 0x8
 4860 0251 3A       		.uleb128 0x3a
 4861 0252 0B       		.uleb128 0xb
 4862 0253 3B       		.uleb128 0x3b
 4863 0254 05       		.uleb128 0x5
 4864 0255 39       		.uleb128 0x39
 4865 0256 0B       		.uleb128 0xb
 4866 0257 49       		.uleb128 0x49
 4867 0258 13       		.uleb128 0x13
 4868 0259 00       		.byte	0
 4869 025a 00       		.byte	0
 4870 025b 2C       		.uleb128 0x2c
 4871 025c 2E       		.uleb128 0x2e
 4872 025d 01       		.byte	0x1
 4873 025e 3F       		.uleb128 0x3f
 4874 025f 19       		.uleb128 0x19
 4875 0260 03       		.uleb128 0x3
 4876 0261 0E       		.uleb128 0xe
 4877 0262 3A       		.uleb128 0x3a
 4878 0263 0B       		.uleb128 0xb
 4879 0264 3B       		.uleb128 0x3b
 4880 0265 05       		.uleb128 0x5
 4881 0266 39       		.uleb128 0x39
 4882 0267 0B       		.uleb128 0xb
 4883 0268 27       		.uleb128 0x27
 4884 0269 19       		.uleb128 0x19
 4885 026a 49       		.uleb128 0x49
 4886 026b 13       		.uleb128 0x13
 4887 026c 01       		.uleb128 0x1
 4888 026d 13       		.uleb128 0x13
 4889 026e 00       		.byte	0
 4890 026f 00       		.byte	0
 4891 0270 2D       		.uleb128 0x2d
 4892 0271 05       		.uleb128 0x5
 4893 0272 00       		.byte	0
 4894 0273 03       		.uleb128 0x3
 4895 0274 0E       		.uleb128 0xe
 4896 0275 3A       		.uleb128 0x3a
 4897 0276 0B       		.uleb128 0xb
 4898 0277 3B       		.uleb128 0x3b
 4899 0278 05       		.uleb128 0x5
 4900 0279 39       		.uleb128 0x39
 4901 027a 0B       		.uleb128 0xb
 4902 027b 49       		.uleb128 0x49
ARM GAS  /tmp/ccGUgTIG.s 			page 87


 4903 027c 13       		.uleb128 0x13
 4904 027d 00       		.byte	0
 4905 027e 00       		.byte	0
 4906 027f 2E       		.uleb128 0x2e
 4907 0280 34       		.uleb128 0x34
 4908 0281 00       		.byte	0
 4909 0282 03       		.uleb128 0x3
 4910 0283 08       		.uleb128 0x8
 4911 0284 3A       		.uleb128 0x3a
 4912 0285 0B       		.uleb128 0xb
 4913 0286 3B       		.uleb128 0x3b
 4914 0287 05       		.uleb128 0x5
 4915 0288 39       		.uleb128 0x39
 4916 0289 0B       		.uleb128 0xb
 4917 028a 49       		.uleb128 0x49
 4918 028b 13       		.uleb128 0x13
 4919 028c 00       		.byte	0
 4920 028d 00       		.byte	0
 4921 028e 2F       		.uleb128 0x2f
 4922 028f 34       		.uleb128 0x34
 4923 0290 00       		.byte	0
 4924 0291 03       		.uleb128 0x3
 4925 0292 0E       		.uleb128 0xe
 4926 0293 3A       		.uleb128 0x3a
 4927 0294 0B       		.uleb128 0xb
 4928 0295 3B       		.uleb128 0x3b
 4929 0296 05       		.uleb128 0x5
 4930 0297 39       		.uleb128 0x39
 4931 0298 0B       		.uleb128 0xb
 4932 0299 49       		.uleb128 0x49
 4933 029a 13       		.uleb128 0x13
 4934 029b 00       		.byte	0
 4935 029c 00       		.byte	0
 4936 029d 30       		.uleb128 0x30
 4937 029e 0B       		.uleb128 0xb
 4938 029f 01       		.byte	0x1
 4939 02a0 00       		.byte	0
 4940 02a1 00       		.byte	0
 4941 02a2 31       		.uleb128 0x31
 4942 02a3 2E       		.uleb128 0x2e
 4943 02a4 00       		.byte	0
 4944 02a5 3F       		.uleb128 0x3f
 4945 02a6 19       		.uleb128 0x19
 4946 02a7 03       		.uleb128 0x3
 4947 02a8 0E       		.uleb128 0xe
 4948 02a9 3A       		.uleb128 0x3a
 4949 02aa 0B       		.uleb128 0xb
 4950 02ab 3B       		.uleb128 0x3b
 4951 02ac 0B       		.uleb128 0xb
 4952 02ad 39       		.uleb128 0x39
 4953 02ae 0B       		.uleb128 0xb
 4954 02af 27       		.uleb128 0x27
 4955 02b0 19       		.uleb128 0x19
 4956 02b1 00       		.byte	0
 4957 02b2 00       		.byte	0
 4958 02b3 32       		.uleb128 0x32
 4959 02b4 2E       		.uleb128 0x2e
ARM GAS  /tmp/ccGUgTIG.s 			page 88


 4960 02b5 01       		.byte	0x1
 4961 02b6 03       		.uleb128 0x3
 4962 02b7 0E       		.uleb128 0xe
 4963 02b8 3A       		.uleb128 0x3a
 4964 02b9 0B       		.uleb128 0xb
 4965 02ba 3B       		.uleb128 0x3b
 4966 02bb 0B       		.uleb128 0xb
 4967 02bc 39       		.uleb128 0x39
 4968 02bd 0B       		.uleb128 0xb
 4969 02be 27       		.uleb128 0x27
 4970 02bf 19       		.uleb128 0x19
 4971 02c0 49       		.uleb128 0x49
 4972 02c1 13       		.uleb128 0x13
 4973 02c2 01       		.uleb128 0x1
 4974 02c3 13       		.uleb128 0x13
 4975 02c4 00       		.byte	0
 4976 02c5 00       		.byte	0
 4977 02c6 33       		.uleb128 0x33
 4978 02c7 05       		.uleb128 0x5
 4979 02c8 00       		.byte	0
 4980 02c9 03       		.uleb128 0x3
 4981 02ca 0E       		.uleb128 0xe
 4982 02cb 3A       		.uleb128 0x3a
 4983 02cc 0B       		.uleb128 0xb
 4984 02cd 3B       		.uleb128 0x3b
 4985 02ce 0B       		.uleb128 0xb
 4986 02cf 39       		.uleb128 0x39
 4987 02d0 0B       		.uleb128 0xb
 4988 02d1 49       		.uleb128 0x49
 4989 02d2 13       		.uleb128 0x13
 4990 02d3 00       		.byte	0
 4991 02d4 00       		.byte	0
 4992 02d5 34       		.uleb128 0x34
 4993 02d6 05       		.uleb128 0x5
 4994 02d7 00       		.byte	0
 4995 02d8 03       		.uleb128 0x3
 4996 02d9 08       		.uleb128 0x8
 4997 02da 3A       		.uleb128 0x3a
 4998 02db 0B       		.uleb128 0xb
 4999 02dc 3B       		.uleb128 0x3b
 5000 02dd 0B       		.uleb128 0xb
 5001 02de 39       		.uleb128 0x39
 5002 02df 0B       		.uleb128 0xb
 5003 02e0 49       		.uleb128 0x49
 5004 02e1 13       		.uleb128 0x13
 5005 02e2 00       		.byte	0
 5006 02e3 00       		.byte	0
 5007 02e4 35       		.uleb128 0x35
 5008 02e5 34       		.uleb128 0x34
 5009 02e6 00       		.byte	0
 5010 02e7 03       		.uleb128 0x3
 5011 02e8 08       		.uleb128 0x8
 5012 02e9 3A       		.uleb128 0x3a
 5013 02ea 0B       		.uleb128 0xb
 5014 02eb 3B       		.uleb128 0x3b
 5015 02ec 0B       		.uleb128 0xb
 5016 02ed 39       		.uleb128 0x39
ARM GAS  /tmp/ccGUgTIG.s 			page 89


 5017 02ee 0B       		.uleb128 0xb
 5018 02ef 49       		.uleb128 0x49
 5019 02f0 13       		.uleb128 0x13
 5020 02f1 00       		.byte	0
 5021 02f2 00       		.byte	0
 5022 02f3 36       		.uleb128 0x36
 5023 02f4 34       		.uleb128 0x34
 5024 02f5 00       		.byte	0
 5025 02f6 03       		.uleb128 0x3
 5026 02f7 0E       		.uleb128 0xe
 5027 02f8 49       		.uleb128 0x49
 5028 02f9 13       		.uleb128 0x13
 5029 02fa 34       		.uleb128 0x34
 5030 02fb 19       		.uleb128 0x19
 5031 02fc 00       		.byte	0
 5032 02fd 00       		.byte	0
 5033 02fe 37       		.uleb128 0x37
 5034 02ff 2E       		.uleb128 0x2e
 5035 0300 01       		.byte	0x1
 5036 0301 03       		.uleb128 0x3
 5037 0302 0E       		.uleb128 0xe
 5038 0303 3A       		.uleb128 0x3a
 5039 0304 0B       		.uleb128 0xb
 5040 0305 3B       		.uleb128 0x3b
 5041 0306 0B       		.uleb128 0xb
 5042 0307 39       		.uleb128 0x39
 5043 0308 0B       		.uleb128 0xb
 5044 0309 27       		.uleb128 0x27
 5045 030a 19       		.uleb128 0x19
 5046 030b 01       		.uleb128 0x1
 5047 030c 13       		.uleb128 0x13
 5048 030d 00       		.byte	0
 5049 030e 00       		.byte	0
 5050 030f 38       		.uleb128 0x38
 5051 0310 34       		.uleb128 0x34
 5052 0311 00       		.byte	0
 5053 0312 03       		.uleb128 0x3
 5054 0313 0E       		.uleb128 0xe
 5055 0314 3A       		.uleb128 0x3a
 5056 0315 0B       		.uleb128 0xb
 5057 0316 3B       		.uleb128 0x3b
 5058 0317 0B       		.uleb128 0xb
 5059 0318 39       		.uleb128 0x39
 5060 0319 0B       		.uleb128 0xb
 5061 031a 49       		.uleb128 0x49
 5062 031b 13       		.uleb128 0x13
 5063 031c 00       		.byte	0
 5064 031d 00       		.byte	0
 5065 031e 39       		.uleb128 0x39
 5066 031f 2E       		.uleb128 0x2e
 5067 0320 01       		.byte	0x1
 5068 0321 03       		.uleb128 0x3
 5069 0322 0E       		.uleb128 0xe
 5070 0323 3A       		.uleb128 0x3a
 5071 0324 0B       		.uleb128 0xb
 5072 0325 3B       		.uleb128 0x3b
 5073 0326 0B       		.uleb128 0xb
ARM GAS  /tmp/ccGUgTIG.s 			page 90


 5074 0327 39       		.uleb128 0x39
 5075 0328 0B       		.uleb128 0xb
 5076 0329 27       		.uleb128 0x27
 5077 032a 19       		.uleb128 0x19
 5078 032b 49       		.uleb128 0x49
 5079 032c 13       		.uleb128 0x13
 5080 032d 00       		.byte	0
 5081 032e 00       		.byte	0
 5082 032f 00       		.byte	0
 5083              		.section	.gnu.debuglto_.debug_line,"e",%progbits
 5084              	.Ldebug_line0:
 5085 0000 C2020000 		.4byte	.LELT0-.LSLT0
 5086              	.LSLT0:
 5087 0004 0400     		.2byte	0x4
 5088 0006 BC020000 		.4byte	.LELTP0-.LASLTP0
 5089              	.LASLTP0:
 5090 000a 01       		.byte	0x1
 5091 000b 01       		.byte	0x1
 5092 000c 01       		.byte	0x1
 5093 000d F6       		.byte	0xf6
 5094 000e F2       		.byte	0xf2
 5095 000f 0D       		.byte	0xd
 5096 0010 00       		.byte	0
 5097 0011 01       		.byte	0x1
 5098 0012 01       		.byte	0x1
 5099 0013 01       		.byte	0x1
 5100 0014 01       		.byte	0x1
 5101 0015 00       		.byte	0
 5102 0016 00       		.byte	0
 5103 0017 00       		.byte	0
 5104 0018 01       		.byte	0x1
 5105 0019 00       		.byte	0
 5106 001a 00       		.byte	0
 5107 001b 01       		.byte	0x1
 5108 001c 2E2E2F2E 		.ascii	"../../../../os/common/ext/ARM/CMSIS/Core/Include"
 5108      2E2F2E2E 
 5108      2F2E2E2F 
 5108      6F732F63 
 5108      6F6D6D6F 
 5109 004c 00       		.byte	0
 5110 004d 2E2E2F2E 		.ascii	"../../../../os/common/ext/ST/STM32F3xx"
 5110      2E2F2E2E 
 5110      2F2E2E2F 
 5110      6F732F63 
 5110      6F6D6D6F 
 5111 0073 00       		.byte	0
 5112 0074 2E2E2F2E 		.ascii	"../../../../os/common/ports/ARM-common"
 5112      2E2F2E2E 
 5112      2F2E2E2F 
 5112      6F732F63 
 5112      6F6D6D6F 
 5113 009a 00       		.byte	0
 5114 009b 2E2E2F2E 		.ascii	"../../../../os/common/ports/ARMv7-M"
 5114      2E2F2E2E 
 5114      2F2E2E2F 
 5114      6F732F63 
 5114      6F6D6D6F 
ARM GAS  /tmp/ccGUgTIG.s 			page 91


 5115 00be 00       		.byte	0
 5116 00bf 2E2E2F2E 		.ascii	"../../../../os/oslib/include"
 5116      2E2F2E2E 
 5116      2F2E2E2F 
 5116      6F732F6F 
 5116      736C6962 
 5117 00db 00       		.byte	0
 5118 00dc 2E2E2F2E 		.ascii	"../../../../os/oslib/src"
 5118      2E2F2E2E 
 5118      2F2E2E2F 
 5118      6F732F6F 
 5118      736C6962 
 5119 00f4 00       		.byte	0
 5120 00f5 2E2E2F2E 		.ascii	"../../../../os/rt/include"
 5120      2E2F2E2E 
 5120      2F2E2E2F 
 5120      6F732F72 
 5120      742F696E 
 5121 010e 00       		.byte	0
 5122 010f 2F757372 		.ascii	"/usr/include/newlib/sys"
 5122      2F696E63 
 5122      6C756465 
 5122      2F6E6577 
 5122      6C69622F 
 5123 0126 00       		.byte	0
 5124 0127 2F757372 		.ascii	"/usr/lib/gcc/arm-none-eabi/9.2.1/include"
 5124      2F6C6962 
 5124      2F676363 
 5124      2F61726D 
 5124      2D6E6F6E 
 5125 014f 00       		.byte	0
 5126 0150 00       		.byte	0
 5127 0151 73746464 		.ascii	"stddef.h\000"
 5127      65662E68 
 5127      00
 5128 015a 09       		.uleb128 0x9
 5129 015b 00       		.uleb128 0
 5130 015c 00       		.uleb128 0
 5131 015d 5F747970 		.ascii	"_types.h\000"
 5131      65732E68 
 5131      00
 5132 0166 08       		.uleb128 0x8
 5133 0167 00       		.uleb128 0
 5134 0168 00       		.uleb128 0
 5135 0169 7265656E 		.ascii	"reent.h\000"
 5135      742E6800 
 5136 0171 08       		.uleb128 0x8
 5137 0172 00       		.uleb128 0
 5138 0173 00       		.uleb128 0
 5139 0174 6C6F636B 		.ascii	"lock.h\000"
 5139      2E6800
 5140 017b 08       		.uleb128 0x8
 5141 017c 00       		.uleb128 0
 5142 017d 00       		.uleb128 0
 5143 017e 73746469 		.ascii	"stdint.h\000"
 5143      6E742E68 
 5143      00
ARM GAS  /tmp/ccGUgTIG.s 			page 92


 5144 0187 09       		.uleb128 0x9
 5145 0188 00       		.uleb128 0
 5146 0189 00       		.uleb128 0
 5147 018a 63687479 		.ascii	"chtypes.h\000"
 5147      7065732E 
 5147      6800
 5148 0194 03       		.uleb128 0x3
 5149 0195 00       		.uleb128 0
 5150 0196 00       		.uleb128 0
 5151 0197 63686561 		.ascii	"chearly.h\000"
 5151      726C792E 
 5151      6800
 5152 01a1 07       		.uleb128 0x7
 5153 01a2 00       		.uleb128 0
 5154 01a3 00       		.uleb128 0
 5155 01a4 63686F62 		.ascii	"chobjects.h\000"
 5155      6A656374 
 5155      732E6800 
 5156 01b0 07       		.uleb128 0x7
 5157 01b1 00       		.uleb128 0
 5158 01b2 00       		.uleb128 0
 5159 01b3 63687266 		.ascii	"chrfcu.h\000"
 5159      63752E68 
 5159      00
 5160 01bc 07       		.uleb128 0x7
 5161 01bd 00       		.uleb128 0
 5162 01be 00       		.uleb128 0
 5163 01bf 63686465 		.ascii	"chdebug.h\000"
 5163      6275672E 
 5163      6800
 5164 01c9 07       		.uleb128 0x7
 5165 01ca 00       		.uleb128 0
 5166 01cb 00       		.uleb128 0
 5167 01cc 63687469 		.ascii	"chtime.h\000"
 5167      6D652E68 
 5167      00
 5168 01d5 07       		.uleb128 0x7
 5169 01d6 00       		.uleb128 0
 5170 01d7 00       		.uleb128 0
 5171 01d8 63686C69 		.ascii	"chlists.h\000"
 5171      7374732E 
 5171      6800
 5172 01e2 07       		.uleb128 0x7
 5173 01e3 00       		.uleb128 0
 5174 01e4 00       		.uleb128 0
 5175 01e5 63687472 		.ascii	"chtrace.h\000"
 5175      6163652E 
 5175      6800
 5176 01ef 07       		.uleb128 0x7
 5177 01f0 00       		.uleb128 0
 5178 01f1 00       		.uleb128 0
 5179 01f2 636F7265 		.ascii	"core_cm4.h\000"
 5179      5F636D34 
 5179      2E6800
 5180 01fd 01       		.uleb128 0x1
 5181 01fe 00       		.uleb128 0
 5182 01ff 00       		.uleb128 0
ARM GAS  /tmp/ccGUgTIG.s 			page 93


 5183 0200 73797374 		.ascii	"system_stm32f3xx.h\000"
 5183      656D5F73 
 5183      746D3332 
 5183      66337878 
 5183      2E6800
 5184 0213 02       		.uleb128 0x2
 5185 0214 00       		.uleb128 0
 5186 0215 00       		.uleb128 0
 5187 0216 6368636F 		.ascii	"chcore.h\000"
 5187      72652E68 
 5187      00
 5188 021f 04       		.uleb128 0x4
 5189 0220 00       		.uleb128 0
 5190 0221 00       		.uleb128 0
 5191 0222 6368746D 		.ascii	"chtm.h\000"
 5191      2E6800
 5192 0229 07       		.uleb128 0x7
 5193 022a 00       		.uleb128 0
 5194 022b 00       		.uleb128 0
 5195 022c 63687365 		.ascii	"chsem.h\000"
 5195      6D2E6800 
 5196 0234 07       		.uleb128 0x7
 5197 0235 00       		.uleb128 0
 5198 0236 00       		.uleb128 0
 5199 0237 63686D74 		.ascii	"chmtx.h\000"
 5199      782E6800 
 5200 023f 07       		.uleb128 0x7
 5201 0240 00       		.uleb128 0
 5202 0241 00       		.uleb128 0
 5203 0242 63687379 		.ascii	"chsys.h\000"
 5203      732E6800 
 5204 024a 07       		.uleb128 0x7
 5205 024b 00       		.uleb128 0
 5206 024c 00       		.uleb128 0
 5207 024d 63687265 		.ascii	"chregistry.h\000"
 5207      67697374 
 5207      72792E68 
 5207      00
 5208 025a 07       		.uleb128 0x7
 5209 025b 00       		.uleb128 0
 5210 025c 00       		.uleb128 0
 5211 025d 63686D62 		.ascii	"chmboxes.h\000"
 5211      6F786573 
 5211      2E6800
 5212 0268 05       		.uleb128 0x5
 5213 0269 00       		.uleb128 0
 5214 026a 00       		.uleb128 0
 5215 026b 63686D65 		.ascii	"chmemcore.h\000"
 5215      6D636F72 
 5215      652E6800 
 5216 0277 05       		.uleb128 0x5
 5217 0278 00       		.uleb128 0
 5218 0279 00       		.uleb128 0
 5219 027a 63686D65 		.ascii	"chmempools.h\000"
 5219      6D706F6F 
 5219      6C732E68 
 5219      00
ARM GAS  /tmp/ccGUgTIG.s 			page 94


 5220 0287 05       		.uleb128 0x5
 5221 0288 00       		.uleb128 0
 5222 0289 00       		.uleb128 0
 5223 028a 63686F62 		.ascii	"chobjfifos.h\000"
 5223      6A666966 
 5223      6F732E68 
 5223      00
 5224 0297 05       		.uleb128 0x5
 5225 0298 00       		.uleb128 0
 5226 0299 00       		.uleb128 0
 5227 029a 63687069 		.ascii	"chpipes.h\000"
 5227      7065732E 
 5227      6800
 5228 02a4 05       		.uleb128 0x5
 5229 02a5 00       		.uleb128 0
 5230 02a6 00       		.uleb128 0
 5231 02a7 63686661 		.ascii	"chfactory.h\000"
 5231      63746F72 
 5231      792E6800 
 5232 02b3 05       		.uleb128 0x5
 5233 02b4 00       		.uleb128 0
 5234 02b5 00       		.uleb128 0
 5235 02b6 63686661 		.ascii	"chfactory.c\000"
 5235      63746F72 
 5235      792E6300 
 5236 02c2 06       		.uleb128 0x6
 5237 02c3 00       		.uleb128 0
 5238 02c4 00       		.uleb128 0
 5239 02c5 00       		.byte	0
 5240              	.LELTP0:
 5241              	.LELT0:
 5242              		.section	.gnu.debuglto_.debug_str,"eMS",%progbits,1
 5243              	.LASF253:
 5244 0000 6F66665F 		.ascii	"off_ctx\000"
 5244      63747800 
 5245              	.LASF183:
 5246 0008 63685F64 		.ascii	"ch_delta_list_t\000"
 5246      656C7461 
 5246      5F6C6973 
 5246      745F7400 
 5247              	.LASF378:
 5248 0018 2E2E2F2E 		.ascii	"../../../../os/oslib/src/chfactory.c\000"
 5248      2E2F2E2E 
 5248      2F2E2E2F 
 5248      6F732F6F 
 5248      736C6962 
 5249              	.LASF339:
 5250 003d 63684661 		.ascii	"chFactoryReleasePipe\000"
 5250      63746F72 
 5250      7952656C 
 5250      65617365 
 5250      50697065 
 5251              	.LASF3:
 5252 0052 73697A65 		.ascii	"size_t\000"
 5252      5F7400
 5253              	.LASF252:
 5254 0059 6F66665F 		.ascii	"off_prio\000"
ARM GAS  /tmp/ccGUgTIG.s 			page 95


 5254      7072696F 
 5254      00
 5255              	.LASF380:
 5256 0062 5F5F6C6F 		.ascii	"__locale_t\000"
 5256      63616C65 
 5256      5F7400
 5257              	.LASF17:
 5258 006d 5F5F7661 		.ascii	"__value\000"
 5258      6C756500 
 5259              	.LASF172:
 5260 0075 73797374 		.ascii	"systime_t\000"
 5260      696D655F 
 5260      7400
 5261              	.LASF261:
 5262 007f 6F66665F 		.ascii	"off_preempt\000"
 5262      70726565 
 5262      6D707400 
 5263              	.LASF86:
 5264 008b 5F5F7366 		.ascii	"__sf\000"
 5264      00
 5265              	.LASF243:
 5266 0090 696E7374 		.ascii	"instances\000"
 5266      616E6365 
 5266      7300
 5267              	.LASF141:
 5268 009a 6F776E65 		.ascii	"owner\000"
 5268      7200
 5269              	.LASF53:
 5270 00a0 5F726561 		.ascii	"_read\000"
 5270      6400
 5271              	.LASF132:
 5272 00a6 74707269 		.ascii	"tprio_t\000"
 5272      6F5F7400 
 5273              	.LASF318:
 5274 00ae 63685F64 		.ascii	"ch_dyn_mailbox\000"
 5274      796E5F6D 
 5274      61696C62 
 5274      6F7800
 5275              	.LASF279:
 5276 00bd 63685F64 		.ascii	"ch_debug\000"
 5276      65627567 
 5276      00
 5277              	.LASF295:
 5278 00c6 70726F76 		.ascii	"provider\000"
 5278      69646572 
 5278      00
 5279              	.LASF189:
 5280 00cf 75736572 		.ascii	"user\000"
 5280      00
 5281              	.LASF54:
 5282 00d4 5F777269 		.ascii	"_write\000"
 5282      746500
 5283              	.LASF120:
 5284 00db 696E7433 		.ascii	"int32_t\000"
 5284      325F7400 
 5285              	.LASF98:
 5286 00e3 5F617363 		.ascii	"_asctime_buf\000"
ARM GAS  /tmp/ccGUgTIG.s 			page 96


 5286      74696D65 
 5286      5F627566 
 5286      00
 5287              	.LASF348:
 5288 00f0 73697A65 		.ascii	"size2\000"
 5288      3200
 5289              	.LASF80:
 5290 00f6 5F637674 		.ascii	"_cvtlen\000"
 5290      6C656E00 
 5291              	.LASF364:
 5292 00fe 5F5F6675 		.ascii	"__func__\000"
 5292      6E635F5F 
 5292      00
 5293              	.LASF211:
 5294 0107 63685F76 		.ascii	"ch_virtual_timers_list\000"
 5294      69727475 
 5294      616C5F74 
 5294      696D6572 
 5294      735F6C69 
 5295              	.LASF218:
 5296 011e 72656769 		.ascii	"registry_t\000"
 5296      73747279 
 5296      5F7400
 5297              	.LASF117:
 5298 0129 5F756E75 		.ascii	"_unused\000"
 5298      73656400 
 5299              	.LASF27:
 5300 0131 5F5F746D 		.ascii	"__tm\000"
 5300      00
 5301              	.LASF113:
 5302 0136 5F776373 		.ascii	"_wcsrtombs_state\000"
 5302      72746F6D 
 5302      62735F73 
 5302      74617465 
 5302      00
 5303              	.LASF58:
 5304 0147 5F6E6275 		.ascii	"_nbuf\000"
 5304      6600
 5305              	.LASF28:
 5306 014d 5F5F746D 		.ascii	"__tm_sec\000"
 5306      5F736563 
 5306      00
 5307              	.LASF106:
 5308 0156 5F6C3634 		.ascii	"_l64a_buf\000"
 5308      615F6275 
 5308      6600
 5309              	.LASF306:
 5310 0160 63685F64 		.ascii	"ch_dyn_element\000"
 5310      796E5F65 
 5310      6C656D65 
 5310      6E7400
 5311              	.LASF373:
 5312 016f 636F7079 		.ascii	"copy_name\000"
 5312      5F6E616D 
 5312      6500
 5313              	.LASF191:
 5314 0179 72747374 		.ascii	"rtstamp\000"
ARM GAS  /tmp/ccGUgTIG.s 			page 97


 5314      616D7000 
 5315              	.LASF271:
 5316 0181 6F66665F 		.ascii	"off_sys_reserved\000"
 5316      7379735F 
 5316      72657365 
 5316      72766564 
 5316      00
 5317              	.LASF160:
 5318 0192 636F6E66 		.ascii	"config\000"
 5318      696700
 5319              	.LASF144:
 5320 0199 73746174 		.ascii	"state\000"
 5320      6500
 5321              	.LASF62:
 5322 019f 5F6C6F63 		.ascii	"_lock\000"
 5322      6B00
 5323              	.LASF170:
 5324 01a5 6C6F636B 		.ascii	"lock_cnt\000"
 5324      5F636E74 
 5324      00
 5325              	.LASF164:
 5326 01ae 63685F72 		.ascii	"ch_rfcu\000"
 5326      66637500 
 5327              	.LASF266:
 5328 01b6 696E7374 		.ascii	"instancesnum\000"
 5328      616E6365 
 5328      736E756D 
 5328      00
 5329              	.LASF190:
 5330 01c3 74797065 		.ascii	"type\000"
 5330      00
 5331              	.LASF94:
 5332 01c8 5F6D756C 		.ascii	"_mult\000"
 5332      7400
 5333              	.LASF325:
 5334 01ce 64796E5F 		.ascii	"dyn_pipe_t\000"
 5334      70697065 
 5334      5F7400
 5335              	.LASF327:
 5336 01d9 6F626A5F 		.ascii	"obj_list\000"
 5336      6C697374 
 5336      00
 5337              	.LASF210:
 5338 01e2 73797374 		.ascii	"system_state_t\000"
 5338      656D5F73 
 5338      74617465 
 5338      5F7400
 5339              	.LASF255:
 5340 01f1 6F66665F 		.ascii	"off_older\000"
 5340      6F6C6465 
 5340      7200
 5341              	.LASF216:
 5342 01fb 63685F72 		.ascii	"ch_registry\000"
 5342      65676973 
 5342      74727900 
 5343              	.LASF182:
 5344 0207 7072696F 		.ascii	"prio\000"
ARM GAS  /tmp/ccGUgTIG.s 			page 98


 5344      00
 5345              	.LASF351:
 5346 020c 63684661 		.ascii	"chFactoryReleaseMailbox\000"
 5346      63746F72 
 5346      7952656C 
 5346      65617365 
 5346      4D61696C 
 5347              	.LASF362:
 5348 0224 63684661 		.ascii	"chFactoryFindObject\000"
 5348      63746F72 
 5348      7946696E 
 5348      644F626A 
 5348      65637400 
 5349              	.LASF358:
 5350 0238 63684661 		.ascii	"chFactoryFindBuffer\000"
 5350      63746F72 
 5350      7946696E 
 5350      64427566 
 5350      66657200 
 5351              	.LASF14:
 5352 024c 5F5F7763 		.ascii	"__wch\000"
 5352      6800
 5353              	.LASF225:
 5354 0252 65786974 		.ascii	"exitcode\000"
 5354      636F6465 
 5354      00
 5355              	.LASF50:
 5356 025b 5F66696C 		.ascii	"_file\000"
 5356      6500
 5357              	.LASF37:
 5358 0261 5F6F6E5F 		.ascii	"_on_exit_args\000"
 5358      65786974 
 5358      5F617267 
 5358      7300
 5359              	.LASF274:
 5360 026f 6F66665F 		.ascii	"off_inst_vtlist\000"
 5360      696E7374 
 5360      5F76746C 
 5360      69737400 
 5361              	.LASF342:
 5362 027f 63684661 		.ascii	"chFactoryFindObjectsFIFO\000"
 5362      63746F72 
 5362      7946696E 
 5362      644F626A 
 5362      65637473 
 5363              	.LASF321:
 5364 0298 6669666F 		.ascii	"fifo\000"
 5364      00
 5365              	.LASF109:
 5366 029d 5F6D6272 		.ascii	"_mbrlen_state\000"
 5366      6C656E5F 
 5366      73746174 
 5366      6500
 5367              	.LASF9:
 5368 02ab 6C6F6E67 		.ascii	"long int\000"
 5368      20696E74 
 5368      00
ARM GAS  /tmp/ccGUgTIG.s 			page 99


 5369              	.LASF118:
 5370 02b4 5F696D70 		.ascii	"_impure_ptr\000"
 5370      7572655F 
 5370      70747200 
 5371              	.LASF77:
 5372 02c0 5F726573 		.ascii	"_result_k\000"
 5372      756C745F 
 5372      6B00
 5373              	.LASF313:
 5374 02ca 72656769 		.ascii	"registered_object_t\000"
 5374      73746572 
 5374      65645F6F 
 5374      626A6563 
 5374      745F7400 
 5375              	.LASF47:
 5376 02de 5F73697A 		.ascii	"_size\000"
 5376      6500
 5377              	.LASF247:
 5378 02e4 7A65726F 		.ascii	"zero\000"
 5378      00
 5379              	.LASF99:
 5380 02e9 5F6C6F63 		.ascii	"_localtime_buf\000"
 5380      616C7469 
 5380      6D655F62 
 5380      756600
 5381              	.LASF337:
 5382 02f8 63684661 		.ascii	"chFactoryFindPipe\000"
 5382      63746F72 
 5382      7946696E 
 5382      64506970 
 5382      6500
 5383              	.LASF130:
 5384 030a 74737461 		.ascii	"tstate_t\000"
 5384      74655F74 
 5384      00
 5385              	.LASF149:
 5386 0313 6570656E 		.ascii	"epending\000"
 5386      64696E67 
 5386      00
 5387              	.LASF221:
 5388 031c 74687265 		.ascii	"threads_queue_t\000"
 5388      6164735F 
 5388      71756575 
 5388      655F7400 
 5389              	.LASF174:
 5390 032c 63685F6C 		.ascii	"ch_list_t\000"
 5390      6973745F 
 5390      7400
 5391              	.LASF283:
 5392 0336 72647074 		.ascii	"rdptr\000"
 5392      7200
 5393              	.LASF32:
 5394 033c 5F5F746D 		.ascii	"__tm_mon\000"
 5394      5F6D6F6E 
 5394      00
 5395              	.LASF175:
 5396 0345 63685F6C 		.ascii	"ch_list\000"
ARM GAS  /tmp/ccGUgTIG.s 			page 100


 5396      69737400 
 5397              	.LASF214:
 5398 034d 6C617374 		.ascii	"laststamp\000"
 5398      7374616D 
 5398      7000
 5399              	.LASF157:
 5400 0357 7265676C 		.ascii	"reglist\000"
 5400      69737400 
 5401              	.LASF328:
 5402 035f 6F626A5F 		.ascii	"obj_pool\000"
 5402      706F6F6C 
 5402      00
 5403              	.LASF379:
 5404 0368 2F686F6D 		.ascii	"/home/ubuntu/Raka/New/ChibiOS_21.11.2/testhal/STM32"
 5404      652F7562 
 5404      756E7475 
 5404      2F52616B 
 5404      612F4E65 
 5405 039b 2F53544D 		.ascii	"/STM32F3xx/ADC\000"
 5405      33324633 
 5405      78782F41 
 5405      444300
 5406              	.LASF96:
 5407 03aa 5F756E75 		.ascii	"_unused_rand\000"
 5407      7365645F 
 5407      72616E64 
 5407      00
 5408              	.LASF290:
 5409 03b7 6D656D63 		.ascii	"memcore_t\000"
 5409      6F72655F 
 5409      7400
 5410              	.LASF5:
 5411 03c1 7369676E 		.ascii	"signed char\000"
 5411      65642063 
 5411      68617200 
 5412              	.LASF230:
 5413 03cd 65776D61 		.ascii	"ewmask\000"
 5413      736B00
 5414              	.LASF121:
 5415 03d4 75696E74 		.ascii	"uint8_t\000"
 5415      385F7400 
 5416              	.LASF343:
 5417 03dc 63684661 		.ascii	"chFactoryCreateObjectsFIFO\000"
 5417      63746F72 
 5417      79437265 
 5417      6174654F 
 5417      626A6563 
 5418              	.LASF381:
 5419 03f7 5F5F6661 		.ascii	"__factory_init\000"
 5419      63746F72 
 5419      795F696E 
 5419      697400
 5420              	.LASF137:
 5421 0406 636F7265 		.ascii	"core_id_t\000"
 5421      5F69645F 
 5421      7400
 5422              	.LASF375:
ARM GAS  /tmp/ccGUgTIG.s 			page 101


 5423 0410 6368506F 		.ascii	"chPoolObjectInit\000"
 5423      6F6C4F62 
 5423      6A656374 
 5423      496E6974 
 5423      00
 5424              	.LASF322:
 5425 0421 64796E5F 		.ascii	"dyn_objects_fifo_t\000"
 5425      6F626A65 
 5425      6374735F 
 5425      6669666F 
 5425      5F7400
 5426              	.LASF134:
 5427 0434 6576656E 		.ascii	"eventmask_t\000"
 5427      746D6173 
 5427      6B5F7400 
 5428              	.LASF376:
 5429 0440 6368436F 		.ascii	"chCoreAllocAlignedI\000"
 5429      7265416C 
 5429      6C6F6341 
 5429      6C69676E 
 5429      65644900 
 5430              	.LASF226:
 5431 0454 77747472 		.ascii	"wttrp\000"
 5431      7000
 5432              	.LASF6:
 5433 045a 756E7369 		.ascii	"unsigned char\000"
 5433      676E6564 
 5433      20636861 
 5433      7200
 5434              	.LASF213:
 5435 0468 6C617374 		.ascii	"lasttime\000"
 5435      74696D65 
 5435      00
 5436              	.LASF168:
 5437 0471 70616E69 		.ascii	"panic_msg\000"
 5437      635F6D73 
 5437      6700
 5438              	.LASF72:
 5439 047b 5F756E73 		.ascii	"_unspecified_locale_info\000"
 5439      70656369 
 5439      66696564 
 5439      5F6C6F63 
 5439      616C655F 
 5440              	.LASF372:
 5441 0494 64796E5F 		.ascii	"dyn_list_init\000"
 5441      6C697374 
 5441      5F696E69 
 5441      7400
 5442              	.LASF65:
 5443 04a2 5F726565 		.ascii	"_reent\000"
 5443      6E7400
 5444              	.LASF363:
 5445 04a9 63684661 		.ascii	"chFactoryRegisterObject\000"
 5445      63746F72 
 5445      79526567 
 5445      69737465 
 5445      724F626A 
ARM GAS  /tmp/ccGUgTIG.s 			page 102


 5446              	.LASF119:
 5447 04c1 5F676C6F 		.ascii	"_global_impure_ptr\000"
 5447      62616C5F 
 5447      696D7075 
 5447      72655F70 
 5447      747200
 5448              	.LASF171:
 5449 04d4 73797374 		.ascii	"system_debug_t\000"
 5449      656D5F64 
 5449      65627567 
 5449      5F7400
 5450              	.LASF285:
 5451 04e3 5F426F6F 		.ascii	"_Bool\000"
 5451      6C00
 5452              	.LASF276:
 5453 04e9 6F66665F 		.ascii	"off_inst_core_id\000"
 5453      696E7374 
 5453      5F636F72 
 5453      655F6964 
 5453      00
 5454              	.LASF87:
 5455 04fa 63686172 		.ascii	"char\000"
 5455      00
 5456              	.LASF310:
 5457 04ff 63685F72 		.ascii	"ch_registered_static_object\000"
 5457      65676973 
 5457      74657265 
 5457      645F7374 
 5457      61746963 
 5458              	.LASF44:
 5459 051b 5F666E73 		.ascii	"_fns\000"
 5459      00
 5460              	.LASF56:
 5461 0520 5F636C6F 		.ascii	"_close\000"
 5461      736500
 5462              	.LASF330:
 5463 0527 73656D5F 		.ascii	"sem_list\000"
 5463      6C697374 
 5463      00
 5464              	.LASF265:
 5465 0530 696E7465 		.ascii	"intervalsize\000"
 5465      7276616C 
 5465      73697A65 
 5465      00
 5466              	.LASF186:
 5467 053d 77746F62 		.ascii	"wtobjp\000"
 5467      6A7000
 5468              	.LASF67:
 5469 0544 5F737464 		.ascii	"_stdin\000"
 5469      696E00
 5470              	.LASF260:
 5471 054b 6F66665F 		.ascii	"off_refs\000"
 5471      72656673 
 5471      00
 5472              	.LASF145:
 5473 0554 666C6167 		.ascii	"flags\000"
 5473      7300
ARM GAS  /tmp/ccGUgTIG.s 			page 103


 5474              	.LASF128:
 5475 055a 73746B61 		.ascii	"stkalign_t\000"
 5475      6C69676E 
 5475      5F7400
 5476              	.LASF158:
