ARM GAS  /tmp/ccvmwPLv.s 			page 1


   1              		.cpu cortex-m4
   2              		.eabi_attribute 20, 1
   3              		.eabi_attribute 21, 1
   4              		.eabi_attribute 23, 3
   5              		.eabi_attribute 24, 1
   6              		.eabi_attribute 25, 1
   7              		.eabi_attribute 26, 1
   8              		.eabi_attribute 30, 2
   9              		.eabi_attribute 34, 1
  10              		.eabi_attribute 18, 4
  11              		.file	"chinstances.c"
  12              		.file 1 "/usr/lib/gcc/arm-none-eabi/9.2.1/include/stddef.h"
  13              		.file 2 "/usr/lib/gcc/arm-none-eabi/9.2.1/include/stdint.h"
  14              		.file 3 "../../../../os/common/ports/ARM-common/chtypes.h"
  15              		.file 4 "../../../../os/rt/include/chearly.h"
  16              		.file 5 "../../../../os/rt/include/chobjects.h"
  17              		.file 6 "../../../../os/rt/include/chrfcu.h"
  18              		.file 7 "../../../../os/rt/include/chdebug.h"
  19              		.file 8 "../../../../os/rt/include/chtime.h"
  20              		.file 9 "../../../../os/rt/include/chlists.h"
  21              		.file 10 "../../../../os/rt/include/chtrace.h"
  22              		.file 11 "../../../../os/common/ext/ARM/CMSIS/Core/Include/core_cm4.h"
  23              		.file 12 "../../../../os/common/ext/ST/STM32F3xx/system_stm32f3xx.h"
  24              		.file 13 "../../../../os/common/ports/ARMv7-M/chcore.h"
  25              		.file 14 "../../../../os/rt/include/chtm.h"
  26              		.file 15 "../../../../os/rt/include/chsem.h"
  27              		.file 16 "../../../../os/rt/include/chmtx.h"
  28              		.file 17 "../../../../os/rt/include/chsys.h"
  29              		.file 18 "../../../../os/rt/include/chthreads.h"
  30              		.file 19 "../../../../os/rt/include/chregistry.h"
  31              		.file 20 "../../../../os/oslib/include/chmemcore.h"
  32              		.file 21 "../../../../os/oslib/include/chmempools.h"
  33              		.file 22 "../../../../os/oslib/include/chfactory.h"
  34              		.file 23 "../../../../os/rt/src/chinstances.c"
  35              		.file 24 "../../../../os/rt/include/chvt.h"
  36              		.file 25 "../../../../os/hal/osal/rt-nil/chcore_timer.h"
  37              		.section	.gnu.debuglto_.debug_info,"e",%progbits
  38              	.Ldebug_info0:
  39              		.hidden	chinstances.c.2756c7e4
  40              		.weak	chinstances.c.2756c7e4
  41              	chinstances.c.2756c7e4:
  42 0000 20100000 		.4byte	0x1020
  43 0004 0400     		.2byte	0x4
  44 0006 00000000 		.4byte	.Ldebug_abbrev0
  45 000a 04       		.byte	0x4
  46 000b 01       		.uleb128 0x1
  47 000c 32090000 		.4byte	.LASF218
  48 0010 0C       		.byte	0xc
  49 0011 C9060000 		.4byte	.LASF219
  50 0015 D1010000 		.4byte	.LASF220
  51 0019 00000000 		.4byte	.Ldebug_line0
  52 001d 02       		.uleb128 0x2
  53 001e 04       		.byte	0x4
  54 001f 05       		.byte	0x5
  55 0020 696E7400 		.ascii	"int\000"
  56 0024 03       		.uleb128 0x3
  57 0025 18000000 		.4byte	.LASF5
ARM GAS  /tmp/ccvmwPLv.s 			page 2


  58 0029 01       		.byte	0x1
  59 002a D1       		.byte	0xd1
  60 002b 17       		.byte	0x17
  61 002c 30000000 		.4byte	0x30
  62 0030 04       		.uleb128 0x4
  63 0031 04       		.byte	0x4
  64 0032 07       		.byte	0x7
  65 0033 6D050000 		.4byte	.LASF0
  66 0037 04       		.uleb128 0x4
  67 0038 08       		.byte	0x8
  68 0039 05       		.byte	0x5
  69 003a AE040000 		.4byte	.LASF1
  70 003e 04       		.uleb128 0x4
  71 003f 08       		.byte	0x8
  72 0040 04       		.byte	0x4
  73 0041 16060000 		.4byte	.LASF2
  74 0045 04       		.uleb128 0x4
  75 0046 01       		.byte	0x1
  76 0047 06       		.byte	0x6
  77 0048 2C020000 		.4byte	.LASF3
  78 004c 04       		.uleb128 0x4
  79 004d 02       		.byte	0x2
  80 004e 05       		.byte	0x5
  81 004f 22080000 		.4byte	.LASF4
  82 0053 03       		.uleb128 0x3
  83 0054 74000000 		.4byte	.LASF6
  84 0058 02       		.byte	0x2
  85 0059 28       		.byte	0x28
  86 005a 18       		.byte	0x18
  87 005b 64000000 		.4byte	0x64
  88 005f 05       		.uleb128 0x5
  89 0060 53000000 		.4byte	0x53
  90 0064 04       		.uleb128 0x4
  91 0065 04       		.byte	0x4
  92 0066 05       		.byte	0x5
  93 0067 7C010000 		.4byte	.LASF7
  94 006b 03       		.uleb128 0x3
  95 006c 3F020000 		.4byte	.LASF8
  96 0070 02       		.byte	0x2
  97 0071 2E       		.byte	0x2e
  98 0072 18       		.byte	0x18
  99 0073 7C000000 		.4byte	0x7c
 100 0077 06       		.uleb128 0x6
 101 0078 6B000000 		.4byte	0x6b
 102 007c 04       		.uleb128 0x4
 103 007d 01       		.byte	0x1
 104 007e 08       		.byte	0x8
 105 007f 63020000 		.4byte	.LASF9
 106 0083 03       		.uleb128 0x3
 107 0084 B7060000 		.4byte	.LASF10
 108 0088 02       		.byte	0x2
 109 0089 31       		.byte	0x31
 110 008a 19       		.byte	0x19
 111 008b 8F000000 		.4byte	0x8f
 112 008f 04       		.uleb128 0x4
 113 0090 02       		.byte	0x2
 114 0091 07       		.byte	0x7
ARM GAS  /tmp/ccvmwPLv.s 			page 3


 115 0092 410A0000 		.4byte	.LASF11
 116 0096 03       		.uleb128 0x3
 117 0097 230A0000 		.4byte	.LASF12
 118 009b 02       		.byte	0x2
 119 009c 34       		.byte	0x34
 120 009d 19       		.byte	0x19
 121 009e A2000000 		.4byte	0xa2
 122 00a2 04       		.uleb128 0x4
 123 00a3 04       		.byte	0x4
 124 00a4 07       		.byte	0x7
 125 00a5 BD030000 		.4byte	.LASF13
 126 00a9 03       		.uleb128 0x3
 127 00aa 61080000 		.4byte	.LASF14
 128 00ae 02       		.byte	0x2
 129 00af 37       		.byte	0x37
 130 00b0 19       		.byte	0x19
 131 00b1 BA000000 		.4byte	0xba
 132 00b5 05       		.uleb128 0x5
 133 00b6 A9000000 		.4byte	0xa9
 134 00ba 04       		.uleb128 0x4
 135 00bb 08       		.byte	0x8
 136 00bc 07       		.byte	0x7
 137 00bd A0060000 		.4byte	.LASF15
 138 00c1 03       		.uleb128 0x3
 139 00c2 60050000 		.4byte	.LASF16
 140 00c6 03       		.byte	0x3
 141 00c7 36       		.byte	0x36
 142 00c8 1D       		.byte	0x1d
 143 00c9 96000000 		.4byte	0x96
 144 00cd 03       		.uleb128 0x3
 145 00ce F9060000 		.4byte	.LASF17
 146 00d2 03       		.byte	0x3
 147 00d3 48       		.byte	0x48
 148 00d4 1D       		.byte	0x1d
 149 00d5 A9000000 		.4byte	0xa9
 150 00d9 03       		.uleb128 0x3
 151 00da 87050000 		.4byte	.LASF18
 152 00de 04       		.byte	0x4
 153 00df 4D       		.byte	0x4d
 154 00e0 19       		.byte	0x19
 155 00e1 C1000000 		.4byte	0xc1
 156 00e5 03       		.uleb128 0x3
 157 00e6 FA020000 		.4byte	.LASF19
 158 00ea 04       		.byte	0x4
 159 00eb 50       		.byte	0x50
 160 00ec 19       		.byte	0x19
 161 00ed CD000000 		.4byte	0xcd
 162 00f1 03       		.uleb128 0x3
 163 00f2 A9070000 		.4byte	.LASF20
 164 00f6 04       		.byte	0x4
 165 00f7 53       		.byte	0x53
 166 00f8 19       		.byte	0x19
 167 00f9 6B000000 		.4byte	0x6b
 168 00fd 03       		.uleb128 0x3
 169 00fe 9A010000 		.4byte	.LASF21
 170 0102 04       		.byte	0x4
 171 0103 54       		.byte	0x54
ARM GAS  /tmp/ccvmwPLv.s 			page 4


 172 0104 19       		.byte	0x19
 173 0105 6B000000 		.4byte	0x6b
 174 0109 03       		.uleb128 0x3
 175 010a 07090000 		.4byte	.LASF22
 176 010e 04       		.byte	0x4
 177 010f 55       		.byte	0x55
 178 0110 19       		.byte	0x19
 179 0111 6B000000 		.4byte	0x6b
 180 0115 03       		.uleb128 0x3
 181 0116 55000000 		.4byte	.LASF23
 182 011a 04       		.byte	0x4
 183 011b 57       		.byte	0x57
 184 011c 19       		.byte	0x19
 185 011d 96000000 		.4byte	0x96
 186 0121 03       		.uleb128 0x3
 187 0122 ED060000 		.4byte	.LASF24
 188 0126 04       		.byte	0x4
 189 0127 58       		.byte	0x58
 190 0128 19       		.byte	0x19
 191 0129 53000000 		.4byte	0x53
 192 012d 03       		.uleb128 0x3
 193 012e 51020000 		.4byte	.LASF25
 194 0132 04       		.byte	0x4
 195 0133 5A       		.byte	0x5a
 196 0134 19       		.byte	0x19
 197 0135 96000000 		.4byte	0x96
 198 0139 03       		.uleb128 0x3
 199 013a 6F030000 		.4byte	.LASF26
 200 013e 04       		.byte	0x4
 201 013f 5C       		.byte	0x5c
 202 0140 19       		.byte	0x19
 203 0141 53000000 		.4byte	0x53
 204 0145 03       		.uleb128 0x3
 205 0146 63040000 		.4byte	.LASF27
 206 014a 04       		.byte	0x4
 207 014b 5D       		.byte	0x5d
 208 014c 19       		.byte	0x19
 209 014d 96000000 		.4byte	0x96
 210 0151 03       		.uleb128 0x3
 211 0152 47020000 		.4byte	.LASF28
 212 0156 04       		.byte	0x4
 213 0157 80       		.byte	0x80
 214 0158 12       		.byte	0x12
 215 0159 30000000 		.4byte	0x30
 216 015d 03       		.uleb128 0x3
 217 015e FE050000 		.4byte	.LASF29
 218 0162 04       		.byte	0x4
 219 0163 85       		.byte	0x85
 220 0164 1A       		.byte	0x1a
 221 0165 69010000 		.4byte	0x169
 222 0169 07       		.uleb128 0x7
 223 016a 1C040000 		.4byte	.LASF44
 224 016e 48       		.byte	0x48
 225 016f 05       		.byte	0x5
 226 0170 9C       		.byte	0x9c
 227 0171 08       		.byte	0x8
 228 0172 4C020000 		.4byte	0x24c
ARM GAS  /tmp/ccvmwPLv.s 			page 5


 229 0176 08       		.uleb128 0x8
 230 0177 68647200 		.ascii	"hdr\000"
 231 017b 05       		.byte	0x5
 232 017c AD       		.byte	0xad
 233 017d 05       		.byte	0x5
 234 017e FC070000 		.4byte	0x7fc
 235 0182 00       		.byte	0
 236 0183 08       		.uleb128 0x8
 237 0184 63747800 		.ascii	"ctx\000"
 238 0188 05       		.byte	0x5
 239 0189 B1       		.byte	0xb1
 240 018a 21       		.byte	0x21
 241 018b 10070000 		.4byte	0x710
 242 018f 0C       		.byte	0xc
 243 0190 09       		.uleb128 0x9
 244 0191 5F030000 		.4byte	.LASF30
 245 0195 05       		.byte	0x5
 246 0196 B6       		.byte	0xb6
 247 0197 21       		.byte	0x21
 248 0198 C2030000 		.4byte	0x3c2
 249 019c 10       		.byte	0x10
 250 019d 09       		.uleb128 0x9
 251 019e 4F000000 		.4byte	.LASF31
 252 01a2 05       		.byte	0x5
 253 01a3 BB       		.byte	0xbb
 254 01a4 22       		.byte	0x22
 255 01a5 09090000 		.4byte	0x909
 256 01a9 18       		.byte	0x18
 257 01aa 09       		.uleb128 0x9
 258 01ab F4070000 		.4byte	.LASF32
 259 01af 05       		.byte	0x5
 260 01b0 C0       		.byte	0xc0
 261 01b1 22       		.byte	0x22
 262 01b2 4E030000 		.4byte	0x34e
 263 01b6 1C       		.byte	0x1c
 264 01b7 09       		.uleb128 0x9
 265 01b8 70070000 		.4byte	.LASF33
 266 01bc 05       		.byte	0x5
 267 01bd C9       		.byte	0xc9
 268 01be 22       		.byte	0x22
 269 01bf 0F090000 		.4byte	0x90f
 270 01c3 20       		.byte	0x20
 271 01c4 09       		.uleb128 0x9
 272 01c5 F7000000 		.4byte	.LASF34
 273 01c9 05       		.byte	0x5
 274 01ca CE       		.byte	0xce
 275 01cb 21       		.byte	0x21
 276 01cc FD000000 		.4byte	0xfd
 277 01d0 24       		.byte	0x24
 278 01d1 09       		.uleb128 0x9
 279 01d2 F4020000 		.4byte	.LASF35
 280 01d6 05       		.byte	0x5
 281 01d7 D2       		.byte	0xd2
 282 01d8 21       		.byte	0x21
 283 01d9 F1000000 		.4byte	0xf1
 284 01dd 25       		.byte	0x25
 285 01de 09       		.uleb128 0x9
ARM GAS  /tmp/ccvmwPLv.s 			page 6


 286 01df 32070000 		.4byte	.LASF36
 287 01e3 05       		.byte	0x5
 288 01e4 D7       		.byte	0xd7
 289 01e5 21       		.byte	0x21
 290 01e6 09010000 		.4byte	0x109
 291 01ea 26       		.byte	0x26
 292 01eb 0A       		.uleb128 0xa
 293 01ec 7500     		.ascii	"u\000"
 294 01ee 05       		.byte	0x5
 295 01ef 2801     		.2byte	0x128
 296 01f1 21       		.byte	0x21
 297 01f2 2A080000 		.4byte	0x82a
 298 01f6 28       		.byte	0x28
 299 01f7 0B       		.uleb128 0xb
 300 01f8 D2080000 		.4byte	.LASF37
 301 01fc 05       		.byte	0x5
 302 01fd 2D01     		.2byte	0x12d
 303 01ff 21       		.byte	0x21
 304 0200 95030000 		.4byte	0x395
 305 0204 2C       		.byte	0x2c
 306 0205 0B       		.uleb128 0xb
 307 0206 78080000 		.4byte	.LASF38
 308 020a 05       		.byte	0x5
 309 020b 3301     		.2byte	0x133
 310 020d 21       		.byte	0x21
 311 020e C2030000 		.4byte	0x3c2
 312 0212 30       		.byte	0x30
 313 0213 0B       		.uleb128 0xb
 314 0214 A3010000 		.4byte	.LASF39
 315 0218 05       		.byte	0x5
 316 0219 3901     		.2byte	0x139
 317 021b 21       		.byte	0x21
 318 021c 2D010000 		.4byte	0x12d
 319 0220 38       		.byte	0x38
 320 0221 0B       		.uleb128 0xb
 321 0222 99040000 		.4byte	.LASF40
 322 0226 05       		.byte	0x5
 323 0227 4001     		.2byte	0x140
 324 0229 22       		.byte	0x22
 325 022a 03090000 		.4byte	0x903
 326 022e 3C       		.byte	0x3c
 327 022f 0B       		.uleb128 0xb
 328 0230 5A040000 		.4byte	.LASF41
 329 0234 05       		.byte	0x5
 330 0235 4401     		.2byte	0x144
 331 0237 21       		.byte	0x21
 332 0238 15010000 		.4byte	0x115
 333 023c 40       		.byte	0x40
 334 023d 0B       		.uleb128 0xb
 335 023e 22030000 		.4byte	.LASF42
 336 0242 05       		.byte	0x5
 337 0243 4B01     		.2byte	0x14b
 338 0245 22       		.byte	0x22
 339 0246 B4040000 		.4byte	0x4b4
 340 024a 44       		.byte	0x44
 341 024b 00       		.byte	0
 342 024c 03       		.uleb128 0x3
ARM GAS  /tmp/ccvmwPLv.s 			page 7


 343 024d 8F050000 		.4byte	.LASF43
 344 0251 04       		.byte	0x4
 345 0252 8A       		.byte	0x8a
 346 0253 1F       		.byte	0x1f
 347 0254 58020000 		.4byte	0x258
 348 0258 0C       		.uleb128 0xc
 349 0259 9B030000 		.4byte	.LASF45
 350 025d 9808     		.2byte	0x898
 351 025f 05       		.byte	0x5
 352 0260 8A01     		.2byte	0x18a
 353 0262 08       		.byte	0x8
 354 0263 E6020000 		.4byte	0x2e6
 355 0267 0B       		.uleb128 0xb
 356 0268 A3070000 		.4byte	.LASF46
 357 026c 05       		.byte	0x5
 358 026d 8E01     		.2byte	0x18e
 359 026f 21       		.byte	0x21
 360 0270 40090000 		.4byte	0x940
 361 0274 00       		.byte	0
 362 0275 0B       		.uleb128 0xb
 363 0276 CB080000 		.4byte	.LASF47
 364 027a 05       		.byte	0x5
 365 027b 9201     		.2byte	0x192
 366 027d 21       		.byte	0x21
 367 027e BD070000 		.4byte	0x7bd
 368 0282 10       		.byte	0x10
 369 0283 0B       		.uleb128 0xb
 370 0284 9C080000 		.4byte	.LASF48
 371 0288 05       		.byte	0x5
 372 0289 9901     		.2byte	0x199
 373 028b 21       		.byte	0x21
 374 028c E4070000 		.4byte	0x7e4
 375 0290 28       		.byte	0x28
 376 0291 0B       		.uleb128 0xb
 377 0292 05030000 		.4byte	.LASF49
 378 0296 05       		.byte	0x5
 379 0297 9E01     		.2byte	0x19e
 380 0299 21       		.byte	0x21
 381 029a 51010000 		.4byte	0x151
 382 029e 30       		.byte	0x30
 383 029f 0B       		.uleb128 0xb
 384 02a0 73080000 		.4byte	.LASF50
 385 02a4 05       		.byte	0x5
 386 02a5 A401     		.2byte	0x1a4
 387 02a7 21       		.byte	0x21
 388 02a8 0D030000 		.4byte	0x30d
 389 02ac 34       		.byte	0x34
 390 02ad 0B       		.uleb128 0xb
 391 02ae F0000000 		.4byte	.LASF51
 392 02b2 05       		.byte	0x5
 393 02b3 A901     		.2byte	0x1a9
 394 02b5 22       		.byte	0x22
 395 02b6 B4090000 		.4byte	0x9b4
 396 02ba 38       		.byte	0x38
 397 02bb 0B       		.uleb128 0xb
 398 02bc 58070000 		.4byte	.LASF52
 399 02c0 05       		.byte	0x5
ARM GAS  /tmp/ccvmwPLv.s 			page 8


 400 02c1 AD01     		.2byte	0x1ad
 401 02c3 21       		.byte	0x21
 402 02c4 5D010000 		.4byte	0x15d
 403 02c8 3C       		.byte	0x3c
 404 02c9 0A       		.uleb128 0xa
 405 02ca 64626700 		.ascii	"dbg\000"
 406 02ce 05       		.byte	0x5
 407 02cf B101     		.2byte	0x1b1
 408 02d1 21       		.byte	0x21
 409 02d2 65030000 		.4byte	0x365
 410 02d6 84       		.byte	0x84
 411 02d7 0B       		.uleb128 0xb
 412 02d8 84020000 		.4byte	.LASF53
 413 02dc 05       		.byte	0x5
 414 02dd B601     		.2byte	0x1b6
 415 02df 21       		.byte	0x21
 416 02e0 23060000 		.4byte	0x623
 417 02e4 90       		.byte	0x90
 418 02e5 00       		.byte	0
 419 02e6 03       		.uleb128 0x3
 420 02e7 E5030000 		.4byte	.LASF54
 421 02eb 06       		.byte	0x6
 422 02ec 3F       		.byte	0x3f
 423 02ed 12       		.byte	0x12
 424 02ee 96000000 		.4byte	0x96
 425 02f2 07       		.uleb128 0x7
 426 02f3 16010000 		.4byte	.LASF55
 427 02f7 04       		.byte	0x4
 428 02f8 06       		.byte	0x6
 429 02f9 44       		.byte	0x44
 430 02fa 10       		.byte	0x10
 431 02fb 0D030000 		.4byte	0x30d
 432 02ff 09       		.uleb128 0x9
 433 0300 04050000 		.4byte	.LASF56
 434 0304 06       		.byte	0x6
 435 0305 48       		.byte	0x48
 436 0306 21       		.byte	0x21
 437 0307 E6020000 		.4byte	0x2e6
 438 030b 00       		.byte	0
 439 030c 00       		.byte	0
 440 030d 03       		.uleb128 0x3
 441 030e 83040000 		.4byte	.LASF57
 442 0312 06       		.byte	0x6
 443 0313 49       		.byte	0x49
 444 0314 03       		.byte	0x3
 445 0315 F2020000 		.4byte	0x2f2
 446 0319 07       		.uleb128 0x7
 447 031a 81080000 		.4byte	.LASF58
 448 031e 0C       		.byte	0xc
 449 031f 07       		.byte	0x7
 450 0320 3E       		.byte	0x3e
 451 0321 10       		.byte	0x10
 452 0322 4E030000 		.4byte	0x34e
 453 0326 09       		.uleb128 0x9
 454 0327 7A020000 		.4byte	.LASF59
 455 032b 07       		.byte	0x7
 456 032c 46       		.byte	0x46
ARM GAS  /tmp/ccvmwPLv.s 			page 9


 457 032d 24       		.byte	0x24
 458 032e 54030000 		.4byte	0x354
 459 0332 00       		.byte	0
 460 0333 09       		.uleb128 0x9
 461 0334 85060000 		.4byte	.LASF60
 462 0338 07       		.byte	0x7
 463 0339 4B       		.byte	0x4b
 464 033a 19       		.byte	0x19
 465 033b 39010000 		.4byte	0x139
 466 033f 04       		.byte	0x4
 467 0340 09       		.uleb128 0x9
 468 0341 FD000000 		.4byte	.LASF61
 469 0345 07       		.byte	0x7
 470 0346 4F       		.byte	0x4f
 471 0347 19       		.byte	0x19
 472 0348 39010000 		.4byte	0x139
 473 034c 08       		.byte	0x8
 474 034d 00       		.byte	0
 475 034e 0D       		.uleb128 0xd
 476 034f 04       		.byte	0x4
 477 0350 60030000 		.4byte	0x360
 478 0354 05       		.uleb128 0x5
 479 0355 4E030000 		.4byte	0x34e
 480 0359 04       		.uleb128 0x4
 481 035a 01       		.byte	0x1
 482 035b 08       		.byte	0x8
 483 035c B7020000 		.4byte	.LASF62
 484 0360 06       		.uleb128 0x6
 485 0361 59030000 		.4byte	0x359
 486 0365 03       		.uleb128 0x3
 487 0366 91020000 		.4byte	.LASF63
 488 036a 07       		.byte	0x7
 489 036b 51       		.byte	0x51
 490 036c 03       		.byte	0x3
 491 036d 19030000 		.4byte	0x319
 492 0371 03       		.uleb128 0x3
 493 0372 2F000000 		.4byte	.LASF64
 494 0376 08       		.byte	0x8
 495 0377 6D       		.byte	0x6d
 496 0378 12       		.byte	0x12
 497 0379 96000000 		.4byte	0x96
 498 037d 03       		.uleb128 0x3
 499 037e BC040000 		.4byte	.LASF65
 500 0382 08       		.byte	0x8
 501 0383 79       		.byte	0x79
 502 0384 12       		.byte	0x12
 503 0385 96000000 		.4byte	0x96
 504 0389 03       		.uleb128 0x3
 505 038a 13020000 		.4byte	.LASF66
 506 038e 08       		.byte	0x8
 507 038f 81       		.byte	0x81
 508 0390 12       		.byte	0x12
 509 0391 A9000000 		.4byte	0xa9
 510 0395 03       		.uleb128 0x3
 511 0396 AC010000 		.4byte	.LASF67
 512 039a 09       		.byte	0x9
 513 039b 32       		.byte	0x32
ARM GAS  /tmp/ccvmwPLv.s 			page 10


 514 039c 18       		.byte	0x18
 515 039d A1030000 		.4byte	0x3a1
 516 03a1 07       		.uleb128 0x7
 517 03a2 B6010000 		.4byte	.LASF68
 518 03a6 04       		.byte	0x4
 519 03a7 09       		.byte	0x9
 520 03a8 38       		.byte	0x38
 521 03a9 08       		.byte	0x8
 522 03aa BC030000 		.4byte	0x3bc
 523 03ae 09       		.uleb128 0x9
 524 03af AB0A0000 		.4byte	.LASF69
 525 03b3 09       		.byte	0x9
 526 03b4 39       		.byte	0x39
 527 03b5 1A       		.byte	0x1a
 528 03b6 BC030000 		.4byte	0x3bc
 529 03ba 00       		.byte	0
 530 03bb 00       		.byte	0
 531 03bc 0D       		.uleb128 0xd
 532 03bd 04       		.byte	0x4
 533 03be 95030000 		.4byte	0x395
 534 03c2 03       		.uleb128 0x3
 535 03c3 CF030000 		.4byte	.LASF70
 536 03c7 09       		.byte	0x9
 537 03c8 3F       		.byte	0x3f
 538 03c9 19       		.byte	0x19
 539 03ca CE030000 		.4byte	0x3ce
 540 03ce 07       		.uleb128 0x7
 541 03cf A4080000 		.4byte	.LASF71
 542 03d3 08       		.byte	0x8
 543 03d4 09       		.byte	0x9
 544 03d5 45       		.byte	0x45
 545 03d6 08       		.byte	0x8
 546 03d7 F6030000 		.4byte	0x3f6
 547 03db 09       		.uleb128 0x9
 548 03dc AB0A0000 		.4byte	.LASF69
 549 03e0 09       		.byte	0x9
 550 03e1 46       		.byte	0x46
 551 03e2 1A       		.byte	0x1a
 552 03e3 F6030000 		.4byte	0x3f6
 553 03e7 00       		.byte	0
 554 03e8 09       		.uleb128 0x9
 555 03e9 B00A0000 		.4byte	.LASF72
 556 03ed 09       		.byte	0x9
 557 03ee 47       		.byte	0x47
 558 03ef 1A       		.byte	0x1a
 559 03f0 F6030000 		.4byte	0x3f6
 560 03f4 04       		.byte	0x4
 561 03f5 00       		.byte	0
 562 03f6 0D       		.uleb128 0xd
 563 03f7 04       		.byte	0x4
 564 03f8 C2030000 		.4byte	0x3c2
 565 03fc 03       		.uleb128 0x3
 566 03fd E2040000 		.4byte	.LASF73
 567 0401 09       		.byte	0x9
 568 0402 4E       		.byte	0x4e
 569 0403 22       		.byte	0x22
 570 0404 08040000 		.4byte	0x408
ARM GAS  /tmp/ccvmwPLv.s 			page 11


 571 0408 07       		.uleb128 0x7
 572 0409 4F080000 		.4byte	.LASF74
 573 040d 0C       		.byte	0xc
 574 040e 09       		.byte	0x9
 575 040f 55       		.byte	0x55
 576 0410 08       		.byte	0x8
 577 0411 3D040000 		.4byte	0x43d
 578 0415 09       		.uleb128 0x9
 579 0416 AB0A0000 		.4byte	.LASF69
 580 041a 09       		.byte	0x9
 581 041b 56       		.byte	0x56
 582 041c 1A       		.byte	0x1a
 583 041d 3D040000 		.4byte	0x43d
 584 0421 00       		.byte	0
 585 0422 09       		.uleb128 0x9
 586 0423 B00A0000 		.4byte	.LASF72
 587 0427 09       		.byte	0x9
 588 0428 57       		.byte	0x57
 589 0429 1A       		.byte	0x1a
 590 042a 3D040000 		.4byte	0x43d
 591 042e 04       		.byte	0x4
 592 042f 09       		.uleb128 0x9
 593 0430 5E010000 		.4byte	.LASF75
 594 0434 09       		.byte	0x9
 595 0435 58       		.byte	0x58
 596 0436 19       		.byte	0x19
 597 0437 15010000 		.4byte	0x115
 598 043b 08       		.byte	0x8
 599 043c 00       		.byte	0
 600 043d 0D       		.uleb128 0xd
 601 043e 04       		.byte	0x4
 602 043f FC030000 		.4byte	0x3fc
 603 0443 03       		.uleb128 0x3
 604 0444 08000000 		.4byte	.LASF76
 605 0448 09       		.byte	0x9
 606 0449 5F       		.byte	0x5f
 607 044a 1E       		.byte	0x1e
 608 044b 4F040000 		.4byte	0x44f
 609 044f 07       		.uleb128 0x7
 610 0450 D0050000 		.4byte	.LASF77
 611 0454 0C       		.byte	0xc
 612 0455 09       		.byte	0x9
 613 0456 64       		.byte	0x64
 614 0457 08       		.byte	0x8
 615 0458 84040000 		.4byte	0x484
 616 045c 09       		.uleb128 0x9
 617 045d AB0A0000 		.4byte	.LASF69
 618 0461 09       		.byte	0x9
 619 0462 65       		.byte	0x65
 620 0463 1A       		.byte	0x1a
 621 0464 84040000 		.4byte	0x484
 622 0468 00       		.byte	0
 623 0469 09       		.uleb128 0x9
 624 046a B00A0000 		.4byte	.LASF72
 625 046e 09       		.byte	0x9
 626 046f 66       		.byte	0x66
 627 0470 1A       		.byte	0x1a
ARM GAS  /tmp/ccvmwPLv.s 			page 12


 628 0471 84040000 		.4byte	0x484
 629 0475 04       		.byte	0x4
 630 0476 09       		.uleb128 0x9
 631 0477 F3060000 		.4byte	.LASF78
 632 047b 09       		.byte	0x9
 633 047c 67       		.byte	0x67
 634 047d 19       		.byte	0x19
 635 047e 7D030000 		.4byte	0x37d
 636 0482 08       		.byte	0x8
 637 0483 00       		.byte	0
 638 0484 0D       		.uleb128 0xd
 639 0485 04       		.byte	0x4
 640 0486 43040000 		.4byte	0x443
 641 048a 0E       		.uleb128 0xe
 642 048b 08       		.byte	0x8
 643 048c 0A       		.byte	0xa
 644 048d 83       		.byte	0x83
 645 048e 05       		.byte	0x5
 646 048f AE040000 		.4byte	0x4ae
 647 0493 08       		.uleb128 0x8
 648 0494 6E747000 		.ascii	"ntp\000"
 649 0498 0A       		.byte	0xa
 650 0499 87       		.byte	0x87
 651 049a 1E       		.byte	0x1e
 652 049b AE040000 		.4byte	0x4ae
 653 049f 00       		.byte	0
 654 04a0 09       		.uleb128 0x9
 655 04a1 E4020000 		.4byte	.LASF79
 656 04a5 0A       		.byte	0xa
 657 04a6 8B       		.byte	0x8b
 658 04a7 1E       		.byte	0x1e
 659 04a8 B4040000 		.4byte	0x4b4
 660 04ac 04       		.byte	0x4
 661 04ad 00       		.byte	0
 662 04ae 0D       		.uleb128 0xd
 663 04af 04       		.byte	0x4
 664 04b0 5D010000 		.4byte	0x15d
 665 04b4 0F       		.uleb128 0xf
 666 04b5 04       		.byte	0x4
 667 04b6 0E       		.uleb128 0xe
 668 04b7 08       		.byte	0x8
 669 04b8 0A       		.byte	0xa
 670 04b9 90       		.byte	0x90
 671 04ba 05       		.byte	0x5
 672 04bb D9040000 		.4byte	0x4d9
 673 04bf 08       		.uleb128 0x8
 674 04c0 747000   		.ascii	"tp\000"
 675 04c3 0A       		.byte	0xa
 676 04c4 94       		.byte	0x94
 677 04c5 1E       		.byte	0x1e
 678 04c6 AE040000 		.4byte	0x4ae
 679 04ca 00       		.byte	0
 680 04cb 08       		.uleb128 0x8
 681 04cc 6D736700 		.ascii	"msg\000"
 682 04d0 0A       		.byte	0xa
 683 04d1 98       		.byte	0x98
 684 04d2 1D       		.byte	0x1d
ARM GAS  /tmp/ccvmwPLv.s 			page 13


 685 04d3 21010000 		.4byte	0x121
 686 04d7 04       		.byte	0x4
 687 04d8 00       		.byte	0
 688 04d9 0E       		.uleb128 0xe
 689 04da 04       		.byte	0x4
 690 04db 0A       		.byte	0xa
 691 04dc 9D       		.byte	0x9d
 692 04dd 05       		.byte	0x5
 693 04de F0040000 		.4byte	0x4f0
 694 04e2 09       		.uleb128 0x9
 695 04e3 F4070000 		.4byte	.LASF32
 696 04e7 0A       		.byte	0xa
 697 04e8 A1       		.byte	0xa1
 698 04e9 1E       		.byte	0x1e
 699 04ea 4E030000 		.4byte	0x34e
 700 04ee 00       		.byte	0
 701 04ef 00       		.byte	0
 702 04f0 0E       		.uleb128 0xe
 703 04f1 04       		.byte	0x4
 704 04f2 0A       		.byte	0xa
 705 04f3 A6       		.byte	0xa6
 706 04f4 05       		.byte	0x5
 707 04f5 07050000 		.4byte	0x507
 708 04f9 09       		.uleb128 0x9
 709 04fa 3D070000 		.4byte	.LASF80
 710 04fe 0A       		.byte	0xa
 711 04ff AA       		.byte	0xaa
 712 0500 1E       		.byte	0x1e
 713 0501 4E030000 		.4byte	0x34e
 714 0505 00       		.byte	0
 715 0506 00       		.byte	0
 716 0507 0E       		.uleb128 0xe
 717 0508 08       		.byte	0x8
 718 0509 0A       		.byte	0xa
 719 050a AF       		.byte	0xaf
 720 050b 05       		.byte	0x5
 721 050c 2B050000 		.4byte	0x52b
 722 0510 08       		.uleb128 0x8
 723 0511 75703100 		.ascii	"up1\000"
 724 0515 0A       		.byte	0xa
 725 0516 B3       		.byte	0xb3
 726 0517 1E       		.byte	0x1e
 727 0518 B4040000 		.4byte	0x4b4
 728 051c 00       		.byte	0
 729 051d 08       		.uleb128 0x8
 730 051e 75703200 		.ascii	"up2\000"
 731 0522 0A       		.byte	0xa
 732 0523 B7       		.byte	0xb7
 733 0524 1E       		.byte	0x1e
 734 0525 B4040000 		.4byte	0x4b4
 735 0529 04       		.byte	0x4
 736 052a 00       		.byte	0
 737 052b 10       		.uleb128 0x10
 738 052c 08       		.byte	0x8
 739 052d 0A       		.byte	0xa
 740 052e 7F       		.byte	0x7f
 741 052f 03       		.byte	0x3
ARM GAS  /tmp/ccvmwPLv.s 			page 14


 742 0530 70050000 		.4byte	0x570
 743 0534 11       		.uleb128 0x11
 744 0535 737700   		.ascii	"sw\000"
 745 0538 0A       		.byte	0xa
 746 0539 8C       		.byte	0x8c
 747 053a 07       		.byte	0x7
 748 053b 8A040000 		.4byte	0x48a
 749 053f 11       		.uleb128 0x11
 750 0540 72647900 		.ascii	"rdy\000"
 751 0544 0A       		.byte	0xa
 752 0545 99       		.byte	0x99
 753 0546 07       		.byte	0x7
 754 0547 B6040000 		.4byte	0x4b6
 755 054b 11       		.uleb128 0x11
 756 054c 69737200 		.ascii	"isr\000"
 757 0550 0A       		.byte	0xa
 758 0551 A2       		.byte	0xa2
 759 0552 07       		.byte	0x7
 760 0553 D9040000 		.4byte	0x4d9
 761 0557 12       		.uleb128 0x12
 762 0558 6B070000 		.4byte	.LASF81
 763 055c 0A       		.byte	0xa
 764 055d AB       		.byte	0xab
 765 055e 07       		.byte	0x7
 766 055f F0040000 		.4byte	0x4f0
 767 0563 12       		.uleb128 0x12
 768 0564 6F000000 		.4byte	.LASF82
 769 0568 0A       		.byte	0xa
 770 0569 B8       		.byte	0xb8
 771 056a 07       		.byte	0x7
 772 056b 07050000 		.4byte	0x507
 773 056f 00       		.byte	0
 774 0570 0E       		.uleb128 0xe
 775 0571 10       		.byte	0x10
 776 0572 0A       		.byte	0xa
 777 0573 6C       		.byte	0x6c
 778 0574 09       		.byte	0x9
 779 0575 C2050000 		.4byte	0x5c2
 780 0579 13       		.uleb128 0x13
 781 057a 2B010000 		.4byte	.LASF83
 782 057e 0A       		.byte	0xa
 783 057f 70       		.byte	0x70
 784 0580 19       		.byte	0x19
 785 0581 96000000 		.4byte	0x96
 786 0585 04       		.byte	0x4
 787 0586 03       		.byte	0x3
 788 0587 1D       		.byte	0x1d
 789 0588 00       		.byte	0
 790 0589 13       		.uleb128 0x13
 791 058a F7000000 		.4byte	.LASF34
 792 058e 0A       		.byte	0xa
 793 058f 74       		.byte	0x74
 794 0590 19       		.byte	0x19
 795 0591 96000000 		.4byte	0x96
 796 0595 04       		.byte	0x4
 797 0596 05       		.byte	0x5
 798 0597 18       		.byte	0x18
ARM GAS  /tmp/ccvmwPLv.s 			page 15


 799 0598 00       		.byte	0
 800 0599 13       		.uleb128 0x13
 801 059a D7000000 		.4byte	.LASF84
 802 059e 0A       		.byte	0xa
 803 059f 7A       		.byte	0x7a
 804 05a0 19       		.byte	0x19
 805 05a1 96000000 		.4byte	0x96
 806 05a5 04       		.byte	0x4
 807 05a6 18       		.byte	0x18
 808 05a7 00       		.byte	0
 809 05a8 00       		.byte	0
 810 05a9 09       		.uleb128 0x9
 811 05aa 90070000 		.4byte	.LASF85
 812 05ae 0A       		.byte	0xa
 813 05af 7E       		.byte	0x7e
 814 05b0 19       		.byte	0x19
 815 05b1 71030000 		.4byte	0x371
 816 05b5 04       		.byte	0x4
 817 05b6 08       		.uleb128 0x8
 818 05b7 7500     		.ascii	"u\000"
 819 05b9 0A       		.byte	0xa
 820 05ba B9       		.byte	0xb9
 821 05bb 05       		.byte	0x5
 822 05bc 2B050000 		.4byte	0x52b
 823 05c0 08       		.byte	0x8
 824 05c1 00       		.byte	0
 825 05c2 03       		.uleb128 0x3
 826 05c3 48060000 		.4byte	.LASF86
 827 05c7 0A       		.byte	0xa
 828 05c8 BA       		.byte	0xba
 829 05c9 03       		.byte	0x3
 830 05ca 70050000 		.4byte	0x570
 831 05ce 14       		.uleb128 0x14
 832 05cf 0808     		.2byte	0x808
 833 05d1 0A       		.byte	0xa
 834 05d2 C0       		.byte	0xc0
 835 05d3 09       		.byte	0x9
 836 05d4 0D060000 		.4byte	0x60d
 837 05d8 09       		.uleb128 0x9
 838 05d9 C8070000 		.4byte	.LASF87
 839 05dd 0A       		.byte	0xa
 840 05de C4       		.byte	0xc4
 841 05df 19       		.byte	0x19
 842 05e0 83000000 		.4byte	0x83
 843 05e4 00       		.byte	0
 844 05e5 09       		.uleb128 0x9
 845 05e6 9B060000 		.4byte	.LASF88
 846 05ea 0A       		.byte	0xa
 847 05eb C8       		.byte	0xc8
 848 05ec 19       		.byte	0x19
 849 05ed 83000000 		.4byte	0x83
 850 05f1 02       		.byte	0x2
 851 05f2 08       		.uleb128 0x8
 852 05f3 70747200 		.ascii	"ptr\000"
 853 05f7 0A       		.byte	0xa
 854 05f8 CC       		.byte	0xcc
 855 05f9 1A       		.byte	0x1a
ARM GAS  /tmp/ccvmwPLv.s 			page 16


 856 05fa 0D060000 		.4byte	0x60d
 857 05fe 04       		.byte	0x4
 858 05ff 09       		.uleb128 0x9
 859 0600 7F030000 		.4byte	.LASF89
 860 0604 0A       		.byte	0xa
 861 0605 D0       		.byte	0xd0
 862 0606 19       		.byte	0x19
 863 0607 13060000 		.4byte	0x613
 864 060b 08       		.byte	0x8
 865 060c 00       		.byte	0
 866 060d 0D       		.uleb128 0xd
 867 060e 04       		.byte	0x4
 868 060f C2050000 		.4byte	0x5c2
 869 0613 15       		.uleb128 0x15
 870 0614 C2050000 		.4byte	0x5c2
 871 0618 23060000 		.4byte	0x623
 872 061c 16       		.uleb128 0x16
 873 061d 30000000 		.4byte	0x30
 874 0621 7F       		.byte	0x7f
 875 0622 00       		.byte	0
 876 0623 03       		.uleb128 0x3
 877 0624 8A040000 		.4byte	.LASF90
 878 0628 0A       		.byte	0xa
 879 0629 D1       		.byte	0xd1
 880 062a 03       		.byte	0x3
 881 062b CE050000 		.4byte	0x5ce
 882 062f 17       		.uleb128 0x17
 883 0630 32050000 		.4byte	.LASF91
 884 0634 0B       		.byte	0xb
 885 0635 0408     		.2byte	0x804
 886 0637 19       		.byte	0x19
 887 0638 5F000000 		.4byte	0x5f
 888 063c 18       		.uleb128 0x18
 889 063d FF030000 		.4byte	.LASF92
 890 0641 0C       		.byte	0xc
 891 0642 4A       		.byte	0x4a
 892 0643 11       		.byte	0x11
 893 0644 96000000 		.4byte	0x96
 894 0648 15       		.uleb128 0x15
 895 0649 77000000 		.4byte	0x77
 896 064d 58060000 		.4byte	0x658
 897 0651 16       		.uleb128 0x16
 898 0652 30000000 		.4byte	0x30
 899 0656 0F       		.byte	0xf
 900 0657 00       		.byte	0
 901 0658 06       		.uleb128 0x6
 902 0659 48060000 		.4byte	0x648
 903 065d 18       		.uleb128 0x18
 904 065e 8D060000 		.4byte	.LASF93
 905 0662 0C       		.byte	0xc
 906 0663 4B       		.byte	0x4b
 907 0664 16       		.byte	0x16
 908 0665 58060000 		.4byte	0x658
 909 0669 15       		.uleb128 0x15
 910 066a 77000000 		.4byte	0x77
 911 066e 79060000 		.4byte	0x679
 912 0672 16       		.uleb128 0x16
ARM GAS  /tmp/ccvmwPLv.s 			page 17


 913 0673 30000000 		.4byte	0x30
 914 0677 07       		.byte	0x7
 915 0678 00       		.byte	0
 916 0679 06       		.uleb128 0x6
 917 067a 69060000 		.4byte	0x669
 918 067e 18       		.uleb128 0x18
 919 067f F9070000 		.4byte	.LASF94
 920 0683 0C       		.byte	0xc
 921 0684 4C       		.byte	0x4c
 922 0685 16       		.byte	0x16
 923 0686 79060000 		.4byte	0x679
 924 068a 19       		.uleb128 0x19
 925 068b 5E060000 		.4byte	.LASF95
 926 068f 24       		.byte	0x24
 927 0690 0D       		.byte	0xd
 928 0691 E001     		.2byte	0x1e0
 929 0693 08       		.byte	0x8
 930 0694 10070000 		.4byte	0x710
 931 0698 0A       		.uleb128 0xa
 932 0699 723400   		.ascii	"r4\000"
 933 069c 0D       		.byte	0xd
 934 069d F901     		.2byte	0x1f9
 935 069f 11       		.byte	0x11
 936 06a0 96000000 		.4byte	0x96
 937 06a4 00       		.byte	0
 938 06a5 0A       		.uleb128 0xa
 939 06a6 723500   		.ascii	"r5\000"
 940 06a9 0D       		.byte	0xd
 941 06aa FA01     		.2byte	0x1fa
 942 06ac 11       		.byte	0x11
 943 06ad 96000000 		.4byte	0x96
 944 06b1 04       		.byte	0x4
 945 06b2 0A       		.uleb128 0xa
 946 06b3 723600   		.ascii	"r6\000"
 947 06b6 0D       		.byte	0xd
 948 06b7 FB01     		.2byte	0x1fb
 949 06b9 11       		.byte	0x11
 950 06ba 96000000 		.4byte	0x96
 951 06be 08       		.byte	0x8
 952 06bf 0A       		.uleb128 0xa
 953 06c0 723700   		.ascii	"r7\000"
 954 06c3 0D       		.byte	0xd
 955 06c4 FC01     		.2byte	0x1fc
 956 06c6 11       		.byte	0x11
 957 06c7 96000000 		.4byte	0x96
 958 06cb 0C       		.byte	0xc
 959 06cc 0A       		.uleb128 0xa
 960 06cd 723800   		.ascii	"r8\000"
 961 06d0 0D       		.byte	0xd
 962 06d1 FD01     		.2byte	0x1fd
 963 06d3 11       		.byte	0x11
 964 06d4 96000000 		.4byte	0x96
 965 06d8 10       		.byte	0x10
 966 06d9 0A       		.uleb128 0xa
 967 06da 723900   		.ascii	"r9\000"
 968 06dd 0D       		.byte	0xd
 969 06de FE01     		.2byte	0x1fe
ARM GAS  /tmp/ccvmwPLv.s 			page 18


 970 06e0 11       		.byte	0x11
 971 06e1 96000000 		.4byte	0x96
 972 06e5 14       		.byte	0x14
 973 06e6 0A       		.uleb128 0xa
 974 06e7 72313000 		.ascii	"r10\000"
 975 06eb 0D       		.byte	0xd
 976 06ec FF01     		.2byte	0x1ff
 977 06ee 11       		.byte	0x11
 978 06ef 96000000 		.4byte	0x96
 979 06f3 18       		.byte	0x18
 980 06f4 0A       		.uleb128 0xa
 981 06f5 72313100 		.ascii	"r11\000"
 982 06f9 0D       		.byte	0xd
 983 06fa 0002     		.2byte	0x200
 984 06fc 11       		.byte	0x11
 985 06fd 96000000 		.4byte	0x96
 986 0701 1C       		.byte	0x1c
 987 0702 0A       		.uleb128 0xa
 988 0703 6C7200   		.ascii	"lr\000"
 989 0706 0D       		.byte	0xd
 990 0707 0102     		.2byte	0x201
 991 0709 11       		.byte	0x11
 992 070a 96000000 		.4byte	0x96
 993 070e 20       		.byte	0x20
 994 070f 00       		.byte	0
 995 0710 19       		.uleb128 0x19
 996 0711 25090000 		.4byte	.LASF96
 997 0715 04       		.byte	0x4
 998 0716 0D       		.byte	0xd
 999 0717 0A02     		.2byte	0x20a
 1000 0719 08       		.byte	0x8
 1001 071a 2C070000 		.4byte	0x72c
 1002 071e 0A       		.uleb128 0xa
 1003 071f 737000   		.ascii	"sp\000"
 1004 0722 0D       		.byte	0xd
 1005 0723 0B02     		.2byte	0x20b
 1006 0725 1A       		.byte	0x1a
 1007 0726 2C070000 		.4byte	0x72c
 1008 072a 00       		.byte	0
 1009 072b 00       		.byte	0
 1010 072c 0D       		.uleb128 0xd
 1011 072d 04       		.byte	0x4
 1012 072e 8A060000 		.4byte	0x68a
 1013 0732 0E       		.uleb128 0xe
 1014 0733 04       		.byte	0x4
 1015 0734 0E       		.byte	0xe
 1016 0735 3F       		.byte	0x3f
 1017 0736 09       		.byte	0x9
 1018 0737 49070000 		.4byte	0x749
 1019 073b 09       		.uleb128 0x9
 1020 073c C4050000 		.4byte	.LASF97
 1021 0740 0E       		.byte	0xe
 1022 0741 43       		.byte	0x43
 1023 0742 19       		.byte	0x19
 1024 0743 D9000000 		.4byte	0xd9
 1025 0747 00       		.byte	0
 1026 0748 00       		.byte	0
ARM GAS  /tmp/ccvmwPLv.s 			page 19


 1027 0749 03       		.uleb128 0x3
 1028 074a D2070000 		.4byte	.LASF98
 1029 074e 0E       		.byte	0xe
 1030 074f 44       		.byte	0x44
 1031 0750 03       		.byte	0x3
 1032 0751 32070000 		.4byte	0x732
 1033 0755 1A       		.uleb128 0x1a
 1034 0756 07       		.byte	0x7
 1035 0757 01       		.byte	0x1
 1036 0758 7C000000 		.4byte	0x7c
 1037 075c 05       		.byte	0x5
 1038 075d 32       		.byte	0x32
 1039 075e 0E       		.byte	0xe
 1040 075f 7C070000 		.4byte	0x77c
 1041 0763 1B       		.uleb128 0x1b
 1042 0764 F6040000 		.4byte	.LASF99
 1043 0768 00       		.byte	0
 1044 0769 1B       		.uleb128 0x1b
 1045 076a 9D050000 		.4byte	.LASF100
 1046 076e 01       		.byte	0x1
 1047 076f 1B       		.uleb128 0x1b
 1048 0770 47050000 		.4byte	.LASF101
 1049 0774 02       		.byte	0x2
 1050 0775 1B       		.uleb128 0x1b
 1051 0776 41080000 		.4byte	.LASF102
 1052 077a 03       		.byte	0x3
 1053 077b 00       		.byte	0
 1054 077c 03       		.uleb128 0x3
 1055 077d 39010000 		.4byte	.LASF103
 1056 0781 05       		.byte	0x5
 1057 0782 37       		.byte	0x37
 1058 0783 03       		.byte	0x3
 1059 0784 55070000 		.4byte	0x755
 1060 0788 07       		.uleb128 0x7
 1061 0789 9D000000 		.4byte	.LASF104
 1062 078d 18       		.byte	0x18
 1063 078e 05       		.byte	0x5
 1064 078f 64       		.byte	0x64
 1065 0790 10       		.byte	0x10
 1066 0791 BD070000 		.4byte	0x7bd
 1067 0795 09       		.uleb128 0x9
 1068 0796 DE050000 		.4byte	.LASF105
 1069 079a 05       		.byte	0x5
 1070 079b 68       		.byte	0x68
 1071 079c 21       		.byte	0x21
 1072 079d 43040000 		.4byte	0x443
 1073 07a1 00       		.byte	0
 1074 07a2 09       		.uleb128 0x9
 1075 07a3 71020000 		.4byte	.LASF106
 1076 07a7 05       		.byte	0x5
 1077 07a8 73       		.byte	0x73
 1078 07a9 21       		.byte	0x21
 1079 07aa 71030000 		.4byte	0x371
 1080 07ae 0C       		.byte	0xc
 1081 07af 09       		.uleb128 0x9
 1082 07b0 BE010000 		.4byte	.LASF107
 1083 07b4 05       		.byte	0x5
ARM GAS  /tmp/ccvmwPLv.s 			page 20


 1084 07b5 79       		.byte	0x79
 1085 07b6 21       		.byte	0x21
 1086 07b7 B5000000 		.4byte	0xb5
 1087 07bb 10       		.byte	0x10
 1088 07bc 00       		.byte	0
 1089 07bd 03       		.uleb128 0x3
 1090 07be 26040000 		.4byte	.LASF108
 1091 07c2 05       		.byte	0x5
 1092 07c3 7B       		.byte	0x7b
 1093 07c4 03       		.byte	0x3
 1094 07c5 88070000 		.4byte	0x788
 1095 07c9 07       		.uleb128 0x7
 1096 07ca 52010000 		.4byte	.LASF109
 1097 07ce 08       		.byte	0x8
 1098 07cf 05       		.byte	0x5
 1099 07d0 80       		.byte	0x80
 1100 07d1 10       		.byte	0x10
 1101 07d2 E4070000 		.4byte	0x7e4
 1102 07d6 09       		.uleb128 0x9
 1103 07d7 37070000 		.4byte	.LASF110
 1104 07db 05       		.byte	0x5
 1105 07dc 84       		.byte	0x84
 1106 07dd 21       		.byte	0x21
 1107 07de C2030000 		.4byte	0x3c2
 1108 07e2 00       		.byte	0
 1109 07e3 00       		.byte	0
 1110 07e4 03       		.uleb128 0x3
 1111 07e5 B4000000 		.4byte	.LASF111
 1112 07e9 05       		.byte	0x5
 1113 07ea 85       		.byte	0x85
 1114 07eb 03       		.byte	0x3
 1115 07ec C9070000 		.4byte	0x7c9
 1116 07f0 03       		.uleb128 0x3
 1117 07f1 22060000 		.4byte	.LASF112
 1118 07f5 05       		.byte	0x5
 1119 07f6 8A       		.byte	0x8a
 1120 07f7 14       		.byte	0x14
 1121 07f8 AE040000 		.4byte	0x4ae
 1122 07fc 10       		.uleb128 0x10
 1123 07fd 0C       		.byte	0xc
 1124 07fe 05       		.byte	0x5
 1125 07ff A0       		.byte	0xa0
 1126 0800 03       		.byte	0x3
 1127 0801 2A080000 		.4byte	0x82a
 1128 0805 12       		.uleb128 0x12
 1129 0806 CB050000 		.4byte	.LASF113
 1130 080a 05       		.byte	0x5
 1131 080b A4       		.byte	0xa4
 1132 080c 21       		.byte	0x21
 1133 080d 95030000 		.4byte	0x395
 1134 0811 12       		.uleb128 0x12
 1135 0812 37070000 		.4byte	.LASF110
 1136 0816 05       		.byte	0x5
 1137 0817 A8       		.byte	0xa8
 1138 0818 21       		.byte	0x21
 1139 0819 C2030000 		.4byte	0x3c2
 1140 081d 12       		.uleb128 0x12
ARM GAS  /tmp/ccvmwPLv.s 			page 21


 1141 081e C1070000 		.4byte	.LASF114
 1142 0822 05       		.byte	0x5
 1143 0823 AC       		.byte	0xac
 1144 0824 21       		.byte	0x21
 1145 0825 FC030000 		.4byte	0x3fc
 1146 0829 00       		.byte	0
 1147 082a 10       		.uleb128 0x10
 1148 082b 04       		.byte	0x4
 1149 082c 05       		.byte	0x5
 1150 082d EB       		.byte	0xeb
 1151 082e 03       		.byte	0x3
 1152 082f 9A080000 		.4byte	0x89a
 1153 0833 12       		.uleb128 0x12
 1154 0834 3A0A0000 		.4byte	.LASF115
 1155 0838 05       		.byte	0x5
 1156 0839 F2       		.byte	0xf2
 1157 083a 21       		.byte	0x21
 1158 083b 21010000 		.4byte	0x121
 1159 083f 12       		.uleb128 0x12
 1160 0840 63010000 		.4byte	.LASF116
 1161 0844 05       		.byte	0x5
 1162 0845 F9       		.byte	0xf9
 1163 0846 21       		.byte	0x21
 1164 0847 21010000 		.4byte	0x121
 1165 084b 1C       		.uleb128 0x1c
 1166 084c E4020000 		.4byte	.LASF79
 1167 0850 05       		.byte	0x5
 1168 0851 0001     		.2byte	0x100
 1169 0853 22       		.byte	0x22
 1170 0854 B4040000 		.4byte	0x4b4
 1171 0858 1C       		.uleb128 0x1c
 1172 0859 5D020000 		.4byte	.LASF117
 1173 085d 05       		.byte	0x5
 1174 085e 0701     		.2byte	0x107
 1175 0860 22       		.byte	0x22
 1176 0861 9A080000 		.4byte	0x89a
 1177 0865 1C       		.uleb128 0x1c
 1178 0866 56060000 		.4byte	.LASF118
 1179 086a 05       		.byte	0x5
 1180 086b 0C01     		.2byte	0x10c
 1181 086d 21       		.byte	0x21
 1182 086e 21010000 		.4byte	0x121
 1183 0872 1C       		.uleb128 0x1c
 1184 0873 28000000 		.4byte	.LASF119
 1185 0877 05       		.byte	0x5
 1186 0878 1501     		.2byte	0x115
 1187 087a 22       		.byte	0x22
 1188 087b C8080000 		.4byte	0x8c8
 1189 087f 1C       		.uleb128 0x1c
 1190 0880 86030000 		.4byte	.LASF120
 1191 0884 05       		.byte	0x5
 1192 0885 1E01     		.2byte	0x11e
 1193 0887 22       		.byte	0x22
 1194 0888 03090000 		.4byte	0x903
 1195 088c 1C       		.uleb128 0x1c
 1196 088d 38020000 		.4byte	.LASF121
 1197 0891 05       		.byte	0x5
ARM GAS  /tmp/ccvmwPLv.s 			page 22


 1198 0892 2601     		.2byte	0x126
 1199 0894 21       		.byte	0x21
 1200 0895 2D010000 		.4byte	0x12d
 1201 0899 00       		.byte	0
 1202 089a 0D       		.uleb128 0xd
 1203 089b 04       		.byte	0x4
 1204 089c F0070000 		.4byte	0x7f0
 1205 08a0 07       		.uleb128 0x7
 1206 08a1 0F040000 		.4byte	.LASF122
 1207 08a5 0C       		.byte	0xc
 1208 08a6 0F       		.byte	0xf
 1209 08a7 34       		.byte	0x34
 1210 08a8 10       		.byte	0x10
 1211 08a9 C8080000 		.4byte	0x8c8
 1212 08ad 09       		.uleb128 0x9
 1213 08ae 37070000 		.4byte	.LASF110
 1214 08b2 0F       		.byte	0xf
 1215 08b3 35       		.byte	0x35
 1216 08b4 19       		.byte	0x19
 1217 08b5 C2030000 		.4byte	0x3c2
 1218 08b9 00       		.byte	0
 1219 08ba 08       		.uleb128 0x8
 1220 08bb 636E7400 		.ascii	"cnt\000"
 1221 08bf 0F       		.byte	0xf
 1222 08c0 37       		.byte	0x37
 1223 08c1 19       		.byte	0x19
 1224 08c2 39010000 		.4byte	0x139
 1225 08c6 08       		.byte	0x8
 1226 08c7 00       		.byte	0
 1227 08c8 0D       		.uleb128 0xd
 1228 08c9 04       		.byte	0x4
 1229 08ca A0080000 		.4byte	0x8a0
 1230 08ce 07       		.uleb128 0x7
 1231 08cf 6A080000 		.4byte	.LASF123
 1232 08d3 10       		.byte	0x10
 1233 08d4 10       		.byte	0x10
 1234 08d5 39       		.byte	0x39
 1235 08d6 08       		.byte	0x8
 1236 08d7 03090000 		.4byte	0x903
 1237 08db 09       		.uleb128 0x9
 1238 08dc 37070000 		.4byte	.LASF110
 1239 08e0 10       		.byte	0x10
 1240 08e1 3A       		.byte	0x3a
 1241 08e2 19       		.byte	0x19
 1242 08e3 C2030000 		.4byte	0x3c2
 1243 08e7 00       		.byte	0
 1244 08e8 09       		.uleb128 0x9
 1245 08e9 4F000000 		.4byte	.LASF31
 1246 08ed 10       		.byte	0x10
 1247 08ee 3C       		.byte	0x3c
 1248 08ef 1A       		.byte	0x1a
 1249 08f0 AE040000 		.4byte	0x4ae
 1250 08f4 08       		.byte	0x8
 1251 08f5 09       		.uleb128 0x9
 1252 08f6 AB0A0000 		.4byte	.LASF69
 1253 08fa 10       		.byte	0x10
 1254 08fb 3E       		.byte	0x3e
ARM GAS  /tmp/ccvmwPLv.s 			page 23


 1255 08fc 1A       		.byte	0x1a
 1256 08fd B80C0000 		.4byte	0xcb8
 1257 0901 0C       		.byte	0xc
 1258 0902 00       		.byte	0
 1259 0903 0D       		.uleb128 0xd
 1260 0904 04       		.byte	0x4
 1261 0905 CE080000 		.4byte	0x8ce
 1262 0909 0D       		.uleb128 0xd
 1263 090a 04       		.byte	0x4
 1264 090b 4C020000 		.4byte	0x24c
 1265 090f 0D       		.uleb128 0xd
 1266 0910 04       		.byte	0x4
 1267 0911 E5000000 		.4byte	0xe5
 1268 0915 19       		.uleb128 0x19
 1269 0916 8D030000 		.4byte	.LASF124
 1270 091a 10       		.byte	0x10
 1271 091b 05       		.byte	0x5
 1272 091c 5C01     		.2byte	0x15c
 1273 091e 10       		.byte	0x10
 1274 091f 40090000 		.4byte	0x940
 1275 0923 0B       		.uleb128 0xb
 1276 0924 C1070000 		.4byte	.LASF114
 1277 0928 05       		.byte	0x5
 1278 0929 6101     		.2byte	0x161
 1279 092b 21       		.byte	0x21
 1280 092c FC030000 		.4byte	0x3fc
 1281 0930 00       		.byte	0
 1282 0931 0B       		.uleb128 0xb
 1283 0932 BC050000 		.4byte	.LASF125
 1284 0936 05       		.byte	0x5
 1285 0937 6501     		.2byte	0x165
 1286 0939 22       		.byte	0x22
 1287 093a AE040000 		.4byte	0x4ae
 1288 093e 0C       		.byte	0xc
 1289 093f 00       		.byte	0
 1290 0940 1D       		.uleb128 0x1d
 1291 0941 46040000 		.4byte	.LASF126
 1292 0945 05       		.byte	0x5
 1293 0946 6601     		.2byte	0x166
 1294 0948 03       		.byte	0x3
 1295 0949 15090000 		.4byte	0x915
 1296 094d 19       		.uleb128 0x19
 1297 094e 0C080000 		.4byte	.LASF127
 1298 0952 14       		.byte	0x14
 1299 0953 05       		.byte	0x5
 1300 0954 6B01     		.2byte	0x16b
 1301 0956 10       		.byte	0x10
 1302 0957 A2090000 		.4byte	0x9a2
 1303 095b 0B       		.uleb128 0xb
 1304 095c F4070000 		.4byte	.LASF32
 1305 0960 05       		.byte	0x5
 1306 0961 6F01     		.2byte	0x16f
 1307 0963 22       		.byte	0x22
 1308 0964 4E030000 		.4byte	0x34e
 1309 0968 00       		.byte	0
 1310 0969 0B       		.uleb128 0xb
 1311 096a 8A010000 		.4byte	.LASF128
ARM GAS  /tmp/ccvmwPLv.s 			page 24


 1312 096e 05       		.byte	0x5
 1313 096f 7501     		.2byte	0x175
 1314 0971 22       		.byte	0x22
 1315 0972 0F090000 		.4byte	0x90f
 1316 0976 04       		.byte	0x4
 1317 0977 0B       		.uleb128 0xb
 1318 0978 28030000 		.4byte	.LASF129
 1319 097c 05       		.byte	0x5
 1320 097d 7901     		.2byte	0x179
 1321 097f 22       		.byte	0x22
 1322 0980 0F090000 		.4byte	0x90f
 1323 0984 08       		.byte	0x8
 1324 0985 0B       		.uleb128 0xb
 1325 0986 730A0000 		.4byte	.LASF130
 1326 098a 05       		.byte	0x5
 1327 098b 7F01     		.2byte	0x17f
 1328 098d 22       		.byte	0x22
 1329 098e 0F090000 		.4byte	0x90f
 1330 0992 0C       		.byte	0xc
 1331 0993 0B       		.uleb128 0xb
 1332 0994 07060000 		.4byte	.LASF131
 1333 0998 05       		.byte	0x5
 1334 0999 8301     		.2byte	0x183
 1335 099b 22       		.byte	0x22
 1336 099c 0F090000 		.4byte	0x90f
 1337 09a0 10       		.byte	0x10
 1338 09a1 00       		.byte	0
 1339 09a2 1D       		.uleb128 0x1d
 1340 09a3 2C080000 		.4byte	.LASF132
 1341 09a7 05       		.byte	0x5
 1342 09a8 8501     		.2byte	0x185
 1343 09aa 03       		.byte	0x3
 1344 09ab 4D090000 		.4byte	0x94d
 1345 09af 06       		.uleb128 0x6
 1346 09b0 A2090000 		.4byte	0x9a2
 1347 09b4 0D       		.uleb128 0xd
 1348 09b5 04       		.byte	0x4
 1349 09b6 AF090000 		.4byte	0x9af
 1350 09ba 19       		.uleb128 0x19
 1351 09bb 190A0000 		.4byte	.LASF133
 1352 09bf 0C       		.byte	0xc
 1353 09c0 05       		.byte	0x5
 1354 09c1 C901     		.2byte	0x1c9
 1355 09c3 10       		.byte	0x10
 1356 09c4 F3090000 		.4byte	0x9f3
 1357 09c8 0B       		.uleb128 0xb
 1358 09c9 F7000000 		.4byte	.LASF34
 1359 09cd 05       		.byte	0x5
 1360 09ce CD01     		.2byte	0x1cd
 1361 09d0 21       		.byte	0x21
 1362 09d1 7C070000 		.4byte	0x77c
 1363 09d5 00       		.byte	0
 1364 09d6 0B       		.uleb128 0xb
 1365 09d7 45000000 		.4byte	.LASF134
 1366 09db 05       		.byte	0x5
 1367 09dc D101     		.2byte	0x1d1
 1368 09de 22       		.byte	0x22
ARM GAS  /tmp/ccvmwPLv.s 			page 25


 1369 09df F3090000 		.4byte	0x9f3
 1370 09e3 04       		.byte	0x4
 1371 09e4 0A       		.uleb128 0xa
 1372 09e5 746D6300 		.ascii	"tmc\000"
 1373 09e9 05       		.byte	0x5
 1374 09ea D601     		.2byte	0x1d6
 1375 09ec 21       		.byte	0x21
 1376 09ed 49070000 		.4byte	0x749
 1377 09f1 08       		.byte	0x8
 1378 09f2 00       		.byte	0
 1379 09f3 15       		.uleb128 0x15
 1380 09f4 09090000 		.4byte	0x909
 1381 09f8 030A0000 		.4byte	0xa03
 1382 09fc 16       		.uleb128 0x16
 1383 09fd 30000000 		.4byte	0x30
 1384 0a01 00       		.byte	0
 1385 0a02 00       		.byte	0
 1386 0a03 1D       		.uleb128 0x1d
 1387 0a04 540A0000 		.4byte	.LASF135
 1388 0a08 05       		.byte	0x5
 1389 0a09 ED01     		.2byte	0x1ed
 1390 0a0b 03       		.byte	0x3
 1391 0a0c BA090000 		.4byte	0x9ba
 1392 0a10 17       		.uleb128 0x17
 1393 0a11 190A0000 		.4byte	.LASF133
 1394 0a15 11       		.byte	0x11
 1395 0a16 3E01     		.2byte	0x13e
 1396 0a18 14       		.byte	0x14
 1397 0a19 030A0000 		.4byte	0xa03
 1398 0a1d 17       		.uleb128 0x17
 1399 0a1e A1040000 		.4byte	.LASF136
 1400 0a22 11       		.byte	0x11
 1401 0a23 4001     		.2byte	0x140
 1402 0a25 23       		.byte	0x23
 1403 0a26 AF090000 		.4byte	0x9af
 1404 0a2a 1E       		.uleb128 0x1e
 1405 0a2b 63683000 		.ascii	"ch0\000"
 1406 0a2f 11       		.byte	0x11
 1407 0a30 4101     		.2byte	0x141
 1408 0a32 16       		.byte	0x16
 1409 0a33 4C020000 		.4byte	0x24c
 1410 0a37 03       		.uleb128 0x3
 1411 0a38 3F050000 		.4byte	.LASF137
 1412 0a3c 12       		.byte	0x12
 1413 0a3d 34       		.byte	0x34
 1414 0a3e 10       		.byte	0x10
 1415 0a3f 430A0000 		.4byte	0xa43
 1416 0a43 0D       		.uleb128 0xd
 1417 0a44 04       		.byte	0x4
 1418 0a45 490A0000 		.4byte	0xa49
 1419 0a49 1F       		.uleb128 0x1f
 1420 0a4a 540A0000 		.4byte	0xa54
 1421 0a4e 20       		.uleb128 0x20
 1422 0a4f B4040000 		.4byte	0x4b4
 1423 0a53 00       		.byte	0
 1424 0a54 0E       		.uleb128 0xe
 1425 0a55 18       		.byte	0x18
ARM GAS  /tmp/ccvmwPLv.s 			page 26


 1426 0a56 12       		.byte	0x12
 1427 0a57 39       		.byte	0x39
 1428 0a58 09       		.byte	0x9
 1429 0a59 AC0A0000 		.4byte	0xaac
 1430 0a5d 09       		.uleb128 0x9
 1431 0a5e F4070000 		.4byte	.LASF32
 1432 0a62 12       		.byte	0x12
 1433 0a63 3D       		.byte	0x3d
 1434 0a64 16       		.byte	0x16
 1435 0a65 4E030000 		.4byte	0x34e
 1436 0a69 00       		.byte	0
 1437 0a6a 09       		.uleb128 0x9
 1438 0a6b 37030000 		.4byte	.LASF138
 1439 0a6f 12       		.byte	0x12
 1440 0a70 41       		.byte	0x41
 1441 0a71 16       		.byte	0x16
 1442 0a72 0F090000 		.4byte	0x90f
 1443 0a76 04       		.byte	0x4
 1444 0a77 09       		.uleb128 0x9
 1445 0a78 DD040000 		.4byte	.LASF139
 1446 0a7c 12       		.byte	0x12
 1447 0a7d 45       		.byte	0x45
 1448 0a7e 16       		.byte	0x16
 1449 0a7f 0F090000 		.4byte	0x90f
 1450 0a83 08       		.byte	0x8
 1451 0a84 09       		.uleb128 0x9
 1452 0a85 5E010000 		.4byte	.LASF75
 1453 0a89 12       		.byte	0x12
 1454 0a8a 49       		.byte	0x49
 1455 0a8b 15       		.byte	0x15
 1456 0a8c 15010000 		.4byte	0x115
 1457 0a90 0C       		.byte	0xc
 1458 0a91 09       		.uleb128 0x9
 1459 0a92 59030000 		.4byte	.LASF140
 1460 0a96 12       		.byte	0x12
 1461 0a97 4D       		.byte	0x4d
 1462 0a98 15       		.byte	0x15
 1463 0a99 370A0000 		.4byte	0xa37
 1464 0a9d 10       		.byte	0x10
 1465 0a9e 08       		.uleb128 0x8
 1466 0a9f 61726700 		.ascii	"arg\000"
 1467 0aa3 12       		.byte	0x12
 1468 0aa4 51       		.byte	0x51
 1469 0aa5 16       		.byte	0x16
 1470 0aa6 B4040000 		.4byte	0x4b4
 1471 0aaa 14       		.byte	0x14
 1472 0aab 00       		.byte	0
 1473 0aac 03       		.uleb128 0x3
 1474 0aad 09050000 		.4byte	.LASF141
 1475 0ab1 12       		.byte	0x12
 1476 0ab2 58       		.byte	0x58
 1477 0ab3 03       		.byte	0x3
 1478 0ab4 540A0000 		.4byte	0xa54
 1479 0ab8 0E       		.uleb128 0xe
 1480 0ab9 2C       		.byte	0x2c
 1481 0aba 13       		.byte	0x13
 1482 0abb 34       		.byte	0x34
ARM GAS  /tmp/ccvmwPLv.s 			page 27


 1483 0abc 09       		.byte	0x9
 1484 0abd 6F0C0000 		.4byte	0xc6f
 1485 0ac1 09       		.uleb128 0x9
 1486 0ac2 C10A0000 		.4byte	.LASF142
 1487 0ac6 13       		.byte	0x13
 1488 0ac7 35       		.byte	0x35
 1489 0ac8 0D       		.byte	0xd
 1490 0ac9 6F0C0000 		.4byte	0xc6f
 1491 0acd 00       		.byte	0
 1492 0ace 09       		.uleb128 0x9
 1493 0acf 85010000 		.4byte	.LASF143
 1494 0ad3 13       		.byte	0x13
 1495 0ad4 36       		.byte	0x36
 1496 0ad5 0D       		.byte	0xd
 1497 0ad6 6B000000 		.4byte	0x6b
 1498 0ada 04       		.byte	0x4
 1499 0adb 09       		.uleb128 0x9
 1500 0adc 9B060000 		.4byte	.LASF88
 1501 0ae0 13       		.byte	0x13
 1502 0ae1 37       		.byte	0x37
 1503 0ae2 0D       		.byte	0xd
 1504 0ae3 6B000000 		.4byte	0x6b
 1505 0ae7 05       		.byte	0x5
 1506 0ae8 09       		.uleb128 0x9
 1507 0ae9 63070000 		.4byte	.LASF144
 1508 0aed 13       		.byte	0x13
 1509 0aee 38       		.byte	0x38
 1510 0aef 0D       		.byte	0xd
 1511 0af0 83000000 		.4byte	0x83
 1512 0af4 06       		.byte	0x6
 1513 0af5 09       		.uleb128 0x9
 1514 0af6 3D030000 		.4byte	.LASF145
 1515 0afa 13       		.byte	0x13
 1516 0afb 39       		.byte	0x39
 1517 0afc 0D       		.byte	0xd
 1518 0afd 6B000000 		.4byte	0x6b
 1519 0b01 08       		.byte	0x8
 1520 0b02 09       		.uleb128 0x9
 1521 0b03 6A0A0000 		.4byte	.LASF146
 1522 0b07 13       		.byte	0x13
 1523 0b08 3A       		.byte	0x3a
 1524 0b09 0D       		.byte	0xd
 1525 0b0a 6B000000 		.4byte	0x6b
 1526 0b0e 09       		.byte	0x9
 1527 0b0f 09       		.uleb128 0x9
 1528 0b10 DA030000 		.4byte	.LASF147
 1529 0b14 13       		.byte	0x13
 1530 0b15 3B       		.byte	0x3b
 1531 0b16 0D       		.byte	0xd
 1532 0b17 6B000000 		.4byte	0x6b
 1533 0b1b 0A       		.byte	0xa
 1534 0b1c 09       		.uleb128 0x9
 1535 0b1d 1F000000 		.4byte	.LASF148
 1536 0b21 13       		.byte	0x13
 1537 0b22 3C       		.byte	0x3c
 1538 0b23 0D       		.byte	0xd
 1539 0b24 6B000000 		.4byte	0x6b
ARM GAS  /tmp/ccvmwPLv.s 			page 28


 1540 0b28 0B       		.byte	0xb
 1541 0b29 09       		.uleb128 0x9
 1542 0b2a 00000000 		.4byte	.LASF149
 1543 0b2e 13       		.byte	0x13
 1544 0b2f 3D       		.byte	0x3d
 1545 0b30 0D       		.byte	0xd
 1546 0b31 6B000000 		.4byte	0x6b
 1547 0b35 0C       		.byte	0xc
 1548 0b36 09       		.uleb128 0x9
 1549 0b37 56050000 		.4byte	.LASF150
 1550 0b3b 13       		.byte	0x13
 1551 0b3c 3E       		.byte	0x3e
 1552 0b3d 0D       		.byte	0xd
 1553 0b3e 6B000000 		.4byte	0x6b
 1554 0b42 0D       		.byte	0xd
 1555 0b43 09       		.uleb128 0x9
 1556 0b44 48010000 		.4byte	.LASF151
 1557 0b48 13       		.byte	0x13
 1558 0b49 3F       		.byte	0x3f
 1559 0b4a 0D       		.byte	0xd
 1560 0b4b 6B000000 		.4byte	0x6b
 1561 0b4f 0E       		.byte	0xe
 1562 0b50 09       		.uleb128 0x9
 1563 0b51 C0060000 		.4byte	.LASF152
 1564 0b55 13       		.byte	0x13
 1565 0b56 40       		.byte	0x40
 1566 0b57 0D       		.byte	0xd
 1567 0b58 6B000000 		.4byte	0x6b
 1568 0b5c 0F       		.byte	0xf
 1569 0b5d 09       		.uleb128 0x9
 1570 0b5e 6A040000 		.4byte	.LASF153
 1571 0b62 13       		.byte	0x13
 1572 0b63 41       		.byte	0x41
 1573 0b64 0D       		.byte	0xd
 1574 0b65 6B000000 		.4byte	0x6b
 1575 0b69 10       		.byte	0x10
 1576 0b6a 09       		.uleb128 0x9
 1577 0b6b B3030000 		.4byte	.LASF154
 1578 0b6f 13       		.byte	0x13
 1579 0b70 42       		.byte	0x42
 1580 0b71 0D       		.byte	0xd
 1581 0b72 6B000000 		.4byte	0x6b
 1582 0b76 11       		.byte	0x11
 1583 0b77 09       		.uleb128 0x9
 1584 0b78 9C0A0000 		.4byte	.LASF155
 1585 0b7c 13       		.byte	0x13
 1586 0b7d 43       		.byte	0x43
 1587 0b7e 0D       		.byte	0xd
 1588 0b7f 6B000000 		.4byte	0x6b
 1589 0b83 12       		.byte	0x12
 1590 0b84 09       		.uleb128 0x9
 1591 0b85 EB020000 		.4byte	.LASF156
 1592 0b89 13       		.byte	0x13
 1593 0b8a 44       		.byte	0x44
 1594 0b8b 0D       		.byte	0xd
 1595 0b8c 6B000000 		.4byte	0x6b
 1596 0b90 13       		.byte	0x13
ARM GAS  /tmp/ccvmwPLv.s 			page 29


 1597 0b91 09       		.uleb128 0x9
 1598 0b92 39000000 		.4byte	.LASF157
 1599 0b96 13       		.byte	0x13
 1600 0b97 45       		.byte	0x45
 1601 0b98 0D       		.byte	0xd
 1602 0b99 6B000000 		.4byte	0x6b
 1603 0b9d 14       		.byte	0x14
 1604 0b9e 09       		.uleb128 0x9
 1605 0b9f 66030000 		.4byte	.LASF158
 1606 0ba3 13       		.byte	0x13
 1607 0ba4 46       		.byte	0x46
 1608 0ba5 0D       		.byte	0xd
 1609 0ba6 6B000000 		.4byte	0x6b
 1610 0baa 15       		.byte	0x15
 1611 0bab 09       		.uleb128 0x9
 1612 0bac F1050000 		.4byte	.LASF159
 1613 0bb0 13       		.byte	0x13
 1614 0bb1 47       		.byte	0x47
 1615 0bb2 0D       		.byte	0xd
 1616 0bb3 7F0C0000 		.4byte	0xc7f
 1617 0bb7 16       		.byte	0x16
 1618 0bb8 09       		.uleb128 0x9
 1619 0bb9 85070000 		.4byte	.LASF160
 1620 0bbd 13       		.byte	0x13
 1621 0bbe 48       		.byte	0x48
 1622 0bbf 0D       		.byte	0xd
 1623 0bc0 6B000000 		.4byte	0x6b
 1624 0bc4 1A       		.byte	0x1a
 1625 0bc5 09       		.uleb128 0x9
 1626 0bc6 D7020000 		.4byte	.LASF161
 1627 0bca 13       		.byte	0x13
 1628 0bcb 49       		.byte	0x49
 1629 0bcc 0D       		.byte	0xd
 1630 0bcd 6B000000 		.4byte	0x6b
 1631 0bd1 1B       		.byte	0x1b
 1632 0bd2 09       		.uleb128 0x9
 1633 0bd3 1E010000 		.4byte	.LASF162
 1634 0bd7 13       		.byte	0x13
 1635 0bd8 4A       		.byte	0x4a
 1636 0bd9 0D       		.byte	0xd
 1637 0bda 6B000000 		.4byte	0x6b
 1638 0bde 1C       		.byte	0x1c
 1639 0bdf 09       		.uleb128 0x9
 1640 0be0 17090000 		.4byte	.LASF163
 1641 0be4 13       		.byte	0x13
 1642 0be5 4B       		.byte	0x4b
 1643 0be6 0D       		.byte	0xd
 1644 0be7 6B000000 		.4byte	0x6b
 1645 0beb 1D       		.byte	0x1d
 1646 0bec 09       		.uleb128 0x9
 1647 0bed 7C000000 		.4byte	.LASF164
 1648 0bf1 13       		.byte	0x13
 1649 0bf2 4C       		.byte	0x4c
 1650 0bf3 0D       		.byte	0xd
 1651 0bf4 6B000000 		.4byte	0x6b
 1652 0bf8 1E       		.byte	0x1e
 1653 0bf9 09       		.uleb128 0x9
ARM GAS  /tmp/ccvmwPLv.s 			page 30


 1654 0bfa B1070000 		.4byte	.LASF165
 1655 0bfe 13       		.byte	0x13
 1656 0bff 4E       		.byte	0x4e
 1657 0c00 0D       		.byte	0xd
 1658 0c01 6B000000 		.4byte	0x6b
 1659 0c05 1F       		.byte	0x1f
 1660 0c06 09       		.uleb128 0x9
 1661 0c07 7A050000 		.4byte	.LASF166
 1662 0c0b 13       		.byte	0x13
 1663 0c0c 4F       		.byte	0x4f
 1664 0c0d 0D       		.byte	0xd
 1665 0c0e 6B000000 		.4byte	0x6b
 1666 0c12 20       		.byte	0x20
 1667 0c13 09       		.uleb128 0x9
 1668 0c14 DF000000 		.4byte	.LASF167
 1669 0c18 13       		.byte	0x13
 1670 0c19 50       		.byte	0x50
 1671 0c1a 0D       		.byte	0xd
 1672 0c1b 7F0C0000 		.4byte	0xc7f
 1673 0c1f 21       		.byte	0x21
 1674 0c20 09       		.uleb128 0x9
 1675 0c21 DA080000 		.4byte	.LASF168
 1676 0c25 13       		.byte	0x13
 1677 0c26 51       		.byte	0x51
 1678 0c27 0D       		.byte	0xd
 1679 0c28 6B000000 		.4byte	0x6b
 1680 0c2c 25       		.byte	0x25
 1681 0c2d 09       		.uleb128 0x9
 1682 0c2e 23050000 		.4byte	.LASF169
 1683 0c32 13       		.byte	0x13
 1684 0c33 53       		.byte	0x53
 1685 0c34 0D       		.byte	0xd
 1686 0c35 6B000000 		.4byte	0x6b
 1687 0c39 26       		.byte	0x26
 1688 0c3a 09       		.uleb128 0x9
 1689 0c3b 6C010000 		.4byte	.LASF170
 1690 0c3f 13       		.byte	0x13
 1691 0c40 54       		.byte	0x54
 1692 0c41 0D       		.byte	0xd
 1693 0c42 6B000000 		.4byte	0x6b
 1694 0c46 27       		.byte	0x27
 1695 0c47 09       		.uleb128 0x9
 1696 0c48 E3070000 		.4byte	.LASF171
 1697 0c4c 13       		.byte	0x13
 1698 0c4d 55       		.byte	0x55
 1699 0c4e 0D       		.byte	0xd
 1700 0c4f 6B000000 		.4byte	0x6b
 1701 0c53 28       		.byte	0x28
 1702 0c54 09       		.uleb128 0x9
 1703 0c55 A6020000 		.4byte	.LASF172
 1704 0c59 13       		.byte	0x13
 1705 0c5a 56       		.byte	0x56
 1706 0c5b 0D       		.byte	0xd
 1707 0c5c 6B000000 		.4byte	0x6b
 1708 0c60 29       		.byte	0x29
 1709 0c61 09       		.uleb128 0x9
 1710 0c62 95070000 		.4byte	.LASF173
ARM GAS  /tmp/ccvmwPLv.s 			page 31


 1711 0c66 13       		.byte	0x13
 1712 0c67 57       		.byte	0x57
 1713 0c68 0D       		.byte	0xd
 1714 0c69 6B000000 		.4byte	0x6b
 1715 0c6d 2A       		.byte	0x2a
 1716 0c6e 00       		.byte	0
 1717 0c6f 15       		.uleb128 0x15
 1718 0c70 59030000 		.4byte	0x359
 1719 0c74 7F0C0000 		.4byte	0xc7f
 1720 0c78 16       		.uleb128 0x16
 1721 0c79 30000000 		.4byte	0x30
 1722 0c7d 03       		.byte	0x3
 1723 0c7e 00       		.byte	0
 1724 0c7f 15       		.uleb128 0x15
 1725 0c80 6B000000 		.4byte	0x6b
 1726 0c84 8F0C0000 		.4byte	0xc8f
 1727 0c88 16       		.uleb128 0x16
 1728 0c89 30000000 		.4byte	0x30
 1729 0c8d 03       		.byte	0x3
 1730 0c8e 00       		.byte	0
 1731 0c8f 03       		.uleb128 0x3
 1732 0c90 600A0000 		.4byte	.LASF174
 1733 0c94 13       		.byte	0x13
 1734 0c95 58       		.byte	0x58
 1735 0c96 03       		.byte	0x3
 1736 0c97 B80A0000 		.4byte	0xab8
 1737 0c9b 06       		.uleb128 0x6
 1738 0c9c 8F0C0000 		.4byte	0xc8f
 1739 0ca0 18       		.uleb128 0x18
 1740 0ca1 5D000000 		.4byte	.LASF175
 1741 0ca5 13       		.byte	0x13
 1742 0ca6 7F       		.byte	0x7f
 1743 0ca7 1D       		.byte	0x1d
 1744 0ca8 9B0C0000 		.4byte	0xc9b
 1745 0cac 03       		.uleb128 0x3
 1746 0cad FF080000 		.4byte	.LASF176
 1747 0cb1 10       		.byte	0x10
 1748 0cb2 34       		.byte	0x34
 1749 0cb3 19       		.byte	0x19
 1750 0cb4 CE080000 		.4byte	0x8ce
 1751 0cb8 0D       		.uleb128 0xd
 1752 0cb9 04       		.byte	0x4
 1753 0cba AC0C0000 		.4byte	0xcac
 1754 0cbe 04       		.uleb128 0x4
 1755 0cbf 01       		.byte	0x1
 1756 0cc0 02       		.byte	0x2
 1757 0cc1 A0020000 		.4byte	.LASF177
 1758 0cc5 03       		.uleb128 0x3
 1759 0cc6 E4050000 		.4byte	.LASF178
 1760 0cca 14       		.byte	0x14
 1761 0ccb 47       		.byte	0x47
 1762 0ccc 11       		.byte	0x11
 1763 0ccd D10C0000 		.4byte	0xcd1
 1764 0cd1 0D       		.uleb128 0xd
 1765 0cd2 04       		.byte	0x4
 1766 0cd3 D70C0000 		.4byte	0xcd7
 1767 0cd7 21       		.uleb128 0x21
ARM GAS  /tmp/ccvmwPLv.s 			page 32


 1768 0cd8 B4040000 		.4byte	0x4b4
 1769 0cdc EB0C0000 		.4byte	0xceb
 1770 0ce0 20       		.uleb128 0x20
 1771 0ce1 24000000 		.4byte	0x24
 1772 0ce5 20       		.uleb128 0x20
 1773 0ce6 30000000 		.4byte	0x30
 1774 0cea 00       		.byte	0
 1775 0ceb 0E       		.uleb128 0xe
 1776 0cec 08       		.byte	0x8
 1777 0ced 14       		.byte	0x14
 1778 0cee 51       		.byte	0x51
 1779 0cef 09       		.byte	0x9
 1780 0cf0 0F0D0000 		.4byte	0xd0f
 1781 0cf4 09       		.uleb128 0x9
 1782 0cf5 0F090000 		.4byte	.LASF179
 1783 0cf9 14       		.byte	0x14
 1784 0cfa 55       		.byte	0x55
 1785 0cfb 0C       		.byte	0xc
 1786 0cfc 0F0D0000 		.4byte	0xd0f
 1787 0d00 00       		.byte	0
 1788 0d01 09       		.uleb128 0x9
 1789 0d02 53040000 		.4byte	.LASF180
 1790 0d06 14       		.byte	0x14
 1791 0d07 59       		.byte	0x59
 1792 0d08 0C       		.byte	0xc
 1793 0d09 0F0D0000 		.4byte	0xd0f
 1794 0d0d 04       		.byte	0x4
 1795 0d0e 00       		.byte	0
 1796 0d0f 0D       		.uleb128 0xd
 1797 0d10 04       		.byte	0x4
 1798 0d11 6B000000 		.4byte	0x6b
 1799 0d15 03       		.uleb128 0x3
 1800 0d16 22020000 		.4byte	.LASF181
 1801 0d1a 14       		.byte	0x14
 1802 0d1b 5A       		.byte	0x5a
 1803 0d1c 03       		.byte	0x3
 1804 0d1d EB0C0000 		.4byte	0xceb
 1805 0d21 18       		.uleb128 0x18
 1806 0d22 910A0000 		.4byte	.LASF182
 1807 0d26 14       		.byte	0x14
 1808 0d27 75       		.byte	0x75
 1809 0d28 12       		.byte	0x12
 1810 0d29 150D0000 		.4byte	0xd15
 1811 0d2d 07       		.uleb128 0x7
 1812 0d2e 77040000 		.4byte	.LASF183
 1813 0d32 04       		.byte	0x4
 1814 0d33 15       		.byte	0x15
 1815 0d34 38       		.byte	0x38
 1816 0d35 08       		.byte	0x8
 1817 0d36 480D0000 		.4byte	0xd48
 1818 0d3a 09       		.uleb128 0x9
 1819 0d3b AB0A0000 		.4byte	.LASF69
 1820 0d3f 15       		.byte	0x15
 1821 0d40 39       		.byte	0x39
 1822 0d41 1A       		.byte	0x1a
 1823 0d42 480D0000 		.4byte	0xd48
 1824 0d46 00       		.byte	0
ARM GAS  /tmp/ccvmwPLv.s 			page 33


 1825 0d47 00       		.byte	0
 1826 0d48 0D       		.uleb128 0xd
 1827 0d49 04       		.byte	0x4
 1828 0d4a 2D0D0000 		.4byte	0xd2d
 1829 0d4e 0E       		.uleb128 0xe
 1830 0d4f 10       		.byte	0x10
 1831 0d50 15       		.byte	0x15
 1832 0d51 40       		.byte	0x40
 1833 0d52 09       		.byte	0x9
 1834 0d53 8C0D0000 		.4byte	0xd8c
 1835 0d57 09       		.uleb128 0x9
 1836 0d58 AB0A0000 		.4byte	.LASF69
 1837 0d5c 15       		.byte	0x15
 1838 0d5d 41       		.byte	0x41
 1839 0d5e 1A       		.byte	0x1a
 1840 0d5f 480D0000 		.4byte	0xd48
 1841 0d63 00       		.byte	0
 1842 0d64 09       		.uleb128 0x9
 1843 0d65 BF080000 		.4byte	.LASF184
 1844 0d69 15       		.byte	0x15
 1845 0d6a 42       		.byte	0x42
 1846 0d6b 19       		.byte	0x19
 1847 0d6c 24000000 		.4byte	0x24
 1848 0d70 04       		.byte	0x4
 1849 0d71 09       		.uleb128 0x9
 1850 0d72 1D050000 		.4byte	.LASF185
 1851 0d76 15       		.byte	0x15
 1852 0d77 44       		.byte	0x44
 1853 0d78 19       		.byte	0x19
 1854 0d79 30000000 		.4byte	0x30
 1855 0d7d 08       		.byte	0x8
 1856 0d7e 09       		.uleb128 0x9
 1857 0d7f 66000000 		.4byte	.LASF186
 1858 0d83 15       		.byte	0x15
 1859 0d84 45       		.byte	0x45
 1860 0d85 19       		.byte	0x19
 1861 0d86 C50C0000 		.4byte	0xcc5
 1862 0d8a 0C       		.byte	0xc
 1863 0d8b 00       		.byte	0
 1864 0d8c 03       		.uleb128 0x3
 1865 0d8d 77070000 		.4byte	.LASF187
 1866 0d91 15       		.byte	0x15
 1867 0d92 47       		.byte	0x47
 1868 0d93 03       		.byte	0x3
 1869 0d94 4E0D0000 		.4byte	0xd4e
 1870 0d98 07       		.uleb128 0x7
 1871 0d99 C8000000 		.4byte	.LASF188
 1872 0d9d 10       		.byte	0x10
 1873 0d9e 16       		.byte	0x16
 1874 0d9f A9       		.byte	0xa9
 1875 0da0 10       		.byte	0x10
 1876 0da1 CD0D0000 		.4byte	0xdcd
 1877 0da5 09       		.uleb128 0x9
 1878 0da6 AB0A0000 		.4byte	.LASF69
 1879 0daa 16       		.byte	0x16
 1880 0dab AD       		.byte	0xad
 1881 0dac 1A       		.byte	0x1a
ARM GAS  /tmp/ccvmwPLv.s 			page 34


 1882 0dad CD0D0000 		.4byte	0xdcd
 1883 0db1 00       		.byte	0
 1884 0db2 09       		.uleb128 0x9
 1885 0db3 32070000 		.4byte	.LASF36
 1886 0db7 16       		.byte	0x16
 1887 0db8 B1       		.byte	0xb1
 1888 0db9 19       		.byte	0x19
 1889 0dba 45010000 		.4byte	0x145
 1890 0dbe 04       		.byte	0x4
 1891 0dbf 09       		.uleb128 0x9
 1892 0dc0 F4070000 		.4byte	.LASF32
 1893 0dc4 16       		.byte	0x16
 1894 0dc5 B3       		.byte	0xb3
 1895 0dc6 19       		.byte	0x19
 1896 0dc7 D30D0000 		.4byte	0xdd3
 1897 0dcb 08       		.byte	0x8
 1898 0dcc 00       		.byte	0
 1899 0dcd 0D       		.uleb128 0xd
 1900 0dce 04       		.byte	0x4
 1901 0dcf 980D0000 		.4byte	0xd98
 1902 0dd3 15       		.uleb128 0x15
 1903 0dd4 59030000 		.4byte	0x359
 1904 0dd8 E30D0000 		.4byte	0xde3
 1905 0ddc 16       		.uleb128 0x16
 1906 0ddd 30000000 		.4byte	0x30
 1907 0de1 07       		.byte	0x7
 1908 0de2 00       		.byte	0
 1909 0de3 03       		.uleb128 0x3
 1910 0de4 F1080000 		.4byte	.LASF189
 1911 0de8 16       		.byte	0x16
 1912 0de9 B7       		.byte	0xb7
 1913 0dea 03       		.byte	0x3
 1914 0deb 980D0000 		.4byte	0xd98
 1915 0def 07       		.uleb128 0x7
 1916 0df0 B50A0000 		.4byte	.LASF190
 1917 0df4 04       		.byte	0x4
 1918 0df5 16       		.byte	0x16
 1919 0df6 BC       		.byte	0xbc
 1920 0df7 10       		.byte	0x10
 1921 0df8 0A0E0000 		.4byte	0xe0a
 1922 0dfc 09       		.uleb128 0x9
 1923 0dfd AB0A0000 		.4byte	.LASF69
 1924 0e01 16       		.byte	0x16
 1925 0e02 BD       		.byte	0xbd
 1926 0e03 1A       		.byte	0x1a
 1927 0e04 0A0E0000 		.4byte	0xe0a
 1928 0e08 00       		.byte	0
 1929 0e09 00       		.byte	0
 1930 0e0a 0D       		.uleb128 0xd
 1931 0e0b 04       		.byte	0x4
 1932 0e0c E30D0000 		.4byte	0xde3
 1933 0e10 03       		.uleb128 0x3
 1934 0e11 91080000 		.4byte	.LASF191
 1935 0e15 16       		.byte	0x16
 1936 0e16 BE       		.byte	0xbe
 1937 0e17 03       		.byte	0x3
 1938 0e18 EF0D0000 		.4byte	0xdef
ARM GAS  /tmp/ccvmwPLv.s 			page 35


 1939 0e1c 19       		.uleb128 0x19
 1940 0e1d CA040000 		.4byte	.LASF192
 1941 0e21 48       		.byte	0x48
 1942 0e22 16       		.byte	0x16
 1943 0e23 2001     		.2byte	0x120
 1944 0e25 10       		.byte	0x10
 1945 0e26 A90E0000 		.4byte	0xea9
 1946 0e2a 0A       		.uleb128 0xa
 1947 0e2b 6D747800 		.ascii	"mtx\000"
 1948 0e2f 16       		.byte	0x16
 1949 0e30 2501     		.2byte	0x125
 1950 0e32 19       		.byte	0x19
 1951 0e33 AC0C0000 		.4byte	0xcac
 1952 0e37 00       		.byte	0
 1953 0e38 0B       		.uleb128 0xb
 1954 0e39 30010000 		.4byte	.LASF193
 1955 0e3d 16       		.byte	0x16
 1956 0e3e 2C01     		.2byte	0x12c
 1957 0e40 19       		.byte	0x19
 1958 0e41 100E0000 		.4byte	0xe10
 1959 0e45 10       		.byte	0x10
 1960 0e46 0B       		.uleb128 0xb
 1961 0e47 C8010000 		.4byte	.LASF194
 1962 0e4b 16       		.byte	0x16
 1963 0e4c 3001     		.2byte	0x130
 1964 0e4e 19       		.byte	0x19
 1965 0e4f 8C0D0000 		.4byte	0xd8c
 1966 0e53 14       		.byte	0x14
 1967 0e54 0B       		.uleb128 0xb
 1968 0e55 7C060000 		.4byte	.LASF195
 1969 0e59 16       		.byte	0x16
 1970 0e5a 3501     		.2byte	0x135
 1971 0e5c 19       		.byte	0x19
 1972 0e5d 100E0000 		.4byte	0xe10
 1973 0e61 24       		.byte	0x24
 1974 0e62 0B       		.uleb128 0xb
 1975 0e63 CE020000 		.4byte	.LASF196
 1976 0e67 16       		.byte	0x16
 1977 0e68 3B01     		.2byte	0x13b
 1978 0e6a 19       		.byte	0x19
 1979 0e6b 100E0000 		.4byte	0xe10
 1980 0e6f 28       		.byte	0x28
 1981 0e70 0B       		.uleb128 0xb
 1982 0e71 AA030000 		.4byte	.LASF197
 1983 0e75 16       		.byte	0x16
 1984 0e76 3F01     		.2byte	0x13f
 1985 0e78 19       		.byte	0x19
 1986 0e79 8C0D0000 		.4byte	0xd8c
 1987 0e7d 2C       		.byte	0x2c
 1988 0e7e 0B       		.uleb128 0xb
 1989 0e7f 4F070000 		.4byte	.LASF198
 1990 0e83 16       		.byte	0x16
 1991 0e84 4501     		.2byte	0x145
 1992 0e86 19       		.byte	0x19
 1993 0e87 100E0000 		.4byte	0xe10
 1994 0e8b 3C       		.byte	0x3c
 1995 0e8c 0B       		.uleb128 0xb
ARM GAS  /tmp/ccvmwPLv.s 			page 36


 1996 0e8d 3C040000 		.4byte	.LASF199
 1997 0e91 16       		.byte	0x16
 1998 0e92 4B01     		.2byte	0x14b
 1999 0e94 19       		.byte	0x19
 2000 0e95 100E0000 		.4byte	0xe10
 2001 0e99 40       		.byte	0x40
 2002 0e9a 0B       		.uleb128 0xb
 2003 0e9b 75030000 		.4byte	.LASF200
 2004 0e9f 16       		.byte	0x16
 2005 0ea0 5101     		.2byte	0x151
 2006 0ea2 19       		.byte	0x19
 2007 0ea3 100E0000 		.4byte	0xe10
 2008 0ea7 44       		.byte	0x44
 2009 0ea8 00       		.byte	0
 2010 0ea9 1D       		.uleb128 0x1d
 2011 0eaa 6A060000 		.4byte	.LASF201
 2012 0eae 16       		.byte	0x16
 2013 0eaf 5301     		.2byte	0x153
 2014 0eb1 03       		.byte	0x3
 2015 0eb2 1C0E0000 		.4byte	0xe1c
 2016 0eb6 17       		.uleb128 0x17
 2017 0eb7 44070000 		.4byte	.LASF202
 2018 0ebb 16       		.byte	0x16
 2019 0ebc 5E01     		.2byte	0x15e
 2020 0ebe 1A       		.byte	0x1a
 2021 0ebf A90E0000 		.4byte	0xea9
 2022 0ec3 22       		.uleb128 0x22
 2023 0ec4 0D030000 		.4byte	.LASF221
 2024 0ec8 17       		.byte	0x17
 2025 0ec9 59       		.byte	0x59
 2026 0eca 06       		.byte	0x6
 2027 0ecb 0B0F0000 		.4byte	0xf0b
 2028 0ecf 23       		.uleb128 0x23
 2029 0ed0 6F697000 		.ascii	"oip\000"
 2030 0ed4 17       		.byte	0x17
 2031 0ed5 59       		.byte	0x59
 2032 0ed6 2A       		.byte	0x2a
 2033 0ed7 09090000 		.4byte	0x909
 2034 0edb 24       		.uleb128 0x24
 2035 0edc B1050000 		.4byte	.LASF203
 2036 0ee0 17       		.byte	0x17
 2037 0ee1 5A       		.byte	0x5a
 2038 0ee2 37       		.byte	0x37
 2039 0ee3 B4090000 		.4byte	0x9b4
 2040 0ee7 25       		.uleb128 0x25
 2041 0ee8 05030000 		.4byte	.LASF49
 2042 0eec 17       		.byte	0x17
 2043 0eed 5B       		.byte	0x5b
 2044 0eee 0D       		.byte	0xd
 2045 0eef 51010000 		.4byte	0x151
 2046 0ef3 26       		.uleb128 0x26
 2047 0ef4 BF000000 		.4byte	.LASF222
 2048 0ef8 1B0F0000 		.4byte	0xf1b
 2049 0efc 27       		.uleb128 0x27
 2050 0efd 25       		.uleb128 0x25
 2051 0efe 06010000 		.4byte	.LASF204
 2052 0f02 17       		.byte	0x17
ARM GAS  /tmp/ccvmwPLv.s 			page 37


 2053 0f03 A7       		.byte	0xa7
 2054 0f04 19       		.byte	0x19
 2055 0f05 AC0A0000 		.4byte	0xaac
 2056 0f09 00       		.byte	0
 2057 0f0a 00       		.byte	0
 2058 0f0b 15       		.uleb128 0x15
 2059 0f0c 60030000 		.4byte	0x360
 2060 0f10 1B0F0000 		.4byte	0xf1b
 2061 0f14 16       		.uleb128 0x16
 2062 0f15 30000000 		.4byte	0x30
 2063 0f19 14       		.byte	0x14
 2064 0f1a 00       		.byte	0
 2065 0f1b 06       		.uleb128 0x6
 2066 0f1c 0B0F0000 		.4byte	0xf0b
 2067 0f20 28       		.uleb128 0x28
 2068 0f21 F1030000 		.4byte	.LASF205
 2069 0f25 17       		.byte	0x17
 2070 0f26 3E       		.byte	0x3e
 2071 0f27 0D       		.byte	0xd
 2072 0f28 370F0000 		.4byte	0xf37
 2073 0f2c 23       		.uleb128 0x23
 2074 0f2d 7000     		.ascii	"p\000"
 2075 0f2f 17       		.byte	0x17
 2076 0f30 3E       		.byte	0x3e
 2077 0f31 21       		.byte	0x21
 2078 0f32 B4040000 		.4byte	0x4b4
 2079 0f36 00       		.byte	0
 2080 0f37 28       		.uleb128 0x28
 2081 0f38 AD080000 		.4byte	.LASF206
 2082 0f3c 13       		.byte	0x13
 2083 0f3d 97       		.byte	0x97
 2084 0f3e 14       		.byte	0x14
 2085 0f3f 4F0F0000 		.4byte	0xf4f
 2086 0f43 23       		.uleb128 0x23
 2087 0f44 727000   		.ascii	"rp\000"
 2088 0f47 13       		.byte	0x13
 2089 0f48 97       		.byte	0x97
 2090 0f49 32       		.byte	0x32
 2091 0f4a 4F0F0000 		.4byte	0xf4f
 2092 0f4e 00       		.byte	0
 2093 0f4f 0D       		.uleb128 0xd
 2094 0f50 04       		.byte	0x4
 2095 0f51 E4070000 		.4byte	0x7e4
 2096 0f55 29       		.uleb128 0x29
 2097 0f56 21070000 		.4byte	.LASF207
 2098 0f5a 18       		.byte	0x18
 2099 0f5b FD01     		.2byte	0x1fd
 2100 0f5d 14       		.byte	0x14
 2101 0f5e 700F0000 		.4byte	0xf70
 2102 0f62 2A       		.uleb128 0x2a
 2103 0f63 A60A0000 		.4byte	.LASF208
 2104 0f67 18       		.byte	0x18
 2105 0f68 FD01     		.2byte	0x1fd
 2106 0f6a 3C       		.byte	0x3c
 2107 0f6b 700F0000 		.4byte	0xf70
 2108 0f6f 00       		.byte	0
 2109 0f70 0D       		.uleb128 0xd
ARM GAS  /tmp/ccvmwPLv.s 			page 38


 2110 0f71 04       		.byte	0x4
 2111 0f72 BD070000 		.4byte	0x7bd
 2112 0f76 2B       		.uleb128 0x2b
 2113 0f77 35060000 		.4byte	.LASF209
 2114 0f7b 18       		.byte	0x18
 2115 0f7c 7A       		.byte	0x7a
 2116 0f7d 19       		.byte	0x19
 2117 0f7e 71030000 		.4byte	0x371
 2118 0f82 2B       		.uleb128 0x2b
 2119 0f83 45030000 		.4byte	.LASF210
 2120 0f87 19       		.byte	0x19
 2121 0f88 6F       		.byte	0x6f
 2122 0f89 19       		.byte	0x19
 2123 0f8a 71030000 		.4byte	0x371
 2124 0f8e 2C       		.uleb128 0x2c
 2125 0f8f 09070000 		.4byte	.LASF223
 2126 0f93 0D       		.byte	0xd
 2127 0f94 8A03     		.2byte	0x38a
 2128 0f96 1B       		.byte	0x1b
 2129 0f97 29       		.uleb128 0x29
 2130 0f98 2C0A0000 		.4byte	.LASF211
 2131 0f9c 09       		.byte	0x9
 2132 0f9d AA01     		.2byte	0x1aa
 2133 0f9f 14       		.byte	0x14
 2134 0fa0 B20F0000 		.4byte	0xfb2
 2135 0fa4 2A       		.uleb128 0x2a
 2136 0fa5 07080000 		.4byte	.LASF212
 2137 0fa9 09       		.byte	0x9
 2138 0faa AA01     		.2byte	0x1aa
 2139 0fac 33       		.byte	0x33
 2140 0fad 84040000 		.4byte	0x484
 2141 0fb1 00       		.byte	0
 2142 0fb2 29       		.uleb128 0x29
 2143 0fb3 8E000000 		.4byte	.LASF213
 2144 0fb7 09       		.byte	0x9
 2145 0fb8 5001     		.2byte	0x150
 2146 0fba 14       		.byte	0x14
 2147 0fbb CD0F0000 		.4byte	0xfcd
 2148 0fbf 2D       		.uleb128 0x2d
 2149 0fc0 70717000 		.ascii	"pqp\000"
 2150 0fc4 09       		.byte	0x9
 2151 0fc5 5001     		.2byte	0x150
 2152 0fc7 38       		.byte	0x38
 2153 0fc8 3D040000 		.4byte	0x43d
 2154 0fcc 00       		.byte	0
 2155 0fcd 28       		.uleb128 0x28
 2156 0fce 830A0000 		.4byte	.LASF214
 2157 0fd2 09       		.byte	0x9
 2158 0fd3 DE       		.byte	0xde
 2159 0fd4 14       		.byte	0x14
 2160 0fd5 E50F0000 		.4byte	0xfe5
 2161 0fd9 23       		.uleb128 0x23
 2162 0fda 717000   		.ascii	"qp\000"
 2163 0fdd 09       		.byte	0x9
 2164 0fde DE       		.byte	0xde
 2165 0fdf 2E       		.byte	0x2e
 2166 0fe0 F6030000 		.4byte	0x3f6
ARM GAS  /tmp/ccvmwPLv.s 			page 39


 2167 0fe4 00       		.byte	0
 2168 0fe5 28       		.uleb128 0x28
 2169 0fe6 BC020000 		.4byte	.LASF215
 2170 0fea 07       		.byte	0x7
 2171 0feb C0       		.byte	0xc0
 2172 0fec 14       		.byte	0x14
 2173 0fed FE0F0000 		.4byte	0xffe
 2174 0ff1 23       		.uleb128 0x23
 2175 0ff2 73647000 		.ascii	"sdp\000"
 2176 0ff6 07       		.byte	0x7
 2177 0ff7 C0       		.byte	0xc0
 2178 0ff8 36       		.byte	0x36
 2179 0ff9 FE0F0000 		.4byte	0xffe
 2180 0ffd 00       		.byte	0
 2181 0ffe 0D       		.uleb128 0xd
 2182 0fff 04       		.byte	0x4
 2183 1000 65030000 		.4byte	0x365
 2184 1004 28       		.uleb128 0x28
 2185 1005 CC0A0000 		.4byte	.LASF216
 2186 1009 06       		.byte	0x6
 2187 100a 68       		.byte	0x68
 2188 100b 14       		.byte	0x14
 2189 100c 1D100000 		.4byte	0x101d
 2190 1010 24       		.uleb128 0x24
 2191 1011 B6050000 		.4byte	.LASF217
 2192 1015 06       		.byte	0x6
 2193 1016 68       		.byte	0x68
 2194 1017 2F       		.byte	0x2f
 2195 1018 1D100000 		.4byte	0x101d
 2196 101c 00       		.byte	0
 2197 101d 0D       		.uleb128 0xd
 2198 101e 04       		.byte	0x4
 2199 101f 0D030000 		.4byte	0x30d
 2200 1023 00       		.byte	0
 2201              		.section	.gnu.debuglto_.debug_abbrev,"e",%progbits
 2202              	.Ldebug_abbrev0:
 2203 0000 01       		.uleb128 0x1
 2204 0001 11       		.uleb128 0x11
 2205 0002 01       		.byte	0x1
 2206 0003 25       		.uleb128 0x25
 2207 0004 0E       		.uleb128 0xe
 2208 0005 13       		.uleb128 0x13
 2209 0006 0B       		.uleb128 0xb
 2210 0007 03       		.uleb128 0x3
 2211 0008 0E       		.uleb128 0xe
 2212 0009 1B       		.uleb128 0x1b
 2213 000a 0E       		.uleb128 0xe
 2214 000b 10       		.uleb128 0x10
 2215 000c 17       		.uleb128 0x17
 2216 000d 00       		.byte	0
 2217 000e 00       		.byte	0
 2218 000f 02       		.uleb128 0x2
 2219 0010 24       		.uleb128 0x24
 2220 0011 00       		.byte	0
 2221 0012 0B       		.uleb128 0xb
 2222 0013 0B       		.uleb128 0xb
 2223 0014 3E       		.uleb128 0x3e
ARM GAS  /tmp/ccvmwPLv.s 			page 40


 2224 0015 0B       		.uleb128 0xb
 2225 0016 03       		.uleb128 0x3
 2226 0017 08       		.uleb128 0x8
 2227 0018 00       		.byte	0
 2228 0019 00       		.byte	0
 2229 001a 03       		.uleb128 0x3
 2230 001b 16       		.uleb128 0x16
 2231 001c 00       		.byte	0
 2232 001d 03       		.uleb128 0x3
 2233 001e 0E       		.uleb128 0xe
 2234 001f 3A       		.uleb128 0x3a
 2235 0020 0B       		.uleb128 0xb
 2236 0021 3B       		.uleb128 0x3b
 2237 0022 0B       		.uleb128 0xb
 2238 0023 39       		.uleb128 0x39
 2239 0024 0B       		.uleb128 0xb
 2240 0025 49       		.uleb128 0x49
 2241 0026 13       		.uleb128 0x13
 2242 0027 00       		.byte	0
 2243 0028 00       		.byte	0
 2244 0029 04       		.uleb128 0x4
 2245 002a 24       		.uleb128 0x24
 2246 002b 00       		.byte	0
 2247 002c 0B       		.uleb128 0xb
 2248 002d 0B       		.uleb128 0xb
 2249 002e 3E       		.uleb128 0x3e
 2250 002f 0B       		.uleb128 0xb
 2251 0030 03       		.uleb128 0x3
 2252 0031 0E       		.uleb128 0xe
 2253 0032 00       		.byte	0
 2254 0033 00       		.byte	0
 2255 0034 05       		.uleb128 0x5
 2256 0035 35       		.uleb128 0x35
 2257 0036 00       		.byte	0
 2258 0037 49       		.uleb128 0x49
 2259 0038 13       		.uleb128 0x13
 2260 0039 00       		.byte	0
 2261 003a 00       		.byte	0
 2262 003b 06       		.uleb128 0x6
 2263 003c 26       		.uleb128 0x26
 2264 003d 00       		.byte	0
 2265 003e 49       		.uleb128 0x49
 2266 003f 13       		.uleb128 0x13
 2267 0040 00       		.byte	0
 2268 0041 00       		.byte	0
 2269 0042 07       		.uleb128 0x7
 2270 0043 13       		.uleb128 0x13
 2271 0044 01       		.byte	0x1
 2272 0045 03       		.uleb128 0x3
 2273 0046 0E       		.uleb128 0xe
 2274 0047 0B       		.uleb128 0xb
 2275 0048 0B       		.uleb128 0xb
 2276 0049 3A       		.uleb128 0x3a
 2277 004a 0B       		.uleb128 0xb
 2278 004b 3B       		.uleb128 0x3b
 2279 004c 0B       		.uleb128 0xb
 2280 004d 39       		.uleb128 0x39
ARM GAS  /tmp/ccvmwPLv.s 			page 41


 2281 004e 0B       		.uleb128 0xb
 2282 004f 01       		.uleb128 0x1
 2283 0050 13       		.uleb128 0x13
 2284 0051 00       		.byte	0
 2285 0052 00       		.byte	0
 2286 0053 08       		.uleb128 0x8
 2287 0054 0D       		.uleb128 0xd
 2288 0055 00       		.byte	0
 2289 0056 03       		.uleb128 0x3
 2290 0057 08       		.uleb128 0x8
 2291 0058 3A       		.uleb128 0x3a
 2292 0059 0B       		.uleb128 0xb
 2293 005a 3B       		.uleb128 0x3b
 2294 005b 0B       		.uleb128 0xb
 2295 005c 39       		.uleb128 0x39
 2296 005d 0B       		.uleb128 0xb
 2297 005e 49       		.uleb128 0x49
 2298 005f 13       		.uleb128 0x13
 2299 0060 38       		.uleb128 0x38
 2300 0061 0B       		.uleb128 0xb
 2301 0062 00       		.byte	0
 2302 0063 00       		.byte	0
 2303 0064 09       		.uleb128 0x9
 2304 0065 0D       		.uleb128 0xd
 2305 0066 00       		.byte	0
 2306 0067 03       		.uleb128 0x3
 2307 0068 0E       		.uleb128 0xe
 2308 0069 3A       		.uleb128 0x3a
 2309 006a 0B       		.uleb128 0xb
 2310 006b 3B       		.uleb128 0x3b
 2311 006c 0B       		.uleb128 0xb
 2312 006d 39       		.uleb128 0x39
 2313 006e 0B       		.uleb128 0xb
 2314 006f 49       		.uleb128 0x49
 2315 0070 13       		.uleb128 0x13
 2316 0071 38       		.uleb128 0x38
 2317 0072 0B       		.uleb128 0xb
 2318 0073 00       		.byte	0
 2319 0074 00       		.byte	0
 2320 0075 0A       		.uleb128 0xa
 2321 0076 0D       		.uleb128 0xd
 2322 0077 00       		.byte	0
 2323 0078 03       		.uleb128 0x3
 2324 0079 08       		.uleb128 0x8
 2325 007a 3A       		.uleb128 0x3a
 2326 007b 0B       		.uleb128 0xb
 2327 007c 3B       		.uleb128 0x3b
 2328 007d 05       		.uleb128 0x5
 2329 007e 39       		.uleb128 0x39
 2330 007f 0B       		.uleb128 0xb
 2331 0080 49       		.uleb128 0x49
 2332 0081 13       		.uleb128 0x13
 2333 0082 38       		.uleb128 0x38
 2334 0083 0B       		.uleb128 0xb
 2335 0084 00       		.byte	0
 2336 0085 00       		.byte	0
 2337 0086 0B       		.uleb128 0xb
ARM GAS  /tmp/ccvmwPLv.s 			page 42


 2338 0087 0D       		.uleb128 0xd
 2339 0088 00       		.byte	0
 2340 0089 03       		.uleb128 0x3
 2341 008a 0E       		.uleb128 0xe
 2342 008b 3A       		.uleb128 0x3a
 2343 008c 0B       		.uleb128 0xb
 2344 008d 3B       		.uleb128 0x3b
 2345 008e 05       		.uleb128 0x5
 2346 008f 39       		.uleb128 0x39
 2347 0090 0B       		.uleb128 0xb
 2348 0091 49       		.uleb128 0x49
 2349 0092 13       		.uleb128 0x13
 2350 0093 38       		.uleb128 0x38
 2351 0094 0B       		.uleb128 0xb
 2352 0095 00       		.byte	0
 2353 0096 00       		.byte	0
 2354 0097 0C       		.uleb128 0xc
 2355 0098 13       		.uleb128 0x13
 2356 0099 01       		.byte	0x1
 2357 009a 03       		.uleb128 0x3
 2358 009b 0E       		.uleb128 0xe
 2359 009c 0B       		.uleb128 0xb
 2360 009d 05       		.uleb128 0x5
 2361 009e 3A       		.uleb128 0x3a
 2362 009f 0B       		.uleb128 0xb
 2363 00a0 3B       		.uleb128 0x3b
 2364 00a1 05       		.uleb128 0x5
 2365 00a2 39       		.uleb128 0x39
 2366 00a3 0B       		.uleb128 0xb
 2367 00a4 01       		.uleb128 0x1
 2368 00a5 13       		.uleb128 0x13
 2369 00a6 00       		.byte	0
 2370 00a7 00       		.byte	0
 2371 00a8 0D       		.uleb128 0xd
 2372 00a9 0F       		.uleb128 0xf
 2373 00aa 00       		.byte	0
 2374 00ab 0B       		.uleb128 0xb
 2375 00ac 0B       		.uleb128 0xb
 2376 00ad 49       		.uleb128 0x49
 2377 00ae 13       		.uleb128 0x13
 2378 00af 00       		.byte	0
 2379 00b0 00       		.byte	0
 2380 00b1 0E       		.uleb128 0xe
 2381 00b2 13       		.uleb128 0x13
 2382 00b3 01       		.byte	0x1
 2383 00b4 0B       		.uleb128 0xb
 2384 00b5 0B       		.uleb128 0xb
 2385 00b6 3A       		.uleb128 0x3a
 2386 00b7 0B       		.uleb128 0xb
 2387 00b8 3B       		.uleb128 0x3b
 2388 00b9 0B       		.uleb128 0xb
 2389 00ba 39       		.uleb128 0x39
 2390 00bb 0B       		.uleb128 0xb
 2391 00bc 01       		.uleb128 0x1
 2392 00bd 13       		.uleb128 0x13
 2393 00be 00       		.byte	0
 2394 00bf 00       		.byte	0
ARM GAS  /tmp/ccvmwPLv.s 			page 43


 2395 00c0 0F       		.uleb128 0xf
 2396 00c1 0F       		.uleb128 0xf
 2397 00c2 00       		.byte	0
 2398 00c3 0B       		.uleb128 0xb
 2399 00c4 0B       		.uleb128 0xb
 2400 00c5 00       		.byte	0
 2401 00c6 00       		.byte	0
 2402 00c7 10       		.uleb128 0x10
 2403 00c8 17       		.uleb128 0x17
 2404 00c9 01       		.byte	0x1
 2405 00ca 0B       		.uleb128 0xb
 2406 00cb 0B       		.uleb128 0xb
 2407 00cc 3A       		.uleb128 0x3a
 2408 00cd 0B       		.uleb128 0xb
 2409 00ce 3B       		.uleb128 0x3b
 2410 00cf 0B       		.uleb128 0xb
 2411 00d0 39       		.uleb128 0x39
 2412 00d1 0B       		.uleb128 0xb
 2413 00d2 01       		.uleb128 0x1
 2414 00d3 13       		.uleb128 0x13
 2415 00d4 00       		.byte	0
 2416 00d5 00       		.byte	0
 2417 00d6 11       		.uleb128 0x11
 2418 00d7 0D       		.uleb128 0xd
 2419 00d8 00       		.byte	0
 2420 00d9 03       		.uleb128 0x3
 2421 00da 08       		.uleb128 0x8
 2422 00db 3A       		.uleb128 0x3a
 2423 00dc 0B       		.uleb128 0xb
 2424 00dd 3B       		.uleb128 0x3b
 2425 00de 0B       		.uleb128 0xb
 2426 00df 39       		.uleb128 0x39
 2427 00e0 0B       		.uleb128 0xb
 2428 00e1 49       		.uleb128 0x49
 2429 00e2 13       		.uleb128 0x13
 2430 00e3 00       		.byte	0
 2431 00e4 00       		.byte	0
 2432 00e5 12       		.uleb128 0x12
 2433 00e6 0D       		.uleb128 0xd
 2434 00e7 00       		.byte	0
 2435 00e8 03       		.uleb128 0x3
 2436 00e9 0E       		.uleb128 0xe
 2437 00ea 3A       		.uleb128 0x3a
 2438 00eb 0B       		.uleb128 0xb
 2439 00ec 3B       		.uleb128 0x3b
 2440 00ed 0B       		.uleb128 0xb
 2441 00ee 39       		.uleb128 0x39
 2442 00ef 0B       		.uleb128 0xb
 2443 00f0 49       		.uleb128 0x49
 2444 00f1 13       		.uleb128 0x13
 2445 00f2 00       		.byte	0
 2446 00f3 00       		.byte	0
 2447 00f4 13       		.uleb128 0x13
 2448 00f5 0D       		.uleb128 0xd
 2449 00f6 00       		.byte	0
 2450 00f7 03       		.uleb128 0x3
 2451 00f8 0E       		.uleb128 0xe
ARM GAS  /tmp/ccvmwPLv.s 			page 44


 2452 00f9 3A       		.uleb128 0x3a
 2453 00fa 0B       		.uleb128 0xb
 2454 00fb 3B       		.uleb128 0x3b
 2455 00fc 0B       		.uleb128 0xb
 2456 00fd 39       		.uleb128 0x39
 2457 00fe 0B       		.uleb128 0xb
 2458 00ff 49       		.uleb128 0x49
 2459 0100 13       		.uleb128 0x13
 2460 0101 0B       		.uleb128 0xb
 2461 0102 0B       		.uleb128 0xb
 2462 0103 0D       		.uleb128 0xd
 2463 0104 0B       		.uleb128 0xb
 2464 0105 0C       		.uleb128 0xc
 2465 0106 0B       		.uleb128 0xb
 2466 0107 38       		.uleb128 0x38
 2467 0108 0B       		.uleb128 0xb
 2468 0109 00       		.byte	0
 2469 010a 00       		.byte	0
 2470 010b 14       		.uleb128 0x14
 2471 010c 13       		.uleb128 0x13
 2472 010d 01       		.byte	0x1
 2473 010e 0B       		.uleb128 0xb
 2474 010f 05       		.uleb128 0x5
 2475 0110 3A       		.uleb128 0x3a
 2476 0111 0B       		.uleb128 0xb
 2477 0112 3B       		.uleb128 0x3b
 2478 0113 0B       		.uleb128 0xb
 2479 0114 39       		.uleb128 0x39
 2480 0115 0B       		.uleb128 0xb
 2481 0116 01       		.uleb128 0x1
 2482 0117 13       		.uleb128 0x13
 2483 0118 00       		.byte	0
 2484 0119 00       		.byte	0
 2485 011a 15       		.uleb128 0x15
 2486 011b 01       		.uleb128 0x1
 2487 011c 01       		.byte	0x1
 2488 011d 49       		.uleb128 0x49
 2489 011e 13       		.uleb128 0x13
 2490 011f 01       		.uleb128 0x1
 2491 0120 13       		.uleb128 0x13
 2492 0121 00       		.byte	0
 2493 0122 00       		.byte	0
 2494 0123 16       		.uleb128 0x16
 2495 0124 21       		.uleb128 0x21
 2496 0125 00       		.byte	0
 2497 0126 49       		.uleb128 0x49
 2498 0127 13       		.uleb128 0x13
 2499 0128 2F       		.uleb128 0x2f
 2500 0129 0B       		.uleb128 0xb
 2501 012a 00       		.byte	0
 2502 012b 00       		.byte	0
 2503 012c 17       		.uleb128 0x17
 2504 012d 34       		.uleb128 0x34
 2505 012e 00       		.byte	0
 2506 012f 03       		.uleb128 0x3
 2507 0130 0E       		.uleb128 0xe
 2508 0131 3A       		.uleb128 0x3a
ARM GAS  /tmp/ccvmwPLv.s 			page 45


 2509 0132 0B       		.uleb128 0xb
 2510 0133 3B       		.uleb128 0x3b
 2511 0134 05       		.uleb128 0x5
 2512 0135 39       		.uleb128 0x39
 2513 0136 0B       		.uleb128 0xb
 2514 0137 49       		.uleb128 0x49
 2515 0138 13       		.uleb128 0x13
 2516 0139 3F       		.uleb128 0x3f
 2517 013a 19       		.uleb128 0x19
 2518 013b 3C       		.uleb128 0x3c
 2519 013c 19       		.uleb128 0x19
 2520 013d 00       		.byte	0
 2521 013e 00       		.byte	0
 2522 013f 18       		.uleb128 0x18
 2523 0140 34       		.uleb128 0x34
 2524 0141 00       		.byte	0
 2525 0142 03       		.uleb128 0x3
 2526 0143 0E       		.uleb128 0xe
 2527 0144 3A       		.uleb128 0x3a
 2528 0145 0B       		.uleb128 0xb
 2529 0146 3B       		.uleb128 0x3b
 2530 0147 0B       		.uleb128 0xb
 2531 0148 39       		.uleb128 0x39
 2532 0149 0B       		.uleb128 0xb
 2533 014a 49       		.uleb128 0x49
 2534 014b 13       		.uleb128 0x13
 2535 014c 3F       		.uleb128 0x3f
 2536 014d 19       		.uleb128 0x19
 2537 014e 3C       		.uleb128 0x3c
 2538 014f 19       		.uleb128 0x19
 2539 0150 00       		.byte	0
 2540 0151 00       		.byte	0
 2541 0152 19       		.uleb128 0x19
 2542 0153 13       		.uleb128 0x13
 2543 0154 01       		.byte	0x1
 2544 0155 03       		.uleb128 0x3
 2545 0156 0E       		.uleb128 0xe
 2546 0157 0B       		.uleb128 0xb
 2547 0158 0B       		.uleb128 0xb
 2548 0159 3A       		.uleb128 0x3a
 2549 015a 0B       		.uleb128 0xb
 2550 015b 3B       		.uleb128 0x3b
 2551 015c 05       		.uleb128 0x5
 2552 015d 39       		.uleb128 0x39
 2553 015e 0B       		.uleb128 0xb
 2554 015f 01       		.uleb128 0x1
 2555 0160 13       		.uleb128 0x13
 2556 0161 00       		.byte	0
 2557 0162 00       		.byte	0
 2558 0163 1A       		.uleb128 0x1a
 2559 0164 04       		.uleb128 0x4
 2560 0165 01       		.byte	0x1
 2561 0166 3E       		.uleb128 0x3e
 2562 0167 0B       		.uleb128 0xb
 2563 0168 0B       		.uleb128 0xb
 2564 0169 0B       		.uleb128 0xb
 2565 016a 49       		.uleb128 0x49
ARM GAS  /tmp/ccvmwPLv.s 			page 46


 2566 016b 13       		.uleb128 0x13
 2567 016c 3A       		.uleb128 0x3a
 2568 016d 0B       		.uleb128 0xb
 2569 016e 3B       		.uleb128 0x3b
 2570 016f 0B       		.uleb128 0xb
 2571 0170 39       		.uleb128 0x39
 2572 0171 0B       		.uleb128 0xb
 2573 0172 01       		.uleb128 0x1
 2574 0173 13       		.uleb128 0x13
 2575 0174 00       		.byte	0
 2576 0175 00       		.byte	0
 2577 0176 1B       		.uleb128 0x1b
 2578 0177 28       		.uleb128 0x28
 2579 0178 00       		.byte	0
 2580 0179 03       		.uleb128 0x3
 2581 017a 0E       		.uleb128 0xe
 2582 017b 1C       		.uleb128 0x1c
 2583 017c 0B       		.uleb128 0xb
 2584 017d 00       		.byte	0
 2585 017e 00       		.byte	0
 2586 017f 1C       		.uleb128 0x1c
 2587 0180 0D       		.uleb128 0xd
 2588 0181 00       		.byte	0
 2589 0182 03       		.uleb128 0x3
 2590 0183 0E       		.uleb128 0xe
 2591 0184 3A       		.uleb128 0x3a
 2592 0185 0B       		.uleb128 0xb
 2593 0186 3B       		.uleb128 0x3b
 2594 0187 05       		.uleb128 0x5
 2595 0188 39       		.uleb128 0x39
 2596 0189 0B       		.uleb128 0xb
 2597 018a 49       		.uleb128 0x49
 2598 018b 13       		.uleb128 0x13
 2599 018c 00       		.byte	0
 2600 018d 00       		.byte	0
 2601 018e 1D       		.uleb128 0x1d
 2602 018f 16       		.uleb128 0x16
 2603 0190 00       		.byte	0
 2604 0191 03       		.uleb128 0x3
 2605 0192 0E       		.uleb128 0xe
 2606 0193 3A       		.uleb128 0x3a
 2607 0194 0B       		.uleb128 0xb
 2608 0195 3B       		.uleb128 0x3b
 2609 0196 05       		.uleb128 0x5
 2610 0197 39       		.uleb128 0x39
 2611 0198 0B       		.uleb128 0xb
 2612 0199 49       		.uleb128 0x49
 2613 019a 13       		.uleb128 0x13
 2614 019b 00       		.byte	0
 2615 019c 00       		.byte	0
 2616 019d 1E       		.uleb128 0x1e
 2617 019e 34       		.uleb128 0x34
 2618 019f 00       		.byte	0
 2619 01a0 03       		.uleb128 0x3
 2620 01a1 08       		.uleb128 0x8
 2621 01a2 3A       		.uleb128 0x3a
 2622 01a3 0B       		.uleb128 0xb
ARM GAS  /tmp/ccvmwPLv.s 			page 47


 2623 01a4 3B       		.uleb128 0x3b
 2624 01a5 05       		.uleb128 0x5
 2625 01a6 39       		.uleb128 0x39
 2626 01a7 0B       		.uleb128 0xb
 2627 01a8 49       		.uleb128 0x49
 2628 01a9 13       		.uleb128 0x13
 2629 01aa 3F       		.uleb128 0x3f
 2630 01ab 19       		.uleb128 0x19
 2631 01ac 3C       		.uleb128 0x3c
 2632 01ad 19       		.uleb128 0x19
 2633 01ae 00       		.byte	0
 2634 01af 00       		.byte	0
 2635 01b0 1F       		.uleb128 0x1f
 2636 01b1 15       		.uleb128 0x15
 2637 01b2 01       		.byte	0x1
 2638 01b3 27       		.uleb128 0x27
 2639 01b4 19       		.uleb128 0x19
 2640 01b5 01       		.uleb128 0x1
 2641 01b6 13       		.uleb128 0x13
 2642 01b7 00       		.byte	0
 2643 01b8 00       		.byte	0
 2644 01b9 20       		.uleb128 0x20
 2645 01ba 05       		.uleb128 0x5
 2646 01bb 00       		.byte	0
 2647 01bc 49       		.uleb128 0x49
 2648 01bd 13       		.uleb128 0x13
 2649 01be 00       		.byte	0
 2650 01bf 00       		.byte	0
 2651 01c0 21       		.uleb128 0x21
 2652 01c1 15       		.uleb128 0x15
 2653 01c2 01       		.byte	0x1
 2654 01c3 27       		.uleb128 0x27
 2655 01c4 19       		.uleb128 0x19
 2656 01c5 49       		.uleb128 0x49
 2657 01c6 13       		.uleb128 0x13
 2658 01c7 01       		.uleb128 0x1
 2659 01c8 13       		.uleb128 0x13
 2660 01c9 00       		.byte	0
 2661 01ca 00       		.byte	0
 2662 01cb 22       		.uleb128 0x22
 2663 01cc 2E       		.uleb128 0x2e
 2664 01cd 01       		.byte	0x1
 2665 01ce 3F       		.uleb128 0x3f
 2666 01cf 19       		.uleb128 0x19
 2667 01d0 03       		.uleb128 0x3
 2668 01d1 0E       		.uleb128 0xe
 2669 01d2 3A       		.uleb128 0x3a
 2670 01d3 0B       		.uleb128 0xb
 2671 01d4 3B       		.uleb128 0x3b
 2672 01d5 0B       		.uleb128 0xb
 2673 01d6 39       		.uleb128 0x39
 2674 01d7 0B       		.uleb128 0xb
 2675 01d8 27       		.uleb128 0x27
 2676 01d9 19       		.uleb128 0x19
 2677 01da 01       		.uleb128 0x1
 2678 01db 13       		.uleb128 0x13
 2679 01dc 00       		.byte	0
ARM GAS  /tmp/ccvmwPLv.s 			page 48


 2680 01dd 00       		.byte	0
 2681 01de 23       		.uleb128 0x23
 2682 01df 05       		.uleb128 0x5
 2683 01e0 00       		.byte	0
 2684 01e1 03       		.uleb128 0x3
 2685 01e2 08       		.uleb128 0x8
 2686 01e3 3A       		.uleb128 0x3a
 2687 01e4 0B       		.uleb128 0xb
 2688 01e5 3B       		.uleb128 0x3b
 2689 01e6 0B       		.uleb128 0xb
 2690 01e7 39       		.uleb128 0x39
 2691 01e8 0B       		.uleb128 0xb
 2692 01e9 49       		.uleb128 0x49
 2693 01ea 13       		.uleb128 0x13
 2694 01eb 00       		.byte	0
 2695 01ec 00       		.byte	0
 2696 01ed 24       		.uleb128 0x24
 2697 01ee 05       		.uleb128 0x5
 2698 01ef 00       		.byte	0
 2699 01f0 03       		.uleb128 0x3
 2700 01f1 0E       		.uleb128 0xe
 2701 01f2 3A       		.uleb128 0x3a
 2702 01f3 0B       		.uleb128 0xb
 2703 01f4 3B       		.uleb128 0x3b
 2704 01f5 0B       		.uleb128 0xb
 2705 01f6 39       		.uleb128 0x39
 2706 01f7 0B       		.uleb128 0xb
 2707 01f8 49       		.uleb128 0x49
 2708 01f9 13       		.uleb128 0x13
 2709 01fa 00       		.byte	0
 2710 01fb 00       		.byte	0
 2711 01fc 25       		.uleb128 0x25
 2712 01fd 34       		.uleb128 0x34
 2713 01fe 00       		.byte	0
 2714 01ff 03       		.uleb128 0x3
 2715 0200 0E       		.uleb128 0xe
 2716 0201 3A       		.uleb128 0x3a
 2717 0202 0B       		.uleb128 0xb
 2718 0203 3B       		.uleb128 0x3b
 2719 0204 0B       		.uleb128 0xb
 2720 0205 39       		.uleb128 0x39
 2721 0206 0B       		.uleb128 0xb
 2722 0207 49       		.uleb128 0x49
 2723 0208 13       		.uleb128 0x13
 2724 0209 00       		.byte	0
 2725 020a 00       		.byte	0
 2726 020b 26       		.uleb128 0x26
 2727 020c 34       		.uleb128 0x34
 2728 020d 00       		.byte	0
 2729 020e 03       		.uleb128 0x3
 2730 020f 0E       		.uleb128 0xe
 2731 0210 49       		.uleb128 0x49
 2732 0211 13       		.uleb128 0x13
 2733 0212 34       		.uleb128 0x34
 2734 0213 19       		.uleb128 0x19
 2735 0214 00       		.byte	0
 2736 0215 00       		.byte	0
ARM GAS  /tmp/ccvmwPLv.s 			page 49


 2737 0216 27       		.uleb128 0x27
 2738 0217 0B       		.uleb128 0xb
 2739 0218 01       		.byte	0x1
 2740 0219 00       		.byte	0
 2741 021a 00       		.byte	0
 2742 021b 28       		.uleb128 0x28
 2743 021c 2E       		.uleb128 0x2e
 2744 021d 01       		.byte	0x1
 2745 021e 03       		.uleb128 0x3
 2746 021f 0E       		.uleb128 0xe
 2747 0220 3A       		.uleb128 0x3a
 2748 0221 0B       		.uleb128 0xb
 2749 0222 3B       		.uleb128 0x3b
 2750 0223 0B       		.uleb128 0xb
 2751 0224 39       		.uleb128 0x39
 2752 0225 0B       		.uleb128 0xb
 2753 0226 27       		.uleb128 0x27
 2754 0227 19       		.uleb128 0x19
 2755 0228 01       		.uleb128 0x1
 2756 0229 13       		.uleb128 0x13
 2757 022a 00       		.byte	0
 2758 022b 00       		.byte	0
 2759 022c 29       		.uleb128 0x29
 2760 022d 2E       		.uleb128 0x2e
 2761 022e 01       		.byte	0x1
 2762 022f 03       		.uleb128 0x3
 2763 0230 0E       		.uleb128 0xe
 2764 0231 3A       		.uleb128 0x3a
 2765 0232 0B       		.uleb128 0xb
 2766 0233 3B       		.uleb128 0x3b
 2767 0234 05       		.uleb128 0x5
 2768 0235 39       		.uleb128 0x39
 2769 0236 0B       		.uleb128 0xb
 2770 0237 27       		.uleb128 0x27
 2771 0238 19       		.uleb128 0x19
 2772 0239 01       		.uleb128 0x1
 2773 023a 13       		.uleb128 0x13
 2774 023b 00       		.byte	0
 2775 023c 00       		.byte	0
 2776 023d 2A       		.uleb128 0x2a
 2777 023e 05       		.uleb128 0x5
 2778 023f 00       		.byte	0
 2779 0240 03       		.uleb128 0x3
 2780 0241 0E       		.uleb128 0xe
 2781 0242 3A       		.uleb128 0x3a
 2782 0243 0B       		.uleb128 0xb
 2783 0244 3B       		.uleb128 0x3b
 2784 0245 05       		.uleb128 0x5
 2785 0246 39       		.uleb128 0x39
 2786 0247 0B       		.uleb128 0xb
 2787 0248 49       		.uleb128 0x49
 2788 0249 13       		.uleb128 0x13
 2789 024a 00       		.byte	0
 2790 024b 00       		.byte	0
 2791 024c 2B       		.uleb128 0x2b
 2792 024d 2E       		.uleb128 0x2e
 2793 024e 00       		.byte	0
ARM GAS  /tmp/ccvmwPLv.s 			page 50


 2794 024f 03       		.uleb128 0x3
 2795 0250 0E       		.uleb128 0xe
 2796 0251 3A       		.uleb128 0x3a
 2797 0252 0B       		.uleb128 0xb
 2798 0253 3B       		.uleb128 0x3b
 2799 0254 0B       		.uleb128 0xb
 2800 0255 39       		.uleb128 0x39
 2801 0256 0B       		.uleb128 0xb
 2802 0257 27       		.uleb128 0x27
 2803 0258 19       		.uleb128 0x19
 2804 0259 49       		.uleb128 0x49
 2805 025a 13       		.uleb128 0x13
 2806 025b 00       		.byte	0
 2807 025c 00       		.byte	0
 2808 025d 2C       		.uleb128 0x2c
 2809 025e 2E       		.uleb128 0x2e
 2810 025f 00       		.byte	0
 2811 0260 03       		.uleb128 0x3
 2812 0261 0E       		.uleb128 0xe
 2813 0262 3A       		.uleb128 0x3a
 2814 0263 0B       		.uleb128 0xb
 2815 0264 3B       		.uleb128 0x3b
 2816 0265 05       		.uleb128 0x5
 2817 0266 39       		.uleb128 0x39
 2818 0267 0B       		.uleb128 0xb
 2819 0268 27       		.uleb128 0x27
 2820 0269 19       		.uleb128 0x19
 2821 026a 00       		.byte	0
 2822 026b 00       		.byte	0
 2823 026c 2D       		.uleb128 0x2d
 2824 026d 05       		.uleb128 0x5
 2825 026e 00       		.byte	0
 2826 026f 03       		.uleb128 0x3
 2827 0270 08       		.uleb128 0x8
 2828 0271 3A       		.uleb128 0x3a
 2829 0272 0B       		.uleb128 0xb
 2830 0273 3B       		.uleb128 0x3b
 2831 0274 05       		.uleb128 0x5
 2832 0275 39       		.uleb128 0x39
 2833 0276 0B       		.uleb128 0xb
 2834 0277 49       		.uleb128 0x49
 2835 0278 13       		.uleb128 0x13
 2836 0279 00       		.byte	0
 2837 027a 00       		.byte	0
 2838 027b 00       		.byte	0
 2839              		.section	.gnu.debuglto_.debug_line,"e",%progbits
 2840              	.Ldebug_line0:
 2841 0000 A7020000 		.4byte	.LELT0-.LSLT0
 2842              	.LSLT0:
 2843 0004 0400     		.2byte	0x4
 2844 0006 A1020000 		.4byte	.LELTP0-.LASLTP0
 2845              	.LASLTP0:
 2846 000a 01       		.byte	0x1
 2847 000b 01       		.byte	0x1
 2848 000c 01       		.byte	0x1
 2849 000d F6       		.byte	0xf6
 2850 000e F2       		.byte	0xf2
ARM GAS  /tmp/ccvmwPLv.s 			page 51


 2851 000f 0D       		.byte	0xd
 2852 0010 00       		.byte	0
 2853 0011 01       		.byte	0x1
 2854 0012 01       		.byte	0x1
 2855 0013 01       		.byte	0x1
 2856 0014 01       		.byte	0x1
 2857 0015 00       		.byte	0
 2858 0016 00       		.byte	0
 2859 0017 00       		.byte	0
 2860 0018 01       		.byte	0x1
 2861 0019 00       		.byte	0
 2862 001a 00       		.byte	0
 2863 001b 01       		.byte	0x1
 2864 001c 2E2E2F2E 		.ascii	"../../../../os/common/ext/ARM/CMSIS/Core/Include"
 2864      2E2F2E2E 
 2864      2F2E2E2F 
 2864      6F732F63 
 2864      6F6D6D6F 
 2865 004c 00       		.byte	0
 2866 004d 2E2E2F2E 		.ascii	"../../../../os/common/ext/ST/STM32F3xx"
 2866      2E2F2E2E 
 2866      2F2E2E2F 
 2866      6F732F63 
 2866      6F6D6D6F 
 2867 0073 00       		.byte	0
 2868 0074 2E2E2F2E 		.ascii	"../../../../os/common/ports/ARM-common"
 2868      2E2F2E2E 
 2868      2F2E2E2F 
 2868      6F732F63 
 2868      6F6D6D6F 
 2869 009a 00       		.byte	0
 2870 009b 2E2E2F2E 		.ascii	"../../../../os/common/ports/ARMv7-M"
 2870      2E2F2E2E 
 2870      2F2E2E2F 
 2870      6F732F63 
 2870      6F6D6D6F 
 2871 00be 00       		.byte	0
 2872 00bf 2E2E2F2E 		.ascii	"../../../../os/hal/osal/rt-nil"
 2872      2E2F2E2E 
 2872      2F2E2E2F 
 2872      6F732F68 
 2872      616C2F6F 
 2873 00dd 00       		.byte	0
 2874 00de 2E2E2F2E 		.ascii	"../../../../os/oslib/include"
 2874      2E2F2E2E 
 2874      2F2E2E2F 
 2874      6F732F6F 
 2874      736C6962 
 2875 00fa 00       		.byte	0
 2876 00fb 2E2E2F2E 		.ascii	"../../../../os/rt/include"
 2876      2E2F2E2E 
 2876      2F2E2E2F 
 2876      6F732F72 
 2876      742F696E 
 2877 0114 00       		.byte	0
 2878 0115 2E2E2F2E 		.ascii	"../../../../os/rt/src"
 2878      2E2F2E2E 
ARM GAS  /tmp/ccvmwPLv.s 			page 52


 2878      2F2E2E2F 
 2878      6F732F72 
 2878      742F7372 
 2879 012a 00       		.byte	0
 2880 012b 2F757372 		.ascii	"/usr/lib/gcc/arm-none-eabi/9.2.1/include"
 2880      2F6C6962 
 2880      2F676363 
 2880      2F61726D 
 2880      2D6E6F6E 
 2881 0153 00       		.byte	0
 2882 0154 00       		.byte	0
 2883 0155 73746464 		.ascii	"stddef.h\000"
 2883      65662E68 
 2883      00
 2884 015e 09       		.uleb128 0x9
 2885 015f 00       		.uleb128 0
 2886 0160 00       		.uleb128 0
 2887 0161 73746469 		.ascii	"stdint.h\000"
 2887      6E742E68 
 2887      00
 2888 016a 09       		.uleb128 0x9
 2889 016b 00       		.uleb128 0
 2890 016c 00       		.uleb128 0
 2891 016d 63687479 		.ascii	"chtypes.h\000"
 2891      7065732E 
 2891      6800
 2892 0177 03       		.uleb128 0x3
 2893 0178 00       		.uleb128 0
 2894 0179 00       		.uleb128 0
 2895 017a 63686561 		.ascii	"chearly.h\000"
 2895      726C792E 
 2895      6800
 2896 0184 07       		.uleb128 0x7
 2897 0185 00       		.uleb128 0
 2898 0186 00       		.uleb128 0
 2899 0187 63686F62 		.ascii	"chobjects.h\000"
 2899      6A656374 
 2899      732E6800 
 2900 0193 07       		.uleb128 0x7
 2901 0194 00       		.uleb128 0
 2902 0195 00       		.uleb128 0
 2903 0196 63687266 		.ascii	"chrfcu.h\000"
 2903      63752E68 
 2903      00
 2904 019f 07       		.uleb128 0x7
 2905 01a0 00       		.uleb128 0
 2906 01a1 00       		.uleb128 0
 2907 01a2 63686465 		.ascii	"chdebug.h\000"
 2907      6275672E 
 2907      6800
 2908 01ac 07       		.uleb128 0x7
 2909 01ad 00       		.uleb128 0
 2910 01ae 00       		.uleb128 0
 2911 01af 63687469 		.ascii	"chtime.h\000"
 2911      6D652E68 
 2911      00
 2912 01b8 07       		.uleb128 0x7
ARM GAS  /tmp/ccvmwPLv.s 			page 53


 2913 01b9 00       		.uleb128 0
 2914 01ba 00       		.uleb128 0
 2915 01bb 63686C69 		.ascii	"chlists.h\000"
 2915      7374732E 
 2915      6800
 2916 01c5 07       		.uleb128 0x7
 2917 01c6 00       		.uleb128 0
 2918 01c7 00       		.uleb128 0
 2919 01c8 63687472 		.ascii	"chtrace.h\000"
 2919      6163652E 
 2919      6800
 2920 01d2 07       		.uleb128 0x7
 2921 01d3 00       		.uleb128 0
 2922 01d4 00       		.uleb128 0
 2923 01d5 636F7265 		.ascii	"core_cm4.h\000"
 2923      5F636D34 
 2923      2E6800
 2924 01e0 01       		.uleb128 0x1
 2925 01e1 00       		.uleb128 0
 2926 01e2 00       		.uleb128 0
 2927 01e3 73797374 		.ascii	"system_stm32f3xx.h\000"
 2927      656D5F73 
 2927      746D3332 
 2927      66337878 
 2927      2E6800
 2928 01f6 02       		.uleb128 0x2
 2929 01f7 00       		.uleb128 0
 2930 01f8 00       		.uleb128 0
 2931 01f9 6368636F 		.ascii	"chcore.h\000"
 2931      72652E68 
 2931      00
 2932 0202 04       		.uleb128 0x4
 2933 0203 00       		.uleb128 0
 2934 0204 00       		.uleb128 0
 2935 0205 6368746D 		.ascii	"chtm.h\000"
 2935      2E6800
 2936 020c 07       		.uleb128 0x7
 2937 020d 00       		.uleb128 0
 2938 020e 00       		.uleb128 0
 2939 020f 63687365 		.ascii	"chsem.h\000"
 2939      6D2E6800 
 2940 0217 07       		.uleb128 0x7
 2941 0218 00       		.uleb128 0
 2942 0219 00       		.uleb128 0
 2943 021a 63686D74 		.ascii	"chmtx.h\000"
 2943      782E6800 
 2944 0222 07       		.uleb128 0x7
 2945 0223 00       		.uleb128 0
 2946 0224 00       		.uleb128 0
 2947 0225 63687379 		.ascii	"chsys.h\000"
 2947      732E6800 
 2948 022d 07       		.uleb128 0x7
 2949 022e 00       		.uleb128 0
 2950 022f 00       		.uleb128 0
 2951 0230 63687468 		.ascii	"chthreads.h\000"
 2951      72656164 
 2951      732E6800 
ARM GAS  /tmp/ccvmwPLv.s 			page 54


 2952 023c 07       		.uleb128 0x7
 2953 023d 00       		.uleb128 0
 2954 023e 00       		.uleb128 0
 2955 023f 63687265 		.ascii	"chregistry.h\000"
 2955      67697374 
 2955      72792E68 
 2955      00
 2956 024c 07       		.uleb128 0x7
 2957 024d 00       		.uleb128 0
 2958 024e 00       		.uleb128 0
 2959 024f 63686D65 		.ascii	"chmemcore.h\000"
 2959      6D636F72 
 2959      652E6800 
 2960 025b 06       		.uleb128 0x6
 2961 025c 00       		.uleb128 0
 2962 025d 00       		.uleb128 0
 2963 025e 63686D65 		.ascii	"chmempools.h\000"
 2963      6D706F6F 
 2963      6C732E68 
 2963      00
 2964 026b 06       		.uleb128 0x6
 2965 026c 00       		.uleb128 0
 2966 026d 00       		.uleb128 0
 2967 026e 63686661 		.ascii	"chfactory.h\000"
 2967      63746F72 
 2967      792E6800 
 2968 027a 06       		.uleb128 0x6
 2969 027b 00       		.uleb128 0
 2970 027c 00       		.uleb128 0
 2971 027d 6368696E 		.ascii	"chinstances.c\000"
 2971      7374616E 
 2971      6365732E 
 2971      6300
 2972 028b 08       		.uleb128 0x8
 2973 028c 00       		.uleb128 0
 2974 028d 00       		.uleb128 0
 2975 028e 63687674 		.ascii	"chvt.h\000"
 2975      2E6800
 2976 0295 07       		.uleb128 0x7
 2977 0296 00       		.uleb128 0
 2978 0297 00       		.uleb128 0
 2979 0298 6368636F 		.ascii	"chcore_timer.h\000"
 2979      72655F74 
 2979      696D6572 
 2979      2E6800
 2980 02a7 05       		.uleb128 0x5
 2981 02a8 00       		.uleb128 0
 2982 02a9 00       		.uleb128 0
 2983 02aa 00       		.byte	0
 2984              	.LELTP0:
 2985              	.LELT0:
 2986              		.section	.gnu.debuglto_.debug_str,"eMS",%progbits,1
 2987              	.LASF149:
 2988 0000 6F66665F 		.ascii	"off_ctx\000"
 2988      63747800 
 2989              	.LASF76:
 2990 0008 63685F64 		.ascii	"ch_delta_list_t\000"
ARM GAS  /tmp/ccvmwPLv.s 			page 55


 2990      656C7461 
 2990      5F6C6973 
 2990      745F7400 
 2991              	.LASF5:
 2992 0018 73697A65 		.ascii	"size_t\000"
 2992      5F7400
 2993              	.LASF148:
 2994 001f 6F66665F 		.ascii	"off_prio\000"
 2994      7072696F 
 2994      00
 2995              	.LASF119:
 2996 0028 77747365 		.ascii	"wtsemp\000"
 2996      6D7000
 2997              	.LASF64:
 2998 002f 73797374 		.ascii	"systime_t\000"
 2998      696D655F 
 2998      7400
 2999              	.LASF157:
 3000 0039 6F66665F 		.ascii	"off_preempt\000"
 3000      70726565 
 3000      6D707400 
 3001              	.LASF134:
 3002 0045 696E7374 		.ascii	"instances\000"
 3002      616E6365 
 3002      7300
 3003              	.LASF31:
 3004 004f 6F776E65 		.ascii	"owner\000"
 3004      7200
 3005              	.LASF23:
 3006 0055 74707269 		.ascii	"tprio_t\000"
 3006      6F5F7400 
 3007              	.LASF175:
 3008 005d 63685F64 		.ascii	"ch_debug\000"
 3008      65627567 
 3008      00
 3009              	.LASF186:
 3010 0066 70726F76 		.ascii	"provider\000"
 3010      69646572 
 3010      00
 3011              	.LASF82:
 3012 006f 75736572 		.ascii	"user\000"
 3012      00
 3013              	.LASF6:
 3014 0074 696E7433 		.ascii	"int32_t\000"
 3014      325F7400 
 3015              	.LASF164:
 3016 007c 6F66665F 		.ascii	"off_sys_instances\000"
 3016      7379735F 
 3016      696E7374 
 3016      616E6365 
 3016      7300
 3017              	.LASF213:
 3018 008e 63685F70 		.ascii	"ch_pqueue_init\000"
 3018      71756575 
 3018      655F696E 
 3018      697400
 3019              	.LASF104:
ARM GAS  /tmp/ccvmwPLv.s 			page 56


 3020 009d 63685F76 		.ascii	"ch_virtual_timers_list\000"
 3020      69727475 
 3020      616C5F74 
 3020      696D6572 
 3020      735F6C69 
 3021              	.LASF111:
 3022 00b4 72656769 		.ascii	"registry_t\000"
 3022      73747279 
 3022      5F7400
 3023              	.LASF222:
 3024 00bf 5F5F6675 		.ascii	"__func__\000"
 3024      6E635F5F 
 3024      00
 3025              	.LASF188:
 3026 00c8 63685F64 		.ascii	"ch_dyn_element\000"
 3026      796E5F65 
 3026      6C656D65 
 3026      6E7400
 3027              	.LASF84:
 3028 00d7 72747374 		.ascii	"rtstamp\000"
 3028      616D7000 
 3029              	.LASF167:
 3030 00df 6F66665F 		.ascii	"off_sys_reserved\000"
 3030      7379735F 
 3030      72657365 
 3030      72766564 
 3030      00
 3031              	.LASF51:
 3032 00f0 636F6E66 		.ascii	"config\000"
 3032      696700
 3033              	.LASF34:
 3034 00f7 73746174 		.ascii	"state\000"
 3034      6500
 3035              	.LASF61:
 3036 00fd 6C6F636B 		.ascii	"lock_cnt\000"
 3036      5F636E74 
 3036      00
 3037              	.LASF204:
 3038 0106 69646C65 		.ascii	"idle_descriptor\000"
 3038      5F646573 
 3038      63726970 
 3038      746F7200 
 3039              	.LASF55:
 3040 0116 63685F72 		.ascii	"ch_rfcu\000"
 3040      66637500 
 3041              	.LASF162:
 3042 011e 696E7374 		.ascii	"instancesnum\000"
 3042      616E6365 
 3042      736E756D 
 3042      00
 3043              	.LASF83:
 3044 012b 74797065 		.ascii	"type\000"
 3044      00
 3045              	.LASF193:
 3046 0130 6F626A5F 		.ascii	"obj_list\000"
 3046      6C697374 
 3046      00
ARM GAS  /tmp/ccvmwPLv.s 			page 57


 3047              	.LASF103:
 3048 0139 73797374 		.ascii	"system_state_t\000"
 3048      656D5F73 
 3048      74617465 
 3048      5F7400
 3049              	.LASF151:
 3050 0148 6F66665F 		.ascii	"off_older\000"
 3050      6F6C6465 
 3050      7200
 3051              	.LASF109:
 3052 0152 63685F72 		.ascii	"ch_registry\000"
 3052      65676973 
 3052      74727900 
 3053              	.LASF75:
 3054 015e 7072696F 		.ascii	"prio\000"
 3054      00
 3055              	.LASF116:
 3056 0163 65786974 		.ascii	"exitcode\000"
 3056      636F6465 
 3056      00
 3057              	.LASF170:
 3058 016c 6F66665F 		.ascii	"off_inst_vtlist\000"
 3058      696E7374 
 3058      5F76746C 
 3058      69737400 
 3059              	.LASF7:
 3060 017c 6C6F6E67 		.ascii	"long int\000"
 3060      20696E74 
 3060      00
 3061              	.LASF143:
 3062 0185 7A65726F 		.ascii	"zero\000"
 3062      00
 3063              	.LASF128:
 3064 018a 6D61696E 		.ascii	"mainthread_base\000"
 3064      74687265 
 3064      61645F62 
 3064      61736500 
 3065              	.LASF21:
 3066 019a 74737461 		.ascii	"tstate_t\000"
 3066      74655F74 
 3066      00
 3067              	.LASF39:
 3068 01a3 6570656E 		.ascii	"epending\000"
 3068      64696E67 
 3068      00
 3069              	.LASF67:
 3070 01ac 63685F6C 		.ascii	"ch_list_t\000"
 3070      6973745F 
 3070      7400
 3071              	.LASF68:
 3072 01b6 63685F6C 		.ascii	"ch_list\000"
 3072      69737400 
 3073              	.LASF107:
 3074 01be 6C617374 		.ascii	"laststamp\000"
 3074      7374616D 
 3074      7000
 3075              	.LASF194:
ARM GAS  /tmp/ccvmwPLv.s 			page 58


 3076 01c8 6F626A5F 		.ascii	"obj_pool\000"
 3076      706F6F6C 
 3076      00
 3077              	.LASF220:
 3078 01d1 2F686F6D 		.ascii	"/home/ubuntu/Raka/New/ChibiOS_21.11.2/testhal/STM32"
 3078      652F7562 
 3078      756E7475 
 3078      2F52616B 
 3078      612F4E65 
 3079 0204 2F53544D 		.ascii	"/STM32F3xx/ADC\000"
 3079      33324633 
 3079      78782F41 
 3079      444300
 3080              	.LASF66:
 3081 0213 73797374 		.ascii	"systimestamp_t\000"
 3081      696D6573 
 3081      74616D70 
 3081      5F7400
 3082              	.LASF181:
 3083 0222 6D656D63 		.ascii	"memcore_t\000"
 3083      6F72655F 
 3083      7400
 3084              	.LASF3:
 3085 022c 7369676E 		.ascii	"signed char\000"
 3085      65642063 
 3085      68617200 
 3086              	.LASF121:
 3087 0238 65776D61 		.ascii	"ewmask\000"
 3087      736B00
 3088              	.LASF8:
 3089 023f 75696E74 		.ascii	"uint8_t\000"
 3089      385F7400 
 3090              	.LASF28:
 3091 0247 636F7265 		.ascii	"core_id_t\000"
 3091      5F69645F 
 3091      7400
 3092              	.LASF25:
 3093 0251 6576656E 		.ascii	"eventmask_t\000"
 3093      746D6173 
 3093      6B5F7400 
 3094              	.LASF117:
 3095 025d 77747472 		.ascii	"wttrp\000"
 3095      7000
 3096              	.LASF9:
 3097 0263 756E7369 		.ascii	"unsigned char\000"
 3097      676E6564 
 3097      20636861 
 3097      7200
 3098              	.LASF106:
 3099 0271 6C617374 		.ascii	"lasttime\000"
 3099      74696D65 
 3099      00
 3100              	.LASF59:
 3101 027a 70616E69 		.ascii	"panic_msg\000"
 3101      635F6D73 
 3101      6700
 3102              	.LASF53:
ARM GAS  /tmp/ccvmwPLv.s 			page 59


 3103 0284 74726163 		.ascii	"trace_buffer\000"
 3103      655F6275 
 3103      66666572 
 3103      00
 3104              	.LASF63:
 3105 0291 73797374 		.ascii	"system_debug_t\000"
 3105      656D5F64 
 3105      65627567 
 3105      5F7400
 3106              	.LASF177:
 3107 02a0 5F426F6F 		.ascii	"_Bool\000"
 3107      6C00
 3108              	.LASF172:
 3109 02a6 6F66665F 		.ascii	"off_inst_core_id\000"
 3109      696E7374 
 3109      5F636F72 
 3109      655F6964 
 3109      00
 3110              	.LASF62:
 3111 02b7 63686172 		.ascii	"char\000"
 3111      00
 3112              	.LASF215:
 3113 02bc 5F5F6462 		.ascii	"__dbg_object_init\000"
 3113      675F6F62 
 3113      6A656374 
 3113      5F696E69 
 3113      7400
 3114              	.LASF196:
 3115 02ce 73656D5F 		.ascii	"sem_list\000"
 3115      6C697374 
 3115      00
 3116              	.LASF161:
 3117 02d7 696E7465 		.ascii	"intervalsize\000"
 3117      7276616C 
 3117      73697A65 
 3117      00
 3118              	.LASF79:
 3119 02e4 77746F62 		.ascii	"wtobjp\000"
 3119      6A7000
 3120              	.LASF156:
 3121 02eb 6F66665F 		.ascii	"off_refs\000"
 3121      72656673 
 3121      00
 3122              	.LASF35:
 3123 02f4 666C6167 		.ascii	"flags\000"
 3123      7300
 3124              	.LASF19:
 3125 02fa 73746B61 		.ascii	"stkalign_t\000"
 3125      6C69676E 
 3125      5F7400
 3126              	.LASF49:
 3127 0305 636F7265 		.ascii	"core_id\000"
 3127      5F696400 
 3128              	.LASF221:
 3129 030d 6368496E 		.ascii	"chInstanceObjectInit\000"
 3129      7374616E 
 3129      63654F62 
ARM GAS  /tmp/ccvmwPLv.s 			page 60


 3129      6A656374 
 3129      496E6974 
 3130              	.LASF42:
 3131 0322 6D706F6F 		.ascii	"mpool\000"
 3131      6C00
 3132              	.LASF129:
 3133 0328 6D61696E 		.ascii	"mainthread_end\000"
 3133      74687265 
 3133      61645F65 
 3133      6E6400
 3134              	.LASF138:
 3135 0337 77626173 		.ascii	"wbase\000"
 3135      6500
 3136              	.LASF145:
 3137 033d 70747273 		.ascii	"ptrsize\000"
 3137      697A6500 
 3138              	.LASF210:
 3139 0345 706F7274 		.ascii	"port_timer_get_time\000"
 3139      5F74696D 
 3139      65725F67 
 3139      65745F74 
 3139      696D6500 
 3140              	.LASF140:
 3141 0359 66756E63 		.ascii	"funcp\000"
 3141      7000
 3142              	.LASF30:
 3143 035f 72717565 		.ascii	"rqueue\000"
 3143      756500
 3144              	.LASF158:
 3145 0366 6F66665F 		.ascii	"off_time\000"
 3145      74696D65 
 3145      00
 3146              	.LASF26:
 3147 036f 636E745F 		.ascii	"cnt_t\000"
 3147      7400
 3148              	.LASF200:
 3149 0375 70697065 		.ascii	"pipe_list\000"
 3149      5F6C6973 
 3149      7400
 3150              	.LASF89:
 3151 037f 62756666 		.ascii	"buffer\000"
 3151      657200
 3152              	.LASF120:
 3153 0386 77746D74 		.ascii	"wtmtxp\000"
 3153      787000
 3154              	.LASF124:
 3155 038d 63685F72 		.ascii	"ch_ready_list\000"
 3155      65616479 
 3155      5F6C6973 
 3155      7400
 3156              	.LASF45:
 3157 039b 63685F6F 		.ascii	"ch_os_instance\000"
 3157      735F696E 
 3157      7374616E 
 3157      636500
 3158              	.LASF197:
 3159 03aa 73656D5F 		.ascii	"sem_pool\000"
ARM GAS  /tmp/ccvmwPLv.s 			page 61


 3159      706F6F6C 
 3159      00
 3160              	.LASF154:
 3161 03b3 6F66665F 		.ascii	"off_state\000"
 3161      73746174 
 3161      6500
 3162              	.LASF13:
 3163 03bd 6C6F6E67 		.ascii	"long unsigned int\000"
 3163      20756E73 
 3163      69676E65 
 3163      6420696E 
 3163      7400
 3164              	.LASF70:
 3165 03cf 63685F71 		.ascii	"ch_queue_t\000"
 3165      75657565 
 3165      5F7400
 3166              	.LASF147:
 3167 03da 74687265 		.ascii	"threadsize\000"
 3167      61647369 
 3167      7A6500
 3168              	.LASF54:
 3169 03e5 72666375 		.ascii	"rfcu_mask_t\000"
 3169      5F6D6173 
 3169      6B5F7400 
 3170              	.LASF205:
 3171 03f1 5F5F6964 		.ascii	"__idle_thread\000"
 3171      6C655F74 
 3171      68726561 
 3171      6400
 3172              	.LASF92:
 3173 03ff 53797374 		.ascii	"SystemCoreClock\000"
 3173      656D436F 
 3173      7265436C 
 3173      6F636B00 
 3174              	.LASF122:
 3175 040f 63685F73 		.ascii	"ch_semaphore\000"
 3175      656D6170 
 3175      686F7265 
 3175      00
 3176              	.LASF44:
 3177 041c 63685F74 		.ascii	"ch_thread\000"
 3177      68726561 
 3177      6400
 3178              	.LASF108:
 3179 0426 76697274 		.ascii	"virtual_timers_list_t\000"
 3179      75616C5F 
 3179      74696D65 
 3179      72735F6C 
 3179      6973745F 
 3180              	.LASF199:
 3181 043c 6669666F 		.ascii	"fifo_list\000"
 3181      5F6C6973 
 3181      7400
 3182              	.LASF126:
 3183 0446 72656164 		.ascii	"ready_list_t\000"
 3183      795F6C69 
 3183      73745F74 
ARM GAS  /tmp/ccvmwPLv.s 			page 62


 3183      00
 3184              	.LASF180:
 3185 0453 746F706D 		.ascii	"topmem\000"
 3185      656D00
 3186              	.LASF41:
 3187 045a 7265616C 		.ascii	"realprio\000"
 3187      7072696F 
 3187      00
 3188              	.LASF27:
 3189 0463 75636E74 		.ascii	"ucnt_t\000"
 3189      5F7400
 3190              	.LASF153:
 3191 046a 6F66665F 		.ascii	"off_stklimit\000"
 3191      73746B6C 
 3191      696D6974 
 3191      00
 3192              	.LASF183:
 3193 0477 706F6F6C 		.ascii	"pool_header\000"
 3193      5F686561 
 3193      64657200 
 3194              	.LASF57:
 3195 0483 72666375 		.ascii	"rfcu_t\000"
 3195      5F7400
 3196              	.LASF90:
 3197 048a 74726163 		.ascii	"trace_buffer_t\000"
 3197      655F6275 
 3197      66666572 
 3197      5F7400
 3198              	.LASF40:
 3199 0499 6D74786C 		.ascii	"mtxlist\000"
 3199      69737400 
 3200              	.LASF136:
 3201 04a1 63685F63 		.ascii	"ch_core0_cfg\000"
 3201      6F726530 
 3201      5F636667 
 3201      00
 3202              	.LASF1:
 3203 04ae 6C6F6E67 		.ascii	"long long int\000"
 3203      206C6F6E 
 3203      6720696E 
 3203      7400
 3204              	.LASF65:
 3205 04bc 73797369 		.ascii	"sysinterval_t\000"
 3205      6E746572 
 3205      76616C5F 
 3205      7400
 3206              	.LASF192:
 3207 04ca 63685F6F 		.ascii	"ch_objects_factory\000"
 3207      626A6563 
 3207      74735F66 
 3207      6163746F 
 3207      727900
 3208              	.LASF139:
 3209 04dd 77656E64 		.ascii	"wend\000"
 3209      00
 3210              	.LASF73:
 3211 04e2 63685F70 		.ascii	"ch_priority_queue_t\000"
ARM GAS  /tmp/ccvmwPLv.s 			page 63


 3211      72696F72 
 3211      6974795F 
 3211      71756575 
 3211      655F7400 
 3212              	.LASF99:
 3213 04f6 63685F73 		.ascii	"ch_sys_uninit\000"
 3213      79735F75 
 3213      6E696E69 
 3213      7400
 3214              	.LASF56:
 3215 0504 6D61736B 		.ascii	"mask\000"
 3215      00
 3216              	.LASF141:
 3217 0509 74687265 		.ascii	"thread_descriptor_t\000"
 3217      61645F64 
 3217      65736372 
 3217      6970746F 
 3217      725F7400 
 3218              	.LASF185:
 3219 051d 616C6967 		.ascii	"align\000"
 3219      6E00
 3220              	.LASF169:
 3221 0523 6F66665F 		.ascii	"off_inst_rlist\000"
 3221      696E7374 
 3221      5F726C69 
 3221      737400
 3222              	.LASF91:
 3223 0532 49544D5F 		.ascii	"ITM_RxBuffer\000"
 3223      52784275 
 3223      66666572 
 3223      00
 3224              	.LASF137:
 3225 053f 7466756E 		.ascii	"tfunc_t\000"
 3225      635F7400 
 3226              	.LASF101:
 3227 0547 63685F73 		.ascii	"ch_sys_running\000"
 3227      79735F72 
 3227      756E6E69 
 3227      6E6700
 3228              	.LASF150:
 3229 0556 6F66665F 		.ascii	"off_newer\000"
 3229      6E657765 
 3229      7200
 3230              	.LASF16:
 3231 0560 706F7274 		.ascii	"port_rtcnt_t\000"
 3231      5F727463 
 3231      6E745F74 
 3231      00
 3232              	.LASF0:
 3233 056d 756E7369 		.ascii	"unsigned int\000"
 3233      676E6564 
 3233      20696E74 
 3233      00
 3234              	.LASF166:
 3235 057a 6F66665F 		.ascii	"off_sys_rfcu\000"
 3235      7379735F 
 3235      72666375 
ARM GAS  /tmp/ccvmwPLv.s 			page 64


 3235      00
 3236              	.LASF18:
 3237 0587 7274636E 		.ascii	"rtcnt_t\000"
 3237      745F7400 
 3238              	.LASF43:
 3239 058f 6F735F69 		.ascii	"os_instance_t\000"
 3239      6E737461 
 3239      6E63655F 
 3239      7400
 3240              	.LASF100:
 3241 059d 63685F73 		.ascii	"ch_sys_initializing\000"
 3241      79735F69 
 3241      6E697469 
 3241      616C697A 
 3241      696E6700 
 3242              	.LASF203:
 3243 05b1 6F696370 		.ascii	"oicp\000"
 3243      00
 3244              	.LASF217:
 3245 05b6 72666375 		.ascii	"rfcup\000"
 3245      7000
 3246              	.LASF125:
 3247 05bc 63757272 		.ascii	"current\000"
 3247      656E7400 
 3248              	.LASF97:
 3249 05c4 6F666673 		.ascii	"offset\000"
 3249      657400
 3250              	.LASF113:
 3251 05cb 6C697374 		.ascii	"list\000"
 3251      00
 3252              	.LASF77:
 3253 05d0 63685F64 		.ascii	"ch_delta_list\000"
 3253      656C7461 
 3253      5F6C6973 
 3253      7400
 3254              	.LASF105:
 3255 05de 646C6973 		.ascii	"dlist\000"
 3255      7400
 3256              	.LASF178:
 3257 05e4 6D656D67 		.ascii	"memgetfunc_t\000"
 3257      65746675 
 3257      6E635F74 
 3257      00
 3258              	.LASF159:
 3259 05f1 6F66665F 		.ascii	"off_reserved\000"
 3259      72657365 
 3259      72766564 
 3259      00
 3260              	.LASF29:
 3261 05fe 74687265 		.ascii	"thread_t\000"
 3261      61645F74 
 3261      00
 3262              	.LASF131:
 3263 0607 69646C65 		.ascii	"idlethread_end\000"
 3263      74687265 
 3263      61645F65 
 3263      6E6400
ARM GAS  /tmp/ccvmwPLv.s 			page 65


 3264              	.LASF2:
 3265 0616 6C6F6E67 		.ascii	"long double\000"
 3265      20646F75 
 3265      626C6500 
 3266              	.LASF112:
 3267 0622 74687265 		.ascii	"thread_reference_t\000"
 3267      61645F72 
 3267      65666572 
 3267      656E6365 
 3267      5F7400
 3268              	.LASF209:
 3269 0635 63685654 		.ascii	"chVTGetSystemTimeX\000"
 3269      47657453 
 3269      79737465 
 3269      6D54696D 
 3269      655800
 3270              	.LASF86:
 3271 0648 74726163 		.ascii	"trace_event_t\000"
 3271      655F6576 
 3271      656E745F 
 3271      7400
 3272              	.LASF118:
 3273 0656 73656E74 		.ascii	"sentmsg\000"
 3273      6D736700 
 3274              	.LASF95:
 3275 065e 706F7274 		.ascii	"port_intctx\000"
 3275      5F696E74 
 3275      63747800 
 3276              	.LASF201:
 3277 066a 6F626A65 		.ascii	"objects_factory_t\000"
 3277      6374735F 
 3277      66616374 
 3277      6F72795F 
 3277      7400
 3278              	.LASF195:
 3279 067c 6275665F 		.ascii	"buf_list\000"
 3279      6C697374 
 3279      00
 3280              	.LASF60:
 3281 0685 6973725F 		.ascii	"isr_cnt\000"
 3281      636E7400 
 3282              	.LASF93:
 3283 068d 41484250 		.ascii	"AHBPrescTable\000"
 3283      72657363 
 3283      5461626C 
 3283      6500
 3284              	.LASF88:
 3285 069b 73697A65 		.ascii	"size\000"
 3285      00
 3286              	.LASF15:
 3287 06a0 6C6F6E67 		.ascii	"long long unsigned int\000"
 3287      206C6F6E 
 3287      6720756E 
 3287      7369676E 
 3287      65642069 
 3288              	.LASF10:
 3289 06b7 75696E74 		.ascii	"uint16_t\000"
ARM GAS  /tmp/ccvmwPLv.s 			page 66


 3289      31365F74 
 3289      00
 3290              	.LASF152:
 3291 06c0 6F66665F 		.ascii	"off_name\000"
 3291      6E616D65 
 3291      00
 3292              	.LASF219:
 3293 06c9 2E2E2F2E 		.ascii	"../../../../os/rt/src/chinstances.c\000"
 3293      2E2F2E2E 
 3293      2F2E2E2F 
 3293      6F732F72 
 3293      742F7372 
 3294              	.LASF24:
 3295 06ed 6D73675F 		.ascii	"msg_t\000"
 3295      7400
 3296              	.LASF78:
 3297 06f3 64656C74 		.ascii	"delta\000"
 3297      6100
 3298              	.LASF17:
 3299 06f9 706F7274 		.ascii	"port_stkalign_t\000"
 3299      5F73746B 
 3299      616C6967 
 3299      6E5F7400 
 3300              	.LASF223:
 3301 0709 706F7274 		.ascii	"port_wait_for_interrupt\000"
 3301      5F776169 
 3301      745F666F 
 3301      725F696E 
 3301      74657272 
 3302              	.LASF207:
 3303 0721 5F5F7674 		.ascii	"__vt_object_init\000"
 3303      5F6F626A 
 3303      6563745F 
 3303      696E6974 
 3303      00
 3304              	.LASF36:
 3305 0732 72656673 		.ascii	"refs\000"
 3305      00
 3306              	.LASF110:
 3307 0737 71756575 		.ascii	"queue\000"
 3307      6500
 3308              	.LASF80:
 3309 073d 72656173 		.ascii	"reason\000"
 3309      6F6E00
 3310              	.LASF202:
 3311 0744 63685F66 		.ascii	"ch_factory\000"
 3311      6163746F 
 3311      727900
 3312              	.LASF198:
 3313 074f 6D62785F 		.ascii	"mbx_list\000"
 3313      6C697374 
 3313      00
 3314              	.LASF52:
 3315 0758 6D61696E 		.ascii	"mainthread\000"
 3315      74687265 
 3315      616400
 3316              	.LASF144:
ARM GAS  /tmp/ccvmwPLv.s 			page 67


 3317 0763 76657273 		.ascii	"version\000"
 3317      696F6E00 
 3318              	.LASF81:
 3319 076b 68616C74 		.ascii	"halt\000"
 3319      00
 3320              	.LASF33:
 3321 0770 77616261 		.ascii	"wabase\000"
 3321      736500
 3322              	.LASF187:
 3323 0777 6D656D6F 		.ascii	"memory_pool_t\000"
 3323      72795F70 
 3323      6F6F6C5F 
 3323      7400
 3324              	.LASF160:
 3325 0785 696E7463 		.ascii	"intctxsize\000"
 3325      74787369 
 3325      7A6500
 3326              	.LASF85:
 3327 0790 74696D65 		.ascii	"time\000"
 3327      00
 3328              	.LASF173:
 3329 0795 6F66665F 		.ascii	"off_inst_rfcu\000"
 3329      696E7374 
 3329      5F726663 
 3329      7500
 3330              	.LASF46:
 3331 07a3 726C6973 		.ascii	"rlist\000"
 3331      7400
 3332              	.LASF20:
 3333 07a9 746D6F64 		.ascii	"tmode_t\000"
 3333      655F7400 
 3334              	.LASF165:
 3335 07b1 6F66665F 		.ascii	"off_sys_reglist\000"
 3335      7379735F 
 3335      7265676C 
 3335      69737400 
 3336              	.LASF114:
 3337 07c1 70717565 		.ascii	"pqueue\000"
 3337      756500
 3338              	.LASF87:
 3339 07c8 73757370 		.ascii	"suspended\000"
 3339      656E6465 
 3339      6400
 3340              	.LASF98:
 3341 07d2 746D5F63 		.ascii	"tm_calibration_t\000"
 3341      616C6962 
 3341      72617469 
 3341      6F6E5F74 
 3341      00
 3342              	.LASF171:
 3343 07e3 6F66665F 		.ascii	"off_inst_reglist\000"
 3343      696E7374 
 3343      5F726567 
 3343      6C697374 
 3343      00
 3344              	.LASF32:
 3345 07f4 6E616D65 		.ascii	"name\000"
ARM GAS  /tmp/ccvmwPLv.s 			page 68


 3345      00
 3346              	.LASF94:
 3347 07f9 41504250 		.ascii	"APBPrescTable\000"
 3347      72657363 
 3347      5461626C 
 3347      6500
 3348              	.LASF212:
 3349 0807 646C6870 		.ascii	"dlhp\000"
 3349      00
 3350              	.LASF127:
 3351 080c 63685F6F 		.ascii	"ch_os_instance_config\000"
 3351      735F696E 
 3351      7374616E 
 3351      63655F63 
 3351      6F6E6669 
 3352              	.LASF4:
 3353 0822 73686F72 		.ascii	"short int\000"
 3353      7420696E 
 3353      7400
 3354              	.LASF132:
 3355 082c 6F735F69 		.ascii	"os_instance_config_t\000"
 3355      6E737461 
 3355      6E63655F 
 3355      636F6E66 
 3355      69675F74 
 3356              	.LASF102:
 3357 0841 63685F73 		.ascii	"ch_sys_halted\000"
 3357      79735F68 
 3357      616C7465 
 3357      6400
 3358              	.LASF74:
 3359 084f 63685F70 		.ascii	"ch_priority_queue\000"
 3359      72696F72 
 3359      6974795F 
 3359      71756575 
 3359      6500
 3360              	.LASF14:
 3361 0861 75696E74 		.ascii	"uint64_t\000"
 3361      36345F74 
 3361      00
 3362              	.LASF123:
 3363 086a 63685F6D 		.ascii	"ch_mutex\000"
 3363      75746578 
 3363      00
 3364              	.LASF50:
 3365 0873 72666375 		.ascii	"rfcu\000"
 3365      00
 3366              	.LASF38:
 3367 0878 6D736771 		.ascii	"msgqueue\000"
 3367      75657565 
 3367      00
 3368              	.LASF58:
 3369 0881 63685F73 		.ascii	"ch_system_debug\000"
 3369      79737465 
 3369      6D5F6465 
 3369      62756700 
 3370              	.LASF191:
ARM GAS  /tmp/ccvmwPLv.s 			page 69


 3371 0891 64796E5F 		.ascii	"dyn_list_t\000"
 3371      6C697374 
 3371      5F7400
 3372              	.LASF48:
 3373 089c 7265676C 		.ascii	"reglist\000"
 3373      69737400 
 3374              	.LASF71:
 3375 08a4 63685F71 		.ascii	"ch_queue\000"
 3375      75657565 
 3375      00
 3376              	.LASF206:
 3377 08ad 5F5F7265 		.ascii	"__reg_object_init\000"
 3377      675F6F62 
 3377      6A656374 
 3377      5F696E69 
 3377      7400
 3378              	.LASF184:
 3379 08bf 6F626A65 		.ascii	"object_size\000"
 3379      63745F73 
 3379      697A6500 
 3380              	.LASF47:
 3381 08cb 76746C69 		.ascii	"vtlist\000"
 3381      737400
 3382              	.LASF37:
 3383 08d2 77616974 		.ascii	"waiting\000"
 3383      696E6700 
 3384              	.LASF168:
 3385 08da 6F66665F 		.ascii	"off_inst_rlist_current\000"
 3385      696E7374 
 3385      5F726C69 
 3385      73745F63 
 3385      75727265 
 3386              	.LASF189:
 3387 08f1 64796E5F 		.ascii	"dyn_element_t\000"
 3387      656C656D 
 3387      656E745F 
 3387      7400
 3388              	.LASF176:
 3389 08ff 6D757465 		.ascii	"mutex_t\000"
 3389      785F7400 
 3390              	.LASF22:
 3391 0907 74726566 		.ascii	"trefs_t\000"
 3391      735F7400 
 3392              	.LASF179:
 3393 090f 62617365 		.ascii	"basemem\000"
 3393      6D656D00 
 3394              	.LASF163:
 3395 0917 6F66665F 		.ascii	"off_sys_state\000"
 3395      7379735F 
 3395      73746174 
 3395      6500
 3396              	.LASF96:
 3397 0925 706F7274 		.ascii	"port_context\000"
 3397      5F636F6E 
 3397      74657874 
 3397      00
 3398              	.LASF218:
ARM GAS  /tmp/ccvmwPLv.s 			page 70


 3399 0932 474E5520 		.ascii	"GNU C17 9.2.1 20191025 (release) [ARM/arm-9-branch "
 3399      43313720 
 3399      392E322E 
 3399      31203230 
 3399      31393130 
 3400 0965 72657669 		.ascii	"revision 277599] -mcpu=cortex-m4 -mthumb -mfloat-ab"
 3400      73696F6E 
 3400      20323737 
 3400      3539395D 
 3400      202D6D63 
 3401 0998 693D736F 		.ascii	"i=soft -march=armv7e-m -ggdb -O2 -fomit-frame-point"
 3401      6674202D 
 3401      6D617263 
 3401      683D6172 
 3401      6D763765 
 3402 09cb 6572202D 		.ascii	"er -falign-functions=16 -ffunction-sections -fdata-"
 3402      66616C69 
 3402      676E2D66 
 3402      756E6374 
 3402      696F6E73 
 3403 09fe 73656374 		.ascii	"sections -fno-common -flto\000"
 3403      696F6E73 
 3403      202D666E 
 3403      6F2D636F 
 3403      6D6D6F6E 
 3404              	.LASF133:
 3405 0a19 63685F73 		.ascii	"ch_system\000"
 3405      79737465 
 3405      6D00
 3406              	.LASF12:
 3407 0a23 75696E74 		.ascii	"uint32_t\000"
 3407      33325F74 
 3407      00
 3408              	.LASF211:
 3409 0a2c 63685F64 		.ascii	"ch_dlist_init\000"
 3409      6C697374 
 3409      5F696E69 
 3409      7400
 3410              	.LASF115:
 3411 0a3a 7264796D 		.ascii	"rdymsg\000"
 3411      736700
 3412              	.LASF11:
 3413 0a41 73686F72 		.ascii	"short unsigned int\000"
 3413      7420756E 
 3413      7369676E 
 3413      65642069 
 3413      6E7400
 3414              	.LASF135:
 3415 0a54 63685F73 		.ascii	"ch_system_t\000"
 3415      79737465 
 3415      6D5F7400 
 3416              	.LASF174:
 3417 0a60 63686465 		.ascii	"chdebug_t\000"
 3417      6275675F 
 3417      7400
 3418              	.LASF146:
 3419 0a6a 74696D65 		.ascii	"timesize\000"
ARM GAS  /tmp/ccvmwPLv.s 			page 71


 3419      73697A65 
 3419      00
 3420              	.LASF130:
 3421 0a73 69646C65 		.ascii	"idlethread_base\000"
 3421      74687265 
 3421      61645F62 
 3421      61736500 
 3422              	.LASF214:
 3423 0a83 63685F71 		.ascii	"ch_queue_init\000"
 3423      75657565 
 3423      5F696E69 
 3423      7400
 3424              	.LASF182:
 3425 0a91 63685F6D 		.ascii	"ch_memcore\000"
 3425      656D636F 
 3425      726500
 3426              	.LASF155:
 3427 0a9c 6F66665F 		.ascii	"off_flags\000"
 3427      666C6167 
 3427      7300
 3428              	.LASF208:
 3429 0aa6 76746C70 		.ascii	"vtlp\000"
 3429      00
 3430              	.LASF69:
 3431 0aab 6E657874 		.ascii	"next\000"
 3431      00
 3432              	.LASF72:
 3433 0ab0 70726576 		.ascii	"prev\000"
 3433      00
 3434              	.LASF190:
 3435 0ab5 63685F64 		.ascii	"ch_dyn_list\000"
 3435      796E5F6C 
 3435      69737400 
 3436              	.LASF142:
 3437 0ac1 6964656E 		.ascii	"identifier\000"
 3437      74696669 
 3437      657200
 3438              	.LASF216:
 3439 0acc 5F5F7266 		.ascii	"__rfcu_object_init\000"
 3439      63755F6F 
 3439      626A6563 
 3439      745F696E 
 3439      697400
 3440              		.text
 3441              		.section	.gnu.lto_.profile.404201571b56b101,"e",%progbits
 3442 0000 789CE360 		.ascii	"x\234\343``\004B \000\000\000]\000\013"
 3442      60044220 
 3442      0000005D 
 3442      000B
 3443              		.text
 3444              		.section	.gnu.lto_.icf.404201571b56b101,"e",%progbits
 3445 0000 789CE360 		.ascii	"x\234\343``d\020f@\000f\206\256\356\375\347Y\030?\315"
 3445      60641066 
 3445      40006686 
 3445      AEEEFDE7 
 3445      59183FCD 
 3446 0014 3FBE8C9F 		.ascii	"?\276\214\237y\356\3626^\006\000Q\036\007\257"
ARM GAS  /tmp/ccvmwPLv.s 			page 72


 3446      79EEF236 
 3446      5E060051 
 3446      1E07AF
 3447              		.text
 3448              		.section	.gnu.lto_.jmpfuncs.404201571b56b101,"e",%progbits
 3449 0000 789C754F 		.ascii	"x\234uO;\016\302P\014\213\343GU\246\036\240\307\343"
 3449      3B0EC250 
 3449      0C8BE347 
 3449      55A61EA0 
 3449      C7E3
 3450 0012 1E508915 		.ascii	"\036P\211\025ue`\350\300\314\005\370\211\215\201\245"
 3450      756560E8 
 3450      C0CC05F8 
 3450      898D81A5 
 3451 0022 03336263 		.ascii	"\0033bcB\275\000\342\221WD+J\211\224!\216\035;\261@"
 3451      42BD00E2 
 3451      9157442B 
 3451      4A899421 
 3451      8E1D3BB1 
 3452 0037 4690A654 		.ascii	"F\220\246T`SA\201\002\234\024\204\265\252\010\016\016"
 3452      60534181 
 3452      029C1484 
 3452      B5AA080E 
 3452      0E
 3453 0048 62FDF0DE 		.ascii	"b\375\360\336'\340\234\310\247\325%\316Y\220\020\254"
 3453      27E09CC8 
 3453      A7D525CE 
 3453      599010AC 
 3454 0058 9186762D 		.ascii	"\221\206v-\321\007\242t\347\330\215\177\260\350\312"
 3454      D107A274 
 3454      E7D88D7F 
 3454      B0E8CA
 3455 0067 2E067E2E 		.ascii	".\006~.r\311v\367\374\336\251\245X\371\333\"\011)\034"
 3455      72C976F7 
 3455      FCDEA9A5 
 3455      58F9DB22 
 3455      09291C
 3456 007a 326083B4 		.ascii	"2`\203\264&g\265B4\312\206\377O\213\366\204Q3D\367\333"
 3456      2667B542 
 3456      34CA86FF 
 3456      4F8BF684 
 3456      513344F7 
 3457 008f 9EF780E0 		.ascii	"\236\367\200\340~\254\356g\004\367\201i\266H\015\332"
 3457      7EACEE67 
 3457      04F78169 
 3457      B6480DDA 
 3458 009f CFCA13DF 		.ascii	"\317\312\023\337\020\260\263\220\001od\346\367\002f"
 3458      10B0B390 
 3458      016F64E6 
 3458      F70266
 3459 00ae F55EE1   		.ascii	"\365^\341"
 3460              		.text
 3461              		.section	.gnu.lto_.inline.404201571b56b101,"e",%progbits
 3462 0000 789CE360 		.ascii	"x\234\343``d\230\300\200\000L \324\330\320\320P\307"
 3462      606498C0 
 3462      80004C20 
 3462      D4D8D0D0 
ARM GAS  /tmp/ccvmwPLv.s 			page 73


 3462      50C7
 3463 0012 08628359 		.ascii	"\010b\203Y\014\014,\020\006\023H\210\201\201Q\302\374"
 3463      0C0C2C10 
 3463      06134888 
 3463      818151C2 
 3463      FC
 3464 0023 ECCCCD6B 		.ascii	"\354\314\315k\2303\031\031\031\024\030\201\032t\201"
 3464      98331919 
 3464      19141881 
 3464      1A7481
 3465 0032 922F98D2 		.ascii	"\222/\230\322\031\030\244\201\214\011\314iPuL\334 \305"
 3465      1918A481 
 3465      8C09CC69 
 3465      50754CDC 
 3465      20C5
 3466 0044 0CCC3C20 		.ascii	"\014\314< \366\004\277\011~l\374@\026\013\210\005\223"
 3466      F604BF09 
 3466      7E6CFC40 
 3466      160B8805 
 3466      93
 3467 0055 9CE007A6 		.ascii	"\234\340\007\246Qy\214P\247\200\224\001\000VU\027\345"
 3467      51798C50 
 3467      A7809401 
 3467      00565517 
 3467      E5
 3468              		.text
 3469              		.section	.gnu.lto_.pureconst.404201571b56b101,"e",%progbits
 3470 0000 789CE360 		.ascii	"x\234\343``d`g```b\330\300\3028\213\005\000\005\252"
 3470      60646067 
 3470      60606062 
 3470      D8C0C238 
 3470      8B050005 
 3471 0015 0166     		.ascii	"\001f"
 3472              		.text
 3473              		.section	.gnu.lto___idle_thread.404201571b56b101,"e",%progbits
 3474 0000 789C5D8F 		.ascii	"x\234]\217\275KBQ\030\306\337\347\236\353\007\242CS"
 3474      BD4B4251 
 3474      18C6DFE7 
 3474      9EEB07A2 
 3474      4353
 3475 0012 81100D86 		.ascii	"\201\020\015\2068x/D\346\024\344\322\346\322\177\020"
 3475      38782F44 
 3475      E614E4D2 
 3475      E6D27F10 
 3476 0022 17C106BD 		.ascii	"\027\301\006\275\342\225\326\216FX(\265\024\322\020"
 3476      E295D68E 
 3476      465828B5 
 3476      14D210
 3477 0031 42191204 		.ascii	"B\031\022\004\022\011\321\227]\032\202\302\251)\010"
 3477      1209D197 
 3477      5D1A82C2 
 3477      A92908
 3478 0040 1A2A1A9B 		.ascii	"\032*\032\233\032\"B;\247L\250\3039\207\337\373\234"
 3478      1A22423B 
 3478      A74CA8C3 
 3478      3987DFFB 
 3478      9C
ARM GAS  /tmp/ccvmwPLv.s 			page 74


 3479 0051 E77D5E8E 		.ascii	"\347}^\216\233@\243 J\023\321\2448p\020\024\316\371"
 3479      9B40A320 
 3479      4A13D1A4 
 3479      38701014 
 3479      CEF9
 3480 0063 942BEF56 		.ascii	"\224+\357V\300z\304\240\366H\355i1\320\202\302T\210"
 3480      C07AC4A0 
 3480      F648ED69 
 3480      31D082C2 
 3480      5488
 3481 0075 8BFA6B8D 		.ascii	"\213\372k\215U\030.\213/\307J\250.\\\334\256|F\362|"
 3481      55182E8B 
 3481      2FC74AA8 
 3481      2E5CDCAE 
 3481      7C46F27C 
 3482 0089 69A82A3C 		.ascii	"i\250*<\233}\037N\020\022\276\207\302\326\273w\225U"
 3482      9B7D1F4E 
 3482      1012BE87 
 3482      C2D6BB77 
 3482      9555
 3483 009b 19A08A72 		.ascii	"\031\240\212r\375\246y\355\221\245\202\021Q\266\355"
 3483      FDA679ED 
 3483      91A58211 
 3483      51B6ED
 3484 00aa 95868705 		.ascii	"\225\206\207\005A\202\337\226\357[\276\340.\347\005"
 3484      4182DF96 
 3484      EF5BBEE0 
 3484      2EE705
 3485 00b9 6EB76B8C 		.ascii	"n\267k\214\007\252\214\341\034LD\342\014~\234\302O$"
 3485      07AA8CE1 
 3485      1C4C44E2 
 3485      0C7E9CC2 
 3485      4F24
 3486 00cb B4D0FE30 		.ascii	"\264\320\3760\241\205 \311\246\307\203\316\206\317\251"
 3486      A18520C9 
 3486      A6C783CE 
 3486      86CFA9
 3487 00da F6E6E202 		.ascii	"\366\346\342\002N\361S\242\306\255\303\346\235n\221"
 3487      4EF153A2 
 3487      C6ADC3E6 
 3487      9D6E91
 3488 00e9 DBCF351C 		.ascii	"\333\3175\034N\213\307\022\243\327+'\270-Q\221\230\027"
 3488      4E8BC712 
 3488      A3D72B27 
 3488      B82D5191 
 3488      9817
 3489 00fb 5866F29F 		.ascii	"Xf\362\237\\\305\242Mx\001\337\336)\263\357\020\311"
 3489      5CC5A24D 
 3489      7801DFDE 
 3489      29B3EF10 
 3489      C9
 3490 010c 7BDE3E1E 		.ascii	"{\336>\036\225\035\277\374T/7?\356D\242\324\273o\003"
 3490      951DBFFC 
 3490      542F373F 
 3490      EE44A2D4 
 3490      BB6F03
 3491 011f 726E89A9 		.ascii	"rn\211\251?1\020\010rI-\240iz\177\233\226\236\315\351"
ARM GAS  /tmp/ccvmwPLv.s 			page 75


 3491      3F311008 
 3491      72492DA0 
 3491      697A7F9B 
 3491      969ECDE9 
 3492 0133 56D6D08D 		.ascii	"V\326\320\215\344\\\332\312\315\246\215\204\245\031"
 3492      E45CDACA 
 3492      CDA68D84 
 3492      A519
 3493 0141 84CCE01F 		.ascii	"\204\314\340\037A\033\213F&\214hb\234\302\377\332\015"
 3493      411B8B46 
 3493      268C6862 
 3493      9CC2FFDA 
 3493      0D
 3494 0152 339532D3 		.ascii	"3\2252\323z\306\314\346,=6\023\237\217\206\343\"\314"
 3494      7AC6CCE6 
 3494      2C3D3613 
 3494      9F8F86E3 
 3494      22CC
 3495 0164 30B3092D 		.ascii	"0\263\011-I_*\011\207\332"
 3495      495F2A09 
 3495      87DA
 3496              		.text
 3497              		.section	.gnu.lto_chInstanceObjectInit.404201571b56b101,"e",%progbits
 3498 0000 789CA559 		.ascii	"x\234\245Y\371WU\327\025\276\373\2367\361\030\236\022"
 3498      F95755D7 
 3498      15BEFB9E 
 3498      37F1189E 
 3498      12
 3499 0011 E384030A 		.ascii	"\343\204\003\0128\321 1&\206$m\323\246\203\355\352\017"
 3499      38D12031 
 3499      2686246D 
 3499      D3A683ED 
 3499      EA0F
 3500 0023 FD0FB252 		.ascii	"\375\017\262R\244\221,\253\004H\272\372S.\017\024\024"
 3500      A4912CAB 
 3500      0448BAFA 
 3500      532E0F14 
 3500      14
 3501 0034 059322F0 		.ascii	"\005\223\"\360$\370\030\234\022Ep\010*\"\340\204B\034"
 3501      24F8189C 
 3501      12457008 
 3501      2A22E084 
 3501      421C
 3502 0046 D0E06CC0 		.ascii	"\320\340l\300\210\242(\212>\347\001\351\336\347\234"
 3502      88A2288A 
 3502      3EE701E9 
 3502      DEE79C
 3503 0055 3723E22A 		.ascii	"7#\342*\013/w\330\323\371\366\267\367\0314)\240\354"
 3503      0B2F77D8 
 3503      D3F9F6B7 
 3503      F7193429 
 3503      A0EC
 3504 0067 1CA3289F 		.ascii	"\034\243(\237\201\242\274\257(\012\350\025P5M\373\320"
 3504      81A2BCAF 
 3504      280AE815 
 3504      50354DFB 
 3504      D0
ARM GAS  /tmp/ccvmwPLv.s 			page 76


 3505 0078 98665255 		.ascii	"\230fRUv\304\266\325\240\323\314\272\255\235\207\343"
 3505      76C4B6D5 
 3505      A0D3CCBA 
 3505      AD9D87E3 
 3506 0088 745A1003 		.ascii	"tZ\020\003\235\374\246\003\340w\232\011\224\257T\246"
 3506      9DFCA603 
 3506      E0779A09 
 3506      94AF54A6 
 3507 0098 83AF2097 		.ascii	"\203\257 \227\0250\330\233\331\271S\235\272\016\277"
 3507      1530D89B 
 3507      D9B9539D 
 3507      BA0EBF
 3508 00a7 690D050E 		.ascii	"i\015\005\016\303\"m\341H;S\024\033\376\023?P\003SQ"
 3508      C3226DE1 
 3508      483B5314 
 3508      1BFE133F 
 3508      50035351 
 3509 00bb AECD5AFC 		.ascii	"\256\315Z\374((\207\331\031\200\016\037\363\232\267"
 3509      282887D9 
 3509      19800E1F 
 3509      F39AB7
 3510 00ca 3599E951 		.ascii	"5\231\351Q\205p|\314\331\360\264\004\330dP\360\276\262"
 3510      85707CCC 
 3510      D9F0B404 
 3510      D86450F0 
 3510      BEB2
 3511 00dc 74E701D3 		.ascii	"t\347\001\323\3445\232f\325\032Z\3270-\322\316\030\354"
 3511      E4359A66 
 3511      D51A5AD7 
 3511      302DD2CE 
 3511      18EC
 3512 00ee 068626A1 		.ascii	"\006\206&\241\026\302`\027\204)\012\276\213>6V\201:"
 3512      16C26017 
 3512      84290ABE 
 3512      8B3E3656 
 3512      813A
 3513 0100 988C2AF6 		.ascii	"\230\214*\366\262}\347L\354#\256\276\357\324\2234\243"
 3513      B27DE74C 
 3513      EC23AEBE 
 3513      EFD49334 
 3513      A3
 3514 0111 543F5534 		.ascii	"T?U4nm\2726\333\216\341\326\373\031\320E\237G\003\015"
 3514      6E6DBA36 
 3514      DB8EE1D6 
 3514      FB19D045 
 3514      9F47030D 
 3515 0125 305921B5 		.ascii	"0Y!\265\234\366\326\011l6\267\220\331UWm\210*\347\026"
 3515      9CF6D609 
 3515      6C36B790 
 3515      D955576D 
 3515      882AE716 
 3516 0139 DA8A4697 		.ascii	"\332\212F\227\246k\2074\235\235\351a\217\217\015E\211"
 3516      A66B8734 
 3516      9D9DE961 
 3516      8F8F0D45 
 3516      89
 3517 014a BE3A9634 		.ascii	"\276:\2264.m~\276\"\330\240\203\275\020%G\016\373\300"
ARM GAS  /tmp/ccvmwPLv.s 			page 77


 3517      2E6D7EBE 
 3517      22D8A083 
 3517      BD102547 
 3517      0EFBC0
 3518 015d A0BABFE0 		.ascii	"\240\272\277\340[\200\375`P\024\257w*\034\220\357\252"
 3518      5B80FD60 
 3518      5014AF77 
 3518      2A1C90EF 
 3518      AA
 3519 016e CA9EE404 		.ascii	"\312\236\344\004\263\277s\377\307\363\226\254\260\310"
 3519      B3BF73FF 
 3519      C7F396AC 
 3519      B0C8
 3520 017c 11F4AC9C 		.ascii	"\021\364\254\234\331\367\250K\323B\355\314\000\215\344"
 3520      D9F7A84B 
 3520      D342EDCC 
 3520      008DE4
 3521 018b 5F75F987 		.ascii	"_u\371\207\2030\031_G_\032GZ?\367\246\347\2522jL\304"
 3521      8330195F 
 3521      475F1A47 
 3521      5A3FF7A6 
 3521      E7AA326A 
 3522 01a1 5A19B5D4 		.ascii	"Z\031\265\324R\274\264(BW \031\224\273\222\207\271\014"
 3522      52BCB428 
 3522      42572019 
 3522      94BB9287 
 3522      B90C
 3523 01b3 0E61F814 		.ascii	"\016a\370\0248:\361\012\024\232\300\340\212\324C\351"
 3523      383AF10A 
 3523      149AC0E0 
 3523      8AD443E9 
 3524 01c3 E2F66563 		.ascii	"\342\366ec\262\312_S\240\231t\230\237\315\276\334\321"
 3524      B2CA5F53 
 3524      A0997498 
 3524      9FCDBEDC 
 3524      D1
 3525 01d4 0AFC48DF 		.ascii	"\012\374H\337\300\333\336a\264\307\321\200#`\300\017"
 3525      C0DBDE61 
 3525      B4C7D180 
 3525      2360C00F 
 3526 01e4 15D54B8B 		.ascii	"\025\325K\213\214\202\034#\361\261\271\305q;H\220\243"
 3526      8C821C23 
 3526      F1B1B9C5 
 3526      713B4890 
 3526      A3
 3527 01f5 01F0B9C4 		.ascii	"\001\360\271\304VX``\377\346\340\330\212\262*\003q\230"
 3527      56586060 
 3527      FFE6E0D8 
 3527      8AB22A03 
 3527      7198
 3528 0207 0DC4B755 		.ascii	"\015\304\267U\201;\255\232\266\370C;3B\213\030\3461"
 3528      813BAD9A 
 3528      B6F8433B 
 3528      33428B18 
 3528      E631
 3529 0219 1CE65199 		.ascii	"\034\346Q\231\234^\257\344\034\227\243S\242\237a\336"
 3529      9C5EAFE4 
ARM GAS  /tmp/ccvmwPLv.s 			page 78


 3529      1C97A353 
 3529      A29F61DE 
 3530 0229 4F60088A 		.ascii	"O`\010\212\242\226\243\012~\250<\241o\320\236\367e\""
 3530      A296A30A 
 3530      7EA83CA1 
 3530      6FD09EF7 
 3530      6522
 3531 023b 65C27AEF 		.ascii	"e\302z\357\365\206\276\003\3040\025/&\206\227\000\035"
 3531      F586BE03 
 3531      C430152F 
 3531      26869700 
 3531      1D
 3532 024c 5DF47831 		.ascii	"]\364x1\033\360\022h\304K\220\211.\001x\0116\323%\220"
 3532      1BF01268 
 3532      C44B9089 
 3532      2E017809 
 3532      36D32590 
 3533 0260 2E162046 		.ascii	".\026 F\206\002\321*\002_\204D\342\305\022\205\227!"
 3533      8602D12A 
 3533      025F8444 
 3533      E2C51285 
 3533      9721
 3534 0272 93F03254 		.ascii	"\223\3602TQ\262\231B\330\350@kP\224\245L\025\017\351"
 3534      51B29942 
 3534      D8E8406B 
 3534      5094A54C 
 3534      150FE9
 3535 0285 F8D0095A 		.ascii	"\370\320\011ZY\3172\306C\244\3735!\362\326Z2\237\356"
 3535      59CF32C6 
 3535      43A4FB35 
 3535      21F2D65A 
 3535      329FEE
 3536 0298 885D389C 		.ascii	"\210]8\234\203=7[\201\300\011\005\005~\302\221\222l"
 3536      833D375B 
 3536      81C00905 
 3536      057EC291 
 3536      926C
 3537 02aa 658E4B6F 		.ascii	"e\216Ko\242\367\315u\260\266\004\320]1#(s\322{\332L"
 3537      A2F7CD75 
 3537      B0B604D0 
 3537      5D312328 
 3537      73D27BDA 
 3538 02bf A4FD1A47 		.ascii	"\244\375\032G\263x\375\341\276\200\014\260\246\231\360"
 3538      B378FDE1 
 3538      BE800CB0 
 3538      A699F0
 3539 02ce 4DB94CD3 		.ascii	"M\271L\323\251\363\215-\260\006\312\301\316\206\301"
 3539      A9F38D2D 
 3539      B006CAC1 
 3539      CE86C1
 3540 02dd 49C80068 		.ascii	"I\310\000h%@\361K\3157YU\206\330M\024s\270\235\275\016"
 3540      2540F14B 
 3540      CD375955 
 3540      86D84D14 
 3540      73B89DBD 
 3541 02f2 A750AC90 		.ascii	"\247P\254\220I6um|X\0274\243J~dp\032by|T\015g`\006F"
 3541      4936756D 
ARM GAS  /tmp/ccvmwPLv.s 			page 79


 3541      7C581734 
 3541      A34A7E64 
 3541      701A6279 
 3542 030d 92DE9209 		.ascii	"\222\336\222\011\"\024\325'\032\364\014gQ\026\243}\346"
 3542      2214D527 
 3542      1AF40C67 
 3542      5116A37D 
 3542      E6
 3543 031e 946128A6 		.ascii	"\224a(\246t\303\302p\361H]c\327\275\335\327y\270\330"
 3543      74C3C270 
 3543      F1485D63 
 3543      D7BDDDD7 
 3543      79B8D8
 3544 0331 6386DB98 		.ascii	"c\206\333\230\016-\237\303\370\024\024\366D&\000\255"
 3544      0E2D9FC3 
 3544      F81414F6 
 3544      442600AD 
 3545 0341 9D87303B 		.ascii	"\235\2070;\033\241\\\201\214k\037I\003\364\216\267\244"
 3545      1BA15C81 
 3545      8C6B1F49 
 3545      03F48EB7 
 3545      A4
 3546 0352 A58C751E 		.ascii	"\245\214u\036\266\275E\2503\027P\335\220\301=\371\302"
 3546      B6BD45A8 
 3546      331750DD 
 3546      90C13DF9 
 3546      C2
 3547 0363 32D2C6F4 		.ascii	"2\322\306\364\350\347\002\371\361\014y\024\177\364\214"
 3547      E8E702F9 
 3547      F10C7914 
 3547      7FF48C
 3548 0372 68543913 		.ascii	"hT9\023H\264k\216#f\0040m\210\235\215\2066B\360g\211"
 3548      48B46B8E 
 3548      23660430 
 3548      6D889D8D 
 3548      863642F0 
 3549 0388 E0DDAB07 		.ascii	"\340\335\253\007\352L$_\310Q\032\005\355\010!w\013\027"
 3549      EA4C245F 
 3549      C8511A05 
 3549      ED082177 
 3549      0B17
 3550 039a 51CECEC2 		.ascii	"Q\316\316\302x|:\027-\364\236)-\333\034\342L\352\312"
 3550      787C3A17 
 3550      2DF49E29 
 3550      2DDB1CE2 
 3550      4CEACA
 3551 03ad A6D9743B 		.ascii	"\246\331t;\250\034\376\362\202\034\226$S\022/\275 \211"
 3551      A81CFEF2 
 3551      821C9624 
 3551      53122FBD 
 3551      2089
 3552 03bf 25354089 		.ascii	"%5@\211\351\360H\343e\230Q\314,<\222z\3118\014%\277"
 3552      E9F048E3 
 3552      659851CC 
 3552      2C3C927A 
 3552      C9380C25 
 3553 03d4 698A0CA5 		.ascii	"i\212\014\245\341\\\325\331\020\0328\251\217\266\263"
ARM GAS  /tmp/ccvmwPLv.s 			page 80


 3553      E15CD5D9 
 3553      101A38A9 
 3553      8FB6B3
 3554 03e3 3128CDF3 		.ascii	"1(\315\363J\246\323\354\355;\334\344\321\303\025\356"
 3554      4AA6D3EC 
 3554      ED3BDCE4 
 3554      D1C315EE 
 3555 03f3 17C86EA7 		.ascii	"\027\310n\247\364A\206o\270\015\257l\032\377\352\206"
 3555      F441866F 
 3555      B80DAF6C 
 3555      1AFFEA86 
 3556 0403 7570951B 		.ascii	"up\225\033V\311\3605\210-f\241\334\356Ci\367Ey\036k"
 3556      56C9F035 
 3556      882D66A1 
 3556      DCEE4369 
 3556      F745791E 
 3557 0418 63D490BA 		.ascii	"c\324\220\272\004\237,v6\216\253\225Z\234\321\344-\221"
 3557      049F2C76 
 3557      368EAB95 
 3557      5A9CD1E4 
 3557      2D91
 3558 042a C4D4FB06 		.ascii	"\304\324\373\006TC\335b\200\220\306\303u\036\222\244"
 3558      5443DD62 
 3558      8090C6C3 
 3558      751E92A4 
 3559 043a 47756B65 		.ascii	"Gukes\200\314\300\003\3048\034n@l!\261\231\276\026\346"
 3559      7380CCC0 
 3559      03C4381C 
 3559      6E406C21 
 3559      B199BE16 
 3560 044f 6ED869A6 		.ascii	"n\330i\246\230\350s\010v\034\350\206X\014\354&\005\206"
 3560      98E87308 
 3560      761CE886 
 3560      580CEC26 
 3560      0586
 3561 0461 CD205C42 		.ascii	"\315 \\B\322Rw{\026\303Z!\235\316\263\247o\200\2341"
 3561      D252777B 
 3561      16C35A21 
 3561      9DCEB3A7 
 3561      6F809C31 
 3562 0475 DABF0B3F 		.ascii	"\332\277\013?w[\314\030f\270EM\321\350\356\375=4c\230"
 3562      775BCC18 
 3562      66B8454D 
 3562      D1E8EEFD 
 3562      3D346398 
 3563 0489 A3EBC793 		.ascii	"\243\353\307\223\326\252\332C\327\003\374g\014\251\245"
 3563      D6AADA43 
 3563      D703FC67 
 3563      0CA9A5
 3564 0498 7869F1F4 		.ascii	"xi\361\364\337\206(\034=\301\322\321\223\327\222?\334"
 3564      DF86281C 
 3564      3DC1D2D1 
 3564      93D7923F 
 3564      DC
 3565 04a9 6736C8BE 		.ascii	"g6\310\276\206t\271\355\232C\214\250qG\360\366\322\315"
 3565      8674B9ED 
 3565      9A438CA8 
ARM GAS  /tmp/ccvmwPLv.s 			page 81


 3565      7147F0F6 
 3565      D2CD
 3566 04bb BC56B734 		.ascii	"\274V\2674\315|Fp\370\314\206$+^\302]g\372\307\322\255"
 3566      CD7C4670 
 3566      F8CC8624 
 3566      2B5EC25D 
 3566      67FAC7D2 
 3567 04d0 67D199F9 		.ascii	"g\321\231\371p\235\340\023v\204\372=\177\324\211$f\270"
 3567      709DE013 
 3567      7684FA3D 
 3567      7FD48924 
 3567      66B8
 3568 04e2 CF61D78B 		.ascii	"\317a\327\2138\340\001\221A/\372e\005\363\3672h\263"
 3568      38E00191 
 3568      412FFA65 
 3568      05F3F732 
 3568      68B3
 3569 04f4 0FB95983 		.ascii	"\017\271Y\2034\373\310mv\253\333\254\343\320+\232\235"
 3569      34FBC86D 
 3569      76ABDBAC 
 3569      E3D02B9A 
 3569      9D
 3570 0505 008FB959 		.ascii	"\000\217\271Y\2434\373\004b={\232\005{\332S^\"V\004"
 3570      A334FB04 
 3570      623D7B9A 
 3570      057BDA53 
 3570      5E225604 
 3571 0519 3A9E4F08 		.ascii	":\236O\010\204\265h\013\026\347T\341dG^g\326}\313\264"
 3571      84B5680B 
 3571      16E754E1 
 3571      64475E67 
 3571      D67DCBB4 
 3572 052d F57C59D6 		.ascii	"\365|Y\326V\251\256,A\206OT\312xUP*\237\3014_\026o\315"
 3572      56A9AE2C 
 3572      41864F54 
 3572      CA785550 
 3572      2A9FC134 
 3573 0545 8D1B98C6 		.ascii	"\215\033\230\306\021\320\313#4\011\242\326\266_\336"
 3573      11D0CB23 
 3573      3409A2D6 
 3573      B65FDE
 3574 0554 A27A1075 		.ascii	"\242z\020u\"<\3072\346\255\254\317\207\253w\226\237"
 3574      223CC732 
 3574      E6ADACCF 
 3574      87AB7796 
 3574      9F
 3575 0565 A9B1B02A 		.ascii	"\251\261\260*A\326\372\247\335}\314I\326M\037|\337*"
 3575      41D6FAA7 
 3575      DD7DCC49 
 3575      D64D1F7C 
 3575      DF2A
 3576 0577 C83A1134 		.ascii	"\310:\0214\025igr\323.ME\262N\214\336\307\2277m\353"
 3576      15696772 
 3576      D32E4D45 
 3576      B24E8CDE 
 3576      C797376D 
 3577 058c 0F2ED2FB 		.ascii	"\017.\322\373\223Uj)^Z|\204V5\212F\311\331ZY\320\266"
ARM GAS  /tmp/ccvmwPLv.s 			page 82


 3577      93556A29 
 3577      5E5A7C84 
 3577      56358A46 
 3577      C9D95A59 
 3578 05a2 C48FADDD 		.ascii	"\304\217\255\335\310V\024\222l\305AA\272*\330ZQ\340"
 3578      C8561492 
 3578      6CC54141 
 3578      BA2AD85A 
 3578      51E0
 3579 05b4 307BB1D5 		.ascii	"0{\261\325\004\031\252\017[QV\274\204\205\252\253=\340"
 3579      0419AA0F 
 3579      5B5156BC 
 3579      8485AAAB 
 3579      3DE0
 3580 05c6 6D319B84 		.ascii	"m1\233\204bZfU-'\354D\230\202\217\245G\212\217\352\005"
 3580      625A6655 
 3580      2D27EC44 
 3580      98828FA5 
 3580      478A8FEA 
 3581 05db 052208DF 		.ascii	"\005\"\010\337E\252\300\267\342\316\372\032\263\244"
 3581      45AAC0B7 
 3581      E2CEFA1A 
 3581      B3A4
 3582 05e9 C016FC18 		.ascii	"\300\026\374\030\011\231*!\034 bA\211\306\215U}A\036"
 3582      09992A21 
 3582      1C206241 
 3582      89C68D55 
 3582      7D411E
 3583 05fc 200F852C 		.ascii	" \017\205,5\226\177\204\305\252\023dt\213\242\367\332"
 3583      35967F84 
 3583      C5AA1364 
 3583      748BA2F7 
 3583      DA
 3584 060d 8BAC2A3B 		.ascii	"\213\254*;/@\336|<\263(\330\325\021\336\335U+@\036\012"
 3584      2F40DE7C 
 3584      3CB328D8 
 3584      D511DEDD 
 3584      552B401E 
 3585 0622 4B08AE00 		.ascii	"K\010\256\0007\\\331\004\362\320\350\263\274#\\h\177"
 3585      375CD904 
 3585      F2D0E8B3 
 3585      BC235C68 
 3585      7F
 3586 0633 F2804990 		.ascii	"\362\200I\220)5g\256i\3327\032\270\364\024/=\016\363"
 3586      293567AE 
 3586      69DA371A 
 3586      B8F4142F 
 3586      3D0EF3
 3587 0646 52157BC2 		.ascii	"R\025{\302$\216\362\315\274g!> W\026\204n0\220\014\207"
 3587      248EF2CD 
 3587      BC67213E 
 3587      20571684 
 3587      6E30900C 
 3588 065b 091DA3C6 		.ascii	"\011\035\243\3062\325\331\023\226[\274P\016\200\034"
 3588      32D5D913 
 3588      965BBC50 
 3588      0E801C
ARM GAS  /tmp/ccvmwPLv.s 			page 83


 3589 066a 5F945156 		.ascii	"_\224QV\274\204\\UV\353\030\272\365\204x\250/\304\221"
 3589      BC845C55 
 3589      56EB18BA 
 3589      F58478A8 
 3589      2FC491
 3590 067d 04F1F27E 		.ascii	"\004\361\362~ \036N\302_s\204\315\"\016\370F\215\225"
 3590      201E4EC2 
 3590      5F7384CD 
 3590      220EF846 
 3590      8D95
 3591 068f E197AD5B 		.ascii	"\341\227\255[\305\374\275\014\332\354\177\271\331@i"
 3591      C5FCBD0C 
 3591      DAEC7FB9 
 3591      D94069
 3592 069e 36CF69D6 		.ascii	"6\317i\326\212\0208\232938\014\374\325\342n>\025q\366"
 3592      8A10389A 
 3592      3933380C 
 3592      FCD5E26E 
 3592      3E1571F6 
 3593 06b2 71D75706 		.ascii	"q\327W\006U\277Q\036\365\273B\365\253\337\253\271\357"
 3593      55BF511E 
 3593      F5BB42F5 
 3593      ABDFABB9 
 3593      EF
 3594 06c3 0D5CBF93 		.ascii	"\015\\\277\223 \237\007\031\324\177\375FA\201*\353\267"
 3594      209F0719 
 3594      D47FFD46 
 3594      41812AEB 
 3594      B7
 3595 06d4 50F5AEDF 		.ascii	"P\365\256\337\227EcS\247QD\234\005O\213\2532\251\326"
 3595      97456353 
 3595      A751449C 
 3595      054F8BAB 
 3595      32A9D6
 3596 06e7 B21CDB0F 		.ascii	"\262\034\333\0173fU9\035\267m^\366\304\271\247{&\366"
 3596      33665539 
 3596      1DB76D5E 
 3596      F6C4B9A7 
 3596      7B26F6
 3597 06fa 7451B092 		.ascii	"tQ\260\222(evS\252\210\250\030\025\275<\2344\276>\330"
 3597      28657653 
 3597      AA88A818 
 3597      15BD3C9C 
 3597      34BE3ED8 
 3598 070e 71D43939 		.ascii	"q\32499].c\332jMu\351(^:\376\233\231\213\331\217\261"
 3598      5D2E63DA 
 3598      6A4D75E9 
 3598      285E3AFE 
 3598      9B998BD9 
 3599 0724 B6BF75D5 		.ascii	"\266\277u\325\266\031C,\346\254S\025zM\361r\012>.\336"
 3599      B619432C 
 3599      E6AC5315 
 3599      7A4DF172 
 3599      0A3E2EDE 
 3600 0738 66F4A2A0 		.ascii	"f\364\242\240\031V\371R\020\025\305K\260\253\262\263"
 3600      1956F952 
 3600      1015C54B 
ARM GAS  /tmp/ccvmwPLv.s 			page 84


 3600      B0ABB2B3 
 3601 0748 8FA75BDA 		.ascii	"\217\247[\332\373v\256-\340\333\226\3110\023\037\177"
 3601      FB76AE2D 
 3601      E0DB96C9 
 3601      30131F7F 
 3602 0758 D8F15361 		.ascii	"\330\361Sa\260\340\312\024\312B\011q\005J\021s\331\271"
 3602      B0E0CA14 
 3602      CA420971 
 3602      054A1173 
 3602      D9B9
 3603 076a B54BD9BD 		.ascii	"\265K\331\275\361\203\311\264\301\003\3332\377L?\314"
 3603      F183C9B4 
 3603      C103DB32 
 3603      FF4C3FCC 
 3604 077a 7D77E04C 		.ascii	"}w\340LO\205r\236\351\340\3763m\200\325\316L\257\361"
 3604      4F85729E 
 3604      E9E0FE33 
 3604      6D80D5CE 
 3604      4CAFF1
 3605 078d CC346D00 		.ascii	"\3144m\000\311\037\317\343\366eO\354\303i\347\307\031"
 3605      C91FCFE3 
 3605      F6654FEC 
 3605      C369E7C7 
 3605      19
 3606 079e DA57CF68 		.ascii	"\332W\317h\227\347lt\315\264\016\212@\323'K.\257\340"
 3606      97E76C74 
 3606      CDB40E8A 
 3606      40D3274B 
 3606      2EAFE0
 3607 07b1 10186008 		.ascii	"\020\030`\010M\324\215}\215:\001\301T\012o\255,\227"
 3607      4DD48D7D 
 3607      8D3A01C1 
 3607      540A6FAD 
 3607      2C97
 3608 07c3 EEFA86BD 		.ascii	"\356\372\206\275:Y.\264\254\234\006\353x"
 3608      3A592EB4 
 3608      AC9C06EB 
 3608      78
 3609 07d0 80217C6F 		.ascii	"\200!|oI\022\331{\034\215\236\313\236\020X\2171\322"
 3609      4912D97B 
 3609      1C8D9ECB 
 3609      9E10588F 
 3609      31D2
 3610 07e2 47F8CE15 		.ascii	"G\370\316\025c3G\354YiN/cY\202Y\373\356\034\273\023"
 3610      633347EC 
 3610      59694E2F 
 3610      63598259 
 3610      FBEE1CBB 
 3611 07f7 E26A7453 		.ascii	"\342jtSn\236\022\215.\004\276'\246\004\272\231\262\201"
 3611      6E9E128D 
 3611      2E04BE27 
 3611      A604BA99 
 3611      B281
 3612 0809 D81512BD 		.ascii	"\330\025\022\275\2327\272\336\213Y\013C$\273h\213\355"
 3612      9A37BADE 
 3612      8B590B43 
 3612      24BB688B 
ARM GAS  /tmp/ccvmwPLv.s 			page 85


 3612      ED
 3613 081a 6A74524F 		.ascii	"jtRO\361\322\343y\330H\215.B6\272ma~;\341q}\006\222"
 3613      F1D2E379 
 3613      D8488D2E 
 3613      4236BA6D 
 3613      617E3BE1 
 3614 0832 919BE140 		.ascii	"\221\233\341@\324\250p5\272\035a^,\013\204M\276,CY\361"
 3614      D4A87035 
 3614      BA1D615E 
 3614      2C0B844D 
 3614      BE2C4359 
 3615 0847 122A55D7 		.ascii	"\022*U\327\332\267\222\263\314\005q\210/\304\323\010"
 3615      DAB792B3 
 3615      CC057188 
 3615      2FC4D308 
 3616 0857 E2AA7E20 		.ascii	"\342\252~ \036G\302\2339\302\026\021\007l\241\216\024"
 3616      1E47C29B 
 3616      39C21611 
 3616      076CA18E 
 3616      14
 3617 0868 2156C2D5 		.ascii	"!V\302\325\314\337\313\240\315n\345f\207H\263\333\334"
 3617      CCDFCBA0 
 3617      CD6EE566 
 3617      8748B3DB 
 3617      DC
 3618 0879 669FBACD 		.ascii	"f\237\272\315R\211\274\222\331h\370\201\233\035*\315"
 3618      5289BC92 
 3618      D968F881 
 3618      9B1D2ACD 
 3619 0889 56ABB4F8 		.ascii	"V\253\264\370\251]\324[g\024\213\237>\374\261\300vU"
 3619      A95DD45B 
 3619      67148B9F 
 3619      3EFCB1C0 
 3619      7655
 3620 089b 2C80B62F 		.ascii	",\200\266/{\336\316I\310\021\347\336+\366\203\223\240"
 3620      7BDECE49 
 3620      C811E7DE 
 3620      2BF68393 
 3620      A0
 3621 08ac 8E43D324 		.ascii	"\216C\323$S\006CG\364\376+\330\301\275\207\0126\302"
 3621      53064347 
 3621      F4FE2BD8 
 3621      C1BD870A 
 3621      36C2
 3622 08be 4E649EAC 		.ascii	"Nd\236\254\330\262]\373\337\344v\361\276\374Fn\034\035"
 3622      D8B25DFB 
 3622      DFE476F1 
 3622      BEFC466E 
 3622      1C1D
 3623 08d0 678882C8 		.ascii	"g\210\202\310e\334q\307\303\325u\007\307\320\211\206"
 3623      65DC71C7 
 3623      C3D57507 
 3623      C7D08986 
 3624 08e0 98447219 		.ascii	"\230Dr\031\235i\340.#\275\3443\272+f\221>\033\2157l"
 3624      9D69E02E 
 3624      23BDE433 
 3624      BA2B6691 
ARM GAS  /tmp/ccvmwPLv.s 			page 86


 3624      3E1B8D37 
 3625 08f5 2C88CB43 		.ascii	",\210\313C\015\021\333\316b\304\266\267\375\207\333"
 3625      0D11DBCE 
 3625      62C4B6B7 
 3625      FD87DB
 3626 0904 59E581A2 		.ascii	"Y\345\201\242\264\220j\221\370vo\333\222\235\372\227"
 3626      B4906A91 
 3626      F8766FDB 
 3626      929DFA97 
 3627 0914 8CA57757 		.ascii	"\214\245wWo\004\016%#\215\017e:\354\342CyM\016\245\226"
 3627      6F040E25 
 3627      238D0F65 
 3627      3AECE243 
 3627      794D0EA5 
 3628 0929 F2132556 		.ascii	"\362\023%V\215\242\367\360S\036\261\265\0316\230^\024"
 3628      8DA2F7F0 
 3628      531EB1B5 
 3628      1936985E 
 3628      14
 3629 093a EBD18B76 		.ascii	"\353\321\213v\373\367\242\362\274\227\254\032\337\204"
 3629      FBF7A2F2 
 3629      BC97AC1A 
 3629      DF84
 3630 0948 3A1ED1B0 		.ascii	":\036\321\260\376{Q,\324;{Q\203\317\254\323Q\271\247"
 3630      FE7B512C 
 3630      D43B7B51 
 3630      83CFACD3 
 3630      51B9A7
 3631 095b DDCC6A45 		.ascii	"\335\314jE\235\027=\260\026;g\220\203g\302w\\\020u\036"
 3631      9D173DB0 
 3631      163B6790 
 3631      8367C277 
 3631      5C10751E 
 3632 096f 0B7BA85E 		.ascii	"\013{\250^\203\335\365\272\227\352<6\372\016\257\363"
 3632      83DDF5BA 
 3632      97EA3C36 
 3632      FA0EAFF3 
 3633 097f AEF4EAD3 		.ascii	"\256\364\352\323\375\034\212I-\305KK\034\333\341\354"
 3633      FD1C8A49 
 3633      2DC54B4B 
 3633      1CDBE1EC 
 3634 098f B05B76C0 		.ascii	"\260[v\300\362\215\313s\374V\215YzFBrf\301\006\013\373"
 3634      F28DCB73 
 3634      FC568D59 
 3634      7A464272 
 3634      66C1060B 
 3635 09a4 6599976E 		.ascii	"e\231\227n\314\013\361*\363`8\340[\346(+^B#\257\224"
 3635      CC0BF12A 
 3635      F36038E0 
 3635      5BE6282B 
 3635      5E4223AF 
 3636 09b9 BDC4D546 		.ascii	"\275\304\325F^)\266ciM\234\354\261\270x\306\347\236"
 3636      5E29B663 
 3636      694D9CEC 
 3636      B1B878C6 
 3636      E79E
 3637 09cb F39B1C66 		.ascii	"\363\233\034f\221\3577\011\335\2032\337\207WY\257\200"
ARM GAS  /tmp/ccvmwPLv.s 			page 87


 3637      91EF3709 
 3637      DD8332DF 
 3637      875759AF 
 3637      80
 3638 09dc 4C386E1B 		.ascii	"L8n\033f\300!\016\357\353\"\020h\342\225\343\3320\315"
 3638      66C0210E 
 3638      EFEB2210 
 3638      68E295E3 
 3638      DA30CD
 3639 09ef C06D43B3 		.ascii	"\300mC\263*\251\374-\223n\261D\246J\267/r\223q\256`"
 3639      2AA9FC2D 
 3639      936EB144 
 3639      A64AB72F 
 3639      729371AE 
 3640 0a04 7FB07B77 		.ascii	"\177\260{w\362\026\374\310\335\014\227n\016c\322\316"
 3640      F216FCC8 
 3640      DD0C976E 
 3640      0E63D2CE 
 3641 0a14 CB12A9FF 		.ascii	"\313\022\251\377\277\354\036\341vGH\273Gy\370uK[~d\342"
 3641      BFEC1EE1 
 3641      764748BB 
 3641      4779F875 
 3641      4B5B7E64 
 3642 0a29 2407E098 		.ascii	"$\007\340\230,\372\354\254\004\316\337}\316\222\337"
 3642      2CFAECAC 
 3642      04CEDF7D 
 3642      CE92DF
 3643 0a38 3CCC6F6B 		.ascii	"<\314ok\356wVp\353%[\363\231\320\302\375\217\354\237"
 3643      EE775670 
 3643      EB255BF3 
 3643      99D0C2FD 
 3643      8FEC9F
 3644 0a4b 9D81705C 		.ascii	"\235\201p\\\245\315\367\011\242\346\213N\016\336\266"
 3644      A5CDF709 
 3644      A2E68B4E 
 3644      0EDEB6
 3645 0a5a E13CA6C0 		.ascii	"\341<\246\300O*?90\330\331;<\274^\217\360\026\033E|"
 3645      4F2A3F39 
 3645      30D8D93B 
 3645      3CBC5E8F 
 3645      F0161B45 
 3646 0a6f 46DFF836 		.ascii	"F\337\3706\261\201\343\233\005\255<\276Q\375\304w\011"
 3646      B181E39B 
 3646      05AD3CBE 
 3646      51FDC477 
 3646      09
 3647 0a80 B10D8293 		.ascii	"\261\015\202\223<\300S\"\300LyXf\362\011\361]\033N\004"
 3647      3CC05322 
 3647      C04C7958 
 3647      66F209F1 
 3647      5D1B4E04 
 3648 0a94 0A9C1621 		.ascii	"\012\234\026!ZD .\222\304\371\035e\305\225\313\343\\"
 3648      5A44202E 
 3648      92C4F91D 
 3648      65C595CB 
 3648      E35C
 3649 0aa6 CFA3ACF7 		.ascii	"\317\243\254\367\340,\352\303\031\265\337\243\25488"
ARM GAS  /tmp/ccvmwPLv.s 			page 88


 3649      E02CEAC3 
 3649      19B5DFA3 
 3649      AC3838
 3650 0ab5 A73A8FB2 		.ascii	"\247:\217\262\316\253\234\302\025}W\213,\242\177k\000"
 3650      CEAB9CC2 
 3650      157D578B 
 3650      2CA27F6B 
 3650      00
 3651 0ac6 17D4303B 		.ascii	"\027\3240;{\237\360h[\322\245\177\365\203\235\361\360"
 3651      7B9FF068 
 3651      5BD2A57F 
 3651      F5839DF1 
 3651      F0
 3652 0ad7 B3FA8253 		.ascii	"\263\372\202S\224/\011\21065\266\220\215\246\"n\247"
 3652      942F0988 
 3652      3635B690 
 3652      8DA6226E 
 3652      A7
 3653 0ae8 A667E249 		.ascii	"\246g\342I\270\273\302u\232T\333\3647\001N\200\347\330"
 3653      B8BBC275 
 3653      9A54DBF4 
 3653      37014E80 
 3653      E7D8
 3654 0afa 755E270A 		.ascii	"u^'\012i\302\325\007\305,\024.\312qn\332\276\356\030"
 3654      69C2D507 
 3654      C52C142E 
 3654      CA716EDA 
 3654      BEEE18
 3655 0b0d 317639FF 		.ascii	"1v9\377\364k\370\205GA\007bp\011\261\027\3431\312\361"
 3655      F46BF885 
 3655      47410762 
 3655      7009B117 
 3655      E331CAF1 
 3656 0b21 B8EC06F9 		.ascii	"\270\354\006\371\331-\251&.\316\302\310\240C\355o\200"
 3656      D92DA926 
 3656      2ECEC2C8 
 3656      A043ED6F 
 3656      80
 3657 0b32 C170999B 		.ascii	"\301p\231\233\036C\246\257\320\030\002\370\030\312\363"
 3657      1E43A6AF 
 3657      D01802F8 
 3657      18CAF3
 3658 0b41 5D63701C 		.ascii	"]cp\034\372u\177\300\275\314\362o\240\223[\036K\226"
 3658      FA757FC0 
 3658      BDCCF26F 
 3658      A0935B1E 
 3658      4B96
 3659 0b53 AF7A97D8 		.ascii	"\257z\227\330o\261\304\256\311\016Q\231\357>~\336\242"
 3659      6FB1C4AE 
 3659      C90E5199 
 3659      EF3E7EDE 
 3659      A2
 3660 0b64 BA6EEBF3 		.ascii	"\272n\353\363\365t^.\250l3\322=\255\274\32275\005\307"
 3660      F5745E2E 
 3660      A86C33D2 
 3660      3DADBCD2 
 3660      373505C7 
ARM GAS  /tmp/ccvmwPLv.s 			page 89


 3661 0b78 C6D8D987 		.ascii	"\306\330\331\207t\202^\310\306\221\361.n\274\247\242"
 3661      74825EC8 
 3661      C691F12E 
 3661      6EBCA7A2 
 3662 0b88 26DF32E1 		.ascii	"&\3372\341\212j\327\012\321\373\357(\240\223\367\253"
 3662      8A6AD70A 
 3662      D1FBEF28 
 3662      A093F7AB 
 3663 0b98 6BCC922D 		.ascii	"k\314\222-%\035\371F;\373=\\W'\240\312\015\"%\345\247"
 3663      251DF946 
 3663      3BFB3D5C 
 3663      5727A0CA 
 3663      0D2225E5 
 3664 0bad EBEC9540 		.ascii	"\353\354\225@\262]\314\314\257\230\222n>\272\361\024"
 3664      B25DCCCC 
 3664      AF98926E 
 3664      3EBAF114 
 3665 0bbd C04D674A 		.ascii	"\300MgJz\317^\006\337H\203E\244\341$x\213\0006\013\307"
 3665      7ACF5E06 
 3665      DF488345 
 3665      A4E12478 
 3665      8B00360B 
 3666 0bd2 E79C8E03 		.ascii	"\347\234\216\003_\321q\017w<\201\037\216\015\302\361"
 3666      5FD1710F 
 3666      773C811F 
 3666      8E0DC2F1 
 3667 0be2 4412BC43 		.ascii	"D\022\274C\216\003y6M\276r\023\204\\\004\3119\274\363"
 3667      8E037936 
 3667      4DBE7213 
 3667      845C04C9 
 3667      39BCF3
 3668 0bf5 64C13CDD 		.ascii	"d\301<\335U\303\234\355\316G\361#\241\030I\212\367\270"
 3668      55C39CED 
 3668      CE47F123 
 3668      A118498A 
 3668      F7B8
 3669 0c07 A2ABFCB3 		.ascii	"\242\253\374\263\020\360\273\371\321v\366\007\033.\333"
 3669      10F0BBF9 
 3669      D176F607 
 3669      1B2EDB
 3670 0c16 14B82FF1 		.ascii	"\024\270/\361v\\;\266&D\332\271\260\377\232f!;\177\024"
 3670      765C3BB6 
 3670      2644DAB9 
 3670      B0FF9A66 
 3670      213B7F14 
 3671 0c2a 76A2C8CE 		.ascii	"v\242\310\316\003\354\3611\202\030\353\012\004\003\370"
 3671      03ECF131 
 3671      8218EB0A 
 3671      0403F8
 3672 0c39 71FC09FF 		.ascii	"q\374\011\377\026\370'\033\375\337\006<\024\375\305"
 3672      16F8271B 
 3672      FDDF063C 
 3672      14FDC5
 3673 0c48 8CE3B3B3 		.ascii	"\214\343\263\263?s\315_FH\305\214\222\344\3764g\333"
 3673      3F73CD5F 
 3673      4648C58C 
 3673      92E4FE34 
ARM GAS  /tmp/ccvmwPLv.s 			page 90


 3673      67DB
 3674 0c5a 70D9A5C0 		.ascii	"p\331\245\300#U\034\257\027\257\333\361]\260\263\301"
 3674      23551CAF 
 3674      17AFDBF1 
 3674      5DB0B3C1 
 3675 0c6a 756283FB 		.ascii	"ub\203\373\013\005\304\025\341\261J\007\344\177\345"
 3675      0B05C415 
 3675      E1B14A07 
 3675      E47FE5
 3676 0c79 EB220E00 		.ascii	"\353\"\016\000}B\235\253\216\216\266\300\270\355Z\026"
 3676      7D429DAB 
 3676      8E8EB6C0 
 3676      B8ED5A16 
 3677 0c89 7E352AF0 		.ascii	"~5*\360D\215Sn\201\265\244\247@t#\372\311f|\005\311"
 3677      448D536E 
 3677      81B5A4A7 
 3677      407423FA 
 3677      C9667C05 
 3678 0c9e C0DA408F 		.ascii	"\300\332@\217\22111\323]\277\013R\246'\247NOI\216\237"
 3678      913131D3 
 3678      5DBF0B52 
 3678      A627A74E 
 3678      4F498E9F 
 3679 0cb2 1E3F3771 		.ascii	"\036?7q~J\352'\363\343\023Rb\342\025\266 1i\204\327"
 3679      7E4AEA27 
 3679      F3E31352 
 3679      62E215B6 
 3679      20316984 
 3680 0cc7 AB9819B3 		.ascii	"\253\230\031\263\336~'~V\302LE\267 1>\311\030\277 9"
 3680      DE7E277E 
 3680      56C24C45 
 3680      B720313E 
 3680      C918BF20 
 3681 0cdc E1E3C439 		.ascii	"\341\343\3049\272/S\347%M\3607\2318?~\336\027s\022\320"
 3681      BA2F53E7 
 3681      254DF037 
 3681      99383F7E 
 3681      DE177312 
 3682 0cf1 EC97A931 		.ascii	"\354\227\2511s\025K\342\234y\011\037\317IH\211ONLJ]"
 3682      73154BE2 
 3682      9C79091F 
 3682      CF494889 
 3682      4F4E4C4A 
 3683 0d06 90CC923E 		.ascii	"\220\314\222>O\352'\020\267\326\274\304\224\324\024"
 3683      4FEA2710 
 3683      B7D6BCC4 
 3683      94D414
 3684 0d15 54549393 		.ascii	"TT\223\223&\017$\227\234\360)J&\377\207D?O\212\030P"
 3684      260F2497 
 3684      9CF0294A 
 3684      26FF8744 
 3684      3F4F8A18 
 3685 0d2a F49FF15F 		.ascii	"\364\237\361_\240\230\236\376&\351\346\314\233\233\024"
 3685      A0989EFE 
 3685      26E9E6CC 
 3685      9B9B14
 3686 0d39 E3233EF7 		.ascii	"\343#>\367\223y\370\007/\311\251o\314O\234\207:|\224"
ARM GAS  /tmp/ccvmwPLv.s 			page 91


 3686      9379F807 
 3686      2FC9A96F 
 3686      CC4F9C87 
 3686      3A7C94
 3687 0d4c A989FF4A 		.ascii	"\251\211\377JHFM\2262g\340\240\347$\374\343\213O\311"
 3687      48464D96 
 3687      3267E0A0 
 3687      E724FCE3 
 3687      8B4FC9
 3688 0d5f 058D56F9 		.ascii	"\005\215V\371\037\325Z\277\273"
 3688      1FD55ABF 
 3688      BB
 3689              		.text
 3690              		.section	.gnu.lto_.symbol_nodes.404201571b56b101,"e",%progbits
 3691 0000 789C6DD0 		.ascii	"x\234m\3209\216\002A\014\005\320\357\357\356\352f\340"
 3691      398E0241 
 3691      0C05D0EF 
 3691      EFEEEA66 
 3691      E0
 3692 0011 0E20AEC0 		.ascii	"\016 \256\300\005\3404\204HD#u\340\0128\000)\031H\034"
 3692      05E03484 
 3692      48442375 
 3692      E00A3800 
 3692      2919481C 
 3693 0025 02112322 		.ascii	"\002\021#\"\304\276\314\222\023r\205\031\232.\262rb"
 3693      C4BECC92 
 3693      13728519 
 3693      9A2EB272 
 3693      62
 3694 0036 EB3F3B71 		.ascii	"\353?;q\016\301\247\000\340\216\206\307\332\311x\013"
 3694      0EC1A700 
 3694      E08E86C7 
 3694      DAC9780B 
 3695 0046 18B098CE 		.ascii	"\030\260\230\316\274C)\340\236&\376Y\311\033\227\276"
 3695      BC4329E0 
 3695      9E26FE59 
 3695      C91B97BE 
 3696 0056 57517A20 		.ascii	"WQz [e?S|\033\320\364\213(\003\371\241\361/T\363u\007"
 3696      5B653F53 
 3696      7C1BD0F4 
 3696      8B2803F9 
 3696      A1F12F54 
 3697 006d 78DF7DCA 		.ascii	"x\337}\3127M\343r\243%q\271\322\322\270\374\322\\\\"
 3697      374DE372 
 3697      A32571B9 
 3697      D2D2B8FC 
 3697      D25C5C
 3698 0080 2EB42C2E 		.ascii	".\264,.'Z\036\227#\255\026\025\225F\365\201\225S\251"
 3698      275A1E97 
 3698      23AD1615 
 3698      9546F581 
 3698      9553A9
 3699 0093 DF37938E 		.ascii	"\3377\223\216\3143\225\217\020\326Uj\3258\357\253\344"
 3699      CC33958F 
 3699      10D6556A 
 3699      D538EFAB 
 3699      E4
ARM GAS  /tmp/ccvmwPLv.s 			page 92


 3700 00a4 211DA864 		.ascii	"!\035\250d!\035\252\270j\034\025*iX(\360\017E\256\213"
 3700      211DAAB8 
 3700      6A1C152A 
 3700      695828F0 
 3700      0F45AE8B 
 3701 00b8 96       		.ascii	"\226"
 3702              		.text
 3703              		.section	.gnu.lto_.refs.404201571b56b101,"e",%progbits
 3704 0000 789CE360 		.ascii	"x\234\343``d\020a```ed`bgb\346ed\022`by\310\300\304"
 3704      60641061 
 3704      60606065 
 3704      64606267 
 3704      62E66564 
 3705 001b F0918101 		.ascii	"\360\221\201\001\000\016\350\002,"
 3705      000EE802 
 3705      2C
 3706              		.text
 3707              		.section	.gnu.lto_.decls.404201571b56b101,"e",%progbits
 3708 0000 789CCD7C 		.ascii	"x\234\315|yX\\\327\225g\335\272\265S\200-\221\330\261"
 3708      79585CD7 
 3708      9567DDBA 
 3708      B553802D 
 3708      91D8B1
 3709 0013 1CDB71D3 		.ascii	"\034\333q\323\2113\323\266\274\244\343\364$\223\311"
 3709      8933D3B6 
 3709      BCA4E3F4 
 3709      2493C9
 3710 0022 74D2D3C9 		.ascii	"t\322\323\311d\351\376\342t\272\363\3157McT\222\210"
 3710      64E9FEE2 
 3710      74BAF3CD 
 3710      374D6354 
 3710      9288
 3711 0034 D9064AB2 		.ascii	"\331\006J\262\235\357\233/\305\"\026\201\000\201$\020"
 3711      9DEF9B2F 
 3711      C5221681 
 3711      00812410 
 3712 0044 20B14A42 		.ascii	" \261JBb\027\022\253\220\020 V\001\305*\20166\261\203"
 3712      621712AB 
 3712      90102056 
 3712      01C52A81 
 3712      3636B183 
 3713 0058 24761082 		.ascii	"$v\020\2029\367\336\367\252\336\253z\205{\276o\376\230"
 3713      39F7DEF7 
 3713      AADEAB7A 
 3713      857BBE6F 
 3713      FE98
 3714 006a FA74A877 		.ascii	"\372t\250w\356\373\335s\3179\367\334\355\274W\322\310"
 3714      EEFBDD73 
 3714      CF39F7DC 
 3714      EDBC57D2 
 3714      C8
 3715 007b 90EC27FF 		.ascii	"\220\354'\377(\223\375\027\235L6&\227\311\266\341\203"
 3715      2893FD17 
 3715      9D4C3626 
 3715      97C9B6E1 
 3715      83
 3716 008c 65325917 		.ascii	"e2Y\027\220\012\350\000\220+\224\177\023\350/\200\276"
ARM GAS  /tmp/ccvmwPLv.s 			page 93


 3716      900AE800 
 3716      902B947F 
 3716      13E82F80 
 3716      BE
 3717 009d C395930F 		.ascii	"\303\225\223\017T\221}\027\312\336\003\372>\320\217"
 3717      54917D17 
 3717      CADE03FA 
 3717      3ED08F
 3718 00ac 81FE0EE8 		.ascii	"\201\376\016\350W@\377\000\364\011\320?\003}\012Dd\026"
 3718      5740FF00 
 3718      F409D03F 
 3718      037D0A44 
 3718      6416
 3719 00be C2F765A0 		.ascii	"\302\367e\240f\271L\364\371D!\223\301?\331A\240]@n\\"
 3719      66B94CF4 
 3719      F9442193 
 3719      C13FD941 
 3719      A05D406E 
 3720 00d3 BBE483B8 		.ascii	"\273\344\203\2706l?\377\023*\374\322\246\016\257g\010"
 3720      366C3FFF 
 3720      132AFCD2 
 3720      A60EAF67 
 3720      08
 3721 00e4 546A81EF 		.ascii	"Tj\201\357\273@\203r\246\357\003\370~\010\364\210\350"
 3721      BB408372 
 3721      A6EF03F8 
 3721      7E08F488 
 3721      E8
 3722 00f5 0AF78738 		.ascii	"\012\367\2078[\336\001\032\206\353?\300\367\010|7\001"
 3722      5BDE011A 
 3722      86EB3FC0 
 3722      F7087C37 
 3722      01
 3723 0106 95018DCA 		.ascii	"\225\001\215\312\231?\036sv\277\015\364{ \027\240q\240"
 3723      993F1E73 
 3723      76BF0DF4 
 3723      7B2017A0 
 3723      71A0
 3724 0118 DF021582 		.ascii	"\337\002\025\202\234\177\002\032\203\272\023\300G\302"
 3724      9C7F021A 
 3724      83BA13C0 
 3724      47C2
 3725 0126 F53A5C4F 		.ascii	"\365:\\O\302\365\377\206\353)\370\376\022\276\317\001"
 3725      C2F5FF86 
 3725      EB29F8FE 
 3725      12BECF01 
 3726 0136 A5029D02 		.ascii	"\245\002\235\002:\0064\015\345\277\001J\207\353\031"
 3726      3A06340D 
 3726      E5BF014A 
 3726      87EB19
 3727 0145 A223D4E9 		.ascii	"\242#\324\351\006j\005\302\300\317\002\375\022\310\017"
 3727      066A05C2 
 3727      C0CF02FD 
 3727      12C80F
 3728 0154 EECFC1F7 		.ascii	"\356\317\301\367<P\001\320\317\200^\007z\002\364>\334"
 3728      3C5001D0 
 3728      CF805E07 
ARM GAS  /tmp/ccvmwPLv.s 			page 94


 3728      7A02F43E 
 3728      DC
 3729 0165 7B9DEBA7 		.ascii	"{\235\353\247\005\340\027\201\332\201\332\344\314wK"
 3729      05E01781 
 3729      DA81DAE4 
 3729      CC774B
 3730 0174 F0FD9F81 		.ascii	"\360\375\237\201\226\201V\200\376\032\350\333P^\007"
 3730      96815680 
 3730      FE1AE8DB 
 3730      505E07
 3731 0183 DF1A2027 		.ascii	"\337\032 ' \035P>\310\371\035\320o\201>\001r\206\262"
 3731      201D503E 
 3731      C8F91DD0 
 3731      6F813E01 
 3731      7286B2
 3732 0196 70F85E03 		.ascii	"p\370^\003\354*\220\026x5P\006\224\245\000%\001%\003"
 3732      EC2A9016 
 3732      78355006 
 3732      94A50025 
 3732      012503
 3733 01a9 65026503 		.ascii	"e\002e\003\251\340\336\035\300\365\003\365\001\351\201"
 3733      A9E0DE1D 
 3733      C0F503F5 
 3733      01E981
 3734 01b8 5702E5C1 		.ascii	"W\002\345\301\275W\341\333\007\276=\200\272\340\372"
 3734      BD57E1DB 
 3734      07BE3D80 
 3734      BAE0FA
 3735 01c7 35A05EA0 		.ascii	"5\240^\240o\000\365\003\365\001\365\000u\003\355\226"
 3735      6F00F503 
 3735      F501F500 
 3735      7503ED96 
 3736 01d7 B1385A23 		.ascii	"\2618Z#1\010\2040\213\233\177\346\342H\011\274\036\350"
 3736      31088430 
 3736      8B9B7FE6 
 3736      E24809BC 
 3736      1EE8
 3737 01e9 25A05780 		.ascii	"%\240W\200\366`\026coc\026o$\356\276\313\305 \211E\022"
 3737      F6601663 
 3737      6F63166F 
 3737      24EEBECB 
 3737      C5208945 
 3738 01fe 4F7CAC35 		.ascii	"O|\2545s\261'\374$a\3640\344\314\232>\026\243]:\244"
 3738      73B127FC 
 3738      2461F430 
 3738      E4CC9A3E 
 3738      16A35D3A 
 3739 0213 00F644EB 		.ascii	"\000\366D\353\225\026\035\260n:\364\026\260W\317f6:"
 3739      95161DB0 
 3739      6E3AF416 
 3739      B057CF66 
 3739      363A
 3740 0225 B3BBF108 		.ascii	"\263\273\361\010\370\364\364\354.\005\343#_\002>\242"
 3740      F8F4F4EC 
 3740      2E05E323 
 3740      5F023EA2 
 3741 0235 B3EEA196 		.ascii	"\263\356\241\226\301kM\004P\260=\221\352\312\000\224"
ARM GAS  /tmp/ccvmwPLv.s 			page 95


 3741      C16B4D04 
 3741      50B03D91 
 3741      EACA0094 
 3742 0245 BFB81C9B 		.ascii	"\277\270\034\233\252c\274\036\330\252\276\266,\027\206"
 3742      AA63BC1E 
 3742      D8AABEB6 
 3742      2C1786
 3743 0254 1F22AD3F 		.ascii	"\037\"\255?\031\016\315q\305rD\256ol\237\272\301\311"
 3743      190ECD71 
 3743      C57244AE 
 3743      6F6C9FBA 
 3743      C1C9
 3744 0266 D600FBA2 		.ascii	"\326\000\373\242*\365\266\016\253\350\255\345\233if"
 3744      2AF5B60E 
 3744      ABE8ADE5 
 3744      9B6966
 3745 0275 724BA543 		.ascii	"rK\245Cdh\252\241\250?\251\351cVb\202\317\027P2\326"
 3745      6468AAA1 
 3745      A83FA9E9 
 3745      63566282 
 3745      CF175032 
 3746 028a 7DD3A4C0 		.ascii	"}\323\244\300.\264\302Xb\347e\371\336\002\023\373h\376"
 3746      2EB4C258 
 3746      62E765F9 
 3746      DE0213FB 
 3746      68FE
 3747 029c 28434DC4 		.ascii	"(CM\304\227\360\371\241\023\271?lz~Z\217?\241\330g\245"
 3747      97F0F9A1 
 3747      13B93F6C 
 3747      7A7E5A8F 
 3747      3FA1D867 
 3748 02b1 85975C74 		.ascii	"\205\227\\t\221\004\230\021j\322\376\\\206\252\321\036"
 3748      91049811 
 3748      6AD2FE5C 
 3748      86AAD11E 
 3749 02c1 5485F6C8 		.ascii	"T\205\366\310P\013\242-4\243\275\250\021\312nA\031T"
 3749      500BA22D 
 3749      34A3BDA8 
 3749      11CA6E41 
 3749      1954
 3750 02d3 288E0F0E 		.ascii	"(\216\017\016\306\370\017\264r\337Z\315\206\036{\221"
 3750      C6F80FB4 
 3750      72DF5ACD 
 3750      861E7B91 
 3751 02e3 6B1C7C74 		.ascii	"k\034|tc\000#\335\036\004P\004\362BL\246l\023~U\206"
 3751      630023DD 
 3751      1E045004 
 3751      F2424CA6 
 3751      6C137E55 
 3752 02f8 3EDA83DE 		.ascii	">\332\203\336\007i\267AZ;\322\311P\007\000:A\326i\223"
 3752      0769B741 
 3752      5A3BD2C9 
 3752      5007003A 
 3752      41D66993 
 3753 030c 86169C36 		.ascii	"\206\026\2346\001\372\351\237\3515\310\214\034[\256"
 3753      01FAE99F 
 3753      E935C88C 
ARM GAS  /tmp/ccvmwPLv.s 			page 96


 3753      1C5BAE
 3754 031b 71D27102 		.ascii	"q\322q\002\302v\022\000\340\241\371\272x\254?J\300T"
 3754      C2761200 
 3754      E0A1F9BA 
 3754      78AC3F4A 
 3754      C054
 3755 032d 7B64463A 		.ascii	"{dF:\213\0012\324\205\364\254\237\007+\313\377\216\300"
 3755      8B0132D4 
 3755      85F4AC9F 
 3755      072BCBFF 
 3755      8EC0
 3756 033f 42778665 		.ascii	"Bw\206e\264Evh\361Aj\333\355\314\3658W\374\005\271V"
 3756      B4457668 
 3756      F1416ADB 
 3756      EDCCF538 
 3756      57FC05B9 
 3757 0354 CC0ED7C4 		.ascii	"\314\016\327\304j\220\273\273\373\356,\342\250\332\316"
 3757      6A90BBBB 
 3757      FBEE2CE2 
 3757      A8DACE
 3758 0363 DC1F9D5E 		.ascii	"\334\037\235^\2304\231\022^E\255 \251\0274\273\213v"
 3758      98349912 
 3758      5E45AD20 
 3758      A91734BB 
 3758      8B76
 3759 0375 0B24D6D3 		.ascii	"\013$\326\323\277\037\300\037Va\360\033)\246\3320\025"
 3759      BF1FC01F 
 3759      5661F01B 
 3759      29A6DA30 
 3759      15
 3760 0386 4537D8A1 		.ascii	"E7\330\241\367\222?\325\210\242\303BM\265+\311\257\346"
 3760      F7923FD5 
 3760      88A2C342 
 3760      4DB52BC9 
 3760      AFE6
 3761 0398 849A9AFF 		.ascii	"\204\232\232\377\015u#=j\223\206\023\331\307\211\354"
 3761      0D75233D 
 3761      6A938613 
 3761      D9C789EC 
 3762 03a8 7820A490 		.ascii	"x \244\220\241\233p\277\226t[\017W\201\364\333\035\344"
 3762      A19B70BF 
 3762      96745B0F 
 3762      5781F4DB 
 3762      1DE4
 3763 03ba 8EFA81FA 		.ascii	"\216\372\201\372\220;\027\361\303Q\313E\012|\036Q\033"
 3763      903B17F1 
 3763      C351CB45 
 3763      0A7C1E51 
 3763      1B
 3764 03cb 7B56AB0A 		.ascii	"{V\253\012u\273\245\305\014\354(\246+q\360\221\226\205"
 3764      75BBA5C5 
 3764      0CEC28A6 
 3764      2B71F091 
 3764      9685
 3765 03dd EB0F806D 		.ascii	"\353\017\200mK5\007s\201\336Ln\237o.\352\325s#\203\014"
 3765      4B350773 
 3765      81DE4C6E 
ARM GAS  /tmp/ccvmwPLv.s 			page 97


 3765      9F6F2EEA 
 3765      D5732383 
 3766 03f2 AC53E3ED 		.ascii	"\254S\343\355\013Z|\225\265z\362\322\315Mn\320\325\022"
 3766      0B5A7C95 
 3766      B57AF2D2 
 3766      CD4D6ED0 
 3766      D512
 3767 0404 BED7FCF0 		.ascii	"\276\327\374\360\034\306\265\354\346\265\360\027\327"
 3767      1CC6B5EC 
 3767      E6B5F017 
 3767      D7
 3768 0411 D570F33B 		.ascii	"\325p\363;,\330]\241\250\351\311\\/bE\004a:\361<\335"
 3768      2CD85DA1 
 3768      A8E9C95C 
 3768      2F624504 
 3768      613AF13C 
 3769 0426 19B73078 		.ascii	"\031\2670x\331\352\360\240\226E\213m\370\216\"Z\205"
 3769      D9EAF0A0 
 3769      96458B6D 
 3769      F88E225A 
 3769      85
 3770 0437 E83F0265 		.ascii	"\350?\002e\303,b\356\227\036\253\327\340.V{\363\\\347"
 3770      C32C62EE 
 3770      971EABD7 
 3770      E02E567B 
 3770      F35CE7
 3771 044a 5D0D1E60 		.ascii	"]\015\036`\314\330b\376\222+s\006\371 D\327\236q\220"
 3771      CCD862FE 
 3771      922B7306 
 3771      F92044D7 
 3771      9E7190
 3772 045d 32C1DCC0 		.ascii	"2\301\334\300\231\236\337ZxB'\214\271\011Q\357L\362"
 3772      999EDF5A 
 3772      7842278C 
 3772      B90951EF 
 3772      4CF2
 3773 046f C1143A76 		.ascii	"\301\024:vf\330\005\2170\341\215qa1:<\303\230\201\305"
 3773      66D8058F 
 3773      30E18D71 
 3773      61313A3C 
 3773      C39881C5 
 3774 0483 F3154ED2 		.ascii	"\363\025N\322JOK*]_~oJ\316<\366\276\300\201n\234\003"
 3774      4A4F4B2A 
 3774      5D5F7E6F 
 3774      4ACE3CF6 
 3774      BEC0816E 
 3775 0499 2F562D9E 		.ascii	"/V-\236S\341U&<\376\376\3725'lb\263Jg\333\210\001\037"
 3775      53E15526 
 3775      3CFEFEFA 
 3775      35276C62 
 3775      B34A67DB 
 3776 04b0 61D7234B 		.ascii	"a\327#K\005\027\344v\366=\205\006\237\211\354[\350L"
 3776      0517E476 
 3776      F63D8506 
 3776      9F89EC5B 
 3776      E84C
 3777 04c2 DA8F6359 		.ascii	"\332\217cY\235\304\326\250\031\235]\235\005\273:\335"
ARM GAS  /tmp/ccvmwPLv.s 			page 98


 3777      9DC4D6A8 
 3777      199D5D9D 
 3777      05BB3ADD 
 3778 04d2 C9CDAF08 		.ascii	"\311\315\257\010]\262(r\311\222e|\325\015\277\213OS"
 3778      5DB22872 
 3778      C992657C 
 3778      D50DBF8B 
 3778      4F53
 3779 04e4 D138F4F9 		.ascii	"\3218\364\371\370\357\321nwwQ\364\315A\0352v\250Z+\\"
 3779      F8EFD16E 
 3779      777751F4 
 3779      CD411D32 
 3779      76A85A2B 
 3780 04f9 F4AD41E4 		.ascii	"\364\255A\344\255\262\310\313\"M\324\256\266\375(y\211"
 3780      ADB2C8CB 
 3780      224DD4AE 
 3780      B6FD2879 
 3780      89
 3781 050a 0D3F108D 		.ascii	"\015?\020\215\2269\254\364\200\"\025\026^e\303\217\240"
 3781      9639ACF4 
 3781      80221516 
 3781      5E65C38F 
 3781      A0
 3782 051b 9F48A3C9 		.ascii	"\237H\243\311x\"\256ML~\214wK\353\264 \255\023\324z"
 3782      7822AE4D 
 3782      4C7E8C77 
 3782      4BEBB420 
 3782      AD13D47A 
 3783 052f 9C35FB35 		.ascii	"\2345\3735\326=\357\020Goo\375\021\3273\007>\233+iw"
 3783      D63DEF10 
 3783      476F6FFD 
 3783      11D73307 
 3783      3E9B2B69 
 3784 0544 C56D8C69 		.ascii	"\305m\214i\310Y\233\306v\336\334\004\261/D\336\254\231"
 3784      C8599BC6 
 3784      76DEDC04 
 3784      B12F44DE 
 3784      AC99
 3785 0556 1E3EA6C6 		.ascii	"\036>\246\306=\254\322\305\342\245D\265]\245-\273Jy"
 3785      3DACD2C5 
 3785      E2A544B5 
 3785      5DA52DBB 
 3785      4A79
 3786 0568 E7AB1F23 		.ascii	"\347\253\037#a\037l\213\2144\311Y\037\310\023\036\035"
 3786      611F6C8B 
 3786      8C34C959 
 3786      1FC8131E 
 3786      1D
 3787 0579 BDA804C7 		.ascii	"\275\250\004\307\037\347\246|j\243%\376\2102\301rfc"
 3787      1FE7A67C 
 3787      6AA325FE 
 3787      8832C172 
 3787      6663
 3788 058b 885CE0F3 		.ascii	"\210\\\340\363\326\013\330\224\363>\021C=H0\322\036"
 3788      D60BD894 
 3788      F33E1143 
 3788      3D4830D2 
ARM GAS  /tmp/ccvmwPLv.s 			page 99


 3788      1E
 3789 059c CC5B3A3E 		.ascii	"\314[:>\344\274[Z\372\226\275t\250\221;\375h\023\343"
 3789      E4BC5B5A 
 3789      FA96BD74 
 3789      A8913BFD 
 3789      6813E3
 3790 05af 07CCDCE1 		.ascii	"\007\314\334\341\373M\305.\370\021c\252WS\253]\3618"
 3790      FB4DC52E 
 3790      F81163AA 
 3790      5753AB5D 
 3790      F138
 3791 05c1 63DA47B7 		.ascii	"c\332G\267\027tx\2161\321'\347\316\273\340%\316\257"
 3791      1774788E 
 3791      31D127E7 
 3791      CEBBE025 
 3791      CEAF
 3792 05d3 8F7BE295 		.ascii	"\217{\342\225v.\212\224c\024%\027\272\250)\243\373\264"
 3792      762E8A94 
 3792      63142517 
 3792      BAA829A3 
 3792      FBB4
 3793 05e5 5EE8A228 		.ascii	"^\350\242(\221\025G9\027\241\356\215\310-\005\016\306"
 3793      91154739 
 3793      17A1EE8D 
 3793      C82D050E 
 3793      C6
 3794 05f6 54F89D98 		.ascii	"T\370\235\230\236{*\034\305\230\215\323\233%N\322\253"
 3794      9E7B2A1C 
 3794      C5988DD3 
 3794      9B254ED2 
 3794      AB
 3795 0607 658C5C6A 		.ascii	"e\214\\j\265l\354\314X\324\3408V{f<\257_\216O2&,\342"
 3795      B56CECCC 
 3795      58D4E038 
 3795      567B663C 
 3795      AF5F8E4F 
 3796 061f 748BFD70 		.ascii	"t\213\375p\214\003)\361\"\245K\267/\206c\234\316UZN"
 3796      8C0329F1 
 3796      22A54BB7 
 3796      2F86639C 
 3796      CE555A4E 
 3797 0633 5FB1B7F4 		.ascii	"_\261\267\364\270]\245Sy\355g4BK\023D\226&\362\226V"
 3797      B85DA553 
 3797      79ED6734 
 3797      424B1344 
 3797      9626F296 
 3798 0648 1E4F98D3 		.ascii	"\036O\230\323\340\\&|\254\363\312M\225\243J\350\004"
 3798      E05C267C 
 3798      ACF3CA4D 
 3798      95A34AE8 
 3798      04
 3799 0659 3462A937 		.ascii	"4b\2517\037\223\321\241\020BOB\\X\345\237\342q\017\223"
 3799      1F93D1A1 
 3799      10424F42 
 3799      5C58E59F 
 3799      E2710F93 
 3800 066d A3AB9D70 		.ascii	"\243\253\235p5\223\177=n\241B\213\353\030\023\2616R"
ARM GAS  /tmp/ccvmwPLv.s 			page 100


 3800      35937F3D 
 3800      6EA1428B 
 3800      EB1813B1 
 3800      3652
 3801 067f 0C038332 		.ascii	"\014\003\2032\332\230\353y\317\\\311\372\352\356\356"
 3801      DA98EB79 
 3801      CF5CC9FA 
 3801      EAEEEE
 3802 068e 06C4D6CC 		.ascii	"\006\304\326\314;\033\3567\022\246\350(?&\327\241dh"
 3802      3B1BEE37 
 3802      12A6E828 
 3802      3F26D7A1 
 3802      6468
 3803 06a0 3F5DEE26 		.ascii	"?]\356&\025u\014\337\375c6\310\011\370\364\216`\010"
 3803      15750CDF 
 3803      FD6336C8 
 3803      09F8F48E 
 3803      6008
 3804 06b2 E7C66637 		.ascii	"\347\306f7\266\304\036\320\243\244\257\002\257\334\336"
 3804      B6C41ED0 
 3804      A3A4AF02 
 3804      AFDCDE
 3805 06c1 C5C033B0 		.ascii	"\305\3003\260|\037\371*\364|+'\032\342\011E8F'H\015"
 3805      7C1FF92A 
 3805      F47C2B27 
 3805      1AE20945 
 3805      38462748 
 3806 06d6 11194593 		.ascii	"\021\031E\223 J\225\273\243\024\2404\240L\240\014\240"
 3806      204A95BB 
 3806      A314A034 
 3806      A04CA00C 
 3806      A0
 3807 06e7 B3405940 		.ascii	"\263@Y@g,#\023\354\036o\341\264#\206G\177\225v[\274"
 3807      672C2313 
 3807      EC1E6FE1 
 3807      B4238647 
 3807      7F95765B 
 3808 06fc E1D04728 		.ascii	"\341\320G(\366\253\320\013\277d>\205E\015\205;\006\013"
 3808      F6ABD00B 
 3808      BF643E85 
 3808      450D853B 
 3808      060B
 3809 070e 962837B6 		.ascii	"\226(7\266D\361;\351]l'=\035Z;\254\300\353\254\353k"
 3809      44F13BE9 
 3809      5D6C273D 
 3809      1D5A3BAC 
 3809      C0EBACEB 
 3810 0723 878EAD63 		.ascii	"\207\216\255c\270\367:,\361H\260\276\277\316\326\367"
 3810      B8F73A2C 
 3810      F148B0BE 
 3810      BFCED6F7 
 3811 0733 90C49E7C 		.ascii	"\220\304\236|-\336b\330\221\260\364_\353$v\223\271r"
 3811      2DDE62D8 
 3811      91B0F45F 
 3811      EB247693 
 3811      B972
 3812 0745 8A278EBA 		.ascii	"\212'\216\272 \337\203\316\313\367\010\346a76\017\237"
ARM GAS  /tmp/ccvmwPLv.s 			page 101


 3812      20DF83CE 
 3812      CBF708E6 
 3812      6137360F 
 3812      9F
 3813 0756 4C197F15 		.ascii	"L\031\177\025\207+\330|\021\263U\204q\214\202[\1773"
 3813      872BD87C 
 3813      11B35584 
 3813      718C825B 
 3813      7F33
 3814 0768 EFEBA5A4 		.ascii	"\357\353\245\244\346KJ}p\346\311\242\002\237`us\352"
 3814      E64B4A7D 
 3814      70E6C9A2 
 3814      029F6075 
 3814      73EA
 3815 077a 8BBAD438 		.ascii	"\213\272\3248\2051-e\005)Z)AE\222\2026N$\177\204\263"
 3815      85312D65 
 3815      05295A29 
 3815      41459282 
 3815      364E247F 
 3816 0790 59D5FC27 		.ascii	"Y\325\374'\313\325d\237\363\216\016\375Y\340\203w\230"
 3816      CBD5649F 
 3816      F38E0EFD 
 3816      59E08377 
 3816      98
 3817 07a1 0F1E16DD 		.ascii	"\017\036\026\335kP\340K\014\3321w$\201\333.\024\207"
 3817      6B50E04B 
 3817      0CDA3177 
 3817      2481DB2E 
 3817      1487
 3818 07b3 9A5E0EFE 		.ascii	"\232^\016\376@\260&]\221\323:\244\241Rh\3502khp\274"
 3818      40B0265D 
 3818      91D33AA4 
 3818      A15268E8 
 3818      326B6870 
 3819 07c8 FF929370 		.ascii	"\377\222\223px^\225\013"
 3819      785E950B 
 3820 07d0 F7BB65FC 		.ascii	"\367\273e\374\360,(\213IU\263^z\225x~\244\254\037\341"
 3820      F02C288B 
 3820      4955B35E 
 3820      7A95787E 
 3820      A4AC1FE1 
 3821 07e4 ABACD5BC 		.ascii	"\253\254\325\274\325\260\253\256\270\2121\331Yk!\012"
 3821      D5B0ABAE 
 3821      B88A31D9 
 3821      596B210A 
 3822 07f4 5CCBA95E 		.ascii	"\\\313\251^\026\223\243\260\233\204\252@\223j\321$4"
 3822      1693A3B0 
 3822      9B84AA40 
 3822      936AD124 
 3822      34
 3823 0805 3BBABCA0 		.ascii	";\272\274\240\301\235\254RF}u\207\375\332w\315\256R"
 3823      C19DAC52 
 3823      467D7587 
 3823      FDDA77CD 
 3823      AE52
 3824 0817 6B44F933 		.ascii	"kD\3713\265P\365\032\321\314u\235W=\263\317\034\202"
 3824      B550F51A 
ARM GAS  /tmp/ccvmwPLv.s 			page 102


 3824      D1CC759D 
 3824      573DB3CF 
 3824      1C82
 3825 0829 98EAE428 		.ascii	"\230\352\344(v{\353N\032\302\017X[k\311-9\316x\2141"
 3825      767BEB4E 
 3825      1AC20F58 
 3825      5B6BC92D 
 3825      39CE788C 
 3826 083e 09F9E63B 		.ascii	"\011\371\346;*<\311\031\265\275\030\247\3073\214\211"
 3826      2A3CC919 
 3826      B5BD18A7 
 3826      C7338C89 
 3827 084e 7A32F39A 		.ascii	"z2\363\232\235F\365\240Q\203H\243\334\351\206\020\255"
 3827      9D46F5A0 
 3827      518348A3 
 3827      DCE98610 
 3827      AD
 3828 085f 50A30691 		.ascii	"P\243\006\221F\267,s\335\265\254Ug\274Je\313\257\231"
 3828      46B72C73 
 3828      DDB5AC55 
 3828      67BC4A65 
 3828      CBAF99
 3829 0872 A7E6E50E 		.ascii	"\247\346\345\016W\331Fh\244\211[\007\233\205\253\354"
 3829      57D94668 
 3829      A4895B07 
 3829      9B85ABEC 
 3830 0882 442E4E2D 		.ascii	"D.N-\231\354\012&K-\010Fu\034\320\301\230[l\273\243"
 3830      99EC0A26 
 3830      4B2D0846 
 3830      751CD0C1 
 3830      985B6CBB 
 3831 0897 C697952C 		.ascii	"\306\227\225,\302\373\347{\365\270\2141\015\233%\347"
 3831      C2FBE77B 
 3831      F5B88C31 
 3831      0D9B25E7 
 3832 08a7 34B88631 		.ascii	"4\270\2061\2515\263&\373\035D\033\210\276-24\374\374"
 3832      A935B326 
 3832      FB1D441B 
 3832      88BE2D32 
 3832      34FCFC
 3833 08ba 85282DEE 		.ascii	"\205(-\356d\225\306/5\316\"\273J\355v\225\036\233_\264"
 3833      6495C62F 
 3833      35CE22BB 
 3833      4AED7695 
 3833      1E9B5FB4 
 3834 08ce 8942AD43 		.ascii	"\211B\255C\244n'\357\235\274\220\2119\214G\251pEY\356"
 3834      A46E27EF 
 3834      9DBC9089 
 3834      398C47A9 
 3834      704559EE 
 3835 08e2 BD1517B2 		.ascii	"\275\025\027\262\371s\227>{\020\335\2728\377\364\302"
 3835      F973973E 
 3835      7B10DDBA 
 3835      38FFF4C2 
 3836 08f2 7CD70DD4 		.ascii	"|\327\015\324#\364\323b\333\217R\256\230LQz\322\000"
 3836      23F4D362 
 3836      DB8F52AE 
ARM GAS  /tmp/ccvmwPLv.s 			page 103


 3836      984C517A 
 3836      D200
 3837 0904 DD0076D9 		.ascii	"\335\000v\331{I\260\001lL\335\225Mg\2751\230\301\315"
 3837      7B49B001 
 3837      6C4CDD95 
 3837      4D67BD31 
 3837      98C1CD
 3838 0917 725BB8E8 		.ascii	"r[\270\350\270F&\374\0247\006\357\344\266;\022\322\271"
 3838      B84626FC 
 3838      143706EF 
 3838      E4B63B12 
 3838      D2B9
 3839 0929 3E78B19D 		.ascii	">x\261\235\277\342\354\340\010\325\356\330\0142\033"
 3839      BFE2ECE0 
 3839      08D5EED8 
 3839      0C321B
 3840 0938 24565E75 		.ascii	"$V^u\302\223\314\335\027\372\202\307\344x\236\271\347"
 3840      C293CCDD 
 3840      17FA82C7 
 3840      E4789EB9 
 3840      E7
 3841 0949 615EF79C 		.ascii	"a^\367\234\226,\207n\374J\370~>\267\022\206\202\270"
 3841      962C876E 
 3841      FC4AF87E 
 3841      3EB71286 
 3841      82B8
 3842 095b 3B20F6DE 		.ascii	"; \366\336N+a\335\273\301t\326^\207\035`?\007\346g\014"
 3842      4E2B61DD 
 3842      BBC174D6 
 3842      5E871D60 
 3842      3F07E667 
 3843 0970 3BF00807 		.ascii	";\360\010\007\356\003\311\255\034\230\267\300v\265\262"
 3843      EE03C9AD 
 3843      1C98B7C0 
 3843      76B5B2
 3844 097f B55046D1 		.ascii	"\265PF\321\304\274\273`\332\000\320\240\305\274\211"
 3844      C4BCBB60 
 3844      DA00D0A0 
 3844      C5BC89
 3845 098e 95957E15 		.ascii	"\225\225~\025^\244\026\275\234z\365B\236\236-\360\334"
 3845      5EA416BD 
 3845      9C7AF542 
 3845      9E9E2DF0 
 3845      DC
 3846 099f 8774BE3B 		.ascii	"\207t\276;\363v\367\177J6\325\006\253P\001LRy\240\301"
 3846      F376F77F 
 3846      4A36D506 
 3846      AB50014C 
 3846      5279A0C1 
 3847 09b3 1468C2E6 		.ascii	"\024h\302\346Q\031\312\221\223\277\227\344\326\223\364"
 3847      5119CA91 
 3847      93BF97E4 
 3847      D693F4
 3848 09c2 6FACB6CD 		.ascii	"o\254\266\315#\006\266\3326k\323\221\013\177\303D\027"
 3848      2306B6DA 
 3848      366BD391 
 3848      0B7FC344 
ARM GAS  /tmp/ccvmwPLv.s 			page 104


 3848      17
 3849 09d3 83E84249 		.ascii	"\203\350BI\321\202 y8`\335\023\334\347\300V\037?B6\360"
 3849      D1822079 
 3849      3860DD13 
 3849      DCE7C056 
 3849      1F3F4236 
 3850 09e8 C1BD6C6D 		.ascii	"\301\275lm\204)\011U\332\301\313\345bM\306\357r\253"
 3850      84290955 
 3850      DAC1CBE5 
 3850      624DC6EF 
 3850      72AB
 3851 09fa 3489C021 		.ascii	"4\211\300!$-]\320\205\277f\302\311\202\033f'|\303\006"
 3851      242D5DD0 
 3851      85BF66C2 
 3851      C9821B66 
 3851      277CC306 
 3852 0a0e 3D5FA063 		.ascii	"=_\240c^!\335\321\302\301%:\221\251\322\321)\330\316"
 3852      5E21DDD1 
 3852      C2C1253A 
 3852      91A9D2D1 
 3852      29D8CE
 3853 0a21 4CD9A972 		.ascii	"L\331\251r\317F\370\302{V\217\327\312m=~\303\306\316"
 3853      CF46F8C2 
 3853      7B568FD7 
 3853      CA6D3D7E 
 3853      C3C6CE
 3854 0a34 C60ACE89 		.ascii	"\306\012\316\211]\260e\250p\340\026\336\213D\365vN\031"
 3854      5DB065A8 
 3854      70E016DE 
 3854      8B44F576 
 3854      4E19
 3855 0a46 12D9CFED 		.ascii	"\022\331\317\355\224\331\260z]4\306\036\000\342>\031"
 3855      94D9B07A 
 3855      5D34C61E 
 3855      00E23E19 
 3856 0a56 63715C13 		.ascii	"cq\\\023$\010\307 \000\347\200\306\201\206\201&\200"
 3856      2408C720 
 3856      00E780C6 
 3856      81868126 
 3856      80
 3857 0a67 66811E01 		.ascii	"f\201\036\001=\000\232\001\032\005\232\004z\010\364"
 3857      3D009A01 
 3857      1A059A04 
 3857      7A08F4
 3858 0a76 18681A68 		.ascii	"\030h\032h\004hH8\2754\336\345\214 \373\236\307\016"
 3858      04684838 
 3858      BD34DEE5 
 3858      8C20FB9E 
 3858      C70E
 3859 0a88 3C240885 		.ascii	"<$\010\205\255\252]a\241\246\344\177C\027!\316\316I"
 3859      ADAA5D61 
 3859      A1A6E47F 
 3859      431721CE 
 3859      CE49
 3860 0a9a C659B6DC 		.ascii	"\306Y\266\334\352\377JN:\254\303\250\304\316E9r\261"
 3860      EAFF4A4E 
 3860      3AACC3A8 
ARM GAS  /tmp/ccvmwPLv.s 			page 105


 3860      C4CE4539 
 3860      72B1
 3861 0aac FF3B0A39 		.ascii	"\377;\0129\017\221\205\340\246\035\274\336\252\014I"
 3861      0F9185E0 
