ARM GAS  /tmp/ccK9FAxv.s 			page 1


   1              		.cpu cortex-m4
   2              		.eabi_attribute 20, 1
   3              		.eabi_attribute 21, 1
   4              		.eabi_attribute 23, 3
   5              		.eabi_attribute 24, 1
   6              		.eabi_attribute 25, 1
   7              		.eabi_attribute 26, 1
   8              		.eabi_attribute 30, 2
   9              		.eabi_attribute 34, 1
  10              		.eabi_attribute 18, 4
  11              		.file	"hal_lld.c"
  12              		.file 1 "/usr/lib/gcc/arm-none-eabi/9.2.1/include/stddef.h"
  13              		.file 2 "/usr/lib/gcc/arm-none-eabi/9.2.1/include/stdint.h"
  14              		.file 3 "../../../../os/common/ports/ARM-common/chtypes.h"
  15              		.file 4 "../../../../os/rt/include/chearly.h"
  16              		.file 5 "../../../../os/rt/include/chobjects.h"
  17              		.file 6 "../../../../os/rt/include/chrfcu.h"
  18              		.file 7 "../../../../os/rt/include/chdebug.h"
  19              		.file 8 "../../../../os/rt/include/chtime.h"
  20              		.file 9 "../../../../os/rt/include/chlists.h"
  21              		.file 10 "../../../../os/rt/include/chtrace.h"
  22              		.file 11 "../../../../os/common/ext/ARM/CMSIS/Core/Include/core_cm4.h"
  23              		.file 12 "../../../../os/common/ext/ST/STM32F3xx/system_stm32f3xx.h"
  24              		.file 13 "../../../../os/common/ext/ST/STM32F3xx/stm32f303xc.h"
  25              		.file 14 "../../../../os/common/ports/ARMv7-M/chcore.h"
  26              		.file 15 "../../../../os/rt/include/chtm.h"
  27              		.file 16 "../../../../os/rt/include/chsem.h"
  28              		.file 17 "../../../../os/rt/include/chmtx.h"
  29              		.file 18 "../../../../os/rt/include/chsys.h"
  30              		.file 19 "../../../../os/rt/include/chregistry.h"
  31              		.file 20 "../../../../os/oslib/include/chmemcore.h"
  32              		.file 21 "../../../../os/oslib/include/chmempools.h"
  33              		.file 22 "../../../../os/oslib/include/chfactory.h"
  34              		.file 23 "../../../../os/hal/ports/STM32/LLD/DMAv1/stm32_dma.h"
  35              		.file 24 "../../../../os/hal/include/hal_adc.h"
  36              		.file 25 "../../../../os/hal/ports/STM32/LLD/ADCv3/hal_adc_lld.h"
  37              		.file 26 "../../../../os/hal/ports/STM32/STM32F3xx/hal_lld.c"
  38              		.section	.gnu.debuglto_.debug_info,"e",%progbits
  39              	.Ldebug_info0:
  40              		.hidden	hal_lld.c.497d7358
  41              		.weak	hal_lld.c.497d7358
  42              	hal_lld.c.497d7358:
  43 0000 73160000 		.4byte	0x1673
  44 0004 0400     		.2byte	0x4
  45 0006 00000000 		.4byte	.Ldebug_abbrev0
  46 000a 04       		.byte	0x4
  47 000b 01       		.uleb128 0x1
  48 000c 840B0000 		.4byte	.LASF304
  49 0010 0C       		.byte	0xc
  50 0011 8A0C0000 		.4byte	.LASF305
  51 0015 44020000 		.4byte	.LASF306
  52 0019 00000000 		.4byte	.Ldebug_line0
  53 001d 02       		.uleb128 0x2
  54 001e 04       		.byte	0x4
  55 001f 05       		.byte	0x5
  56 0020 696E7400 		.ascii	"int\000"
  57 0024 03       		.uleb128 0x3
ARM GAS  /tmp/ccK9FAxv.s 			page 2


  58 0025 18000000 		.4byte	.LASF5
  59 0029 01       		.byte	0x1
  60 002a D1       		.byte	0xd1
  61 002b 17       		.byte	0x17
  62 002c 30000000 		.4byte	0x30
  63 0030 04       		.uleb128 0x4
  64 0031 04       		.byte	0x4
  65 0032 07       		.byte	0x7
  66 0033 24070000 		.4byte	.LASF0
  67 0037 04       		.uleb128 0x4
  68 0038 08       		.byte	0x8
  69 0039 05       		.byte	0x5
  70 003a 71060000 		.4byte	.LASF1
  71 003e 04       		.uleb128 0x4
  72 003f 08       		.byte	0x8
  73 0040 04       		.byte	0x4
  74 0041 FE070000 		.4byte	.LASF2
  75 0045 04       		.uleb128 0x4
  76 0046 01       		.byte	0x1
  77 0047 06       		.byte	0x6
  78 0048 9A020000 		.4byte	.LASF3
  79 004c 04       		.uleb128 0x4
  80 004d 02       		.byte	0x2
  81 004e 05       		.byte	0x5
  82 004f 690A0000 		.4byte	.LASF4
  83 0053 03       		.uleb128 0x3
  84 0054 BC000000 		.4byte	.LASF6
  85 0058 02       		.byte	0x2
  86 0059 28       		.byte	0x28
  87 005a 18       		.byte	0x18
  88 005b 64000000 		.4byte	0x64
  89 005f 05       		.uleb128 0x5
  90 0060 53000000 		.4byte	0x53
  91 0064 04       		.uleb128 0x4
  92 0065 04       		.byte	0x4
  93 0066 05       		.byte	0x5
  94 0067 DC010000 		.4byte	.LASF7
  95 006b 03       		.uleb128 0x3
  96 006c AD020000 		.4byte	.LASF8
  97 0070 02       		.byte	0x2
  98 0071 2E       		.byte	0x2e
  99 0072 18       		.byte	0x18
 100 0073 7C000000 		.4byte	0x7c
 101 0077 06       		.uleb128 0x6
 102 0078 6B000000 		.4byte	0x6b
 103 007c 04       		.uleb128 0x4
 104 007d 01       		.byte	0x1
 105 007e 08       		.byte	0x8
 106 007f F2020000 		.4byte	.LASF9
 107 0083 03       		.uleb128 0x3
 108 0084 ED080000 		.4byte	.LASF10
 109 0088 02       		.byte	0x2
 110 0089 31       		.byte	0x31
 111 008a 19       		.byte	0x19
 112 008b 8F000000 		.4byte	0x8f
 113 008f 04       		.uleb128 0x4
 114 0090 02       		.byte	0x2
ARM GAS  /tmp/ccK9FAxv.s 			page 3


 115 0091 07       		.byte	0x7
 116 0092 C40C0000 		.4byte	.LASF11
 117 0096 03       		.uleb128 0x3
 118 0097 750C0000 		.4byte	.LASF12
 119 009b 02       		.byte	0x2
 120 009c 34       		.byte	0x34
 121 009d 19       		.byte	0x19
 122 009e A7000000 		.4byte	0xa7
 123 00a2 05       		.uleb128 0x5
 124 00a3 96000000 		.4byte	0x96
 125 00a7 04       		.uleb128 0x4
 126 00a8 04       		.byte	0x4
 127 00a9 07       		.byte	0x7
 128 00aa 1A050000 		.4byte	.LASF13
 129 00ae 03       		.uleb128 0x3
 130 00af A80A0000 		.4byte	.LASF14
 131 00b3 02       		.byte	0x2
 132 00b4 37       		.byte	0x37
 133 00b5 19       		.byte	0x19
 134 00b6 BF000000 		.4byte	0xbf
 135 00ba 05       		.uleb128 0x5
 136 00bb AE000000 		.4byte	0xae
 137 00bf 04       		.uleb128 0x4
 138 00c0 08       		.byte	0x8
 139 00c1 07       		.byte	0x7
 140 00c2 D6080000 		.4byte	.LASF15
 141 00c6 03       		.uleb128 0x3
 142 00c7 17070000 		.4byte	.LASF16
 143 00cb 03       		.byte	0x3
 144 00cc 36       		.byte	0x36
 145 00cd 1D       		.byte	0x1d
 146 00ce 96000000 		.4byte	0x96
 147 00d2 03       		.uleb128 0x3
 148 00d3 1B090000 		.4byte	.LASF17
 149 00d7 03       		.byte	0x3
 150 00d8 48       		.byte	0x48
 151 00d9 1D       		.byte	0x1d
 152 00da AE000000 		.4byte	0xae
 153 00de 03       		.uleb128 0x3
 154 00df 3E070000 		.4byte	.LASF18
 155 00e3 04       		.byte	0x4
 156 00e4 4D       		.byte	0x4d
 157 00e5 19       		.byte	0x19
 158 00e6 C6000000 		.4byte	0xc6
 159 00ea 03       		.uleb128 0x3
 160 00eb 11040000 		.4byte	.LASF19
 161 00ef 04       		.byte	0x4
 162 00f0 50       		.byte	0x50
 163 00f1 19       		.byte	0x19
 164 00f2 D2000000 		.4byte	0xd2
 165 00f6 03       		.uleb128 0x3
 166 00f7 BA090000 		.4byte	.LASF20
 167 00fb 04       		.byte	0x4
 168 00fc 53       		.byte	0x53
 169 00fd 19       		.byte	0x19
 170 00fe 6B000000 		.4byte	0x6b
 171 0102 03       		.uleb128 0x3
ARM GAS  /tmp/ccK9FAxv.s 			page 4


 172 0103 F2010000 		.4byte	.LASF21
 173 0107 04       		.byte	0x4
 174 0108 54       		.byte	0x54
 175 0109 19       		.byte	0x19
 176 010a 6B000000 		.4byte	0x6b
 177 010e 03       		.uleb128 0x3
 178 010f 4B0B0000 		.4byte	.LASF22
 179 0113 04       		.byte	0x4
 180 0114 55       		.byte	0x55
 181 0115 19       		.byte	0x19
 182 0116 6B000000 		.4byte	0x6b
 183 011a 03       		.uleb128 0x3
 184 011b 7B000000 		.4byte	.LASF23
 185 011f 04       		.byte	0x4
 186 0120 57       		.byte	0x57
 187 0121 19       		.byte	0x19
 188 0122 96000000 		.4byte	0x96
 189 0126 03       		.uleb128 0x3
 190 0127 0F090000 		.4byte	.LASF24
 191 012b 04       		.byte	0x4
 192 012c 58       		.byte	0x58
 193 012d 19       		.byte	0x19
 194 012e 53000000 		.4byte	0x53
 195 0132 03       		.uleb128 0x3
 196 0133 CC020000 		.4byte	.LASF25
 197 0137 04       		.byte	0x4
 198 0138 5A       		.byte	0x5a
 199 0139 19       		.byte	0x19
 200 013a 96000000 		.4byte	0x96
 201 013e 03       		.uleb128 0x3
 202 013f 66040000 		.4byte	.LASF26
 203 0143 04       		.byte	0x4
 204 0144 5C       		.byte	0x5c
 205 0145 19       		.byte	0x19
 206 0146 53000000 		.4byte	0x53
 207 014a 03       		.uleb128 0x3
 208 014b EF050000 		.4byte	.LASF27
 209 014f 04       		.byte	0x4
 210 0150 5D       		.byte	0x5d
 211 0151 19       		.byte	0x19
 212 0152 96000000 		.4byte	0x96
 213 0156 03       		.uleb128 0x3
 214 0157 B5020000 		.4byte	.LASF28
 215 015b 04       		.byte	0x4
 216 015c 80       		.byte	0x80
 217 015d 12       		.byte	0x12
 218 015e 30000000 		.4byte	0x30
 219 0162 03       		.uleb128 0x3
 220 0163 E6070000 		.4byte	.LASF29
 221 0167 04       		.byte	0x4
 222 0168 85       		.byte	0x85
 223 0169 1A       		.byte	0x1a
 224 016a 6E010000 		.4byte	0x16e
 225 016e 07       		.uleb128 0x7
 226 016f 76050000 		.4byte	.LASF44
 227 0173 48       		.byte	0x48
 228 0174 05       		.byte	0x5
ARM GAS  /tmp/ccK9FAxv.s 			page 5


 229 0175 9C       		.byte	0x9c
 230 0176 08       		.byte	0x8
 231 0177 51020000 		.4byte	0x251
 232 017b 08       		.uleb128 0x8
 233 017c 68647200 		.ascii	"hdr\000"
 234 0180 05       		.byte	0x5
 235 0181 AD       		.byte	0xad
 236 0182 05       		.byte	0x5
 237 0183 D00C0000 		.4byte	0xcd0
 238 0187 00       		.byte	0
 239 0188 08       		.uleb128 0x8
 240 0189 63747800 		.ascii	"ctx\000"
 241 018d 05       		.byte	0x5
 242 018e B1       		.byte	0xb1
 243 018f 21       		.byte	0x21
 244 0190 E40B0000 		.4byte	0xbe4
 245 0194 0C       		.byte	0xc
 246 0195 09       		.uleb128 0x9
 247 0196 56040000 		.4byte	.LASF30
 248 019a 05       		.byte	0x5
 249 019b B6       		.byte	0xb6
 250 019c 21       		.byte	0x21
 251 019d BB030000 		.4byte	0x3bb
 252 01a1 10       		.byte	0x10
 253 01a2 09       		.uleb128 0x9
 254 01a3 75000000 		.4byte	.LASF31
 255 01a7 05       		.byte	0x5
 256 01a8 BB       		.byte	0xbb
 257 01a9 22       		.byte	0x22
 258 01aa DD0D0000 		.4byte	0xddd
 259 01ae 18       		.byte	0x18
 260 01af 09       		.uleb128 0x9
 261 01b0 270A0000 		.4byte	.LASF32
 262 01b4 05       		.byte	0x5
 263 01b5 C0       		.byte	0xc0
 264 01b6 22       		.byte	0x22
 265 01b7 53030000 		.4byte	0x353
 266 01bb 1C       		.byte	0x1c
 267 01bc 09       		.uleb128 0x9
 268 01bd 81090000 		.4byte	.LASF33
 269 01c1 05       		.byte	0x5
 270 01c2 C9       		.byte	0xc9
 271 01c3 22       		.byte	0x22
 272 01c4 E30D0000 		.4byte	0xde3
 273 01c8 20       		.byte	0x20
 274 01c9 09       		.uleb128 0x9
 275 01ca 49010000 		.4byte	.LASF34
 276 01ce 05       		.byte	0x5
 277 01cf CE       		.byte	0xce
 278 01d0 21       		.byte	0x21
 279 01d1 02010000 		.4byte	0x102
 280 01d5 24       		.byte	0x24
 281 01d6 09       		.uleb128 0x9
 282 01d7 0B040000 		.4byte	.LASF35
 283 01db 05       		.byte	0x5
 284 01dc D2       		.byte	0xd2
 285 01dd 21       		.byte	0x21
ARM GAS  /tmp/ccK9FAxv.s 			page 6


 286 01de F6000000 		.4byte	0xf6
 287 01e2 25       		.byte	0x25
 288 01e3 09       		.uleb128 0x9
 289 01e4 35090000 		.4byte	.LASF36
 290 01e8 05       		.byte	0x5
 291 01e9 D7       		.byte	0xd7
 292 01ea 21       		.byte	0x21
 293 01eb 0E010000 		.4byte	0x10e
 294 01ef 26       		.byte	0x26
 295 01f0 0A       		.uleb128 0xa
 296 01f1 7500     		.ascii	"u\000"
 297 01f3 05       		.byte	0x5
 298 01f4 2801     		.2byte	0x128
 299 01f6 21       		.byte	0x21
 300 01f7 FE0C0000 		.4byte	0xcfe
 301 01fb 28       		.byte	0x28
 302 01fc 0B       		.uleb128 0xb
 303 01fd 240B0000 		.4byte	.LASF37
 304 0201 05       		.byte	0x5
 305 0202 2D01     		.2byte	0x12d
 306 0204 21       		.byte	0x21
 307 0205 8E030000 		.4byte	0x38e
 308 0209 2C       		.byte	0x2c
 309 020a 0B       		.uleb128 0xb
 310 020b C80A0000 		.4byte	.LASF38
 311 020f 05       		.byte	0x5
 312 0210 3301     		.2byte	0x133
 313 0212 21       		.byte	0x21
 314 0213 BB030000 		.4byte	0x3bb
 315 0217 30       		.byte	0x30
 316 0218 0B       		.uleb128 0xb
 317 0219 FB010000 		.4byte	.LASF39
 318 021d 05       		.byte	0x5
 319 021e 3901     		.2byte	0x139
 320 0220 21       		.byte	0x21
 321 0221 32010000 		.4byte	0x132
 322 0225 38       		.byte	0x38
 323 0226 0B       		.uleb128 0xb
 324 0227 5C060000 		.4byte	.LASF40
 325 022b 05       		.byte	0x5
 326 022c 4001     		.2byte	0x140
 327 022e 22       		.byte	0x22
 328 022f D70D0000 		.4byte	0xdd7
 329 0233 3C       		.byte	0x3c
 330 0234 0B       		.uleb128 0xb
 331 0235 E6050000 		.4byte	.LASF41
 332 0239 05       		.byte	0x5
 333 023a 4401     		.2byte	0x144
 334 023c 21       		.byte	0x21
 335 023d 1A010000 		.4byte	0x11a
 336 0241 40       		.byte	0x40
 337 0242 0B       		.uleb128 0xb
 338 0243 2D040000 		.4byte	.LASF42
 339 0247 05       		.byte	0x5
 340 0248 4B01     		.2byte	0x14b
 341 024a 22       		.byte	0x22
 342 024b AD040000 		.4byte	0x4ad
ARM GAS  /tmp/ccK9FAxv.s 			page 7


 343 024f 44       		.byte	0x44
 344 0250 00       		.byte	0
 345 0251 03       		.uleb128 0x3
 346 0252 46070000 		.4byte	.LASF43
 347 0256 04       		.byte	0x4
 348 0257 8A       		.byte	0x8a
 349 0258 1F       		.byte	0x1f
 350 0259 5D020000 		.4byte	0x25d
 351 025d 0C       		.uleb128 0xc
 352 025e BE040000 		.4byte	.LASF45
 353 0262 9808     		.2byte	0x898
 354 0264 05       		.byte	0x5
 355 0265 8A01     		.2byte	0x18a
 356 0267 08       		.byte	0x8
 357 0268 EB020000 		.4byte	0x2eb
 358 026c 0B       		.uleb128 0xb
 359 026d B4090000 		.4byte	.LASF46
 360 0271 05       		.byte	0x5
 361 0272 8E01     		.2byte	0x18e
 362 0274 21       		.byte	0x21
 363 0275 140E0000 		.4byte	0xe14
 364 0279 00       		.byte	0
 365 027a 0B       		.uleb128 0xb
 366 027b 1D0B0000 		.4byte	.LASF47
 367 027f 05       		.byte	0x5
 368 0280 9201     		.2byte	0x192
 369 0282 21       		.byte	0x21
 370 0283 910C0000 		.4byte	0xc91
 371 0287 10       		.byte	0x10
 372 0288 0B       		.uleb128 0xb
 373 0289 EC0A0000 		.4byte	.LASF48
 374 028d 05       		.byte	0x5
 375 028e 9901     		.2byte	0x199
 376 0290 21       		.byte	0x21
 377 0291 B80C0000 		.4byte	0xcb8
 378 0295 28       		.byte	0x28
 379 0296 0B       		.uleb128 0xb
 380 0297 1C040000 		.4byte	.LASF49
 381 029b 05       		.byte	0x5
 382 029c 9E01     		.2byte	0x19e
 383 029e 21       		.byte	0x21
 384 029f 56010000 		.4byte	0x156
 385 02a3 30       		.byte	0x30
 386 02a4 0B       		.uleb128 0xb
 387 02a5 C30A0000 		.4byte	.LASF50
 388 02a9 05       		.byte	0x5
 389 02aa A401     		.2byte	0x1a4
 390 02ac 21       		.byte	0x21
 391 02ad 12030000 		.4byte	0x312
 392 02b1 34       		.byte	0x34
 393 02b2 0B       		.uleb128 0xb
 394 02b3 42010000 		.4byte	.LASF51
 395 02b7 05       		.byte	0x5
 396 02b8 A901     		.2byte	0x1a9
 397 02ba 22       		.byte	0x22
 398 02bb 880E0000 		.4byte	0xe88
 399 02bf 38       		.byte	0x38
ARM GAS  /tmp/ccK9FAxv.s 			page 8


 400 02c0 0B       		.uleb128 0xb
 401 02c1 62090000 		.4byte	.LASF52
 402 02c5 05       		.byte	0x5
 403 02c6 AD01     		.2byte	0x1ad
 404 02c8 21       		.byte	0x21
 405 02c9 62010000 		.4byte	0x162
 406 02cd 3C       		.byte	0x3c
 407 02ce 0A       		.uleb128 0xa
 408 02cf 64626700 		.ascii	"dbg\000"
 409 02d3 05       		.byte	0x5
 410 02d4 B101     		.2byte	0x1b1
 411 02d6 21       		.byte	0x21
 412 02d7 6A030000 		.4byte	0x36a
 413 02db 84       		.byte	0x84
 414 02dc 0B       		.uleb128 0xb
 415 02dd 67030000 		.4byte	.LASF53
 416 02e1 05       		.byte	0x5
 417 02e2 B601     		.2byte	0x1b6
 418 02e4 21       		.byte	0x21
 419 02e5 1C060000 		.4byte	0x61c
 420 02e9 90       		.byte	0x90
 421 02ea 00       		.byte	0
 422 02eb 03       		.uleb128 0x3
 423 02ec 3F050000 		.4byte	.LASF54
 424 02f0 06       		.byte	0x6
 425 02f1 3F       		.byte	0x3f
 426 02f2 12       		.byte	0x12
 427 02f3 96000000 		.4byte	0x96
 428 02f7 07       		.uleb128 0x7
 429 02f8 58010000 		.4byte	.LASF55
 430 02fc 04       		.byte	0x4
 431 02fd 06       		.byte	0x6
 432 02fe 44       		.byte	0x44
 433 02ff 10       		.byte	0x10
 434 0300 12030000 		.4byte	0x312
 435 0304 09       		.uleb128 0x9
 436 0305 C8060000 		.4byte	.LASF56
 437 0309 06       		.byte	0x6
 438 030a 48       		.byte	0x48
 439 030b 21       		.byte	0x21
 440 030c EB020000 		.4byte	0x2eb
 441 0310 00       		.byte	0
 442 0311 00       		.byte	0
 443 0312 03       		.uleb128 0x3
 444 0313 22060000 		.4byte	.LASF57
 445 0317 06       		.byte	0x6
 446 0318 49       		.byte	0x49
 447 0319 03       		.byte	0x3
 448 031a F7020000 		.4byte	0x2f7
 449 031e 07       		.uleb128 0x7
 450 031f D10A0000 		.4byte	.LASF58
 451 0323 0C       		.byte	0xc
 452 0324 07       		.byte	0x7
 453 0325 3E       		.byte	0x3e
 454 0326 10       		.byte	0x10
 455 0327 53030000 		.4byte	0x353
 456 032b 09       		.uleb128 0x9
ARM GAS  /tmp/ccK9FAxv.s 			page 9


 457 032c 52030000 		.4byte	.LASF59
 458 0330 07       		.byte	0x7
 459 0331 46       		.byte	0x46
 460 0332 24       		.byte	0x24
 461 0333 59030000 		.4byte	0x359
 462 0337 00       		.byte	0
 463 0338 09       		.uleb128 0x9
 464 0339 9B080000 		.4byte	.LASF60
 465 033d 07       		.byte	0x7
 466 033e 4B       		.byte	0x4b
 467 033f 19       		.byte	0x19
 468 0340 3E010000 		.4byte	0x13e
 469 0344 04       		.byte	0x4
 470 0345 09       		.uleb128 0x9
 471 0346 4F010000 		.4byte	.LASF61
 472 034a 07       		.byte	0x7
 473 034b 4F       		.byte	0x4f
 474 034c 19       		.byte	0x19
 475 034d 3E010000 		.4byte	0x13e
 476 0351 08       		.byte	0x8
 477 0352 00       		.byte	0
 478 0353 0D       		.uleb128 0xd
 479 0354 04       		.byte	0x4
 480 0355 65030000 		.4byte	0x365
 481 0359 05       		.uleb128 0x5
 482 035a 53030000 		.4byte	0x353
 483 035e 04       		.uleb128 0x4
 484 035f 01       		.byte	0x1
 485 0360 08       		.byte	0x8
 486 0361 C5030000 		.4byte	.LASF62
 487 0365 06       		.uleb128 0x6
 488 0366 5E030000 		.4byte	0x35e
 489 036a 03       		.uleb128 0x3
 490 036b 7F030000 		.4byte	.LASF63
 491 036f 07       		.byte	0x7
 492 0370 51       		.byte	0x51
 493 0371 03       		.byte	0x3
 494 0372 1E030000 		.4byte	0x31e
 495 0376 03       		.uleb128 0x3
 496 0377 36000000 		.4byte	.LASF64
 497 037b 08       		.byte	0x8
 498 037c 6D       		.byte	0x6d
 499 037d 12       		.byte	0x12
 500 037e 96000000 		.4byte	0x96
 501 0382 03       		.uleb128 0x3
 502 0383 7F060000 		.4byte	.LASF65
 503 0387 08       		.byte	0x8
 504 0388 79       		.byte	0x79
 505 0389 12       		.byte	0x12
 506 038a 96000000 		.4byte	0x96
 507 038e 03       		.uleb128 0x3
 508 038f 04020000 		.4byte	.LASF66
 509 0393 09       		.byte	0x9
 510 0394 32       		.byte	0x32
 511 0395 18       		.byte	0x18
 512 0396 9A030000 		.4byte	0x39a
 513 039a 07       		.uleb128 0x7
ARM GAS  /tmp/ccK9FAxv.s 			page 10


 514 039b 29020000 		.4byte	.LASF67
 515 039f 04       		.byte	0x4
 516 03a0 09       		.byte	0x9
 517 03a1 38       		.byte	0x38
 518 03a2 08       		.byte	0x8
 519 03a3 B5030000 		.4byte	0x3b5
 520 03a7 09       		.uleb128 0x9
 521 03a8 570D0000 		.4byte	.LASF68
 522 03ac 09       		.byte	0x9
 523 03ad 39       		.byte	0x39
 524 03ae 1A       		.byte	0x1a
 525 03af B5030000 		.4byte	0x3b5
 526 03b3 00       		.byte	0
 527 03b4 00       		.byte	0
 528 03b5 0D       		.uleb128 0xd
 529 03b6 04       		.byte	0x4
 530 03b7 8E030000 		.4byte	0x38e
 531 03bb 03       		.uleb128 0x3
 532 03bc 2C050000 		.4byte	.LASF69
 533 03c0 09       		.byte	0x9
 534 03c1 3F       		.byte	0x3f
 535 03c2 19       		.byte	0x19
 536 03c3 C7030000 		.4byte	0x3c7
 537 03c7 07       		.uleb128 0x7
 538 03c8 FB0A0000 		.4byte	.LASF70
 539 03cc 08       		.byte	0x8
 540 03cd 09       		.byte	0x9
 541 03ce 45       		.byte	0x45
 542 03cf 08       		.byte	0x8
 543 03d0 EF030000 		.4byte	0x3ef
 544 03d4 09       		.uleb128 0x9
 545 03d5 570D0000 		.4byte	.LASF68
 546 03d9 09       		.byte	0x9
 547 03da 46       		.byte	0x46
 548 03db 1A       		.byte	0x1a
 549 03dc EF030000 		.4byte	0x3ef
 550 03e0 00       		.byte	0
 551 03e1 09       		.uleb128 0x9
 552 03e2 620D0000 		.4byte	.LASF71
 553 03e6 09       		.byte	0x9
 554 03e7 47       		.byte	0x47
 555 03e8 1A       		.byte	0x1a
 556 03e9 EF030000 		.4byte	0x3ef
 557 03ed 04       		.byte	0x4
 558 03ee 00       		.byte	0
 559 03ef 0D       		.uleb128 0xd
 560 03f0 04       		.byte	0x4
 561 03f1 BB030000 		.4byte	0x3bb
 562 03f5 03       		.uleb128 0x3
 563 03f6 A0060000 		.4byte	.LASF72
 564 03fa 09       		.byte	0x9
 565 03fb 4E       		.byte	0x4e
 566 03fc 22       		.byte	0x22
 567 03fd 01040000 		.4byte	0x401
 568 0401 07       		.uleb128 0x7
 569 0402 960A0000 		.4byte	.LASF73
 570 0406 0C       		.byte	0xc
ARM GAS  /tmp/ccK9FAxv.s 			page 11


 571 0407 09       		.byte	0x9
 572 0408 55       		.byte	0x55
 573 0409 08       		.byte	0x8
 574 040a 36040000 		.4byte	0x436
 575 040e 09       		.uleb128 0x9
 576 040f 570D0000 		.4byte	.LASF68
 577 0413 09       		.byte	0x9
 578 0414 56       		.byte	0x56
 579 0415 1A       		.byte	0x1a
 580 0416 36040000 		.4byte	0x436
 581 041a 00       		.byte	0
 582 041b 09       		.uleb128 0x9
 583 041c 620D0000 		.4byte	.LASF71
 584 0420 09       		.byte	0x9
 585 0421 57       		.byte	0x57
 586 0422 1A       		.byte	0x1a
 587 0423 36040000 		.4byte	0x436
 588 0427 04       		.byte	0x4
 589 0428 09       		.uleb128 0x9
 590 0429 B2010000 		.4byte	.LASF74
 591 042d 09       		.byte	0x9
 592 042e 58       		.byte	0x58
 593 042f 19       		.byte	0x19
 594 0430 1A010000 		.4byte	0x11a
 595 0434 08       		.byte	0x8
 596 0435 00       		.byte	0
 597 0436 0D       		.uleb128 0xd
 598 0437 04       		.byte	0x4
 599 0438 F5030000 		.4byte	0x3f5
 600 043c 03       		.uleb128 0x3
 601 043d 08000000 		.4byte	.LASF75
 602 0441 09       		.byte	0x9
 603 0442 5F       		.byte	0x5f
 604 0443 1E       		.byte	0x1e
 605 0444 48040000 		.4byte	0x448
 606 0448 07       		.uleb128 0x7
 607 0449 B8070000 		.4byte	.LASF76
 608 044d 0C       		.byte	0xc
 609 044e 09       		.byte	0x9
 610 044f 64       		.byte	0x64
 611 0450 08       		.byte	0x8
 612 0451 7D040000 		.4byte	0x47d
 613 0455 09       		.uleb128 0x9
 614 0456 570D0000 		.4byte	.LASF68
 615 045a 09       		.byte	0x9
 616 045b 65       		.byte	0x65
 617 045c 1A       		.byte	0x1a
 618 045d 7D040000 		.4byte	0x47d
 619 0461 00       		.byte	0
 620 0462 09       		.uleb128 0x9
 621 0463 620D0000 		.4byte	.LASF71
 622 0467 09       		.byte	0x9
 623 0468 66       		.byte	0x66
 624 0469 1A       		.byte	0x1a
 625 046a 7D040000 		.4byte	0x47d
 626 046e 04       		.byte	0x4
 627 046f 09       		.uleb128 0x9
ARM GAS  /tmp/ccK9FAxv.s 			page 12


 628 0470 15090000 		.4byte	.LASF77
 629 0474 09       		.byte	0x9
 630 0475 67       		.byte	0x67
 631 0476 19       		.byte	0x19
 632 0477 82030000 		.4byte	0x382
 633 047b 08       		.byte	0x8
 634 047c 00       		.byte	0
 635 047d 0D       		.uleb128 0xd
 636 047e 04       		.byte	0x4
 637 047f 3C040000 		.4byte	0x43c
 638 0483 0E       		.uleb128 0xe
 639 0484 08       		.byte	0x8
 640 0485 0A       		.byte	0xa
 641 0486 83       		.byte	0x83
 642 0487 05       		.byte	0x5
 643 0488 A7040000 		.4byte	0x4a7
 644 048c 08       		.uleb128 0x8
 645 048d 6E747000 		.ascii	"ntp\000"
 646 0491 0A       		.byte	0xa
 647 0492 87       		.byte	0x87
 648 0493 1E       		.byte	0x1e
 649 0494 A7040000 		.4byte	0x4a7
 650 0498 00       		.byte	0
 651 0499 09       		.uleb128 0x9
 652 049a EC030000 		.4byte	.LASF78
 653 049e 0A       		.byte	0xa
 654 049f 8B       		.byte	0x8b
 655 04a0 1E       		.byte	0x1e
 656 04a1 AD040000 		.4byte	0x4ad
 657 04a5 04       		.byte	0x4
 658 04a6 00       		.byte	0
 659 04a7 0D       		.uleb128 0xd
 660 04a8 04       		.byte	0x4
 661 04a9 62010000 		.4byte	0x162
 662 04ad 0F       		.uleb128 0xf
 663 04ae 04       		.byte	0x4
 664 04af 0E       		.uleb128 0xe
 665 04b0 08       		.byte	0x8
 666 04b1 0A       		.byte	0xa
 667 04b2 90       		.byte	0x90
 668 04b3 05       		.byte	0x5
 669 04b4 D2040000 		.4byte	0x4d2
 670 04b8 08       		.uleb128 0x8
 671 04b9 747000   		.ascii	"tp\000"
 672 04bc 0A       		.byte	0xa
 673 04bd 94       		.byte	0x94
 674 04be 1E       		.byte	0x1e
 675 04bf A7040000 		.4byte	0x4a7
 676 04c3 00       		.byte	0
 677 04c4 08       		.uleb128 0x8
 678 04c5 6D736700 		.ascii	"msg\000"
 679 04c9 0A       		.byte	0xa
 680 04ca 98       		.byte	0x98
 681 04cb 1D       		.byte	0x1d
 682 04cc 26010000 		.4byte	0x126
 683 04d0 04       		.byte	0x4
 684 04d1 00       		.byte	0
ARM GAS  /tmp/ccK9FAxv.s 			page 13


 685 04d2 0E       		.uleb128 0xe
 686 04d3 04       		.byte	0x4
 687 04d4 0A       		.byte	0xa
 688 04d5 9D       		.byte	0x9d
 689 04d6 05       		.byte	0x5
 690 04d7 E9040000 		.4byte	0x4e9
 691 04db 09       		.uleb128 0x9
 692 04dc 270A0000 		.4byte	.LASF32
 693 04e0 0A       		.byte	0xa
 694 04e1 A1       		.byte	0xa1
 695 04e2 1E       		.byte	0x1e
 696 04e3 53030000 		.4byte	0x353
 697 04e7 00       		.byte	0
 698 04e8 00       		.byte	0
 699 04e9 0E       		.uleb128 0xe
 700 04ea 04       		.byte	0x4
 701 04eb 0A       		.byte	0xa
 702 04ec A6       		.byte	0xa6
 703 04ed 05       		.byte	0x5
 704 04ee 00050000 		.4byte	0x500
 705 04f2 09       		.uleb128 0x9
 706 04f3 40090000 		.4byte	.LASF79
 707 04f7 0A       		.byte	0xa
 708 04f8 AA       		.byte	0xaa
 709 04f9 1E       		.byte	0x1e
 710 04fa 53030000 		.4byte	0x353
 711 04fe 00       		.byte	0
 712 04ff 00       		.byte	0
 713 0500 0E       		.uleb128 0xe
 714 0501 08       		.byte	0x8
 715 0502 0A       		.byte	0xa
 716 0503 AF       		.byte	0xaf
 717 0504 05       		.byte	0x5
 718 0505 24050000 		.4byte	0x524
 719 0509 08       		.uleb128 0x8
 720 050a 75703100 		.ascii	"up1\000"
 721 050e 0A       		.byte	0xa
 722 050f B3       		.byte	0xb3
 723 0510 1E       		.byte	0x1e
 724 0511 AD040000 		.4byte	0x4ad
 725 0515 00       		.byte	0
 726 0516 08       		.uleb128 0x8
 727 0517 75703200 		.ascii	"up2\000"
 728 051b 0A       		.byte	0xa
 729 051c B7       		.byte	0xb7
 730 051d 1E       		.byte	0x1e
 731 051e AD040000 		.4byte	0x4ad
 732 0522 04       		.byte	0x4
 733 0523 00       		.byte	0
 734 0524 10       		.uleb128 0x10
 735 0525 08       		.byte	0x8
 736 0526 0A       		.byte	0xa
 737 0527 7F       		.byte	0x7f
 738 0528 03       		.byte	0x3
 739 0529 69050000 		.4byte	0x569
 740 052d 11       		.uleb128 0x11
 741 052e 737700   		.ascii	"sw\000"
ARM GAS  /tmp/ccK9FAxv.s 			page 14


 742 0531 0A       		.byte	0xa
 743 0532 8C       		.byte	0x8c
 744 0533 07       		.byte	0x7
 745 0534 83040000 		.4byte	0x483
 746 0538 11       		.uleb128 0x11
 747 0539 72647900 		.ascii	"rdy\000"
 748 053d 0A       		.byte	0xa
 749 053e 99       		.byte	0x99
 750 053f 07       		.byte	0x7
 751 0540 AF040000 		.4byte	0x4af
 752 0544 11       		.uleb128 0x11
 753 0545 69737200 		.ascii	"isr\000"
 754 0549 0A       		.byte	0xa
 755 054a A2       		.byte	0xa2
 756 054b 07       		.byte	0x7
 757 054c D2040000 		.4byte	0x4d2
 758 0550 12       		.uleb128 0x12
 759 0551 75090000 		.4byte	.LASF80
 760 0555 0A       		.byte	0xa
 761 0556 AB       		.byte	0xab
 762 0557 07       		.byte	0x7
 763 0558 E9040000 		.4byte	0x4e9
 764 055c 12       		.uleb128 0x12
 765 055d B7000000 		.4byte	.LASF81
 766 0561 0A       		.byte	0xa
 767 0562 B8       		.byte	0xb8
 768 0563 07       		.byte	0x7
 769 0564 00050000 		.4byte	0x500
 770 0568 00       		.byte	0
 771 0569 0E       		.uleb128 0xe
 772 056a 10       		.byte	0x10
 773 056b 0A       		.byte	0xa
 774 056c 6C       		.byte	0x6c
 775 056d 09       		.byte	0x9
 776 056e BB050000 		.4byte	0x5bb
 777 0572 13       		.uleb128 0x13
 778 0573 66010000 		.4byte	.LASF82
 779 0577 0A       		.byte	0xa
 780 0578 70       		.byte	0x70
 781 0579 19       		.byte	0x19
 782 057a 96000000 		.4byte	0x96
 783 057e 04       		.byte	0x4
 784 057f 03       		.byte	0x3
 785 0580 1D       		.byte	0x1d
 786 0581 00       		.byte	0
 787 0582 13       		.uleb128 0x13
 788 0583 49010000 		.4byte	.LASF34
 789 0587 0A       		.byte	0xa
 790 0588 74       		.byte	0x74
 791 0589 19       		.byte	0x19
 792 058a 96000000 		.4byte	0x96
 793 058e 04       		.byte	0x4
 794 058f 05       		.byte	0x5
 795 0590 18       		.byte	0x18
 796 0591 00       		.byte	0
 797 0592 13       		.uleb128 0x13
 798 0593 29010000 		.4byte	.LASF83
ARM GAS  /tmp/ccK9FAxv.s 			page 15


 799 0597 0A       		.byte	0xa
 800 0598 7A       		.byte	0x7a
 801 0599 19       		.byte	0x19
 802 059a 96000000 		.4byte	0x96
 803 059e 04       		.byte	0x4
 804 059f 18       		.byte	0x18
 805 05a0 00       		.byte	0
 806 05a1 00       		.byte	0
 807 05a2 09       		.uleb128 0x9
 808 05a3 A1090000 		.4byte	.LASF84
 809 05a7 0A       		.byte	0xa
 810 05a8 7E       		.byte	0x7e
 811 05a9 19       		.byte	0x19
 812 05aa 76030000 		.4byte	0x376
 813 05ae 04       		.byte	0x4
 814 05af 08       		.uleb128 0x8
 815 05b0 7500     		.ascii	"u\000"
 816 05b2 0A       		.byte	0xa
 817 05b3 B9       		.byte	0xb9
 818 05b4 05       		.byte	0x5
 819 05b5 24050000 		.4byte	0x524
 820 05b9 08       		.byte	0x8
 821 05ba 00       		.byte	0
 822 05bb 03       		.uleb128 0x3
 823 05bc 1D080000 		.4byte	.LASF85
 824 05c0 0A       		.byte	0xa
 825 05c1 BA       		.byte	0xba
 826 05c2 03       		.byte	0x3
 827 05c3 69050000 		.4byte	0x569
 828 05c7 14       		.uleb128 0x14
 829 05c8 0808     		.2byte	0x808
 830 05ca 0A       		.byte	0xa
 831 05cb C0       		.byte	0xc0
 832 05cc 09       		.byte	0x9
 833 05cd 06060000 		.4byte	0x606
 834 05d1 09       		.uleb128 0x9
 835 05d2 EC090000 		.4byte	.LASF86
 836 05d6 0A       		.byte	0xa
 837 05d7 C4       		.byte	0xc4
 838 05d8 19       		.byte	0x19
 839 05d9 83000000 		.4byte	0x83
 840 05dd 00       		.byte	0
 841 05de 09       		.uleb128 0x9
 842 05df D1080000 		.4byte	.LASF87
 843 05e3 0A       		.byte	0xa
 844 05e4 C8       		.byte	0xc8
 845 05e5 19       		.byte	0x19
 846 05e6 83000000 		.4byte	0x83
 847 05ea 02       		.byte	0x2
 848 05eb 08       		.uleb128 0x8
 849 05ec 70747200 		.ascii	"ptr\000"
 850 05f0 0A       		.byte	0xa
 851 05f1 CC       		.byte	0xcc
 852 05f2 1A       		.byte	0x1a
 853 05f3 06060000 		.4byte	0x606
 854 05f7 04       		.byte	0x4
 855 05f8 09       		.uleb128 0x9
ARM GAS  /tmp/ccK9FAxv.s 			page 16


 856 05f9 94040000 		.4byte	.LASF88
 857 05fd 0A       		.byte	0xa
 858 05fe D0       		.byte	0xd0
 859 05ff 19       		.byte	0x19
 860 0600 0C060000 		.4byte	0x60c
 861 0604 08       		.byte	0x8
 862 0605 00       		.byte	0
 863 0606 0D       		.uleb128 0xd
 864 0607 04       		.byte	0x4
 865 0608 BB050000 		.4byte	0x5bb
 866 060c 15       		.uleb128 0x15
 867 060d BB050000 		.4byte	0x5bb
 868 0611 1C060000 		.4byte	0x61c
 869 0615 16       		.uleb128 0x16
 870 0616 30000000 		.4byte	0x30
 871 061a 7F       		.byte	0x7f
 872 061b 00       		.byte	0
 873 061c 03       		.uleb128 0x3
 874 061d 4D060000 		.4byte	.LASF89
 875 0621 0A       		.byte	0xa
 876 0622 D1       		.byte	0xd1
 877 0623 03       		.byte	0x3
 878 0624 C7050000 		.4byte	0x5c7
 879 0628 15       		.uleb128 0x15
 880 0629 96000000 		.4byte	0x96
 881 062d 38060000 		.4byte	0x638
 882 0631 16       		.uleb128 0x16
 883 0632 30000000 		.4byte	0x30
 884 0636 01       		.byte	0x1
 885 0637 00       		.byte	0
 886 0638 17       		.uleb128 0x17
 887 0639 D9060000 		.4byte	.LASF90
 888 063d 0B       		.byte	0xb
 889 063e 0408     		.2byte	0x804
 890 0640 19       		.byte	0x19
 891 0641 5F000000 		.4byte	0x5f
 892 0645 18       		.uleb128 0x18
 893 0646 4B050000 		.4byte	.LASF91
 894 064a 0C       		.byte	0xc
 895 064b 4A       		.byte	0x4a
 896 064c 11       		.byte	0x11
 897 064d 96000000 		.4byte	0x96
 898 0651 15       		.uleb128 0x15
 899 0652 77000000 		.4byte	0x77
 900 0656 61060000 		.4byte	0x661
 901 065a 16       		.uleb128 0x16
 902 065b 30000000 		.4byte	0x30
 903 065f 0F       		.byte	0xf
 904 0660 00       		.byte	0
 905 0661 06       		.uleb128 0x6
 906 0662 51060000 		.4byte	0x651
 907 0666 18       		.uleb128 0x18
 908 0667 B7080000 		.4byte	.LASF92
 909 066b 0C       		.byte	0xc
 910 066c 4B       		.byte	0x4b
 911 066d 16       		.byte	0x16
 912 066e 61060000 		.4byte	0x661
ARM GAS  /tmp/ccK9FAxv.s 			page 17


 913 0672 15       		.uleb128 0x15
 914 0673 77000000 		.4byte	0x77
 915 0677 82060000 		.4byte	0x682
 916 067b 16       		.uleb128 0x16
 917 067c 30000000 		.4byte	0x30
 918 0680 07       		.byte	0x7
 919 0681 00       		.byte	0
 920 0682 06       		.uleb128 0x6
 921 0683 72060000 		.4byte	0x672
 922 0687 18       		.uleb128 0x18
 923 0688 2C0A0000 		.4byte	.LASF93
 924 068c 0C       		.byte	0xc
 925 068d 4C       		.byte	0x4c
 926 068e 16       		.byte	0x16
 927 068f 82060000 		.4byte	0x682
 928 0693 0E       		.uleb128 0xe
 929 0694 B8       		.byte	0xb8
 930 0695 0D       		.byte	0xd
 931 0696 B3       		.byte	0xb3
 932 0697 09       		.byte	0x9
 933 0698 7C080000 		.4byte	0x87c
 934 069c 08       		.uleb128 0x8
 935 069d 49535200 		.ascii	"ISR\000"
 936 06a1 0D       		.byte	0xd
 937 06a2 B5       		.byte	0xb5
 938 06a3 11       		.byte	0x11
 939 06a4 A2000000 		.4byte	0xa2
 940 06a8 00       		.byte	0
 941 06a9 08       		.uleb128 0x8
 942 06aa 49455200 		.ascii	"IER\000"
 943 06ae 0D       		.byte	0xd
 944 06af B6       		.byte	0xb6
 945 06b0 11       		.byte	0x11
 946 06b1 A2000000 		.4byte	0xa2
 947 06b5 04       		.byte	0x4
 948 06b6 08       		.uleb128 0x8
 949 06b7 435200   		.ascii	"CR\000"
 950 06ba 0D       		.byte	0xd
 951 06bb B7       		.byte	0xb7
 952 06bc 11       		.byte	0x11
 953 06bd A2000000 		.4byte	0xa2
 954 06c1 08       		.byte	0x8
 955 06c2 09       		.uleb128 0x9
 956 06c3 E9040000 		.4byte	.LASF94
 957 06c7 0D       		.byte	0xd
 958 06c8 B8       		.byte	0xb8
 959 06c9 11       		.byte	0x11
 960 06ca A2000000 		.4byte	0xa2
 961 06ce 0C       		.byte	0xc
 962 06cf 09       		.uleb128 0x9
 963 06d0 DE020000 		.4byte	.LASF95
 964 06d4 0D       		.byte	0xd
 965 06d5 B9       		.byte	0xb9
 966 06d6 11       		.byte	0x11
 967 06d7 96000000 		.4byte	0x96
 968 06db 10       		.byte	0x10
 969 06dc 09       		.uleb128 0x9
ARM GAS  /tmp/ccK9FAxv.s 			page 18


 970 06dd A9050000 		.4byte	.LASF96
 971 06e1 0D       		.byte	0xd
 972 06e2 BA       		.byte	0xba
 973 06e3 11       		.byte	0x11
 974 06e4 A2000000 		.4byte	0xa2
 975 06e8 14       		.byte	0x14
 976 06e9 09       		.uleb128 0x9
 977 06ea AF050000 		.4byte	.LASF97
 978 06ee 0D       		.byte	0xd
 979 06ef BB       		.byte	0xbb
 980 06f0 11       		.byte	0x11
 981 06f1 A2000000 		.4byte	0xa2
 982 06f5 18       		.byte	0x18
 983 06f6 09       		.uleb128 0x9
 984 06f7 E8020000 		.4byte	.LASF98
 985 06fb 0D       		.byte	0xd
 986 06fc BC       		.byte	0xbc
 987 06fd 11       		.byte	0x11
 988 06fe 96000000 		.4byte	0x96
 989 0702 1C       		.byte	0x1c
 990 0703 08       		.uleb128 0x8
 991 0704 54523100 		.ascii	"TR1\000"
 992 0708 0D       		.byte	0xd
 993 0709 BD       		.byte	0xbd
 994 070a 11       		.byte	0x11
 995 070b A2000000 		.4byte	0xa2
 996 070f 20       		.byte	0x20
 997 0710 08       		.uleb128 0x8
 998 0711 54523200 		.ascii	"TR2\000"
 999 0715 0D       		.byte	0xd
 1000 0716 BE       		.byte	0xbe
 1001 0717 11       		.byte	0x11
 1002 0718 A2000000 		.4byte	0xa2
 1003 071c 24       		.byte	0x24
 1004 071d 08       		.uleb128 0x8
 1005 071e 54523300 		.ascii	"TR3\000"
 1006 0722 0D       		.byte	0xd
 1007 0723 BF       		.byte	0xbf
 1008 0724 11       		.byte	0x11
 1009 0725 A2000000 		.4byte	0xa2
 1010 0729 28       		.byte	0x28
 1011 072a 09       		.uleb128 0x9
 1012 072b 9E030000 		.4byte	.LASF99
 1013 072f 0D       		.byte	0xd
 1014 0730 C0       		.byte	0xc0
 1015 0731 11       		.byte	0x11
 1016 0732 96000000 		.4byte	0x96
 1017 0736 2C       		.byte	0x2c
 1018 0737 09       		.uleb128 0x9
 1019 0738 91000000 		.4byte	.LASF100
 1020 073c 0D       		.byte	0xd
 1021 073d C1       		.byte	0xc1
 1022 073e 11       		.byte	0x11
 1023 073f A2000000 		.4byte	0xa2
 1024 0743 30       		.byte	0x30
 1025 0744 09       		.uleb128 0x9
 1026 0745 96000000 		.4byte	.LASF101
ARM GAS  /tmp/ccK9FAxv.s 			page 19


 1027 0749 0D       		.byte	0xd
 1028 074a C2       		.byte	0xc2
 1029 074b 11       		.byte	0x11
 1030 074c A2000000 		.4byte	0xa2
 1031 0750 34       		.byte	0x34
 1032 0751 09       		.uleb128 0x9
 1033 0752 9B000000 		.4byte	.LASF102
 1034 0756 0D       		.byte	0xd
 1035 0757 C3       		.byte	0xc3
 1036 0758 11       		.byte	0x11
 1037 0759 A2000000 		.4byte	0xa2
 1038 075d 38       		.byte	0x38
 1039 075e 09       		.uleb128 0x9
 1040 075f A0000000 		.4byte	.LASF103
 1041 0763 0D       		.byte	0xd
 1042 0764 C4       		.byte	0xc4
 1043 0765 11       		.byte	0x11
 1044 0766 A2000000 		.4byte	0xa2
 1045 076a 3C       		.byte	0x3c
 1046 076b 08       		.uleb128 0x8
 1047 076c 445200   		.ascii	"DR\000"
 1048 076f 0D       		.byte	0xd
 1049 0770 C5       		.byte	0xc5
 1050 0771 11       		.byte	0x11
 1051 0772 A2000000 		.4byte	0xa2
 1052 0776 40       		.byte	0x40
 1053 0777 09       		.uleb128 0x9
 1054 0778 00030000 		.4byte	.LASF104
 1055 077c 0D       		.byte	0xd
 1056 077d C6       		.byte	0xc6
 1057 077e 11       		.byte	0x11
 1058 077f 96000000 		.4byte	0x96
 1059 0783 44       		.byte	0x44
 1060 0784 09       		.uleb128 0x9
 1061 0785 0A030000 		.4byte	.LASF105
 1062 0789 0D       		.byte	0xd
 1063 078a C7       		.byte	0xc7
 1064 078b 11       		.byte	0x11
 1065 078c 96000000 		.4byte	0x96
 1066 0790 48       		.byte	0x48
 1067 0791 09       		.uleb128 0x9
 1068 0792 180B0000 		.4byte	.LASF106
 1069 0796 0D       		.byte	0xd
 1070 0797 C8       		.byte	0xc8
 1071 0798 11       		.byte	0x11
 1072 0799 A2000000 		.4byte	0xa2
 1073 079d 4C       		.byte	0x4c
 1074 079e 09       		.uleb128 0x9
 1075 079f 14030000 		.4byte	.LASF107
 1076 07a3 0D       		.byte	0xd
 1077 07a4 C9       		.byte	0xc9
 1078 07a5 11       		.byte	0x11
 1079 07a6 7C080000 		.4byte	0x87c
 1080 07aa 50       		.byte	0x50
 1081 07ab 09       		.uleb128 0x9
 1082 07ac D1090000 		.4byte	.LASF108
 1083 07b0 0D       		.byte	0xd
ARM GAS  /tmp/ccK9FAxv.s 			page 20


 1084 07b1 CA       		.byte	0xca
 1085 07b2 11       		.byte	0x11
 1086 07b3 A2000000 		.4byte	0xa2
 1087 07b7 60       		.byte	0x60
 1088 07b8 09       		.uleb128 0x9
 1089 07b9 D6090000 		.4byte	.LASF109
 1090 07bd 0D       		.byte	0xd
 1091 07be CB       		.byte	0xcb
 1092 07bf 11       		.byte	0x11
 1093 07c0 A2000000 		.4byte	0xa2
 1094 07c4 64       		.byte	0x64
 1095 07c5 09       		.uleb128 0x9
 1096 07c6 DB090000 		.4byte	.LASF110
 1097 07ca 0D       		.byte	0xd
 1098 07cb CC       		.byte	0xcc
 1099 07cc 11       		.byte	0x11
 1100 07cd A2000000 		.4byte	0xa2
 1101 07d1 68       		.byte	0x68
 1102 07d2 09       		.uleb128 0x9
 1103 07d3 E0090000 		.4byte	.LASF111
 1104 07d7 0D       		.byte	0xd
 1105 07d8 CD       		.byte	0xcd
 1106 07d9 11       		.byte	0x11
 1107 07da A2000000 		.4byte	0xa2
 1108 07de 6C       		.byte	0x6c
 1109 07df 09       		.uleb128 0x9
 1110 07e0 1E030000 		.4byte	.LASF112
 1111 07e4 0D       		.byte	0xd
 1112 07e5 CE       		.byte	0xce
 1113 07e6 11       		.byte	0x11
 1114 07e7 7C080000 		.4byte	0x87c
 1115 07eb 70       		.byte	0x70
 1116 07ec 09       		.uleb128 0x9
 1117 07ed 040B0000 		.4byte	.LASF113
 1118 07f1 0D       		.byte	0xd
 1119 07f2 CF       		.byte	0xcf
 1120 07f3 11       		.byte	0x11
 1121 07f4 A2000000 		.4byte	0xa2
 1122 07f8 80       		.byte	0x80
 1123 07f9 09       		.uleb128 0x9
 1124 07fa 090B0000 		.4byte	.LASF114
 1125 07fe 0D       		.byte	0xd
 1126 07ff D0       		.byte	0xd0
 1127 0800 11       		.byte	0x11
 1128 0801 A2000000 		.4byte	0xa2
 1129 0805 84       		.byte	0x84
 1130 0806 09       		.uleb128 0x9
 1131 0807 0E0B0000 		.4byte	.LASF115
 1132 080b 0D       		.byte	0xd
 1133 080c D1       		.byte	0xd1
 1134 080d 11       		.byte	0x11
 1135 080e A2000000 		.4byte	0xa2
 1136 0812 88       		.byte	0x88
 1137 0813 09       		.uleb128 0x9
 1138 0814 130B0000 		.4byte	.LASF116
 1139 0818 0D       		.byte	0xd
 1140 0819 D2       		.byte	0xd2
ARM GAS  /tmp/ccK9FAxv.s 			page 21


 1141 081a 11       		.byte	0x11
 1142 081b A2000000 		.4byte	0xa2
 1143 081f 8C       		.byte	0x8c
 1144 0820 09       		.uleb128 0x9
 1145 0821 28030000 		.4byte	.LASF117
 1146 0825 0D       		.byte	0xd
 1147 0826 D3       		.byte	0xd3
 1148 0827 11       		.byte	0x11
 1149 0828 7C080000 		.4byte	0x87c
 1150 082c 90       		.byte	0x90
 1151 082d 09       		.uleb128 0x9
 1152 082e 4F040000 		.4byte	.LASF118
 1153 0832 0D       		.byte	0xd
 1154 0833 D4       		.byte	0xd4
 1155 0834 11       		.byte	0x11
 1156 0835 A2000000 		.4byte	0xa2
 1157 0839 A0       		.byte	0xa0
 1158 083a 09       		.uleb128 0x9
 1159 083b E6060000 		.4byte	.LASF119
 1160 083f 0D       		.byte	0xd
 1161 0840 D5       		.byte	0xd5
 1162 0841 11       		.byte	0x11
 1163 0842 A2000000 		.4byte	0xa2
 1164 0846 A4       		.byte	0xa4
 1165 0847 09       		.uleb128 0x9
 1166 0848 32030000 		.4byte	.LASF120
 1167 084c 0D       		.byte	0xd
 1168 084d D6       		.byte	0xd6
 1169 084e 11       		.byte	0x11
 1170 084f 96000000 		.4byte	0x96
 1171 0853 A8       		.byte	0xa8
 1172 0854 09       		.uleb128 0x9
 1173 0855 3C030000 		.4byte	.LASF121
 1174 0859 0D       		.byte	0xd
 1175 085a D7       		.byte	0xd7
 1176 085b 11       		.byte	0x11
 1177 085c 96000000 		.4byte	0x96
 1178 0860 AC       		.byte	0xac
 1179 0861 09       		.uleb128 0x9
 1180 0862 09050000 		.4byte	.LASF122
 1181 0866 0D       		.byte	0xd
 1182 0867 D8       		.byte	0xd8
 1183 0868 11       		.byte	0x11
 1184 0869 A2000000 		.4byte	0xa2
 1185 086d B0       		.byte	0xb0
 1186 086e 09       		.uleb128 0x9
 1187 086f 610A0000 		.4byte	.LASF123
 1188 0873 0D       		.byte	0xd
 1189 0874 D9       		.byte	0xd9
 1190 0875 11       		.byte	0x11
 1191 0876 A2000000 		.4byte	0xa2
 1192 087a B4       		.byte	0xb4
 1193 087b 00       		.byte	0
 1194 087c 15       		.uleb128 0x15
 1195 087d 96000000 		.4byte	0x96
 1196 0881 8C080000 		.4byte	0x88c
 1197 0885 16       		.uleb128 0x16
ARM GAS  /tmp/ccK9FAxv.s 			page 22


 1198 0886 30000000 		.4byte	0x30
 1199 088a 03       		.byte	0x3
 1200 088b 00       		.byte	0
 1201 088c 03       		.uleb128 0x3
 1202 088d 7F040000 		.4byte	.LASF124
 1203 0891 0D       		.byte	0xd
 1204 0892 DB       		.byte	0xdb
 1205 0893 03       		.byte	0x3
 1206 0894 93060000 		.4byte	0x693
 1207 0898 0E       		.uleb128 0xe
 1208 0899 10       		.byte	0x10
 1209 089a 0D       		.byte	0xd
 1210 089b DD       		.byte	0xdd
 1211 089c 09       		.byte	0x9
 1212 089d D6080000 		.4byte	0x8d6
 1213 08a1 08       		.uleb128 0x8
 1214 08a2 43535200 		.ascii	"CSR\000"
 1215 08a6 0D       		.byte	0xd
 1216 08a7 DF       		.byte	0xdf
 1217 08a8 11       		.byte	0x11
 1218 08a9 A2000000 		.4byte	0xa2
 1219 08ad 00       		.byte	0
 1220 08ae 09       		.uleb128 0x9
 1221 08af 8B040000 		.4byte	.LASF125
 1222 08b3 0D       		.byte	0xd
 1223 08b4 E0       		.byte	0xe0
 1224 08b5 11       		.byte	0x11
 1225 08b6 96000000 		.4byte	0x96
 1226 08ba 04       		.byte	0x4
 1227 08bb 08       		.uleb128 0x8
 1228 08bc 43435200 		.ascii	"CCR\000"
 1229 08c0 0D       		.byte	0xd
 1230 08c1 E1       		.byte	0xe1
 1231 08c2 11       		.byte	0x11
 1232 08c3 A2000000 		.4byte	0xa2
 1233 08c7 08       		.byte	0x8
 1234 08c8 08       		.uleb128 0x8
 1235 08c9 43445200 		.ascii	"CDR\000"
 1236 08cd 0D       		.byte	0xd
 1237 08ce E2       		.byte	0xe2
 1238 08cf 11       		.byte	0x11
 1239 08d0 A2000000 		.4byte	0xa2
 1240 08d4 0C       		.byte	0xc
 1241 08d5 00       		.byte	0
 1242 08d6 03       		.uleb128 0x3
 1243 08d7 2F0D0000 		.4byte	.LASF126
 1244 08db 0D       		.byte	0xd
 1245 08dc E4       		.byte	0xe4
 1246 08dd 03       		.byte	0x3
 1247 08de 98080000 		.4byte	0x898
 1248 08e2 19       		.uleb128 0x19
 1249 08e3 10       		.byte	0x10
 1250 08e4 0D       		.byte	0xd
 1251 08e5 6501     		.2byte	0x165
 1252 08e7 09       		.byte	0x9
 1253 08e8 25090000 		.4byte	0x925
 1254 08ec 0A       		.uleb128 0xa
ARM GAS  /tmp/ccK9FAxv.s 			page 23


 1255 08ed 43435200 		.ascii	"CCR\000"
 1256 08f1 0D       		.byte	0xd
 1257 08f2 6701     		.2byte	0x167
 1258 08f4 11       		.byte	0x11
 1259 08f5 A2000000 		.4byte	0xa2
 1260 08f9 00       		.byte	0
 1261 08fa 0B       		.uleb128 0xb
 1262 08fb 60010000 		.4byte	.LASF127
 1263 08ff 0D       		.byte	0xd
 1264 0900 6801     		.2byte	0x168
 1265 0902 11       		.byte	0x11
 1266 0903 A2000000 		.4byte	0xa2
 1267 0907 04       		.byte	0x4
 1268 0908 0B       		.uleb128 0xb
 1269 0909 8B020000 		.4byte	.LASF128
 1270 090d 0D       		.byte	0xd
 1271 090e 6901     		.2byte	0x169
 1272 0910 11       		.byte	0x11
 1273 0911 A2000000 		.4byte	0xa2
 1274 0915 08       		.byte	0x8
 1275 0916 0B       		.uleb128 0xb
 1276 0917 73070000 		.4byte	.LASF129
 1277 091b 0D       		.byte	0xd
 1278 091c 6A01     		.2byte	0x16a
 1279 091e 11       		.byte	0x11
 1280 091f A2000000 		.4byte	0xa2
 1281 0923 0C       		.byte	0xc
 1282 0924 00       		.byte	0
 1283 0925 1A       		.uleb128 0x1a
 1284 0926 A3080000 		.4byte	.LASF130
 1285 092a 0D       		.byte	0xd
 1286 092b 6B01     		.2byte	0x16b
 1287 092d 03       		.byte	0x3
 1288 092e E2080000 		.4byte	0x8e2
 1289 0932 19       		.uleb128 0x19
 1290 0933 08       		.byte	0x8
 1291 0934 0D       		.byte	0xd
 1292 0935 6D01     		.2byte	0x16d
 1293 0937 09       		.byte	0x9
 1294 0938 59090000 		.4byte	0x959
 1295 093c 0A       		.uleb128 0xa
 1296 093d 49535200 		.ascii	"ISR\000"
 1297 0941 0D       		.byte	0xd
 1298 0942 6F01     		.2byte	0x16f
 1299 0944 11       		.byte	0x11
 1300 0945 A2000000 		.4byte	0xa2
 1301 0949 00       		.byte	0
 1302 094a 0B       		.uleb128 0xb
 1303 094b D1030000 		.4byte	.LASF131
 1304 094f 0D       		.byte	0xd
 1305 0950 7001     		.2byte	0x170
 1306 0952 11       		.byte	0x11
 1307 0953 A2000000 		.4byte	0xa2
 1308 0957 04       		.byte	0x4
 1309 0958 00       		.byte	0
 1310 0959 1A       		.uleb128 0x1a
 1311 095a 46030000 		.4byte	.LASF132
ARM GAS  /tmp/ccK9FAxv.s 			page 24


 1312 095e 0D       		.byte	0xd
 1313 095f 7101     		.2byte	0x171
 1314 0961 03       		.byte	0x3
 1315 0962 32090000 		.4byte	0x932
 1316 0966 19       		.uleb128 0x19
 1317 0967 24       		.byte	0x24
 1318 0968 0D       		.byte	0xd
 1319 0969 8D01     		.2byte	0x18d
 1320 096b 09       		.byte	0x9
 1321 096c EC090000 		.4byte	0x9ec
 1322 0970 0A       		.uleb128 0xa
 1323 0971 41435200 		.ascii	"ACR\000"
 1324 0975 0D       		.byte	0xd
 1325 0976 8F01     		.2byte	0x18f
 1326 0978 11       		.byte	0x11
 1327 0979 A2000000 		.4byte	0xa2
 1328 097d 00       		.byte	0
 1329 097e 0B       		.uleb128 0xb
 1330 097f 3A0A0000 		.4byte	.LASF133
 1331 0983 0D       		.byte	0xd
 1332 0984 9001     		.2byte	0x190
 1333 0986 11       		.byte	0x11
 1334 0987 A2000000 		.4byte	0xa2
 1335 098b 04       		.byte	0x4
 1336 098c 0B       		.uleb128 0xb
 1337 098d 01050000 		.4byte	.LASF134
 1338 0991 0D       		.byte	0xd
 1339 0992 9101     		.2byte	0x191
 1340 0994 11       		.byte	0x11
 1341 0995 A2000000 		.4byte	0xa2
 1342 0999 08       		.byte	0x8
 1343 099a 0A       		.uleb128 0xa
 1344 099b 535200   		.ascii	"SR\000"
 1345 099e 0D       		.byte	0xd
 1346 099f 9201     		.2byte	0x192
 1347 09a1 11       		.byte	0x11
 1348 09a2 A2000000 		.4byte	0xa2
 1349 09a6 0C       		.byte	0xc
 1350 09a7 0A       		.uleb128 0xa
 1351 09a8 435200   		.ascii	"CR\000"
 1352 09ab 0D       		.byte	0xd
 1353 09ac 9301     		.2byte	0x193
 1354 09ae 11       		.byte	0x11
 1355 09af A2000000 		.4byte	0xa2
 1356 09b3 10       		.byte	0x10
 1357 09b4 0A       		.uleb128 0xa
 1358 09b5 415200   		.ascii	"AR\000"
 1359 09b8 0D       		.byte	0xd
 1360 09b9 9401     		.2byte	0x194
 1361 09bb 11       		.byte	0x11
 1362 09bc A2000000 		.4byte	0xa2
 1363 09c0 14       		.byte	0x14
 1364 09c1 0B       		.uleb128 0xb
 1365 09c2 8B040000 		.4byte	.LASF125
 1366 09c6 0D       		.byte	0xd
 1367 09c7 9501     		.2byte	0x195
 1368 09c9 11       		.byte	0x11
ARM GAS  /tmp/ccK9FAxv.s 			page 25


 1369 09ca 96000000 		.4byte	0x96
 1370 09ce 18       		.byte	0x18
 1371 09cf 0A       		.uleb128 0xa
 1372 09d0 4F425200 		.ascii	"OBR\000"
 1373 09d4 0D       		.byte	0xd
 1374 09d5 9601     		.2byte	0x196
 1375 09d7 11       		.byte	0x11
 1376 09d8 A2000000 		.4byte	0xa2
 1377 09dc 1C       		.byte	0x1c
 1378 09dd 0B       		.uleb128 0xb
 1379 09de 86020000 		.4byte	.LASF135
 1380 09e2 0D       		.byte	0xd
 1381 09e3 9701     		.2byte	0x197
 1382 09e5 11       		.byte	0x11
 1383 09e6 A2000000 		.4byte	0xa2
 1384 09ea 20       		.byte	0x20
 1385 09eb 00       		.byte	0
 1386 09ec 1A       		.uleb128 0x1a
 1387 09ed 760B0000 		.4byte	.LASF136
 1388 09f1 0D       		.byte	0xd
 1389 09f2 9901     		.2byte	0x199
 1390 09f4 03       		.byte	0x3
 1391 09f5 66090000 		.4byte	0x966
 1392 09f9 19       		.uleb128 0x19
 1393 09fa 1C       		.byte	0x1c
 1394 09fb 0D       		.byte	0xd
 1395 09fc C901     		.2byte	0x1c9
 1396 09fe 09       		.byte	0x9
 1397 09ff 3C0A0000 		.4byte	0xa3c
 1398 0a03 0B       		.uleb128 0xb
 1399 0a04 54070000 		.4byte	.LASF137
 1400 0a08 0D       		.byte	0xd
 1401 0a09 CB01     		.2byte	0x1cb
 1402 0a0b 11       		.byte	0x11
 1403 0a0c A2000000 		.4byte	0xa2
 1404 0a10 00       		.byte	0
 1405 0a11 0A       		.uleb128 0xa
 1406 0a12 52435200 		.ascii	"RCR\000"
 1407 0a16 0D       		.byte	0xd
 1408 0a17 CC01     		.2byte	0x1cc
 1409 0a19 11       		.byte	0x11
 1410 0a1a A2000000 		.4byte	0xa2
 1411 0a1e 04       		.byte	0x4
 1412 0a1f 0B       		.uleb128 0xb
 1413 0a20 28000000 		.4byte	.LASF138
 1414 0a24 0D       		.byte	0xd
 1415 0a25 CD01     		.2byte	0x1cd
 1416 0a27 11       		.byte	0x11
 1417 0a28 4C0A0000 		.4byte	0xa4c
 1418 0a2c 08       		.byte	0x8
 1419 0a2d 0B       		.uleb128 0xb
 1420 0a2e 5A070000 		.4byte	.LASF139
 1421 0a32 0D       		.byte	0xd
 1422 0a33 CE01     		.2byte	0x1ce
 1423 0a35 11       		.byte	0x11
 1424 0a36 A2000000 		.4byte	0xa2
 1425 0a3a 18       		.byte	0x18
ARM GAS  /tmp/ccK9FAxv.s 			page 26


 1426 0a3b 00       		.byte	0
 1427 0a3c 15       		.uleb128 0x15
 1428 0a3d A2000000 		.4byte	0xa2
 1429 0a41 4C0A0000 		.4byte	0xa4c
 1430 0a45 16       		.uleb128 0x16
 1431 0a46 30000000 		.4byte	0x30
 1432 0a4a 03       		.byte	0x3
 1433 0a4b 00       		.byte	0
 1434 0a4c 05       		.uleb128 0x5
 1435 0a4d 3C0A0000 		.4byte	0xa3c
 1436 0a51 1A       		.uleb128 0x1a
 1437 0a52 730D0000 		.4byte	.LASF140
 1438 0a56 0D       		.byte	0xd
 1439 0a57 CF01     		.2byte	0x1cf
 1440 0a59 03       		.byte	0x3
 1441 0a5a F9090000 		.4byte	0x9f9
 1442 0a5e 19       		.uleb128 0x19
 1443 0a5f 08       		.byte	0x8
 1444 0a60 0D       		.byte	0xd
 1445 0a61 F501     		.2byte	0x1f5
 1446 0a63 09       		.byte	0x9
 1447 0a64 840A0000 		.4byte	0xa84
 1448 0a68 0A       		.uleb128 0xa
 1449 0a69 435200   		.ascii	"CR\000"
 1450 0a6c 0D       		.byte	0xd
 1451 0a6d F701     		.2byte	0x1f7
 1452 0a6f 11       		.byte	0x11
 1453 0a70 A2000000 		.4byte	0xa2
 1454 0a74 00       		.byte	0
 1455 0a75 0A       		.uleb128 0xa
 1456 0a76 43535200 		.ascii	"CSR\000"
 1457 0a7a 0D       		.byte	0xd
 1458 0a7b F801     		.2byte	0x1f8
 1459 0a7d 11       		.byte	0x11
 1460 0a7e A2000000 		.4byte	0xa2
 1461 0a82 04       		.byte	0x4
 1462 0a83 00       		.byte	0
 1463 0a84 1A       		.uleb128 0x1a
 1464 0a85 7E0C0000 		.4byte	.LASF141
 1465 0a89 0D       		.byte	0xd
 1466 0a8a F901     		.2byte	0x1f9
 1467 0a8c 03       		.byte	0x3
 1468 0a8d 5E0A0000 		.4byte	0xa5e
 1469 0a91 19       		.uleb128 0x19
 1470 0a92 34       		.byte	0x34
 1471 0a93 0D       		.byte	0xd
 1472 0a94 FE01     		.2byte	0x1fe
 1473 0a96 09       		.byte	0x9
 1474 0a97 510B0000 		.4byte	0xb51
 1475 0a9b 0A       		.uleb128 0xa
 1476 0a9c 435200   		.ascii	"CR\000"
 1477 0a9f 0D       		.byte	0xd
 1478 0aa0 0002     		.2byte	0x200
 1479 0aa2 11       		.byte	0x11
 1480 0aa3 A2000000 		.4byte	0xa2
 1481 0aa7 00       		.byte	0
 1482 0aa8 0B       		.uleb128 0xb
ARM GAS  /tmp/ccK9FAxv.s 			page 27


 1483 0aa9 E9040000 		.4byte	.LASF94
 1484 0aad 0D       		.byte	0xd
 1485 0aae 0102     		.2byte	0x201
 1486 0ab0 11       		.byte	0x11
 1487 0ab1 A2000000 		.4byte	0xa2
 1488 0ab5 04       		.byte	0x4
 1489 0ab6 0A       		.uleb128 0xa
 1490 0ab7 43495200 		.ascii	"CIR\000"
 1491 0abb 0D       		.byte	0xd
 1492 0abc 0202     		.2byte	0x202
 1493 0abe 11       		.byte	0x11
 1494 0abf A2000000 		.4byte	0xa2
 1495 0ac3 08       		.byte	0x8
 1496 0ac4 0B       		.uleb128 0xb
 1497 0ac5 B9060000 		.4byte	.LASF142
 1498 0ac9 0D       		.byte	0xd
 1499 0aca 0302     		.2byte	0x203
 1500 0acc 11       		.byte	0x11
 1501 0acd A2000000 		.4byte	0xa2
 1502 0ad1 0C       		.byte	0xc
 1503 0ad2 0B       		.uleb128 0xb
 1504 0ad3 BA0A0000 		.4byte	.LASF143
 1505 0ad7 0D       		.byte	0xd
 1506 0ad8 0402     		.2byte	0x204
 1507 0ada 11       		.byte	0x11
 1508 0adb A2000000 		.4byte	0xa2
 1509 0adf 10       		.byte	0x10
 1510 0ae0 0B       		.uleb128 0xb
 1511 0ae1 F40A0000 		.4byte	.LASF144
 1512 0ae5 0D       		.byte	0xd
 1513 0ae6 0502     		.2byte	0x205
 1514 0ae8 11       		.byte	0x11
 1515 0ae9 A2000000 		.4byte	0xa2
 1516 0aed 14       		.byte	0x14
 1517 0aee 0B       		.uleb128 0xb
 1518 0aef 21020000 		.4byte	.LASF145
 1519 0af3 0D       		.byte	0xd
 1520 0af4 0602     		.2byte	0x206
 1521 0af6 11       		.byte	0x11
 1522 0af7 A2000000 		.4byte	0xa2
 1523 0afb 18       		.byte	0x18
 1524 0afc 0B       		.uleb128 0xb
 1525 0afd 37050000 		.4byte	.LASF146
 1526 0b01 0D       		.byte	0xd
 1527 0b02 0702     		.2byte	0x207
 1528 0b04 11       		.byte	0x11
 1529 0b05 A2000000 		.4byte	0xa2
 1530 0b09 1C       		.byte	0x1c
 1531 0b0a 0B       		.uleb128 0xb
 1532 0b0b 4A040000 		.4byte	.LASF147
 1533 0b0f 0D       		.byte	0xd
 1534 0b10 0802     		.2byte	0x208
 1535 0b12 11       		.byte	0x11
 1536 0b13 A2000000 		.4byte	0xa2
 1537 0b17 20       		.byte	0x20
 1538 0b18 0A       		.uleb128 0xa
 1539 0b19 43535200 		.ascii	"CSR\000"
ARM GAS  /tmp/ccK9FAxv.s 			page 28


 1540 0b1d 0D       		.byte	0xd
 1541 0b1e 0902     		.2byte	0x209
 1542 0b20 11       		.byte	0x11
 1543 0b21 A2000000 		.4byte	0xa2
 1544 0b25 24       		.byte	0x24
 1545 0b26 0B       		.uleb128 0xb
 1546 0b27 36060000 		.4byte	.LASF148
 1547 0b2b 0D       		.byte	0xd
 1548 0b2c 0A02     		.2byte	0x20a
 1549 0b2e 11       		.byte	0x11
 1550 0b2f A2000000 		.4byte	0xa2
 1551 0b33 28       		.byte	0x28
 1552 0b34 0B       		.uleb128 0xb
 1553 0b35 5A070000 		.4byte	.LASF139
 1554 0b39 0D       		.byte	0xd
 1555 0b3a 0B02     		.2byte	0x20b
 1556 0b3c 11       		.byte	0x11
 1557 0b3d A2000000 		.4byte	0xa2
 1558 0b41 2C       		.byte	0x2c
 1559 0b42 0B       		.uleb128 0xb
 1560 0b43 60070000 		.4byte	.LASF149
 1561 0b47 0D       		.byte	0xd
 1562 0b48 0C02     		.2byte	0x20c
 1563 0b4a 11       		.byte	0x11
 1564 0b4b A2000000 		.4byte	0xa2
 1565 0b4f 30       		.byte	0x30
 1566 0b50 00       		.byte	0
 1567 0b51 1A       		.uleb128 0x1a
 1568 0b52 3F0A0000 		.4byte	.LASF150
 1569 0b56 0D       		.byte	0xd
 1570 0b57 0D02     		.2byte	0x20d
 1571 0b59 03       		.byte	0x3
 1572 0b5a 910A0000 		.4byte	0xa91
 1573 0b5e 1B       		.uleb128 0x1b
 1574 0b5f 4E080000 		.4byte	.LASF151
 1575 0b63 24       		.byte	0x24
 1576 0b64 0E       		.byte	0xe
 1577 0b65 E001     		.2byte	0x1e0
 1578 0b67 08       		.byte	0x8
 1579 0b68 E40B0000 		.4byte	0xbe4
 1580 0b6c 0A       		.uleb128 0xa
 1581 0b6d 723400   		.ascii	"r4\000"
 1582 0b70 0E       		.byte	0xe
 1583 0b71 F901     		.2byte	0x1f9
 1584 0b73 11       		.byte	0x11
 1585 0b74 96000000 		.4byte	0x96
 1586 0b78 00       		.byte	0
 1587 0b79 0A       		.uleb128 0xa
 1588 0b7a 723500   		.ascii	"r5\000"
 1589 0b7d 0E       		.byte	0xe
 1590 0b7e FA01     		.2byte	0x1fa
 1591 0b80 11       		.byte	0x11
 1592 0b81 96000000 		.4byte	0x96
 1593 0b85 04       		.byte	0x4
 1594 0b86 0A       		.uleb128 0xa
 1595 0b87 723600   		.ascii	"r6\000"
 1596 0b8a 0E       		.byte	0xe
ARM GAS  /tmp/ccK9FAxv.s 			page 29


 1597 0b8b FB01     		.2byte	0x1fb
 1598 0b8d 11       		.byte	0x11
 1599 0b8e 96000000 		.4byte	0x96
 1600 0b92 08       		.byte	0x8
 1601 0b93 0A       		.uleb128 0xa
 1602 0b94 723700   		.ascii	"r7\000"
 1603 0b97 0E       		.byte	0xe
 1604 0b98 FC01     		.2byte	0x1fc
 1605 0b9a 11       		.byte	0x11
 1606 0b9b 96000000 		.4byte	0x96
 1607 0b9f 0C       		.byte	0xc
 1608 0ba0 0A       		.uleb128 0xa
 1609 0ba1 723800   		.ascii	"r8\000"
 1610 0ba4 0E       		.byte	0xe
 1611 0ba5 FD01     		.2byte	0x1fd
 1612 0ba7 11       		.byte	0x11
 1613 0ba8 96000000 		.4byte	0x96
 1614 0bac 10       		.byte	0x10
 1615 0bad 0A       		.uleb128 0xa
 1616 0bae 723900   		.ascii	"r9\000"
 1617 0bb1 0E       		.byte	0xe
 1618 0bb2 FE01     		.2byte	0x1fe
 1619 0bb4 11       		.byte	0x11
 1620 0bb5 96000000 		.4byte	0x96
 1621 0bb9 14       		.byte	0x14
 1622 0bba 0A       		.uleb128 0xa
 1623 0bbb 72313000 		.ascii	"r10\000"
 1624 0bbf 0E       		.byte	0xe
 1625 0bc0 FF01     		.2byte	0x1ff
 1626 0bc2 11       		.byte	0x11
 1627 0bc3 96000000 		.4byte	0x96
 1628 0bc7 18       		.byte	0x18
 1629 0bc8 0A       		.uleb128 0xa
 1630 0bc9 72313100 		.ascii	"r11\000"
 1631 0bcd 0E       		.byte	0xe
 1632 0bce 0002     		.2byte	0x200
 1633 0bd0 11       		.byte	0x11
 1634 0bd1 96000000 		.4byte	0x96
 1635 0bd5 1C       		.byte	0x1c
 1636 0bd6 0A       		.uleb128 0xa
 1637 0bd7 6C7200   		.ascii	"lr\000"
 1638 0bda 0E       		.byte	0xe
 1639 0bdb 0102     		.2byte	0x201
 1640 0bdd 11       		.byte	0x11
 1641 0bde 96000000 		.4byte	0x96
 1642 0be2 20       		.byte	0x20
 1643 0be3 00       		.byte	0
 1644 0be4 1B       		.uleb128 0x1b
 1645 0be5 690B0000 		.4byte	.LASF152
 1646 0be9 04       		.byte	0x4
 1647 0bea 0E       		.byte	0xe
 1648 0beb 0A02     		.2byte	0x20a
 1649 0bed 08       		.byte	0x8
 1650 0bee 000C0000 		.4byte	0xc00
 1651 0bf2 0A       		.uleb128 0xa
 1652 0bf3 737000   		.ascii	"sp\000"
 1653 0bf6 0E       		.byte	0xe
ARM GAS  /tmp/ccK9FAxv.s 			page 30


 1654 0bf7 0B02     		.2byte	0x20b
 1655 0bf9 1A       		.byte	0x1a
 1656 0bfa 000C0000 		.4byte	0xc00
 1657 0bfe 00       		.byte	0
 1658 0bff 00       		.byte	0
 1659 0c00 0D       		.uleb128 0xd
 1660 0c01 04       		.byte	0x4
 1661 0c02 5E0B0000 		.4byte	0xb5e
 1662 0c06 0E       		.uleb128 0xe
 1663 0c07 04       		.byte	0x4
 1664 0c08 0F       		.byte	0xf
 1665 0c09 3F       		.byte	0x3f
 1666 0c0a 09       		.byte	0x9
 1667 0c0b 1D0C0000 		.4byte	0xc1d
 1668 0c0f 09       		.uleb128 0x9
 1669 0c10 86070000 		.4byte	.LASF153
 1670 0c14 0F       		.byte	0xf
 1671 0c15 43       		.byte	0x43
 1672 0c16 19       		.byte	0x19
 1673 0c17 DE000000 		.4byte	0xde
 1674 0c1b 00       		.byte	0
 1675 0c1c 00       		.byte	0
 1676 0c1d 03       		.uleb128 0x3
 1677 0c1e F6090000 		.4byte	.LASF154
 1678 0c22 0F       		.byte	0xf
 1679 0c23 44       		.byte	0x44
 1680 0c24 03       		.byte	0x3
 1681 0c25 060C0000 		.4byte	0xc06
 1682 0c29 1C       		.uleb128 0x1c
 1683 0c2a 07       		.byte	0x7
 1684 0c2b 01       		.byte	0x1
 1685 0c2c 7C000000 		.4byte	0x7c
 1686 0c30 05       		.byte	0x5
 1687 0c31 32       		.byte	0x32
 1688 0c32 0E       		.byte	0xe
 1689 0c33 500C0000 		.4byte	0xc50
 1690 0c37 1D       		.uleb128 0x1d
 1691 0c38 13020000 		.4byte	.LASF155
 1692 0c3c 00       		.byte	0
 1693 0c3d 1D       		.uleb128 0x1d
 1694 0c3e 61000000 		.4byte	.LASF156
 1695 0c42 01       		.byte	0x1
 1696 0c43 1D       		.uleb128 0x1d
 1697 0c44 F4060000 		.4byte	.LASF157
 1698 0c48 02       		.byte	0x2
 1699 0c49 1D       		.uleb128 0x1d
 1700 0c4a 880A0000 		.4byte	.LASF158
 1701 0c4e 03       		.byte	0x3
 1702 0c4f 00       		.byte	0
 1703 0c50 03       		.uleb128 0x3
 1704 0c51 74010000 		.4byte	.LASF159
 1705 0c55 05       		.byte	0x5
 1706 0c56 37       		.byte	0x37
 1707 0c57 03       		.byte	0x3
 1708 0c58 290C0000 		.4byte	0xc29
 1709 0c5c 07       		.uleb128 0x7
 1710 0c5d EC000000 		.4byte	.LASF160
ARM GAS  /tmp/ccK9FAxv.s 			page 31


 1711 0c61 18       		.byte	0x18
 1712 0c62 05       		.byte	0x5
 1713 0c63 64       		.byte	0x64
 1714 0c64 10       		.byte	0x10
 1715 0c65 910C0000 		.4byte	0xc91
 1716 0c69 09       		.uleb128 0x9
 1717 0c6a C6070000 		.4byte	.LASF161
 1718 0c6e 05       		.byte	0x5
 1719 0c6f 68       		.byte	0x68
 1720 0c70 21       		.byte	0x21
 1721 0c71 3C040000 		.4byte	0x43c
 1722 0c75 00       		.byte	0
 1723 0c76 09       		.uleb128 0x9
 1724 0c77 76040000 		.4byte	.LASF162
 1725 0c7b 05       		.byte	0x5
 1726 0c7c 73       		.byte	0x73
 1727 0c7d 21       		.byte	0x21
 1728 0c7e 76030000 		.4byte	0x376
 1729 0c82 0C       		.byte	0xc
 1730 0c83 09       		.uleb128 0x9
 1731 0c84 31020000 		.4byte	.LASF163
 1732 0c88 05       		.byte	0x5
 1733 0c89 79       		.byte	0x79
 1734 0c8a 21       		.byte	0x21
 1735 0c8b BA000000 		.4byte	0xba
 1736 0c8f 10       		.byte	0x10
 1737 0c90 00       		.byte	0
 1738 0c91 03       		.uleb128 0x3
 1739 0c92 80050000 		.4byte	.LASF164
 1740 0c96 05       		.byte	0x5
 1741 0c97 7B       		.byte	0x7b
 1742 0c98 03       		.byte	0x3
 1743 0c99 5C0C0000 		.4byte	0xc5c
 1744 0c9d 07       		.uleb128 0x7
 1745 0c9e A6010000 		.4byte	.LASF165
 1746 0ca2 08       		.byte	0x8
 1747 0ca3 05       		.byte	0x5
 1748 0ca4 80       		.byte	0x80
 1749 0ca5 10       		.byte	0x10
 1750 0ca6 B80C0000 		.4byte	0xcb8
 1751 0caa 09       		.uleb128 0x9
 1752 0cab 3A090000 		.4byte	.LASF166
 1753 0caf 05       		.byte	0x5
 1754 0cb0 84       		.byte	0x84
 1755 0cb1 21       		.byte	0x21
 1756 0cb2 BB030000 		.4byte	0x3bb
 1757 0cb6 00       		.byte	0
 1758 0cb7 00       		.byte	0
 1759 0cb8 03       		.uleb128 0x3
 1760 0cb9 03010000 		.4byte	.LASF167
 1761 0cbd 05       		.byte	0x5
 1762 0cbe 85       		.byte	0x85
 1763 0cbf 03       		.byte	0x3
 1764 0cc0 9D0C0000 		.4byte	0xc9d
 1765 0cc4 03       		.uleb128 0x3
 1766 0cc5 0A080000 		.4byte	.LASF168
 1767 0cc9 05       		.byte	0x5
ARM GAS  /tmp/ccK9FAxv.s 			page 32


 1768 0cca 8A       		.byte	0x8a
 1769 0ccb 14       		.byte	0x14
 1770 0ccc A7040000 		.4byte	0x4a7
 1771 0cd0 10       		.uleb128 0x10
 1772 0cd1 0C       		.byte	0xc
 1773 0cd2 05       		.byte	0x5
 1774 0cd3 A0       		.byte	0xa0
 1775 0cd4 03       		.byte	0x3
 1776 0cd5 FE0C0000 		.4byte	0xcfe
 1777 0cd9 12       		.uleb128 0x12
 1778 0cda 99070000 		.4byte	.LASF169
 1779 0cde 05       		.byte	0x5
 1780 0cdf A4       		.byte	0xa4
 1781 0ce0 21       		.byte	0x21
 1782 0ce1 8E030000 		.4byte	0x38e
 1783 0ce5 12       		.uleb128 0x12
 1784 0ce6 3A090000 		.4byte	.LASF166
 1785 0cea 05       		.byte	0x5
 1786 0ceb A8       		.byte	0xa8
 1787 0cec 21       		.byte	0x21
 1788 0ced BB030000 		.4byte	0x3bb
 1789 0cf1 12       		.uleb128 0x12
 1790 0cf2 E5090000 		.4byte	.LASF170
 1791 0cf6 05       		.byte	0x5
 1792 0cf7 AC       		.byte	0xac
 1793 0cf8 21       		.byte	0x21
 1794 0cf9 F5030000 		.4byte	0x3f5
 1795 0cfd 00       		.byte	0
 1796 0cfe 10       		.uleb128 0x10
 1797 0cff 04       		.byte	0x4
 1798 0d00 05       		.byte	0x5
 1799 0d01 EB       		.byte	0xeb
 1800 0d02 03       		.byte	0x3
 1801 0d03 6E0D0000 		.4byte	0xd6e
 1802 0d07 12       		.uleb128 0x12
 1803 0d08 BD0C0000 		.4byte	.LASF171
 1804 0d0c 05       		.byte	0x5
 1805 0d0d F2       		.byte	0xf2
 1806 0d0e 21       		.byte	0x21
 1807 0d0f 26010000 		.4byte	0x126
 1808 0d13 12       		.uleb128 0x12
 1809 0d14 BE010000 		.4byte	.LASF172
 1810 0d18 05       		.byte	0x5
 1811 0d19 F9       		.byte	0xf9
 1812 0d1a 21       		.byte	0x21
 1813 0d1b 26010000 		.4byte	0x126
 1814 0d1f 1E       		.uleb128 0x1e
 1815 0d20 EC030000 		.4byte	.LASF78
 1816 0d24 05       		.byte	0x5
 1817 0d25 0001     		.2byte	0x100
 1818 0d27 22       		.byte	0x22
 1819 0d28 AD040000 		.4byte	0x4ad
 1820 0d2c 1E       		.uleb128 0x1e
 1821 0d2d D8020000 		.4byte	.LASF173
 1822 0d31 05       		.byte	0x5
 1823 0d32 0701     		.2byte	0x107
 1824 0d34 22       		.byte	0x22
ARM GAS  /tmp/ccK9FAxv.s 			page 33


 1825 0d35 6E0D0000 		.4byte	0xd6e
 1826 0d39 1E       		.uleb128 0x1e
 1827 0d3a 2B080000 		.4byte	.LASF174
 1828 0d3e 05       		.byte	0x5
 1829 0d3f 0C01     		.2byte	0x10c
 1830 0d41 21       		.byte	0x21
 1831 0d42 26010000 		.4byte	0x126
 1832 0d46 1E       		.uleb128 0x1e
 1833 0d47 2F000000 		.4byte	.LASF175
 1834 0d4b 05       		.byte	0x5
 1835 0d4c 1501     		.2byte	0x115
 1836 0d4e 22       		.byte	0x22
 1837 0d4f 9C0D0000 		.4byte	0xd9c
 1838 0d53 1E       		.uleb128 0x1e
 1839 0d54 A9040000 		.4byte	.LASF176
 1840 0d58 05       		.byte	0x5
 1841 0d59 1E01     		.2byte	0x11e
 1842 0d5b 22       		.byte	0x22
 1843 0d5c D70D0000 		.4byte	0xdd7
 1844 0d60 1E       		.uleb128 0x1e
 1845 0d61 A6020000 		.4byte	.LASF177
 1846 0d65 05       		.byte	0x5
 1847 0d66 2601     		.2byte	0x126
 1848 0d68 21       		.byte	0x21
 1849 0d69 32010000 		.4byte	0x132
 1850 0d6d 00       		.byte	0
 1851 0d6e 0D       		.uleb128 0xd
 1852 0d6f 04       		.byte	0x4
 1853 0d70 C40C0000 		.4byte	0xcc4
 1854 0d74 07       		.uleb128 0x7
 1855 0d75 5B050000 		.4byte	.LASF178
 1856 0d79 0C       		.byte	0xc
 1857 0d7a 10       		.byte	0x10
 1858 0d7b 34       		.byte	0x34
 1859 0d7c 10       		.byte	0x10
 1860 0d7d 9C0D0000 		.4byte	0xd9c
 1861 0d81 09       		.uleb128 0x9
 1862 0d82 3A090000 		.4byte	.LASF166
 1863 0d86 10       		.byte	0x10
 1864 0d87 35       		.byte	0x35
 1865 0d88 19       		.byte	0x19
 1866 0d89 BB030000 		.4byte	0x3bb
 1867 0d8d 00       		.byte	0
 1868 0d8e 08       		.uleb128 0x8
 1869 0d8f 636E7400 		.ascii	"cnt\000"
 1870 0d93 10       		.byte	0x10
 1871 0d94 37       		.byte	0x37
 1872 0d95 19       		.byte	0x19
 1873 0d96 3E010000 		.4byte	0x13e
 1874 0d9a 08       		.byte	0x8
 1875 0d9b 00       		.byte	0
 1876 0d9c 0D       		.uleb128 0xd
 1877 0d9d 04       		.byte	0x4
 1878 0d9e 740D0000 		.4byte	0xd74
 1879 0da2 07       		.uleb128 0x7
 1880 0da3 B10A0000 		.4byte	.LASF179
 1881 0da7 10       		.byte	0x10
ARM GAS  /tmp/ccK9FAxv.s 			page 34


 1882 0da8 11       		.byte	0x11
 1883 0da9 39       		.byte	0x39
 1884 0daa 08       		.byte	0x8
 1885 0dab D70D0000 		.4byte	0xdd7
 1886 0daf 09       		.uleb128 0x9
 1887 0db0 3A090000 		.4byte	.LASF166
 1888 0db4 11       		.byte	0x11
 1889 0db5 3A       		.byte	0x3a
 1890 0db6 19       		.byte	0x19
 1891 0db7 BB030000 		.4byte	0x3bb
 1892 0dbb 00       		.byte	0
 1893 0dbc 09       		.uleb128 0x9
 1894 0dbd 75000000 		.4byte	.LASF31
 1895 0dc1 11       		.byte	0x11
 1896 0dc2 3C       		.byte	0x3c
 1897 0dc3 1A       		.byte	0x1a
 1898 0dc4 A7040000 		.4byte	0x4a7
 1899 0dc8 08       		.byte	0x8
 1900 0dc9 09       		.uleb128 0x9
 1901 0dca 570D0000 		.4byte	.LASF68
 1902 0dce 11       		.byte	0x11
 1903 0dcf 3E       		.byte	0x3e
 1904 0dd0 1A       		.byte	0x1a
 1905 0dd1 0B110000 		.4byte	0x110b
 1906 0dd5 0C       		.byte	0xc
 1907 0dd6 00       		.byte	0
 1908 0dd7 0D       		.uleb128 0xd
 1909 0dd8 04       		.byte	0x4
 1910 0dd9 A20D0000 		.4byte	0xda2
 1911 0ddd 0D       		.uleb128 0xd
 1912 0dde 04       		.byte	0x4
 1913 0ddf 51020000 		.4byte	0x251
 1914 0de3 0D       		.uleb128 0xd
 1915 0de4 04       		.byte	0x4
 1916 0de5 EA000000 		.4byte	0xea
 1917 0de9 1B       		.uleb128 0x1b
 1918 0dea B0040000 		.4byte	.LASF180
 1919 0dee 10       		.byte	0x10
 1920 0def 05       		.byte	0x5
 1921 0df0 5C01     		.2byte	0x15c
 1922 0df2 10       		.byte	0x10
 1923 0df3 140E0000 		.4byte	0xe14
 1924 0df7 0B       		.uleb128 0xb
 1925 0df8 E5090000 		.4byte	.LASF170
 1926 0dfc 05       		.byte	0x5
 1927 0dfd 6101     		.2byte	0x161
 1928 0dff 21       		.byte	0x21
 1929 0e00 F5030000 		.4byte	0x3f5
 1930 0e04 00       		.byte	0
 1931 0e05 0B       		.uleb128 0xb
 1932 0e06 78070000 		.4byte	.LASF181
 1933 0e0a 05       		.byte	0x5
 1934 0e0b 6501     		.2byte	0x165
 1935 0e0d 22       		.byte	0x22
 1936 0e0e A7040000 		.4byte	0x4a7
 1937 0e12 0C       		.byte	0xc
 1938 0e13 00       		.byte	0
ARM GAS  /tmp/ccK9FAxv.s 			page 35


 1939 0e14 1A       		.uleb128 0x1a
 1940 0e15 D2050000 		.4byte	.LASF182
 1941 0e19 05       		.byte	0x5
 1942 0e1a 6601     		.2byte	0x166
 1943 0e1c 03       		.byte	0x3
 1944 0e1d E90D0000 		.4byte	0xde9
 1945 0e21 1B       		.uleb128 0x1b
 1946 0e22 4B0A0000 		.4byte	.LASF183
 1947 0e26 14       		.byte	0x14
 1948 0e27 05       		.byte	0x5
 1949 0e28 6B01     		.2byte	0x16b
 1950 0e2a 10       		.byte	0x10
 1951 0e2b 760E0000 		.4byte	0xe76
 1952 0e2f 0B       		.uleb128 0xb
 1953 0e30 270A0000 		.4byte	.LASF32
 1954 0e34 05       		.byte	0x5
 1955 0e35 6F01     		.2byte	0x16f
 1956 0e37 22       		.byte	0x22
 1957 0e38 53030000 		.4byte	0x353
 1958 0e3c 00       		.byte	0
 1959 0e3d 0B       		.uleb128 0xb
 1960 0e3e FF080000 		.4byte	.LASF184
 1961 0e42 05       		.byte	0x5
 1962 0e43 7501     		.2byte	0x175
 1963 0e45 22       		.byte	0x22
 1964 0e46 E30D0000 		.4byte	0xde3
 1965 0e4a 04       		.byte	0x4
 1966 0e4b 0B       		.uleb128 0xb
 1967 0e4c 33040000 		.4byte	.LASF185
 1968 0e50 05       		.byte	0x5
 1969 0e51 7901     		.2byte	0x179
 1970 0e53 22       		.byte	0x22
 1971 0e54 E30D0000 		.4byte	0xde3
 1972 0e58 08       		.byte	0x8
 1973 0e59 0B       		.uleb128 0xb
 1974 0e5a F60C0000 		.4byte	.LASF186
 1975 0e5e 05       		.byte	0x5
 1976 0e5f 7F01     		.2byte	0x17f
 1977 0e61 22       		.byte	0x22
 1978 0e62 E30D0000 		.4byte	0xde3
 1979 0e66 0C       		.byte	0xc
 1980 0e67 0B       		.uleb128 0xb
 1981 0e68 EF070000 		.4byte	.LASF187
 1982 0e6c 05       		.byte	0x5
 1983 0e6d 8301     		.2byte	0x183
 1984 0e6f 22       		.byte	0x22
 1985 0e70 E30D0000 		.4byte	0xde3
 1986 0e74 10       		.byte	0x10
 1987 0e75 00       		.byte	0
 1988 0e76 1A       		.uleb128 0x1a
 1989 0e77 730A0000 		.4byte	.LASF188
 1990 0e7b 05       		.byte	0x5
 1991 0e7c 8501     		.2byte	0x185
 1992 0e7e 03       		.byte	0x3
 1993 0e7f 210E0000 		.4byte	0xe21
 1994 0e83 06       		.uleb128 0x6
 1995 0e84 760E0000 		.4byte	0xe76
ARM GAS  /tmp/ccK9FAxv.s 			page 36


 1996 0e88 0D       		.uleb128 0xd
 1997 0e89 04       		.byte	0x4
 1998 0e8a 830E0000 		.4byte	0xe83
 1999 0e8e 1B       		.uleb128 0x1b
 2000 0e8f 6B0C0000 		.4byte	.LASF189
 2001 0e93 0C       		.byte	0xc
 2002 0e94 05       		.byte	0x5
 2003 0e95 C901     		.2byte	0x1c9
 2004 0e97 10       		.byte	0x10
 2005 0e98 C70E0000 		.4byte	0xec7
 2006 0e9c 0B       		.uleb128 0xb
 2007 0e9d 49010000 		.4byte	.LASF34
 2008 0ea1 05       		.byte	0x5
 2009 0ea2 CD01     		.2byte	0x1cd
 2010 0ea4 21       		.byte	0x21
 2011 0ea5 500C0000 		.4byte	0xc50
 2012 0ea9 00       		.byte	0
 2013 0eaa 0B       		.uleb128 0xb
 2014 0eab 57000000 		.4byte	.LASF190
 2015 0eaf 05       		.byte	0x5
 2016 0eb0 D101     		.2byte	0x1d1
 2017 0eb2 22       		.byte	0x22
 2018 0eb3 C70E0000 		.4byte	0xec7
 2019 0eb7 04       		.byte	0x4
 2020 0eb8 0A       		.uleb128 0xa
 2021 0eb9 746D6300 		.ascii	"tmc\000"
 2022 0ebd 05       		.byte	0x5
 2023 0ebe D601     		.2byte	0x1d6
 2024 0ec0 21       		.byte	0x21
 2025 0ec1 1D0C0000 		.4byte	0xc1d
 2026 0ec5 08       		.byte	0x8
 2027 0ec6 00       		.byte	0
 2028 0ec7 15       		.uleb128 0x15
 2029 0ec8 DD0D0000 		.4byte	0xddd
 2030 0ecc D70E0000 		.4byte	0xed7
 2031 0ed0 16       		.uleb128 0x16
 2032 0ed1 30000000 		.4byte	0x30
 2033 0ed5 00       		.byte	0
 2034 0ed6 00       		.byte	0
 2035 0ed7 1A       		.uleb128 0x1a
 2036 0ed8 D70C0000 		.4byte	.LASF191
 2037 0edc 05       		.byte	0x5
 2038 0edd ED01     		.2byte	0x1ed
 2039 0edf 03       		.byte	0x3
 2040 0ee0 8E0E0000 		.4byte	0xe8e
 2041 0ee4 17       		.uleb128 0x17
 2042 0ee5 6B0C0000 		.4byte	.LASF189
 2043 0ee9 12       		.byte	0x12
 2044 0eea 3E01     		.2byte	0x13e
 2045 0eec 14       		.byte	0x14
 2046 0eed D70E0000 		.4byte	0xed7
 2047 0ef1 17       		.uleb128 0x17
 2048 0ef2 64060000 		.4byte	.LASF192
 2049 0ef6 12       		.byte	0x12
 2050 0ef7 4001     		.2byte	0x140
 2051 0ef9 23       		.byte	0x23
 2052 0efa 830E0000 		.4byte	0xe83
ARM GAS  /tmp/ccK9FAxv.s 			page 37


 2053 0efe 1F       		.uleb128 0x1f
 2054 0eff 63683000 		.ascii	"ch0\000"
 2055 0f03 12       		.byte	0x12
 2056 0f04 4101     		.2byte	0x141
 2057 0f06 16       		.byte	0x16
 2058 0f07 51020000 		.4byte	0x251
 2059 0f0b 0E       		.uleb128 0xe
 2060 0f0c 2C       		.byte	0x2c
 2061 0f0d 13       		.byte	0x13
 2062 0f0e 34       		.byte	0x34
 2063 0f0f 09       		.byte	0x9
 2064 0f10 C2100000 		.4byte	0x10c2
 2065 0f14 09       		.uleb128 0x9
 2066 0f15 4C000000 		.4byte	.LASF193
 2067 0f19 13       		.byte	0x13
 2068 0f1a 35       		.byte	0x35
 2069 0f1b 0D       		.byte	0xd
 2070 0f1c C2100000 		.4byte	0x10c2
 2071 0f20 00       		.byte	0
 2072 0f21 09       		.uleb128 0x9
 2073 0f22 E5010000 		.4byte	.LASF194
 2074 0f26 13       		.byte	0x13
 2075 0f27 36       		.byte	0x36
 2076 0f28 0D       		.byte	0xd
 2077 0f29 6B000000 		.4byte	0x6b
 2078 0f2d 04       		.byte	0x4
 2079 0f2e 09       		.uleb128 0x9
 2080 0f2f D1080000 		.4byte	.LASF87
 2081 0f33 13       		.byte	0x13
 2082 0f34 37       		.byte	0x37
 2083 0f35 0D       		.byte	0xd
 2084 0f36 6B000000 		.4byte	0x6b
 2085 0f3a 05       		.byte	0x5
 2086 0f3b 09       		.uleb128 0x9
 2087 0f3c 6D090000 		.4byte	.LASF195
 2088 0f40 13       		.byte	0x13
 2089 0f41 38       		.byte	0x38
 2090 0f42 0D       		.byte	0xd
 2091 0f43 83000000 		.4byte	0x83
 2092 0f47 06       		.byte	0x6
 2093 0f48 09       		.uleb128 0x9
 2094 0f49 42040000 		.4byte	.LASF196
 2095 0f4d 13       		.byte	0x13
 2096 0f4e 39       		.byte	0x39
 2097 0f4f 0D       		.byte	0xd
 2098 0f50 6B000000 		.4byte	0x6b
 2099 0f54 08       		.byte	0x8
 2100 0f55 09       		.uleb128 0x9
 2101 0f56 ED0C0000 		.4byte	.LASF197
 2102 0f5a 13       		.byte	0x13
 2103 0f5b 3A       		.byte	0x3a
 2104 0f5c 0D       		.byte	0xd
 2105 0f5d 6B000000 		.4byte	0x6b
 2106 0f61 09       		.byte	0x9
 2107 0f62 09       		.uleb128 0x9
 2108 0f63 AD070000 		.4byte	.LASF198
 2109 0f67 13       		.byte	0x13
ARM GAS  /tmp/ccK9FAxv.s 			page 38


 2110 0f68 3B       		.byte	0x3b
 2111 0f69 0D       		.byte	0xd
 2112 0f6a 6B000000 		.4byte	0x6b
 2113 0f6e 0A       		.byte	0xa
 2114 0f6f 09       		.uleb128 0x9
 2115 0f70 1F000000 		.4byte	.LASF199
 2116 0f74 13       		.byte	0x13
 2117 0f75 3C       		.byte	0x3c
 2118 0f76 0D       		.byte	0xd
 2119 0f77 6B000000 		.4byte	0x6b
 2120 0f7b 0B       		.byte	0xb
 2121 0f7c 09       		.uleb128 0x9
 2122 0f7d 00000000 		.4byte	.LASF200
 2123 0f81 13       		.byte	0x13
 2124 0f82 3D       		.byte	0x3d
 2125 0f83 0D       		.byte	0xd
 2126 0f84 6B000000 		.4byte	0x6b
 2127 0f88 0C       		.byte	0xc
 2128 0f89 09       		.uleb128 0x9
 2129 0f8a 03070000 		.4byte	.LASF201
 2130 0f8e 13       		.byte	0x13
 2131 0f8f 3E       		.byte	0x3e
 2132 0f90 0D       		.byte	0xd
 2133 0f91 6B000000 		.4byte	0x6b
 2134 0f95 0D       		.byte	0xd
 2135 0f96 09       		.uleb128 0x9
 2136 0f97 9C010000 		.4byte	.LASF202
 2137 0f9b 13       		.byte	0x13
 2138 0f9c 3F       		.byte	0x3f
 2139 0f9d 0D       		.byte	0xd
 2140 0f9e 6B000000 		.4byte	0x6b
 2141 0fa2 0E       		.byte	0xe
 2142 0fa3 09       		.uleb128 0x9
 2143 0fa4 F6080000 		.4byte	.LASF203
 2144 0fa8 13       		.byte	0x13
 2145 0fa9 40       		.byte	0x40
 2146 0faa 0D       		.byte	0xd
 2147 0fab 6B000000 		.4byte	0x6b
 2148 0faf 0F       		.byte	0xf
 2149 0fb0 09       		.uleb128 0x9
 2150 0fb1 F6050000 		.4byte	.LASF204
 2151 0fb5 13       		.byte	0x13
 2152 0fb6 41       		.byte	0x41
 2153 0fb7 0D       		.byte	0xd
 2154 0fb8 6B000000 		.4byte	0x6b
 2155 0fbc 10       		.byte	0x10
 2156 0fbd 09       		.uleb128 0x9
 2157 0fbe 10050000 		.4byte	.LASF205
 2158 0fc2 13       		.byte	0x13
 2159 0fc3 42       		.byte	0x42
 2160 0fc4 0D       		.byte	0xd
 2161 0fc5 6B000000 		.4byte	0x6b
 2162 0fc9 11       		.byte	0x11
 2163 0fca 09       		.uleb128 0x9
 2164 0fcb 4D0D0000 		.4byte	.LASF206
 2165 0fcf 13       		.byte	0x13
 2166 0fd0 43       		.byte	0x43
ARM GAS  /tmp/ccK9FAxv.s 			page 39


 2167 0fd1 0D       		.byte	0xd
 2168 0fd2 6B000000 		.4byte	0x6b
 2169 0fd6 12       		.byte	0x12
 2170 0fd7 09       		.uleb128 0x9
 2171 0fd8 02040000 		.4byte	.LASF207
 2172 0fdc 13       		.byte	0x13
 2173 0fdd 44       		.byte	0x44
 2174 0fde 0D       		.byte	0xd
 2175 0fdf 6B000000 		.4byte	0x6b
 2176 0fe3 13       		.byte	0x13
 2177 0fe4 09       		.uleb128 0x9
 2178 0fe5 40000000 		.4byte	.LASF208
 2179 0fe9 13       		.byte	0x13
 2180 0fea 45       		.byte	0x45
 2181 0feb 0D       		.byte	0xd
 2182 0fec 6B000000 		.4byte	0x6b
 2183 0ff0 14       		.byte	0x14
 2184 0ff1 09       		.uleb128 0x9
 2185 0ff2 5D040000 		.4byte	.LASF209
 2186 0ff6 13       		.byte	0x13
 2187 0ff7 46       		.byte	0x46
 2188 0ff8 0D       		.byte	0xd
 2189 0ff9 6B000000 		.4byte	0x6b
 2190 0ffd 15       		.byte	0x15
 2191 0ffe 09       		.uleb128 0x9
 2192 0fff D9070000 		.4byte	.LASF210
 2193 1003 13       		.byte	0x13
 2194 1004 47       		.byte	0x47
 2195 1005 0D       		.byte	0xd
 2196 1006 D2100000 		.4byte	0x10d2
 2197 100a 16       		.byte	0x16
 2198 100b 09       		.uleb128 0x9
 2199 100c 96090000 		.4byte	.LASF211
 2200 1010 13       		.byte	0x13
 2201 1011 48       		.byte	0x48
 2202 1012 0D       		.byte	0xd
 2203 1013 6B000000 		.4byte	0x6b
 2204 1017 1A       		.byte	0x1a
 2205 1018 09       		.uleb128 0x9
 2206 1019 DF030000 		.4byte	.LASF212
 2207 101d 13       		.byte	0x13
 2208 101e 49       		.byte	0x49
 2209 101f 0D       		.byte	0xd
 2210 1020 6B000000 		.4byte	0x6b
 2211 1024 1B       		.byte	0x1b
 2212 1025 09       		.uleb128 0x9
 2213 1026 220D0000 		.4byte	.LASF213
 2214 102a 13       		.byte	0x13
 2215 102b 4A       		.byte	0x4a
 2216 102c 0D       		.byte	0xd
 2217 102d 6B000000 		.4byte	0x6b
 2218 1031 1C       		.byte	0x1c
 2219 1032 09       		.uleb128 0x9
 2220 1033 5B0B0000 		.4byte	.LASF214
 2221 1037 13       		.byte	0x13
 2222 1038 4B       		.byte	0x4b
 2223 1039 0D       		.byte	0xd
ARM GAS  /tmp/ccK9FAxv.s 			page 40


 2224 103a 6B000000 		.4byte	0x6b
 2225 103e 1D       		.byte	0x1d
 2226 103f 09       		.uleb128 0x9
 2227 1040 DA000000 		.4byte	.LASF215
 2228 1044 13       		.byte	0x13
 2229 1045 4C       		.byte	0x4c
 2230 1046 0D       		.byte	0xd
 2231 1047 6B000000 		.4byte	0x6b
 2232 104b 1E       		.byte	0x1e
 2233 104c 09       		.uleb128 0x9
 2234 104d 83010000 		.4byte	.LASF216
 2235 1051 13       		.byte	0x13
 2236 1052 4E       		.byte	0x4e
 2237 1053 0D       		.byte	0xd
 2238 1054 6B000000 		.4byte	0x6b
 2239 1058 1F       		.byte	0x1f
 2240 1059 09       		.uleb128 0x9
 2241 105a 31070000 		.4byte	.LASF217
 2242 105e 13       		.byte	0x13
 2243 105f 4F       		.byte	0x4f
 2244 1060 0D       		.byte	0xd
 2245 1061 6B000000 		.4byte	0x6b
 2246 1065 20       		.byte	0x20
 2247 1066 09       		.uleb128 0x9
 2248 1067 31010000 		.4byte	.LASF218
 2249 106b 13       		.byte	0x13
 2250 106c 50       		.byte	0x50
 2251 106d 0D       		.byte	0xd
 2252 106e D2100000 		.4byte	0x10d2
 2253 1072 21       		.byte	0x21
 2254 1073 09       		.uleb128 0x9
 2255 1074 2C0B0000 		.4byte	.LASF219
 2256 1078 13       		.byte	0x13
 2257 1079 51       		.byte	0x51
 2258 107a 0D       		.byte	0xd
 2259 107b 6B000000 		.4byte	0x6b
 2260 107f 25       		.byte	0x25
 2261 1080 09       		.uleb128 0x9
 2262 1081 3E060000 		.4byte	.LASF220
 2263 1085 13       		.byte	0x13
 2264 1086 53       		.byte	0x53
 2265 1087 0D       		.byte	0xd
 2266 1088 6B000000 		.4byte	0x6b
 2267 108c 26       		.byte	0x26
 2268 108d 09       		.uleb128 0x9
 2269 108e CC010000 		.4byte	.LASF221
 2270 1092 13       		.byte	0x13
 2271 1093 54       		.byte	0x54
 2272 1094 0D       		.byte	0xd
 2273 1095 6B000000 		.4byte	0x6b
 2274 1099 27       		.byte	0x27
 2275 109a 09       		.uleb128 0x9
 2276 109b 160A0000 		.4byte	.LASF222
 2277 109f 13       		.byte	0x13
 2278 10a0 55       		.byte	0x55
 2279 10a1 0D       		.byte	0xd
 2280 10a2 6B000000 		.4byte	0x6b
ARM GAS  /tmp/ccK9FAxv.s 			page 41


 2281 10a6 28       		.byte	0x28
 2282 10a7 09       		.uleb128 0x9
 2283 10a8 A8030000 		.4byte	.LASF223
 2284 10ac 13       		.byte	0x13
 2285 10ad 56       		.byte	0x56
 2286 10ae 0D       		.byte	0xd
 2287 10af 6B000000 		.4byte	0x6b
 2288 10b3 29       		.byte	0x29
 2289 10b4 09       		.uleb128 0x9
 2290 10b5 A6090000 		.4byte	.LASF224
 2291 10b9 13       		.byte	0x13
 2292 10ba 57       		.byte	0x57
 2293 10bb 0D       		.byte	0xd
 2294 10bc 6B000000 		.4byte	0x6b
 2295 10c0 2A       		.byte	0x2a
 2296 10c1 00       		.byte	0
 2297 10c2 15       		.uleb128 0x15
 2298 10c3 5E030000 		.4byte	0x35e
 2299 10c7 D2100000 		.4byte	0x10d2
 2300 10cb 16       		.uleb128 0x16
 2301 10cc 30000000 		.4byte	0x30
 2302 10d0 03       		.byte	0x3
 2303 10d1 00       		.byte	0
 2304 10d2 15       		.uleb128 0x15
 2305 10d3 6B000000 		.4byte	0x6b
 2306 10d7 E2100000 		.4byte	0x10e2
 2307 10db 16       		.uleb128 0x16
 2308 10dc 30000000 		.4byte	0x30
 2309 10e0 03       		.byte	0x3
 2310 10e1 00       		.byte	0
 2311 10e2 03       		.uleb128 0x3
 2312 10e3 E30C0000 		.4byte	.LASF225
 2313 10e7 13       		.byte	0x13
 2314 10e8 58       		.byte	0x58
 2315 10e9 03       		.byte	0x3
 2316 10ea 0B0F0000 		.4byte	0xf0b
 2317 10ee 06       		.uleb128 0x6
 2318 10ef E2100000 		.4byte	0x10e2
 2319 10f3 18       		.uleb128 0x18
 2320 10f4 A5000000 		.4byte	.LASF226
 2321 10f8 13       		.byte	0x13
 2322 10f9 7F       		.byte	0x7f
 2323 10fa 1D       		.byte	0x1d
 2324 10fb EE100000 		.4byte	0x10ee
 2325 10ff 03       		.uleb128 0x3
 2326 1100 430B0000 		.4byte	.LASF227
 2327 1104 11       		.byte	0x11
 2328 1105 34       		.byte	0x34
 2329 1106 19       		.byte	0x19
 2330 1107 A20D0000 		.4byte	0xda2
 2331 110b 0D       		.uleb128 0xd
 2332 110c 04       		.byte	0x4
 2333 110d FF100000 		.4byte	0x10ff
 2334 1111 04       		.uleb128 0x4
 2335 1112 01       		.byte	0x1
 2336 1113 02       		.byte	0x2
 2337 1114 98030000 		.4byte	.LASF228
ARM GAS  /tmp/ccK9FAxv.s 			page 42


 2338 1118 03       		.uleb128 0x3
 2339 1119 CC070000 		.4byte	.LASF229
 2340 111d 14       		.byte	0x14
 2341 111e 47       		.byte	0x47
 2342 111f 11       		.byte	0x11
 2343 1120 24110000 		.4byte	0x1124
 2344 1124 0D       		.uleb128 0xd
 2345 1125 04       		.byte	0x4
 2346 1126 2A110000 		.4byte	0x112a
 2347 112a 20       		.uleb128 0x20
 2348 112b AD040000 		.4byte	0x4ad
 2349 112f 3E110000 		.4byte	0x113e
 2350 1133 21       		.uleb128 0x21
 2351 1134 24000000 		.4byte	0x24
 2352 1138 21       		.uleb128 0x21
 2353 1139 30000000 		.4byte	0x30
 2354 113d 00       		.byte	0
 2355 113e 0E       		.uleb128 0xe
 2356 113f 08       		.byte	0x8
 2357 1140 14       		.byte	0x14
 2358 1141 51       		.byte	0x51
 2359 1142 09       		.byte	0x9
 2360 1143 62110000 		.4byte	0x1162
 2361 1147 09       		.uleb128 0x9
 2362 1148 530B0000 		.4byte	.LASF230
 2363 114c 14       		.byte	0x14
 2364 114d 55       		.byte	0x55
 2365 114e 0C       		.byte	0xc
 2366 114f 62110000 		.4byte	0x1162
 2367 1153 00       		.byte	0
 2368 1154 09       		.uleb128 0x9
 2369 1155 DF050000 		.4byte	.LASF231
 2370 1159 14       		.byte	0x14
 2371 115a 59       		.byte	0x59
 2372 115b 0C       		.byte	0xc
 2373 115c 62110000 		.4byte	0x1162
 2374 1160 04       		.byte	0x4
 2375 1161 00       		.byte	0
 2376 1162 0D       		.uleb128 0xd
 2377 1163 04       		.byte	0x4
 2378 1164 6B000000 		.4byte	0x6b
 2379 1168 03       		.uleb128 0x3
 2380 1169 90020000 		.4byte	.LASF232
 2381 116d 14       		.byte	0x14
 2382 116e 5A       		.byte	0x5a
 2383 116f 03       		.byte	0x3
 2384 1170 3E110000 		.4byte	0x113e
 2385 1174 18       		.uleb128 0x18
 2386 1175 420D0000 		.4byte	.LASF233
 2387 1179 14       		.byte	0x14
 2388 117a 75       		.byte	0x75
 2389 117b 12       		.byte	0x12
 2390 117c 68110000 		.4byte	0x1168
 2391 1180 07       		.uleb128 0x7
 2392 1181 03060000 		.4byte	.LASF234
 2393 1185 04       		.byte	0x4
 2394 1186 15       		.byte	0x15
ARM GAS  /tmp/ccK9FAxv.s 			page 43


 2395 1187 38       		.byte	0x38
 2396 1188 08       		.byte	0x8
 2397 1189 9B110000 		.4byte	0x119b
 2398 118d 09       		.uleb128 0x9
 2399 118e 570D0000 		.4byte	.LASF68
 2400 1192 15       		.byte	0x15
 2401 1193 39       		.byte	0x39
 2402 1194 1A       		.byte	0x1a
 2403 1195 9B110000 		.4byte	0x119b
 2404 1199 00       		.byte	0
 2405 119a 00       		.byte	0
 2406 119b 0D       		.uleb128 0xd
 2407 119c 04       		.byte	0x4
 2408 119d 80110000 		.4byte	0x1180
 2409 11a1 0E       		.uleb128 0xe
 2410 11a2 10       		.byte	0x10
 2411 11a3 15       		.byte	0x15
 2412 11a4 40       		.byte	0x40
 2413 11a5 09       		.byte	0x9
 2414 11a6 DF110000 		.4byte	0x11df
 2415 11aa 09       		.uleb128 0x9
 2416 11ab 570D0000 		.4byte	.LASF68
 2417 11af 15       		.byte	0x15
 2418 11b0 41       		.byte	0x41
 2419 11b1 1A       		.byte	0x1a
 2420 11b2 9B110000 		.4byte	0x119b
 2421 11b6 00       		.byte	0
 2422 11b7 09       		.uleb128 0x9
 2423 11b8 C5080000 		.4byte	.LASF235
 2424 11bc 15       		.byte	0x15
 2425 11bd 42       		.byte	0x42
 2426 11be 19       		.byte	0x19
 2427 11bf 24000000 		.4byte	0x24
 2428 11c3 04       		.byte	0x4
 2429 11c4 09       		.uleb128 0x9
 2430 11c5 CD060000 		.4byte	.LASF236
 2431 11c9 15       		.byte	0x15
 2432 11ca 44       		.byte	0x44
 2433 11cb 19       		.byte	0x19
 2434 11cc 30000000 		.4byte	0x30
 2435 11d0 08       		.byte	0x8
 2436 11d1 09       		.uleb128 0x9
 2437 11d2 AE000000 		.4byte	.LASF237
 2438 11d6 15       		.byte	0x15
 2439 11d7 45       		.byte	0x45
 2440 11d8 19       		.byte	0x19
 2441 11d9 18110000 		.4byte	0x1118
 2442 11dd 0C       		.byte	0xc
 2443 11de 00       		.byte	0
 2444 11df 03       		.uleb128 0x3
 2445 11e0 88090000 		.4byte	.LASF238
 2446 11e4 15       		.byte	0x15
 2447 11e5 47       		.byte	0x47
 2448 11e6 03       		.byte	0x3
 2449 11e7 A1110000 		.4byte	0x11a1
 2450 11eb 07       		.uleb128 0x7
 2451 11ec 1A010000 		.4byte	.LASF239
ARM GAS  /tmp/ccK9FAxv.s 			page 44


 2452 11f0 10       		.byte	0x10
 2453 11f1 16       		.byte	0x16
 2454 11f2 A9       		.byte	0xa9
 2455 11f3 10       		.byte	0x10
 2456 11f4 20120000 		.4byte	0x1220
 2457 11f8 09       		.uleb128 0x9
 2458 11f9 570D0000 		.4byte	.LASF68
 2459 11fd 16       		.byte	0x16
 2460 11fe AD       		.byte	0xad
 2461 11ff 1A       		.byte	0x1a
 2462 1200 20120000 		.4byte	0x1220
 2463 1204 00       		.byte	0
 2464 1205 09       		.uleb128 0x9
 2465 1206 35090000 		.4byte	.LASF36
 2466 120a 16       		.byte	0x16
 2467 120b B1       		.byte	0xb1
 2468 120c 19       		.byte	0x19
 2469 120d 4A010000 		.4byte	0x14a
 2470 1211 04       		.byte	0x4
 2471 1212 09       		.uleb128 0x9
 2472 1213 270A0000 		.4byte	.LASF32
 2473 1217 16       		.byte	0x16
 2474 1218 B3       		.byte	0xb3
 2475 1219 19       		.byte	0x19
 2476 121a 26120000 		.4byte	0x1226
 2477 121e 08       		.byte	0x8
 2478 121f 00       		.byte	0
 2479 1220 0D       		.uleb128 0xd
 2480 1221 04       		.byte	0x4
 2481 1222 EB110000 		.4byte	0x11eb
 2482 1226 15       		.uleb128 0x15
 2483 1227 5E030000 		.4byte	0x35e
 2484 122b 36120000 		.4byte	0x1236
 2485 122f 16       		.uleb128 0x16
 2486 1230 30000000 		.4byte	0x30
 2487 1234 07       		.byte	0x7
 2488 1235 00       		.byte	0
 2489 1236 03       		.uleb128 0x3
 2490 1237 9B040000 		.4byte	.LASF240
 2491 123b 16       		.byte	0x16
 2492 123c B7       		.byte	0xb7
 2493 123d 03       		.byte	0x3
 2494 123e EB110000 		.4byte	0x11eb
 2495 1242 07       		.uleb128 0x7
 2496 1243 670D0000 		.4byte	.LASF241
 2497 1247 04       		.byte	0x4
 2498 1248 16       		.byte	0x16
 2499 1249 BC       		.byte	0xbc
 2500 124a 10       		.byte	0x10
 2501 124b 5D120000 		.4byte	0x125d
 2502 124f 09       		.uleb128 0x9
 2503 1250 570D0000 		.4byte	.LASF68
 2504 1254 16       		.byte	0x16
 2505 1255 BD       		.byte	0xbd
 2506 1256 1A       		.byte	0x1a
 2507 1257 5D120000 		.4byte	0x125d
 2508 125b 00       		.byte	0
ARM GAS  /tmp/ccK9FAxv.s 			page 45


 2509 125c 00       		.byte	0
 2510 125d 0D       		.uleb128 0xd
 2511 125e 04       		.byte	0x4
 2512 125f 36120000 		.4byte	0x1236
 2513 1263 03       		.uleb128 0x3
 2514 1264 E10A0000 		.4byte	.LASF242
 2515 1268 16       		.byte	0x16
 2516 1269 BE       		.byte	0xbe
 2517 126a 03       		.byte	0x3
 2518 126b 42120000 		.4byte	0x1242
 2519 126f 1B       		.uleb128 0x1b
 2520 1270 8D060000 		.4byte	.LASF243
 2521 1274 48       		.byte	0x48
 2522 1275 16       		.byte	0x16
 2523 1276 2001     		.2byte	0x120
 2524 1278 10       		.byte	0x10
 2525 1279 FC120000 		.4byte	0x12fc
 2526 127d 0A       		.uleb128 0xa
 2527 127e 6D747800 		.ascii	"mtx\000"
 2528 1282 16       		.byte	0x16
 2529 1283 2501     		.2byte	0x125
 2530 1285 19       		.byte	0x19
 2531 1286 FF100000 		.4byte	0x10ff
 2532 128a 00       		.byte	0
 2533 128b 0B       		.uleb128 0xb
 2534 128c 6B010000 		.4byte	.LASF244
 2535 1290 16       		.byte	0x16
 2536 1291 2C01     		.2byte	0x12c
 2537 1293 19       		.byte	0x19
 2538 1294 63120000 		.4byte	0x1263
 2539 1298 10       		.byte	0x10
 2540 1299 0B       		.uleb128 0xb
 2541 129a 3B020000 		.4byte	.LASF245
 2542 129e 16       		.byte	0x16
 2543 129f 3001     		.2byte	0x130
 2544 12a1 19       		.byte	0x19
 2545 12a2 DF110000 		.4byte	0x11df
 2546 12a6 14       		.byte	0x14
 2547 12a7 0B       		.uleb128 0xb
 2548 12a8 8C080000 		.4byte	.LASF246
 2549 12ac 16       		.byte	0x16
 2550 12ad 3501     		.2byte	0x135
 2551 12af 19       		.byte	0x19
 2552 12b0 63120000 		.4byte	0x1263
 2553 12b4 24       		.byte	0x24
 2554 12b5 0B       		.uleb128 0xb
 2555 12b6 D6030000 		.4byte	.LASF247
 2556 12ba 16       		.byte	0x16
 2557 12bb 3B01     		.2byte	0x13b
 2558 12bd 19       		.byte	0x19
 2559 12be 63120000 		.4byte	0x1263
 2560 12c2 28       		.byte	0x28
 2561 12c3 0B       		.uleb128 0xb
 2562 12c4 E0040000 		.4byte	.LASF248
 2563 12c8 16       		.byte	0x16
 2564 12c9 3F01     		.2byte	0x13f
 2565 12cb 19       		.byte	0x19
ARM GAS  /tmp/ccK9FAxv.s 			page 46


 2566 12cc DF110000 		.4byte	0x11df
 2567 12d0 2C       		.byte	0x2c
 2568 12d1 0B       		.uleb128 0xb
 2569 12d2 59090000 		.4byte	.LASF249
 2570 12d6 16       		.byte	0x16
 2571 12d7 4501     		.2byte	0x145
 2572 12d9 19       		.byte	0x19
 2573 12da 63120000 		.4byte	0x1263
 2574 12de 3C       		.byte	0x3c
 2575 12df 0B       		.uleb128 0xb
 2576 12e0 B5050000 		.4byte	.LASF250
 2577 12e4 16       		.byte	0x16
 2578 12e5 4B01     		.2byte	0x14b
 2579 12e7 19       		.byte	0x19
 2580 12e8 63120000 		.4byte	0x1263
 2581 12ec 40       		.byte	0x40
 2582 12ed 0B       		.uleb128 0xb
 2583 12ee 6C040000 		.4byte	.LASF251
 2584 12f2 16       		.byte	0x16
 2585 12f3 5101     		.2byte	0x151
 2586 12f5 19       		.byte	0x19
 2587 12f6 63120000 		.4byte	0x1263
 2588 12fa 44       		.byte	0x44
 2589 12fb 00       		.byte	0
 2590 12fc 1A       		.uleb128 0x1a
 2591 12fd 69080000 		.4byte	.LASF252
 2592 1301 16       		.byte	0x16
 2593 1302 5301     		.2byte	0x153
 2594 1304 03       		.byte	0x3
 2595 1305 6F120000 		.4byte	0x126f
 2596 1309 17       		.uleb128 0x17
 2597 130a 4E090000 		.4byte	.LASF253
 2598 130e 16       		.byte	0x16
 2599 130f 5E01     		.2byte	0x15e
 2600 1311 1A       		.byte	0x1a
 2601 1312 FC120000 		.4byte	0x12fc
 2602 1316 19       		.uleb128 0x19
 2603 1317 10       		.byte	0x10
 2604 1318 17       		.byte	0x17
 2605 1319 4301     		.2byte	0x143
 2606 131b 09       		.byte	0x9
 2607 131c 83130000 		.4byte	0x1383
 2608 1320 0A       		.uleb128 0xa
 2609 1321 646D6100 		.ascii	"dma\000"
 2610 1325 17       		.byte	0x17
 2611 1326 4401     		.2byte	0x144
 2612 1328 1A       		.byte	0x1a
 2613 1329 83130000 		.4byte	0x1383
 2614 132d 00       		.byte	0
 2615 132e 0B       		.uleb128 0xb
 2616 132f 6E050000 		.4byte	.LASF254
 2617 1333 17       		.byte	0x17
 2618 1334 4501     		.2byte	0x145
 2619 1336 1A       		.byte	0x1a
 2620 1337 89130000 		.4byte	0x1389
 2621 133b 04       		.byte	0x4
 2622 133c 0B       		.uleb128 0xb
ARM GAS  /tmp/ccK9FAxv.s 			page 47


 2623 133d 95080000 		.4byte	.LASF255
 2624 1341 17       		.byte	0x17
 2625 1342 4601     		.2byte	0x146
 2626 1344 19       		.byte	0x19
 2627 1345 96000000 		.4byte	0x96
 2628 1349 08       		.byte	0x8
 2629 134a 0B       		.uleb128 0xb
 2630 134b C2090000 		.4byte	.LASF256
 2631 134f 17       		.byte	0x17
 2632 1350 4D01     		.2byte	0x14d
 2633 1352 19       		.byte	0x19
 2634 1353 6B000000 		.4byte	0x6b
 2635 1357 0C       		.byte	0xc
 2636 1358 0B       		.uleb128 0xb
 2637 1359 68050000 		.4byte	.LASF257
 2638 135d 17       		.byte	0x17
 2639 135e 4F01     		.2byte	0x14f
 2640 1360 19       		.byte	0x19
 2641 1361 6B000000 		.4byte	0x6b
 2642 1365 0D       		.byte	0xd
 2643 1366 0B       		.uleb128 0xb
 2644 1367 0D070000 		.4byte	.LASF258
 2645 136b 17       		.byte	0x17
 2646 136c 5101     		.2byte	0x151
 2647 136e 19       		.byte	0x19
 2648 136f 6B000000 		.4byte	0x6b
 2649 1373 0E       		.byte	0xe
 2650 1374 0B       		.uleb128 0xb
 2651 1375 47090000 		.4byte	.LASF259
 2652 1379 17       		.byte	0x17
 2653 137a 5201     		.2byte	0x152
 2654 137c 19       		.byte	0x19
 2655 137d 6B000000 		.4byte	0x6b
 2656 1381 0F       		.byte	0xf
 2657 1382 00       		.byte	0
 2658 1383 0D       		.uleb128 0xd
 2659 1384 04       		.byte	0x4
 2660 1385 59090000 		.4byte	0x959
 2661 1389 0D       		.uleb128 0xd
 2662 138a 04       		.byte	0x4
 2663 138b 25090000 		.4byte	0x925
 2664 138f 1A       		.uleb128 0x1a
 2665 1390 BF050000 		.4byte	.LASF260
 2666 1394 17       		.byte	0x17
 2667 1395 5301     		.2byte	0x153
 2668 1397 03       		.byte	0x3
 2669 1398 16130000 		.4byte	0x1316
 2670 139c 06       		.uleb128 0x6
 2671 139d 8F130000 		.4byte	0x138f
 2672 13a1 15       		.uleb128 0x15
 2673 13a2 9C130000 		.4byte	0x139c
 2674 13a6 B1130000 		.4byte	0x13b1
 2675 13aa 16       		.uleb128 0x16
 2676 13ab 30000000 		.4byte	0x30
 2677 13af 0B       		.byte	0xb
 2678 13b0 00       		.byte	0
 2679 13b1 06       		.uleb128 0x6
ARM GAS  /tmp/ccK9FAxv.s 			page 48


 2680 13b2 A1130000 		.4byte	0x13a1
 2681 13b6 17       		.uleb128 0x17
 2682 13b7 96050000 		.4byte	.LASF261
 2683 13bb 17       		.byte	0x17
 2684 13bc 0F02     		.2byte	0x20f
 2685 13be 21       		.byte	0x21
 2686 13bf B1130000 		.4byte	0x13b1
 2687 13c3 1C       		.uleb128 0x1c
 2688 13c4 07       		.byte	0x7
 2689 13c5 01       		.byte	0x1
 2690 13c6 7C000000 		.4byte	0x7c
 2691 13ca 18       		.byte	0x18
 2692 13cb 46       		.byte	0x46
 2693 13cc 0E       		.byte	0xe
 2694 13cd F6130000 		.4byte	0x13f6
 2695 13d1 1D       		.uleb128 0x1d
 2696 13d2 74030000 		.4byte	.LASF262
 2697 13d6 00       		.byte	0
 2698 13d7 1D       		.uleb128 0x1d
 2699 13d8 C8090000 		.4byte	.LASF263
 2700 13dc 01       		.byte	0x1
 2701 13dd 1D       		.uleb128 0x1d
 2702 13de 8E030000 		.4byte	.LASF264
 2703 13e2 02       		.byte	0x2
 2704 13e3 1D       		.uleb128 0x1d
 2705 13e4 C4000000 		.4byte	.LASF265
 2706 13e8 03       		.byte	0x3
 2707 13e9 1D       		.uleb128 0x1d
 2708 13ea 29060000 		.4byte	.LASF266
 2709 13ee 04       		.byte	0x4
 2710 13ef 1D       		.uleb128 0x1d
 2711 13f0 F8030000 		.4byte	.LASF267
 2712 13f4 05       		.byte	0x5
 2713 13f5 00       		.byte	0
 2714 13f6 03       		.uleb128 0x3
 2715 13f7 CF000000 		.4byte	.LASF268
 2716 13fb 18       		.byte	0x18
 2717 13fc 4D       		.byte	0x4d
 2718 13fd 03       		.byte	0x3
 2719 13fe C3130000 		.4byte	0x13c3
 2720 1402 03       		.uleb128 0x3
 2721 1403 2B090000 		.4byte	.LASF269
 2722 1407 18       		.byte	0x18
 2723 1408 52       		.byte	0x52
 2724 1409 1F       		.byte	0x1f
 2725 140a 0E140000 		.4byte	0x140e
 2726 140e 07       		.uleb128 0x7
 2727 140f 5A080000 		.4byte	.LASF270
 2728 1413 38       		.byte	0x38
 2729 1414 18       		.byte	0x18
 2730 1415 A0       		.byte	0xa0
 2731 1416 08       		.byte	0x8
 2732 1417 AB140000 		.4byte	0x14ab
 2733 141b 09       		.uleb128 0x9
 2734 141c 49010000 		.4byte	.LASF34
 2735 1420 18       		.byte	0x18
 2736 1421 A4       		.byte	0xa4
ARM GAS  /tmp/ccK9FAxv.s 			page 49


 2737 1422 1D       		.byte	0x1d
 2738 1423 F6130000 		.4byte	0x13f6
 2739 1427 00       		.byte	0
 2740 1428 09       		.uleb128 0x9
 2741 1429 42010000 		.4byte	.LASF51
 2742 142d 18       		.byte	0x18
 2743 142e A8       		.byte	0xa8
 2744 142f 1E       		.byte	0x1e
 2745 1430 32160000 		.4byte	0x1632
 2746 1434 04       		.byte	0x4
 2747 1435 09       		.uleb128 0x9
 2748 1436 070A0000 		.4byte	.LASF271
 2749 143a 18       		.byte	0x18
 2750 143b AC       		.byte	0xac
 2751 143c 1E       		.byte	0x1e
 2752 143d 38160000 		.4byte	0x1638
 2753 1441 08       		.byte	0x8
 2754 1442 09       		.uleb128 0x9
 2755 1443 C2060000 		.4byte	.LASF272
 2756 1447 18       		.byte	0x18
 2757 1448 B0       		.byte	0xb0
 2758 1449 1D       		.byte	0x1d
 2759 144a 24000000 		.4byte	0x24
 2760 144e 0C       		.byte	0xc
 2761 144f 09       		.uleb128 0x9
 2762 1450 F3030000 		.4byte	.LASF273
 2763 1454 18       		.byte	0x18
 2764 1455 B4       		.byte	0xb4
 2765 1456 1E       		.byte	0x1e
 2766 1457 3E160000 		.4byte	0x163e
 2767 145b 10       		.byte	0x10
 2768 145c 09       		.uleb128 0x9
 2769 145d 0F0A0000 		.4byte	.LASF274
 2770 1461 18       		.byte	0x18
 2771 1462 B9       		.byte	0xb9
 2772 1463 1D       		.byte	0x1d
 2773 1464 C40C0000 		.4byte	0xcc4
 2774 1468 14       		.byte	0x14
 2775 1469 09       		.uleb128 0x9
 2776 146a D3060000 		.4byte	.LASF275
 2777 146e 18       		.byte	0x18
 2778 146f BF       		.byte	0xbf
 2779 1470 1D       		.byte	0x1d
 2780 1471 FF100000 		.4byte	0x10ff
 2781 1475 18       		.byte	0x18
 2782 1476 09       		.uleb128 0x9
 2783 1477 B4060000 		.4byte	.LASF276
 2784 147b 18       		.byte	0x18
 2785 147c C5       		.byte	0xc5
 2786 147d 03       		.byte	0x3
 2787 147e 44160000 		.4byte	0x1644
 2788 1482 28       		.byte	0x28
 2789 1483 09       		.uleb128 0x9
 2790 1484 C7010000 		.4byte	.LASF277
 2791 1488 18       		.byte	0x18
 2792 1489 C5       		.byte	0xc5
 2793 148a 03       		.byte	0x3
ARM GAS  /tmp/ccK9FAxv.s 			page 50


 2794 148b 4A160000 		.4byte	0x164a
 2795 148f 2C       		.byte	0x2c
 2796 1490 09       		.uleb128 0x9
 2797 1491 CA030000 		.4byte	.LASF278
 2798 1495 18       		.byte	0x18
 2799 1496 C5       		.byte	0xc5
 2800 1497 03       		.byte	0x3
 2801 1498 50160000 		.4byte	0x1650
 2802 149c 30       		.byte	0x30
 2803 149d 09       		.uleb128 0x9
 2804 149e EA010000 		.4byte	.LASF279
 2805 14a2 18       		.byte	0x18
 2806 14a3 C5       		.byte	0xc5
 2807 14a4 03       		.byte	0x3
 2808 14a5 96000000 		.4byte	0x96
 2809 14a9 34       		.byte	0x34
 2810 14aa 00       		.byte	0
 2811 14ab 03       		.uleb128 0x3
 2812 14ac 820D0000 		.4byte	.LASF280
 2813 14b0 18       		.byte	0x18
 2814 14b1 57       		.byte	0x57
 2815 14b2 1F       		.byte	0x1f
 2816 14b3 BC140000 		.4byte	0x14bc
 2817 14b7 06       		.uleb128 0x6
 2818 14b8 AB140000 		.4byte	0x14ab
 2819 14bc 07       		.uleb128 0x7
 2820 14bd 9E070000 		.4byte	.LASF281
 2821 14c1 04       		.byte	0x4
 2822 14c2 18       		.byte	0x18
 2823 14c3 98       		.byte	0x98
 2824 14c4 08       		.byte	0x8
 2825 14c5 D7140000 		.4byte	0x14d7
 2826 14c9 09       		.uleb128 0x9
 2827 14ca 0E010000 		.4byte	.LASF282
 2828 14ce 18       		.byte	0x18
 2829 14cf 9A       		.byte	0x9a
 2830 14d0 03       		.byte	0x3
 2831 14d1 96000000 		.4byte	0x96
 2832 14d5 00       		.byte	0
 2833 14d6 00       		.byte	0
 2834 14d7 03       		.uleb128 0x3
 2835 14d8 0F060000 		.4byte	.LASF283
 2836 14dc 18       		.byte	0x18
 2837 14dd 61       		.byte	0x61
 2838 14de 2C       		.byte	0x2c
 2839 14df E8140000 		.4byte	0x14e8
 2840 14e3 06       		.uleb128 0x6
 2841 14e4 D7140000 		.4byte	0x14d7
 2842 14e8 07       		.uleb128 0x7
 2843 14e9 060D0000 		.4byte	.LASF284
 2844 14ed 3C       		.byte	0x3c
 2845 14ee 18       		.byte	0x18
 2846 14ef 80       		.byte	0x80
 2847 14f0 08       		.byte	0x8
 2848 14f1 92150000 		.4byte	0x1592
 2849 14f5 09       		.uleb128 0x9
 2850 14f6 24040000 		.4byte	.LASF285
ARM GAS  /tmp/ccK9FAxv.s 			page 51


 2851 14fa 18       		.byte	0x18
 2852 14fb 84       		.byte	0x84
 2853 14fc 1D       		.byte	0x1d
 2854 14fd 11110000 		.4byte	0x1111
 2855 1501 00       		.byte	0
 2856 1502 09       		.uleb128 0x9
 2857 1503 66070000 		.4byte	.LASF286
 2858 1507 18       		.byte	0x18
 2859 1508 88       		.byte	0x88
 2860 1509 1D       		.byte	0x1d
 2861 150a 9F150000 		.4byte	0x159f
 2862 150e 02       		.byte	0x2
 2863 150f 09       		.uleb128 0x9
 2864 1510 B7010000 		.4byte	.LASF287
 2865 1514 18       		.byte	0x18
 2866 1515 8C       		.byte	0x8c
 2867 1516 1D       		.byte	0x1d
 2868 1517 ED150000 		.4byte	0x15ed
 2869 151b 04       		.byte	0x4
 2870 151c 09       		.uleb128 0x9
 2871 151d 93010000 		.4byte	.LASF288
 2872 1521 18       		.byte	0x18
 2873 1522 90       		.byte	0x90
 2874 1523 1D       		.byte	0x1d
 2875 1524 10160000 		.4byte	0x1610
 2876 1528 08       		.byte	0x8
 2877 1529 09       		.uleb128 0x9
 2878 152a 15010000 		.4byte	.LASF289
 2879 152e 18       		.byte	0x18
 2880 152f 92       		.byte	0x92
 2881 1530 03       		.byte	0x3
 2882 1531 96000000 		.4byte	0x96
 2883 1535 0C       		.byte	0xc
 2884 1536 08       		.uleb128 0x8
 2885 1537 74723100 		.ascii	"tr1\000"
 2886 153b 18       		.byte	0x18
 2887 153c 92       		.byte	0x92
 2888 153d 03       		.byte	0x3
 2889 153e 96000000 		.4byte	0x96
 2890 1542 10       		.byte	0x10
 2891 1543 08       		.uleb128 0x8
 2892 1544 74723200 		.ascii	"tr2\000"
 2893 1548 18       		.byte	0x18
 2894 1549 92       		.byte	0x92
 2895 154a 03       		.byte	0x3
 2896 154b 96000000 		.4byte	0x96
 2897 154f 14       		.byte	0x14
 2898 1550 08       		.uleb128 0x8
 2899 1551 74723300 		.ascii	"tr3\000"
 2900 1555 18       		.byte	0x18
 2901 1556 92       		.byte	0x92
 2902 1557 03       		.byte	0x3
 2903 1558 96000000 		.4byte	0x96
 2904 155c 18       		.byte	0x18
 2905 155d 09       		.uleb128 0x9
 2906 155e ED060000 		.4byte	.LASF290
 2907 1562 18       		.byte	0x18
ARM GAS  /tmp/ccK9FAxv.s 			page 52


 2908 1563 92       		.byte	0x92
 2909 1564 03       		.byte	0x3
 2910 1565 96000000 		.4byte	0x96
 2911 1569 1C       		.byte	0x1c
 2912 156a 09       		.uleb128 0x9
 2913 156b 7A090000 		.4byte	.LASF291
 2914 156f 18       		.byte	0x18
 2915 1570 92       		.byte	0x92
 2916 1571 03       		.byte	0x3
 2917 1572 96000000 		.4byte	0x96
 2918 1576 20       		.byte	0x20
 2919 1577 09       		.uleb128 0x9
 2920 1578 0E020000 		.4byte	.LASF292
 2921 157c 18       		.byte	0x18
 2922 157d 92       		.byte	0x92
 2923 157e 03       		.byte	0x3
 2924 157f 28060000 		.4byte	0x628
 2925 1583 24       		.byte	0x24
 2926 1584 08       		.uleb128 0x8
 2927 1585 73717200 		.ascii	"sqr\000"
 2928 1589 18       		.byte	0x18
 2929 158a 92       		.byte	0x92
 2930 158b 03       		.byte	0x3
 2931 158c 7C080000 		.4byte	0x87c
 2932 1590 2C       		.byte	0x2c
 2933 1591 00       		.byte	0
 2934 1592 1A       		.uleb128 0x1a
 2935 1593 B9030000 		.4byte	.LASF293
 2936 1597 19       		.byte	0x19
 2937 1598 5903     		.2byte	0x359
 2938 159a 12       		.byte	0x12
 2939 159b 83000000 		.4byte	0x83
 2940 159f 1A       		.uleb128 0x1a
 2941 15a0 EE040000 		.4byte	.LASF294
 2942 15a4 19       		.byte	0x19
 2943 15a5 6103     		.2byte	0x361
 2944 15a7 12       		.byte	0x12
 2945 15a8 83000000 		.4byte	0x83
 2946 15ac 1A       		.uleb128 0x1a
 2947 15ad 5C030000 		.4byte	.LASF295
 2948 15b1 19       		.byte	0x19
 2949 15b2 6603     		.2byte	0x366
 2950 15b4 12       		.byte	0x12
 2951 15b5 96000000 		.4byte	0x96
 2952 15b9 17       		.uleb128 0x17
 2953 15ba 80070000 		.4byte	.LASF296
 2954 15be 19       		.byte	0x19
 2955 15bf 2204     		.2byte	0x422
 2956 15c1 12       		.byte	0x12
 2957 15c2 02140000 		.4byte	0x1402
 2958 15c6 17       		.uleb128 0x17
 2959 15c7 5C0D0000 		.4byte	.LASF297
 2960 15cb 19       		.byte	0x19
 2961 15cc 2604     		.2byte	0x426
 2962 15ce 12       		.byte	0x12
 2963 15cf 02140000 		.4byte	0x1402
 2964 15d3 17       		.uleb128 0x17
ARM GAS  /tmp/ccK9FAxv.s 			page 53


 2965 15d4 8D070000 		.4byte	.LASF298
 2966 15d8 19       		.byte	0x19
 2967 15d9 2A04     		.2byte	0x42a
 2968 15db 12       		.byte	0x12
 2969 15dc 02140000 		.4byte	0x1402
 2970 15e0 17       		.uleb128 0x17
 2971 15e1 93070000 		.4byte	.LASF299
 2972 15e5 19       		.byte	0x19
 2973 15e6 2E04     		.2byte	0x42e
 2974 15e8 12       		.byte	0x12
 2975 15e9 02140000 		.4byte	0x1402
 2976 15ed 03       		.uleb128 0x3
 2977 15ee 83000000 		.4byte	.LASF300
 2978 15f2 18       		.byte	0x18
 2979 15f3 6D       		.byte	0x6d
 2980 15f4 10       		.byte	0x10
 2981 15f5 F9150000 		.4byte	0x15f9
 2982 15f9 0D       		.uleb128 0xd
 2983 15fa 04       		.byte	0x4
 2984 15fb FF150000 		.4byte	0x15ff
 2985 15ff 22       		.uleb128 0x22
 2986 1600 0A160000 		.4byte	0x160a
 2987 1604 21       		.uleb128 0x21
 2988 1605 0A160000 		.4byte	0x160a
 2989 1609 00       		.byte	0
 2990 160a 0D       		.uleb128 0xd
 2991 160b 04       		.byte	0x4
 2992 160c 02140000 		.4byte	0x1402
 2993 1610 03       		.uleb128 0x3
 2994 1611 CD040000 		.4byte	.LASF301
 2995 1615 18       		.byte	0x18
 2996 1616 76       		.byte	0x76
 2997 1617 10       		.byte	0x10
 2998 1618 1C160000 		.4byte	0x161c
 2999 161c 0D       		.uleb128 0xd
 3000 161d 04       		.byte	0x4
 3001 161e 22160000 		.4byte	0x1622
 3002 1622 22       		.uleb128 0x22
 3003 1623 32160000 		.4byte	0x1632
 3004 1627 21       		.uleb128 0x21
 3005 1628 0A160000 		.4byte	0x160a
 3006 162c 21       		.uleb128 0x21
 3007 162d AC150000 		.4byte	0x15ac
 3008 1631 00       		.byte	0
 3009 1632 0D       		.uleb128 0xd
 3010 1633 04       		.byte	0x4
 3011 1634 B7140000 		.4byte	0x14b7
 3012 1638 0D       		.uleb128 0xd
 3013 1639 04       		.byte	0x4
 3014 163a 92150000 		.4byte	0x1592
 3015 163e 0D       		.uleb128 0xd
 3016 163f 04       		.byte	0x4
 3017 1640 E3140000 		.4byte	0x14e3
 3018 1644 0D       		.uleb128 0xd
 3019 1645 04       		.byte	0x4
 3020 1646 8C080000 		.4byte	0x88c
 3021 164a 0D       		.uleb128 0xd
ARM GAS  /tmp/ccK9FAxv.s 			page 54


 3022 164b 04       		.byte	0x4
 3023 164c D6080000 		.4byte	0x8d6
 3024 1650 0D       		.uleb128 0xd
 3025 1651 04       		.byte	0x4
 3026 1652 9C130000 		.4byte	0x139c
 3027 1656 23       		.uleb128 0x23
 3028 1657 45060000 		.4byte	0x645
 3029 165b 1A       		.byte	0x1a
 3030 165c 27       		.byte	0x27
 3031 165d 0A       		.byte	0xa
 3032 165e 24       		.uleb128 0x24
 3033 165f 7B080000 		.4byte	.LASF302
 3034 1663 1A       		.byte	0x1a
 3035 1664 96       		.byte	0x96
 3036 1665 06       		.byte	0x6
 3037 1666 24       		.uleb128 0x24
 3038 1667 BF020000 		.4byte	.LASF303
 3039 166b 1A       		.byte	0x1a
 3040 166c 69       		.byte	0x69
 3041 166d 06       		.byte	0x6
 3042 166e 25       		.uleb128 0x25
 3043 166f 33080000 		.4byte	.LASF307
 3044 1673 1A       		.byte	0x1a
 3045 1674 36       		.byte	0x36
 3046 1675 0D       		.byte	0xd
 3047 1676 00       		.byte	0
 3048              		.section	.gnu.debuglto_.debug_abbrev,"e",%progbits
 3049              	.Ldebug_abbrev0:
 3050 0000 01       		.uleb128 0x1
 3051 0001 11       		.uleb128 0x11
 3052 0002 01       		.byte	0x1
 3053 0003 25       		.uleb128 0x25
 3054 0004 0E       		.uleb128 0xe
 3055 0005 13       		.uleb128 0x13
 3056 0006 0B       		.uleb128 0xb
 3057 0007 03       		.uleb128 0x3
 3058 0008 0E       		.uleb128 0xe
 3059 0009 1B       		.uleb128 0x1b
 3060 000a 0E       		.uleb128 0xe
 3061 000b 10       		.uleb128 0x10
 3062 000c 17       		.uleb128 0x17
 3063 000d 00       		.byte	0
 3064 000e 00       		.byte	0
 3065 000f 02       		.uleb128 0x2
 3066 0010 24       		.uleb128 0x24
 3067 0011 00       		.byte	0
 3068 0012 0B       		.uleb128 0xb
 3069 0013 0B       		.uleb128 0xb
 3070 0014 3E       		.uleb128 0x3e
 3071 0015 0B       		.uleb128 0xb
 3072 0016 03       		.uleb128 0x3
 3073 0017 08       		.uleb128 0x8
 3074 0018 00       		.byte	0
 3075 0019 00       		.byte	0
 3076 001a 03       		.uleb128 0x3
 3077 001b 16       		.uleb128 0x16
 3078 001c 00       		.byte	0
ARM GAS  /tmp/ccK9FAxv.s 			page 55


 3079 001d 03       		.uleb128 0x3
 3080 001e 0E       		.uleb128 0xe
 3081 001f 3A       		.uleb128 0x3a
 3082 0020 0B       		.uleb128 0xb
 3083 0021 3B       		.uleb128 0x3b
 3084 0022 0B       		.uleb128 0xb
 3085 0023 39       		.uleb128 0x39
 3086 0024 0B       		.uleb128 0xb
 3087 0025 49       		.uleb128 0x49
 3088 0026 13       		.uleb128 0x13
 3089 0027 00       		.byte	0
 3090 0028 00       		.byte	0
 3091 0029 04       		.uleb128 0x4
 3092 002a 24       		.uleb128 0x24
 3093 002b 00       		.byte	0
 3094 002c 0B       		.uleb128 0xb
 3095 002d 0B       		.uleb128 0xb
 3096 002e 3E       		.uleb128 0x3e
 3097 002f 0B       		.uleb128 0xb
 3098 0030 03       		.uleb128 0x3
 3099 0031 0E       		.uleb128 0xe
 3100 0032 00       		.byte	0
 3101 0033 00       		.byte	0
 3102 0034 05       		.uleb128 0x5
 3103 0035 35       		.uleb128 0x35
 3104 0036 00       		.byte	0
 3105 0037 49       		.uleb128 0x49
 3106 0038 13       		.uleb128 0x13
 3107 0039 00       		.byte	0
 3108 003a 00       		.byte	0
 3109 003b 06       		.uleb128 0x6
 3110 003c 26       		.uleb128 0x26
 3111 003d 00       		.byte	0
 3112 003e 49       		.uleb128 0x49
 3113 003f 13       		.uleb128 0x13
 3114 0040 00       		.byte	0
 3115 0041 00       		.byte	0
 3116 0042 07       		.uleb128 0x7
 3117 0043 13       		.uleb128 0x13
 3118 0044 01       		.byte	0x1
 3119 0045 03       		.uleb128 0x3
 3120 0046 0E       		.uleb128 0xe
 3121 0047 0B       		.uleb128 0xb
 3122 0048 0B       		.uleb128 0xb
 3123 0049 3A       		.uleb128 0x3a
 3124 004a 0B       		.uleb128 0xb
 3125 004b 3B       		.uleb128 0x3b
 3126 004c 0B       		.uleb128 0xb
 3127 004d 39       		.uleb128 0x39
 3128 004e 0B       		.uleb128 0xb
 3129 004f 01       		.uleb128 0x1
 3130 0050 13       		.uleb128 0x13
 3131 0051 00       		.byte	0
 3132 0052 00       		.byte	0
 3133 0053 08       		.uleb128 0x8
 3134 0054 0D       		.uleb128 0xd
 3135 0055 00       		.byte	0
ARM GAS  /tmp/ccK9FAxv.s 			page 56


 3136 0056 03       		.uleb128 0x3
 3137 0057 08       		.uleb128 0x8
 3138 0058 3A       		.uleb128 0x3a
 3139 0059 0B       		.uleb128 0xb
 3140 005a 3B       		.uleb128 0x3b
 3141 005b 0B       		.uleb128 0xb
 3142 005c 39       		.uleb128 0x39
 3143 005d 0B       		.uleb128 0xb
 3144 005e 49       		.uleb128 0x49
 3145 005f 13       		.uleb128 0x13
 3146 0060 38       		.uleb128 0x38
 3147 0061 0B       		.uleb128 0xb
 3148 0062 00       		.byte	0
 3149 0063 00       		.byte	0
 3150 0064 09       		.uleb128 0x9
 3151 0065 0D       		.uleb128 0xd
 3152 0066 00       		.byte	0
 3153 0067 03       		.uleb128 0x3
 3154 0068 0E       		.uleb128 0xe
 3155 0069 3A       		.uleb128 0x3a
 3156 006a 0B       		.uleb128 0xb
 3157 006b 3B       		.uleb128 0x3b
 3158 006c 0B       		.uleb128 0xb
 3159 006d 39       		.uleb128 0x39
 3160 006e 0B       		.uleb128 0xb
 3161 006f 49       		.uleb128 0x49
 3162 0070 13       		.uleb128 0x13
 3163 0071 38       		.uleb128 0x38
 3164 0072 0B       		.uleb128 0xb
 3165 0073 00       		.byte	0
 3166 0074 00       		.byte	0
 3167 0075 0A       		.uleb128 0xa
 3168 0076 0D       		.uleb128 0xd
 3169 0077 00       		.byte	0
 3170 0078 03       		.uleb128 0x3
 3171 0079 08       		.uleb128 0x8
 3172 007a 3A       		.uleb128 0x3a
 3173 007b 0B       		.uleb128 0xb
 3174 007c 3B       		.uleb128 0x3b
 3175 007d 05       		.uleb128 0x5
 3176 007e 39       		.uleb128 0x39
 3177 007f 0B       		.uleb128 0xb
 3178 0080 49       		.uleb128 0x49
 3179 0081 13       		.uleb128 0x13
 3180 0082 38       		.uleb128 0x38
 3181 0083 0B       		.uleb128 0xb
 3182 0084 00       		.byte	0
 3183 0085 00       		.byte	0
 3184 0086 0B       		.uleb128 0xb
 3185 0087 0D       		.uleb128 0xd
 3186 0088 00       		.byte	0
 3187 0089 03       		.uleb128 0x3
 3188 008a 0E       		.uleb128 0xe
 3189 008b 3A       		.uleb128 0x3a
 3190 008c 0B       		.uleb128 0xb
 3191 008d 3B       		.uleb128 0x3b
 3192 008e 05       		.uleb128 0x5
ARM GAS  /tmp/ccK9FAxv.s 			page 57


 3193 008f 39       		.uleb128 0x39
 3194 0090 0B       		.uleb128 0xb
 3195 0091 49       		.uleb128 0x49
 3196 0092 13       		.uleb128 0x13
 3197 0093 38       		.uleb128 0x38
 3198 0094 0B       		.uleb128 0xb
 3199 0095 00       		.byte	0
 3200 0096 00       		.byte	0
 3201 0097 0C       		.uleb128 0xc
 3202 0098 13       		.uleb128 0x13
 3203 0099 01       		.byte	0x1
 3204 009a 03       		.uleb128 0x3
 3205 009b 0E       		.uleb128 0xe
 3206 009c 0B       		.uleb128 0xb
 3207 009d 05       		.uleb128 0x5
 3208 009e 3A       		.uleb128 0x3a
 3209 009f 0B       		.uleb128 0xb
 3210 00a0 3B       		.uleb128 0x3b
 3211 00a1 05       		.uleb128 0x5
 3212 00a2 39       		.uleb128 0x39
 3213 00a3 0B       		.uleb128 0xb
 3214 00a4 01       		.uleb128 0x1
 3215 00a5 13       		.uleb128 0x13
 3216 00a6 00       		.byte	0
 3217 00a7 00       		.byte	0
 3218 00a8 0D       		.uleb128 0xd
 3219 00a9 0F       		.uleb128 0xf
 3220 00aa 00       		.byte	0
 3221 00ab 0B       		.uleb128 0xb
 3222 00ac 0B       		.uleb128 0xb
 3223 00ad 49       		.uleb128 0x49
 3224 00ae 13       		.uleb128 0x13
 3225 00af 00       		.byte	0
 3226 00b0 00       		.byte	0
 3227 00b1 0E       		.uleb128 0xe
 3228 00b2 13       		.uleb128 0x13
 3229 00b3 01       		.byte	0x1
 3230 00b4 0B       		.uleb128 0xb
 3231 00b5 0B       		.uleb128 0xb
 3232 00b6 3A       		.uleb128 0x3a
 3233 00b7 0B       		.uleb128 0xb
 3234 00b8 3B       		.uleb128 0x3b
 3235 00b9 0B       		.uleb128 0xb
 3236 00ba 39       		.uleb128 0x39
 3237 00bb 0B       		.uleb128 0xb
 3238 00bc 01       		.uleb128 0x1
 3239 00bd 13       		.uleb128 0x13
 3240 00be 00       		.byte	0
 3241 00bf 00       		.byte	0
 3242 00c0 0F       		.uleb128 0xf
 3243 00c1 0F       		.uleb128 0xf
 3244 00c2 00       		.byte	0
 3245 00c3 0B       		.uleb128 0xb
 3246 00c4 0B       		.uleb128 0xb
 3247 00c5 00       		.byte	0
 3248 00c6 00       		.byte	0
 3249 00c7 10       		.uleb128 0x10
ARM GAS  /tmp/ccK9FAxv.s 			page 58


 3250 00c8 17       		.uleb128 0x17
 3251 00c9 01       		.byte	0x1
 3252 00ca 0B       		.uleb128 0xb
 3253 00cb 0B       		.uleb128 0xb
 3254 00cc 3A       		.uleb128 0x3a
 3255 00cd 0B       		.uleb128 0xb
 3256 00ce 3B       		.uleb128 0x3b
 3257 00cf 0B       		.uleb128 0xb
 3258 00d0 39       		.uleb128 0x39
 3259 00d1 0B       		.uleb128 0xb
 3260 00d2 01       		.uleb128 0x1
 3261 00d3 13       		.uleb128 0x13
 3262 00d4 00       		.byte	0
 3263 00d5 00       		.byte	0
 3264 00d6 11       		.uleb128 0x11
 3265 00d7 0D       		.uleb128 0xd
 3266 00d8 00       		.byte	0
 3267 00d9 03       		.uleb128 0x3
 3268 00da 08       		.uleb128 0x8
 3269 00db 3A       		.uleb128 0x3a
 3270 00dc 0B       		.uleb128 0xb
 3271 00dd 3B       		.uleb128 0x3b
 3272 00de 0B       		.uleb128 0xb
 3273 00df 39       		.uleb128 0x39
 3274 00e0 0B       		.uleb128 0xb
 3275 00e1 49       		.uleb128 0x49
 3276 00e2 13       		.uleb128 0x13
 3277 00e3 00       		.byte	0
 3278 00e4 00       		.byte	0
 3279 00e5 12       		.uleb128 0x12
 3280 00e6 0D       		.uleb128 0xd
 3281 00e7 00       		.byte	0
 3282 00e8 03       		.uleb128 0x3
 3283 00e9 0E       		.uleb128 0xe
 3284 00ea 3A       		.uleb128 0x3a
 3285 00eb 0B       		.uleb128 0xb
 3286 00ec 3B       		.uleb128 0x3b
 3287 00ed 0B       		.uleb128 0xb
 3288 00ee 39       		.uleb128 0x39
 3289 00ef 0B       		.uleb128 0xb
 3290 00f0 49       		.uleb128 0x49
 3291 00f1 13       		.uleb128 0x13
 3292 00f2 00       		.byte	0
 3293 00f3 00       		.byte	0
 3294 00f4 13       		.uleb128 0x13
 3295 00f5 0D       		.uleb128 0xd
 3296 00f6 00       		.byte	0
 3297 00f7 03       		.uleb128 0x3
 3298 00f8 0E       		.uleb128 0xe
 3299 00f9 3A       		.uleb128 0x3a
 3300 00fa 0B       		.uleb128 0xb
 3301 00fb 3B       		.uleb128 0x3b
 3302 00fc 0B       		.uleb128 0xb
 3303 00fd 39       		.uleb128 0x39
 3304 00fe 0B       		.uleb128 0xb
 3305 00ff 49       		.uleb128 0x49
 3306 0100 13       		.uleb128 0x13
ARM GAS  /tmp/ccK9FAxv.s 			page 59


 3307 0101 0B       		.uleb128 0xb
 3308 0102 0B       		.uleb128 0xb
 3309 0103 0D       		.uleb128 0xd
 3310 0104 0B       		.uleb128 0xb
 3311 0105 0C       		.uleb128 0xc
 3312 0106 0B       		.uleb128 0xb
 3313 0107 38       		.uleb128 0x38
 3314 0108 0B       		.uleb128 0xb
 3315 0109 00       		.byte	0
 3316 010a 00       		.byte	0
 3317 010b 14       		.uleb128 0x14
 3318 010c 13       		.uleb128 0x13
 3319 010d 01       		.byte	0x1
 3320 010e 0B       		.uleb128 0xb
 3321 010f 05       		.uleb128 0x5
 3322 0110 3A       		.uleb128 0x3a
 3323 0111 0B       		.uleb128 0xb
 3324 0112 3B       		.uleb128 0x3b
 3325 0113 0B       		.uleb128 0xb
 3326 0114 39       		.uleb128 0x39
 3327 0115 0B       		.uleb128 0xb
 3328 0116 01       		.uleb128 0x1
 3329 0117 13       		.uleb128 0x13
 3330 0118 00       		.byte	0
 3331 0119 00       		.byte	0
 3332 011a 15       		.uleb128 0x15
 3333 011b 01       		.uleb128 0x1
 3334 011c 01       		.byte	0x1
 3335 011d 49       		.uleb128 0x49
 3336 011e 13       		.uleb128 0x13
 3337 011f 01       		.uleb128 0x1
 3338 0120 13       		.uleb128 0x13
 3339 0121 00       		.byte	0
 3340 0122 00       		.byte	0
 3341 0123 16       		.uleb128 0x16
 3342 0124 21       		.uleb128 0x21
 3343 0125 00       		.byte	0
 3344 0126 49       		.uleb128 0x49
 3345 0127 13       		.uleb128 0x13
 3346 0128 2F       		.uleb128 0x2f
 3347 0129 0B       		.uleb128 0xb
 3348 012a 00       		.byte	0
 3349 012b 00       		.byte	0
 3350 012c 17       		.uleb128 0x17
 3351 012d 34       		.uleb128 0x34
 3352 012e 00       		.byte	0
 3353 012f 03       		.uleb128 0x3
 3354 0130 0E       		.uleb128 0xe
 3355 0131 3A       		.uleb128 0x3a
 3356 0132 0B       		.uleb128 0xb
 3357 0133 3B       		.uleb128 0x3b
 3358 0134 05       		.uleb128 0x5
 3359 0135 39       		.uleb128 0x39
 3360 0136 0B       		.uleb128 0xb
 3361 0137 49       		.uleb128 0x49
 3362 0138 13       		.uleb128 0x13
 3363 0139 3F       		.uleb128 0x3f
ARM GAS  /tmp/ccK9FAxv.s 			page 60


 3364 013a 19       		.uleb128 0x19
 3365 013b 3C       		.uleb128 0x3c
 3366 013c 19       		.uleb128 0x19
 3367 013d 00       		.byte	0
 3368 013e 00       		.byte	0
 3369 013f 18       		.uleb128 0x18
 3370 0140 34       		.uleb128 0x34
 3371 0141 00       		.byte	0
 3372 0142 03       		.uleb128 0x3
 3373 0143 0E       		.uleb128 0xe
 3374 0144 3A       		.uleb128 0x3a
 3375 0145 0B       		.uleb128 0xb
 3376 0146 3B       		.uleb128 0x3b
 3377 0147 0B       		.uleb128 0xb
 3378 0148 39       		.uleb128 0x39
 3379 0149 0B       		.uleb128 0xb
 3380 014a 49       		.uleb128 0x49
 3381 014b 13       		.uleb128 0x13
 3382 014c 3F       		.uleb128 0x3f
 3383 014d 19       		.uleb128 0x19
 3384 014e 3C       		.uleb128 0x3c
 3385 014f 19       		.uleb128 0x19
 3386 0150 00       		.byte	0
 3387 0151 00       		.byte	0
 3388 0152 19       		.uleb128 0x19
 3389 0153 13       		.uleb128 0x13
 3390 0154 01       		.byte	0x1
 3391 0155 0B       		.uleb128 0xb
 3392 0156 0B       		.uleb128 0xb
 3393 0157 3A       		.uleb128 0x3a
 3394 0158 0B       		.uleb128 0xb
 3395 0159 3B       		.uleb128 0x3b
 3396 015a 05       		.uleb128 0x5
 3397 015b 39       		.uleb128 0x39
 3398 015c 0B       		.uleb128 0xb
 3399 015d 01       		.uleb128 0x1
 3400 015e 13       		.uleb128 0x13
 3401 015f 00       		.byte	0
 3402 0160 00       		.byte	0
 3403 0161 1A       		.uleb128 0x1a
 3404 0162 16       		.uleb128 0x16
 3405 0163 00       		.byte	0
 3406 0164 03       		.uleb128 0x3
 3407 0165 0E       		.uleb128 0xe
 3408 0166 3A       		.uleb128 0x3a
 3409 0167 0B       		.uleb128 0xb
 3410 0168 3B       		.uleb128 0x3b
 3411 0169 05       		.uleb128 0x5
 3412 016a 39       		.uleb128 0x39
 3413 016b 0B       		.uleb128 0xb
 3414 016c 49       		.uleb128 0x49
 3415 016d 13       		.uleb128 0x13
 3416 016e 00       		.byte	0
 3417 016f 00       		.byte	0
 3418 0170 1B       		.uleb128 0x1b
 3419 0171 13       		.uleb128 0x13
 3420 0172 01       		.byte	0x1
ARM GAS  /tmp/ccK9FAxv.s 			page 61


 3421 0173 03       		.uleb128 0x3
 3422 0174 0E       		.uleb128 0xe
 3423 0175 0B       		.uleb128 0xb
 3424 0176 0B       		.uleb128 0xb
 3425 0177 3A       		.uleb128 0x3a
 3426 0178 0B       		.uleb128 0xb
 3427 0179 3B       		.uleb128 0x3b
 3428 017a 05       		.uleb128 0x5
 3429 017b 39       		.uleb128 0x39
 3430 017c 0B       		.uleb128 0xb
 3431 017d 01       		.uleb128 0x1
 3432 017e 13       		.uleb128 0x13
 3433 017f 00       		.byte	0
 3434 0180 00       		.byte	0
 3435 0181 1C       		.uleb128 0x1c
 3436 0182 04       		.uleb128 0x4
 3437 0183 01       		.byte	0x1
 3438 0184 3E       		.uleb128 0x3e
 3439 0185 0B       		.uleb128 0xb
 3440 0186 0B       		.uleb128 0xb
 3441 0187 0B       		.uleb128 0xb
 3442 0188 49       		.uleb128 0x49
 3443 0189 13       		.uleb128 0x13
 3444 018a 3A       		.uleb128 0x3a
 3445 018b 0B       		.uleb128 0xb
 3446 018c 3B       		.uleb128 0x3b
 3447 018d 0B       		.uleb128 0xb
 3448 018e 39       		.uleb128 0x39
 3449 018f 0B       		.uleb128 0xb
 3450 0190 01       		.uleb128 0x1
 3451 0191 13       		.uleb128 0x13
 3452 0192 00       		.byte	0
 3453 0193 00       		.byte	0
 3454 0194 1D       		.uleb128 0x1d
 3455 0195 28       		.uleb128 0x28
 3456 0196 00       		.byte	0
 3457 0197 03       		.uleb128 0x3
 3458 0198 0E       		.uleb128 0xe
 3459 0199 1C       		.uleb128 0x1c
 3460 019a 0B       		.uleb128 0xb
 3461 019b 00       		.byte	0
 3462 019c 00       		.byte	0
 3463 019d 1E       		.uleb128 0x1e
 3464 019e 0D       		.uleb128 0xd
 3465 019f 00       		.byte	0
 3466 01a0 03       		.uleb128 0x3
 3467 01a1 0E       		.uleb128 0xe
 3468 01a2 3A       		.uleb128 0x3a
 3469 01a3 0B       		.uleb128 0xb
 3470 01a4 3B       		.uleb128 0x3b
 3471 01a5 05       		.uleb128 0x5
 3472 01a6 39       		.uleb128 0x39
 3473 01a7 0B       		.uleb128 0xb
 3474 01a8 49       		.uleb128 0x49
 3475 01a9 13       		.uleb128 0x13
 3476 01aa 00       		.byte	0
 3477 01ab 00       		.byte	0
ARM GAS  /tmp/ccK9FAxv.s 			page 62


 3478 01ac 1F       		.uleb128 0x1f
 3479 01ad 34       		.uleb128 0x34
 3480 01ae 00       		.byte	0
 3481 01af 03       		.uleb128 0x3
 3482 01b0 08       		.uleb128 0x8
 3483 01b1 3A       		.uleb128 0x3a
 3484 01b2 0B       		.uleb128 0xb
 3485 01b3 3B       		.uleb128 0x3b
 3486 01b4 05       		.uleb128 0x5
 3487 01b5 39       		.uleb128 0x39
 3488 01b6 0B       		.uleb128 0xb
 3489 01b7 49       		.uleb128 0x49
 3490 01b8 13       		.uleb128 0x13
 3491 01b9 3F       		.uleb128 0x3f
 3492 01ba 19       		.uleb128 0x19
 3493 01bb 3C       		.uleb128 0x3c
 3494 01bc 19       		.uleb128 0x19
 3495 01bd 00       		.byte	0
 3496 01be 00       		.byte	0
 3497 01bf 20       		.uleb128 0x20
 3498 01c0 15       		.uleb128 0x15
 3499 01c1 01       		.byte	0x1
 3500 01c2 27       		.uleb128 0x27
 3501 01c3 19       		.uleb128 0x19
 3502 01c4 49       		.uleb128 0x49
 3503 01c5 13       		.uleb128 0x13
 3504 01c6 01       		.uleb128 0x1
 3505 01c7 13       		.uleb128 0x13
 3506 01c8 00       		.byte	0
 3507 01c9 00       		.byte	0
 3508 01ca 21       		.uleb128 0x21
 3509 01cb 05       		.uleb128 0x5
 3510 01cc 00       		.byte	0
 3511 01cd 49       		.uleb128 0x49
 3512 01ce 13       		.uleb128 0x13
 3513 01cf 00       		.byte	0
 3514 01d0 00       		.byte	0
 3515 01d1 22       		.uleb128 0x22
 3516 01d2 15       		.uleb128 0x15
 3517 01d3 01       		.byte	0x1
 3518 01d4 27       		.uleb128 0x27
 3519 01d5 19       		.uleb128 0x19
 3520 01d6 01       		.uleb128 0x1
 3521 01d7 13       		.uleb128 0x13
 3522 01d8 00       		.byte	0
 3523 01d9 00       		.byte	0
 3524 01da 23       		.uleb128 0x23
 3525 01db 34       		.uleb128 0x34
 3526 01dc 00       		.byte	0
 3527 01dd 47       		.uleb128 0x47
 3528 01de 13       		.uleb128 0x13
 3529 01df 3A       		.uleb128 0x3a
 3530 01e0 0B       		.uleb128 0xb
 3531 01e1 3B       		.uleb128 0x3b
 3532 01e2 0B       		.uleb128 0xb
 3533 01e3 39       		.uleb128 0x39
 3534 01e4 0B       		.uleb128 0xb
ARM GAS  /tmp/ccK9FAxv.s 			page 63


 3535 01e5 00       		.byte	0
 3536 01e6 00       		.byte	0
 3537 01e7 24       		.uleb128 0x24
 3538 01e8 2E       		.uleb128 0x2e
 3539 01e9 00       		.byte	0
 3540 01ea 3F       		.uleb128 0x3f
 3541 01eb 19       		.uleb128 0x19
 3542 01ec 03       		.uleb128 0x3
 3543 01ed 0E       		.uleb128 0xe
 3544 01ee 3A       		.uleb128 0x3a
 3545 01ef 0B       		.uleb128 0xb
 3546 01f0 3B       		.uleb128 0x3b
 3547 01f1 0B       		.uleb128 0xb
 3548 01f2 39       		.uleb128 0x39
 3549 01f3 0B       		.uleb128 0xb
 3550 01f4 27       		.uleb128 0x27
 3551 01f5 19       		.uleb128 0x19
 3552 01f6 00       		.byte	0
 3553 01f7 00       		.byte	0
 3554 01f8 25       		.uleb128 0x25
 3555 01f9 2E       		.uleb128 0x2e
 3556 01fa 00       		.byte	0
 3557 01fb 03       		.uleb128 0x3
 3558 01fc 0E       		.uleb128 0xe
 3559 01fd 3A       		.uleb128 0x3a
 3560 01fe 0B       		.uleb128 0xb
 3561 01ff 3B       		.uleb128 0x3b
 3562 0200 0B       		.uleb128 0xb
 3563 0201 39       		.uleb128 0x39
 3564 0202 0B       		.uleb128 0xb
 3565 0203 27       		.uleb128 0x27
 3566 0204 19       		.uleb128 0x19
 3567 0205 00       		.byte	0
 3568 0206 00       		.byte	0
 3569 0207 00       		.byte	0
 3570              		.section	.gnu.debuglto_.debug_line,"e",%progbits
 3571              	.Ldebug_line0:
 3572 0000 17030000 		.4byte	.LELT0-.LSLT0
 3573              	.LSLT0:
 3574 0004 0400     		.2byte	0x4
 3575 0006 11030000 		.4byte	.LELTP0-.LASLTP0
 3576              	.LASLTP0:
 3577 000a 01       		.byte	0x1
 3578 000b 01       		.byte	0x1
 3579 000c 01       		.byte	0x1
 3580 000d F6       		.byte	0xf6
 3581 000e F2       		.byte	0xf2
 3582 000f 0D       		.byte	0xd
 3583 0010 00       		.byte	0
 3584 0011 01       		.byte	0x1
 3585 0012 01       		.byte	0x1
 3586 0013 01       		.byte	0x1
 3587 0014 01       		.byte	0x1
 3588 0015 00       		.byte	0
 3589 0016 00       		.byte	0
 3590 0017 00       		.byte	0
 3591 0018 01       		.byte	0x1
ARM GAS  /tmp/ccK9FAxv.s 			page 64


 3592 0019 00       		.byte	0
 3593 001a 00       		.byte	0
 3594 001b 01       		.byte	0x1
 3595 001c 2E2E2F2E 		.ascii	"../../../../os/common/ext/ARM/CMSIS/Core/Include"
 3595      2E2F2E2E 
 3595      2F2E2E2F 
 3595      6F732F63 
 3595      6F6D6D6F 
 3596 004c 00       		.byte	0
 3597 004d 2E2E2F2E 		.ascii	"../../../../os/common/ext/ST/STM32F3xx"
 3597      2E2F2E2E 
 3597      2F2E2E2F 
 3597      6F732F63 
 3597      6F6D6D6F 
 3598 0073 00       		.byte	0
 3599 0074 2E2E2F2E 		.ascii	"../../../../os/common/ports/ARM-common"
 3599      2E2F2E2E 
 3599      2F2E2E2F 
 3599      6F732F63 
 3599      6F6D6D6F 
 3600 009a 00       		.byte	0
 3601 009b 2E2E2F2E 		.ascii	"../../../../os/common/ports/ARMv7-M"
 3601      2E2F2E2E 
 3601      2F2E2E2F 
 3601      6F732F63 
 3601      6F6D6D6F 
 3602 00be 00       		.byte	0
 3603 00bf 2E2E2F2E 		.ascii	"../../../../os/hal/include"
 3603      2E2F2E2E 
 3603      2F2E2E2F 
 3603      6F732F68 
 3603      616C2F69 
 3604 00d9 00       		.byte	0
 3605 00da 2E2E2F2E 		.ascii	"../../../../os/hal/ports/STM32/LLD/ADCv3"
 3605      2E2F2E2E 
 3605      2F2E2E2F 
 3605      6F732F68 
 3605      616C2F70 
 3606 0102 00       		.byte	0
 3607 0103 2E2E2F2E 		.ascii	"../../../../os/hal/ports/STM32/LLD/DMAv1"
 3607      2E2F2E2E 
 3607      2F2E2E2F 
 3607      6F732F68 
 3607      616C2F70 
 3608 012b 00       		.byte	0
 3609 012c 2E2E2F2E 		.ascii	"../../../../os/hal/ports/STM32/STM32F3xx"
 3609      2E2F2E2E 
 3609      2F2E2E2F 
 3609      6F732F68 
 3609      616C2F70 
 3610 0154 00       		.byte	0
 3611 0155 2E2E2F2E 		.ascii	"../../../../os/oslib/include"
 3611      2E2F2E2E 
 3611      2F2E2E2F 
 3611      6F732F6F 
 3611      736C6962 
 3612 0171 00       		.byte	0
ARM GAS  /tmp/ccK9FAxv.s 			page 65


 3613 0172 2E2E2F2E 		.ascii	"../../../../os/rt/include"
 3613      2E2F2E2E 
 3613      2F2E2E2F 
 3613      6F732F72 
 3613      742F696E 
 3614 018b 00       		.byte	0
 3615 018c 2F757372 		.ascii	"/usr/lib/gcc/arm-none-eabi/9.2.1/include"
 3615      2F6C6962 
 3615      2F676363 
 3615      2F61726D 
 3615      2D6E6F6E 
 3616 01b4 00       		.byte	0
 3617 01b5 00       		.byte	0
 3618 01b6 73746464 		.ascii	"stddef.h\000"
 3618      65662E68 
 3618      00
 3619 01bf 0B       		.uleb128 0xb
 3620 01c0 00       		.uleb128 0
 3621 01c1 00       		.uleb128 0
 3622 01c2 73746469 		.ascii	"stdint.h\000"
 3622      6E742E68 
 3622      00
 3623 01cb 0B       		.uleb128 0xb
 3624 01cc 00       		.uleb128 0
 3625 01cd 00       		.uleb128 0
 3626 01ce 63687479 		.ascii	"chtypes.h\000"
 3626      7065732E 
 3626      6800
 3627 01d8 03       		.uleb128 0x3
 3628 01d9 00       		.uleb128 0
 3629 01da 00       		.uleb128 0
 3630 01db 63686561 		.ascii	"chearly.h\000"
 3630      726C792E 
 3630      6800
 3631 01e5 0A       		.uleb128 0xa
 3632 01e6 00       		.uleb128 0
 3633 01e7 00       		.uleb128 0
 3634 01e8 63686F62 		.ascii	"chobjects.h\000"
 3634      6A656374 
 3634      732E6800 
 3635 01f4 0A       		.uleb128 0xa
 3636 01f5 00       		.uleb128 0
 3637 01f6 00       		.uleb128 0
 3638 01f7 63687266 		.ascii	"chrfcu.h\000"
 3638      63752E68 
 3638      00
 3639 0200 0A       		.uleb128 0xa
 3640 0201 00       		.uleb128 0
 3641 0202 00       		.uleb128 0
 3642 0203 63686465 		.ascii	"chdebug.h\000"
 3642      6275672E 
 3642      6800
 3643 020d 0A       		.uleb128 0xa
 3644 020e 00       		.uleb128 0
 3645 020f 00       		.uleb128 0
 3646 0210 63687469 		.ascii	"chtime.h\000"
 3646      6D652E68 
ARM GAS  /tmp/ccK9FAxv.s 			page 66


 3646      00
 3647 0219 0A       		.uleb128 0xa
 3648 021a 00       		.uleb128 0
 3649 021b 00       		.uleb128 0
 3650 021c 63686C69 		.ascii	"chlists.h\000"
 3650      7374732E 
 3650      6800
 3651 0226 0A       		.uleb128 0xa
 3652 0227 00       		.uleb128 0
 3653 0228 00       		.uleb128 0
 3654 0229 63687472 		.ascii	"chtrace.h\000"
 3654      6163652E 
 3654      6800
 3655 0233 0A       		.uleb128 0xa
 3656 0234 00       		.uleb128 0
 3657 0235 00       		.uleb128 0
 3658 0236 636F7265 		.ascii	"core_cm4.h\000"
 3658      5F636D34 
 3658      2E6800
 3659 0241 01       		.uleb128 0x1
 3660 0242 00       		.uleb128 0
 3661 0243 00       		.uleb128 0
 3662 0244 73797374 		.ascii	"system_stm32f3xx.h\000"
 3662      656D5F73 
 3662      746D3332 
 3662      66337878 
 3662      2E6800
 3663 0257 02       		.uleb128 0x2
 3664 0258 00       		.uleb128 0
 3665 0259 00       		.uleb128 0
 3666 025a 73746D33 		.ascii	"stm32f303xc.h\000"
 3666      32663330 
 3666      3378632E 
 3666      6800
 3667 0268 02       		.uleb128 0x2
 3668 0269 00       		.uleb128 0
 3669 026a 00       		.uleb128 0
 3670 026b 6368636F 		.ascii	"chcore.h\000"
 3670      72652E68 
 3670      00
 3671 0274 04       		.uleb128 0x4
 3672 0275 00       		.uleb128 0
 3673 0276 00       		.uleb128 0
 3674 0277 6368746D 		.ascii	"chtm.h\000"
 3674      2E6800
 3675 027e 0A       		.uleb128 0xa
 3676 027f 00       		.uleb128 0
 3677 0280 00       		.uleb128 0
 3678 0281 63687365 		.ascii	"chsem.h\000"
 3678      6D2E6800 
 3679 0289 0A       		.uleb128 0xa
 3680 028a 00       		.uleb128 0
 3681 028b 00       		.uleb128 0
 3682 028c 63686D74 		.ascii	"chmtx.h\000"
 3682      782E6800 
 3683 0294 0A       		.uleb128 0xa
 3684 0295 00       		.uleb128 0
ARM GAS  /tmp/ccK9FAxv.s 			page 67


 3685 0296 00       		.uleb128 0
 3686 0297 63687379 		.ascii	"chsys.h\000"
 3686      732E6800 
 3687 029f 0A       		.uleb128 0xa
 3688 02a0 00       		.uleb128 0
 3689 02a1 00       		.uleb128 0
 3690 02a2 63687265 		.ascii	"chregistry.h\000"
 3690      67697374 
 3690      72792E68 
 3690      00
 3691 02af 0A       		.uleb128 0xa
 3692 02b0 00       		.uleb128 0
 3693 02b1 00       		.uleb128 0
 3694 02b2 63686D65 		.ascii	"chmemcore.h\000"
 3694      6D636F72 
 3694      652E6800 
 3695 02be 09       		.uleb128 0x9
 3696 02bf 00       		.uleb128 0
 3697 02c0 00       		.uleb128 0
 3698 02c1 63686D65 		.ascii	"chmempools.h\000"
 3698      6D706F6F 
 3698      6C732E68 
 3698      00
 3699 02ce 09       		.uleb128 0x9
 3700 02cf 00       		.uleb128 0
 3701 02d0 00       		.uleb128 0
 3702 02d1 63686661 		.ascii	"chfactory.h\000"
 3702      63746F72 
 3702      792E6800 
 3703 02dd 09       		.uleb128 0x9
 3704 02de 00       		.uleb128 0
 3705 02df 00       		.uleb128 0
 3706 02e0 73746D33 		.ascii	"stm32_dma.h\000"
 3706      325F646D 
 3706      612E6800 
 3707 02ec 07       		.uleb128 0x7
 3708 02ed 00       		.uleb128 0
 3709 02ee 00       		.uleb128 0
 3710 02ef 68616C5F 		.ascii	"hal_adc.h\000"
 3710      6164632E 
 3710      6800
 3711 02f9 05       		.uleb128 0x5
 3712 02fa 00       		.uleb128 0
 3713 02fb 00       		.uleb128 0
 3714 02fc 68616C5F 		.ascii	"hal_adc_lld.h\000"
 3714      6164635F 
 3714      6C6C642E 
 3714      6800
 3715 030a 06       		.uleb128 0x6
 3716 030b 00       		.uleb128 0
 3717 030c 00       		.uleb128 0
 3718 030d 68616C5F 		.ascii	"hal_lld.c\000"
 3718      6C6C642E 
 3718      6300
 3719 0317 08       		.uleb128 0x8
 3720 0318 00       		.uleb128 0
 3721 0319 00       		.uleb128 0
ARM GAS  /tmp/ccK9FAxv.s 			page 68


 3722 031a 00       		.byte	0
 3723              	.LELTP0:
 3724              	.LELT0:
 3725              		.section	.gnu.debuglto_.debug_str,"eMS",%progbits,1
 3726              	.LASF200:
 3727 0000 6F66665F 		.ascii	"off_ctx\000"
 3727      63747800 
 3728              	.LASF75:
 3729 0008 63685F64 		.ascii	"ch_delta_list_t\000"
 3729      656C7461 
 3729      5F6C6973 
 3729      745F7400 
 3730              	.LASF5:
 3731 0018 73697A65 		.ascii	"size_t\000"
 3731      5F7400
 3732              	.LASF199:
 3733 001f 6F66665F 		.ascii	"off_prio\000"
 3733      7072696F 
 3733      00
 3734              	.LASF138:
 3735 0028 45585449 		.ascii	"EXTICR\000"
 3735      435200
 3736              	.LASF175:
 3737 002f 77747365 		.ascii	"wtsemp\000"
 3737      6D7000
 3738              	.LASF64:
 3739 0036 73797374 		.ascii	"systime_t\000"
 3739      696D655F 
 3739      7400
 3740              	.LASF208:
 3741 0040 6F66665F 		.ascii	"off_preempt\000"
 3741      70726565 
 3741      6D707400 
 3742              	.LASF193:
 3743 004c 6964656E 		.ascii	"identifier\000"
 3743      74696669 
 3743      657200
 3744              	.LASF190:
 3745 0057 696E7374 		.ascii	"instances\000"
 3745      616E6365 
 3745      7300
 3746              	.LASF156:
 3747 0061 63685F73 		.ascii	"ch_sys_initializing\000"
 3747      79735F69 
 3747      6E697469 
 3747      616C697A 
 3747      696E6700 
 3748              	.LASF31:
 3749 0075 6F776E65 		.ascii	"owner\000"
 3749      7200
 3750              	.LASF23:
 3751 007b 74707269 		.ascii	"tprio_t\000"
 3751      6F5F7400 
 3752              	.LASF300:
 3753 0083 61646363 		.ascii	"adccallback_t\000"
 3753      616C6C62 
 3753      61636B5F 
ARM GAS  /tmp/ccK9FAxv.s 			page 69


 3753      7400
 3754              	.LASF100:
 3755 0091 53515231 		.ascii	"SQR1\000"
 3755      00
 3756              	.LASF101:
 3757 0096 53515232 		.ascii	"SQR2\000"
 3757      00
 3758              	.LASF102:
 3759 009b 53515233 		.ascii	"SQR3\000"
 3759      00
 3760              	.LASF103:
 3761 00a0 53515234 		.ascii	"SQR4\000"
 3761      00
 3762              	.LASF226:
 3763 00a5 63685F64 		.ascii	"ch_debug\000"
 3763      65627567 
 3763      00
 3764              	.LASF237:
 3765 00ae 70726F76 		.ascii	"provider\000"
 3765      69646572 
 3765      00
 3766              	.LASF81:
 3767 00b7 75736572 		.ascii	"user\000"
 3767      00
 3768              	.LASF6:
 3769 00bc 696E7433 		.ascii	"int32_t\000"
 3769      325F7400 
 3770              	.LASF265:
 3771 00c4 4144435F 		.ascii	"ADC_ACTIVE\000"
 3771      41435449 
 3771      564500
 3772              	.LASF268:
 3773 00cf 61646373 		.ascii	"adcstate_t\000"
 3773      74617465 
 3773      5F7400
 3774              	.LASF215:
 3775 00da 6F66665F 		.ascii	"off_sys_instances\000"
 3775      7379735F 
 3775      696E7374 
 3775      616E6365 
 3775      7300
 3776              	.LASF160:
 3777 00ec 63685F76 		.ascii	"ch_virtual_timers_list\000"
 3777      69727475 
 3777      616C5F74 
 3777      696D6572 
 3777      735F6C69 
 3778              	.LASF167:
 3779 0103 72656769 		.ascii	"registry_t\000"
 3779      73747279 
 3779      5F7400
 3780              	.LASF282:
 3781 010e 64696673 		.ascii	"difsel\000"
 3781      656C00
 3782              	.LASF289:
 3783 0115 63666772 		.ascii	"cfgr\000"
 3783      00
ARM GAS  /tmp/ccK9FAxv.s 			page 70


 3784              	.LASF239:
 3785 011a 63685F64 		.ascii	"ch_dyn_element\000"
 3785      796E5F65 
 3785      6C656D65 
 3785      6E7400
 3786              	.LASF83:
 3787 0129 72747374 		.ascii	"rtstamp\000"
 3787      616D7000 
 3788              	.LASF218:
 3789 0131 6F66665F 		.ascii	"off_sys_reserved\000"
 3789      7379735F 
 3789      72657365 
 3789      72766564 
 3789      00
 3790              	.LASF51:
 3791 0142 636F6E66 		.ascii	"config\000"
 3791      696700
 3792              	.LASF34:
 3793 0149 73746174 		.ascii	"state\000"
 3793      6500
 3794              	.LASF61:
 3795 014f 6C6F636B 		.ascii	"lock_cnt\000"
 3795      5F636E74 
 3795      00
 3796              	.LASF55:
 3797 0158 63685F72 		.ascii	"ch_rfcu\000"
 3797      66637500 
 3798              	.LASF127:
 3799 0160 434E4454 		.ascii	"CNDTR\000"
 3799      5200
 3800              	.LASF82:
 3801 0166 74797065 		.ascii	"type\000"
 3801      00
 3802              	.LASF244:
 3803 016b 6F626A5F 		.ascii	"obj_list\000"
 3803      6C697374 
 3803      00
 3804              	.LASF159:
 3805 0174 73797374 		.ascii	"system_state_t\000"
 3805      656D5F73 
 3805      74617465 
 3805      5F7400
 3806              	.LASF216:
 3807 0183 6F66665F 		.ascii	"off_sys_reglist\000"
 3807      7379735F 
 3807      7265676C 
 3807      69737400 
 3808              	.LASF288:
 3809 0193 6572726F 		.ascii	"error_cb\000"
 3809      725F6362 
 3809      00
 3810              	.LASF202:
 3811 019c 6F66665F 		.ascii	"off_older\000"
 3811      6F6C6465 
 3811      7200
 3812              	.LASF165:
 3813 01a6 63685F72 		.ascii	"ch_registry\000"
ARM GAS  /tmp/ccK9FAxv.s 			page 71


 3813      65676973 
 3813      74727900 
 3814              	.LASF74:
 3815 01b2 7072696F 		.ascii	"prio\000"
 3815      00
 3816              	.LASF287:
 3817 01b7 656E645F 		.ascii	"end_cb\000"
 3817      636200
 3818              	.LASF172:
 3819 01be 65786974 		.ascii	"exitcode\000"
 3819      636F6465 
 3819      00
 3820              	.LASF277:
 3821 01c7 61646363 		.ascii	"adcc\000"
 3821      00
 3822              	.LASF221:
 3823 01cc 6F66665F 		.ascii	"off_inst_vtlist\000"
 3823      696E7374 
 3823      5F76746C 
 3823      69737400 
 3824              	.LASF7:
 3825 01dc 6C6F6E67 		.ascii	"long int\000"
 3825      20696E74 
 3825      00
 3826              	.LASF194:
 3827 01e5 7A65726F 		.ascii	"zero\000"
 3827      00
 3828              	.LASF279:
 3829 01ea 646D616D 		.ascii	"dmamode\000"
 3829      6F646500 
 3830              	.LASF21:
 3831 01f2 74737461 		.ascii	"tstate_t\000"
 3831      74655F74 
 3831      00
 3832              	.LASF39:
 3833 01fb 6570656E 		.ascii	"epending\000"
 3833      64696E67 
 3833      00
 3834              	.LASF66:
 3835 0204 63685F6C 		.ascii	"ch_list_t\000"
 3835      6973745F 
 3835      7400
 3836              	.LASF292:
 3837 020e 736D7072 		.ascii	"smpr\000"
 3837      00
 3838              	.LASF155:
 3839 0213 63685F73 		.ascii	"ch_sys_uninit\000"
 3839      79735F75 
 3839      6E696E69 
 3839      7400
 3840              	.LASF145:
 3841 0221 41504232 		.ascii	"APB2ENR\000"
 3841      454E5200 
 3842              	.LASF67:
 3843 0229 63685F6C 		.ascii	"ch_list\000"
 3843      69737400 
 3844              	.LASF163:
ARM GAS  /tmp/ccK9FAxv.s 			page 72


 3845 0231 6C617374 		.ascii	"laststamp\000"
 3845      7374616D 
 3845      7000
 3846              	.LASF245:
 3847 023b 6F626A5F 		.ascii	"obj_pool\000"
 3847      706F6F6C 
 3847      00
 3848              	.LASF306:
 3849 0244 2F686F6D 		.ascii	"/home/ubuntu/Raka/New/ChibiOS_21.11.2/testhal/STM32"
 3849      652F7562 
 3849      756E7475 
 3849      2F52616B 
 3849      612F4E65 
 3850 0277 2F53544D 		.ascii	"/STM32F3xx/ADC\000"
 3850      33324633 
 3850      78782F41 
 3850      444300
 3851              	.LASF135:
 3852 0286 57525052 		.ascii	"WRPR\000"
 3852      00
 3853              	.LASF128:
 3854 028b 43504152 		.ascii	"CPAR\000"
 3854      00
 3855              	.LASF232:
 3856 0290 6D656D63 		.ascii	"memcore_t\000"
 3856      6F72655F 
 3856      7400
 3857              	.LASF3:
 3858 029a 7369676E 		.ascii	"signed char\000"
 3858      65642063 
 3858      68617200 
 3859              	.LASF177:
 3860 02a6 65776D61 		.ascii	"ewmask\000"
 3860      736B00
 3861              	.LASF8:
 3862 02ad 75696E74 		.ascii	"uint8_t\000"
 3862      385F7400 
 3863              	.LASF28:
 3864 02b5 636F7265 		.ascii	"core_id_t\000"
 3864      5F69645F 
 3864      7400
 3865              	.LASF303:
 3866 02bf 68616C5F 		.ascii	"hal_lld_init\000"
 3866      6C6C645F 
 3866      696E6974 
 3866      00
 3867              	.LASF25:
 3868 02cc 6576656E 		.ascii	"eventmask_t\000"
 3868      746D6173 
 3868      6B5F7400 
 3869              	.LASF173:
 3870 02d8 77747472 		.ascii	"wttrp\000"
 3870      7000
 3871              	.LASF95:
 3872 02de 52455345 		.ascii	"RESERVED0\000"
 3872      52564544 
 3872      3000
ARM GAS  /tmp/ccK9FAxv.s 			page 73


 3873              	.LASF98:
 3874 02e8 52455345 		.ascii	"RESERVED1\000"
 3874      52564544 
 3874      3100
 3875              	.LASF9:
 3876 02f2 756E7369 		.ascii	"unsigned char\000"
 3876      676E6564 
 3876      20636861 
 3876      7200
 3877              	.LASF104:
 3878 0300 52455345 		.ascii	"RESERVED3\000"
 3878      52564544 
 3878      3300
 3879              	.LASF105:
 3880 030a 52455345 		.ascii	"RESERVED4\000"
 3880      52564544 
 3880      3400
 3881              	.LASF107:
 3882 0314 52455345 		.ascii	"RESERVED5\000"
 3882      52564544 
 3882      3500
 3883              	.LASF112:
 3884 031e 52455345 		.ascii	"RESERVED6\000"
 3884      52564544 
 3884      3600
 3885              	.LASF117:
 3886 0328 52455345 		.ascii	"RESERVED7\000"
 3886      52564544 
 3886      3700
 3887              	.LASF120:
 3888 0332 52455345 		.ascii	"RESERVED8\000"
 3888      52564544 
 3888      3800
 3889              	.LASF121:
 3890 033c 52455345 		.ascii	"RESERVED9\000"
 3890      52564544 
 3890      3900
 3891              	.LASF132:
 3892 0346 444D415F 		.ascii	"DMA_TypeDef\000"
 3892      54797065 
 3892      44656600 
 3893              	.LASF59:
 3894 0352 70616E69 		.ascii	"panic_msg\000"
 3894      635F6D73 
 3894      6700
 3895              	.LASF295:
 3896 035c 61646365 		.ascii	"adcerror_t\000"
 3896      72726F72 
 3896      5F7400
 3897              	.LASF53:
 3898 0367 74726163 		.ascii	"trace_buffer\000"
 3898      655F6275 
 3898      66666572 
 3898      00
 3899              	.LASF262:
 3900 0374 4144435F 		.ascii	"ADC_UNINIT\000"
 3900      554E494E 
ARM GAS  /tmp/ccK9FAxv.s 			page 74


 3900      495400
 3901              	.LASF63:
 3902 037f 73797374 		.ascii	"system_debug_t\000"
 3902      656D5F64 
 3902      65627567 
 3902      5F7400
 3903              	.LASF264:
 3904 038e 4144435F 		.ascii	"ADC_READY\000"
 3904      52454144 
 3904      5900
 3905              	.LASF228:
 3906 0398 5F426F6F 		.ascii	"_Bool\000"
 3906      6C00
 3907              	.LASF99:
 3908 039e 52455345 		.ascii	"RESERVED2\000"
 3908      52564544 
 3908      3200
 3909              	.LASF223:
 3910 03a8 6F66665F 		.ascii	"off_inst_core_id\000"
 3910      696E7374 
 3910      5F636F72 
 3910      655F6964 
 3910      00
 3911              	.LASF293:
 3912 03b9 61646373 		.ascii	"adcsample_t\000"
 3912      616D706C 
 3912      655F7400 
 3913              	.LASF62:
 3914 03c5 63686172 		.ascii	"char\000"
 3914      00
 3915              	.LASF278:
 3916 03ca 646D6173 		.ascii	"dmastp\000"
 3916      747000
 3917              	.LASF131:
 3918 03d1 49464352 		.ascii	"IFCR\000"
 3918      00
 3919              	.LASF247:
 3920 03d6 73656D5F 		.ascii	"sem_list\000"
 3920      6C697374 
 3920      00
 3921              	.LASF212:
 3922 03df 696E7465 		.ascii	"intervalsize\000"
 3922      7276616C 
 3922      73697A65 
 3922      00
 3923              	.LASF78:
 3924 03ec 77746F62 		.ascii	"wtobjp\000"
 3924      6A7000
 3925              	.LASF273:
 3926 03f3 67727070 		.ascii	"grpp\000"
 3926      00
 3927              	.LASF267:
 3928 03f8 4144435F 		.ascii	"ADC_ERROR\000"
 3928      4552524F 
 3928      5200
 3929              	.LASF207:
 3930 0402 6F66665F 		.ascii	"off_refs\000"
ARM GAS  /tmp/ccK9FAxv.s 			page 75


 3930      72656673 
 3930      00
 3931              	.LASF35:
 3932 040b 666C6167 		.ascii	"flags\000"
 3932      7300
 3933              	.LASF19:
 3934 0411 73746B61 		.ascii	"stkalign_t\000"
 3934      6C69676E 
 3934      5F7400
 3935              	.LASF49:
 3936 041c 636F7265 		.ascii	"core_id\000"
 3936      5F696400 
 3937              	.LASF285:
 3938 0424 63697263 		.ascii	"circular\000"
 3938      756C6172 
 3938      00
 3939              	.LASF42:
 3940 042d 6D706F6F 		.ascii	"mpool\000"
 3940      6C00
 3941              	.LASF185:
 3942 0433 6D61696E 		.ascii	"mainthread_end\000"
 3942      74687265 
 3942      61645F65 
 3942      6E6400
 3943              	.LASF196:
 3944 0442 70747273 		.ascii	"ptrsize\000"
 3944      697A6500 
 3945              	.LASF147:
 3946 044a 42444352 		.ascii	"BDCR\000"
 3946      00
 3947              	.LASF118:
 3948 044f 41574432 		.ascii	"AWD2CR\000"
 3948      435200
 3949              	.LASF30:
 3950 0456 72717565 		.ascii	"rqueue\000"
 3950      756500
 3951              	.LASF209:
 3952 045d 6F66665F 		.ascii	"off_time\000"
 3952      74696D65 
 3952      00
 3953              	.LASF26:
 3954 0466 636E745F 		.ascii	"cnt_t\000"
 3954      7400
 3955              	.LASF251:
 3956 046c 70697065 		.ascii	"pipe_list\000"
 3956      5F6C6973 
 3956      7400
 3957              	.LASF162:
 3958 0476 6C617374 		.ascii	"lasttime\000"
 3958      74696D65 
 3958      00
 3959              	.LASF124:
 3960 047f 4144435F 		.ascii	"ADC_TypeDef\000"
 3960      54797065 
 3960      44656600 
 3961              	.LASF125:
 3962 048b 52455345 		.ascii	"RESERVED\000"
ARM GAS  /tmp/ccK9FAxv.s 			page 76


 3962      52564544 
 3962      00
 3963              	.LASF88:
 3964 0494 62756666 		.ascii	"buffer\000"
 3964      657200
 3965              	.LASF240:
 3966 049b 64796E5F 		.ascii	"dyn_element_t\000"
 3966      656C656D 
 3966      656E745F 
 3966      7400
 3967              	.LASF176:
 3968 04a9 77746D74 		.ascii	"wtmtxp\000"
 3968      787000
 3969              	.LASF180:
 3970 04b0 63685F72 		.ascii	"ch_ready_list\000"
 3970      65616479 
 3970      5F6C6973 
 3970      7400
 3971              	.LASF45:
 3972 04be 63685F6F 		.ascii	"ch_os_instance\000"
 3972      735F696E 
 3972      7374616E 
 3972      636500
 3973              	.LASF301:
 3974 04cd 61646365 		.ascii	"adcerrorcallback_t\000"
 3974      72726F72 
 3974      63616C6C 
 3974      6261636B 
 3974      5F7400
 3975              	.LASF248:
 3976 04e0 73656D5F 		.ascii	"sem_pool\000"
 3976      706F6F6C 
 3976      00
 3977              	.LASF94:
 3978 04e9 43464752 		.ascii	"CFGR\000"
 3978      00
 3979              	.LASF294:
 3980 04ee 6164635F 		.ascii	"adc_channels_num_t\000"
 3980      6368616E 
 3980      6E656C73 
 3980      5F6E756D 
 3980      5F7400
 3981              	.LASF134:
 3982 0501 4F50544B 		.ascii	"OPTKEYR\000"
 3982      45595200 
 3983              	.LASF122:
 3984 0509 44494653 		.ascii	"DIFSEL\000"
 3984      454C00
 3985              	.LASF205:
 3986 0510 6F66665F 		.ascii	"off_state\000"
 3986      73746174 
 3986      6500
 3987              	.LASF13:
 3988 051a 6C6F6E67 		.ascii	"long unsigned int\000"
 3988      20756E73 
 3988      69676E65 
 3988      6420696E 
ARM GAS  /tmp/ccK9FAxv.s 			page 77


 3988      7400
 3989              	.LASF69:
 3990 052c 63685F71 		.ascii	"ch_queue_t\000"
 3990      75657565 
 3990      5F7400
 3991              	.LASF146:
 3992 0537 41504231 		.ascii	"APB1ENR\000"
 3992      454E5200 
 3993              	.LASF54:
 3994 053f 72666375 		.ascii	"rfcu_mask_t\000"
 3994      5F6D6173 
 3994      6B5F7400 
 3995              	.LASF91:
 3996 054b 53797374 		.ascii	"SystemCoreClock\000"
 3996      656D436F 
 3996      7265436C 
 3996      6F636B00 
 3997              	.LASF178:
 3998 055b 63685F73 		.ascii	"ch_semaphore\000"
 3998      656D6170 
 3998      686F7265 
 3998      00
 3999              	.LASF257:
 4000 0568 73686966 		.ascii	"shift\000"
 4000      7400
 4001              	.LASF254:
 4002 056e 6368616E 		.ascii	"channel\000"
 4002      6E656C00 
 4003              	.LASF44:
 4004 0576 63685F74 		.ascii	"ch_thread\000"
 4004      68726561 
 4004      6400
 4005              	.LASF164:
 4006 0580 76697274 		.ascii	"virtual_timers_list_t\000"
 4006      75616C5F 
 4006      74696D65 
 4006      72735F6C 
 4006      6973745F 
 4007              	.LASF261:
 4008 0596 5F73746D 		.ascii	"_stm32_dma_streams\000"
 4008      33325F64 
 4008      6D615F73 
 4008      74726561 
 4008      6D7300
 4009              	.LASF96:
 4010 05a9 534D5052 		.ascii	"SMPR1\000"
 4010      3100
 4011              	.LASF97:
 4012 05af 534D5052 		.ascii	"SMPR2\000"
 4012      3200
 4013              	.LASF250:
 4014 05b5 6669666F 		.ascii	"fifo_list\000"
 4014      5F6C6973 
 4014      7400
 4015              	.LASF260:
 4016 05bf 73746D33 		.ascii	"stm32_dma_stream_t\000"
 4016      325F646D 
ARM GAS  /tmp/ccK9FAxv.s 			page 78


 4016      615F7374 
 4016      7265616D 
 4016      5F7400
 4017              	.LASF182:
 4018 05d2 72656164 		.ascii	"ready_list_t\000"
 4018      795F6C69 
 4018      73745F74 
 4018      00
 4019              	.LASF231:
 4020 05df 746F706D 		.ascii	"topmem\000"
 4020      656D00
 4021              	.LASF41:
 4022 05e6 7265616C 		.ascii	"realprio\000"
 4022      7072696F 
 4022      00
 4023              	.LASF27:
 4024 05ef 75636E74 		.ascii	"ucnt_t\000"
 4024      5F7400
 4025              	.LASF204:
 4026 05f6 6F66665F 		.ascii	"off_stklimit\000"
 4026      73746B6C 
 4026      696D6974 
 4026      00
 4027              	.LASF234:
 4028 0603 706F6F6C 		.ascii	"pool_header\000"
 4028      5F686561 
 4028      64657200 
 4029              	.LASF283:
 4030 060f 41444343 		.ascii	"ADCConversionGroup\000"
 4030      6F6E7665 
 4030      7273696F 
 4030      6E47726F 
 4030      757000
 4031              	.LASF57:
 4032 0622 72666375 		.ascii	"rfcu_t\000"
 4032      5F7400
 4033              	.LASF266:
 4034 0629 4144435F 		.ascii	"ADC_COMPLETE\000"
 4034      434F4D50 
 4034      4C455445 
 4034      00
 4035              	.LASF148:
 4036 0636 41484252 		.ascii	"AHBRSTR\000"
 4036      53545200 
 4037              	.LASF220:
 4038 063e 6F66665F 		.ascii	"off_inst_rlist\000"
 4038      696E7374 
 4038      5F726C69 
 4038      737400
 4039              	.LASF89:
 4040 064d 74726163 		.ascii	"trace_buffer_t\000"
 4040      655F6275 
 4040      66666572 
 4040      5F7400
 4041              	.LASF40:
 4042 065c 6D74786C 		.ascii	"mtxlist\000"
 4042      69737400 
ARM GAS  /tmp/ccK9FAxv.s 			page 79


 4043              	.LASF192:
 4044 0664 63685F63 		.ascii	"ch_core0_cfg\000"
 4044      6F726530 
 4044      5F636667 
 4044      00
 4045              	.LASF1:
 4046 0671 6C6F6E67 		.ascii	"long long int\000"
 4046      206C6F6E 
 4046      6720696E 
 4046      7400
 4047              	.LASF65:
 4048 067f 73797369 		.ascii	"sysinterval_t\000"
 4048      6E746572 
 4048      76616C5F 
 4048      7400
 4049              	.LASF243:
 4050 068d 63685F6F 		.ascii	"ch_objects_factory\000"
 4050      626A6563 
 4050      74735F66 
 4050      6163746F 
 4050      727900
 4051              	.LASF72:
 4052 06a0 63685F70 		.ascii	"ch_priority_queue_t\000"
 4052      72696F72 
 4052      6974795F 
 4052      71756575 
 4052      655F7400 
 4053              	.LASF276:
 4054 06b4 6164636D 		.ascii	"adcm\000"
 4054      00
 4055              	.LASF142:
 4056 06b9 41504232 		.ascii	"APB2RSTR\000"
 4056      52535452 
 4056      00
 4057              	.LASF272:
 4058 06c2 64657074 		.ascii	"depth\000"
 4058      6800
 4059              	.LASF56:
 4060 06c8 6D61736B 		.ascii	"mask\000"
 4060      00
 4061              	.LASF236:
 4062 06cd 616C6967 		.ascii	"align\000"
 4062      6E00
 4063              	.LASF275:
 4064 06d3 6D757465 		.ascii	"mutex\000"
 4064      7800
 4065              	.LASF90:
 4066 06d9 49544D5F 		.ascii	"ITM_RxBuffer\000"
 4066      52784275 
 4066      66666572 
 4066      00
 4067              	.LASF119:
 4068 06e6 41574433 		.ascii	"AWD3CR\000"
 4068      435200
 4069              	.LASF290:
 4070 06ed 61776432 		.ascii	"awd2cr\000"
 4070      637200
ARM GAS  /tmp/ccK9FAxv.s 			page 80


 4071              	.LASF157:
 4072 06f4 63685F73 		.ascii	"ch_sys_running\000"
 4072      79735F72 
 4072      756E6E69 
 4072      6E6700
 4073              	.LASF201:
 4074 0703 6F66665F 		.ascii	"off_newer\000"
 4074      6E657765 
 4074      7200
 4075              	.LASF258:
 4076 070d 73656C66 		.ascii	"selfindex\000"
 4076      696E6465 
 4076      7800
 4077              	.LASF16:
 4078 0717 706F7274 		.ascii	"port_rtcnt_t\000"
 4078      5F727463 
 4078      6E745F74 
 4078      00
 4079              	.LASF0:
 4080 0724 756E7369 		.ascii	"unsigned int\000"
 4080      676E6564 
 4080      20696E74 
 4080      00
 4081              	.LASF217:
 4082 0731 6F66665F 		.ascii	"off_sys_rfcu\000"
 4082      7379735F 
 4082      72666375 
 4082      00
 4083              	.LASF18:
 4084 073e 7274636E 		.ascii	"rtcnt_t\000"
 4084      745F7400 
 4085              	.LASF43:
 4086 0746 6F735F69 		.ascii	"os_instance_t\000"
 4086      6E737461 
 4086      6E63655F 
 4086      7400
 4087              	.LASF137:
 4088 0754 43464752 		.ascii	"CFGR1\000"
 4088      3100
 4089              	.LASF139:
 4090 075a 43464752 		.ascii	"CFGR2\000"
 4090      3200
 4091              	.LASF149:
 4092 0760 43464752 		.ascii	"CFGR3\000"
 4092      3300
 4093              	.LASF286:
 4094 0766 6E756D5F 		.ascii	"num_channels\000"
 4094      6368616E 
 4094      6E656C73 
 4094      00
 4095              	.LASF129:
 4096 0773 434D4152 		.ascii	"CMAR\000"
 4096      00
 4097              	.LASF181:
 4098 0778 63757272 		.ascii	"current\000"
 4098      656E7400 
 4099              	.LASF296:
ARM GAS  /tmp/ccK9FAxv.s 			page 81


 4100 0780 41444344 		.ascii	"ADCD1\000"
 4100      3100
 4101              	.LASF153:
 4102 0786 6F666673 		.ascii	"offset\000"
 4102      657400
 4103              	.LASF298:
 4104 078d 41444344 		.ascii	"ADCD3\000"
 4104      3300
 4105              	.LASF299:
 4106 0793 41444344 		.ascii	"ADCD4\000"
 4106      3400
 4107              	.LASF169:
 4108 0799 6C697374 		.ascii	"list\000"
 4108      00
 4109              	.LASF281:
 4110 079e 68616C5F 		.ascii	"hal_adc_config\000"
 4110      6164635F 
 4110      636F6E66 
 4110      696700
 4111              	.LASF198:
 4112 07ad 74687265 		.ascii	"threadsize\000"
 4112      61647369 
 4112      7A6500
 4113              	.LASF76:
 4114 07b8 63685F64 		.ascii	"ch_delta_list\000"
 4114      656C7461 
 4114      5F6C6973 
 4114      7400
 4115              	.LASF161:
 4116 07c6 646C6973 		.ascii	"dlist\000"
 4116      7400
 4117              	.LASF229:
 4118 07cc 6D656D67 		.ascii	"memgetfunc_t\000"
 4118      65746675 
 4118      6E635F74 
 4118      00
 4119              	.LASF210:
 4120 07d9 6F66665F 		.ascii	"off_reserved\000"
 4120      72657365 
 4120      72766564 
 4120      00
 4121              	.LASF29:
 4122 07e6 74687265 		.ascii	"thread_t\000"
 4122      61645F74 
 4122      00
 4123              	.LASF187:
 4124 07ef 69646C65 		.ascii	"idlethread_end\000"
 4124      74687265 
 4124      61645F65 
 4124      6E6400
 4125              	.LASF2:
 4126 07fe 6C6F6E67 		.ascii	"long double\000"
 4126      20646F75 
 4126      626C6500 
 4127              	.LASF168:
 4128 080a 74687265 		.ascii	"thread_reference_t\000"
 4128      61645F72 
ARM GAS  /tmp/ccK9FAxv.s 			page 82


 4128      65666572 
 4128      656E6365 
 4128      5F7400
 4129              	.LASF85:
 4130 081d 74726163 		.ascii	"trace_event_t\000"
 4130      655F6576 
 4130      656E745F 
 4130      7400
 4131              	.LASF174:
 4132 082b 73656E74 		.ascii	"sentmsg\000"
 4132      6D736700 
 4133              	.LASF307:
 4134 0833 68616C5F 		.ascii	"hal_lld_backup_domain_init\000"
 4134      6C6C645F 
 4134      6261636B 
 4134      75705F64 
 4134      6F6D6169 
 4135              	.LASF151:
 4136 084e 706F7274 		.ascii	"port_intctx\000"
 4136      5F696E74 
 4136      63747800 
 4137              	.LASF270:
 4138 085a 68616C5F 		.ascii	"hal_adc_driver\000"
 4138      6164635F 
 4138      64726976 
 4138      657200
 4139              	.LASF252:
 4140 0869 6F626A65 		.ascii	"objects_factory_t\000"
 4140      6374735F 
 4140      66616374 
 4140      6F72795F 
 4140      7400
 4141              	.LASF302:
 4142 087b 73746D33 		.ascii	"stm32_clock_init\000"
 4142      325F636C 
 4142      6F636B5F 
 4142      696E6974 
 4142      00
 4143              	.LASF246:
 4144 088c 6275665F 		.ascii	"buf_list\000"
 4144      6C697374 
 4144      00
 4145              	.LASF255:
 4146 0895 636D6173 		.ascii	"cmask\000"
 4146      6B00
 4147              	.LASF60:
 4148 089b 6973725F 		.ascii	"isr_cnt\000"
 4148      636E7400 
 4149              	.LASF130:
 4150 08a3 444D415F 		.ascii	"DMA_Channel_TypeDef\000"
 4150      4368616E 
 4150      6E656C5F 
 4150      54797065 
 4150      44656600 
 4151              	.LASF92:
 4152 08b7 41484250 		.ascii	"AHBPrescTable\000"
 4152      72657363 
ARM GAS  /tmp/ccK9FAxv.s 			page 83


 4152      5461626C 
 4152      6500
 4153              	.LASF235:
 4154 08c5 6F626A65 		.ascii	"object_size\000"
 4154      63745F73 
 4154      697A6500 
 4155              	.LASF87:
 4156 08d1 73697A65 		.ascii	"size\000"
 4156      00
 4157              	.LASF15:
 4158 08d6 6C6F6E67 		.ascii	"long long unsigned int\000"
 4158      206C6F6E 
 4158      6720756E 
 4158      7369676E 
 4158      65642069 
 4159              	.LASF10:
 4160 08ed 75696E74 		.ascii	"uint16_t\000"
 4160      31365F74 
 4160      00
 4161              	.LASF203:
 4162 08f6 6F66665F 		.ascii	"off_name\000"
 4162      6E616D65 
 4162      00
 4163              	.LASF184:
 4164 08ff 6D61696E 		.ascii	"mainthread_base\000"
 4164      74687265 
 4164      61645F62 
 4164      61736500 
 4165              	.LASF24:
 4166 090f 6D73675F 		.ascii	"msg_t\000"
 4166      7400
 4167              	.LASF77:
 4168 0915 64656C74 		.ascii	"delta\000"
 4168      6100
 4169              	.LASF17:
 4170 091b 706F7274 		.ascii	"port_stkalign_t\000"
 4170      5F73746B 
 4170      616C6967 
 4170      6E5F7400 
 4171              	.LASF269:
 4172 092b 41444344 		.ascii	"ADCDriver\000"
 4172      72697665 
 4172      7200
 4173              	.LASF36:
 4174 0935 72656673 		.ascii	"refs\000"
 4174      00
 4175              	.LASF166:
 4176 093a 71756575 		.ascii	"queue\000"
 4176      6500
 4177              	.LASF79:
 4178 0940 72656173 		.ascii	"reason\000"
 4178      6F6E00
 4179              	.LASF259:
 4180 0947 76656374 		.ascii	"vector\000"
 4180      6F7200
 4181              	.LASF253:
 4182 094e 63685F66 		.ascii	"ch_factory\000"
ARM GAS  /tmp/ccK9FAxv.s 			page 84


 4182      6163746F 
 4182      727900
 4183              	.LASF249:
 4184 0959 6D62785F 		.ascii	"mbx_list\000"
 4184      6C697374 
 4184      00
 4185              	.LASF52:
 4186 0962 6D61696E 		.ascii	"mainthread\000"
 4186      74687265 
 4186      616400
 4187              	.LASF195:
 4188 096d 76657273 		.ascii	"version\000"
 4188      696F6E00 
 4189              	.LASF80:
 4190 0975 68616C74 		.ascii	"halt\000"
 4190      00
 4191              	.LASF291:
 4192 097a 61776433 		.ascii	"awd3cr\000"
 4192      637200
 4193              	.LASF33:
 4194 0981 77616261 		.ascii	"wabase\000"
 4194      736500
 4195              	.LASF238:
 4196 0988 6D656D6F 		.ascii	"memory_pool_t\000"
 4196      72795F70 
 4196      6F6F6C5F 
 4196      7400
 4197              	.LASF211:
 4198 0996 696E7463 		.ascii	"intctxsize\000"
 4198      74787369 
 4198      7A6500
 4199              	.LASF84:
 4200 09a1 74696D65 		.ascii	"time\000"
 4200      00
 4201              	.LASF224:
 4202 09a6 6F66665F 		.ascii	"off_inst_rfcu\000"
 4202      696E7374 
 4202      5F726663 
 4202      7500
 4203              	.LASF46:
 4204 09b4 726C6973 		.ascii	"rlist\000"
 4204      7400
 4205              	.LASF20:
 4206 09ba 746D6F64 		.ascii	"tmode_t\000"
 4206      655F7400 
 4207              	.LASF256:
 4208 09c2 64756D6D 		.ascii	"dummy\000"
 4208      7900
 4209              	.LASF263:
 4210 09c8 4144435F 		.ascii	"ADC_STOP\000"
 4210      53544F50 
 4210      00
 4211              	.LASF108:
 4212 09d1 4F465231 		.ascii	"OFR1\000"
 4212      00
 4213              	.LASF109:
 4214 09d6 4F465232 		.ascii	"OFR2\000"
ARM GAS  /tmp/ccK9FAxv.s 			page 85


 4214      00
 4215              	.LASF110:
 4216 09db 4F465233 		.ascii	"OFR3\000"
 4216      00
 4217              	.LASF111:
 4218 09e0 4F465234 		.ascii	"OFR4\000"
 4218      00
 4219              	.LASF170:
 4220 09e5 70717565 		.ascii	"pqueue\000"
 4220      756500
 4221              	.LASF86:
 4222 09ec 73757370 		.ascii	"suspended\000"
 4222      656E6465 
 4222      6400
 4223              	.LASF154:
 4224 09f6 746D5F63 		.ascii	"tm_calibration_t\000"
 4224      616C6962 
 4224      72617469 
 4224      6F6E5F74 
 4224      00
 4225              	.LASF271:
 4226 0a07 73616D70 		.ascii	"samples\000"
 4226      6C657300 
 4227              	.LASF274:
 4228 0a0f 74687265 		.ascii	"thread\000"
 4228      616400
 4229              	.LASF222:
 4230 0a16 6F66665F 		.ascii	"off_inst_reglist\000"
 4230      696E7374 
 4230      5F726567 
 4230      6C697374 
 4230      00
 4231              	.LASF32:
 4232 0a27 6E616D65 		.ascii	"name\000"
 4232      00
 4233              	.LASF93:
 4234 0a2c 41504250 		.ascii	"APBPrescTable\000"
 4234      72657363 
 4234      5461626C 
 4234      6500
 4235              	.LASF133:
 4236 0a3a 4B455952 		.ascii	"KEYR\000"
 4236      00
 4237              	.LASF150:
 4238 0a3f 5243435F 		.ascii	"RCC_TypeDef\000"
 4238      54797065 
 4238      44656600 
 4239              	.LASF183:
 4240 0a4b 63685F6F 		.ascii	"ch_os_instance_config\000"
 4240      735F696E 
 4240      7374616E 
 4240      63655F63 
 4240      6F6E6669 
 4241              	.LASF123:
 4242 0a61 43414C46 		.ascii	"CALFACT\000"
 4242      41435400 
 4243              	.LASF4:
ARM GAS  /tmp/ccK9FAxv.s 			page 86


 4244 0a69 73686F72 		.ascii	"short int\000"
 4244      7420696E 
 4244      7400
 4245              	.LASF188:
 4246 0a73 6F735F69 		.ascii	"os_instance_config_t\000"
 4246      6E737461 
 4246      6E63655F 
 4246      636F6E66 
 4246      69675F74 
 4247              	.LASF158:
 4248 0a88 63685F73 		.ascii	"ch_sys_halted\000"
 4248      79735F68 
 4248      616C7465 
 4248      6400
 4249              	.LASF73:
 4250 0a96 63685F70 		.ascii	"ch_priority_queue\000"
 4250      72696F72 
 4250      6974795F 
 4250      71756575 
 4250      6500
 4251              	.LASF14:
 4252 0aa8 75696E74 		.ascii	"uint64_t\000"
 4252      36345F74 
 4252      00
 4253              	.LASF179:
 4254 0ab1 63685F6D 		.ascii	"ch_mutex\000"
 4254      75746578 
 4254      00
 4255              	.LASF143:
 4256 0aba 41504231 		.ascii	"APB1RSTR\000"
 4256      52535452 
 4256      00
 4257              	.LASF50:
 4258 0ac3 72666375 		.ascii	"rfcu\000"
 4258      00
 4259              	.LASF38:
 4260 0ac8 6D736771 		.ascii	"msgqueue\000"
 4260      75657565 
 4260      00
 4261              	.LASF58:
 4262 0ad1 63685F73 		.ascii	"ch_system_debug\000"
 4262      79737465 
 4262      6D5F6465 
 4262      62756700 
 4263              	.LASF242:
 4264 0ae1 64796E5F 		.ascii	"dyn_list_t\000"
 4264      6C697374 
 4264      5F7400
 4265              	.LASF48:
 4266 0aec 7265676C 		.ascii	"reglist\000"
 4266      69737400 
 4267              	.LASF144:
 4268 0af4 41484245 		.ascii	"AHBENR\000"
 4268      4E5200
 4269              	.LASF70:
 4270 0afb 63685F71 		.ascii	"ch_queue\000"
 4270      75657565 
ARM GAS  /tmp/ccK9FAxv.s 			page 87


 4270      00
 4271              	.LASF113:
 4272 0b04 4A445231 		.ascii	"JDR1\000"
 4272      00
 4273              	.LASF114:
 4274 0b09 4A445232 		.ascii	"JDR2\000"
 4274      00
 4275              	.LASF115:
 4276 0b0e 4A445233 		.ascii	"JDR3\000"
 4276      00
 4277              	.LASF116:
 4278 0b13 4A445234 		.ascii	"JDR4\000"
 4278      00
 4279              	.LASF106:
 4280 0b18 4A535152 		.ascii	"JSQR\000"
 4280      00
 4281              	.LASF47:
 4282 0b1d 76746C69 		.ascii	"vtlist\000"
 4282      737400
 4283              	.LASF37:
 4284 0b24 77616974 		.ascii	"waiting\000"
 4284      696E6700 
 4285              	.LASF219:
 4286 0b2c 6F66665F 		.ascii	"off_inst_rlist_current\000"
 4286      696E7374 
 4286      5F726C69 
 4286      73745F63 
 4286      75727265 
 4287              	.LASF227:
 4288 0b43 6D757465 		.ascii	"mutex_t\000"
 4288      785F7400 
 4289              	.LASF22:
 4290 0b4b 74726566 		.ascii	"trefs_t\000"
 4290      735F7400 
 4291              	.LASF230:
 4292 0b53 62617365 		.ascii	"basemem\000"
 4292      6D656D00 
 4293              	.LASF214:
 4294 0b5b 6F66665F 		.ascii	"off_sys_state\000"
 4294      7379735F 
 4294      73746174 
 4294      6500
 4295              	.LASF152:
 4296 0b69 706F7274 		.ascii	"port_context\000"
 4296      5F636F6E 
 4296      74657874 
 4296      00
 4297              	.LASF136:
 4298 0b76 464C4153 		.ascii	"FLASH_TypeDef\000"
 4298      485F5479 
 4298      70654465 
 4298      6600
 4299              	.LASF304:
 4300 0b84 474E5520 		.ascii	"GNU C17 9.2.1 20191025 (release) [ARM/arm-9-branch "
 4300      43313720 
 4300      392E322E 
 4300      31203230 
ARM GAS  /tmp/ccK9FAxv.s 			page 88


 4300      31393130 
 4301 0bb7 72657669 		.ascii	"revision 277599] -mcpu=cortex-m4 -mthumb -mfloat-ab"
 4301      73696F6E 
 4301      20323737 
 4301      3539395D 
 4301      202D6D63 
 4302 0bea 693D736F 		.ascii	"i=soft -march=armv7e-m -ggdb -O2 -fomit-frame-point"
 4302      6674202D 
 4302      6D617263 
 4302      683D6172 
 4302      6D763765 
 4303 0c1d 6572202D 		.ascii	"er -falign-functions=16 -ffunction-sections -fdata-"
 4303      66616C69 
 4303      676E2D66 
 4303      756E6374 
 4303      696F6E73 
 4304 0c50 73656374 		.ascii	"sections -fno-common -flto\000"
 4304      696F6E73 
 4304      202D666E 
 4304      6F2D636F 
 4304      6D6D6F6E 
 4305              	.LASF189:
 4306 0c6b 63685F73 		.ascii	"ch_system\000"
 4306      79737465 
 4306      6D00
 4307              	.LASF12:
 4308 0c75 75696E74 		.ascii	"uint32_t\000"
 4308      33325F74 
 4308      00
 4309              	.LASF141:
 4310 0c7e 5057525F 		.ascii	"PWR_TypeDef\000"
 4310      54797065 
 4310      44656600 
 4311              	.LASF305:
 4312 0c8a 2E2E2F2E 		.ascii	"../../../../os/hal/ports/STM32/STM32F3xx/hal_lld.c\000"
 4312      2E2F2E2E 
 4312      2F2E2E2F 
 4312      6F732F68 
 4312      616C2F70 
 4313              	.LASF171:
 4314 0cbd 7264796D 		.ascii	"rdymsg\000"
 4314      736700
 4315              	.LASF11:
 4316 0cc4 73686F72 		.ascii	"short unsigned int\000"
 4316      7420756E 
 4316      7369676E 
 4316      65642069 
 4316      6E7400
 4317              	.LASF191:
 4318 0cd7 63685F73 		.ascii	"ch_system_t\000"
 4318      79737465 
 4318      6D5F7400 
 4319              	.LASF225:
 4320 0ce3 63686465 		.ascii	"chdebug_t\000"
 4320      6275675F 
 4320      7400
 4321              	.LASF197:
ARM GAS  /tmp/ccK9FAxv.s 			page 89


 4322 0ced 74696D65 		.ascii	"timesize\000"
 4322      73697A65 
 4322      00
 4323              	.LASF186:
 4324 0cf6 69646C65 		.ascii	"idlethread_base\000"
 4324      74687265 
 4324      61645F62 
 4324      61736500 
 4325              	.LASF284:
 4326 0d06 68616C5F 		.ascii	"hal_adc_configuration_group\000"
 4326      6164635F 
 4326      636F6E66 
 4326      69677572 
 4326      6174696F 
 4327              	.LASF213:
 4328 0d22 696E7374 		.ascii	"instancesnum\000"
 4328      616E6365 
 4328      736E756D 
 4328      00
 4329              	.LASF126:
 4330 0d2f 4144435F 		.ascii	"ADC_Common_TypeDef\000"
 4330      436F6D6D 
 4330      6F6E5F54 
 4330      79706544 
 4330      656600
 4331              	.LASF233:
 4332 0d42 63685F6D 		.ascii	"ch_memcore\000"
 4332      656D636F 
 4332      726500
 4333              	.LASF206:
 4334 0d4d 6F66665F 		.ascii	"off_flags\000"
 4334      666C6167 
 4334      7300
 4335              	.LASF68:
 4336 0d57 6E657874 		.ascii	"next\000"
 4336      00
 4337              	.LASF297:
 4338 0d5c 41444344 		.ascii	"ADCD2\000"
 4338      3200
 4339              	.LASF71:
 4340 0d62 70726576 		.ascii	"prev\000"
 4340      00
 4341              	.LASF241:
 4342 0d67 63685F64 		.ascii	"ch_dyn_list\000"
 4342      796E5F6C 
 4342      69737400 
 4343              	.LASF140:
 4344 0d73 53595343 		.ascii	"SYSCFG_TypeDef\000"
 4344      46475F54 
 4344      79706544 
 4344      656600
 4345              	.LASF280:
 4346 0d82 41444343 		.ascii	"ADCConfig\000"
 4346      6F6E6669 
 4346      6700
 4347              		.text
 4348              		.section	.gnu.lto_.profile.36af0a3bef1bcbf0,"e",%progbits
ARM GAS  /tmp/ccK9FAxv.s 			page 90


 4349 0000 789CE360 		.ascii	"x\234\343``\004B \000\000\000]\000\013"
 4349      60044220 
 4349      0000005D 
 4349      000B
 4350              		.text
 4351              		.section	.gnu.lto_.icf.36af0a3bef1bcbf0,"e",%progbits
 4352 0000 789CE360 		.ascii	"x\234\343``d\220b@\000\026\206\243o\027n\340c|3\363"
 4352      60649062 
 4352      40001686 
 4352      A36F176E 
 4352      E0637C33 
 4353 0015 C4066EA6 		.ascii	"\304\006n\246'\233W}\342a\276\260n\351k~\006\000\255"
 4353      279B577D 
 4353      E261BEB0 
 4353      6EE96B7E 
 4353      0600AD
 4354 0028 140CA3   		.ascii	"\024\014\243"
 4355              		.text
 4356              		.section	.gnu.lto_.jmpfuncs.36af0a3bef1bcbf0,"e",%progbits
 4357 0000 789CE360 		.ascii	"x\234\343``d\340c@\000f f\004\263\230\200\030\000\002"
 4357      6064E063 
 4357      40006620 
 4357      6604B398 
 4357      80180002 
 4358 0014 D2001E   		.ascii	"\322\000\036"
 4359              		.text
 4360              		.section	.gnu.lto_.inline.36af0a3bef1bcbf0,"e",%progbits
 4361 0000 789CE360 		.ascii	"x\234\343``d\250e@\000f\006\006\261\356u\375S\231\322"
 4361      6064A865 
 4361      40006606 
 4361      06B1EE75 
 4361      FD5399D2 
 4362 0014 191998D4 		.ascii	"\031\031\230\324\246\336\231\367\2129\215\201\201\255"
 4362      A6DE99F7 
 4362      8A398D81 
 4362      81AD
 4363 0022 01089852 		.ascii	"\001\010\230R\230\030\230@j\030\031\224\200\334\007"
 4363      98189840 
 4363      6A181994 
 4363      80DC07
 4364 0031 CC194025 		.ascii	"\314\031@%\026@\326\001\346t\014%\\\350$\023\203\365"
 4364      1640D601 
 4364      E6740C25 
 4364      5CE82413 
 4364      83F5
 4365 0043 9B1747E7 		.ascii	"\233\027G\3470e\0035\025\000Y\263\230\262\201\232\246"
 4365      30650335 
 4365      150059B3 
 4365      98B2819A 
 4365      A6
 4366 0054 236B6200 		.ascii	"#kb\000\000u=\034>"
 4366      00753D1C 
 4366      3E
 4367              		.text
 4368              		.section	.gnu.lto_.pureconst.36af0a3bef1bcbf0,"e",%progbits
 4369 0000 789CE360 		.ascii	"x\234\343``d\340b```f\230\305\3028\213\205i\026\013"
 4369      6064E062 
ARM GAS  /tmp/ccK9FAxv.s 			page 91


 4369      60606066 
 4369      98C5C238 
 4369      8B856916 
 4370 0015 000A9E01 		.ascii	"\000\012\236\001\364"
 4370      F4
 4371              		.text
 4372              		.section	.gnu.lto_hal_lld_backup_domain_init.36af0a3bef1bcbf0,"e",%progbits
 4373 0000 789CA554 		.ascii	"x\234\245TILSA\030\376\377\231y\257\217\012\361`LL8"
 4373      494C5341 
 4373      18FEFF99 
 4373      79AF8F0A 
 4373      F1604C4C 
 4374 0015 E0154D68 		.ascii	"\340\025Mh#r\367\304\315\223^<\031\227\203\207&\030"
 4374      2372F7C4 
 4374      CD935E3C 
 4374      19978387 
 4374      2618
 4375 0027 F1C08DA9 		.ascii	"\361\300\215\251`jdq\011\002&j\033H5J\242!j\242R\244"
 4375      606A6471 
 4375      0902266A 
 4375      1B48354A 
 4375      A2216AA2 
 4376 003d EC8B2882 		.ascii	"\354\213(\202\250H\010\212\261,nMT.\230\200\263<:PL"
 4376      A848088A 
 4376      B12C6E4D 
 4376      542E9880 
 4376      B33C3A50 
 4377 0052 B4DAF4FD 		.ascii	"\264\332\364\375}\363\376y\337\362\377\377\324\001\204"
 4377      7DF3FE79 
 4377      DFF2FFFF 
 4377      D40184
 4378 0061 90055004 		.ascii	"\220\005P\004\000\007\304\205\036@\3029\337\343\011"
 4378      0007C485 
 4378      1E40C239 
 4378      DFE309
 4379 0070 3A84D0BA 		.ascii	":\204\320\272\251k;\030\367\262\317\3153[\031\317\246"
 4379      A96B3B18 
 4379      F7B2CFCD 
 4379      335B19CF 
 4379      A6
 4380 0081 C8DC1C23 		.ascii	"\310\334\034#\226\270\333.r\266\376\315\266\320vs6\242"
 4380      96B8DB2E 
 4380      72B6FECD 
 4380      B6D07673 
 4380      36A2
 4381 0093 BAE30E42 		.ascii	"\272\343\016B9\241\314\262\261\034\317\321\006\212]"
 4381      39A1CCB2 
 4381      B11CCFD1 
 4381      068A5D
 4382 00a2 A1D98724 		.ascii	"\241\331\207$\377\206\310\362x\303TQ\220\237\336\026"
 4382      FF86C8F2 
 4382      78C35451 
 4382      909FDE16 
 4383 00b2 A60097C5 		.ascii	"\246\000\227\305\245?\370\010\363\001\304\316\367\255"
 4383      A53FF808 
 4383      F301C4CE 
 4383      F7AD
ARM GAS  /tmp/ccK9FAxv.s 			page 92


 4384 00c0 CB97726C 		.ascii	"\313\227rl\346\246\260\015m!\024\340\316\230\025\347"
 4384      E6A6B00D 
 4384      6D2114E0 
 4384      CE9815E7 
 4385 00d0 CB2B211E 		.ascii	"\313+!\036\377\021\305\305\342-\010a\212D\006*\003\223"
 4385      FF11C5C5 
 4385      E22D0861 
 4385      8A44062A 
 4385      0393
 4386 00e2 C192C196 		.ascii	"\301\222\301\226\301#\203#C\226\014^\031\000\252(H\001"
 4386      C1238323 
 4386      43960C5E 
 4386      1900AA28 
 4386      4801
 4387 00f4 0C791CA0 		.ascii	"\014y\034\240\232\022\275\010\212\305,\362\246\271\\"
 4387      9A12BD08 
 4387      8AC52CF2 
 4387      A6B95C
 4388 0103 45F611BB 		.ascii	"E\366\021\273b\203\352\366*E\241\247\266\"9\355\324"
 4388      6283EAF6 
 4388      2A45A1A7 
 4388      B62239ED 
 4388      D4
 4389 0114 D2302528 		.ascii	"\3220%(\345]Y\350\355\244z\311\337\0059\023\217:\036"
 4389      E55D59E8 
 4389      EDA47AC9 
 4389      DF053913 
 4389      8F3A1E
 4390 0127 F4C5B2A3 		.ascii	"\364\305\262\243\330\034\224\365\010S\212\355\230\213"
 4390      D81C94F5 
 4390      08538AED 
 4390      988B
 4391 0135 31CC5576 		.ascii	"1\314Uv\332\317\0177[\376\333\274\022\303\224\341c\214"
 4391      DACF0F37 
 4391      5BFEDBBC 
 4391      12C394E1 
 4391      638C
 4392 0147 62A336D6 		.ascii	"b\2436\326\201~\301Uq1\204\232\213h\272[m\013\215D\342"
 4392      817EC155 
 4392      7131849A 
 4392      8B68BA5B 
 4392      6D0B8D44 
 4393 015c 8B52128C 		.ascii	"\213R\022\214\013\024!h\372\254\332\224\031W\247\341"
 4393      0B142168 
 4393      FAACDA94 
 4393      1957A7E1 
 4394 016c EA42BF20 		.ascii	"\352B\277 P.\277otI\327\272\264\224\313\245\372\212"
 4394      502EBF6F 
 4394      7449D7BA 
 4394      B494CBA5 
 4394      FA8A
 4395 017e DECD7AC9 		.ascii	"\336\315z\311#g\224\313\017#\255\023\216a\266\261G0"
 4395      236794CB 
 4395      0F23AD13 
 4395      8E61B6B1 
 4395      4730
 4396 0190 77BBCC83 		.ascii	"w\273\314\203\003\027z\230d\016\312\034\303^\305-\373"
ARM GAS  /tmp/ccK9FAxv.s 			page 93


 4396      03177A98 
 4396      640ECA1C 
 4396      C35EC52D 
 4396      FB
 4397 01a1 867DDA67 		.ascii	"\206}\332g}\350\246\245\351\230f\034\275\027\253s\\"
 4397      7DE8A6A5 
 4397      E998661C 
 4397      BD17AB73 
 4397      5C
 4398 01b2 A336F60B 		.ascii	"\2436\366\013\240\004V\316w\357v7\211\035\211d\242%"
 4398      A00456CE 
 4398      77EF7637 
 4398      891D8964 
 4398      A225
 4399 01c4 C7DDC170 		.ascii	"\307\335\301p@R\201\354\033\215\316,\216\222T\337~\356"
 4399      405281EC 
 4399      1B8DCE2C 
 4399      8E9254DF 
 4399      7EEE
 4400 01d6 5C75F46D 		.ascii	"\\u\364m \317-\323Z\261\221\303\360'\271\203F\356\020"
 4400      20CF2DD3 
 4400      5AB191C3 
 4400      F027B983 
 4400      46EE10
 4401 01e9 FAA5B8A1 		.ascii	"\372\245\270\241\271&%N\314\212\340~\"\336\223T+\377"
 4401      B926254E 
 4401      CC8AE07E 
 4401      22DE9354 
 4401      2BFF
 4402 01fb 4F356CA8 		.ascii	"O5l\250\236*\252T\345\031\002>S&\253)[?\232-5tC\327"
 4402      9E2AAA54 
 4402      E519023E 
 4402      5326AB29 
 4402      5B3F9A2D 
 4403 0213 AC4C7B32 		.ascii	"\254L{2b\230\237\247\367\304\305\273\2774\177}\223["
 4403      62989FA7 
 4403      F7C4C5BB 
 4403      BF347F7D 
 4403      935B
 4404 0225 71317DA3 		.ascii	"q1}\243\272)oW\233\"\355\366'\277\214\243\336\0028\226"
 4404      BA296F57 
 4404      9B22EDF6 
 4404      27BF8CA3 
 4404      DE023896 
 4405 0239 EA892525 		.ascii	"\352\211%%\230\236\334\255\261\214\340<\375\266\347"
 4405      989EDCAD 
 4405      B18CE03C 
 4405      FDB6E7
 4406 0248 AF05ABF1 		.ascii	"\257\005\253\361}a\344\216\247\035\025G\200\251yXw4"
 4406      7D61E48E 
 4406      A71D1547 
 4406      80A97958 
 4406      7734
 4407 025a 32C07E69 		.ascii	"2\300~i\260_\311\243\341(\321\035\277\021\235\225\031"
 4407      B05FC9A3 
 4407      E128D11D 
 4407      BF119D95 
ARM GAS  /tmp/ccK9FAxv.s 			page 94


 4407      19
 4408 026b F06B033C 		.ascii	"\360k\003<\221&\332+\300TE\377U\364\033\203=)E{U\341"
 4408      9126DA2B 
 4408      C05445FF 
 4408      55F41B83 
 4408      3D29457B 
 4409 0281 6D33295F 		.ascii	"m3)_\361T\344S\215BV]\251\242h\376\356\000\012\013\012"
 4409      F154E453 
 4409      8D42565D 
 4409      A9A268FE 
 4409      EE000A0B 
 4410 0296 7CA96F49 		.ascii	"|\251oI\251\357\330\241\200\357x\311\211\223\245\276"
 4410      A9EFD8A1 
 4410      80EF78C9 
 4410      8993A5BE 
 4411 02a6 7DFBF716 		.ascii	"}\373\367\026\356\322\261\270\260\254Lf\016\006\002"
 4411      EED2B1B8 
 4411      B0AC4C66 
 4411      0E0602
 4412 02b5 470B8EC0 		.ascii	"G\013\216\300/\337T\332|"
 4412      2FDF54DA 
 4412      7C
 4413              		.text
 4414              		.section	.gnu.lto_hal_lld_init.36af0a3bef1bcbf0,"e",%progbits
 4415 0000 789CA556 		.ascii	"x\234\245VML\023A\030\235og\333nk\244!\020$\020\003"
 4415      4D4C1341 
 4415      189D6F67 
 4415      DB6E6BA4 
 4415      21102410 
 4416 0015 7AE3421B 		.ascii	"z\343B\033\211wO\036L<\351\335\030=x \301\210\007nL"
 4416      89774F1E 
 4416      4C3CE9DD 
 4416      183D7820 
 4416      C188076E 
 4417 002a 69A14608 		.ascii	"i\241F\010DSA\016\244DB4!\201`\274(?\326\012\362W\004"
 4417      4453410E 
 4417      A4444234 
 4417      218160BC 
 4417      283FD60A 
 4418 0041 11115151 		.ascii	"\021\021QQ\021Q\020Z\305\037\004\225:\337NaH)\301\205"
 4418      1151105A 
 4418      C51F0495 
 4418      3ADF4E61 
 4418      4829C185 
 4419 0055 A6FBB2DB 		.ascii	"\246\373\262\333\331y\337{\337\233\356\216F\200\354"
 4419      D979DF7B 
 4419      DF9BEE8E 
 4419      4680EC
 4420 0064 B3117298 		.ascii	"\263\021r\230\020\262\237\037@\011(\214\261#\026\227"
 4420      10B29F1F 
 4420      4009288C 
 4420      B1231697 
 4421 0074 A600E867 		.ascii	"\246\000\350gL\003R\254@1T\321\032\012A\357\314]%\347"
 4421      4C0352AC 
 4421      403154D1 
 4421      1A0A41EF 
 4421      CC5D25E7 
ARM GAS  /tmp/ccK9FAxv.s 			page 95


 4422 0088 261F6181 		.ascii	"&\037a\201\232\333\2262V\232\356\247\204\324\362C|\340"
 4422      9ADB9632 
 4422      569AEEA7 
 4422      84D4F243 
 4422      7CE0
 4423 009a 1EE410C2 		.ascii	"\036\344\020\302\357\234j]\275\266\327\254\306\206\240"
 4423      EF9C6A5D 
 4423      BDB6D7AC 
 4423      C686A0
 4424 00a9 0DCCBC18 		.ascii	"\015\314\274\030!-#\246\000[\215zY \324\000m\307\016"
 4424      212D23A6 
 4424      005B8D7A 
 4424      5920D400 
 4424      6DC70E
 4425 00bc 00F15350 		.ascii	"\000\361SP\020(\202\212`B0#X\0204\004+\202\015!\011"
 4425      1028828A 
 4425      60423023 
 4425      58103404 
 4425      2B820D21 
 4426 00d1 C18E908C 		.ascii	"\301\216\220\214\220\202\220\212\220\206\220\216\220"
 4426      9082908A 
 4426      9086908E 
 4426      90
 4427 00de 81908540 		.ascii	"\201\220\205@H9%\250V\005\026 \244\202*\342\302\305"
 4427      483925A8 
 4427      56051620 
 4427      A4822AE2 
 4427      C2C5
 4428 00f0 2F6680DD 		.ascii	"/f\200\335\370]Iuis\020l\267\342Y\035\005.\276\322\035"
 4428      F85D4975 
 4428      6973106C 
 4428      B7E2591D 
 4428      052EBED2 
 4429 0105 99D42AA9 		.ascii	"\231\324*\251\237*\200^V\252\335\335vq\311\352/1\225"
 4429      9F2A805E 
 4429      56AADDDD 
 4429      7671C9EA 
 4429      2F3195
 4430 0118 FF343DD4 		.ascii	"\3774=\324:\2565B\203\213\323e\373)\205\016\310\204"
 4430      3AAE3542 
 4430      838BD365 
 4430      FB29850E 
 4430      C884
 4431 012a 76C8D4BD 		.ascii	"v\310\324\275\367\365^\351R\235\315\314\003~\252B'4"
 4431      F7F55EE9 
 4431      529DCDCC 
 4431      037EAA42 
 4431      2734
 4432 013c C275D185 		.ascii	"\302u\321\205\373\340\344\245\334W\275 j)\242\\\343"
 4432      FBE0E4A5 
 4432      DC57BD20 
 4432      6A29A25C 
 4432      E3
 4433 014d CA72C48A 		.ascii	"\312r\304\212\374\000\321\250\367\217\035\002\234\210"
 4433      FC00D1A8 
 4433      F78F1D02 
 4433      9C88
ARM GAS  /tmp/ccK9FAxv.s 			page 96


 4434 015b 4B9ABCAC 		.ascii	"K\232\274\254\337g\254\334\003Y.\010N^\003\215\036\214"
 4434      DF67ACDC 
 4434      03592E08 
 4434      4E5E038D 
 4434      1E8C
 4435 016d 77498D91 		.ascii	"wI\215\221>\224\244]\302C\365\232\007U\220\015FV\273"
 4435      3E94A45D 
 4435      C243F59A 
 4435      0755900D 
 4435      4656BB
 4436 0180 34E181B1 		.ascii	"4\341\201\261_\024\272wa\341\221\254\326\203\026\324"
 4436      5F14BA77 
 4436      61E191AC 
 4436      D68316D4 
 4437 0190 841692FE 		.ascii	"\204\026\222\376\233\324\205c*\364J\332>n\002\363oV"
 4437      9BD48563 
 4437      2AF44ADA 
 4437      3E6E02F3 
 4437      6F56
 4438 01a2 74563C8D 		.ascii	"tV<\215n^\012vc\262\373u~\\\3450\2407)\270\250\0317"
 4438      6E5E0A76 
 4438      63B2FB75 
 4438      7E5CE530 
 4438      A03729B8 
 4439 01b9 1F922C83 		.ascii	"\037\222,\203\340\344\303\355e\177;-k\253#\032\265\303"
 4439      E0E4C3ED 
 4439      657F3B2D 
 4439      6BAB231A 
 4439      B5C3
 4440 01cb 633E2F51 		.ascii	"c>/QC\222\215\025\032\222\205\206w.\367\211d\031\321"
 4440      43928D15 
 4440      1A928586 
 4440      772EF789 
 4440      6419D1
 4441 01de E5F64416 		.ascii	"\345\366D\026FA\310%\360t\013\251)F\263\033\225e\236"
 4441      4641C825 
 4441      F0740BA9 
 4441      2946B31B 
 4441      95659E
 4442 01f1 C5B20BC3 		.ascii	"\305\262\013\303zv\015U\233\262K5fcL\347W\220\377\371"
 4442      7A760D55 
 4442      9BB24B35 
 4442      66634CE7 
 4442      5790FFF9 
 4443 0205 CE9B312E 		.ascii	"\316\2331.Y^\200s\313\240\322\214\261NH\326\227;\327"
 4443      595E8073 
 4443      CBA0D28C 
 4443      B14E48D6 
 4443      973BD7
 4444 0218 F64AB2BC 		.ascii	"\366J\262\274\346\332\266J&\335h2\223\222\367\315\346"
 4444      E6DAB64A 
 4444      26DD6832 
 4444      9392F7CD 
 4444      E6
 4445 0229 645A3627 		.ascii	"dZ6'c2\246\373\255\316\217\177[x\027\367\370\214\221"
 4445      6332A6FB 
 4445      ADCE8F7F 
ARM GAS  /tmp/ccK9FAxv.s 			page 97


 4445      5B7817F7 
 4445      F88C91
 4446 023c 2D54744D 		.ascii	"-TtM\354Y{\3640\0060\265\213g\317{Yn\032\237=\346\204"
 4446      EC597BF4 
 4446      300630B5 
 4446      8B67CF7B 
 4446      596E1A9F 
 4447 0253 5DCA30DA 		.ascii	"]\3120\332\245\017\222v&\326\245\025\331\245\266X\227"
 4447      A50F9276 
 4447      26D6A515 
 4447      D9A5B658 
 4447      97
 4448 0264 E6C19DAD 		.ascii	"\346\301\235\255\237p\206\272[\241\250\325\003%.\315"
 4448      9F7086BA 
 4448      5BA1A8D5 
 4448      03252ECD 
 4449 0274 4F4DB5B8 		.ascii	"OM\265\270\364\341#x\360})\346\314\332\267\233\3023"
 4449      F4E12378 
 4449      F07D29E6 
 4449      CCDAB79B 
 4449      C233
 4450 0286 814F1BA7 		.ascii	"\201O\033\247,o;\205\013\204\331\215S:R\343\255[\214"
 4450      2C6F3B85 
 4450      0B84D98D 
 4450      533A52E3 
 4450      AD5B8C
 4451 0299 F5734E37 		.ascii	"\365sN7\256\242\361\317q\361i\202\254\263bx\200\212"
 4451      AEA2F1CF 
 4451      71F16982 
 4451      ACB36278 
 4451      808A
 4452 02ab F800E677 		.ascii	"\370\000\346w\021\335\202,\025\306\350\264\204\321e"
 4452      11DD822C 
 4452      15C6E8B4 
 4452      84D165
 4453 02ba 198D2E22 		.ascii	"\031\215.\"i\277\304\242[\224\257\215\210O.\360\276"
 4453      69BFC4A2 
 4453      5B94AF8D 
 4453      884F2EF0 
 4453      BE
 4454 02cb 1C51C2BA 		.ascii	"\034Q\302\272q\013a\321\267\020\245\221\006\237I\\2"
 4454      710B61D1 
 4454      B710A591 
 4454      069F495C 
 4454      32
 4455 02dc E6D1B710 		.ascii	"\346\321\267\020%c\241\200Y\212\320`\221\213\370\032"
 4455      2563A180 
 4455      598AD060 
 4455      918BF81A 
 4456 02ec 1331DFD4 		.ascii	"\0231\337\324\024NZw\366M\227`B\011\337\343\232h\023"
 4456      144E5A77 
 4456      F64D9760 
 4456      4209DFE3 
 4456      9A6813
 4457 02ff E57CFD77 		.ascii	"\345|\375w\372l\242\211\331\360#\276\211\006J\375\224"
 4457      FA6CA289 
 4457      D9F023BE 
ARM GAS  /tmp/ccK9FAxv.s 			page 98


 4457      89064AFD 
 4457      94
 4458 0310 A596B089 		.ascii	"\245\226\260\2116\022\206\222\372%\237X\254\370)\247"
 4458      36128692 
 4458      FA259F58 
 4458      ACF829A7 
 4459 0320 20775484 		.ascii	" wT\204\344\345\346:\326\277\005\205\216s\247\363\035"
 4459      E4E5E63A 
 4459      D6BF0585 
 4459      8E73A7F3 
 4459      1D
 4460 0331 E70B2E5C 		.ascii	"\347\013.\\,t\2348y<\357\220\300\243yEE8r*?\377l\356"
 4460      2C749C38 
 4460      793CEF90 
 4460      C0A37945 
 4460      4538722A 
 4461 0349 19F20F36 		.ascii	"\031\362\0176\3630."
 4461      F3302E
 4462              		.text
 4463              		.section	.gnu.lto_stm32_clock_init.36af0a3bef1bcbf0,"e",%progbits
 4464 0000 789CA557 		.ascii	"x\234\245W[l\024U\030>\377\\vf\357\333\355v[zA\036%"
 4464      5B6C1455 
 4464      183EFF5C 
 4464      7666EFDB 
 4464      ED765B7A 
 4465 0017 31B49198 		.ascii	"1\264\221\230\360\350\276\370f|\320w\343\345\301\007"
 4465      F0E8BEF8 
 4465      667CD077 
 4465      E3E5C107 
 4466 0027 128CF8C0 		.ascii	"\022\214\370\300\033\323;\301Z(\011\273\022[[-D\261"
 4466      1BD33BC1 
 4466      5A2809BB 
 4466      125B5B2D 
 4466      44B1
 4467 0039 491B3446 		.ascii	"I\0334F\005\244\265P\333\002\026\250@A\261 \205\266"
 4467      05A4B550 
 4467      DB0216A8 
 4467      4041B120 
 4467      85B6
 4468 004b F442CB5D 		.ascii	"\364B\313]\332\302z\3769g\347\314\3166\301a7\315\227"
 4468      DAC27AFE 
 4468      3967E7CC 
 4468      CE36C161 
 4468      37CD97
 4469 005e B33DFFFE 		.ascii	"\263=\377\376\227\357\373\316\331Y\235\000Y\033&\344"
 4469      97EFFBCE 
 4469      D9599D00 
 4469      591B26E4 
 4470 006e 1542480D 		.ascii	"\025BH\015\020\002%\004$\3030^\325\252u\011d\276\222"
 4470      10022504 
 4470      24C3305E 
 4470      D5AA7509 
 4470      64BE92
 4471 0081 A5E2D1C5 		.ascii	"\245\342\321\305\245M\212\341S\272w\325k\212\021(\346"
 4471      A54D8AE1 
 4471      53BA77D5 
 4471      6B8A1128 
ARM GAS  /tmp/ccK9FAxv.s 			page 99


 4471      E6
 4472 0092 7B090554 		.ascii	"{\011\005T\036\244Jq\036\344\341Aq\276\227\360\200\306"
 4472      1EA44A71 
 4472      1EE4E141 
 4472      71BE97F0 
 4472      80C6
 4473 00a4 8334A988 		.ascii	"\2034\251\210\007\351<\250\210\357%t\360\362 \257\024"
 4473      07E93CA8 
 4473      88EF2574 
 4473      F0F220AF 
 4473      14
 4474 00b5 E3413E1E 		.ascii	"\343A>\036\024\343{\011\037\370y\220_*\344A\001\036"
 4474      14E37B09 
 4474      1FF87990 
 4474      5F2AE441 
 4474      011E
 4475 00c7 54C8F712 		.ascii	"T\310\367\022\001\010\362\240\240\024\345A!\036\024"
 4475      0108F2A0 
 4475      A014E541 
 4475      211E14
 4476 00d6 E57B8910 		.ascii	"\345{\211\020\204yPX*\340A\021\036T\300\367\022\021"
 4476      84795058 
 4476      2AE04111 
 4476      1E54C0F7 
 4476      1211
 4477 00e8 007361E8 		.ascii	"\000sa\350@\266Kr\261\242\306=Z\221\356\215\371\374"
 4477      40B64B72 
 4477      B1A2C63D 
 4477      5A91EE8D 
 4477      F9FC
 4478 00fa 85816034 		.ascii	"\205\201`4\024.\210\300v]&\326K\025KM,\275b\351\027"
 4478      142E88C0 
 4478      765D26D6 
 4478      4B154B4D 
 4478      2CBD62E9 
 4479 010f CBA05886 		.ascii	"\313\240X\206\305r\227\234\222\241\277q\362gi\375\327"
 4479      C572979C 
 4479      92A1BF71 
 4479      F26769FD 
 4479      D7
 4480 0120 B4B6D197 		.ascii	"\264\266\321\227\272\342k0\352K\332i\225}V%8\014\353"
 4480      BAE26B30 
 4480      EA4BDA69 
 4480      957D5625 
 4480      380CEB
 4481 0133 09A191D7 		.ascii	"\011\241\221\327\017=\335\033\364(|\013\216\200\207"
 4481      0F3DDD1B 
 4481      F4287C0B 
 4481      8E8087
 4482 0142 2A4A48CF 		.ascii	"*JH\317\250\332g<M7\032}s\235\320\362\306K@\332e\220"
 4482      A8DA673C 
 4482      4D371A7D 
 4482      739DD0F2 
 4482      C64B40DA 
 4483 0158 10640405 		.ascii	"\020d\004\005AE\360 h\010:\202\027\301\207\340G\010"
 4483      4145F020 
 4483      68083A82 
ARM GAS  /tmp/ccK9FAxv.s 			page 100


 4483      17C187E0 
 4483      4708
 4484 016a 20041142 		.ascii	" \004\021B\010a\204\010B\001B\024\241\020!\206P\204"
 4484      08618408 
 4484      42014214 
 4484      A1102186 
 4484      5084
 4485 017c 10472846 		.ascii	"\020G(F(AX\203P\212P\206P\216P\201@\310'2\231[\372f"
 4485      28415883 
 4485      508A5086 
 4485      508E5081 
 4485      40C82732 
 4486 0194 13187D84 		.ascii	"\023\030}\2044\311\222\271\256\246\353I0\276Z\330+\233"
 4486      34C992B9 
 4486      AEA6EB49 
 4486      30BE5AD8 
 4486      2B9B
 4487 01a6 A3CC40FF 		.ascii	"\243\314@\377\321\3412\\\266\311@\247m\256]\030\327"
 4487      D1E1325C 
 4487      B6C940A7 
 4487      6DAE5D18 
 4487      D7
 4488 01b7 9BE57659 		.ascii	"\233\345vY\002\034~)Y;\020fo\215\216\035\206B\377u\343"
 4488      021C7E29 
 4488      593B1066 
 4488      6F8D8E1D 
 4488      8642FF75 
 4489 01cc CCA14BFA 		.ascii	"\314\241K\372\001\350\254\246\324\255k\227e\370\005"
 4489      01E8ACA6 
 4489      D4AD6B97 
 4489      65F805
 4490 01db CAE028AD 		.ascii	"\312\340(\255\216\361\303C-'\224\252n\243\016\332e\005"
 4490      8EF1C343 
 4490      2D2794AA 
 4490      6EA30EDA 
 4490      6505
 4491 01ed 8EC101F8 		.ascii	"\216\301\001\370\214\321\326\013U\264V\355\236F`\265"
 4491      8CD1D60B 
 4491      55B456ED 
 4491      9E4660B5 
 4492 01fd 2456EE58 		.ascii	"$V\356X\323\331S2\346\007\372\352\243Ih?\343;\315\030"
 4492      D3D95332 
 4492      E607FAEA 
 4492      A349683F 
 4492      E33BCD18 
 4493 0211 77A57E15 		.ascii	"w\245~\025\245\372\241\212\3467\247\274\307\247\304"
 4493      A5FAA18A 
 4493      E637A7BC 
 4493      C7A7C4
 4494 0220 F9E56BE9 		.ascii	"\371\345k\351tZF\002\000\267\036\355U\315-\026\266F"
 4494      745A4602 
 4494      00B71EED 
 4494      55CD2D16 
 4494      B646
 4495 0232 90F1026B 		.ascii	"\220\361\002kP\376\337\365\253qO\201\343\242\203\023"
 4495      50FEDFF5 
 4495      AB714F81 
ARM GAS  /tmp/ccK9FAxv.s 			page 101


 4495      E3A28313 
 4496 0242 6CD864E3 		.ascii	"l\330d\343\260\312\222),_\303\300\356#A6\255\004\003"
 4496      B0CA9229 
 4496      2C5FC3C0 
 4496      EE234136 
 4496      AD0403
 4497 0255 34CF4DA8 		.ascii	"4\317M\250\273z\3744\247\004\311\035\\\230?\017,\202"
 4497      BB7AFC34 
 4497      A704C91D 
 4497      5C983F0F 
 4497      2C82
 4498 0267 C06F5889 		.ascii	"\300oX\211\240\216\305w\353\306\006\361\177M\2622o\227"
 4498      A08EC577 
 4498      EBC606F1 
 4498      7F4DB232 
 4498      6F97
 4499 0279 B12B6993 		.ascii	"\261+i\223\261\202\345Q\33517h\366\215\226\206\241L"
 4499      B182E551 
 4499      DD313768 
 4499      F68D9686 
 4499      A14C
 4500 028b DFBC239E 		.ascii	"\337\274#\236,\365\370\333\343*kj\205r\030\206\341<"
 4500      2CF5F8DB 
 4500      E32A6B6A 
 4500      85721886 
 4500      E13C
 4501 029d 843A29CA 		.ascii	"\204:)\312\235B\241\230\002=I!\224:\221%\324\367I!T"
 4501      9D42A198 
 4501      023D4921 
 4501      943A9125 
 4501      D4F74921 
 4502 02b2 4FD226D4 		.ascii	"O\322&\324Z\326\244\346V\250\323\242\203\3373\003_\346"
 4502      5AD6A4E6 
 4502      56A8D3A2 
 4502      83DF3303 
 4502      5FE6
 4503 02c4 42E92CDF 		.ascii	"B\351,\337\301\007\315\237\373\330\304\001\030aBM[B"
 4503      C107CD9F 
 4503      FBD8C401 
 4503      1861424D 
 4503      5B42
 4504 02d6 E93665E2 		.ascii	"\3516e\342\017,e<\267\355\312\364&s\017\230\327\035"
 4504      0F2C653C 
 4504      B7EDCAF4 
 4504      26730F98 
 4504      D71D
 4505 02e8 556784A3 		.ascii	"Ug\204\243\316:\224\361\261d{f\177\030\345\312<\006"
 4505      CE3A94F1 
 4505      B1647B66 
 4505      7F18E5CA 
 4505      3C06
 4506 02fa 3897872C 		.ascii	"8\227\207,\243\242\326\037(\213\317\034bB\014qw\250"
 4506      A3A2D61F 
 4506      288BCF1C 
 4506      62420C71 
 4506      77A8
 4507 030c 6295AC1D 		.ascii	"b\225\254\035\245\317b\373\274`\373\002T\331o\030\205"
ARM GAS  /tmp/ccK9FAxv.s 			page 102


 4507      A5CF62FB 
 4507      BC60FB02 
 4507      54D96F18 
 4507      85
 4508 031d 5AFC22FD 		.ascii	"Z\374\"\375\024\026Z^\205-\277\273\011\306\304\004\227"
 4508      14165A5E 
 4508      852DBFBB 
 4508      09C6C404 
 4508      97
 4509 032e 1C974D80 		.ascii	"\034\227M\200%{\262<\331\2551\266\014#\006\227\363\240"
 4509      257BB23C 
 4509      D9AD31B6 
 4509      0C230697 
 4509      F3A0
 4510 0340 EB4F51EC 		.ascii	"\353OQ\354/\244+\300\354\231\022.\326f\262]\234\262"
 4510      2FA42BC0 
 4510      EC99122E 
 4510      D666B25D 
 4510      9CB2
 4511 0352 B938957B 		.ascii	"\2718\225{\335\004\335\272\370\212\350\340o\347u\023"
 4511      DD04DDBA 
 4511      F88AE8E0 
 4511      6FE77513 
 4512 0362 62F976FD 		.ascii	"b\371v\375x\341'_f^\035\306\235\027N\310\346\343\242"
 4512      78E1275F 
 4512      665E1DC6 
 4512      9D174EC8 
 4512      E6E3A2
 4513 0375 15CBC77A 		.ascii	"\025\313\307z\226\217\247R6e\312\331\007\303\356\310"
 4513      968FA752 
 4513      3665CAD9 
 4513      07C3EEC8 
 4514 0385 BA6AB62A 		.ascii	"\272j\266*a\253\327\034\312Dh\262\274\356\375\177D\356"
 4514      61ABD71C 
 4514      CA4468B2 
 4514      BCEEFD7F 
 4514      44EE
 4515 0397 EB2844C4 		.ascii	"\353(D\304lz\326&\204w1K\210\005\233\020\263\251\334"
 4515      6C7AD626 
 4515      8477314B 
 4515      88059B10 
 4515      B3A9DC
 4516 03aa EBA4C0AD 		.ascii	"\353\244\300\255\020\023\242\203\033N!\2424_\356E\037"
 4516      1013A283 
 4516      1B4E21A2 
 4516      345FEE45 
 4516      1F
 4517 03bb B5F11EAB 		.ascii	"\265\361\036\253\251\317\360\356[\260\363\236N\331\216"
 4517      A9CFF0EE 
 4517      5BB0F39E 
 4517      4ED98E
 4518 03ca DEDAE73A 		.ascii	"\336\332\347:z7\305\321\233dG\357\361\271Y\215\035="
 4518      7A37C5D1 
 4518      9B6447EF 
 4518      F1B9598D 
 4518      1D3D
 4519 03dc 63E83E81 		.ascii	"c\350>\201)~\372\272Z\363\2565m\326B?\302-\263V\315"
ARM GAS  /tmp/ccK9FAxv.s 			page 103


 4519      297EFABA 
 4519      5AF3AE35 
 4519      6DD6423F 
 4519      C22DB356 
 4520 03f1 C8EE8B21 		.ascii	"\310\356\213!^\253\237\300\014/\325\223\177\251Y\263"
 4520      5EAB9FC0 
 4520      0C2FD593 
 4520      7FA959B3 
 4521 0401 9482A5E6 		.ascii	"\224\202\245\346\314R\306\201\351A\037+U\005\363\274"
 4521      CC52C681 
 4521      E9411F2B 
 4521      5505F3BC 
 4522 0411 D0546BEE 		.ascii	"\320Tk\3567c\241;o\335\026Gl\301\341\333\030K\326\334"
 4522      3763A13B 
 4522      6FDD1647 
 4522      6CC1E1DB 
 4522      184BD6DC 
 4523 0425 3536629D 		.ascii	"56b\2350z\304\026\363p\362\035Q\355.:9\306,\332*\234"
 4523      307AC416 
 4523      F370F21D 
 4523      51ED2E3A 
 4523      39C62CDA 
 4524 043b EC7F94ED 		.ascii	"\354\177\224\355\344V\233\223[s\257\224\"\267N\276'"
 4524      E4569B93 
 4524      5B73AF94 
 4524      22B74EBE 
 4524      27
 4525 044c 3AB8EF74 		.ascii	":\270\357tr\234\345;\362\351\375!1p\004\0368\275\035"
 4525      729CE53B 
 4525      F2E9FD21 
 4525      3170041E 
 4525      38BD1D
 4526 045f B779BBB0 		.ascii	"\267y\273\260\321\362v`1\313\333\253\231\300\372^P\315"
 4526      D1F27660 
 4526      31CBDBAB 
 4526      99C0FA5E 
 4526      50CD
 4527 0471 27CF89E1 		.ascii	"'\317\211\341\201/5\366\326\350cO\236\035\3235;\325"
 4527      812F35F6 
 4527      D6E8634F 
 4527      9E1DD335 
 4527      3BD5
 4528 0483 8C4DDEA5 		.ascii	"\214M\336\245\317\270\036xD\307y\310\307\331\337u\370"
 4528      CFB81E78 
 4528      44C779C8 
 4528      C7D9DF75 
 4528      F8
 4529 0494 A1661BE7 		.ascii	"\241f\033\347_s\034\374\275@\277\034\321'3\337\315\007"
 4529      5F731CFC 
 4529      BD40BF1C 
 4529      D12733DF 
 4529      CD07
 4530 04a6 994DA2B0 		.ascii	"\231M\242\260\304m\322\331&\370\015\256d\361{\260\302"
 4530      C46DD2D9 
 4530      26F80DAE 
 4530      64F17BB0 
 4530      C2
ARM GAS  /tmp/ccK9FAxv.s 			page 104


 4531 04b7 A2B7B3CD 		.ascii	"\242\267\263\315F\357\213l\322bGG\353\236\325\317\262"
 4531      46EF8B6C 
 4531      D2624747 
 4531      EB9ED5CF 
 4531      B2
 4532 04c8 E8672543 		.ascii	"\350g%C\357-No\011\313wm\337\376\244\207\321\253\301"
 4532      EF2D4E6F 
 4532      09CB776D 
 4532      DFFEA487 
 4532      D1ABC1
 4533 04db 13E77347 		.ascii	"\023\347sG\211y\2250n\243M\026\267\241,n{\333r}\277"
 4533      89799530 
 4533      6EA34D16 
 4533      B7A12C6E 
 4533      7BDB727D 
 4534 04f0 C69D139F 		.ascii	"\306\235\023\237\212{#\355\360})Mfv\361\274.7$+w\265"
 4534      8A7B23ED 
 4534      F07D294D 
 4534      6676F1BC 
 4534      2E37242B 
 4535 0506 445D5ECA 		.ascii	"D]^\312\2363l*\340\017CC\261T\230j\023.\237h\313\275"
 4535      9E336C2A 
 4535      E00F4343 
 4535      B154986A 
 4535      132E9F68 
 4536 051c AFCBDCBA 		.ascii	"\257\313\334\272\274FtP+9\036\377\312i\276\334\347\275"
 4536      BC467450 
 4536      2B391EFF 
 4536      CA69BEDC 
 4536      E7BD
 4537 052e 729AA537 		.ascii	"r\232\2457\235\354U\2302:\324I\031\031\012Z,\031\"w"
 4537      9DEC5598 
 4537      323AD449 
 4537      19190A5A 
 4537      2C192277 
 4538 0542 EC322CDB 		.ascii	"\3542,\333e\340\255V\270\243\252^\262\356\271\006\263"
 4538      65E0AD56 
 4538      B8A3AA5E 
 4538      B2EEB906 
 4538      B3
 4539 0553 D1E763BC 		.ascii	"\321\347c\274Q\244\331\201\214W\220\333P\323\321\371"
 4539      51A4D981 
 4539      8C5790DB 
 4539      50D3D1F9 
 4540 0563 0570C671 		.ascii	"\005p\306q\014\270\223\371\235H\310\306\015\033*\255"
 4540      0CB893F9 
 4540      9D48C8C6 
 4540      0D1B2AAD 
 4541 0573 BF2D5B2B 		.ascii	"\277-[+?xgs\345\207[>\372xk\345\233o\275\276\361e\206"
 4541      3F786773 
 4541      E5875B3E 
 4541      FA786BE5 
 4541      9B6FBDBE 
 4542 058a AF6DDCB6 		.ascii	"\257m\334\266\015w\336\336\274\371\375\015\357\221\377"
 4542      0D77DEDE 
 4542      BCF9FD0D 
 4542      EF91FF
ARM GAS  /tmp/ccK9FAxv.s 			page 105


 4543 0599 0050E02D 		.ascii	"\000P\340-\177"
 4543      7F
 4544              		.text
 4545              		.section	.gnu.lto_.symbol_nodes.36af0a3bef1bcbf0,"e",%progbits
 4546 0000 789CE360 		.ascii	"x\234\343``d\330\304\000\004L\337\231\352\031\032\200"
 4546      6064D8C4 
 4546      00044CDF 
 4546      99EA191A 
 4546      80
 4547 0011 808571C2 		.ascii	"\200\205q\3029\006\206z\006\206\235\015\007\033\330"
 4547      3906867A 
 4547      06869D0D 
 4547      071BD8
 4548 0020 80D220C9 		.ascii	"\200\322 \311\037L\365\214(\222\273\032\034\241R?\231"
 4548      1F4CF58C 
 4548      2892BB1A 
 4548      1CA1523F 
 4548      99
 4549 0031 EA99DEFC 		.ascii	"\352\231\336\374Za\201!\303\372\215\211\241Q\011\310"
 4549      5A618121 
 4549      C3FA8D89 
 4549      A15109C8 
 4550 0041 60FCCD54 		.ascii	"`\374\315T\317\374\037\012\344\301\352\030\200V9\000"
 4550      CFFC1F0A 
 4550      E4C1EA18 
 4550      80563900 
 4551 0051 657E31D5 		.ascii	"e~1\325\263`\225af\204:\346\22003#+\204\331\"\306\314"
 4551      B3609561 
 4551      66843AE6 
 4551      90303323 
 4551      2B84D922 
 4552 0067 C802611E 		.ascii	"\310\002a\036\021c\000\000\326\3009\212"
 4552      11630000 
 4552      D6C0398A 
 4553              		.text
 4554              		.section	.gnu.lto_.refs.36af0a3bef1bcbf0,"e",%progbits
 4555 0000 789CE360 		.ascii	"x\234\343``\004B \000\000\000]\000\013"
 4555      60044220 
 4555      0000005D 
 4555      000B
 4556              		.text
