ARM GAS  /tmp/ccoHvmwk.s 			page 1


   1              		.cpu cortex-m4
   2              		.eabi_attribute 20, 1
   3              		.eabi_attribute 21, 1
   4              		.eabi_attribute 23, 3
   5              		.eabi_attribute 24, 1
   6              		.eabi_attribute 25, 1
   7              		.eabi_attribute 26, 1
   8              		.eabi_attribute 30, 2
   9              		.eabi_attribute 34, 1
  10              		.eabi_attribute 18, 4
  11              		.file	"stm32_dma.c"
  12              		.file 1 "/usr/lib/gcc/arm-none-eabi/9.2.1/include/stddef.h"
  13              		.file 2 "/usr/lib/gcc/arm-none-eabi/9.2.1/include/stdint.h"
  14              		.file 3 "../../../../os/common/ports/ARM-common/chtypes.h"
  15              		.file 4 "../../../../os/rt/include/chearly.h"
  16              		.file 5 "../../../../os/rt/include/chobjects.h"
  17              		.file 6 "../../../../os/rt/include/chrfcu.h"
  18              		.file 7 "../../../../os/rt/include/chdebug.h"
  19              		.file 8 "../../../../os/rt/include/chtime.h"
  20              		.file 9 "../../../../os/rt/include/chlists.h"
  21              		.file 10 "../../../../os/rt/include/chtrace.h"
  22              		.file 11 "../../../../os/common/ext/ARM/CMSIS/Core/Include/core_cm4.h"
  23              		.file 12 "../../../../os/common/ext/ST/STM32F3xx/system_stm32f3xx.h"
  24              		.file 13 "../../../../os/common/ext/ST/STM32F3xx/stm32f303xc.h"
  25              		.file 14 "../../../../os/common/ports/ARMv7-M/chcore.h"
  26              		.file 15 "../../../../os/rt/include/chtm.h"
  27              		.file 16 "../../../../os/rt/include/chsem.h"
  28              		.file 17 "../../../../os/rt/include/chmtx.h"
  29              		.file 18 "../../../../os/rt/include/chsys.h"
  30              		.file 19 "../../../../os/rt/include/chregistry.h"
  31              		.file 20 "../../../../os/oslib/include/chmemcore.h"
  32              		.file 21 "../../../../os/oslib/include/chmempools.h"
  33              		.file 22 "../../../../os/oslib/include/chfactory.h"
  34              		.file 23 "../../../../os/hal/ports/STM32/LLD/DMAv1/stm32_dma.h"
  35              		.file 24 "../../../../os/hal/include/hal_adc.h"
  36              		.file 25 "../../../../os/hal/ports/STM32/LLD/ADCv3/hal_adc_lld.h"
  37              		.file 26 "../../../../os/hal/ports/STM32/LLD/DMAv1/stm32_dma.c"
  38              		.file 27 "../../../../os/hal/osal/rt-nil/osal.h"
  39              		.file 28 "../../../../os/common/ext/ARM/CMSIS/Core/Include/cmsis_gcc.h"
  40              		.section	.gnu.debuglto_.debug_info,"e",%progbits
  41              	.Ldebug_info0:
  42              		.hidden	stm32_dma.c.8ab2d611
  43              		.weak	stm32_dma.c.8ab2d611
  44              	stm32_dma.c.8ab2d611:
  45 0000 21190000 		.4byte	0x1921
  46 0004 0400     		.2byte	0x4
  47 0006 00000000 		.4byte	.Ldebug_abbrev0
  48 000a 04       		.byte	0x4
  49 000b 01       		.uleb128 0x1
  50 000c BC0C0000 		.4byte	.LASF328
  51 0010 0C       		.byte	0xc
  52 0011 45000000 		.4byte	.LASF329
  53 0015 90020000 		.4byte	.LASF330
  54 0019 00000000 		.4byte	.Ldebug_line0
  55 001d 02       		.uleb128 0x2
  56 001e 04       		.byte	0x4
  57 001f 05       		.byte	0x5
ARM GAS  /tmp/ccoHvmwk.s 			page 2


  58 0020 696E7400 		.ascii	"int\000"
  59 0024 03       		.uleb128 0x3
  60 0025 18000000 		.4byte	.LASF5
  61 0029 01       		.byte	0x1
  62 002a D1       		.byte	0xd1
  63 002b 17       		.byte	0x17
  64 002c 30000000 		.4byte	0x30
  65 0030 04       		.uleb128 0x4
  66 0031 04       		.byte	0x4
  67 0032 07       		.byte	0x7
  68 0033 0E080000 		.4byte	.LASF0
  69 0037 04       		.uleb128 0x4
  70 0038 08       		.byte	0x8
  71 0039 05       		.byte	0x5
  72 003a 39070000 		.4byte	.LASF1
  73 003e 04       		.uleb128 0x4
  74 003f 08       		.byte	0x8
  75 0040 04       		.byte	0x4
  76 0041 D7080000 		.4byte	.LASF2
  77 0045 04       		.uleb128 0x4
  78 0046 01       		.byte	0x1
  79 0047 06       		.byte	0x6
  80 0048 FC020000 		.4byte	.LASF3
  81 004c 04       		.uleb128 0x4
  82 004d 02       		.byte	0x2
  83 004e 05       		.byte	0x5
  84 004f A20B0000 		.4byte	.LASF4
  85 0053 03       		.uleb128 0x3
  86 0054 DF000000 		.4byte	.LASF6
  87 0058 02       		.byte	0x2
  88 0059 28       		.byte	0x28
  89 005a 18       		.byte	0x18
  90 005b 64000000 		.4byte	0x64
  91 005f 05       		.uleb128 0x5
  92 0060 53000000 		.4byte	0x53
  93 0064 04       		.uleb128 0x4
  94 0065 04       		.byte	0x4
  95 0066 05       		.byte	0x5
  96 0067 1C020000 		.4byte	.LASF7
  97 006b 03       		.uleb128 0x3
  98 006c 0F030000 		.4byte	.LASF8
  99 0070 02       		.byte	0x2
 100 0071 2E       		.byte	0x2e
 101 0072 18       		.byte	0x18
 102 0073 7C000000 		.4byte	0x7c
 103 0077 06       		.uleb128 0x6
 104 0078 6B000000 		.4byte	0x6b
 105 007c 04       		.uleb128 0x4
 106 007d 01       		.byte	0x1
 107 007e 08       		.byte	0x8
 108 007f 47030000 		.4byte	.LASF9
 109 0083 03       		.uleb128 0x3
 110 0084 CF090000 		.4byte	.LASF10
 111 0088 02       		.byte	0x2
 112 0089 31       		.byte	0x31
 113 008a 19       		.byte	0x19
 114 008b 8F000000 		.4byte	0x8f
ARM GAS  /tmp/ccoHvmwk.s 			page 3


 115 008f 04       		.uleb128 0x4
 116 0090 02       		.byte	0x2
 117 0091 07       		.byte	0x7
 118 0092 C60D0000 		.4byte	.LASF11
 119 0096 03       		.uleb128 0x3
 120 0097 AD0D0000 		.4byte	.LASF12
 121 009b 02       		.byte	0x2
 122 009c 34       		.byte	0x34
 123 009d 19       		.byte	0x19
 124 009e A7000000 		.4byte	0xa7
 125 00a2 05       		.uleb128 0x5
 126 00a3 96000000 		.4byte	0x96
 127 00a7 04       		.uleb128 0x4
 128 00a8 04       		.byte	0x4
 129 00a9 07       		.byte	0x7
 130 00aa 87050000 		.4byte	.LASF13
 131 00ae 03       		.uleb128 0x3
 132 00af E10B0000 		.4byte	.LASF14
 133 00b3 02       		.byte	0x2
 134 00b4 37       		.byte	0x37
 135 00b5 19       		.byte	0x19
 136 00b6 BF000000 		.4byte	0xbf
 137 00ba 05       		.uleb128 0x5
 138 00bb AE000000 		.4byte	0xae
 139 00bf 04       		.uleb128 0x4
 140 00c0 08       		.byte	0x8
 141 00c1 07       		.byte	0x7
 142 00c2 9A090000 		.4byte	.LASF15
 143 00c6 03       		.uleb128 0x3
 144 00c7 01080000 		.4byte	.LASF16
 145 00cb 03       		.byte	0x3
 146 00cc 36       		.byte	0x36
 147 00cd 1D       		.byte	0x1d
 148 00ce 96000000 		.4byte	0x96
 149 00d2 03       		.uleb128 0x3
 150 00d3 1B0A0000 		.4byte	.LASF17
 151 00d7 03       		.byte	0x3
 152 00d8 48       		.byte	0x48
 153 00d9 1D       		.byte	0x1d
 154 00da AE000000 		.4byte	0xae
 155 00de 03       		.uleb128 0x3
 156 00df 28080000 		.4byte	.LASF18
 157 00e3 04       		.byte	0x4
 158 00e4 4D       		.byte	0x4d
 159 00e5 19       		.byte	0x19
 160 00e6 C6000000 		.4byte	0xc6
 161 00ea 03       		.uleb128 0x3
 162 00eb 7C040000 		.4byte	.LASF19
 163 00ef 04       		.byte	0x4
 164 00f0 50       		.byte	0x50
 165 00f1 19       		.byte	0x19
 166 00f2 D2000000 		.4byte	0xd2
 167 00f6 03       		.uleb128 0x3
 168 00f7 EE0A0000 		.4byte	.LASF20
 169 00fb 04       		.byte	0x4
 170 00fc 53       		.byte	0x53
 171 00fd 19       		.byte	0x19
ARM GAS  /tmp/ccoHvmwk.s 			page 4


 172 00fe 6B000000 		.4byte	0x6b
 173 0102 03       		.uleb128 0x3
 174 0103 3E020000 		.4byte	.LASF21
 175 0107 04       		.byte	0x4
 176 0108 54       		.byte	0x54
 177 0109 19       		.byte	0x19
 178 010a 6B000000 		.4byte	0x6b
 179 010e 03       		.uleb128 0x3
 180 010f 910C0000 		.4byte	.LASF22
 181 0113 04       		.byte	0x4
 182 0114 55       		.byte	0x55
 183 0115 19       		.byte	0x19
 184 0116 6B000000 		.4byte	0x6b
 185 011a 03       		.uleb128 0x3
 186 011b 9E000000 		.4byte	.LASF23
 187 011f 04       		.byte	0x4
 188 0120 57       		.byte	0x57
 189 0121 19       		.byte	0x19
 190 0122 96000000 		.4byte	0x96
 191 0126 03       		.uleb128 0x3
 192 0127 F1090000 		.4byte	.LASF24
 193 012b 04       		.byte	0x4
 194 012c 58       		.byte	0x58
 195 012d 19       		.byte	0x19
 196 012e 53000000 		.4byte	0x53
 197 0132 03       		.uleb128 0x3
 198 0133 21030000 		.4byte	.LASF25
 199 0137 04       		.byte	0x4
 200 0138 5A       		.byte	0x5a
 201 0139 19       		.byte	0x19
 202 013a 96000000 		.4byte	0x96
 203 013e 03       		.uleb128 0x3
 204 013f E2040000 		.4byte	.LASF26
 205 0143 04       		.byte	0x4
 206 0144 5C       		.byte	0x5c
 207 0145 19       		.byte	0x19
 208 0146 53000000 		.4byte	0x53
 209 014a 03       		.uleb128 0x3
 210 014b 78060000 		.4byte	.LASF27
 211 014f 04       		.byte	0x4
 212 0150 5D       		.byte	0x5d
 213 0151 19       		.byte	0x19
 214 0152 96000000 		.4byte	0x96
 215 0156 03       		.uleb128 0x3
 216 0157 17030000 		.4byte	.LASF28
 217 015b 04       		.byte	0x4
 218 015c 80       		.byte	0x80
 219 015d 12       		.byte	0x12
 220 015e 30000000 		.4byte	0x30
 221 0162 03       		.uleb128 0x3
 222 0163 BF080000 		.4byte	.LASF29
 223 0167 04       		.byte	0x4
 224 0168 85       		.byte	0x85
 225 0169 1A       		.byte	0x1a
 226 016a 6E010000 		.4byte	0x16e
 227 016e 07       		.uleb128 0x7
 228 016f F6050000 		.4byte	.LASF44
ARM GAS  /tmp/ccoHvmwk.s 			page 5


 229 0173 48       		.byte	0x48
 230 0174 05       		.byte	0x5
 231 0175 9C       		.byte	0x9c
 232 0176 08       		.byte	0x8
 233 0177 51020000 		.4byte	0x251
 234 017b 08       		.uleb128 0x8
 235 017c 68647200 		.ascii	"hdr\000"
 236 0180 05       		.byte	0x5
 237 0181 AD       		.byte	0xad
 238 0182 05       		.byte	0x5
 239 0183 A50B0000 		.4byte	0xba5
 240 0187 00       		.byte	0
 241 0188 08       		.uleb128 0x8
 242 0189 63747800 		.ascii	"ctx\000"
 243 018d 05       		.byte	0x5
 244 018e B1       		.byte	0xb1
 245 018f 21       		.byte	0x21
 246 0190 B90A0000 		.4byte	0xab9
 247 0194 0C       		.byte	0xc
 248 0195 09       		.uleb128 0x9
 249 0196 D2040000 		.4byte	.LASF30
 250 019a 05       		.byte	0x5
 251 019b B6       		.byte	0xb6
 252 019c 21       		.byte	0x21
 253 019d BB030000 		.4byte	0x3bb
 254 01a1 10       		.byte	0x10
 255 01a2 09       		.uleb128 0x9
 256 01a3 98000000 		.4byte	.LASF31
 257 01a7 05       		.byte	0x5
 258 01a8 BB       		.byte	0xbb
 259 01a9 22       		.byte	0x22
 260 01aa B20C0000 		.4byte	0xcb2
 261 01ae 18       		.byte	0x18
 262 01af 09       		.uleb128 0x9
 263 01b0 5B0B0000 		.4byte	.LASF32
 264 01b4 05       		.byte	0x5
 265 01b5 C0       		.byte	0xc0
 266 01b6 22       		.byte	0x22
 267 01b7 53030000 		.4byte	0x353
 268 01bb 1C       		.byte	0x1c
 269 01bc 09       		.uleb128 0x9
 270 01bd B50A0000 		.4byte	.LASF33
 271 01c1 05       		.byte	0x5
 272 01c2 C9       		.byte	0xc9
 273 01c3 22       		.byte	0x22
 274 01c4 B80C0000 		.4byte	0xcb8
 275 01c8 20       		.byte	0x20
 276 01c9 09       		.uleb128 0x9
 277 01ca 75010000 		.4byte	.LASF34
 278 01ce 05       		.byte	0x5
 279 01cf CE       		.byte	0xce
 280 01d0 21       		.byte	0x21
 281 01d1 02010000 		.4byte	0x102
 282 01d5 24       		.byte	0x24
 283 01d6 09       		.uleb128 0x9
 284 01d7 76040000 		.4byte	.LASF35
 285 01db 05       		.byte	0x5
ARM GAS  /tmp/ccoHvmwk.s 			page 6


 286 01dc D2       		.byte	0xd2
 287 01dd 21       		.byte	0x21
 288 01de F6000000 		.4byte	0xf6
 289 01e2 25       		.byte	0x25
 290 01e3 09       		.uleb128 0x9
 291 01e4 3F0A0000 		.4byte	.LASF36
 292 01e8 05       		.byte	0x5
 293 01e9 D7       		.byte	0xd7
 294 01ea 21       		.byte	0x21
 295 01eb 0E010000 		.4byte	0x10e
 296 01ef 26       		.byte	0x26
 297 01f0 0A       		.uleb128 0xa
 298 01f1 7500     		.ascii	"u\000"
 299 01f3 05       		.byte	0x5
 300 01f4 2801     		.2byte	0x128
 301 01f6 21       		.byte	0x21
 302 01f7 D30B0000 		.4byte	0xbd3
 303 01fb 28       		.byte	0x28
 304 01fc 0B       		.uleb128 0xb
 305 01fd 6A0C0000 		.4byte	.LASF37
 306 0201 05       		.byte	0x5
 307 0202 2D01     		.2byte	0x12d
 308 0204 21       		.byte	0x21
 309 0205 8E030000 		.4byte	0x38e
 310 0209 2C       		.byte	0x2c
 311 020a 0B       		.uleb128 0xb
 312 020b 060C0000 		.4byte	.LASF38
 313 020f 05       		.byte	0x5
 314 0210 3301     		.2byte	0x133
 315 0212 21       		.byte	0x21
 316 0213 BB030000 		.4byte	0x3bb
 317 0217 30       		.byte	0x30
 318 0218 0B       		.uleb128 0xb
 319 0219 47020000 		.4byte	.LASF39
 320 021d 05       		.byte	0x5
 321 021e 3901     		.2byte	0x139
 322 0220 21       		.byte	0x21
 323 0221 32010000 		.4byte	0x132
 324 0225 38       		.byte	0x38
 325 0226 0B       		.uleb128 0xb
 326 0227 24070000 		.4byte	.LASF40
 327 022b 05       		.byte	0x5
 328 022c 4001     		.2byte	0x140
 329 022e 22       		.byte	0x22
 330 022f AC0C0000 		.4byte	0xcac
 331 0233 3C       		.byte	0x3c
 332 0234 0B       		.uleb128 0xb
 333 0235 66060000 		.4byte	.LASF41
 334 0239 05       		.byte	0x5
 335 023a 4401     		.2byte	0x144
 336 023c 21       		.byte	0x21
 337 023d 1A010000 		.4byte	0x11a
 338 0241 40       		.byte	0x40
 339 0242 0B       		.uleb128 0xb
 340 0243 98040000 		.4byte	.LASF42
 341 0247 05       		.byte	0x5
 342 0248 4B01     		.2byte	0x14b
ARM GAS  /tmp/ccoHvmwk.s 			page 7


 343 024a 22       		.byte	0x22
 344 024b AD040000 		.4byte	0x4ad
 345 024f 44       		.byte	0x44
 346 0250 00       		.byte	0
 347 0251 03       		.uleb128 0x3
 348 0252 30080000 		.4byte	.LASF43
 349 0256 04       		.byte	0x4
 350 0257 8A       		.byte	0x8a
 351 0258 1F       		.byte	0x1f
 352 0259 5D020000 		.4byte	0x25d
 353 025d 0C       		.uleb128 0xc
 354 025e 3A050000 		.4byte	.LASF45
 355 0262 9808     		.2byte	0x898
 356 0264 05       		.byte	0x5
 357 0265 8A01     		.2byte	0x18a
 358 0267 08       		.byte	0x8
 359 0268 EB020000 		.4byte	0x2eb
 360 026c 0B       		.uleb128 0xb
 361 026d E80A0000 		.4byte	.LASF46
 362 0271 05       		.byte	0x5
 363 0272 8E01     		.2byte	0x18e
 364 0274 21       		.byte	0x21
 365 0275 E90C0000 		.4byte	0xce9
 366 0279 00       		.byte	0
 367 027a 0B       		.uleb128 0xb
 368 027b 630C0000 		.4byte	.LASF47
 369 027f 05       		.byte	0x5
 370 0280 9201     		.2byte	0x192
 371 0282 21       		.byte	0x21
 372 0283 660B0000 		.4byte	0xb66
 373 0287 10       		.byte	0x10
 374 0288 0B       		.uleb128 0xb
 375 0289 2A0C0000 		.4byte	.LASF48
 376 028d 05       		.byte	0x5
 377 028e 9901     		.2byte	0x199
 378 0290 21       		.byte	0x21
 379 0291 8D0B0000 		.4byte	0xb8d
 380 0295 28       		.byte	0x28
 381 0296 0B       		.uleb128 0xb
 382 0297 87040000 		.4byte	.LASF49
 383 029b 05       		.byte	0x5
 384 029c 9E01     		.2byte	0x19e
 385 029e 21       		.byte	0x21
 386 029f 56010000 		.4byte	0x156
 387 02a3 30       		.byte	0x30
 388 02a4 0B       		.uleb128 0xb
 389 02a5 010C0000 		.4byte	.LASF50
 390 02a9 05       		.byte	0x5
 391 02aa A401     		.2byte	0x1a4
 392 02ac 21       		.byte	0x21
 393 02ad 12030000 		.4byte	0x312
 394 02b1 34       		.byte	0x34
 395 02b2 0B       		.uleb128 0xb
 396 02b3 6E010000 		.4byte	.LASF51
 397 02b7 05       		.byte	0x5
 398 02b8 A901     		.2byte	0x1a9
 399 02ba 22       		.byte	0x22
ARM GAS  /tmp/ccoHvmwk.s 			page 8


 400 02bb 5D0D0000 		.4byte	0xd5d
 401 02bf 38       		.byte	0x38
 402 02c0 0B       		.uleb128 0xb
 403 02c1 6C0A0000 		.4byte	.LASF52
 404 02c5 05       		.byte	0x5
 405 02c6 AD01     		.2byte	0x1ad
 406 02c8 21       		.byte	0x21
 407 02c9 62010000 		.4byte	0x162
 408 02cd 3C       		.byte	0x3c
 409 02ce 0A       		.uleb128 0xa
 410 02cf 64626700 		.ascii	"dbg\000"
 411 02d3 05       		.byte	0x5
 412 02d4 B101     		.2byte	0x1b1
 413 02d6 21       		.byte	0x21
 414 02d7 6A030000 		.4byte	0x36a
 415 02db 84       		.byte	0x84
 416 02dc 0B       		.uleb128 0xb
 417 02dd CA030000 		.4byte	.LASF53
 418 02e1 05       		.byte	0x5
 419 02e2 B601     		.2byte	0x1b6
 420 02e4 21       		.byte	0x21
 421 02e5 1C060000 		.4byte	0x61c
 422 02e9 90       		.byte	0x90
 423 02ea 00       		.byte	0
 424 02eb 03       		.uleb128 0x3
 425 02ec B9050000 		.4byte	.LASF54
 426 02f0 06       		.byte	0x6
 427 02f1 3F       		.byte	0x3f
 428 02f2 12       		.byte	0x12
 429 02f3 96000000 		.4byte	0x96
 430 02f7 07       		.uleb128 0x7
 431 02f8 84010000 		.4byte	.LASF55
 432 02fc 04       		.byte	0x4
 433 02fd 06       		.byte	0x6
 434 02fe 44       		.byte	0x44
 435 02ff 10       		.byte	0x10
 436 0300 12030000 		.4byte	0x312
 437 0304 09       		.uleb128 0x9
 438 0305 A2070000 		.4byte	.LASF56
 439 0309 06       		.byte	0x6
 440 030a 48       		.byte	0x48
 441 030b 21       		.byte	0x21
 442 030c EB020000 		.4byte	0x2eb
 443 0310 00       		.byte	0
 444 0311 00       		.byte	0
 445 0312 03       		.uleb128 0x3
 446 0313 B3060000 		.4byte	.LASF57
 447 0317 06       		.byte	0x6
 448 0318 49       		.byte	0x49
 449 0319 03       		.byte	0x3
 450 031a F7020000 		.4byte	0x2f7
 451 031e 07       		.uleb128 0x7
 452 031f 0F0C0000 		.4byte	.LASF58
 453 0323 0C       		.byte	0xc
 454 0324 07       		.byte	0x7
 455 0325 3E       		.byte	0x3e
 456 0326 10       		.byte	0x10
ARM GAS  /tmp/ccoHvmwk.s 			page 9


 457 0327 53030000 		.4byte	0x353
 458 032b 09       		.uleb128 0x9
 459 032c A7030000 		.4byte	.LASF59
 460 0330 07       		.byte	0x7
 461 0331 46       		.byte	0x46
 462 0332 24       		.byte	0x24
 463 0333 59030000 		.4byte	0x359
 464 0337 00       		.byte	0
 465 0338 09       		.uleb128 0x9
 466 0339 48090000 		.4byte	.LASF60
 467 033d 07       		.byte	0x7
 468 033e 4B       		.byte	0x4b
 469 033f 19       		.byte	0x19
 470 0340 3E010000 		.4byte	0x13e
 471 0344 04       		.byte	0x4
 472 0345 09       		.uleb128 0x9
 473 0346 7B010000 		.4byte	.LASF61
 474 034a 07       		.byte	0x7
 475 034b 4F       		.byte	0x4f
 476 034c 19       		.byte	0x19
 477 034d 3E010000 		.4byte	0x13e
 478 0351 08       		.byte	0x8
 479 0352 00       		.byte	0
 480 0353 0D       		.uleb128 0xd
 481 0354 04       		.byte	0x4
 482 0355 65030000 		.4byte	0x365
 483 0359 05       		.uleb128 0x5
 484 035a 53030000 		.4byte	0x353
 485 035e 04       		.uleb128 0x4
 486 035f 01       		.byte	0x1
 487 0360 08       		.byte	0x8
 488 0361 28040000 		.4byte	.LASF62
 489 0365 06       		.uleb128 0x6
 490 0366 5E030000 		.4byte	0x35e
 491 036a 03       		.uleb128 0x3
 492 036b E2030000 		.4byte	.LASF63
 493 036f 07       		.byte	0x7
 494 0370 51       		.byte	0x51
 495 0371 03       		.byte	0x3
 496 0372 1E030000 		.4byte	0x31e
 497 0376 03       		.uleb128 0x3
 498 0377 2F000000 		.4byte	.LASF64
 499 037b 08       		.byte	0x8
 500 037c 6D       		.byte	0x6d
 501 037d 12       		.byte	0x12
 502 037e 96000000 		.4byte	0x96
 503 0382 03       		.uleb128 0x3
 504 0383 47070000 		.4byte	.LASF65
 505 0387 08       		.byte	0x8
 506 0388 79       		.byte	0x79
 507 0389 12       		.byte	0x12
 508 038a 96000000 		.4byte	0x96
 509 038e 03       		.uleb128 0x3
 510 038f 50020000 		.4byte	.LASF66
 511 0393 09       		.byte	0x9
 512 0394 32       		.byte	0x32
 513 0395 18       		.byte	0x18
ARM GAS  /tmp/ccoHvmwk.s 			page 10


 514 0396 9A030000 		.4byte	0x39a
 515 039a 07       		.uleb128 0x7
 516 039b 75020000 		.4byte	.LASF67
 517 039f 04       		.byte	0x4
 518 03a0 09       		.byte	0x9
 519 03a1 38       		.byte	0x38
 520 03a2 08       		.byte	0x8
 521 03a3 B5030000 		.4byte	0x3b5
 522 03a7 09       		.uleb128 0x9
 523 03a8 590E0000 		.4byte	.LASF68
 524 03ac 09       		.byte	0x9
 525 03ad 39       		.byte	0x39
 526 03ae 1A       		.byte	0x1a
 527 03af B5030000 		.4byte	0x3b5
 528 03b3 00       		.byte	0
 529 03b4 00       		.byte	0
 530 03b5 0D       		.uleb128 0xd
 531 03b6 04       		.byte	0x4
 532 03b7 8E030000 		.4byte	0x38e
 533 03bb 03       		.uleb128 0x3
 534 03bc 99050000 		.4byte	.LASF69
 535 03c0 09       		.byte	0x9
 536 03c1 3F       		.byte	0x3f
 537 03c2 19       		.byte	0x19
 538 03c3 C7030000 		.4byte	0x3c7
 539 03c7 07       		.uleb128 0x7
 540 03c8 390C0000 		.4byte	.LASF70
 541 03cc 08       		.byte	0x8
 542 03cd 09       		.byte	0x9
 543 03ce 45       		.byte	0x45
 544 03cf 08       		.byte	0x8
 545 03d0 EF030000 		.4byte	0x3ef
 546 03d4 09       		.uleb128 0x9
 547 03d5 590E0000 		.4byte	.LASF68
 548 03d9 09       		.byte	0x9
 549 03da 46       		.byte	0x46
 550 03db 1A       		.byte	0x1a
 551 03dc EF030000 		.4byte	0x3ef
 552 03e0 00       		.byte	0
 553 03e1 09       		.uleb128 0x9
 554 03e2 640E0000 		.4byte	.LASF71
 555 03e6 09       		.byte	0x9
 556 03e7 47       		.byte	0x47
 557 03e8 1A       		.byte	0x1a
 558 03e9 EF030000 		.4byte	0x3ef
 559 03ed 04       		.byte	0x4
 560 03ee 00       		.byte	0
 561 03ef 0D       		.uleb128 0xd
 562 03f0 04       		.byte	0x4
 563 03f1 BB030000 		.4byte	0x3bb
 564 03f5 03       		.uleb128 0x3
 565 03f6 68070000 		.4byte	.LASF72
 566 03fa 09       		.byte	0x9
 567 03fb 4E       		.byte	0x4e
 568 03fc 22       		.byte	0x22
 569 03fd 01040000 		.4byte	0x401
 570 0401 07       		.uleb128 0x7
ARM GAS  /tmp/ccoHvmwk.s 			page 11


 571 0402 CF0B0000 		.4byte	.LASF73
 572 0406 0C       		.byte	0xc
 573 0407 09       		.byte	0x9
 574 0408 55       		.byte	0x55
 575 0409 08       		.byte	0x8
 576 040a 36040000 		.4byte	0x436
 577 040e 09       		.uleb128 0x9
 578 040f 590E0000 		.4byte	.LASF68
 579 0413 09       		.byte	0x9
 580 0414 56       		.byte	0x56
 581 0415 1A       		.byte	0x1a
 582 0416 36040000 		.4byte	0x436
 583 041a 00       		.byte	0
 584 041b 09       		.uleb128 0x9
 585 041c 640E0000 		.4byte	.LASF71
 586 0420 09       		.byte	0x9
 587 0421 57       		.byte	0x57
 588 0422 1A       		.byte	0x1a
 589 0423 36040000 		.4byte	0x436
 590 0427 04       		.byte	0x4
 591 0428 09       		.uleb128 0x9
 592 0429 DE010000 		.4byte	.LASF74
 593 042d 09       		.byte	0x9
 594 042e 58       		.byte	0x58
 595 042f 19       		.byte	0x19
 596 0430 1A010000 		.4byte	0x11a
 597 0434 08       		.byte	0x8
 598 0435 00       		.byte	0
 599 0436 0D       		.uleb128 0xd
 600 0437 04       		.byte	0x4
 601 0438 F5030000 		.4byte	0x3f5
 602 043c 03       		.uleb128 0x3
 603 043d 08000000 		.4byte	.LASF75
 604 0441 09       		.byte	0x9
 605 0442 5F       		.byte	0x5f
 606 0443 1E       		.byte	0x1e
 607 0444 48040000 		.4byte	0x448
 608 0448 07       		.uleb128 0x7
 609 0449 91080000 		.4byte	.LASF76
 610 044d 0C       		.byte	0xc
 611 044e 09       		.byte	0x9
 612 044f 64       		.byte	0x64
 613 0450 08       		.byte	0x8
 614 0451 7D040000 		.4byte	0x47d
 615 0455 09       		.uleb128 0x9
 616 0456 590E0000 		.4byte	.LASF68
 617 045a 09       		.byte	0x9
 618 045b 65       		.byte	0x65
 619 045c 1A       		.byte	0x1a
 620 045d 7D040000 		.4byte	0x47d
 621 0461 00       		.byte	0
 622 0462 09       		.uleb128 0x9
 623 0463 640E0000 		.4byte	.LASF71
 624 0467 09       		.byte	0x9
 625 0468 66       		.byte	0x66
 626 0469 1A       		.byte	0x1a
 627 046a 7D040000 		.4byte	0x47d
ARM GAS  /tmp/ccoHvmwk.s 			page 12


 628 046e 04       		.byte	0x4
 629 046f 09       		.uleb128 0x9
 630 0470 150A0000 		.4byte	.LASF77
 631 0474 09       		.byte	0x9
 632 0475 67       		.byte	0x67
 633 0476 19       		.byte	0x19
 634 0477 82030000 		.4byte	0x382
 635 047b 08       		.byte	0x8
 636 047c 00       		.byte	0
 637 047d 0D       		.uleb128 0xd
 638 047e 04       		.byte	0x4
 639 047f 3C040000 		.4byte	0x43c
 640 0483 0E       		.uleb128 0xe
 641 0484 08       		.byte	0x8
 642 0485 0A       		.byte	0xa
 643 0486 83       		.byte	0x83
 644 0487 05       		.byte	0x5
 645 0488 A7040000 		.4byte	0x4a7
 646 048c 08       		.uleb128 0x8
 647 048d 6E747000 		.ascii	"ntp\000"
 648 0491 0A       		.byte	0xa
 649 0492 87       		.byte	0x87
 650 0493 1E       		.byte	0x1e
 651 0494 A7040000 		.4byte	0x4a7
 652 0498 00       		.byte	0
 653 0499 09       		.uleb128 0x9
 654 049a 57040000 		.4byte	.LASF78
 655 049e 0A       		.byte	0xa
 656 049f 8B       		.byte	0x8b
 657 04a0 1E       		.byte	0x1e
 658 04a1 AD040000 		.4byte	0x4ad
 659 04a5 04       		.byte	0x4
 660 04a6 00       		.byte	0
 661 04a7 0D       		.uleb128 0xd
 662 04a8 04       		.byte	0x4
 663 04a9 62010000 		.4byte	0x162
 664 04ad 0F       		.uleb128 0xf
 665 04ae 04       		.byte	0x4
 666 04af 0E       		.uleb128 0xe
 667 04b0 08       		.byte	0x8
 668 04b1 0A       		.byte	0xa
 669 04b2 90       		.byte	0x90
 670 04b3 05       		.byte	0x5
 671 04b4 D2040000 		.4byte	0x4d2
 672 04b8 08       		.uleb128 0x8
 673 04b9 747000   		.ascii	"tp\000"
 674 04bc 0A       		.byte	0xa
 675 04bd 94       		.byte	0x94
 676 04be 1E       		.byte	0x1e
 677 04bf A7040000 		.4byte	0x4a7
 678 04c3 00       		.byte	0
 679 04c4 08       		.uleb128 0x8
 680 04c5 6D736700 		.ascii	"msg\000"
 681 04c9 0A       		.byte	0xa
 682 04ca 98       		.byte	0x98
 683 04cb 1D       		.byte	0x1d
 684 04cc 26010000 		.4byte	0x126
ARM GAS  /tmp/ccoHvmwk.s 			page 13


 685 04d0 04       		.byte	0x4
 686 04d1 00       		.byte	0
 687 04d2 0E       		.uleb128 0xe
 688 04d3 04       		.byte	0x4
 689 04d4 0A       		.byte	0xa
 690 04d5 9D       		.byte	0x9d
 691 04d6 05       		.byte	0x5
 692 04d7 E9040000 		.4byte	0x4e9
 693 04db 09       		.uleb128 0x9
 694 04dc 5B0B0000 		.4byte	.LASF32
 695 04e0 0A       		.byte	0xa
 696 04e1 A1       		.byte	0xa1
 697 04e2 1E       		.byte	0x1e
 698 04e3 53030000 		.4byte	0x353
 699 04e7 00       		.byte	0
 700 04e8 00       		.byte	0
 701 04e9 0E       		.uleb128 0xe
 702 04ea 04       		.byte	0x4
 703 04eb 0A       		.byte	0xa
 704 04ec A6       		.byte	0xa6
 705 04ed 05       		.byte	0x5
 706 04ee 00050000 		.4byte	0x500
 707 04f2 09       		.uleb128 0x9
 708 04f3 4A0A0000 		.4byte	.LASF79
 709 04f7 0A       		.byte	0xa
 710 04f8 AA       		.byte	0xaa
 711 04f9 1E       		.byte	0x1e
 712 04fa 53030000 		.4byte	0x353
 713 04fe 00       		.byte	0
 714 04ff 00       		.byte	0
 715 0500 0E       		.uleb128 0xe
 716 0501 08       		.byte	0x8
 717 0502 0A       		.byte	0xa
 718 0503 AF       		.byte	0xaf
 719 0504 05       		.byte	0x5
 720 0505 24050000 		.4byte	0x524
 721 0509 08       		.uleb128 0x8
 722 050a 75703100 		.ascii	"up1\000"
 723 050e 0A       		.byte	0xa
 724 050f B3       		.byte	0xb3
 725 0510 1E       		.byte	0x1e
 726 0511 AD040000 		.4byte	0x4ad
 727 0515 00       		.byte	0
 728 0516 08       		.uleb128 0x8
 729 0517 75703200 		.ascii	"up2\000"
 730 051b 0A       		.byte	0xa
 731 051c B7       		.byte	0xb7
 732 051d 1E       		.byte	0x1e
 733 051e AD040000 		.4byte	0x4ad
 734 0522 04       		.byte	0x4
 735 0523 00       		.byte	0
 736 0524 10       		.uleb128 0x10
 737 0525 08       		.byte	0x8
 738 0526 0A       		.byte	0xa
 739 0527 7F       		.byte	0x7f
 740 0528 03       		.byte	0x3
 741 0529 69050000 		.4byte	0x569
ARM GAS  /tmp/ccoHvmwk.s 			page 14


 742 052d 11       		.uleb128 0x11
 743 052e 737700   		.ascii	"sw\000"
 744 0531 0A       		.byte	0xa
 745 0532 8C       		.byte	0x8c
 746 0533 07       		.byte	0x7
 747 0534 83040000 		.4byte	0x483
 748 0538 11       		.uleb128 0x11
 749 0539 72647900 		.ascii	"rdy\000"
 750 053d 0A       		.byte	0xa
 751 053e 99       		.byte	0x99
 752 053f 07       		.byte	0x7
 753 0540 AF040000 		.4byte	0x4af
 754 0544 11       		.uleb128 0x11
 755 0545 69737200 		.ascii	"isr\000"
 756 0549 0A       		.byte	0xa
 757 054a A2       		.byte	0xa2
 758 054b 07       		.byte	0x7
 759 054c D2040000 		.4byte	0x4d2
 760 0550 12       		.uleb128 0x12
 761 0551 890A0000 		.4byte	.LASF80
 762 0555 0A       		.byte	0xa
 763 0556 AB       		.byte	0xab
 764 0557 07       		.byte	0x7
 765 0558 E9040000 		.4byte	0x4e9
 766 055c 12       		.uleb128 0x12
 767 055d DA000000 		.4byte	.LASF81
 768 0561 0A       		.byte	0xa
 769 0562 B8       		.byte	0xb8
 770 0563 07       		.byte	0x7
 771 0564 00050000 		.4byte	0x500
 772 0568 00       		.byte	0
 773 0569 0E       		.uleb128 0xe
 774 056a 10       		.byte	0x10
 775 056b 0A       		.byte	0xa
 776 056c 6C       		.byte	0x6c
 777 056d 09       		.byte	0x9
 778 056e BB050000 		.4byte	0x5bb
 779 0572 13       		.uleb128 0x13
 780 0573 92010000 		.4byte	.LASF82
 781 0577 0A       		.byte	0xa
 782 0578 70       		.byte	0x70
 783 0579 19       		.byte	0x19
 784 057a 96000000 		.4byte	0x96
 785 057e 04       		.byte	0x4
 786 057f 03       		.byte	0x3
 787 0580 1D       		.byte	0x1d
 788 0581 00       		.byte	0
 789 0582 13       		.uleb128 0x13
 790 0583 75010000 		.4byte	.LASF34
 791 0587 0A       		.byte	0xa
 792 0588 74       		.byte	0x74
 793 0589 19       		.byte	0x19
 794 058a 96000000 		.4byte	0x96
 795 058e 04       		.byte	0x4
 796 058f 05       		.byte	0x5
 797 0590 18       		.byte	0x18
 798 0591 00       		.byte	0
ARM GAS  /tmp/ccoHvmwk.s 			page 15


 799 0592 13       		.uleb128 0x13
 800 0593 55010000 		.4byte	.LASF83
 801 0597 0A       		.byte	0xa
 802 0598 7A       		.byte	0x7a
 803 0599 19       		.byte	0x19
 804 059a 96000000 		.4byte	0x96
 805 059e 04       		.byte	0x4
 806 059f 18       		.byte	0x18
 807 05a0 00       		.byte	0
 808 05a1 00       		.byte	0
 809 05a2 09       		.uleb128 0x9
 810 05a3 D50A0000 		.4byte	.LASF84
 811 05a7 0A       		.byte	0xa
 812 05a8 7E       		.byte	0x7e
 813 05a9 19       		.byte	0x19
 814 05aa 76030000 		.4byte	0x376
 815 05ae 04       		.byte	0x4
 816 05af 08       		.uleb128 0x8
 817 05b0 7500     		.ascii	"u\000"
 818 05b2 0A       		.byte	0xa
 819 05b3 B9       		.byte	0xb9
 820 05b4 05       		.byte	0x5
 821 05b5 24050000 		.4byte	0x524
 822 05b9 08       		.byte	0x8
 823 05ba 00       		.byte	0
 824 05bb 03       		.uleb128 0x3
 825 05bc F6080000 		.4byte	.LASF85
 826 05c0 0A       		.byte	0xa
 827 05c1 BA       		.byte	0xba
 828 05c2 03       		.byte	0x3
 829 05c3 69050000 		.4byte	0x569
 830 05c7 14       		.uleb128 0x14
 831 05c8 0808     		.2byte	0x808
 832 05ca 0A       		.byte	0xa
 833 05cb C0       		.byte	0xc0
 834 05cc 09       		.byte	0x9
 835 05cd 06060000 		.4byte	0x606
 836 05d1 09       		.uleb128 0x9
 837 05d2 200B0000 		.4byte	.LASF86
 838 05d6 0A       		.byte	0xa
 839 05d7 C4       		.byte	0xc4
 840 05d8 19       		.byte	0x19
 841 05d9 83000000 		.4byte	0x83
 842 05dd 00       		.byte	0
 843 05de 09       		.uleb128 0x9
 844 05df 95090000 		.4byte	.LASF87
 845 05e3 0A       		.byte	0xa
 846 05e4 C8       		.byte	0xc8
 847 05e5 19       		.byte	0x19
 848 05e6 83000000 		.4byte	0x83
 849 05ea 02       		.byte	0x2
 850 05eb 08       		.uleb128 0x8
 851 05ec 70747200 		.ascii	"ptr\000"
 852 05f0 0A       		.byte	0xa
 853 05f1 CC       		.byte	0xcc
 854 05f2 1A       		.byte	0x1a
 855 05f3 06060000 		.4byte	0x606
ARM GAS  /tmp/ccoHvmwk.s 			page 16


 856 05f7 04       		.byte	0x4
 857 05f8 09       		.uleb128 0x9
 858 05f9 10050000 		.4byte	.LASF88
 859 05fd 0A       		.byte	0xa
 860 05fe D0       		.byte	0xd0
 861 05ff 19       		.byte	0x19
 862 0600 0C060000 		.4byte	0x60c
 863 0604 08       		.byte	0x8
 864 0605 00       		.byte	0
 865 0606 0D       		.uleb128 0xd
 866 0607 04       		.byte	0x4
 867 0608 BB050000 		.4byte	0x5bb
 868 060c 15       		.uleb128 0x15
 869 060d BB050000 		.4byte	0x5bb
 870 0611 1C060000 		.4byte	0x61c
 871 0615 16       		.uleb128 0x16
 872 0616 30000000 		.4byte	0x30
 873 061a 7F       		.byte	0x7f
 874 061b 00       		.byte	0
 875 061c 03       		.uleb128 0x3
 876 061d 0C070000 		.4byte	.LASF89
 877 0621 0A       		.byte	0xa
 878 0622 D1       		.byte	0xd1
 879 0623 03       		.byte	0x3
 880 0624 C7050000 		.4byte	0x5c7
 881 0628 15       		.uleb128 0x15
 882 0629 96000000 		.4byte	0x96
 883 062d 38060000 		.4byte	0x638
 884 0631 16       		.uleb128 0x16
 885 0632 30000000 		.4byte	0x30
 886 0636 01       		.byte	0x1
 887 0637 00       		.byte	0
 888 0638 17       		.uleb128 0x17
 889 0639 B3070000 		.4byte	.LASF90
 890 063d 0B       		.byte	0xb
 891 063e 0408     		.2byte	0x804
 892 0640 19       		.byte	0x19
 893 0641 5F000000 		.4byte	0x5f
 894 0645 18       		.uleb128 0x18
 895 0646 CB050000 		.4byte	.LASF91
 896 064a 0C       		.byte	0xc
 897 064b 4A       		.byte	0x4a
 898 064c 11       		.byte	0x11
 899 064d 96000000 		.4byte	0x96
 900 0651 15       		.uleb128 0x15
 901 0652 77000000 		.4byte	0x77
 902 0656 61060000 		.4byte	0x661
 903 065a 16       		.uleb128 0x16
 904 065b 30000000 		.4byte	0x30
 905 065f 0F       		.byte	0xf
 906 0660 00       		.byte	0
 907 0661 06       		.uleb128 0x6
 908 0662 51060000 		.4byte	0x651
 909 0666 18       		.uleb128 0x18
 910 0667 64090000 		.4byte	.LASF92
 911 066b 0C       		.byte	0xc
 912 066c 4B       		.byte	0x4b
ARM GAS  /tmp/ccoHvmwk.s 			page 17


 913 066d 16       		.byte	0x16
 914 066e 61060000 		.4byte	0x661
 915 0672 15       		.uleb128 0x15
 916 0673 77000000 		.4byte	0x77
 917 0677 82060000 		.4byte	0x682
 918 067b 16       		.uleb128 0x16
 919 067c 30000000 		.4byte	0x30
 920 0680 07       		.byte	0x7
 921 0681 00       		.byte	0
 922 0682 06       		.uleb128 0x6
 923 0683 72060000 		.4byte	0x672
 924 0687 18       		.uleb128 0x18
 925 0688 6A0B0000 		.4byte	.LASF93
 926 068c 0C       		.byte	0xc
 927 068d 4C       		.byte	0x4c
 928 068e 16       		.byte	0x16
 929 068f 82060000 		.4byte	0x682
 930 0693 0E       		.uleb128 0xe
 931 0694 B8       		.byte	0xb8
 932 0695 0D       		.byte	0xd
 933 0696 B3       		.byte	0xb3
 934 0697 09       		.byte	0x9
 935 0698 7C080000 		.4byte	0x87c
 936 069c 08       		.uleb128 0x8
 937 069d 49535200 		.ascii	"ISR\000"
 938 06a1 0D       		.byte	0xd
 939 06a2 B5       		.byte	0xb5
 940 06a3 11       		.byte	0x11
 941 06a4 A2000000 		.4byte	0xa2
 942 06a8 00       		.byte	0
 943 06a9 08       		.uleb128 0x8
 944 06aa 49455200 		.ascii	"IER\000"
 945 06ae 0D       		.byte	0xd
 946 06af B6       		.byte	0xb6
 947 06b0 11       		.byte	0x11
 948 06b1 A2000000 		.4byte	0xa2
 949 06b5 04       		.byte	0x4
 950 06b6 08       		.uleb128 0x8
 951 06b7 435200   		.ascii	"CR\000"
 952 06ba 0D       		.byte	0xd
 953 06bb B7       		.byte	0xb7
 954 06bc 11       		.byte	0x11
 955 06bd A2000000 		.4byte	0xa2
 956 06c1 08       		.byte	0x8
 957 06c2 09       		.uleb128 0x9
 958 06c3 65050000 		.4byte	.LASF94
 959 06c7 0D       		.byte	0xd
 960 06c8 B8       		.byte	0xb8
 961 06c9 11       		.byte	0x11
 962 06ca A2000000 		.4byte	0xa2
 963 06ce 0C       		.byte	0xc
 964 06cf 09       		.uleb128 0x9
 965 06d0 33030000 		.4byte	.LASF95
 966 06d4 0D       		.byte	0xd
 967 06d5 B9       		.byte	0xb9
 968 06d6 11       		.byte	0x11
 969 06d7 96000000 		.4byte	0x96
ARM GAS  /tmp/ccoHvmwk.s 			page 18


 970 06db 10       		.byte	0x10
 971 06dc 09       		.uleb128 0x9
 972 06dd 29060000 		.4byte	.LASF96
 973 06e1 0D       		.byte	0xd
 974 06e2 BA       		.byte	0xba
 975 06e3 11       		.byte	0x11
 976 06e4 A2000000 		.4byte	0xa2
 977 06e8 14       		.byte	0x14
 978 06e9 09       		.uleb128 0x9
 979 06ea 2F060000 		.4byte	.LASF97
 980 06ee 0D       		.byte	0xd
 981 06ef BB       		.byte	0xbb
 982 06f0 11       		.byte	0x11
 983 06f1 A2000000 		.4byte	0xa2
 984 06f5 18       		.byte	0x18
 985 06f6 09       		.uleb128 0x9
 986 06f7 3D030000 		.4byte	.LASF98
 987 06fb 0D       		.byte	0xd
 988 06fc BC       		.byte	0xbc
 989 06fd 11       		.byte	0x11
 990 06fe 96000000 		.4byte	0x96
 991 0702 1C       		.byte	0x1c
 992 0703 08       		.uleb128 0x8
 993 0704 54523100 		.ascii	"TR1\000"
 994 0708 0D       		.byte	0xd
 995 0709 BD       		.byte	0xbd
 996 070a 11       		.byte	0x11
 997 070b A2000000 		.4byte	0xa2
 998 070f 20       		.byte	0x20
 999 0710 08       		.uleb128 0x8
 1000 0711 54523200 		.ascii	"TR2\000"
 1001 0715 0D       		.byte	0xd
 1002 0716 BE       		.byte	0xbe
 1003 0717 11       		.byte	0x11
 1004 0718 A2000000 		.4byte	0xa2
 1005 071c 24       		.byte	0x24
 1006 071d 08       		.uleb128 0x8
 1007 071e 54523300 		.ascii	"TR3\000"
 1008 0722 0D       		.byte	0xd
 1009 0723 BF       		.byte	0xbf
 1010 0724 11       		.byte	0x11
 1011 0725 A2000000 		.4byte	0xa2
 1012 0729 28       		.byte	0x28
 1013 072a 09       		.uleb128 0x9
 1014 072b 01040000 		.4byte	.LASF99
 1015 072f 0D       		.byte	0xd
 1016 0730 C0       		.byte	0xc0
 1017 0731 11       		.byte	0x11
 1018 0732 96000000 		.4byte	0x96
 1019 0736 2C       		.byte	0x2c
 1020 0737 09       		.uleb128 0x9
 1021 0738 B4000000 		.4byte	.LASF100
 1022 073c 0D       		.byte	0xd
 1023 073d C1       		.byte	0xc1
 1024 073e 11       		.byte	0x11
 1025 073f A2000000 		.4byte	0xa2
 1026 0743 30       		.byte	0x30
ARM GAS  /tmp/ccoHvmwk.s 			page 19


 1027 0744 09       		.uleb128 0x9
 1028 0745 B9000000 		.4byte	.LASF101
 1029 0749 0D       		.byte	0xd
 1030 074a C2       		.byte	0xc2
 1031 074b 11       		.byte	0x11
 1032 074c A2000000 		.4byte	0xa2
 1033 0750 34       		.byte	0x34
 1034 0751 09       		.uleb128 0x9
 1035 0752 BE000000 		.4byte	.LASF102
 1036 0756 0D       		.byte	0xd
 1037 0757 C3       		.byte	0xc3
 1038 0758 11       		.byte	0x11
 1039 0759 A2000000 		.4byte	0xa2
 1040 075d 38       		.byte	0x38
 1041 075e 09       		.uleb128 0x9
 1042 075f C3000000 		.4byte	.LASF103
 1043 0763 0D       		.byte	0xd
 1044 0764 C4       		.byte	0xc4
 1045 0765 11       		.byte	0x11
 1046 0766 A2000000 		.4byte	0xa2
 1047 076a 3C       		.byte	0x3c
 1048 076b 08       		.uleb128 0x8
 1049 076c 445200   		.ascii	"DR\000"
 1050 076f 0D       		.byte	0xd
 1051 0770 C5       		.byte	0xc5
 1052 0771 11       		.byte	0x11
 1053 0772 A2000000 		.4byte	0xa2
 1054 0776 40       		.byte	0x40
 1055 0777 09       		.uleb128 0x9
 1056 0778 55030000 		.4byte	.LASF104
 1057 077c 0D       		.byte	0xd
 1058 077d C6       		.byte	0xc6
 1059 077e 11       		.byte	0x11
 1060 077f 96000000 		.4byte	0x96
 1061 0783 44       		.byte	0x44
 1062 0784 09       		.uleb128 0x9
 1063 0785 5F030000 		.4byte	.LASF105
 1064 0789 0D       		.byte	0xd
 1065 078a C7       		.byte	0xc7
 1066 078b 11       		.byte	0x11
 1067 078c 96000000 		.4byte	0x96
 1068 0790 48       		.byte	0x48
 1069 0791 09       		.uleb128 0x9
 1070 0792 5E0C0000 		.4byte	.LASF106
 1071 0796 0D       		.byte	0xd
 1072 0797 C8       		.byte	0xc8
 1073 0798 11       		.byte	0x11
 1074 0799 A2000000 		.4byte	0xa2
 1075 079d 4C       		.byte	0x4c
 1076 079e 09       		.uleb128 0x9
 1077 079f 69030000 		.4byte	.LASF107
 1078 07a3 0D       		.byte	0xd
 1079 07a4 C9       		.byte	0xc9
 1080 07a5 11       		.byte	0x11
 1081 07a6 7C080000 		.4byte	0x87c
 1082 07aa 50       		.byte	0x50
 1083 07ab 09       		.uleb128 0x9
ARM GAS  /tmp/ccoHvmwk.s 			page 20


 1084 07ac 050B0000 		.4byte	.LASF108
 1085 07b0 0D       		.byte	0xd
 1086 07b1 CA       		.byte	0xca
 1087 07b2 11       		.byte	0x11
 1088 07b3 A2000000 		.4byte	0xa2
 1089 07b7 60       		.byte	0x60
 1090 07b8 09       		.uleb128 0x9
 1091 07b9 0A0B0000 		.4byte	.LASF109
 1092 07bd 0D       		.byte	0xd
 1093 07be CB       		.byte	0xcb
 1094 07bf 11       		.byte	0x11
 1095 07c0 A2000000 		.4byte	0xa2
 1096 07c4 64       		.byte	0x64
 1097 07c5 09       		.uleb128 0x9
 1098 07c6 0F0B0000 		.4byte	.LASF110
 1099 07ca 0D       		.byte	0xd
 1100 07cb CC       		.byte	0xcc
 1101 07cc 11       		.byte	0x11
 1102 07cd A2000000 		.4byte	0xa2
 1103 07d1 68       		.byte	0x68
 1104 07d2 09       		.uleb128 0x9
 1105 07d3 140B0000 		.4byte	.LASF111
 1106 07d7 0D       		.byte	0xd
 1107 07d8 CD       		.byte	0xcd
 1108 07d9 11       		.byte	0x11
 1109 07da A2000000 		.4byte	0xa2
 1110 07de 6C       		.byte	0x6c
 1111 07df 09       		.uleb128 0x9
 1112 07e0 73030000 		.4byte	.LASF112
 1113 07e4 0D       		.byte	0xd
 1114 07e5 CE       		.byte	0xce
 1115 07e6 11       		.byte	0x11
 1116 07e7 7C080000 		.4byte	0x87c
 1117 07eb 70       		.byte	0x70
 1118 07ec 09       		.uleb128 0x9
 1119 07ed 420C0000 		.4byte	.LASF113
 1120 07f1 0D       		.byte	0xd
 1121 07f2 CF       		.byte	0xcf
 1122 07f3 11       		.byte	0x11
 1123 07f4 A2000000 		.4byte	0xa2
 1124 07f8 80       		.byte	0x80
 1125 07f9 09       		.uleb128 0x9
 1126 07fa 470C0000 		.4byte	.LASF114
 1127 07fe 0D       		.byte	0xd
 1128 07ff D0       		.byte	0xd0
 1129 0800 11       		.byte	0x11
 1130 0801 A2000000 		.4byte	0xa2
 1131 0805 84       		.byte	0x84
 1132 0806 09       		.uleb128 0x9
 1133 0807 4C0C0000 		.4byte	.LASF115
 1134 080b 0D       		.byte	0xd
 1135 080c D1       		.byte	0xd1
 1136 080d 11       		.byte	0x11
 1137 080e A2000000 		.4byte	0xa2
 1138 0812 88       		.byte	0x88
 1139 0813 09       		.uleb128 0x9
 1140 0814 510C0000 		.4byte	.LASF116
ARM GAS  /tmp/ccoHvmwk.s 			page 21


 1141 0818 0D       		.byte	0xd
 1142 0819 D2       		.byte	0xd2
 1143 081a 11       		.byte	0x11
 1144 081b A2000000 		.4byte	0xa2
 1145 081f 8C       		.byte	0x8c
 1146 0820 09       		.uleb128 0x9
 1147 0821 7D030000 		.4byte	.LASF117
 1148 0825 0D       		.byte	0xd
 1149 0826 D3       		.byte	0xd3
 1150 0827 11       		.byte	0x11
 1151 0828 7C080000 		.4byte	0x87c
 1152 082c 90       		.byte	0x90
 1153 082d 09       		.uleb128 0x9
 1154 082e CB040000 		.4byte	.LASF118
 1155 0832 0D       		.byte	0xd
 1156 0833 D4       		.byte	0xd4
 1157 0834 11       		.byte	0x11
 1158 0835 A2000000 		.4byte	0xa2
 1159 0839 A0       		.byte	0xa0
 1160 083a 09       		.uleb128 0x9
 1161 083b D0070000 		.4byte	.LASF119
 1162 083f 0D       		.byte	0xd
 1163 0840 D5       		.byte	0xd5
 1164 0841 11       		.byte	0x11
 1165 0842 A2000000 		.4byte	0xa2
 1166 0846 A4       		.byte	0xa4
 1167 0847 09       		.uleb128 0x9
 1168 0848 87030000 		.4byte	.LASF120
 1169 084c 0D       		.byte	0xd
 1170 084d D6       		.byte	0xd6
 1171 084e 11       		.byte	0x11
 1172 084f 96000000 		.4byte	0x96
 1173 0853 A8       		.byte	0xa8
 1174 0854 09       		.uleb128 0x9
 1175 0855 91030000 		.4byte	.LASF121
 1176 0859 0D       		.byte	0xd
 1177 085a D7       		.byte	0xd7
 1178 085b 11       		.byte	0x11
 1179 085c 96000000 		.4byte	0x96
 1180 0860 AC       		.byte	0xac
 1181 0861 09       		.uleb128 0x9
 1182 0862 6A050000 		.4byte	.LASF122
 1183 0866 0D       		.byte	0xd
 1184 0867 D8       		.byte	0xd8
 1185 0868 11       		.byte	0x11
 1186 0869 A2000000 		.4byte	0xa2
 1187 086d B0       		.byte	0xb0
 1188 086e 09       		.uleb128 0x9
 1189 086f 9A0B0000 		.4byte	.LASF123
 1190 0873 0D       		.byte	0xd
 1191 0874 D9       		.byte	0xd9
 1192 0875 11       		.byte	0x11
 1193 0876 A2000000 		.4byte	0xa2
 1194 087a B4       		.byte	0xb4
 1195 087b 00       		.byte	0
 1196 087c 15       		.uleb128 0x15
 1197 087d 96000000 		.4byte	0x96
ARM GAS  /tmp/ccoHvmwk.s 			page 22


 1198 0881 8C080000 		.4byte	0x88c
 1199 0885 16       		.uleb128 0x16
 1200 0886 30000000 		.4byte	0x30
 1201 088a 03       		.byte	0x3
 1202 088b 00       		.byte	0
 1203 088c 03       		.uleb128 0x3
 1204 088d FB040000 		.4byte	.LASF124
 1205 0891 0D       		.byte	0xd
 1206 0892 DB       		.byte	0xdb
 1207 0893 03       		.byte	0x3
 1208 0894 93060000 		.4byte	0x693
 1209 0898 0E       		.uleb128 0xe
 1210 0899 10       		.byte	0x10
 1211 089a 0D       		.byte	0xd
 1212 089b DD       		.byte	0xdd
 1213 089c 09       		.byte	0x9
 1214 089d D6080000 		.4byte	0x8d6
 1215 08a1 08       		.uleb128 0x8
 1216 08a2 43535200 		.ascii	"CSR\000"
 1217 08a6 0D       		.byte	0xd
 1218 08a7 DF       		.byte	0xdf
 1219 08a8 11       		.byte	0x11
 1220 08a9 A2000000 		.4byte	0xa2
 1221 08ad 00       		.byte	0
 1222 08ae 09       		.uleb128 0x9
 1223 08af 07050000 		.4byte	.LASF125
 1224 08b3 0D       		.byte	0xd
 1225 08b4 E0       		.byte	0xe0
 1226 08b5 11       		.byte	0x11
 1227 08b6 96000000 		.4byte	0x96
 1228 08ba 04       		.byte	0x4
 1229 08bb 08       		.uleb128 0x8
 1230 08bc 43435200 		.ascii	"CCR\000"
 1231 08c0 0D       		.byte	0xd
 1232 08c1 E1       		.byte	0xe1
 1233 08c2 11       		.byte	0x11
 1234 08c3 A2000000 		.4byte	0xa2
 1235 08c7 08       		.byte	0x8
 1236 08c8 08       		.uleb128 0x8
 1237 08c9 43445200 		.ascii	"CDR\000"
 1238 08cd 0D       		.byte	0xd
 1239 08ce E2       		.byte	0xe2
 1240 08cf 11       		.byte	0x11
 1241 08d0 A2000000 		.4byte	0xa2
 1242 08d4 0C       		.byte	0xc
 1243 08d5 00       		.byte	0
 1244 08d6 03       		.uleb128 0x3
 1245 08d7 310E0000 		.4byte	.LASF126
 1246 08db 0D       		.byte	0xd
 1247 08dc E4       		.byte	0xe4
 1248 08dd 03       		.byte	0x3
 1249 08de 98080000 		.4byte	0x898
 1250 08e2 19       		.uleb128 0x19
 1251 08e3 10       		.byte	0x10
 1252 08e4 0D       		.byte	0xd
 1253 08e5 6501     		.2byte	0x165
 1254 08e7 09       		.byte	0x9
ARM GAS  /tmp/ccoHvmwk.s 			page 23


 1255 08e8 25090000 		.4byte	0x925
 1256 08ec 0A       		.uleb128 0xa
 1257 08ed 43435200 		.ascii	"CCR\000"
 1258 08f1 0D       		.byte	0xd
 1259 08f2 6701     		.2byte	0x167
 1260 08f4 11       		.byte	0x11
 1261 08f5 A2000000 		.4byte	0xa2
 1262 08f9 00       		.byte	0
 1263 08fa 0B       		.uleb128 0xb
 1264 08fb 8C010000 		.4byte	.LASF127
 1265 08ff 0D       		.byte	0xd
 1266 0900 6801     		.2byte	0x168
 1267 0902 11       		.byte	0x11
 1268 0903 A2000000 		.4byte	0xa2
 1269 0907 04       		.byte	0x4
 1270 0908 0B       		.uleb128 0xb
 1271 0909 D2020000 		.4byte	.LASF128
 1272 090d 0D       		.byte	0xd
 1273 090e 6901     		.2byte	0x169
 1274 0910 11       		.byte	0x11
 1275 0911 A2000000 		.4byte	0xa2
 1276 0915 08       		.byte	0x8
 1277 0916 0B       		.uleb128 0xb
 1278 0917 57080000 		.4byte	.LASF129
 1279 091b 0D       		.byte	0xd
 1280 091c 6A01     		.2byte	0x16a
 1281 091e 11       		.byte	0x11
 1282 091f A2000000 		.4byte	0xa2
 1283 0923 0C       		.byte	0xc
 1284 0924 00       		.byte	0
 1285 0925 1A       		.uleb128 0x1a
 1286 0926 50090000 		.4byte	.LASF130
 1287 092a 0D       		.byte	0xd
 1288 092b 6B01     		.2byte	0x16b
 1289 092d 03       		.byte	0x3
 1290 092e E2080000 		.4byte	0x8e2
 1291 0932 19       		.uleb128 0x19
 1292 0933 08       		.byte	0x8
 1293 0934 0D       		.byte	0xd
 1294 0935 6D01     		.2byte	0x16d
 1295 0937 09       		.byte	0x9
 1296 0938 59090000 		.4byte	0x959
 1297 093c 0A       		.uleb128 0xa
 1298 093d 49535200 		.ascii	"ISR\000"
 1299 0941 0D       		.byte	0xd
 1300 0942 6F01     		.2byte	0x16f
 1301 0944 11       		.byte	0x11
 1302 0945 A2000000 		.4byte	0xa2
 1303 0949 00       		.byte	0
 1304 094a 0B       		.uleb128 0xb
 1305 094b 3C040000 		.4byte	.LASF131
 1306 094f 0D       		.byte	0xd
 1307 0950 7001     		.2byte	0x170
 1308 0952 11       		.byte	0x11
 1309 0953 A2000000 		.4byte	0xa2
 1310 0957 04       		.byte	0x4
 1311 0958 00       		.byte	0
ARM GAS  /tmp/ccoHvmwk.s 			page 24


 1312 0959 1A       		.uleb128 0x1a
 1313 095a 9B030000 		.4byte	.LASF132
 1314 095e 0D       		.byte	0xd
 1315 095f 7101     		.2byte	0x171
 1316 0961 03       		.byte	0x3
 1317 0962 32090000 		.4byte	0x932
 1318 0966 19       		.uleb128 0x19
 1319 0967 34       		.byte	0x34
 1320 0968 0D       		.byte	0xd
 1321 0969 FE01     		.2byte	0x1fe
 1322 096b 09       		.byte	0x9
 1323 096c 260A0000 		.4byte	0xa26
 1324 0970 0A       		.uleb128 0xa
 1325 0971 435200   		.ascii	"CR\000"
 1326 0974 0D       		.byte	0xd
 1327 0975 0002     		.2byte	0x200
 1328 0977 11       		.byte	0x11
 1329 0978 A2000000 		.4byte	0xa2
 1330 097c 00       		.byte	0
 1331 097d 0B       		.uleb128 0xb
 1332 097e 65050000 		.4byte	.LASF94
 1333 0982 0D       		.byte	0xd
 1334 0983 0102     		.2byte	0x201
 1335 0985 11       		.byte	0x11
 1336 0986 A2000000 		.4byte	0xa2
 1337 098a 04       		.byte	0x4
 1338 098b 0A       		.uleb128 0xa
 1339 098c 43495200 		.ascii	"CIR\000"
 1340 0990 0D       		.byte	0xd
 1341 0991 0202     		.2byte	0x202
 1342 0993 11       		.byte	0x11
 1343 0994 A2000000 		.4byte	0xa2
 1344 0998 08       		.byte	0x8
 1345 0999 0B       		.uleb128 0xb
 1346 099a 93070000 		.4byte	.LASF133
 1347 099e 0D       		.byte	0xd
 1348 099f 0302     		.2byte	0x203
 1349 09a1 11       		.byte	0x11
 1350 09a2 A2000000 		.4byte	0xa2
 1351 09a6 0C       		.byte	0xc
 1352 09a7 0B       		.uleb128 0xb
 1353 09a8 F80B0000 		.4byte	.LASF134
 1354 09ac 0D       		.byte	0xd
 1355 09ad 0402     		.2byte	0x204
 1356 09af 11       		.byte	0x11
 1357 09b0 A2000000 		.4byte	0xa2
 1358 09b4 10       		.byte	0x10
 1359 09b5 0B       		.uleb128 0xb
 1360 09b6 320C0000 		.4byte	.LASF135
 1361 09ba 0D       		.byte	0xd
 1362 09bb 0502     		.2byte	0x205
 1363 09bd 11       		.byte	0x11
 1364 09be A2000000 		.4byte	0xa2
 1365 09c2 14       		.byte	0x14
 1366 09c3 0B       		.uleb128 0xb
 1367 09c4 6D020000 		.4byte	.LASF136
 1368 09c8 0D       		.byte	0xd
ARM GAS  /tmp/ccoHvmwk.s 			page 25


 1369 09c9 0602     		.2byte	0x206
 1370 09cb 11       		.byte	0x11
 1371 09cc A2000000 		.4byte	0xa2
 1372 09d0 18       		.byte	0x18
 1373 09d1 0B       		.uleb128 0xb
 1374 09d2 81090000 		.4byte	.LASF137
 1375 09d6 0D       		.byte	0xd
 1376 09d7 0702     		.2byte	0x207
 1377 09d9 11       		.byte	0x11
 1378 09da A2000000 		.4byte	0xa2
 1379 09de 1C       		.byte	0x1c
 1380 09df 0B       		.uleb128 0xb
 1381 09e0 C6040000 		.4byte	.LASF138
 1382 09e4 0D       		.byte	0xd
 1383 09e5 0802     		.2byte	0x208
 1384 09e7 11       		.byte	0x11
 1385 09e8 A2000000 		.4byte	0xa2
 1386 09ec 20       		.byte	0x20
 1387 09ed 0A       		.uleb128 0xa
 1388 09ee 43535200 		.ascii	"CSR\000"
 1389 09f2 0D       		.byte	0xd
 1390 09f3 0902     		.2byte	0x209
 1391 09f5 11       		.byte	0x11
 1392 09f6 A2000000 		.4byte	0xa2
 1393 09fa 24       		.byte	0x24
 1394 09fb 0B       		.uleb128 0xb
 1395 09fc C7060000 		.4byte	.LASF139
 1396 0a00 0D       		.byte	0xd
 1397 0a01 0A02     		.2byte	0x20a
 1398 0a03 11       		.byte	0x11
 1399 0a04 A2000000 		.4byte	0xa2
 1400 0a08 28       		.byte	0x28
 1401 0a09 0B       		.uleb128 0xb
 1402 0a0a 3E080000 		.4byte	.LASF140
 1403 0a0e 0D       		.byte	0xd
 1404 0a0f 0B02     		.2byte	0x20b
 1405 0a11 11       		.byte	0x11
 1406 0a12 A2000000 		.4byte	0xa2
 1407 0a16 2C       		.byte	0x2c
 1408 0a17 0B       		.uleb128 0xb
 1409 0a18 44080000 		.4byte	.LASF141
 1410 0a1c 0D       		.byte	0xd
 1411 0a1d 0C02     		.2byte	0x20c
 1412 0a1f 11       		.byte	0x11
 1413 0a20 A2000000 		.4byte	0xa2
 1414 0a24 30       		.byte	0x30
 1415 0a25 00       		.byte	0
 1416 0a26 1A       		.uleb128 0x1a
 1417 0a27 780B0000 		.4byte	.LASF142
 1418 0a2b 0D       		.byte	0xd
 1419 0a2c 0D02     		.2byte	0x20d
 1420 0a2e 03       		.byte	0x3
 1421 0a2f 66090000 		.4byte	0x966
 1422 0a33 1B       		.uleb128 0x1b
 1423 0a34 0C090000 		.4byte	.LASF143
 1424 0a38 24       		.byte	0x24
 1425 0a39 0E       		.byte	0xe
ARM GAS  /tmp/ccoHvmwk.s 			page 26


 1426 0a3a E001     		.2byte	0x1e0
 1427 0a3c 08       		.byte	0x8
 1428 0a3d B90A0000 		.4byte	0xab9
 1429 0a41 0A       		.uleb128 0xa
 1430 0a42 723400   		.ascii	"r4\000"
 1431 0a45 0E       		.byte	0xe
 1432 0a46 F901     		.2byte	0x1f9
 1433 0a48 11       		.byte	0x11
 1434 0a49 96000000 		.4byte	0x96
 1435 0a4d 00       		.byte	0
 1436 0a4e 0A       		.uleb128 0xa
 1437 0a4f 723500   		.ascii	"r5\000"
 1438 0a52 0E       		.byte	0xe
 1439 0a53 FA01     		.2byte	0x1fa
 1440 0a55 11       		.byte	0x11
 1441 0a56 96000000 		.4byte	0x96
 1442 0a5a 04       		.byte	0x4
 1443 0a5b 0A       		.uleb128 0xa
 1444 0a5c 723600   		.ascii	"r6\000"
 1445 0a5f 0E       		.byte	0xe
 1446 0a60 FB01     		.2byte	0x1fb
 1447 0a62 11       		.byte	0x11
 1448 0a63 96000000 		.4byte	0x96
 1449 0a67 08       		.byte	0x8
 1450 0a68 0A       		.uleb128 0xa
 1451 0a69 723700   		.ascii	"r7\000"
 1452 0a6c 0E       		.byte	0xe
 1453 0a6d FC01     		.2byte	0x1fc
 1454 0a6f 11       		.byte	0x11
 1455 0a70 96000000 		.4byte	0x96
 1456 0a74 0C       		.byte	0xc
 1457 0a75 0A       		.uleb128 0xa
 1458 0a76 723800   		.ascii	"r8\000"
 1459 0a79 0E       		.byte	0xe
 1460 0a7a FD01     		.2byte	0x1fd
 1461 0a7c 11       		.byte	0x11
 1462 0a7d 96000000 		.4byte	0x96
 1463 0a81 10       		.byte	0x10
 1464 0a82 0A       		.uleb128 0xa
 1465 0a83 723900   		.ascii	"r9\000"
 1466 0a86 0E       		.byte	0xe
 1467 0a87 FE01     		.2byte	0x1fe
 1468 0a89 11       		.byte	0x11
 1469 0a8a 96000000 		.4byte	0x96
 1470 0a8e 14       		.byte	0x14
 1471 0a8f 0A       		.uleb128 0xa
 1472 0a90 72313000 		.ascii	"r10\000"
 1473 0a94 0E       		.byte	0xe
 1474 0a95 FF01     		.2byte	0x1ff
 1475 0a97 11       		.byte	0x11
 1476 0a98 96000000 		.4byte	0x96
 1477 0a9c 18       		.byte	0x18
 1478 0a9d 0A       		.uleb128 0xa
 1479 0a9e 72313100 		.ascii	"r11\000"
 1480 0aa2 0E       		.byte	0xe
 1481 0aa3 0002     		.2byte	0x200
 1482 0aa5 11       		.byte	0x11
ARM GAS  /tmp/ccoHvmwk.s 			page 27


 1483 0aa6 96000000 		.4byte	0x96
 1484 0aaa 1C       		.byte	0x1c
 1485 0aab 0A       		.uleb128 0xa
 1486 0aac 6C7200   		.ascii	"lr\000"
 1487 0aaf 0E       		.byte	0xe
 1488 0ab0 0102     		.2byte	0x201
 1489 0ab2 11       		.byte	0x11
 1490 0ab3 96000000 		.4byte	0x96
 1491 0ab7 20       		.byte	0x20
 1492 0ab8 00       		.byte	0
 1493 0ab9 1B       		.uleb128 0x1b
 1494 0aba AF0C0000 		.4byte	.LASF144
 1495 0abe 04       		.byte	0x4
 1496 0abf 0E       		.byte	0xe
 1497 0ac0 0A02     		.2byte	0x20a
 1498 0ac2 08       		.byte	0x8
 1499 0ac3 D50A0000 		.4byte	0xad5
 1500 0ac7 0A       		.uleb128 0xa
 1501 0ac8 737000   		.ascii	"sp\000"
 1502 0acb 0E       		.byte	0xe
 1503 0acc 0B02     		.2byte	0x20b
 1504 0ace 1A       		.byte	0x1a
 1505 0acf D50A0000 		.4byte	0xad5
 1506 0ad3 00       		.byte	0
 1507 0ad4 00       		.byte	0
 1508 0ad5 0D       		.uleb128 0xd
 1509 0ad6 04       		.byte	0x4
 1510 0ad7 330A0000 		.4byte	0xa33
 1511 0adb 0E       		.uleb128 0xe
 1512 0adc 04       		.byte	0x4
 1513 0add 0F       		.byte	0xf
 1514 0ade 3F       		.byte	0x3f
 1515 0adf 09       		.byte	0x9
 1516 0ae0 F20A0000 		.4byte	0xaf2
 1517 0ae4 09       		.uleb128 0x9
 1518 0ae5 6A080000 		.4byte	.LASF145
 1519 0ae9 0F       		.byte	0xf
 1520 0aea 43       		.byte	0x43
 1521 0aeb 19       		.byte	0x19
 1522 0aec DE000000 		.4byte	0xde
 1523 0af0 00       		.byte	0
 1524 0af1 00       		.byte	0
 1525 0af2 03       		.uleb128 0x3
 1526 0af3 2A0B0000 		.4byte	.LASF146
 1527 0af7 0F       		.byte	0xf
 1528 0af8 44       		.byte	0x44
 1529 0af9 03       		.byte	0x3
 1530 0afa DB0A0000 		.4byte	0xadb
 1531 0afe 1C       		.uleb128 0x1c
 1532 0aff 07       		.byte	0x7
 1533 0b00 01       		.byte	0x1
 1534 0b01 7C000000 		.4byte	0x7c
 1535 0b05 05       		.byte	0x5
 1536 0b06 32       		.byte	0x32
 1537 0b07 0E       		.byte	0xe
 1538 0b08 250B0000 		.4byte	0xb25
 1539 0b0c 1D       		.uleb128 0x1d
ARM GAS  /tmp/ccoHvmwk.s 			page 28


 1540 0b0d 5F020000 		.4byte	.LASF147
 1541 0b11 00       		.byte	0
 1542 0b12 1D       		.uleb128 0x1d
 1543 0b13 84000000 		.4byte	.LASF148
 1544 0b17 01       		.byte	0x1
 1545 0b18 1D       		.uleb128 0x1d
 1546 0b19 DE070000 		.4byte	.LASF149
 1547 0b1d 02       		.byte	0x2
 1548 0b1e 1D       		.uleb128 0x1d
 1549 0b1f C10B0000 		.4byte	.LASF150
 1550 0b23 03       		.byte	0x3
 1551 0b24 00       		.byte	0
 1552 0b25 03       		.uleb128 0x3
 1553 0b26 A0010000 		.4byte	.LASF151
 1554 0b2a 05       		.byte	0x5
 1555 0b2b 37       		.byte	0x37
 1556 0b2c 03       		.byte	0x3
 1557 0b2d FE0A0000 		.4byte	0xafe
 1558 0b31 07       		.uleb128 0x7
 1559 0b32 0F010000 		.4byte	.LASF152
 1560 0b36 18       		.byte	0x18
 1561 0b37 05       		.byte	0x5
 1562 0b38 64       		.byte	0x64
 1563 0b39 10       		.byte	0x10
 1564 0b3a 660B0000 		.4byte	0xb66
 1565 0b3e 09       		.uleb128 0x9
 1566 0b3f 9F080000 		.4byte	.LASF153
 1567 0b43 05       		.byte	0x5
 1568 0b44 68       		.byte	0x68
 1569 0b45 21       		.byte	0x21
 1570 0b46 3C040000 		.4byte	0x43c
 1571 0b4a 00       		.byte	0
 1572 0b4b 09       		.uleb128 0x9
 1573 0b4c F2040000 		.4byte	.LASF154
 1574 0b50 05       		.byte	0x5
 1575 0b51 73       		.byte	0x73
 1576 0b52 21       		.byte	0x21
 1577 0b53 76030000 		.4byte	0x376
 1578 0b57 0C       		.byte	0xc
 1579 0b58 09       		.uleb128 0x9
 1580 0b59 7D020000 		.4byte	.LASF155
 1581 0b5d 05       		.byte	0x5
 1582 0b5e 79       		.byte	0x79
 1583 0b5f 21       		.byte	0x21
 1584 0b60 BA000000 		.4byte	0xba
 1585 0b64 10       		.byte	0x10
 1586 0b65 00       		.byte	0
 1587 0b66 03       		.uleb128 0x3
 1588 0b67 00060000 		.4byte	.LASF156
 1589 0b6b 05       		.byte	0x5
 1590 0b6c 7B       		.byte	0x7b
 1591 0b6d 03       		.byte	0x3
 1592 0b6e 310B0000 		.4byte	0xb31
 1593 0b72 07       		.uleb128 0x7
 1594 0b73 D2010000 		.4byte	.LASF157
 1595 0b77 08       		.byte	0x8
 1596 0b78 05       		.byte	0x5
ARM GAS  /tmp/ccoHvmwk.s 			page 29


 1597 0b79 80       		.byte	0x80
 1598 0b7a 10       		.byte	0x10
 1599 0b7b 8D0B0000 		.4byte	0xb8d
 1600 0b7f 09       		.uleb128 0x9
 1601 0b80 440A0000 		.4byte	.LASF158
 1602 0b84 05       		.byte	0x5
 1603 0b85 84       		.byte	0x84
 1604 0b86 21       		.byte	0x21
 1605 0b87 BB030000 		.4byte	0x3bb
 1606 0b8b 00       		.byte	0
 1607 0b8c 00       		.byte	0
 1608 0b8d 03       		.uleb128 0x3
 1609 0b8e 26010000 		.4byte	.LASF159
 1610 0b92 05       		.byte	0x5
 1611 0b93 85       		.byte	0x85
 1612 0b94 03       		.byte	0x3
 1613 0b95 720B0000 		.4byte	0xb72
 1614 0b99 03       		.uleb128 0x3
 1615 0b9a E3080000 		.4byte	.LASF160
 1616 0b9e 05       		.byte	0x5
 1617 0b9f 8A       		.byte	0x8a
 1618 0ba0 14       		.byte	0x14
 1619 0ba1 A7040000 		.4byte	0x4a7
 1620 0ba5 10       		.uleb128 0x10
 1621 0ba6 0C       		.byte	0xc
 1622 0ba7 05       		.byte	0x5
 1623 0ba8 A0       		.byte	0xa0
 1624 0ba9 03       		.byte	0x3
 1625 0baa D30B0000 		.4byte	0xbd3
 1626 0bae 12       		.uleb128 0x12
 1627 0baf 7D080000 		.4byte	.LASF161
 1628 0bb3 05       		.byte	0x5
 1629 0bb4 A4       		.byte	0xa4
 1630 0bb5 21       		.byte	0x21
 1631 0bb6 8E030000 		.4byte	0x38e
 1632 0bba 12       		.uleb128 0x12
 1633 0bbb 440A0000 		.4byte	.LASF158
 1634 0bbf 05       		.byte	0x5
 1635 0bc0 A8       		.byte	0xa8
 1636 0bc1 21       		.byte	0x21
 1637 0bc2 BB030000 		.4byte	0x3bb
 1638 0bc6 12       		.uleb128 0x12
 1639 0bc7 190B0000 		.4byte	.LASF162
 1640 0bcb 05       		.byte	0x5
 1641 0bcc AC       		.byte	0xac
 1642 0bcd 21       		.byte	0x21
 1643 0bce F5030000 		.4byte	0x3f5
 1644 0bd2 00       		.byte	0
 1645 0bd3 10       		.uleb128 0x10
 1646 0bd4 04       		.byte	0x4
 1647 0bd5 05       		.byte	0x5
 1648 0bd6 EB       		.byte	0xeb
 1649 0bd7 03       		.byte	0x3
 1650 0bd8 430C0000 		.4byte	0xc43
 1651 0bdc 12       		.uleb128 0x12
 1652 0bdd BF0D0000 		.4byte	.LASF163
 1653 0be1 05       		.byte	0x5
ARM GAS  /tmp/ccoHvmwk.s 			page 30


 1654 0be2 F2       		.byte	0xf2
 1655 0be3 21       		.byte	0x21
 1656 0be4 26010000 		.4byte	0x126
 1657 0be8 12       		.uleb128 0x12
 1658 0be9 F8010000 		.4byte	.LASF164
 1659 0bed 05       		.byte	0x5
 1660 0bee F9       		.byte	0xf9
 1661 0bef 21       		.byte	0x21
 1662 0bf0 26010000 		.4byte	0x126
 1663 0bf4 1E       		.uleb128 0x1e
 1664 0bf5 57040000 		.4byte	.LASF78
 1665 0bf9 05       		.byte	0x5
 1666 0bfa 0001     		.2byte	0x100
 1667 0bfc 22       		.byte	0x22
 1668 0bfd AD040000 		.4byte	0x4ad
 1669 0c01 1E       		.uleb128 0x1e
 1670 0c02 2D030000 		.4byte	.LASF165
 1671 0c06 05       		.byte	0x5
 1672 0c07 0701     		.2byte	0x107
 1673 0c09 22       		.byte	0x22
 1674 0c0a 430C0000 		.4byte	0xc43
 1675 0c0e 1E       		.uleb128 0x1e
 1676 0c0f 04090000 		.4byte	.LASF166
 1677 0c13 05       		.byte	0x5
 1678 0c14 0C01     		.2byte	0x10c
 1679 0c16 21       		.byte	0x21
 1680 0c17 26010000 		.4byte	0x126
 1681 0c1b 1E       		.uleb128 0x1e
 1682 0c1c 28000000 		.4byte	.LASF167
 1683 0c20 05       		.byte	0x5
 1684 0c21 1501     		.2byte	0x115
 1685 0c23 22       		.byte	0x22
 1686 0c24 710C0000 		.4byte	0xc71
 1687 0c28 1E       		.uleb128 0x1e
 1688 0c29 25050000 		.4byte	.LASF168
 1689 0c2d 05       		.byte	0x5
 1690 0c2e 1E01     		.2byte	0x11e
 1691 0c30 22       		.byte	0x22
 1692 0c31 AC0C0000 		.4byte	0xcac
 1693 0c35 1E       		.uleb128 0x1e
 1694 0c36 08030000 		.4byte	.LASF169
 1695 0c3a 05       		.byte	0x5
 1696 0c3b 2601     		.2byte	0x126
 1697 0c3d 21       		.byte	0x21
 1698 0c3e 32010000 		.4byte	0x132
 1699 0c42 00       		.byte	0
 1700 0c43 0D       		.uleb128 0xd
 1701 0c44 04       		.byte	0x4
 1702 0c45 990B0000 		.4byte	0xb99
 1703 0c49 07       		.uleb128 0x7
 1704 0c4a DB050000 		.4byte	.LASF170
 1705 0c4e 0C       		.byte	0xc
 1706 0c4f 10       		.byte	0x10
 1707 0c50 34       		.byte	0x34
 1708 0c51 10       		.byte	0x10
 1709 0c52 710C0000 		.4byte	0xc71
 1710 0c56 09       		.uleb128 0x9
ARM GAS  /tmp/ccoHvmwk.s 			page 31


 1711 0c57 440A0000 		.4byte	.LASF158
 1712 0c5b 10       		.byte	0x10
 1713 0c5c 35       		.byte	0x35
 1714 0c5d 19       		.byte	0x19
 1715 0c5e BB030000 		.4byte	0x3bb
 1716 0c62 00       		.byte	0
 1717 0c63 08       		.uleb128 0x8
 1718 0c64 636E7400 		.ascii	"cnt\000"
 1719 0c68 10       		.byte	0x10
 1720 0c69 37       		.byte	0x37
 1721 0c6a 19       		.byte	0x19
 1722 0c6b 3E010000 		.4byte	0x13e
 1723 0c6f 08       		.byte	0x8
 1724 0c70 00       		.byte	0
 1725 0c71 0D       		.uleb128 0xd
 1726 0c72 04       		.byte	0x4
 1727 0c73 490C0000 		.4byte	0xc49
 1728 0c77 07       		.uleb128 0x7
 1729 0c78 EF0B0000 		.4byte	.LASF171
 1730 0c7c 10       		.byte	0x10
 1731 0c7d 11       		.byte	0x11
 1732 0c7e 39       		.byte	0x39
 1733 0c7f 08       		.byte	0x8
 1734 0c80 AC0C0000 		.4byte	0xcac
 1735 0c84 09       		.uleb128 0x9
 1736 0c85 440A0000 		.4byte	.LASF158
 1737 0c89 11       		.byte	0x11
 1738 0c8a 3A       		.byte	0x3a
 1739 0c8b 19       		.byte	0x19
 1740 0c8c BB030000 		.4byte	0x3bb
 1741 0c90 00       		.byte	0
 1742 0c91 09       		.uleb128 0x9
 1743 0c92 98000000 		.4byte	.LASF31
 1744 0c96 11       		.byte	0x11
 1745 0c97 3C       		.byte	0x3c
 1746 0c98 1A       		.byte	0x1a
 1747 0c99 A7040000 		.4byte	0x4a7
 1748 0c9d 08       		.byte	0x8
 1749 0c9e 09       		.uleb128 0x9
 1750 0c9f 590E0000 		.4byte	.LASF68
 1751 0ca3 11       		.byte	0x11
 1752 0ca4 3E       		.byte	0x3e
 1753 0ca5 1A       		.byte	0x1a
 1754 0ca6 E00F0000 		.4byte	0xfe0
 1755 0caa 0C       		.byte	0xc
 1756 0cab 00       		.byte	0
 1757 0cac 0D       		.uleb128 0xd
 1758 0cad 04       		.byte	0x4
 1759 0cae 770C0000 		.4byte	0xc77
 1760 0cb2 0D       		.uleb128 0xd
 1761 0cb3 04       		.byte	0x4
 1762 0cb4 51020000 		.4byte	0x251
 1763 0cb8 0D       		.uleb128 0xd
 1764 0cb9 04       		.byte	0x4
 1765 0cba EA000000 		.4byte	0xea
 1766 0cbe 1B       		.uleb128 0x1b
 1767 0cbf 2C050000 		.4byte	.LASF172
ARM GAS  /tmp/ccoHvmwk.s 			page 32


 1768 0cc3 10       		.byte	0x10
 1769 0cc4 05       		.byte	0x5
 1770 0cc5 5C01     		.2byte	0x15c
 1771 0cc7 10       		.byte	0x10
 1772 0cc8 E90C0000 		.4byte	0xce9
 1773 0ccc 0B       		.uleb128 0xb
 1774 0ccd 190B0000 		.4byte	.LASF162
 1775 0cd1 05       		.byte	0x5
 1776 0cd2 6101     		.2byte	0x161
 1777 0cd4 21       		.byte	0x21
 1778 0cd5 F5030000 		.4byte	0x3f5
 1779 0cd9 00       		.byte	0
 1780 0cda 0B       		.uleb128 0xb
 1781 0cdb 5C080000 		.4byte	.LASF173
 1782 0cdf 05       		.byte	0x5
 1783 0ce0 6501     		.2byte	0x165
 1784 0ce2 22       		.byte	0x22
 1785 0ce3 A7040000 		.4byte	0x4a7
 1786 0ce7 0C       		.byte	0xc
 1787 0ce8 00       		.byte	0
 1788 0ce9 1A       		.uleb128 0x1a
 1789 0cea 52060000 		.4byte	.LASF174
 1790 0cee 05       		.byte	0x5
 1791 0cef 6601     		.2byte	0x166
 1792 0cf1 03       		.byte	0x3
 1793 0cf2 BE0C0000 		.4byte	0xcbe
 1794 0cf6 1B       		.uleb128 0x1b
 1795 0cf7 840B0000 		.4byte	.LASF175
 1796 0cfb 14       		.byte	0x14
 1797 0cfc 05       		.byte	0x5
 1798 0cfd 6B01     		.2byte	0x16b
 1799 0cff 10       		.byte	0x10
 1800 0d00 4B0D0000 		.4byte	0xd4b
 1801 0d04 0B       		.uleb128 0xb
 1802 0d05 5B0B0000 		.4byte	.LASF32
 1803 0d09 05       		.byte	0x5
 1804 0d0a 6F01     		.2byte	0x16f
 1805 0d0c 22       		.byte	0x22
 1806 0d0d 53030000 		.4byte	0x353
 1807 0d11 00       		.byte	0
 1808 0d12 0B       		.uleb128 0xb
 1809 0d13 E1090000 		.4byte	.LASF176
 1810 0d17 05       		.byte	0x5
 1811 0d18 7501     		.2byte	0x175
 1812 0d1a 22       		.byte	0x22
 1813 0d1b B80C0000 		.4byte	0xcb8
 1814 0d1f 04       		.byte	0x4
 1815 0d20 0B       		.uleb128 0xb
 1816 0d21 9E040000 		.4byte	.LASF177
 1817 0d25 05       		.byte	0x5
 1818 0d26 7901     		.2byte	0x179
 1819 0d28 22       		.byte	0x22
 1820 0d29 B80C0000 		.4byte	0xcb8
 1821 0d2d 08       		.byte	0x8
 1822 0d2e 0B       		.uleb128 0xb
 1823 0d2f F80D0000 		.4byte	.LASF178
 1824 0d33 05       		.byte	0x5
ARM GAS  /tmp/ccoHvmwk.s 			page 33


 1825 0d34 7F01     		.2byte	0x17f
 1826 0d36 22       		.byte	0x22
 1827 0d37 B80C0000 		.4byte	0xcb8
 1828 0d3b 0C       		.byte	0xc
 1829 0d3c 0B       		.uleb128 0xb
 1830 0d3d C8080000 		.4byte	.LASF179
 1831 0d41 05       		.byte	0x5
 1832 0d42 8301     		.2byte	0x183
 1833 0d44 22       		.byte	0x22
 1834 0d45 B80C0000 		.4byte	0xcb8
 1835 0d49 10       		.byte	0x10
 1836 0d4a 00       		.byte	0
 1837 0d4b 1A       		.uleb128 0x1a
 1838 0d4c AC0B0000 		.4byte	.LASF180
 1839 0d50 05       		.byte	0x5
 1840 0d51 8501     		.2byte	0x185
 1841 0d53 03       		.byte	0x3
 1842 0d54 F60C0000 		.4byte	0xcf6
 1843 0d58 06       		.uleb128 0x6
 1844 0d59 4B0D0000 		.4byte	0xd4b
 1845 0d5d 0D       		.uleb128 0xd
 1846 0d5e 04       		.byte	0x4
 1847 0d5f 580D0000 		.4byte	0xd58
 1848 0d63 1B       		.uleb128 0x1b
 1849 0d64 A30D0000 		.4byte	.LASF181
 1850 0d68 0C       		.byte	0xc
 1851 0d69 05       		.byte	0x5
 1852 0d6a C901     		.2byte	0x1c9
 1853 0d6c 10       		.byte	0x10
 1854 0d6d 9C0D0000 		.4byte	0xd9c
 1855 0d71 0B       		.uleb128 0xb
 1856 0d72 75010000 		.4byte	.LASF34
 1857 0d76 05       		.byte	0x5
 1858 0d77 CD01     		.2byte	0x1cd
 1859 0d79 21       		.byte	0x21
 1860 0d7a 250B0000 		.4byte	0xb25
 1861 0d7e 00       		.byte	0
 1862 0d7f 0B       		.uleb128 0xb
 1863 0d80 7A000000 		.4byte	.LASF182
 1864 0d84 05       		.byte	0x5
 1865 0d85 D101     		.2byte	0x1d1
 1866 0d87 22       		.byte	0x22
 1867 0d88 9C0D0000 		.4byte	0xd9c
 1868 0d8c 04       		.byte	0x4
 1869 0d8d 0A       		.uleb128 0xa
 1870 0d8e 746D6300 		.ascii	"tmc\000"
 1871 0d92 05       		.byte	0x5
 1872 0d93 D601     		.2byte	0x1d6
 1873 0d95 21       		.byte	0x21
 1874 0d96 F20A0000 		.4byte	0xaf2
 1875 0d9a 08       		.byte	0x8
 1876 0d9b 00       		.byte	0
 1877 0d9c 15       		.uleb128 0x15
 1878 0d9d B20C0000 		.4byte	0xcb2
 1879 0da1 AC0D0000 		.4byte	0xdac
 1880 0da5 16       		.uleb128 0x16
 1881 0da6 30000000 		.4byte	0x30
ARM GAS  /tmp/ccoHvmwk.s 			page 34


 1882 0daa 00       		.byte	0
 1883 0dab 00       		.byte	0
 1884 0dac 1A       		.uleb128 0x1a
 1885 0dad D90D0000 		.4byte	.LASF183
 1886 0db1 05       		.byte	0x5
 1887 0db2 ED01     		.2byte	0x1ed
 1888 0db4 03       		.byte	0x3
 1889 0db5 630D0000 		.4byte	0xd63
 1890 0db9 17       		.uleb128 0x17
 1891 0dba A30D0000 		.4byte	.LASF181
 1892 0dbe 12       		.byte	0x12
 1893 0dbf 3E01     		.2byte	0x13e
 1894 0dc1 14       		.byte	0x14
 1895 0dc2 AC0D0000 		.4byte	0xdac
 1896 0dc6 17       		.uleb128 0x17
 1897 0dc7 2C070000 		.4byte	.LASF184
 1898 0dcb 12       		.byte	0x12
 1899 0dcc 4001     		.2byte	0x140
 1900 0dce 23       		.byte	0x23
 1901 0dcf 580D0000 		.4byte	0xd58
 1902 0dd3 1F       		.uleb128 0x1f
 1903 0dd4 63683000 		.ascii	"ch0\000"
 1904 0dd8 12       		.byte	0x12
 1905 0dd9 4101     		.2byte	0x141
 1906 0ddb 16       		.byte	0x16
 1907 0ddc 51020000 		.4byte	0x251
 1908 0de0 0E       		.uleb128 0xe
 1909 0de1 2C       		.byte	0x2c
 1910 0de2 13       		.byte	0x13
 1911 0de3 34       		.byte	0x34
 1912 0de4 09       		.byte	0x9
 1913 0de5 970F0000 		.4byte	0xf97
 1914 0de9 09       		.uleb128 0x9
 1915 0dea 750E0000 		.4byte	.LASF185
 1916 0dee 13       		.byte	0x13
 1917 0def 35       		.byte	0x35
 1918 0df0 0D       		.byte	0xd
 1919 0df1 970F0000 		.4byte	0xf97
 1920 0df5 00       		.byte	0
 1921 0df6 09       		.uleb128 0x9
 1922 0df7 31020000 		.4byte	.LASF186
 1923 0dfb 13       		.byte	0x13
 1924 0dfc 36       		.byte	0x36
 1925 0dfd 0D       		.byte	0xd
 1926 0dfe 6B000000 		.4byte	0x6b
 1927 0e02 04       		.byte	0x4
 1928 0e03 09       		.uleb128 0x9
 1929 0e04 95090000 		.4byte	.LASF87
 1930 0e08 13       		.byte	0x13
 1931 0e09 37       		.byte	0x37
 1932 0e0a 0D       		.byte	0xd
 1933 0e0b 6B000000 		.4byte	0x6b
 1934 0e0f 05       		.byte	0x5
 1935 0e10 09       		.uleb128 0x9
 1936 0e11 810A0000 		.4byte	.LASF187
 1937 0e15 13       		.byte	0x13
 1938 0e16 38       		.byte	0x38
ARM GAS  /tmp/ccoHvmwk.s 			page 35


 1939 0e17 0D       		.byte	0xd
 1940 0e18 83000000 		.4byte	0x83
 1941 0e1c 06       		.byte	0x6
 1942 0e1d 09       		.uleb128 0x9
 1943 0e1e BE040000 		.4byte	.LASF188
 1944 0e22 13       		.byte	0x13
 1945 0e23 39       		.byte	0x39
 1946 0e24 0D       		.byte	0xd
 1947 0e25 6B000000 		.4byte	0x6b
 1948 0e29 08       		.byte	0x8
 1949 0e2a 09       		.uleb128 0x9
 1950 0e2b EF0D0000 		.4byte	.LASF189
 1951 0e2f 13       		.byte	0x13
 1952 0e30 3A       		.byte	0x3a
 1953 0e31 0D       		.byte	0xd
 1954 0e32 6B000000 		.4byte	0x6b
 1955 0e36 09       		.byte	0x9
 1956 0e37 09       		.uleb128 0x9
 1957 0e38 A4050000 		.4byte	.LASF190
 1958 0e3c 13       		.byte	0x13
 1959 0e3d 3B       		.byte	0x3b
 1960 0e3e 0D       		.byte	0xd
 1961 0e3f 6B000000 		.4byte	0x6b
 1962 0e43 0A       		.byte	0xa
 1963 0e44 09       		.uleb128 0x9
 1964 0e45 1F000000 		.4byte	.LASF191
 1965 0e49 13       		.byte	0x13
 1966 0e4a 3C       		.byte	0x3c
 1967 0e4b 0D       		.byte	0xd
 1968 0e4c 6B000000 		.4byte	0x6b
 1969 0e50 0B       		.byte	0xb
 1970 0e51 09       		.uleb128 0x9
 1971 0e52 00000000 		.4byte	.LASF192
 1972 0e56 13       		.byte	0x13
 1973 0e57 3D       		.byte	0x3d
 1974 0e58 0D       		.byte	0xd
 1975 0e59 6B000000 		.4byte	0x6b
 1976 0e5d 0C       		.byte	0xc
 1977 0e5e 09       		.uleb128 0x9
 1978 0e5f ED070000 		.4byte	.LASF193
 1979 0e63 13       		.byte	0x13
 1980 0e64 3E       		.byte	0x3e
 1981 0e65 0D       		.byte	0xd
 1982 0e66 6B000000 		.4byte	0x6b
 1983 0e6a 0D       		.byte	0xd
 1984 0e6b 09       		.uleb128 0x9
 1985 0e6c C8010000 		.4byte	.LASF194
 1986 0e70 13       		.byte	0x13
 1987 0e71 3F       		.byte	0x3f
 1988 0e72 0D       		.byte	0xd
 1989 0e73 6B000000 		.4byte	0x6b
 1990 0e77 0E       		.byte	0xe
 1991 0e78 09       		.uleb128 0x9
 1992 0e79 D8090000 		.4byte	.LASF195
 1993 0e7d 13       		.byte	0x13
 1994 0e7e 40       		.byte	0x40
 1995 0e7f 0D       		.byte	0xd
ARM GAS  /tmp/ccoHvmwk.s 			page 36


 1996 0e80 6B000000 		.4byte	0x6b
 1997 0e84 0F       		.byte	0xf
 1998 0e85 09       		.uleb128 0x9
 1999 0e86 7F060000 		.4byte	.LASF196
 2000 0e8a 13       		.byte	0x13
 2001 0e8b 41       		.byte	0x41
 2002 0e8c 0D       		.byte	0xd
 2003 0e8d 6B000000 		.4byte	0x6b
 2004 0e91 10       		.byte	0x10
 2005 0e92 09       		.uleb128 0x9
 2006 0e93 71050000 		.4byte	.LASF197
 2007 0e97 13       		.byte	0x13
 2008 0e98 42       		.byte	0x42
 2009 0e99 0D       		.byte	0xd
 2010 0e9a 6B000000 		.4byte	0x6b
 2011 0e9e 11       		.byte	0x11
 2012 0e9f 09       		.uleb128 0x9
 2013 0ea0 4F0E0000 		.4byte	.LASF198
 2014 0ea4 13       		.byte	0x13
 2015 0ea5 43       		.byte	0x43
 2016 0ea6 0D       		.byte	0xd
 2017 0ea7 6B000000 		.4byte	0x6b
 2018 0eab 12       		.byte	0x12
 2019 0eac 09       		.uleb128 0x9
 2020 0ead 6D040000 		.4byte	.LASF199
 2021 0eb1 13       		.byte	0x13
 2022 0eb2 44       		.byte	0x44
 2023 0eb3 0D       		.byte	0xd
 2024 0eb4 6B000000 		.4byte	0x6b
 2025 0eb8 13       		.byte	0x13
 2026 0eb9 09       		.uleb128 0x9
 2027 0eba 39000000 		.4byte	.LASF200
 2028 0ebe 13       		.byte	0x13
 2029 0ebf 45       		.byte	0x45
 2030 0ec0 0D       		.byte	0xd
 2031 0ec1 6B000000 		.4byte	0x6b
 2032 0ec5 14       		.byte	0x14
 2033 0ec6 09       		.uleb128 0x9
 2034 0ec7 D9040000 		.4byte	.LASF201
 2035 0ecb 13       		.byte	0x13
 2036 0ecc 46       		.byte	0x46
 2037 0ecd 0D       		.byte	0xd
 2038 0ece 6B000000 		.4byte	0x6b
 2039 0ed2 15       		.byte	0x15
 2040 0ed3 09       		.uleb128 0x9
 2041 0ed4 B2080000 		.4byte	.LASF202
 2042 0ed8 13       		.byte	0x13
 2043 0ed9 47       		.byte	0x47
 2044 0eda 0D       		.byte	0xd
 2045 0edb A70F0000 		.4byte	0xfa7
 2046 0edf 16       		.byte	0x16
 2047 0ee0 09       		.uleb128 0x9
 2048 0ee1 CA0A0000 		.4byte	.LASF203
 2049 0ee5 13       		.byte	0x13
 2050 0ee6 48       		.byte	0x48
 2051 0ee7 0D       		.byte	0xd
 2052 0ee8 6B000000 		.4byte	0x6b
ARM GAS  /tmp/ccoHvmwk.s 			page 37


 2053 0eec 1A       		.byte	0x1a
 2054 0eed 09       		.uleb128 0x9
 2055 0eee 4A040000 		.4byte	.LASF204
 2056 0ef2 13       		.byte	0x13
 2057 0ef3 49       		.byte	0x49
 2058 0ef4 0D       		.byte	0xd
 2059 0ef5 6B000000 		.4byte	0x6b
 2060 0ef9 1B       		.byte	0x1b
 2061 0efa 09       		.uleb128 0x9
 2062 0efb 240E0000 		.4byte	.LASF205
 2063 0eff 13       		.byte	0x13
 2064 0f00 4A       		.byte	0x4a
 2065 0f01 0D       		.byte	0xd
 2066 0f02 6B000000 		.4byte	0x6b
 2067 0f06 1C       		.byte	0x1c
 2068 0f07 09       		.uleb128 0x9
 2069 0f08 A10C0000 		.4byte	.LASF206
 2070 0f0c 13       		.byte	0x13
 2071 0f0d 4B       		.byte	0x4b
 2072 0f0e 0D       		.byte	0xd
 2073 0f0f 6B000000 		.4byte	0x6b
 2074 0f13 1D       		.byte	0x1d
 2075 0f14 09       		.uleb128 0x9
 2076 0f15 FD000000 		.4byte	.LASF207
 2077 0f19 13       		.byte	0x13
 2078 0f1a 4C       		.byte	0x4c
 2079 0f1b 0D       		.byte	0xd
 2080 0f1c 6B000000 		.4byte	0x6b
 2081 0f20 1E       		.byte	0x1e
 2082 0f21 09       		.uleb128 0x9
 2083 0f22 AF010000 		.4byte	.LASF208
 2084 0f26 13       		.byte	0x13
 2085 0f27 4E       		.byte	0x4e
 2086 0f28 0D       		.byte	0xd
 2087 0f29 6B000000 		.4byte	0x6b
 2088 0f2d 1F       		.byte	0x1f
 2089 0f2e 09       		.uleb128 0x9
 2090 0f2f 1B080000 		.4byte	.LASF209
 2091 0f33 13       		.byte	0x13
 2092 0f34 4F       		.byte	0x4f
 2093 0f35 0D       		.byte	0xd
 2094 0f36 6B000000 		.4byte	0x6b
 2095 0f3a 20       		.byte	0x20
 2096 0f3b 09       		.uleb128 0x9
 2097 0f3c 5D010000 		.4byte	.LASF210
 2098 0f40 13       		.byte	0x13
 2099 0f41 50       		.byte	0x50
 2100 0f42 0D       		.byte	0xd
 2101 0f43 A70F0000 		.4byte	0xfa7
 2102 0f47 21       		.byte	0x21
 2103 0f48 09       		.uleb128 0x9
 2104 0f49 720C0000 		.4byte	.LASF211
 2105 0f4d 13       		.byte	0x13
 2106 0f4e 51       		.byte	0x51
 2107 0f4f 0D       		.byte	0xd
 2108 0f50 6B000000 		.4byte	0x6b
 2109 0f54 25       		.byte	0x25
ARM GAS  /tmp/ccoHvmwk.s 			page 38


 2110 0f55 09       		.uleb128 0x9
 2111 0f56 F4060000 		.4byte	.LASF212
 2112 0f5a 13       		.byte	0x13
 2113 0f5b 53       		.byte	0x53
 2114 0f5c 0D       		.byte	0xd
 2115 0f5d 6B000000 		.4byte	0x6b
 2116 0f61 26       		.byte	0x26
 2117 0f62 09       		.uleb128 0x9
 2118 0f63 06020000 		.4byte	.LASF213
 2119 0f67 13       		.byte	0x13
 2120 0f68 54       		.byte	0x54
 2121 0f69 0D       		.byte	0xd
 2122 0f6a 6B000000 		.4byte	0x6b
 2123 0f6e 27       		.byte	0x27
 2124 0f6f 09       		.uleb128 0x9
 2125 0f70 4A0B0000 		.4byte	.LASF214
 2126 0f74 13       		.byte	0x13
 2127 0f75 55       		.byte	0x55
 2128 0f76 0D       		.byte	0xd
 2129 0f77 6B000000 		.4byte	0x6b
 2130 0f7b 28       		.byte	0x28
 2131 0f7c 09       		.uleb128 0x9
 2132 0f7d 0B040000 		.4byte	.LASF215
 2133 0f81 13       		.byte	0x13
 2134 0f82 56       		.byte	0x56
 2135 0f83 0D       		.byte	0xd
 2136 0f84 6B000000 		.4byte	0x6b
 2137 0f88 29       		.byte	0x29
 2138 0f89 09       		.uleb128 0x9
 2139 0f8a DA0A0000 		.4byte	.LASF216
 2140 0f8e 13       		.byte	0x13
 2141 0f8f 57       		.byte	0x57
 2142 0f90 0D       		.byte	0xd
 2143 0f91 6B000000 		.4byte	0x6b
 2144 0f95 2A       		.byte	0x2a
 2145 0f96 00       		.byte	0
 2146 0f97 15       		.uleb128 0x15
 2147 0f98 5E030000 		.4byte	0x35e
 2148 0f9c A70F0000 		.4byte	0xfa7
 2149 0fa0 16       		.uleb128 0x16
 2150 0fa1 30000000 		.4byte	0x30
 2151 0fa5 03       		.byte	0x3
 2152 0fa6 00       		.byte	0
 2153 0fa7 15       		.uleb128 0x15
 2154 0fa8 6B000000 		.4byte	0x6b
 2155 0fac B70F0000 		.4byte	0xfb7
 2156 0fb0 16       		.uleb128 0x16
 2157 0fb1 30000000 		.4byte	0x30
 2158 0fb5 03       		.byte	0x3
 2159 0fb6 00       		.byte	0
 2160 0fb7 03       		.uleb128 0x3
 2161 0fb8 E50D0000 		.4byte	.LASF217
 2162 0fbc 13       		.byte	0x13
 2163 0fbd 58       		.byte	0x58
 2164 0fbe 03       		.byte	0x3
 2165 0fbf E00D0000 		.4byte	0xde0
 2166 0fc3 06       		.uleb128 0x6
ARM GAS  /tmp/ccoHvmwk.s 			page 39


 2167 0fc4 B70F0000 		.4byte	0xfb7
 2168 0fc8 18       		.uleb128 0x18
 2169 0fc9 C8000000 		.4byte	.LASF218
 2170 0fcd 13       		.byte	0x13
 2171 0fce 7F       		.byte	0x7f
 2172 0fcf 1D       		.byte	0x1d
 2173 0fd0 C30F0000 		.4byte	0xfc3
 2174 0fd4 03       		.uleb128 0x3
 2175 0fd5 890C0000 		.4byte	.LASF219
 2176 0fd9 11       		.byte	0x11
 2177 0fda 34       		.byte	0x34
 2178 0fdb 19       		.byte	0x19
 2179 0fdc 770C0000 		.4byte	0xc77
 2180 0fe0 0D       		.uleb128 0xd
 2181 0fe1 04       		.byte	0x4
 2182 0fe2 D40F0000 		.4byte	0xfd4
 2183 0fe6 04       		.uleb128 0x4
 2184 0fe7 01       		.byte	0x1
 2185 0fe8 02       		.byte	0x2
 2186 0fe9 FB030000 		.4byte	.LASF220
 2187 0fed 03       		.uleb128 0x3
 2188 0fee A5080000 		.4byte	.LASF221
 2189 0ff2 14       		.byte	0x14
 2190 0ff3 47       		.byte	0x47
 2191 0ff4 11       		.byte	0x11
 2192 0ff5 F90F0000 		.4byte	0xff9
 2193 0ff9 0D       		.uleb128 0xd
 2194 0ffa 04       		.byte	0x4
 2195 0ffb FF0F0000 		.4byte	0xfff
 2196 0fff 20       		.uleb128 0x20
 2197 1000 AD040000 		.4byte	0x4ad
 2198 1004 13100000 		.4byte	0x1013
 2199 1008 21       		.uleb128 0x21
 2200 1009 24000000 		.4byte	0x24
 2201 100d 21       		.uleb128 0x21
 2202 100e 30000000 		.4byte	0x30
 2203 1012 00       		.byte	0
 2204 1013 0E       		.uleb128 0xe
 2205 1014 08       		.byte	0x8
 2206 1015 14       		.byte	0x14
 2207 1016 51       		.byte	0x51
 2208 1017 09       		.byte	0x9
 2209 1018 37100000 		.4byte	0x1037
 2210 101c 09       		.uleb128 0x9
 2211 101d 990C0000 		.4byte	.LASF222
 2212 1021 14       		.byte	0x14
 2213 1022 55       		.byte	0x55
 2214 1023 0C       		.byte	0xc
 2215 1024 37100000 		.4byte	0x1037
 2216 1028 00       		.byte	0
 2217 1029 09       		.uleb128 0x9
 2218 102a 5F060000 		.4byte	.LASF223
 2219 102e 14       		.byte	0x14
 2220 102f 59       		.byte	0x59
 2221 1030 0C       		.byte	0xc
 2222 1031 37100000 		.4byte	0x1037
 2223 1035 04       		.byte	0x4
ARM GAS  /tmp/ccoHvmwk.s 			page 40


 2224 1036 00       		.byte	0
 2225 1037 0D       		.uleb128 0xd
 2226 1038 04       		.byte	0x4
 2227 1039 6B000000 		.4byte	0x6b
 2228 103d 03       		.uleb128 0x3
 2229 103e F2020000 		.4byte	.LASF224
 2230 1042 14       		.byte	0x14
 2231 1043 5A       		.byte	0x5a
 2232 1044 03       		.byte	0x3
 2233 1045 13100000 		.4byte	0x1013
 2234 1049 18       		.uleb128 0x18
 2235 104a 440E0000 		.4byte	.LASF225
 2236 104e 14       		.byte	0x14
 2237 104f 75       		.byte	0x75
 2238 1050 12       		.byte	0x12
 2239 1051 3D100000 		.4byte	0x103d
 2240 1055 07       		.uleb128 0x7
 2241 1056 8C060000 		.4byte	.LASF226
 2242 105a 04       		.byte	0x4
 2243 105b 15       		.byte	0x15
 2244 105c 38       		.byte	0x38
 2245 105d 08       		.byte	0x8
 2246 105e 70100000 		.4byte	0x1070
 2247 1062 09       		.uleb128 0x9
 2248 1063 590E0000 		.4byte	.LASF68
 2249 1067 15       		.byte	0x15
 2250 1068 39       		.byte	0x39
 2251 1069 1A       		.byte	0x1a
 2252 106a 70100000 		.4byte	0x1070
 2253 106e 00       		.byte	0
 2254 106f 00       		.byte	0
 2255 1070 0D       		.uleb128 0xd
 2256 1071 04       		.byte	0x4
 2257 1072 55100000 		.4byte	0x1055
 2258 1076 0E       		.uleb128 0xe
 2259 1077 10       		.byte	0x10
 2260 1078 15       		.byte	0x15
 2261 1079 40       		.byte	0x40
 2262 107a 09       		.byte	0x9
 2263 107b B4100000 		.4byte	0x10b4
 2264 107f 09       		.uleb128 0x9
 2265 1080 590E0000 		.4byte	.LASF68
 2266 1084 15       		.byte	0x15
 2267 1085 41       		.byte	0x41
 2268 1086 1A       		.byte	0x1a
 2269 1087 70100000 		.4byte	0x1070
 2270 108b 00       		.byte	0
 2271 108c 09       		.uleb128 0x9
 2272 108d 89090000 		.4byte	.LASF227
 2273 1091 15       		.byte	0x15
 2274 1092 42       		.byte	0x42
 2275 1093 19       		.byte	0x19
 2276 1094 24000000 		.4byte	0x24
 2277 1098 04       		.byte	0x4
 2278 1099 09       		.uleb128 0x9
 2279 109a A7070000 		.4byte	.LASF228
 2280 109e 15       		.byte	0x15
ARM GAS  /tmp/ccoHvmwk.s 			page 41


 2281 109f 44       		.byte	0x44
 2282 10a0 19       		.byte	0x19
 2283 10a1 30000000 		.4byte	0x30
 2284 10a5 08       		.byte	0x8
 2285 10a6 09       		.uleb128 0x9
 2286 10a7 D1000000 		.4byte	.LASF229
 2287 10ab 15       		.byte	0x15
 2288 10ac 45       		.byte	0x45
 2289 10ad 19       		.byte	0x19
 2290 10ae ED0F0000 		.4byte	0xfed
 2291 10b2 0C       		.byte	0xc
 2292 10b3 00       		.byte	0
 2293 10b4 03       		.uleb128 0x3
 2294 10b5 BC0A0000 		.4byte	.LASF230
 2295 10b9 15       		.byte	0x15
 2296 10ba 47       		.byte	0x47
 2297 10bb 03       		.byte	0x3
 2298 10bc 76100000 		.4byte	0x1076
 2299 10c0 07       		.uleb128 0x7
 2300 10c1 46010000 		.4byte	.LASF231
 2301 10c5 10       		.byte	0x10
 2302 10c6 16       		.byte	0x16
 2303 10c7 A9       		.byte	0xa9
 2304 10c8 10       		.byte	0x10
 2305 10c9 F5100000 		.4byte	0x10f5
 2306 10cd 09       		.uleb128 0x9
 2307 10ce 590E0000 		.4byte	.LASF68
 2308 10d2 16       		.byte	0x16
 2309 10d3 AD       		.byte	0xad
 2310 10d4 1A       		.byte	0x1a
 2311 10d5 F5100000 		.4byte	0x10f5
 2312 10d9 00       		.byte	0
 2313 10da 09       		.uleb128 0x9
 2314 10db 3F0A0000 		.4byte	.LASF36
 2315 10df 16       		.byte	0x16
 2316 10e0 B1       		.byte	0xb1
 2317 10e1 19       		.byte	0x19
 2318 10e2 4A010000 		.4byte	0x14a
 2319 10e6 04       		.byte	0x4
 2320 10e7 09       		.uleb128 0x9
 2321 10e8 5B0B0000 		.4byte	.LASF32
 2322 10ec 16       		.byte	0x16
 2323 10ed B3       		.byte	0xb3
 2324 10ee 19       		.byte	0x19
 2325 10ef FB100000 		.4byte	0x10fb
 2326 10f3 08       		.byte	0x8
 2327 10f4 00       		.byte	0
 2328 10f5 0D       		.uleb128 0xd
 2329 10f6 04       		.byte	0x4
 2330 10f7 C0100000 		.4byte	0x10c0
 2331 10fb 15       		.uleb128 0x15
 2332 10fc 5E030000 		.4byte	0x35e
 2333 1100 0B110000 		.4byte	0x110b
 2334 1104 16       		.uleb128 0x16
 2335 1105 30000000 		.4byte	0x30
 2336 1109 07       		.byte	0x7
 2337 110a 00       		.byte	0
ARM GAS  /tmp/ccoHvmwk.s 			page 42


 2338 110b 03       		.uleb128 0x3
 2339 110c 17050000 		.4byte	.LASF232
 2340 1110 16       		.byte	0x16
 2341 1111 B7       		.byte	0xb7
 2342 1112 03       		.byte	0x3
 2343 1113 C0100000 		.4byte	0x10c0
 2344 1117 07       		.uleb128 0x7
 2345 1118 690E0000 		.4byte	.LASF233
 2346 111c 04       		.byte	0x4
 2347 111d 16       		.byte	0x16
 2348 111e BC       		.byte	0xbc
 2349 111f 10       		.byte	0x10
 2350 1120 32110000 		.4byte	0x1132
 2351 1124 09       		.uleb128 0x9
 2352 1125 590E0000 		.4byte	.LASF68
 2353 1129 16       		.byte	0x16
 2354 112a BD       		.byte	0xbd
 2355 112b 1A       		.byte	0x1a
 2356 112c 32110000 		.4byte	0x1132
 2357 1130 00       		.byte	0
 2358 1131 00       		.byte	0
 2359 1132 0D       		.uleb128 0xd
 2360 1133 04       		.byte	0x4
 2361 1134 0B110000 		.4byte	0x110b
 2362 1138 03       		.uleb128 0x3
 2363 1139 1F0C0000 		.4byte	.LASF234
 2364 113d 16       		.byte	0x16
 2365 113e BE       		.byte	0xbe
 2366 113f 03       		.byte	0x3
 2367 1140 17110000 		.4byte	0x1117
 2368 1144 1B       		.uleb128 0x1b
 2369 1145 55070000 		.4byte	.LASF235
 2370 1149 48       		.byte	0x48
 2371 114a 16       		.byte	0x16
 2372 114b 2001     		.2byte	0x120
 2373 114d 10       		.byte	0x10
 2374 114e D1110000 		.4byte	0x11d1
 2375 1152 0A       		.uleb128 0xa
 2376 1153 6D747800 		.ascii	"mtx\000"
 2377 1157 16       		.byte	0x16
 2378 1158 2501     		.2byte	0x125
 2379 115a 19       		.byte	0x19
 2380 115b D40F0000 		.4byte	0xfd4
 2381 115f 00       		.byte	0
 2382 1160 0B       		.uleb128 0xb
 2383 1161 97010000 		.4byte	.LASF236
 2384 1165 16       		.byte	0x16
 2385 1166 2C01     		.2byte	0x12c
 2386 1168 19       		.byte	0x19
 2387 1169 38110000 		.4byte	0x1138
 2388 116d 10       		.byte	0x10
 2389 116e 0B       		.uleb128 0xb
 2390 116f 87020000 		.4byte	.LASF237
 2391 1173 16       		.byte	0x16
 2392 1174 3001     		.2byte	0x130
 2393 1176 19       		.byte	0x19
 2394 1177 B4100000 		.4byte	0x10b4
ARM GAS  /tmp/ccoHvmwk.s 			page 43


 2395 117b 14       		.byte	0x14
 2396 117c 0B       		.uleb128 0xb
 2397 117d 39090000 		.4byte	.LASF238
 2398 1181 16       		.byte	0x16
 2399 1182 3501     		.2byte	0x135
 2400 1184 19       		.byte	0x19
 2401 1185 38110000 		.4byte	0x1138
 2402 1189 24       		.byte	0x24
 2403 118a 0B       		.uleb128 0xb
 2404 118b 41040000 		.4byte	.LASF239
 2405 118f 16       		.byte	0x16
 2406 1190 3B01     		.2byte	0x13b
 2407 1192 19       		.byte	0x19
 2408 1193 38110000 		.4byte	0x1138
 2409 1197 28       		.byte	0x28
 2410 1198 0B       		.uleb128 0xb
 2411 1199 5C050000 		.4byte	.LASF240
 2412 119d 16       		.byte	0x16
 2413 119e 3F01     		.2byte	0x13f
 2414 11a0 19       		.byte	0x19
 2415 11a1 B4100000 		.4byte	0x10b4
 2416 11a5 2C       		.byte	0x2c
 2417 11a6 0B       		.uleb128 0xb
 2418 11a7 630A0000 		.4byte	.LASF241
 2419 11ab 16       		.byte	0x16
 2420 11ac 4501     		.2byte	0x145
 2421 11ae 19       		.byte	0x19
 2422 11af 38110000 		.4byte	0x1138
 2423 11b3 3C       		.byte	0x3c
 2424 11b4 0B       		.uleb128 0xb
 2425 11b5 35060000 		.4byte	.LASF242
 2426 11b9 16       		.byte	0x16
 2427 11ba 4B01     		.2byte	0x14b
 2428 11bc 19       		.byte	0x19
 2429 11bd 38110000 		.4byte	0x1138
 2430 11c1 40       		.byte	0x40
 2431 11c2 0B       		.uleb128 0xb
 2432 11c3 E8040000 		.4byte	.LASF243
 2433 11c7 16       		.byte	0x16
 2434 11c8 5101     		.2byte	0x151
 2435 11ca 19       		.byte	0x19
 2436 11cb 38110000 		.4byte	0x1138
 2437 11cf 44       		.byte	0x44
 2438 11d0 00       		.byte	0
 2439 11d1 1A       		.uleb128 0x1a
 2440 11d2 27090000 		.4byte	.LASF244
 2441 11d6 16       		.byte	0x16
 2442 11d7 5301     		.2byte	0x153
 2443 11d9 03       		.byte	0x3
 2444 11da 44110000 		.4byte	0x1144
 2445 11de 17       		.uleb128 0x17
 2446 11df 580A0000 		.4byte	.LASF245
 2447 11e3 16       		.byte	0x16
 2448 11e4 5E01     		.2byte	0x15e
 2449 11e6 1A       		.byte	0x1a
 2450 11e7 D1110000 		.4byte	0x11d1
 2451 11eb 1A       		.uleb128 0x1a
ARM GAS  /tmp/ccoHvmwk.s 			page 44


 2452 11ec 72090000 		.4byte	.LASF246
 2453 11f0 17       		.byte	0x17
 2454 11f1 3E01     		.2byte	0x13e
 2455 11f3 10       		.byte	0x10
 2456 11f4 F8110000 		.4byte	0x11f8
 2457 11f8 0D       		.uleb128 0xd
 2458 11f9 04       		.byte	0x4
 2459 11fa FE110000 		.4byte	0x11fe
 2460 11fe 22       		.uleb128 0x22
 2461 11ff 0E120000 		.4byte	0x120e
 2462 1203 21       		.uleb128 0x21
 2463 1204 AD040000 		.4byte	0x4ad
 2464 1208 21       		.uleb128 0x21
 2465 1209 96000000 		.4byte	0x96
 2466 120d 00       		.byte	0
 2467 120e 19       		.uleb128 0x19
 2468 120f 10       		.byte	0x10
 2469 1210 17       		.byte	0x17
 2470 1211 4301     		.2byte	0x143
 2471 1213 09       		.byte	0x9
 2472 1214 7B120000 		.4byte	0x127b
 2473 1218 0A       		.uleb128 0xa
 2474 1219 646D6100 		.ascii	"dma\000"
 2475 121d 17       		.byte	0x17
 2476 121e 4401     		.2byte	0x144
 2477 1220 1A       		.byte	0x1a
 2478 1221 7B120000 		.4byte	0x127b
 2479 1225 00       		.byte	0
 2480 1226 0B       		.uleb128 0xb
 2481 1227 EE050000 		.4byte	.LASF247
 2482 122b 17       		.byte	0x17
 2483 122c 4501     		.2byte	0x145
 2484 122e 1A       		.byte	0x1a
 2485 122f 81120000 		.4byte	0x1281
 2486 1233 04       		.byte	0x4
 2487 1234 0B       		.uleb128 0xb
 2488 1235 42090000 		.4byte	.LASF248
 2489 1239 17       		.byte	0x17
 2490 123a 4601     		.2byte	0x146
 2491 123c 19       		.byte	0x19
 2492 123d 96000000 		.4byte	0x96
 2493 1241 08       		.byte	0x8
 2494 1242 0B       		.uleb128 0xb
 2495 1243 F60A0000 		.4byte	.LASF249
 2496 1247 17       		.byte	0x17
 2497 1248 4D01     		.2byte	0x14d
 2498 124a 19       		.byte	0x19
 2499 124b 6B000000 		.4byte	0x6b
 2500 124f 0C       		.byte	0xc
 2501 1250 0B       		.uleb128 0xb
 2502 1251 E8050000 		.4byte	.LASF250
 2503 1255 17       		.byte	0x17
 2504 1256 4F01     		.2byte	0x14f
 2505 1258 19       		.byte	0x19
 2506 1259 6B000000 		.4byte	0x6b
 2507 125d 0D       		.byte	0xd
 2508 125e 0B       		.uleb128 0xb
ARM GAS  /tmp/ccoHvmwk.s 			page 45


 2509 125f F7070000 		.4byte	.LASF251
 2510 1263 17       		.byte	0x17
 2511 1264 5101     		.2byte	0x151
 2512 1266 19       		.byte	0x19
 2513 1267 6B000000 		.4byte	0x6b
 2514 126b 0E       		.byte	0xe
 2515 126c 0B       		.uleb128 0xb
 2516 126d 510A0000 		.4byte	.LASF252
 2517 1271 17       		.byte	0x17
 2518 1272 5201     		.2byte	0x152
 2519 1274 19       		.byte	0x19
 2520 1275 6B000000 		.4byte	0x6b
 2521 1279 0F       		.byte	0xf
 2522 127a 00       		.byte	0
 2523 127b 0D       		.uleb128 0xd
 2524 127c 04       		.byte	0x4
 2525 127d 59090000 		.4byte	0x959
 2526 1281 0D       		.uleb128 0xd
 2527 1282 04       		.byte	0x4
 2528 1283 25090000 		.4byte	0x925
 2529 1287 1A       		.uleb128 0x1a
 2530 1288 3F060000 		.4byte	.LASF253
 2531 128c 17       		.byte	0x17
 2532 128d 5301     		.2byte	0x153
 2533 128f 03       		.byte	0x3
 2534 1290 0E120000 		.4byte	0x120e
 2535 1294 06       		.uleb128 0x6
 2536 1295 87120000 		.4byte	0x1287
 2537 1299 15       		.uleb128 0x15
 2538 129a 94120000 		.4byte	0x1294
 2539 129e A9120000 		.4byte	0x12a9
 2540 12a2 16       		.uleb128 0x16
 2541 12a3 30000000 		.4byte	0x30
 2542 12a7 0B       		.byte	0xb
 2543 12a8 00       		.byte	0
 2544 12a9 06       		.uleb128 0x6
 2545 12aa 99120000 		.4byte	0x1299
 2546 12ae 17       		.uleb128 0x17
 2547 12af 16060000 		.4byte	.LASF254
 2548 12b3 17       		.byte	0x17
 2549 12b4 0F02     		.2byte	0x20f
 2550 12b6 21       		.byte	0x21
 2551 12b7 A9120000 		.4byte	0x12a9
 2552 12bb 1C       		.uleb128 0x1c
 2553 12bc 07       		.byte	0x7
 2554 12bd 01       		.byte	0x1
 2555 12be 7C000000 		.4byte	0x7c
 2556 12c2 18       		.byte	0x18
 2557 12c3 46       		.byte	0x46
 2558 12c4 0E       		.byte	0xe
 2559 12c5 EE120000 		.4byte	0x12ee
 2560 12c9 1D       		.uleb128 0x1d
 2561 12ca D7030000 		.4byte	.LASF255
 2562 12ce 00       		.byte	0
 2563 12cf 1D       		.uleb128 0x1d
 2564 12d0 FC0A0000 		.4byte	.LASF256
 2565 12d4 01       		.byte	0x1
ARM GAS  /tmp/ccoHvmwk.s 			page 46


 2566 12d5 1D       		.uleb128 0x1d
 2567 12d6 F1030000 		.4byte	.LASF257
 2568 12da 02       		.byte	0x2
 2569 12db 1D       		.uleb128 0x1d
 2570 12dc E7000000 		.4byte	.LASF258
 2571 12e0 03       		.byte	0x3
 2572 12e1 1D       		.uleb128 0x1d
 2573 12e2 BA060000 		.4byte	.LASF259
 2574 12e6 04       		.byte	0x4
 2575 12e7 1D       		.uleb128 0x1d
 2576 12e8 63040000 		.4byte	.LASF260
 2577 12ec 05       		.byte	0x5
 2578 12ed 00       		.byte	0
 2579 12ee 03       		.uleb128 0x3
 2580 12ef F2000000 		.4byte	.LASF261
 2581 12f3 18       		.byte	0x18
 2582 12f4 4D       		.byte	0x4d
 2583 12f5 03       		.byte	0x3
 2584 12f6 BB120000 		.4byte	0x12bb
 2585 12fa 03       		.uleb128 0x3
 2586 12fb 350A0000 		.4byte	.LASF262
 2587 12ff 18       		.byte	0x18
 2588 1300 52       		.byte	0x52
 2589 1301 1F       		.byte	0x1f
 2590 1302 06130000 		.4byte	0x1306
 2591 1306 07       		.uleb128 0x7
 2592 1307 18090000 		.4byte	.LASF263
 2593 130b 38       		.byte	0x38
 2594 130c 18       		.byte	0x18
 2595 130d A0       		.byte	0xa0
 2596 130e 08       		.byte	0x8
 2597 130f A3130000 		.4byte	0x13a3
 2598 1313 09       		.uleb128 0x9
 2599 1314 75010000 		.4byte	.LASF34
 2600 1318 18       		.byte	0x18
 2601 1319 A4       		.byte	0xa4
 2602 131a 1D       		.byte	0x1d
 2603 131b EE120000 		.4byte	0x12ee
 2604 131f 00       		.byte	0
 2605 1320 09       		.uleb128 0x9
 2606 1321 6E010000 		.4byte	.LASF51
 2607 1325 18       		.byte	0x18
 2608 1326 A8       		.byte	0xa8
 2609 1327 1E       		.byte	0x1e
 2610 1328 2A150000 		.4byte	0x152a
 2611 132c 04       		.byte	0x4
 2612 132d 09       		.uleb128 0x9
 2613 132e 3B0B0000 		.4byte	.LASF264
 2614 1332 18       		.byte	0x18
 2615 1333 AC       		.byte	0xac
 2616 1334 1E       		.byte	0x1e
 2617 1335 30150000 		.4byte	0x1530
 2618 1339 08       		.byte	0x8
 2619 133a 09       		.uleb128 0x9
 2620 133b 9C070000 		.4byte	.LASF265
 2621 133f 18       		.byte	0x18
 2622 1340 B0       		.byte	0xb0
ARM GAS  /tmp/ccoHvmwk.s 			page 47


 2623 1341 1D       		.byte	0x1d
 2624 1342 24000000 		.4byte	0x24
 2625 1346 0C       		.byte	0xc
 2626 1347 09       		.uleb128 0x9
 2627 1348 5E040000 		.4byte	.LASF266
 2628 134c 18       		.byte	0x18
 2629 134d B4       		.byte	0xb4
 2630 134e 1E       		.byte	0x1e
 2631 134f 36150000 		.4byte	0x1536
 2632 1353 10       		.byte	0x10
 2633 1354 09       		.uleb128 0x9
 2634 1355 430B0000 		.4byte	.LASF267
 2635 1359 18       		.byte	0x18
 2636 135a B9       		.byte	0xb9
 2637 135b 1D       		.byte	0x1d
 2638 135c 990B0000 		.4byte	0xb99
 2639 1360 14       		.byte	0x14
 2640 1361 09       		.uleb128 0x9
 2641 1362 AD070000 		.4byte	.LASF268
 2642 1366 18       		.byte	0x18
 2643 1367 BF       		.byte	0xbf
 2644 1368 1D       		.byte	0x1d
 2645 1369 D40F0000 		.4byte	0xfd4
 2646 136d 18       		.byte	0x18
 2647 136e 09       		.uleb128 0x9
 2648 136f 8E070000 		.4byte	.LASF269
 2649 1373 18       		.byte	0x18
 2650 1374 C5       		.byte	0xc5
 2651 1375 03       		.byte	0x3
 2652 1376 3C150000 		.4byte	0x153c
 2653 137a 28       		.byte	0x28
 2654 137b 09       		.uleb128 0x9
 2655 137c 01020000 		.4byte	.LASF270
 2656 1380 18       		.byte	0x18
 2657 1381 C5       		.byte	0xc5
 2658 1382 03       		.byte	0x3
 2659 1383 42150000 		.4byte	0x1542
 2660 1387 2C       		.byte	0x2c
 2661 1388 09       		.uleb128 0x9
 2662 1389 35040000 		.4byte	.LASF271
 2663 138d 18       		.byte	0x18
 2664 138e C5       		.byte	0xc5
 2665 138f 03       		.byte	0x3
 2666 1390 48150000 		.4byte	0x1548
 2667 1394 30       		.byte	0x30
 2668 1395 09       		.uleb128 0x9
 2669 1396 36020000 		.4byte	.LASF272
 2670 139a 18       		.byte	0x18
 2671 139b C5       		.byte	0xc5
 2672 139c 03       		.byte	0x3
 2673 139d 96000000 		.4byte	0x96
 2674 13a1 34       		.byte	0x34
 2675 13a2 00       		.byte	0
 2676 13a3 03       		.uleb128 0x3
 2677 13a4 800E0000 		.4byte	.LASF273
 2678 13a8 18       		.byte	0x18
 2679 13a9 57       		.byte	0x57
ARM GAS  /tmp/ccoHvmwk.s 			page 48


 2680 13aa 1F       		.byte	0x1f
 2681 13ab B4130000 		.4byte	0x13b4
 2682 13af 06       		.uleb128 0x6
 2683 13b0 A3130000 		.4byte	0x13a3
 2684 13b4 07       		.uleb128 0x7
 2685 13b5 82080000 		.4byte	.LASF274
 2686 13b9 04       		.byte	0x4
 2687 13ba 18       		.byte	0x18
 2688 13bb 98       		.byte	0x98
 2689 13bc 08       		.byte	0x8
 2690 13bd CF130000 		.4byte	0x13cf
 2691 13c1 09       		.uleb128 0x9
 2692 13c2 3A010000 		.4byte	.LASF275
 2693 13c6 18       		.byte	0x18
 2694 13c7 9A       		.byte	0x9a
 2695 13c8 03       		.byte	0x3
 2696 13c9 96000000 		.4byte	0x96
 2697 13cd 00       		.byte	0
 2698 13ce 00       		.byte	0
 2699 13cf 03       		.uleb128 0x3
 2700 13d0 A0060000 		.4byte	.LASF276
 2701 13d4 18       		.byte	0x18
 2702 13d5 61       		.byte	0x61
 2703 13d6 2C       		.byte	0x2c
 2704 13d7 E0130000 		.4byte	0x13e0
 2705 13db 06       		.uleb128 0x6
 2706 13dc CF130000 		.4byte	0x13cf
 2707 13e0 07       		.uleb128 0x7
 2708 13e1 080E0000 		.4byte	.LASF277
 2709 13e5 3C       		.byte	0x3c
 2710 13e6 18       		.byte	0x18
 2711 13e7 80       		.byte	0x80
 2712 13e8 08       		.byte	0x8
 2713 13e9 8A140000 		.4byte	0x148a
 2714 13ed 09       		.uleb128 0x9
 2715 13ee 8F040000 		.4byte	.LASF278
 2716 13f2 18       		.byte	0x18
 2717 13f3 84       		.byte	0x84
 2718 13f4 1D       		.byte	0x1d
 2719 13f5 E60F0000 		.4byte	0xfe6
 2720 13f9 00       		.byte	0
 2721 13fa 09       		.uleb128 0x9
 2722 13fb 4A080000 		.4byte	.LASF279
 2723 13ff 18       		.byte	0x18
 2724 1400 88       		.byte	0x88
 2725 1401 1D       		.byte	0x1d
 2726 1402 97140000 		.4byte	0x1497
 2727 1406 02       		.byte	0x2
 2728 1407 09       		.uleb128 0x9
 2729 1408 F1010000 		.4byte	.LASF280
 2730 140c 18       		.byte	0x18
 2731 140d 8C       		.byte	0x8c
 2732 140e 1D       		.byte	0x1d
 2733 140f E5140000 		.4byte	0x14e5
 2734 1413 04       		.byte	0x4
 2735 1414 09       		.uleb128 0x9
 2736 1415 BF010000 		.4byte	.LASF281
ARM GAS  /tmp/ccoHvmwk.s 			page 49


 2737 1419 18       		.byte	0x18
 2738 141a 90       		.byte	0x90
 2739 141b 1D       		.byte	0x1d
 2740 141c 08150000 		.4byte	0x1508
 2741 1420 08       		.byte	0x8
 2742 1421 09       		.uleb128 0x9
 2743 1422 41010000 		.4byte	.LASF282
 2744 1426 18       		.byte	0x18
 2745 1427 92       		.byte	0x92
 2746 1428 03       		.byte	0x3
 2747 1429 96000000 		.4byte	0x96
 2748 142d 0C       		.byte	0xc
 2749 142e 08       		.uleb128 0x8
 2750 142f 74723100 		.ascii	"tr1\000"
 2751 1433 18       		.byte	0x18
 2752 1434 92       		.byte	0x92
 2753 1435 03       		.byte	0x3
 2754 1436 96000000 		.4byte	0x96
 2755 143a 10       		.byte	0x10
 2756 143b 08       		.uleb128 0x8
 2757 143c 74723200 		.ascii	"tr2\000"
 2758 1440 18       		.byte	0x18
 2759 1441 92       		.byte	0x92
 2760 1442 03       		.byte	0x3
 2761 1443 96000000 		.4byte	0x96
 2762 1447 14       		.byte	0x14
 2763 1448 08       		.uleb128 0x8
 2764 1449 74723300 		.ascii	"tr3\000"
 2765 144d 18       		.byte	0x18
 2766 144e 92       		.byte	0x92
 2767 144f 03       		.byte	0x3
 2768 1450 96000000 		.4byte	0x96
 2769 1454 18       		.byte	0x18
 2770 1455 09       		.uleb128 0x9
 2771 1456 D7070000 		.4byte	.LASF283
 2772 145a 18       		.byte	0x18
 2773 145b 92       		.byte	0x92
 2774 145c 03       		.byte	0x3
 2775 145d 96000000 		.4byte	0x96
 2776 1461 1C       		.byte	0x1c
 2777 1462 09       		.uleb128 0x9
 2778 1463 AE0A0000 		.4byte	.LASF284
 2779 1467 18       		.byte	0x18
 2780 1468 92       		.byte	0x92
 2781 1469 03       		.byte	0x3
 2782 146a 96000000 		.4byte	0x96
 2783 146e 20       		.byte	0x20
 2784 146f 09       		.uleb128 0x9
 2785 1470 5A020000 		.4byte	.LASF285
 2786 1474 18       		.byte	0x18
 2787 1475 92       		.byte	0x92
 2788 1476 03       		.byte	0x3
 2789 1477 28060000 		.4byte	0x628
 2790 147b 24       		.byte	0x24
 2791 147c 08       		.uleb128 0x8
 2792 147d 73717200 		.ascii	"sqr\000"
 2793 1481 18       		.byte	0x18
ARM GAS  /tmp/ccoHvmwk.s 			page 50


 2794 1482 92       		.byte	0x92
 2795 1483 03       		.byte	0x3
 2796 1484 7C080000 		.4byte	0x87c
 2797 1488 2C       		.byte	0x2c
 2798 1489 00       		.byte	0
 2799 148a 1A       		.uleb128 0x1a
 2800 148b 1C040000 		.4byte	.LASF286
 2801 148f 19       		.byte	0x19
 2802 1490 5903     		.2byte	0x359
 2803 1492 12       		.byte	0x12
 2804 1493 83000000 		.4byte	0x83
 2805 1497 1A       		.uleb128 0x1a
 2806 1498 CF060000 		.4byte	.LASF287
 2807 149c 19       		.byte	0x19
 2808 149d 6103     		.2byte	0x361
 2809 149f 12       		.byte	0x12
 2810 14a0 83000000 		.4byte	0x83
 2811 14a4 1A       		.uleb128 0x1a
 2812 14a5 BF030000 		.4byte	.LASF288
 2813 14a9 19       		.byte	0x19
 2814 14aa 6603     		.2byte	0x366
 2815 14ac 12       		.byte	0x12
 2816 14ad 96000000 		.4byte	0x96
 2817 14b1 17       		.uleb128 0x17
 2818 14b2 64080000 		.4byte	.LASF289
 2819 14b6 19       		.byte	0x19
 2820 14b7 2204     		.2byte	0x422
 2821 14b9 12       		.byte	0x12
 2822 14ba FA120000 		.4byte	0x12fa
 2823 14be 17       		.uleb128 0x17
 2824 14bf 5E0E0000 		.4byte	.LASF290
 2825 14c3 19       		.byte	0x19
 2826 14c4 2604     		.2byte	0x426
 2827 14c6 12       		.byte	0x12
 2828 14c7 FA120000 		.4byte	0x12fa
 2829 14cb 17       		.uleb128 0x17
 2830 14cc 71080000 		.4byte	.LASF291
 2831 14d0 19       		.byte	0x19
 2832 14d1 2A04     		.2byte	0x42a
 2833 14d3 12       		.byte	0x12
 2834 14d4 FA120000 		.4byte	0x12fa
 2835 14d8 17       		.uleb128 0x17
 2836 14d9 77080000 		.4byte	.LASF292
 2837 14dd 19       		.byte	0x19
 2838 14de 2E04     		.2byte	0x42e
 2839 14e0 12       		.byte	0x12
 2840 14e1 FA120000 		.4byte	0x12fa
 2841 14e5 03       		.uleb128 0x3
 2842 14e6 A6000000 		.4byte	.LASF293
 2843 14ea 18       		.byte	0x18
 2844 14eb 6D       		.byte	0x6d
 2845 14ec 10       		.byte	0x10
 2846 14ed F1140000 		.4byte	0x14f1
 2847 14f1 0D       		.uleb128 0xd
 2848 14f2 04       		.byte	0x4
 2849 14f3 F7140000 		.4byte	0x14f7
 2850 14f7 22       		.uleb128 0x22
ARM GAS  /tmp/ccoHvmwk.s 			page 51


 2851 14f8 02150000 		.4byte	0x1502
 2852 14fc 21       		.uleb128 0x21
 2853 14fd 02150000 		.4byte	0x1502
 2854 1501 00       		.byte	0
 2855 1502 0D       		.uleb128 0xd
 2856 1503 04       		.byte	0x4
 2857 1504 FA120000 		.4byte	0x12fa
 2858 1508 03       		.uleb128 0x3
 2859 1509 49050000 		.4byte	.LASF294
 2860 150d 18       		.byte	0x18
 2861 150e 76       		.byte	0x76
 2862 150f 10       		.byte	0x10
 2863 1510 14150000 		.4byte	0x1514
 2864 1514 0D       		.uleb128 0xd
 2865 1515 04       		.byte	0x4
 2866 1516 1A150000 		.4byte	0x151a
 2867 151a 22       		.uleb128 0x22
 2868 151b 2A150000 		.4byte	0x152a
 2869 151f 21       		.uleb128 0x21
 2870 1520 02150000 		.4byte	0x1502
 2871 1524 21       		.uleb128 0x21
 2872 1525 A4140000 		.4byte	0x14a4
 2873 1529 00       		.byte	0
 2874 152a 0D       		.uleb128 0xd
 2875 152b 04       		.byte	0x4
 2876 152c AF130000 		.4byte	0x13af
 2877 1530 0D       		.uleb128 0xd
 2878 1531 04       		.byte	0x4
 2879 1532 8A140000 		.4byte	0x148a
 2880 1536 0D       		.uleb128 0xd
 2881 1537 04       		.byte	0x4
 2882 1538 DB130000 		.4byte	0x13db
 2883 153c 0D       		.uleb128 0xd
 2884 153d 04       		.byte	0x4
 2885 153e 8C080000 		.4byte	0x88c
 2886 1542 0D       		.uleb128 0xd
 2887 1543 04       		.byte	0x4
 2888 1544 D6080000 		.4byte	0x8d6
 2889 1548 0D       		.uleb128 0xd
 2890 1549 04       		.byte	0x4
 2891 154a 94120000 		.4byte	0x1294
 2892 154e 23       		.uleb128 0x23
 2893 154f AE120000 		.4byte	0x12ae
 2894 1553 1A       		.byte	0x1a
 2895 1554 CA       		.byte	0xca
 2896 1555 1A       		.byte	0x1a
 2897 1556 19       		.uleb128 0x19
 2898 1557 08       		.byte	0x8
 2899 1558 1A       		.byte	0x1a
 2900 1559 1001     		.2byte	0x110
 2901 155b 03       		.byte	0x3
 2902 155c 7D150000 		.4byte	0x157d
 2903 1560 0B       		.uleb128 0xb
 2904 1561 EA0B0000 		.4byte	.LASF295
 2905 1565 1A       		.byte	0x1a
 2906 1566 1401     		.2byte	0x114
 2907 1568 17       		.byte	0x17
ARM GAS  /tmp/ccoHvmwk.s 			page 52


 2908 1569 EB110000 		.4byte	0x11eb
 2909 156d 00       		.byte	0
 2910 156e 0B       		.uleb128 0xb
 2911 156f C5050000 		.4byte	.LASF296
 2912 1573 1A       		.byte	0x1a
 2913 1574 1801     		.2byte	0x118
 2914 1576 18       		.byte	0x18
 2915 1577 AD040000 		.4byte	0x4ad
 2916 157b 04       		.byte	0x4
 2917 157c 00       		.byte	0
 2918 157d 19       		.uleb128 0x19
 2919 157e 68       		.byte	0x68
 2920 157f 1A       		.byte	0x1a
 2921 1580 0401     		.2byte	0x104
 2922 1582 08       		.byte	0x8
 2923 1583 B2150000 		.4byte	0x15b2
 2924 1587 0B       		.uleb128 0xb
 2925 1588 B1090000 		.4byte	.LASF297
 2926 158c 1A       		.byte	0x1a
 2927 158d 0801     		.2byte	0x108
 2928 158f 15       		.byte	0x15
 2929 1590 96000000 		.4byte	0x96
 2930 1594 00       		.byte	0
 2931 1595 0B       		.uleb128 0xb
 2932 1596 B60D0000 		.4byte	.LASF298
 2933 159a 1A       		.byte	0x1a
 2934 159b 0C01     		.2byte	0x10c
 2935 159d 15       		.byte	0x15
 2936 159e 96000000 		.4byte	0x96
 2937 15a2 04       		.byte	0x4
 2938 15a3 0B       		.uleb128 0xb
 2939 15a4 560C0000 		.4byte	.LASF299
 2940 15a8 1A       		.byte	0x1a
 2941 15a9 1901     		.2byte	0x119
 2942 15ab 05       		.byte	0x5
 2943 15ac B2150000 		.4byte	0x15b2
 2944 15b0 08       		.byte	0x8
 2945 15b1 00       		.byte	0
 2946 15b2 15       		.uleb128 0x15
 2947 15b3 56150000 		.4byte	0x1556
 2948 15b7 C2150000 		.4byte	0x15c2
 2949 15bb 16       		.uleb128 0x16
 2950 15bc 30000000 		.4byte	0x30
 2951 15c0 0B       		.byte	0xb
 2952 15c1 00       		.byte	0
 2953 15c2 24       		.uleb128 0x24
 2954 15c3 646D6100 		.ascii	"dma\000"
 2955 15c7 1A       		.byte	0x1a
 2956 15c8 1A01     		.2byte	0x11a
 2957 15ca 03       		.byte	0x3
 2958 15cb 7D150000 		.4byte	0x157d
 2959 15cf 25       		.uleb128 0x25
 2960 15d0 9C0A0000 		.4byte	.LASF300
 2961 15d4 1A       		.byte	0x1a
 2962 15d5 0F03     		.2byte	0x30f
 2963 15d7 06       		.byte	0x6
 2964 15d8 04160000 		.4byte	0x1604
ARM GAS  /tmp/ccoHvmwk.s 			page 53


 2965 15dc 26       		.uleb128 0x26
 2966 15dd 35040000 		.4byte	.LASF271
 2967 15e1 1A       		.byte	0x1a
 2968 15e2 0F03     		.2byte	0x30f
 2969 15e4 32       		.byte	0x32
 2970 15e5 48150000 		.4byte	0x1548
 2971 15e9 27       		.uleb128 0x27
 2972 15ea 76040000 		.4byte	.LASF35
 2973 15ee 1A       		.byte	0x1a
 2974 15ef 1003     		.2byte	0x310
 2975 15f1 0C       		.byte	0xc
 2976 15f2 96000000 		.4byte	0x96
 2977 15f6 27       		.uleb128 0x27
 2978 15f7 F7070000 		.4byte	.LASF251
 2979 15fb 1A       		.byte	0x1a
 2980 15fc 1103     		.2byte	0x311
 2981 15fe 0C       		.byte	0xc
 2982 15ff 96000000 		.4byte	0x96
 2983 1603 00       		.byte	0
 2984 1604 25       		.uleb128 0x25
 2985 1605 B1030000 		.4byte	.LASF301
 2986 1609 1A       		.byte	0x1a
 2987 160a 0103     		.2byte	0x301
 2988 160c 06       		.byte	0x6
 2989 160d 1F160000 		.4byte	0x161f
 2990 1611 26       		.uleb128 0x26
 2991 1612 35040000 		.4byte	.LASF271
 2992 1616 1A       		.byte	0x1a
 2993 1617 0103     		.2byte	0x301
 2994 1619 2E       		.byte	0x2e
 2995 161a 48150000 		.4byte	0x1548
 2996 161e 00       		.byte	0
 2997 161f 25       		.uleb128 0x25
 2998 1620 D7020000 		.4byte	.LASF302
 2999 1624 1A       		.byte	0x1a
 3000 1625 CF02     		.2byte	0x2cf
 3001 1627 06       		.byte	0x6
 3002 1628 50160000 		.4byte	0x1650
 3003 162c 26       		.uleb128 0x26
 3004 162d 35040000 		.4byte	.LASF271
 3005 1631 1A       		.byte	0x1a
 3006 1632 CF02     		.2byte	0x2cf
 3007 1634 2F       		.byte	0x2f
 3008 1635 48150000 		.4byte	0x1548
 3009 1639 27       		.uleb128 0x27
 3010 163a F7070000 		.4byte	.LASF251
 3011 163e 1A       		.byte	0x1a
 3012 163f D002     		.2byte	0x2d0
 3013 1641 0C       		.byte	0xc
 3014 1642 96000000 		.4byte	0x96
 3015 1646 28       		.uleb128 0x28
 3016 1647 31010000 		.4byte	.LASF308
 3017 164b 60160000 		.4byte	0x1660
 3018 164f 00       		.byte	0
 3019 1650 15       		.uleb128 0x15
 3020 1651 65030000 		.4byte	0x365
 3021 1655 60160000 		.4byte	0x1660
ARM GAS  /tmp/ccoHvmwk.s 			page 54


 3022 1659 16       		.uleb128 0x16
 3023 165a 30000000 		.4byte	0x30
 3024 165e 0E       		.byte	0xe
 3025 165f 00       		.byte	0
 3026 1660 06       		.uleb128 0x6
 3027 1661 50160000 		.4byte	0x1650
 3028 1665 29       		.uleb128 0x29
 3029 1666 C0090000 		.4byte	.LASF304
 3030 166a 1A       		.byte	0x1a
 3031 166b B802     		.2byte	0x2b8
 3032 166d 1B       		.byte	0x1b
 3033 166e 48150000 		.4byte	0x1548
 3034 1672 B7160000 		.4byte	0x16b7
 3035 1676 2A       		.uleb128 0x2a
 3036 1677 696400   		.ascii	"id\000"
 3037 167a 1A       		.byte	0x1a
 3038 167b B802     		.2byte	0x2b8
 3039 167d 33       		.byte	0x33
 3040 167e 96000000 		.4byte	0x96
 3041 1682 26       		.uleb128 0x26
 3042 1683 B5040000 		.4byte	.LASF303
 3043 1687 1A       		.byte	0x1a
 3044 1688 B902     		.2byte	0x2b9
 3045 168a 33       		.byte	0x33
 3046 168b 96000000 		.4byte	0x96
 3047 168f 26       		.uleb128 0x26
 3048 1690 EA0B0000 		.4byte	.LASF295
 3049 1694 1A       		.byte	0x1a
 3050 1695 BA02     		.2byte	0x2ba
 3051 1697 39       		.byte	0x39
 3052 1698 EB110000 		.4byte	0x11eb
 3053 169c 26       		.uleb128 0x26
 3054 169d C5050000 		.4byte	.LASF296
 3055 16a1 1A       		.byte	0x1a
 3056 16a2 BB02     		.2byte	0x2bb
 3057 16a4 30       		.byte	0x30
 3058 16a5 AD040000 		.4byte	0x4ad
 3059 16a9 27       		.uleb128 0x27
 3060 16aa 35040000 		.4byte	.LASF271
 3061 16ae 1A       		.byte	0x1a
 3062 16af BC02     		.2byte	0x2bc
 3063 16b1 1D       		.byte	0x1d
 3064 16b2 48150000 		.4byte	0x1548
 3065 16b6 00       		.byte	0
 3066 16b7 29       		.uleb128 0x29
 3067 16b8 C0070000 		.4byte	.LASF305
 3068 16bc 1A       		.byte	0x1a
 3069 16bd 5202     		.2byte	0x252
 3070 16bf 1B       		.byte	0x1b
 3071 16c0 48150000 		.4byte	0x1548
 3072 16c4 48170000 		.4byte	0x1748
 3073 16c8 2A       		.uleb128 0x2a
 3074 16c9 696400   		.ascii	"id\000"
 3075 16cc 1A       		.byte	0x1a
 3076 16cd 5202     		.2byte	0x252
 3077 16cf 34       		.byte	0x34
 3078 16d0 96000000 		.4byte	0x96
ARM GAS  /tmp/ccoHvmwk.s 			page 55


 3079 16d4 26       		.uleb128 0x26
 3080 16d5 B5040000 		.4byte	.LASF303
 3081 16d9 1A       		.byte	0x1a
 3082 16da 5302     		.2byte	0x253
 3083 16dc 34       		.byte	0x34
 3084 16dd 96000000 		.4byte	0x96
 3085 16e1 26       		.uleb128 0x26
 3086 16e2 EA0B0000 		.4byte	.LASF295
 3087 16e6 1A       		.byte	0x1a
 3088 16e7 5402     		.2byte	0x254
 3089 16e9 3A       		.byte	0x3a
 3090 16ea EB110000 		.4byte	0x11eb
 3091 16ee 26       		.uleb128 0x26
 3092 16ef C5050000 		.4byte	.LASF296
 3093 16f3 1A       		.byte	0x1a
 3094 16f4 5502     		.2byte	0x255
 3095 16f6 31       		.byte	0x31
 3096 16f7 AD040000 		.4byte	0x4ad
 3097 16fb 24       		.uleb128 0x24
 3098 16fc 6900     		.ascii	"i\000"
 3099 16fe 1A       		.byte	0x1a
 3100 16ff 5602     		.2byte	0x256
 3101 1701 0C       		.byte	0xc
 3102 1702 96000000 		.4byte	0x96
 3103 1706 27       		.uleb128 0x27
 3104 1707 2D040000 		.4byte	.LASF306
 3105 170b 1A       		.byte	0x1a
 3106 170c 5602     		.2byte	0x256
 3107 170e 0F       		.byte	0xf
 3108 170f 96000000 		.4byte	0x96
 3109 1713 27       		.uleb128 0x27
 3110 1714 16020000 		.4byte	.LASF307
 3111 1718 1A       		.byte	0x1a
 3112 1719 5602     		.2byte	0x256
 3113 171b 18       		.byte	0x18
 3114 171c 96000000 		.4byte	0x96
 3115 1720 28       		.uleb128 0x28
 3116 1721 31010000 		.4byte	.LASF308
 3117 1725 58170000 		.4byte	0x1758
 3118 1729 2B       		.uleb128 0x2b
 3119 172a 27       		.uleb128 0x27
 3120 172b A2070000 		.4byte	.LASF56
 3121 172f 1A       		.byte	0x1a
 3122 1730 7402     		.2byte	0x274
 3123 1732 0E       		.byte	0xe
 3124 1733 96000000 		.4byte	0x96
 3125 1737 2B       		.uleb128 0x2b
 3126 1738 27       		.uleb128 0x27
 3127 1739 35040000 		.4byte	.LASF271
 3128 173d 1A       		.byte	0x1a
 3129 173e 7602     		.2byte	0x276
 3130 1740 21       		.byte	0x21
 3131 1741 48150000 		.4byte	0x1548
 3132 1745 00       		.byte	0
 3133 1746 00       		.byte	0
 3134 1747 00       		.byte	0
 3135 1748 15       		.uleb128 0x15
ARM GAS  /tmp/ccoHvmwk.s 			page 56


 3136 1749 65030000 		.4byte	0x365
 3137 174d 58170000 		.4byte	0x1758
 3138 1751 16       		.uleb128 0x16
 3139 1752 30000000 		.4byte	0x30
 3140 1756 0F       		.byte	0xf
 3141 1757 00       		.byte	0
 3142 1758 06       		.uleb128 0x6
 3143 1759 48170000 		.4byte	0x1748
 3144 175d 25       		.uleb128 0x25
 3145 175e AD040000 		.4byte	.LASF309
 3146 1762 1A       		.byte	0x1a
 3147 1763 2D02     		.2byte	0x22d
 3148 1765 06       		.byte	0x6
 3149 1766 76170000 		.4byte	0x1776
 3150 176a 24       		.uleb128 0x24
 3151 176b 6900     		.ascii	"i\000"
 3152 176d 1A       		.byte	0x1a
 3153 176e 2E02     		.2byte	0x22e
 3154 1770 07       		.byte	0x7
 3155 1771 1D000000 		.4byte	0x1d
 3156 1775 00       		.byte	0
 3157 1776 25       		.uleb128 0x25
 3158 1777 770A0000 		.4byte	.LASF310
 3159 177b 1A       		.byte	0x1a
 3160 177c EA01     		.2byte	0x1ea
 3161 177e 01       		.byte	0x1
 3162 177f 8D170000 		.4byte	0x178d
 3163 1783 28       		.uleb128 0x28
 3164 1784 31010000 		.4byte	.LASF308
 3165 1788 9D170000 		.4byte	0x179d
 3166 178c 00       		.byte	0
 3167 178d 15       		.uleb128 0x15
 3168 178e 65030000 		.4byte	0x365
 3169 1792 9D170000 		.4byte	0x179d
 3170 1796 16       		.uleb128 0x16
 3171 1797 30000000 		.4byte	0x30
 3172 179b 09       		.byte	0x9
 3173 179c 00       		.byte	0
 3174 179d 06       		.uleb128 0x6
 3175 179e 8D170000 		.4byte	0x178d
 3176 17a2 25       		.uleb128 0x25
 3177 17a3 2B0A0000 		.4byte	.LASF311
 3178 17a7 1A       		.byte	0x1a
 3179 17a8 DA01     		.2byte	0x1da
 3180 17aa 01       		.byte	0x1
 3181 17ab B9170000 		.4byte	0x17b9
 3182 17af 28       		.uleb128 0x28
 3183 17b0 31010000 		.4byte	.LASF308
 3184 17b4 9D170000 		.4byte	0x179d
 3185 17b8 00       		.byte	0
 3186 17b9 25       		.uleb128 0x25
 3187 17ba 0B0A0000 		.4byte	.LASF312
 3188 17be 1A       		.byte	0x1a
 3189 17bf CA01     		.2byte	0x1ca
 3190 17c1 01       		.byte	0x1
 3191 17c2 D0170000 		.4byte	0x17d0
 3192 17c6 28       		.uleb128 0x28
ARM GAS  /tmp/ccoHvmwk.s 			page 57


 3193 17c7 31010000 		.4byte	.LASF308
 3194 17cb 9D170000 		.4byte	0x179d
 3195 17cf 00       		.byte	0
 3196 17d0 25       		.uleb128 0x25
 3197 17d1 010A0000 		.4byte	.LASF313
 3198 17d5 1A       		.byte	0x1a
 3199 17d6 BA01     		.2byte	0x1ba
 3200 17d8 01       		.byte	0x1
 3201 17d9 E7170000 		.4byte	0x17e7
 3202 17dd 28       		.uleb128 0x28
 3203 17de 31010000 		.4byte	.LASF308
 3204 17e2 9D170000 		.4byte	0x179d
 3205 17e6 00       		.byte	0
 3206 17e7 25       		.uleb128 0x25
 3207 17e8 F7090000 		.4byte	.LASF314
 3208 17ec 1A       		.byte	0x1a
 3209 17ed AA01     		.2byte	0x1aa
 3210 17ef 01       		.byte	0x1
 3211 17f0 FE170000 		.4byte	0x17fe
 3212 17f4 28       		.uleb128 0x28
 3213 17f5 31010000 		.4byte	.LASF308
 3214 17f9 9D170000 		.4byte	0x179d
 3215 17fd 00       		.byte	0
 3216 17fe 25       		.uleb128 0x25
 3217 17ff 85070000 		.4byte	.LASF315
 3218 1803 1A       		.byte	0x1a
 3219 1804 8A01     		.2byte	0x18a
 3220 1806 01       		.byte	0x1
 3221 1807 15180000 		.4byte	0x1815
 3222 180b 28       		.uleb128 0x28
 3223 180c 31010000 		.4byte	.LASF308
 3224 1810 25180000 		.4byte	0x1825
 3225 1814 00       		.byte	0
 3226 1815 15       		.uleb128 0x15
 3227 1816 65030000 		.4byte	0x365
 3228 181a 25180000 		.4byte	0x1825
 3229 181e 16       		.uleb128 0x16
 3230 181f 30000000 		.4byte	0x30
 3231 1823 08       		.byte	0x8
 3232 1824 00       		.byte	0
 3233 1825 06       		.uleb128 0x6
 3234 1826 15180000 		.4byte	0x1815
 3235 182a 25       		.uleb128 0x25
 3236 182b 7C070000 		.4byte	.LASF316
 3237 182f 1A       		.byte	0x1a
 3238 1830 7A01     		.2byte	0x17a
 3239 1832 01       		.byte	0x1
 3240 1833 41180000 		.4byte	0x1841
 3241 1837 28       		.uleb128 0x28
 3242 1838 31010000 		.4byte	.LASF308
 3243 183c 25180000 		.4byte	0x1825
 3244 1840 00       		.byte	0
 3245 1841 25       		.uleb128 0x25
 3246 1842 1B070000 		.4byte	.LASF317
 3247 1846 1A       		.byte	0x1a
 3248 1847 6A01     		.2byte	0x16a
 3249 1849 01       		.byte	0x1
ARM GAS  /tmp/ccoHvmwk.s 			page 58


 3250 184a 58180000 		.4byte	0x1858
 3251 184e 28       		.uleb128 0x28
 3252 184f 31010000 		.4byte	.LASF308
 3253 1853 25180000 		.4byte	0x1825
 3254 1857 00       		.byte	0
 3255 1858 25       		.uleb128 0x25
 3256 1859 03070000 		.4byte	.LASF318
 3257 185d 1A       		.byte	0x1a
 3258 185e 5A01     		.2byte	0x15a
 3259 1860 01       		.byte	0x1
 3260 1861 6F180000 		.4byte	0x186f
 3261 1865 28       		.uleb128 0x28
 3262 1866 31010000 		.4byte	.LASF308
 3263 186a 25180000 		.4byte	0x1825
 3264 186e 00       		.byte	0
 3265 186f 25       		.uleb128 0x25
 3266 1870 EB060000 		.4byte	.LASF319
 3267 1874 1A       		.byte	0x1a
 3268 1875 4A01     		.2byte	0x14a
 3269 1877 01       		.byte	0x1
 3270 1878 86180000 		.4byte	0x1886
 3271 187c 28       		.uleb128 0x28
 3272 187d 31010000 		.4byte	.LASF308
 3273 1881 25180000 		.4byte	0x1825
 3274 1885 00       		.byte	0
 3275 1886 25       		.uleb128 0x25
 3276 1887 E2060000 		.4byte	.LASF320
 3277 188b 1A       		.byte	0x1a
 3278 188c 3A01     		.2byte	0x13a
 3279 188e 01       		.byte	0x1
 3280 188f 9D180000 		.4byte	0x189d
 3281 1893 28       		.uleb128 0x28
 3282 1894 31010000 		.4byte	.LASF308
 3283 1898 25180000 		.4byte	0x1825
 3284 189c 00       		.byte	0
 3285 189d 25       		.uleb128 0x25
 3286 189e 6F060000 		.4byte	.LASF321
 3287 18a2 1A       		.byte	0x1a
 3288 18a3 2A01     		.2byte	0x12a
 3289 18a5 01       		.byte	0x1
 3290 18a6 B4180000 		.4byte	0x18b4
 3291 18aa 28       		.uleb128 0x28
 3292 18ab 31010000 		.4byte	.LASF308
 3293 18af 25180000 		.4byte	0x1825
 3294 18b3 00       		.byte	0
 3295 18b4 2C       		.uleb128 0x2c
 3296 18b5 E3010000 		.4byte	.LASF322
 3297 18b9 1B       		.byte	0x1b
 3298 18ba 4802     		.2byte	0x248
 3299 18bc 14       		.byte	0x14
 3300 18bd 2C       		.uleb128 0x2c
 3301 18be E6020000 		.4byte	.LASF323
 3302 18c2 1B       		.byte	0x1b
 3303 18c3 3D02     		.2byte	0x23d
 3304 18c5 14       		.byte	0x14
 3305 18c6 2D       		.uleb128 0x2d
 3306 18c7 7B050000 		.4byte	.LASF331
ARM GAS  /tmp/ccoHvmwk.s 			page 59


 3307 18cb 12       		.byte	0x12
 3308 18cc A501     		.2byte	0x1a5
 3309 18ce 14       		.byte	0x14
 3310 18cf DD180000 		.4byte	0x18dd
 3311 18d3 28       		.uleb128 0x28
 3312 18d4 31010000 		.4byte	.LASF308
 3313 18d8 ED180000 		.4byte	0x18ed
 3314 18dc 00       		.byte	0
 3315 18dd 15       		.uleb128 0x15
 3316 18de 65030000 		.4byte	0x365
 3317 18e2 ED180000 		.4byte	0x18ed
 3318 18e6 16       		.uleb128 0x16
 3319 18e7 30000000 		.4byte	0x30
 3320 18eb 0B       		.byte	0xb
 3321 18ec 00       		.byte	0
 3322 18ed 06       		.uleb128 0x6
 3323 18ee DD180000 		.4byte	0x18dd
 3324 18f2 2C       		.uleb128 0x2c
 3325 18f3 AF050000 		.4byte	.LASF324
 3326 18f7 12       		.byte	0x12
 3327 18f8 9701     		.2byte	0x197
 3328 18fa 14       		.byte	0x14
 3329 18fb 2C       		.uleb128 0x2c
 3330 18fc 25020000 		.4byte	.LASF325
 3331 1900 0E       		.byte	0xe
 3332 1901 3E03     		.2byte	0x33e
 3333 1903 1B       		.byte	0x1b
 3334 1904 2C       		.uleb128 0x2c
 3335 1905 600B0000 		.4byte	.LASF326
 3336 1909 0E       		.byte	0xe
 3337 190a 2603     		.2byte	0x326
 3338 190c 1B       		.byte	0x1b
 3339 190d 2E       		.uleb128 0x2e
 3340 190e 8E0A0000 		.4byte	.LASF332
 3341 1912 1C       		.byte	0x1c
 3342 1913 EB01     		.2byte	0x1eb
 3343 1915 1B       		.byte	0x1b
 3344 1916 26       		.uleb128 0x26
 3345 1917 98060000 		.4byte	.LASF327
 3346 191b 1C       		.byte	0x1c
 3347 191c EB01     		.2byte	0x1eb
 3348 191e 32       		.byte	0x32
 3349 191f 96000000 		.4byte	0x96
 3350 1923 00       		.byte	0
 3351 1924 00       		.byte	0
 3352              		.section	.gnu.debuglto_.debug_abbrev,"e",%progbits
 3353              	.Ldebug_abbrev0:
 3354 0000 01       		.uleb128 0x1
 3355 0001 11       		.uleb128 0x11
 3356 0002 01       		.byte	0x1
 3357 0003 25       		.uleb128 0x25
 3358 0004 0E       		.uleb128 0xe
 3359 0005 13       		.uleb128 0x13
 3360 0006 0B       		.uleb128 0xb
 3361 0007 03       		.uleb128 0x3
 3362 0008 0E       		.uleb128 0xe
 3363 0009 1B       		.uleb128 0x1b
ARM GAS  /tmp/ccoHvmwk.s 			page 60


 3364 000a 0E       		.uleb128 0xe
 3365 000b 10       		.uleb128 0x10
 3366 000c 17       		.uleb128 0x17
 3367 000d 00       		.byte	0
 3368 000e 00       		.byte	0
 3369 000f 02       		.uleb128 0x2
 3370 0010 24       		.uleb128 0x24
 3371 0011 00       		.byte	0
 3372 0012 0B       		.uleb128 0xb
 3373 0013 0B       		.uleb128 0xb
 3374 0014 3E       		.uleb128 0x3e
 3375 0015 0B       		.uleb128 0xb
 3376 0016 03       		.uleb128 0x3
 3377 0017 08       		.uleb128 0x8
 3378 0018 00       		.byte	0
 3379 0019 00       		.byte	0
 3380 001a 03       		.uleb128 0x3
 3381 001b 16       		.uleb128 0x16
 3382 001c 00       		.byte	0
 3383 001d 03       		.uleb128 0x3
 3384 001e 0E       		.uleb128 0xe
 3385 001f 3A       		.uleb128 0x3a
 3386 0020 0B       		.uleb128 0xb
 3387 0021 3B       		.uleb128 0x3b
 3388 0022 0B       		.uleb128 0xb
 3389 0023 39       		.uleb128 0x39
 3390 0024 0B       		.uleb128 0xb
 3391 0025 49       		.uleb128 0x49
 3392 0026 13       		.uleb128 0x13
 3393 0027 00       		.byte	0
 3394 0028 00       		.byte	0
 3395 0029 04       		.uleb128 0x4
 3396 002a 24       		.uleb128 0x24
 3397 002b 00       		.byte	0
 3398 002c 0B       		.uleb128 0xb
 3399 002d 0B       		.uleb128 0xb
 3400 002e 3E       		.uleb128 0x3e
 3401 002f 0B       		.uleb128 0xb
 3402 0030 03       		.uleb128 0x3
 3403 0031 0E       		.uleb128 0xe
 3404 0032 00       		.byte	0
 3405 0033 00       		.byte	0
 3406 0034 05       		.uleb128 0x5
 3407 0035 35       		.uleb128 0x35
 3408 0036 00       		.byte	0
 3409 0037 49       		.uleb128 0x49
 3410 0038 13       		.uleb128 0x13
 3411 0039 00       		.byte	0
 3412 003a 00       		.byte	0
 3413 003b 06       		.uleb128 0x6
 3414 003c 26       		.uleb128 0x26
 3415 003d 00       		.byte	0
 3416 003e 49       		.uleb128 0x49
 3417 003f 13       		.uleb128 0x13
 3418 0040 00       		.byte	0
 3419 0041 00       		.byte	0
 3420 0042 07       		.uleb128 0x7
ARM GAS  /tmp/ccoHvmwk.s 			page 61


 3421 0043 13       		.uleb128 0x13
 3422 0044 01       		.byte	0x1
 3423 0045 03       		.uleb128 0x3
 3424 0046 0E       		.uleb128 0xe
 3425 0047 0B       		.uleb128 0xb
 3426 0048 0B       		.uleb128 0xb
 3427 0049 3A       		.uleb128 0x3a
 3428 004a 0B       		.uleb128 0xb
 3429 004b 3B       		.uleb128 0x3b
 3430 004c 0B       		.uleb128 0xb
 3431 004d 39       		.uleb128 0x39
 3432 004e 0B       		.uleb128 0xb
 3433 004f 01       		.uleb128 0x1
 3434 0050 13       		.uleb128 0x13
 3435 0051 00       		.byte	0
 3436 0052 00       		.byte	0
 3437 0053 08       		.uleb128 0x8
 3438 0054 0D       		.uleb128 0xd
 3439 0055 00       		.byte	0
 3440 0056 03       		.uleb128 0x3
 3441 0057 08       		.uleb128 0x8
 3442 0058 3A       		.uleb128 0x3a
 3443 0059 0B       		.uleb128 0xb
 3444 005a 3B       		.uleb128 0x3b
 3445 005b 0B       		.uleb128 0xb
 3446 005c 39       		.uleb128 0x39
 3447 005d 0B       		.uleb128 0xb
 3448 005e 49       		.uleb128 0x49
 3449 005f 13       		.uleb128 0x13
 3450 0060 38       		.uleb128 0x38
 3451 0061 0B       		.uleb128 0xb
 3452 0062 00       		.byte	0
 3453 0063 00       		.byte	0
 3454 0064 09       		.uleb128 0x9
 3455 0065 0D       		.uleb128 0xd
 3456 0066 00       		.byte	0
 3457 0067 03       		.uleb128 0x3
 3458 0068 0E       		.uleb128 0xe
 3459 0069 3A       		.uleb128 0x3a
 3460 006a 0B       		.uleb128 0xb
 3461 006b 3B       		.uleb128 0x3b
 3462 006c 0B       		.uleb128 0xb
 3463 006d 39       		.uleb128 0x39
 3464 006e 0B       		.uleb128 0xb
 3465 006f 49       		.uleb128 0x49
 3466 0070 13       		.uleb128 0x13
 3467 0071 38       		.uleb128 0x38
 3468 0072 0B       		.uleb128 0xb
 3469 0073 00       		.byte	0
 3470 0074 00       		.byte	0
 3471 0075 0A       		.uleb128 0xa
 3472 0076 0D       		.uleb128 0xd
 3473 0077 00       		.byte	0
 3474 0078 03       		.uleb128 0x3
 3475 0079 08       		.uleb128 0x8
 3476 007a 3A       		.uleb128 0x3a
 3477 007b 0B       		.uleb128 0xb
ARM GAS  /tmp/ccoHvmwk.s 			page 62


 3478 007c 3B       		.uleb128 0x3b
 3479 007d 05       		.uleb128 0x5
 3480 007e 39       		.uleb128 0x39
 3481 007f 0B       		.uleb128 0xb
 3482 0080 49       		.uleb128 0x49
 3483 0081 13       		.uleb128 0x13
 3484 0082 38       		.uleb128 0x38
 3485 0083 0B       		.uleb128 0xb
 3486 0084 00       		.byte	0
 3487 0085 00       		.byte	0
 3488 0086 0B       		.uleb128 0xb
 3489 0087 0D       		.uleb128 0xd
 3490 0088 00       		.byte	0
 3491 0089 03       		.uleb128 0x3
 3492 008a 0E       		.uleb128 0xe
 3493 008b 3A       		.uleb128 0x3a
 3494 008c 0B       		.uleb128 0xb
 3495 008d 3B       		.uleb128 0x3b
 3496 008e 05       		.uleb128 0x5
 3497 008f 39       		.uleb128 0x39
 3498 0090 0B       		.uleb128 0xb
 3499 0091 49       		.uleb128 0x49
 3500 0092 13       		.uleb128 0x13
 3501 0093 38       		.uleb128 0x38
 3502 0094 0B       		.uleb128 0xb
 3503 0095 00       		.byte	0
 3504 0096 00       		.byte	0
 3505 0097 0C       		.uleb128 0xc
 3506 0098 13       		.uleb128 0x13
 3507 0099 01       		.byte	0x1
 3508 009a 03       		.uleb128 0x3
 3509 009b 0E       		.uleb128 0xe
 3510 009c 0B       		.uleb128 0xb
 3511 009d 05       		.uleb128 0x5
 3512 009e 3A       		.uleb128 0x3a
 3513 009f 0B       		.uleb128 0xb
 3514 00a0 3B       		.uleb128 0x3b
 3515 00a1 05       		.uleb128 0x5
 3516 00a2 39       		.uleb128 0x39
 3517 00a3 0B       		.uleb128 0xb
 3518 00a4 01       		.uleb128 0x1
 3519 00a5 13       		.uleb128 0x13
 3520 00a6 00       		.byte	0
 3521 00a7 00       		.byte	0
 3522 00a8 0D       		.uleb128 0xd
 3523 00a9 0F       		.uleb128 0xf
 3524 00aa 00       		.byte	0
 3525 00ab 0B       		.uleb128 0xb
 3526 00ac 0B       		.uleb128 0xb
 3527 00ad 49       		.uleb128 0x49
 3528 00ae 13       		.uleb128 0x13
 3529 00af 00       		.byte	0
 3530 00b0 00       		.byte	0
 3531 00b1 0E       		.uleb128 0xe
 3532 00b2 13       		.uleb128 0x13
 3533 00b3 01       		.byte	0x1
 3534 00b4 0B       		.uleb128 0xb
ARM GAS  /tmp/ccoHvmwk.s 			page 63


 3535 00b5 0B       		.uleb128 0xb
 3536 00b6 3A       		.uleb128 0x3a
 3537 00b7 0B       		.uleb128 0xb
 3538 00b8 3B       		.uleb128 0x3b
 3539 00b9 0B       		.uleb128 0xb
 3540 00ba 39       		.uleb128 0x39
 3541 00bb 0B       		.uleb128 0xb
 3542 00bc 01       		.uleb128 0x1
 3543 00bd 13       		.uleb128 0x13
 3544 00be 00       		.byte	0
 3545 00bf 00       		.byte	0
 3546 00c0 0F       		.uleb128 0xf
 3547 00c1 0F       		.uleb128 0xf
 3548 00c2 00       		.byte	0
 3549 00c3 0B       		.uleb128 0xb
 3550 00c4 0B       		.uleb128 0xb
 3551 00c5 00       		.byte	0
 3552 00c6 00       		.byte	0
 3553 00c7 10       		.uleb128 0x10
 3554 00c8 17       		.uleb128 0x17
 3555 00c9 01       		.byte	0x1
 3556 00ca 0B       		.uleb128 0xb
 3557 00cb 0B       		.uleb128 0xb
 3558 00cc 3A       		.uleb128 0x3a
 3559 00cd 0B       		.uleb128 0xb
 3560 00ce 3B       		.uleb128 0x3b
 3561 00cf 0B       		.uleb128 0xb
 3562 00d0 39       		.uleb128 0x39
 3563 00d1 0B       		.uleb128 0xb
 3564 00d2 01       		.uleb128 0x1
 3565 00d3 13       		.uleb128 0x13
 3566 00d4 00       		.byte	0
 3567 00d5 00       		.byte	0
 3568 00d6 11       		.uleb128 0x11
 3569 00d7 0D       		.uleb128 0xd
 3570 00d8 00       		.byte	0
 3571 00d9 03       		.uleb128 0x3
 3572 00da 08       		.uleb128 0x8
 3573 00db 3A       		.uleb128 0x3a
 3574 00dc 0B       		.uleb128 0xb
 3575 00dd 3B       		.uleb128 0x3b
 3576 00de 0B       		.uleb128 0xb
 3577 00df 39       		.uleb128 0x39
 3578 00e0 0B       		.uleb128 0xb
 3579 00e1 49       		.uleb128 0x49
 3580 00e2 13       		.uleb128 0x13
 3581 00e3 00       		.byte	0
 3582 00e4 00       		.byte	0
 3583 00e5 12       		.uleb128 0x12
 3584 00e6 0D       		.uleb128 0xd
 3585 00e7 00       		.byte	0
 3586 00e8 03       		.uleb128 0x3
 3587 00e9 0E       		.uleb128 0xe
 3588 00ea 3A       		.uleb128 0x3a
 3589 00eb 0B       		.uleb128 0xb
 3590 00ec 3B       		.uleb128 0x3b
 3591 00ed 0B       		.uleb128 0xb
ARM GAS  /tmp/ccoHvmwk.s 			page 64


 3592 00ee 39       		.uleb128 0x39
 3593 00ef 0B       		.uleb128 0xb
 3594 00f0 49       		.uleb128 0x49
 3595 00f1 13       		.uleb128 0x13
 3596 00f2 00       		.byte	0
 3597 00f3 00       		.byte	0
 3598 00f4 13       		.uleb128 0x13
 3599 00f5 0D       		.uleb128 0xd
 3600 00f6 00       		.byte	0
 3601 00f7 03       		.uleb128 0x3
 3602 00f8 0E       		.uleb128 0xe
 3603 00f9 3A       		.uleb128 0x3a
 3604 00fa 0B       		.uleb128 0xb
 3605 00fb 3B       		.uleb128 0x3b
 3606 00fc 0B       		.uleb128 0xb
 3607 00fd 39       		.uleb128 0x39
 3608 00fe 0B       		.uleb128 0xb
 3609 00ff 49       		.uleb128 0x49
 3610 0100 13       		.uleb128 0x13
 3611 0101 0B       		.uleb128 0xb
 3612 0102 0B       		.uleb128 0xb
 3613 0103 0D       		.uleb128 0xd
 3614 0104 0B       		.uleb128 0xb
 3615 0105 0C       		.uleb128 0xc
 3616 0106 0B       		.uleb128 0xb
 3617 0107 38       		.uleb128 0x38
 3618 0108 0B       		.uleb128 0xb
 3619 0109 00       		.byte	0
 3620 010a 00       		.byte	0
 3621 010b 14       		.uleb128 0x14
 3622 010c 13       		.uleb128 0x13
 3623 010d 01       		.byte	0x1
 3624 010e 0B       		.uleb128 0xb
 3625 010f 05       		.uleb128 0x5
 3626 0110 3A       		.uleb128 0x3a
 3627 0111 0B       		.uleb128 0xb
 3628 0112 3B       		.uleb128 0x3b
 3629 0113 0B       		.uleb128 0xb
 3630 0114 39       		.uleb128 0x39
 3631 0115 0B       		.uleb128 0xb
 3632 0116 01       		.uleb128 0x1
 3633 0117 13       		.uleb128 0x13
 3634 0118 00       		.byte	0
 3635 0119 00       		.byte	0
 3636 011a 15       		.uleb128 0x15
 3637 011b 01       		.uleb128 0x1
 3638 011c 01       		.byte	0x1
 3639 011d 49       		.uleb128 0x49
 3640 011e 13       		.uleb128 0x13
 3641 011f 01       		.uleb128 0x1
 3642 0120 13       		.uleb128 0x13
 3643 0121 00       		.byte	0
 3644 0122 00       		.byte	0
 3645 0123 16       		.uleb128 0x16
 3646 0124 21       		.uleb128 0x21
 3647 0125 00       		.byte	0
 3648 0126 49       		.uleb128 0x49
ARM GAS  /tmp/ccoHvmwk.s 			page 65


 3649 0127 13       		.uleb128 0x13
 3650 0128 2F       		.uleb128 0x2f
 3651 0129 0B       		.uleb128 0xb
 3652 012a 00       		.byte	0
 3653 012b 00       		.byte	0
 3654 012c 17       		.uleb128 0x17
 3655 012d 34       		.uleb128 0x34
 3656 012e 00       		.byte	0
 3657 012f 03       		.uleb128 0x3
 3658 0130 0E       		.uleb128 0xe
 3659 0131 3A       		.uleb128 0x3a
 3660 0132 0B       		.uleb128 0xb
 3661 0133 3B       		.uleb128 0x3b
 3662 0134 05       		.uleb128 0x5
 3663 0135 39       		.uleb128 0x39
 3664 0136 0B       		.uleb128 0xb
 3665 0137 49       		.uleb128 0x49
 3666 0138 13       		.uleb128 0x13
 3667 0139 3F       		.uleb128 0x3f
 3668 013a 19       		.uleb128 0x19
 3669 013b 3C       		.uleb128 0x3c
 3670 013c 19       		.uleb128 0x19
 3671 013d 00       		.byte	0
 3672 013e 00       		.byte	0
 3673 013f 18       		.uleb128 0x18
 3674 0140 34       		.uleb128 0x34
 3675 0141 00       		.byte	0
 3676 0142 03       		.uleb128 0x3
 3677 0143 0E       		.uleb128 0xe
 3678 0144 3A       		.uleb128 0x3a
 3679 0145 0B       		.uleb128 0xb
 3680 0146 3B       		.uleb128 0x3b
 3681 0147 0B       		.uleb128 0xb
 3682 0148 39       		.uleb128 0x39
 3683 0149 0B       		.uleb128 0xb
 3684 014a 49       		.uleb128 0x49
 3685 014b 13       		.uleb128 0x13
 3686 014c 3F       		.uleb128 0x3f
 3687 014d 19       		.uleb128 0x19
 3688 014e 3C       		.uleb128 0x3c
 3689 014f 19       		.uleb128 0x19
 3690 0150 00       		.byte	0
 3691 0151 00       		.byte	0
 3692 0152 19       		.uleb128 0x19
 3693 0153 13       		.uleb128 0x13
 3694 0154 01       		.byte	0x1
 3695 0155 0B       		.uleb128 0xb
 3696 0156 0B       		.uleb128 0xb
 3697 0157 3A       		.uleb128 0x3a
 3698 0158 0B       		.uleb128 0xb
 3699 0159 3B       		.uleb128 0x3b
 3700 015a 05       		.uleb128 0x5
 3701 015b 39       		.uleb128 0x39
 3702 015c 0B       		.uleb128 0xb
 3703 015d 01       		.uleb128 0x1
 3704 015e 13       		.uleb128 0x13
 3705 015f 00       		.byte	0
ARM GAS  /tmp/ccoHvmwk.s 			page 66


 3706 0160 00       		.byte	0
 3707 0161 1A       		.uleb128 0x1a
 3708 0162 16       		.uleb128 0x16
 3709 0163 00       		.byte	0
 3710 0164 03       		.uleb128 0x3
 3711 0165 0E       		.uleb128 0xe
 3712 0166 3A       		.uleb128 0x3a
 3713 0167 0B       		.uleb128 0xb
 3714 0168 3B       		.uleb128 0x3b
 3715 0169 05       		.uleb128 0x5
 3716 016a 39       		.uleb128 0x39
 3717 016b 0B       		.uleb128 0xb
 3718 016c 49       		.uleb128 0x49
 3719 016d 13       		.uleb128 0x13
 3720 016e 00       		.byte	0
 3721 016f 00       		.byte	0
 3722 0170 1B       		.uleb128 0x1b
 3723 0171 13       		.uleb128 0x13
 3724 0172 01       		.byte	0x1
 3725 0173 03       		.uleb128 0x3
 3726 0174 0E       		.uleb128 0xe
 3727 0175 0B       		.uleb128 0xb
 3728 0176 0B       		.uleb128 0xb
 3729 0177 3A       		.uleb128 0x3a
 3730 0178 0B       		.uleb128 0xb
 3731 0179 3B       		.uleb128 0x3b
 3732 017a 05       		.uleb128 0x5
 3733 017b 39       		.uleb128 0x39
 3734 017c 0B       		.uleb128 0xb
 3735 017d 01       		.uleb128 0x1
 3736 017e 13       		.uleb128 0x13
 3737 017f 00       		.byte	0
 3738 0180 00       		.byte	0
 3739 0181 1C       		.uleb128 0x1c
 3740 0182 04       		.uleb128 0x4
 3741 0183 01       		.byte	0x1
 3742 0184 3E       		.uleb128 0x3e
 3743 0185 0B       		.uleb128 0xb
 3744 0186 0B       		.uleb128 0xb
 3745 0187 0B       		.uleb128 0xb
 3746 0188 49       		.uleb128 0x49
 3747 0189 13       		.uleb128 0x13
 3748 018a 3A       		.uleb128 0x3a
 3749 018b 0B       		.uleb128 0xb
 3750 018c 3B       		.uleb128 0x3b
 3751 018d 0B       		.uleb128 0xb
 3752 018e 39       		.uleb128 0x39
 3753 018f 0B       		.uleb128 0xb
 3754 0190 01       		.uleb128 0x1
 3755 0191 13       		.uleb128 0x13
 3756 0192 00       		.byte	0
 3757 0193 00       		.byte	0
 3758 0194 1D       		.uleb128 0x1d
 3759 0195 28       		.uleb128 0x28
 3760 0196 00       		.byte	0
 3761 0197 03       		.uleb128 0x3
 3762 0198 0E       		.uleb128 0xe
ARM GAS  /tmp/ccoHvmwk.s 			page 67


 3763 0199 1C       		.uleb128 0x1c
 3764 019a 0B       		.uleb128 0xb
 3765 019b 00       		.byte	0
 3766 019c 00       		.byte	0
 3767 019d 1E       		.uleb128 0x1e
 3768 019e 0D       		.uleb128 0xd
 3769 019f 00       		.byte	0
 3770 01a0 03       		.uleb128 0x3
 3771 01a1 0E       		.uleb128 0xe
 3772 01a2 3A       		.uleb128 0x3a
 3773 01a3 0B       		.uleb128 0xb
 3774 01a4 3B       		.uleb128 0x3b
 3775 01a5 05       		.uleb128 0x5
 3776 01a6 39       		.uleb128 0x39
 3777 01a7 0B       		.uleb128 0xb
 3778 01a8 49       		.uleb128 0x49
 3779 01a9 13       		.uleb128 0x13
 3780 01aa 00       		.byte	0
 3781 01ab 00       		.byte	0
 3782 01ac 1F       		.uleb128 0x1f
 3783 01ad 34       		.uleb128 0x34
 3784 01ae 00       		.byte	0
 3785 01af 03       		.uleb128 0x3
 3786 01b0 08       		.uleb128 0x8
 3787 01b1 3A       		.uleb128 0x3a
 3788 01b2 0B       		.uleb128 0xb
 3789 01b3 3B       		.uleb128 0x3b
 3790 01b4 05       		.uleb128 0x5
 3791 01b5 39       		.uleb128 0x39
 3792 01b6 0B       		.uleb128 0xb
 3793 01b7 49       		.uleb128 0x49
 3794 01b8 13       		.uleb128 0x13
 3795 01b9 3F       		.uleb128 0x3f
 3796 01ba 19       		.uleb128 0x19
 3797 01bb 3C       		.uleb128 0x3c
 3798 01bc 19       		.uleb128 0x19
 3799 01bd 00       		.byte	0
 3800 01be 00       		.byte	0
 3801 01bf 20       		.uleb128 0x20
 3802 01c0 15       		.uleb128 0x15
 3803 01c1 01       		.byte	0x1
 3804 01c2 27       		.uleb128 0x27
 3805 01c3 19       		.uleb128 0x19
 3806 01c4 49       		.uleb128 0x49
 3807 01c5 13       		.uleb128 0x13
 3808 01c6 01       		.uleb128 0x1
 3809 01c7 13       		.uleb128 0x13
 3810 01c8 00       		.byte	0
 3811 01c9 00       		.byte	0
 3812 01ca 21       		.uleb128 0x21
 3813 01cb 05       		.uleb128 0x5
 3814 01cc 00       		.byte	0
 3815 01cd 49       		.uleb128 0x49
 3816 01ce 13       		.uleb128 0x13
 3817 01cf 00       		.byte	0
 3818 01d0 00       		.byte	0
 3819 01d1 22       		.uleb128 0x22
ARM GAS  /tmp/ccoHvmwk.s 			page 68


 3820 01d2 15       		.uleb128 0x15
 3821 01d3 01       		.byte	0x1
 3822 01d4 27       		.uleb128 0x27
 3823 01d5 19       		.uleb128 0x19
 3824 01d6 01       		.uleb128 0x1
 3825 01d7 13       		.uleb128 0x13
 3826 01d8 00       		.byte	0
 3827 01d9 00       		.byte	0
 3828 01da 23       		.uleb128 0x23
 3829 01db 34       		.uleb128 0x34
 3830 01dc 00       		.byte	0
 3831 01dd 47       		.uleb128 0x47
 3832 01de 13       		.uleb128 0x13
 3833 01df 3A       		.uleb128 0x3a
 3834 01e0 0B       		.uleb128 0xb
 3835 01e1 3B       		.uleb128 0x3b
 3836 01e2 0B       		.uleb128 0xb
 3837 01e3 39       		.uleb128 0x39
 3838 01e4 0B       		.uleb128 0xb
 3839 01e5 00       		.byte	0
 3840 01e6 00       		.byte	0
 3841 01e7 24       		.uleb128 0x24
 3842 01e8 34       		.uleb128 0x34
 3843 01e9 00       		.byte	0
 3844 01ea 03       		.uleb128 0x3
 3845 01eb 08       		.uleb128 0x8
 3846 01ec 3A       		.uleb128 0x3a
 3847 01ed 0B       		.uleb128 0xb
 3848 01ee 3B       		.uleb128 0x3b
 3849 01ef 05       		.uleb128 0x5
 3850 01f0 39       		.uleb128 0x39
 3851 01f1 0B       		.uleb128 0xb
 3852 01f2 49       		.uleb128 0x49
 3853 01f3 13       		.uleb128 0x13
 3854 01f4 00       		.byte	0
 3855 01f5 00       		.byte	0
 3856 01f6 25       		.uleb128 0x25
 3857 01f7 2E       		.uleb128 0x2e
 3858 01f8 01       		.byte	0x1
 3859 01f9 3F       		.uleb128 0x3f
 3860 01fa 19       		.uleb128 0x19
 3861 01fb 03       		.uleb128 0x3
 3862 01fc 0E       		.uleb128 0xe
 3863 01fd 3A       		.uleb128 0x3a
 3864 01fe 0B       		.uleb128 0xb
 3865 01ff 3B       		.uleb128 0x3b
 3866 0200 05       		.uleb128 0x5
 3867 0201 39       		.uleb128 0x39
 3868 0202 0B       		.uleb128 0xb
 3869 0203 27       		.uleb128 0x27
 3870 0204 19       		.uleb128 0x19
 3871 0205 01       		.uleb128 0x1
 3872 0206 13       		.uleb128 0x13
 3873 0207 00       		.byte	0
 3874 0208 00       		.byte	0
 3875 0209 26       		.uleb128 0x26
 3876 020a 05       		.uleb128 0x5
ARM GAS  /tmp/ccoHvmwk.s 			page 69


 3877 020b 00       		.byte	0
 3878 020c 03       		.uleb128 0x3
 3879 020d 0E       		.uleb128 0xe
 3880 020e 3A       		.uleb128 0x3a
 3881 020f 0B       		.uleb128 0xb
 3882 0210 3B       		.uleb128 0x3b
 3883 0211 05       		.uleb128 0x5
 3884 0212 39       		.uleb128 0x39
 3885 0213 0B       		.uleb128 0xb
 3886 0214 49       		.uleb128 0x49
 3887 0215 13       		.uleb128 0x13
 3888 0216 00       		.byte	0
 3889 0217 00       		.byte	0
 3890 0218 27       		.uleb128 0x27
 3891 0219 34       		.uleb128 0x34
 3892 021a 00       		.byte	0
 3893 021b 03       		.uleb128 0x3
 3894 021c 0E       		.uleb128 0xe
 3895 021d 3A       		.uleb128 0x3a
 3896 021e 0B       		.uleb128 0xb
 3897 021f 3B       		.uleb128 0x3b
 3898 0220 05       		.uleb128 0x5
 3899 0221 39       		.uleb128 0x39
 3900 0222 0B       		.uleb128 0xb
 3901 0223 49       		.uleb128 0x49
 3902 0224 13       		.uleb128 0x13
 3903 0225 00       		.byte	0
 3904 0226 00       		.byte	0
 3905 0227 28       		.uleb128 0x28
 3906 0228 34       		.uleb128 0x34
 3907 0229 00       		.byte	0
 3908 022a 03       		.uleb128 0x3
 3909 022b 0E       		.uleb128 0xe
 3910 022c 49       		.uleb128 0x49
 3911 022d 13       		.uleb128 0x13
 3912 022e 34       		.uleb128 0x34
 3913 022f 19       		.uleb128 0x19
 3914 0230 00       		.byte	0
 3915 0231 00       		.byte	0
 3916 0232 29       		.uleb128 0x29
 3917 0233 2E       		.uleb128 0x2e
 3918 0234 01       		.byte	0x1
 3919 0235 3F       		.uleb128 0x3f
 3920 0236 19       		.uleb128 0x19
 3921 0237 03       		.uleb128 0x3
 3922 0238 0E       		.uleb128 0xe
 3923 0239 3A       		.uleb128 0x3a
 3924 023a 0B       		.uleb128 0xb
 3925 023b 3B       		.uleb128 0x3b
 3926 023c 05       		.uleb128 0x5
 3927 023d 39       		.uleb128 0x39
 3928 023e 0B       		.uleb128 0xb
 3929 023f 27       		.uleb128 0x27
 3930 0240 19       		.uleb128 0x19
 3931 0241 49       		.uleb128 0x49
 3932 0242 13       		.uleb128 0x13
 3933 0243 01       		.uleb128 0x1
ARM GAS  /tmp/ccoHvmwk.s 			page 70


 3934 0244 13       		.uleb128 0x13
 3935 0245 00       		.byte	0
 3936 0246 00       		.byte	0
 3937 0247 2A       		.uleb128 0x2a
 3938 0248 05       		.uleb128 0x5
 3939 0249 00       		.byte	0
 3940 024a 03       		.uleb128 0x3
 3941 024b 08       		.uleb128 0x8
 3942 024c 3A       		.uleb128 0x3a
 3943 024d 0B       		.uleb128 0xb
 3944 024e 3B       		.uleb128 0x3b
 3945 024f 05       		.uleb128 0x5
 3946 0250 39       		.uleb128 0x39
 3947 0251 0B       		.uleb128 0xb
 3948 0252 49       		.uleb128 0x49
 3949 0253 13       		.uleb128 0x13
 3950 0254 00       		.byte	0
 3951 0255 00       		.byte	0
 3952 0256 2B       		.uleb128 0x2b
 3953 0257 0B       		.uleb128 0xb
 3954 0258 01       		.byte	0x1
 3955 0259 00       		.byte	0
 3956 025a 00       		.byte	0
 3957 025b 2C       		.uleb128 0x2c
 3958 025c 2E       		.uleb128 0x2e
 3959 025d 00       		.byte	0
 3960 025e 03       		.uleb128 0x3
 3961 025f 0E       		.uleb128 0xe
 3962 0260 3A       		.uleb128 0x3a
 3963 0261 0B       		.uleb128 0xb
 3964 0262 3B       		.uleb128 0x3b
 3965 0263 05       		.uleb128 0x5
 3966 0264 39       		.uleb128 0x39
 3967 0265 0B       		.uleb128 0xb
 3968 0266 27       		.uleb128 0x27
 3969 0267 19       		.uleb128 0x19
 3970 0268 00       		.byte	0
 3971 0269 00       		.byte	0
 3972 026a 2D       		.uleb128 0x2d
 3973 026b 2E       		.uleb128 0x2e
 3974 026c 01       		.byte	0x1
 3975 026d 03       		.uleb128 0x3
 3976 026e 0E       		.uleb128 0xe
 3977 026f 3A       		.uleb128 0x3a
 3978 0270 0B       		.uleb128 0xb
 3979 0271 3B       		.uleb128 0x3b
 3980 0272 05       		.uleb128 0x5
 3981 0273 39       		.uleb128 0x39
 3982 0274 0B       		.uleb128 0xb
 3983 0275 27       		.uleb128 0x27
 3984 0276 19       		.uleb128 0x19
 3985 0277 01       		.uleb128 0x1
 3986 0278 13       		.uleb128 0x13
 3987 0279 00       		.byte	0
 3988 027a 00       		.byte	0
 3989 027b 2E       		.uleb128 0x2e
 3990 027c 2E       		.uleb128 0x2e
ARM GAS  /tmp/ccoHvmwk.s 			page 71


 3991 027d 01       		.byte	0x1
 3992 027e 03       		.uleb128 0x3
 3993 027f 0E       		.uleb128 0xe
 3994 0280 3A       		.uleb128 0x3a
 3995 0281 0B       		.uleb128 0xb
 3996 0282 3B       		.uleb128 0x3b
 3997 0283 05       		.uleb128 0x5
 3998 0284 39       		.uleb128 0x39
 3999 0285 0B       		.uleb128 0xb
 4000 0286 27       		.uleb128 0x27
 4001 0287 19       		.uleb128 0x19
 4002 0288 00       		.byte	0
 4003 0289 00       		.byte	0
 4004 028a 00       		.byte	0
 4005              		.section	.gnu.debuglto_.debug_line,"e",%progbits
 4006              	.Ldebug_line0:
 4007 0000 28030000 		.4byte	.LELT0-.LSLT0
 4008              	.LSLT0:
 4009 0004 0400     		.2byte	0x4
 4010 0006 22030000 		.4byte	.LELTP0-.LASLTP0
 4011              	.LASLTP0:
 4012 000a 01       		.byte	0x1
 4013 000b 01       		.byte	0x1
 4014 000c 01       		.byte	0x1
 4015 000d F6       		.byte	0xf6
 4016 000e F2       		.byte	0xf2
 4017 000f 0D       		.byte	0xd
 4018 0010 00       		.byte	0
 4019 0011 01       		.byte	0x1
 4020 0012 01       		.byte	0x1
 4021 0013 01       		.byte	0x1
 4022 0014 01       		.byte	0x1
 4023 0015 00       		.byte	0
 4024 0016 00       		.byte	0
 4025 0017 00       		.byte	0
 4026 0018 01       		.byte	0x1
 4027 0019 00       		.byte	0
 4028 001a 00       		.byte	0
 4029 001b 01       		.byte	0x1
 4030 001c 2E2E2F2E 		.ascii	"../../../../os/common/ext/ARM/CMSIS/Core/Include"
 4030      2E2F2E2E 
 4030      2F2E2E2F 
 4030      6F732F63 
 4030      6F6D6D6F 
 4031 004c 00       		.byte	0
 4032 004d 2E2E2F2E 		.ascii	"../../../../os/common/ext/ST/STM32F3xx"
 4032      2E2F2E2E 
 4032      2F2E2E2F 
 4032      6F732F63 
 4032      6F6D6D6F 
 4033 0073 00       		.byte	0
 4034 0074 2E2E2F2E 		.ascii	"../../../../os/common/ports/ARM-common"
 4034      2E2F2E2E 
 4034      2F2E2E2F 
 4034      6F732F63 
 4034      6F6D6D6F 
 4035 009a 00       		.byte	0
ARM GAS  /tmp/ccoHvmwk.s 			page 72


 4036 009b 2E2E2F2E 		.ascii	"../../../../os/common/ports/ARMv7-M"
 4036      2E2F2E2E 
 4036      2F2E2E2F 
 4036      6F732F63 
 4036      6F6D6D6F 
 4037 00be 00       		.byte	0
 4038 00bf 2E2E2F2E 		.ascii	"../../../../os/hal/include"
 4038      2E2F2E2E 
 4038      2F2E2E2F 
 4038      6F732F68 
 4038      616C2F69 
 4039 00d9 00       		.byte	0
 4040 00da 2E2E2F2E 		.ascii	"../../../../os/hal/osal/rt-nil"
 4040      2E2F2E2E 
 4040      2F2E2E2F 
 4040      6F732F68 
 4040      616C2F6F 
 4041 00f8 00       		.byte	0
 4042 00f9 2E2E2F2E 		.ascii	"../../../../os/hal/ports/STM32/LLD/ADCv3"
 4042      2E2F2E2E 
 4042      2F2E2E2F 
 4042      6F732F68 
 4042      616C2F70 
 4043 0121 00       		.byte	0
 4044 0122 2E2E2F2E 		.ascii	"../../../../os/hal/ports/STM32/LLD/DMAv1"
 4044      2E2F2E2E 
 4044      2F2E2E2F 
 4044      6F732F68 
 4044      616C2F70 
 4045 014a 00       		.byte	0
 4046 014b 2E2E2F2E 		.ascii	"../../../../os/oslib/include"
 4046      2E2F2E2E 
 4046      2F2E2E2F 
 4046      6F732F6F 
 4046      736C6962 
 4047 0167 00       		.byte	0
 4048 0168 2E2E2F2E 		.ascii	"../../../../os/rt/include"
 4048      2E2F2E2E 
 4048      2F2E2E2F 
 4048      6F732F72 
 4048      742F696E 
 4049 0181 00       		.byte	0
 4050 0182 2F757372 		.ascii	"/usr/lib/gcc/arm-none-eabi/9.2.1/include"
 4050      2F6C6962 
 4050      2F676363 
 4050      2F61726D 
 4050      2D6E6F6E 
 4051 01aa 00       		.byte	0
 4052 01ab 00       		.byte	0
 4053 01ac 73746464 		.ascii	"stddef.h\000"
 4053      65662E68 
 4053      00
 4054 01b5 0B       		.uleb128 0xb
 4055 01b6 00       		.uleb128 0
 4056 01b7 00       		.uleb128 0
 4057 01b8 73746469 		.ascii	"stdint.h\000"
 4057      6E742E68 
ARM GAS  /tmp/ccoHvmwk.s 			page 73


 4057      00
 4058 01c1 0B       		.uleb128 0xb
 4059 01c2 00       		.uleb128 0
 4060 01c3 00       		.uleb128 0
 4061 01c4 63687479 		.ascii	"chtypes.h\000"
 4061      7065732E 
 4061      6800
 4062 01ce 03       		.uleb128 0x3
 4063 01cf 00       		.uleb128 0
 4064 01d0 00       		.uleb128 0
 4065 01d1 63686561 		.ascii	"chearly.h\000"
 4065      726C792E 
 4065      6800
 4066 01db 0A       		.uleb128 0xa
 4067 01dc 00       		.uleb128 0
 4068 01dd 00       		.uleb128 0
 4069 01de 63686F62 		.ascii	"chobjects.h\000"
 4069      6A656374 
 4069      732E6800 
 4070 01ea 0A       		.uleb128 0xa
 4071 01eb 00       		.uleb128 0
 4072 01ec 00       		.uleb128 0
 4073 01ed 63687266 		.ascii	"chrfcu.h\000"
 4073      63752E68 
 4073      00
 4074 01f6 0A       		.uleb128 0xa
 4075 01f7 00       		.uleb128 0
 4076 01f8 00       		.uleb128 0
 4077 01f9 63686465 		.ascii	"chdebug.h\000"
 4077      6275672E 
 4077      6800
 4078 0203 0A       		.uleb128 0xa
 4079 0204 00       		.uleb128 0
 4080 0205 00       		.uleb128 0
 4081 0206 63687469 		.ascii	"chtime.h\000"
 4081      6D652E68 
 4081      00
 4082 020f 0A       		.uleb128 0xa
 4083 0210 00       		.uleb128 0
 4084 0211 00       		.uleb128 0
 4085 0212 63686C69 		.ascii	"chlists.h\000"
 4085      7374732E 
 4085      6800
 4086 021c 0A       		.uleb128 0xa
 4087 021d 00       		.uleb128 0
 4088 021e 00       		.uleb128 0
 4089 021f 63687472 		.ascii	"chtrace.h\000"
 4089      6163652E 
 4089      6800
 4090 0229 0A       		.uleb128 0xa
 4091 022a 00       		.uleb128 0
 4092 022b 00       		.uleb128 0
 4093 022c 636F7265 		.ascii	"core_cm4.h\000"
 4093      5F636D34 
 4093      2E6800
 4094 0237 01       		.uleb128 0x1
 4095 0238 00       		.uleb128 0
ARM GAS  /tmp/ccoHvmwk.s 			page 74


 4096 0239 00       		.uleb128 0
 4097 023a 73797374 		.ascii	"system_stm32f3xx.h\000"
 4097      656D5F73 
 4097      746D3332 
 4097      66337878 
 4097      2E6800
 4098 024d 02       		.uleb128 0x2
 4099 024e 00       		.uleb128 0
 4100 024f 00       		.uleb128 0
 4101 0250 73746D33 		.ascii	"stm32f303xc.h\000"
 4101      32663330 
 4101      3378632E 
 4101      6800
 4102 025e 02       		.uleb128 0x2
 4103 025f 00       		.uleb128 0
 4104 0260 00       		.uleb128 0
 4105 0261 6368636F 		.ascii	"chcore.h\000"
 4105      72652E68 
 4105      00
 4106 026a 04       		.uleb128 0x4
 4107 026b 00       		.uleb128 0
 4108 026c 00       		.uleb128 0
 4109 026d 6368746D 		.ascii	"chtm.h\000"
 4109      2E6800
 4110 0274 0A       		.uleb128 0xa
 4111 0275 00       		.uleb128 0
 4112 0276 00       		.uleb128 0
 4113 0277 63687365 		.ascii	"chsem.h\000"
 4113      6D2E6800 
 4114 027f 0A       		.uleb128 0xa
 4115 0280 00       		.uleb128 0
 4116 0281 00       		.uleb128 0
 4117 0282 63686D74 		.ascii	"chmtx.h\000"
 4117      782E6800 
 4118 028a 0A       		.uleb128 0xa
 4119 028b 00       		.uleb128 0
 4120 028c 00       		.uleb128 0
 4121 028d 63687379 		.ascii	"chsys.h\000"
 4121      732E6800 
 4122 0295 0A       		.uleb128 0xa
 4123 0296 00       		.uleb128 0
 4124 0297 00       		.uleb128 0
 4125 0298 63687265 		.ascii	"chregistry.h\000"
 4125      67697374 
 4125      72792E68 
 4125      00
 4126 02a5 0A       		.uleb128 0xa
 4127 02a6 00       		.uleb128 0
 4128 02a7 00       		.uleb128 0
 4129 02a8 63686D65 		.ascii	"chmemcore.h\000"
 4129      6D636F72 
 4129      652E6800 
 4130 02b4 09       		.uleb128 0x9
 4131 02b5 00       		.uleb128 0
 4132 02b6 00       		.uleb128 0
 4133 02b7 63686D65 		.ascii	"chmempools.h\000"
 4133      6D706F6F 
ARM GAS  /tmp/ccoHvmwk.s 			page 75


 4133      6C732E68 
 4133      00
 4134 02c4 09       		.uleb128 0x9
 4135 02c5 00       		.uleb128 0
 4136 02c6 00       		.uleb128 0
 4137 02c7 63686661 		.ascii	"chfactory.h\000"
 4137      63746F72 
 4137      792E6800 
 4138 02d3 09       		.uleb128 0x9
 4139 02d4 00       		.uleb128 0
 4140 02d5 00       		.uleb128 0
 4141 02d6 73746D33 		.ascii	"stm32_dma.h\000"
 4141      325F646D 
 4141      612E6800 
 4142 02e2 08       		.uleb128 0x8
 4143 02e3 00       		.uleb128 0
 4144 02e4 00       		.uleb128 0
 4145 02e5 68616C5F 		.ascii	"hal_adc.h\000"
 4145      6164632E 
 4145      6800
 4146 02ef 05       		.uleb128 0x5
 4147 02f0 00       		.uleb128 0
 4148 02f1 00       		.uleb128 0
 4149 02f2 68616C5F 		.ascii	"hal_adc_lld.h\000"
 4149      6164635F 
 4149      6C6C642E 
 4149      6800
 4150 0300 07       		.uleb128 0x7
 4151 0301 00       		.uleb128 0
 4152 0302 00       		.uleb128 0
 4153 0303 73746D33 		.ascii	"stm32_dma.c\000"
 4153      325F646D 
 4153      612E6300 
 4154 030f 08       		.uleb128 0x8
 4155 0310 00       		.uleb128 0
 4156 0311 00       		.uleb128 0
 4157 0312 6F73616C 		.ascii	"osal.h\000"
 4157      2E6800
 4158 0319 06       		.uleb128 0x6
 4159 031a 00       		.uleb128 0
 4160 031b 00       		.uleb128 0
 4161 031c 636D7369 		.ascii	"cmsis_gcc.h\000"
 4161      735F6763 
 4161      632E6800 
 4162 0328 01       		.uleb128 0x1
 4163 0329 00       		.uleb128 0
 4164 032a 00       		.uleb128 0
 4165 032b 00       		.byte	0
 4166              	.LELTP0:
 4167              	.LELT0:
 4168              		.section	.gnu.debuglto_.debug_str,"eMS",%progbits,1
 4169              	.LASF192:
 4170 0000 6F66665F 		.ascii	"off_ctx\000"
 4170      63747800 
 4171              	.LASF75:
 4172 0008 63685F64 		.ascii	"ch_delta_list_t\000"
 4172      656C7461 
ARM GAS  /tmp/ccoHvmwk.s 			page 76


 4172      5F6C6973 
 4172      745F7400 
 4173              	.LASF5:
 4174 0018 73697A65 		.ascii	"size_t\000"
 4174      5F7400
 4175              	.LASF191:
 4176 001f 6F66665F 		.ascii	"off_prio\000"
 4176      7072696F 
 4176      00
 4177              	.LASF167:
 4178 0028 77747365 		.ascii	"wtsemp\000"
 4178      6D7000
 4179              	.LASF64:
 4180 002f 73797374 		.ascii	"systime_t\000"
 4180      696D655F 
 4180      7400
 4181              	.LASF200:
 4182 0039 6F66665F 		.ascii	"off_preempt\000"
 4182      70726565 
 4182      6D707400 
 4183              	.LASF329:
 4184 0045 2E2E2F2E 		.ascii	"../../../../os/hal/ports/STM32/LLD/DMAv1/stm32_dma."
 4184      2E2F2E2E 
 4184      2F2E2E2F 
 4184      6F732F68 
 4184      616C2F70 
 4185 0078 6300     		.ascii	"c\000"
 4186              	.LASF182:
 4187 007a 696E7374 		.ascii	"instances\000"
 4187      616E6365 
 4187      7300
 4188              	.LASF148:
 4189 0084 63685F73 		.ascii	"ch_sys_initializing\000"
 4189      79735F69 
 4189      6E697469 
 4189      616C697A 
 4189      696E6700 
 4190              	.LASF31:
 4191 0098 6F776E65 		.ascii	"owner\000"
 4191      7200
 4192              	.LASF23:
 4193 009e 74707269 		.ascii	"tprio_t\000"
 4193      6F5F7400 
 4194              	.LASF293:
 4195 00a6 61646363 		.ascii	"adccallback_t\000"
 4195      616C6C62 
 4195      61636B5F 
 4195      7400
 4196              	.LASF100:
 4197 00b4 53515231 		.ascii	"SQR1\000"
 4197      00
 4198              	.LASF101:
 4199 00b9 53515232 		.ascii	"SQR2\000"
 4199      00
 4200              	.LASF102:
 4201 00be 53515233 		.ascii	"SQR3\000"
 4201      00
ARM GAS  /tmp/ccoHvmwk.s 			page 77


 4202              	.LASF103:
 4203 00c3 53515234 		.ascii	"SQR4\000"
 4203      00
 4204              	.LASF218:
 4205 00c8 63685F64 		.ascii	"ch_debug\000"
 4205      65627567 
 4205      00
 4206              	.LASF229:
 4207 00d1 70726F76 		.ascii	"provider\000"
 4207      69646572 
 4207      00
 4208              	.LASF81:
 4209 00da 75736572 		.ascii	"user\000"
 4209      00
 4210              	.LASF6:
 4211 00df 696E7433 		.ascii	"int32_t\000"
 4211      325F7400 
 4212              	.LASF258:
 4213 00e7 4144435F 		.ascii	"ADC_ACTIVE\000"
 4213      41435449 
 4213      564500
 4214              	.LASF261:
 4215 00f2 61646373 		.ascii	"adcstate_t\000"
 4215      74617465 
 4215      5F7400
 4216              	.LASF207:
 4217 00fd 6F66665F 		.ascii	"off_sys_instances\000"
 4217      7379735F 
 4217      696E7374 
 4217      616E6365 
 4217      7300
 4218              	.LASF152:
 4219 010f 63685F76 		.ascii	"ch_virtual_timers_list\000"
 4219      69727475 
 4219      616C5F74 
 4219      696D6572 
 4219      735F6C69 
 4220              	.LASF159:
 4221 0126 72656769 		.ascii	"registry_t\000"
 4221      73747279 
 4221      5F7400
 4222              	.LASF308:
 4223 0131 5F5F6675 		.ascii	"__func__\000"
 4223      6E635F5F 
 4223      00
 4224              	.LASF275:
 4225 013a 64696673 		.ascii	"difsel\000"
 4225      656C00
 4226              	.LASF282:
 4227 0141 63666772 		.ascii	"cfgr\000"
 4227      00
 4228              	.LASF231:
 4229 0146 63685F64 		.ascii	"ch_dyn_element\000"
 4229      796E5F65 
 4229      6C656D65 
 4229      6E7400
 4230              	.LASF83:
ARM GAS  /tmp/ccoHvmwk.s 			page 78


 4231 0155 72747374 		.ascii	"rtstamp\000"
 4231      616D7000 
 4232              	.LASF210:
 4233 015d 6F66665F 		.ascii	"off_sys_reserved\000"
 4233      7379735F 
 4233      72657365 
 4233      72766564 
 4233      00
 4234              	.LASF51:
 4235 016e 636F6E66 		.ascii	"config\000"
 4235      696700
 4236              	.LASF34:
 4237 0175 73746174 		.ascii	"state\000"
 4237      6500
 4238              	.LASF61:
 4239 017b 6C6F636B 		.ascii	"lock_cnt\000"
 4239      5F636E74 
 4239      00
 4240              	.LASF55:
 4241 0184 63685F72 		.ascii	"ch_rfcu\000"
 4241      66637500 
 4242              	.LASF127:
 4243 018c 434E4454 		.ascii	"CNDTR\000"
 4243      5200
 4244              	.LASF82:
 4245 0192 74797065 		.ascii	"type\000"
 4245      00
 4246              	.LASF236:
 4247 0197 6F626A5F 		.ascii	"obj_list\000"
 4247      6C697374 
 4247      00
 4248              	.LASF151:
 4249 01a0 73797374 		.ascii	"system_state_t\000"
 4249      656D5F73 
 4249      74617465 
 4249      5F7400
 4250              	.LASF208:
 4251 01af 6F66665F 		.ascii	"off_sys_reglist\000"
 4251      7379735F 
 4251      7265676C 
 4251      69737400 
 4252              	.LASF281:
 4253 01bf 6572726F 		.ascii	"error_cb\000"
 4253      725F6362 
 4253      00
 4254              	.LASF194:
 4255 01c8 6F66665F 		.ascii	"off_older\000"
 4255      6F6C6465 
 4255      7200
 4256              	.LASF157:
 4257 01d2 63685F72 		.ascii	"ch_registry\000"
 4257      65676973 
 4257      74727900 
 4258              	.LASF74:
 4259 01de 7072696F 		.ascii	"prio\000"
 4259      00
 4260              	.LASF322:
ARM GAS  /tmp/ccoHvmwk.s 			page 79


 4261 01e3 6F73616C 		.ascii	"osalSysUnlock\000"
 4261      53797355 
 4261      6E6C6F63 
 4261      6B00
 4262              	.LASF280:
 4263 01f1 656E645F 		.ascii	"end_cb\000"
 4263      636200
 4264              	.LASF164:
 4265 01f8 65786974 		.ascii	"exitcode\000"
 4265      636F6465 
 4265      00
 4266              	.LASF270:
 4267 0201 61646363 		.ascii	"adcc\000"
 4267      00
 4268              	.LASF213:
 4269 0206 6F66665F 		.ascii	"off_inst_vtlist\000"
 4269      696E7374 
 4269      5F76746C 
 4269      69737400 
 4270              	.LASF307:
 4271 0216 656E6469 		.ascii	"endid\000"
 4271      6400
 4272              	.LASF7:
 4273 021c 6C6F6E67 		.ascii	"long int\000"
 4273      20696E74 
 4273      00
 4274              	.LASF325:
 4275 0225 706F7274 		.ascii	"port_unlock\000"
 4275      5F756E6C 
 4275      6F636B00 
 4276              	.LASF186:
 4277 0231 7A65726F 		.ascii	"zero\000"
 4277      00
 4278              	.LASF272:
 4279 0236 646D616D 		.ascii	"dmamode\000"
 4279      6F646500 
 4280              	.LASF21:
 4281 023e 74737461 		.ascii	"tstate_t\000"
 4281      74655F74 
 4281      00
 4282              	.LASF39:
 4283 0247 6570656E 		.ascii	"epending\000"
 4283      64696E67 
 4283      00
 4284              	.LASF66:
 4285 0250 63685F6C 		.ascii	"ch_list_t\000"
 4285      6973745F 
 4285      7400
 4286              	.LASF285:
 4287 025a 736D7072 		.ascii	"smpr\000"
 4287      00
 4288              	.LASF147:
 4289 025f 63685F73 		.ascii	"ch_sys_uninit\000"
 4289      79735F75 
 4289      6E696E69 
 4289      7400
 4290              	.LASF136:
ARM GAS  /tmp/ccoHvmwk.s 			page 80


 4291 026d 41504232 		.ascii	"APB2ENR\000"
 4291      454E5200 
 4292              	.LASF67:
 4293 0275 63685F6C 		.ascii	"ch_list\000"
 4293      69737400 
 4294              	.LASF155:
 4295 027d 6C617374 		.ascii	"laststamp\000"
 4295      7374616D 
 4295      7000
 4296              	.LASF237:
 4297 0287 6F626A5F 		.ascii	"obj_pool\000"
 4297      706F6F6C 
 4297      00
 4298              	.LASF330:
 4299 0290 2F686F6D 		.ascii	"/home/ubuntu/Raka/New/ChibiOS_21.11.2/testhal/STM32"
 4299      652F7562 
 4299      756E7475 
 4299      2F52616B 
 4299      612F4E65 
 4300 02c3 2F53544D 		.ascii	"/STM32F3xx/ADC\000"
 4300      33324633 
 4300      78782F41 
 4300      444300
 4301              	.LASF128:
 4302 02d2 43504152 		.ascii	"CPAR\000"
 4302      00
 4303              	.LASF302:
 4304 02d7 646D6153 		.ascii	"dmaStreamFreeI\000"
 4304      74726561 
 4304      6D467265 
 4304      654900
 4305              	.LASF323:
 4306 02e6 6F73616C 		.ascii	"osalSysLock\000"
 4306      5379734C 
 4306      6F636B00 
 4307              	.LASF224:
 4308 02f2 6D656D63 		.ascii	"memcore_t\000"
 4308      6F72655F 
 4308      7400
 4309              	.LASF3:
 4310 02fc 7369676E 		.ascii	"signed char\000"
 4310      65642063 
 4310      68617200 
 4311              	.LASF169:
 4312 0308 65776D61 		.ascii	"ewmask\000"
 4312      736B00
 4313              	.LASF8:
 4314 030f 75696E74 		.ascii	"uint8_t\000"
 4314      385F7400 
 4315              	.LASF28:
 4316 0317 636F7265 		.ascii	"core_id_t\000"
 4316      5F69645F 
 4316      7400
 4317              	.LASF25:
 4318 0321 6576656E 		.ascii	"eventmask_t\000"
 4318      746D6173 
 4318      6B5F7400 
ARM GAS  /tmp/ccoHvmwk.s 			page 81


 4319              	.LASF165:
 4320 032d 77747472 		.ascii	"wttrp\000"
 4320      7000
 4321              	.LASF95:
 4322 0333 52455345 		.ascii	"RESERVED0\000"
 4322      52564544 
 4322      3000
 4323              	.LASF98:
 4324 033d 52455345 		.ascii	"RESERVED1\000"
 4324      52564544 
 4324      3100
 4325              	.LASF9:
 4326 0347 756E7369 		.ascii	"unsigned char\000"
 4326      676E6564 
 4326      20636861 
 4326      7200
 4327              	.LASF104:
 4328 0355 52455345 		.ascii	"RESERVED3\000"
 4328      52564544 
 4328      3300
 4329              	.LASF105:
 4330 035f 52455345 		.ascii	"RESERVED4\000"
 4330      52564544 
 4330      3400
 4331              	.LASF107:
 4332 0369 52455345 		.ascii	"RESERVED5\000"
 4332      52564544 
 4332      3500
 4333              	.LASF112:
 4334 0373 52455345 		.ascii	"RESERVED6\000"
 4334      52564544 
 4334      3600
 4335              	.LASF117:
 4336 037d 52455345 		.ascii	"RESERVED7\000"
 4336      52564544 
 4336      3700
 4337              	.LASF120:
 4338 0387 52455345 		.ascii	"RESERVED8\000"
 4338      52564544 
 4338      3800
 4339              	.LASF121:
 4340 0391 52455345 		.ascii	"RESERVED9\000"
 4340      52564544 
 4340      3900
 4341              	.LASF132:
 4342 039b 444D415F 		.ascii	"DMA_TypeDef\000"
 4342      54797065 
 4342      44656600 
 4343              	.LASF59:
 4344 03a7 70616E69 		.ascii	"panic_msg\000"
 4344      635F6D73 
 4344      6700
 4345              	.LASF301:
 4346 03b1 646D6153 		.ascii	"dmaStreamFree\000"
 4346      74726561 
 4346      6D467265 
 4346      6500
ARM GAS  /tmp/ccoHvmwk.s 			page 82


 4347              	.LASF288:
 4348 03bf 61646365 		.ascii	"adcerror_t\000"
 4348      72726F72 
 4348      5F7400
 4349              	.LASF53:
 4350 03ca 74726163 		.ascii	"trace_buffer\000"
 4350      655F6275 
 4350      66666572 
 4350      00
 4351              	.LASF255:
 4352 03d7 4144435F 		.ascii	"ADC_UNINIT\000"
 4352      554E494E 
 4352      495400
 4353              	.LASF63:
 4354 03e2 73797374 		.ascii	"system_debug_t\000"
 4354      656D5F64 
 4354      65627567 
 4354      5F7400
 4355              	.LASF257:
 4356 03f1 4144435F 		.ascii	"ADC_READY\000"
 4356      52454144 
 4356      5900
 4357              	.LASF220:
 4358 03fb 5F426F6F 		.ascii	"_Bool\000"
 4358      6C00
 4359              	.LASF99:
 4360 0401 52455345 		.ascii	"RESERVED2\000"
 4360      52564544 
 4360      3200
 4361              	.LASF215:
 4362 040b 6F66665F 		.ascii	"off_inst_core_id\000"
 4362      696E7374 
 4362      5F636F72 
 4362      655F6964 
 4362      00
 4363              	.LASF286:
 4364 041c 61646373 		.ascii	"adcsample_t\000"
 4364      616D706C 
 4364      655F7400 
 4365              	.LASF62:
 4366 0428 63686172 		.ascii	"char\000"
 4366      00
 4367              	.LASF306:
 4368 042d 73746172 		.ascii	"startid\000"
 4368      74696400 
 4369              	.LASF271:
 4370 0435 646D6173 		.ascii	"dmastp\000"
 4370      747000
 4371              	.LASF131:
 4372 043c 49464352 		.ascii	"IFCR\000"
 4372      00
 4373              	.LASF239:
 4374 0441 73656D5F 		.ascii	"sem_list\000"
 4374      6C697374 
 4374      00
 4375              	.LASF204:
 4376 044a 696E7465 		.ascii	"intervalsize\000"
ARM GAS  /tmp/ccoHvmwk.s 			page 83


 4376      7276616C 
 4376      73697A65 
 4376      00
 4377              	.LASF78:
 4378 0457 77746F62 		.ascii	"wtobjp\000"
 4378      6A7000
 4379              	.LASF266:
 4380 045e 67727070 		.ascii	"grpp\000"
 4380      00
 4381              	.LASF260:
 4382 0463 4144435F 		.ascii	"ADC_ERROR\000"
 4382      4552524F 
 4382      5200
 4383              	.LASF199:
 4384 046d 6F66665F 		.ascii	"off_refs\000"
 4384      72656673 
 4384      00
 4385              	.LASF35:
 4386 0476 666C6167 		.ascii	"flags\000"
 4386      7300
 4387              	.LASF19:
 4388 047c 73746B61 		.ascii	"stkalign_t\000"
 4388      6C69676E 
 4388      5F7400
 4389              	.LASF49:
 4390 0487 636F7265 		.ascii	"core_id\000"
 4390      5F696400 
 4391              	.LASF278:
 4392 048f 63697263 		.ascii	"circular\000"
 4392      756C6172 
 4392      00
 4393              	.LASF42:
 4394 0498 6D706F6F 		.ascii	"mpool\000"
 4394      6C00
 4395              	.LASF177:
 4396 049e 6D61696E 		.ascii	"mainthread_end\000"
 4396      74687265 
 4396      61645F65 
 4396      6E6400
 4397              	.LASF309:
 4398 04ad 646D6149 		.ascii	"dmaInit\000"
 4398      6E697400 
 4399              	.LASF303:
 4400 04b5 7072696F 		.ascii	"priority\000"
 4400      72697479 
 4400      00
 4401              	.LASF188:
 4402 04be 70747273 		.ascii	"ptrsize\000"
 4402      697A6500 
 4403              	.LASF138:
 4404 04c6 42444352 		.ascii	"BDCR\000"
 4404      00
 4405              	.LASF118:
 4406 04cb 41574432 		.ascii	"AWD2CR\000"
 4406      435200
 4407              	.LASF30:
 4408 04d2 72717565 		.ascii	"rqueue\000"
ARM GAS  /tmp/ccoHvmwk.s 			page 84


 4408      756500
 4409              	.LASF201:
 4410 04d9 6F66665F 		.ascii	"off_time\000"
 4410      74696D65 
 4410      00
 4411              	.LASF26:
 4412 04e2 636E745F 		.ascii	"cnt_t\000"
 4412      7400
 4413              	.LASF243:
 4414 04e8 70697065 		.ascii	"pipe_list\000"
 4414      5F6C6973 
 4414      7400
 4415              	.LASF154:
 4416 04f2 6C617374 		.ascii	"lasttime\000"
 4416      74696D65 
 4416      00
 4417              	.LASF124:
 4418 04fb 4144435F 		.ascii	"ADC_TypeDef\000"
 4418      54797065 
 4418      44656600 
 4419              	.LASF125:
 4420 0507 52455345 		.ascii	"RESERVED\000"
 4420      52564544 
 4420      00
 4421              	.LASF88:
 4422 0510 62756666 		.ascii	"buffer\000"
 4422      657200
 4423              	.LASF232:
 4424 0517 64796E5F 		.ascii	"dyn_element_t\000"
 4424      656C656D 
 4424      656E745F 
 4424      7400
 4425              	.LASF168:
 4426 0525 77746D74 		.ascii	"wtmtxp\000"
 4426      787000
 4427              	.LASF172:
 4428 052c 63685F72 		.ascii	"ch_ready_list\000"
 4428      65616479 
 4428      5F6C6973 
 4428      7400
 4429              	.LASF45:
 4430 053a 63685F6F 		.ascii	"ch_os_instance\000"
 4430      735F696E 
 4430      7374616E 
 4430      636500
 4431              	.LASF294:
 4432 0549 61646365 		.ascii	"adcerrorcallback_t\000"
 4432      72726F72 
 4432      63616C6C 
 4432      6261636B 
 4432      5F7400
 4433              	.LASF240:
 4434 055c 73656D5F 		.ascii	"sem_pool\000"
 4434      706F6F6C 
 4434      00
 4435              	.LASF94:
 4436 0565 43464752 		.ascii	"CFGR\000"
ARM GAS  /tmp/ccoHvmwk.s 			page 85


 4436      00
 4437              	.LASF122:
 4438 056a 44494653 		.ascii	"DIFSEL\000"
 4438      454C00
 4439              	.LASF197:
 4440 0571 6F66665F 		.ascii	"off_state\000"
 4440      73746174 
 4440      6500
 4441              	.LASF331:
 4442 057b 63685379 		.ascii	"chSysUnlock\000"
 4442      73556E6C 
 4442      6F636B00 
 4443              	.LASF13:
 4444 0587 6C6F6E67 		.ascii	"long unsigned int\000"
 4444      20756E73 
 4444      69676E65 
 4444      6420696E 
 4444      7400
 4445              	.LASF69:
 4446 0599 63685F71 		.ascii	"ch_queue_t\000"
 4446      75657565 
 4446      5F7400
 4447              	.LASF190:
 4448 05a4 74687265 		.ascii	"threadsize\000"
 4448      61647369 
 4448      7A6500
 4449              	.LASF324:
 4450 05af 63685379 		.ascii	"chSysLock\000"
 4450      734C6F63 
 4450      6B00
 4451              	.LASF54:
 4452 05b9 72666375 		.ascii	"rfcu_mask_t\000"
 4452      5F6D6173 
 4452      6B5F7400 
 4453              	.LASF296:
 4454 05c5 70617261 		.ascii	"param\000"
 4454      6D00
 4455              	.LASF91:
 4456 05cb 53797374 		.ascii	"SystemCoreClock\000"
 4456      656D436F 
 4456      7265436C 
 4456      6F636B00 
 4457              	.LASF170:
 4458 05db 63685F73 		.ascii	"ch_semaphore\000"
 4458      656D6170 
 4458      686F7265 
 4458      00
 4459              	.LASF250:
 4460 05e8 73686966 		.ascii	"shift\000"
 4460      7400
 4461              	.LASF247:
 4462 05ee 6368616E 		.ascii	"channel\000"
 4462      6E656C00 
 4463              	.LASF44:
 4464 05f6 63685F74 		.ascii	"ch_thread\000"
 4464      68726561 
 4464      6400
ARM GAS  /tmp/ccoHvmwk.s 			page 86


 4465              	.LASF156:
 4466 0600 76697274 		.ascii	"virtual_timers_list_t\000"
 4466      75616C5F 
 4466      74696D65 
 4466      72735F6C 
 4466      6973745F 
 4467              	.LASF254:
 4468 0616 5F73746D 		.ascii	"_stm32_dma_streams\000"
 4468      33325F64 
 4468      6D615F73 
 4468      74726561 
 4468      6D7300
 4469              	.LASF96:
 4470 0629 534D5052 		.ascii	"SMPR1\000"
 4470      3100
 4471              	.LASF97:
 4472 062f 534D5052 		.ascii	"SMPR2\000"
 4472      3200
 4473              	.LASF242:
 4474 0635 6669666F 		.ascii	"fifo_list\000"
 4474      5F6C6973 
 4474      7400
 4475              	.LASF253:
 4476 063f 73746D33 		.ascii	"stm32_dma_stream_t\000"
 4476      325F646D 
 4476      615F7374 
 4476      7265616D 
 4476      5F7400
 4477              	.LASF174:
 4478 0652 72656164 		.ascii	"ready_list_t\000"
 4478      795F6C69 
 4478      73745F74 
 4478      00
 4479              	.LASF223:
 4480 065f 746F706D 		.ascii	"topmem\000"
 4480      656D00
 4481              	.LASF41:
 4482 0666 7265616C 		.ascii	"realprio\000"
 4482      7072696F 
 4482      00
 4483              	.LASF321:
 4484 066f 56656374 		.ascii	"Vector6C\000"
 4484      6F723643 
 4484      00
 4485              	.LASF27:
 4486 0678 75636E74 		.ascii	"ucnt_t\000"
 4486      5F7400
 4487              	.LASF196:
 4488 067f 6F66665F 		.ascii	"off_stklimit\000"
 4488      73746B6C 
 4488      696D6974 
 4488      00
 4489              	.LASF226:
 4490 068c 706F6F6C 		.ascii	"pool_header\000"
 4490      5F686561 
 4490      64657200 
 4491              	.LASF327:
ARM GAS  /tmp/ccoHvmwk.s 			page 87


 4492 0698 62617365 		.ascii	"basePri\000"
 4492      50726900 
 4493              	.LASF276:
 4494 06a0 41444343 		.ascii	"ADCConversionGroup\000"
 4494      6F6E7665 
 4494      7273696F 
 4494      6E47726F 
 4494      757000
 4495              	.LASF57:
 4496 06b3 72666375 		.ascii	"rfcu_t\000"
 4496      5F7400
 4497              	.LASF259:
 4498 06ba 4144435F 		.ascii	"ADC_COMPLETE\000"
 4498      434F4D50 
 4498      4C455445 
 4498      00
 4499              	.LASF139:
 4500 06c7 41484252 		.ascii	"AHBRSTR\000"
 4500      53545200 
 4501              	.LASF287:
 4502 06cf 6164635F 		.ascii	"adc_channels_num_t\000"
 4502      6368616E 
 4502      6E656C73 
 4502      5F6E756D 
 4502      5F7400
 4503              	.LASF320:
 4504 06e2 56656374 		.ascii	"Vector70\000"
 4504      6F723730 
 4504      00
 4505              	.LASF319:
 4506 06eb 56656374 		.ascii	"Vector74\000"
 4506      6F723734 
 4506      00
 4507              	.LASF212:
 4508 06f4 6F66665F 		.ascii	"off_inst_rlist\000"
 4508      696E7374 
 4508      5F726C69 
 4508      737400
 4509              	.LASF318:
 4510 0703 56656374 		.ascii	"Vector78\000"
 4510      6F723738 
 4510      00
 4511              	.LASF89:
 4512 070c 74726163 		.ascii	"trace_buffer_t\000"
 4512      655F6275 
 4512      66666572 
 4512      5F7400
 4513              	.LASF317:
 4514 071b 56656374 		.ascii	"Vector7C\000"
 4514      6F723743 
 4514      00
 4515              	.LASF40:
 4516 0724 6D74786C 		.ascii	"mtxlist\000"
 4516      69737400 
 4517              	.LASF184:
 4518 072c 63685F63 		.ascii	"ch_core0_cfg\000"
 4518      6F726530 
ARM GAS  /tmp/ccoHvmwk.s 			page 88


 4518      5F636667 
 4518      00
 4519              	.LASF1:
 4520 0739 6C6F6E67 		.ascii	"long long int\000"
 4520      206C6F6E 
 4520      6720696E 
 4520      7400
 4521              	.LASF65:
 4522 0747 73797369 		.ascii	"sysinterval_t\000"
 4522      6E746572 
 4522      76616C5F 
 4522      7400
 4523              	.LASF235:
 4524 0755 63685F6F 		.ascii	"ch_objects_factory\000"
 4524      626A6563 
 4524      74735F66 
 4524      6163746F 
 4524      727900
 4525              	.LASF72:
 4526 0768 63685F70 		.ascii	"ch_priority_queue_t\000"
 4526      72696F72 
 4526      6974795F 
 4526      71756575 
 4526      655F7400 
 4527              	.LASF316:
 4528 077c 56656374 		.ascii	"Vector80\000"
 4528      6F723830 
 4528      00
 4529              	.LASF315:
 4530 0785 56656374 		.ascii	"Vector84\000"
 4530      6F723834 
 4530      00
 4531              	.LASF269:
 4532 078e 6164636D 		.ascii	"adcm\000"
 4532      00
 4533              	.LASF133:
 4534 0793 41504232 		.ascii	"APB2RSTR\000"
 4534      52535452 
 4534      00
 4535              	.LASF265:
 4536 079c 64657074 		.ascii	"depth\000"
 4536      6800
 4537              	.LASF56:
 4538 07a2 6D61736B 		.ascii	"mask\000"
 4538      00
 4539              	.LASF228:
 4540 07a7 616C6967 		.ascii	"align\000"
 4540      6E00
 4541              	.LASF268:
 4542 07ad 6D757465 		.ascii	"mutex\000"
 4542      7800
 4543              	.LASF90:
 4544 07b3 49544D5F 		.ascii	"ITM_RxBuffer\000"
 4544      52784275 
 4544      66666572 
 4544      00
 4545              	.LASF305:
ARM GAS  /tmp/ccoHvmwk.s 			page 89


 4546 07c0 646D6153 		.ascii	"dmaStreamAllocI\000"
 4546      74726561 
 4546      6D416C6C 
 4546      6F634900 
 4547              	.LASF119:
 4548 07d0 41574433 		.ascii	"AWD3CR\000"
 4548      435200
 4549              	.LASF283:
 4550 07d7 61776432 		.ascii	"awd2cr\000"
 4550      637200
 4551              	.LASF149:
 4552 07de 63685F73 		.ascii	"ch_sys_running\000"
 4552      79735F72 
 4552      756E6E69 
 4552      6E6700
 4553              	.LASF193:
 4554 07ed 6F66665F 		.ascii	"off_newer\000"
 4554      6E657765 
 4554      7200
 4555              	.LASF251:
 4556 07f7 73656C66 		.ascii	"selfindex\000"
 4556      696E6465 
 4556      7800
 4557              	.LASF16:
 4558 0801 706F7274 		.ascii	"port_rtcnt_t\000"
 4558      5F727463 
 4558      6E745F74 
 4558      00
 4559              	.LASF0:
 4560 080e 756E7369 		.ascii	"unsigned int\000"
 4560      676E6564 
 4560      20696E74 
 4560      00
 4561              	.LASF209:
 4562 081b 6F66665F 		.ascii	"off_sys_rfcu\000"
 4562      7379735F 
 4562      72666375 
 4562      00
 4563              	.LASF18:
 4564 0828 7274636E 		.ascii	"rtcnt_t\000"
 4564      745F7400 
 4565              	.LASF43:
 4566 0830 6F735F69 		.ascii	"os_instance_t\000"
 4566      6E737461 
 4566      6E63655F 
 4566      7400
 4567              	.LASF140:
 4568 083e 43464752 		.ascii	"CFGR2\000"
 4568      3200
 4569              	.LASF141:
 4570 0844 43464752 		.ascii	"CFGR3\000"
 4570      3300
 4571              	.LASF279:
 4572 084a 6E756D5F 		.ascii	"num_channels\000"
 4572      6368616E 
 4572      6E656C73 
 4572      00
ARM GAS  /tmp/ccoHvmwk.s 			page 90


 4573              	.LASF129:
 4574 0857 434D4152 		.ascii	"CMAR\000"
 4574      00
 4575              	.LASF173:
 4576 085c 63757272 		.ascii	"current\000"
 4576      656E7400 
 4577              	.LASF289:
 4578 0864 41444344 		.ascii	"ADCD1\000"
 4578      3100
 4579              	.LASF145:
 4580 086a 6F666673 		.ascii	"offset\000"
 4580      657400
 4581              	.LASF291:
 4582 0871 41444344 		.ascii	"ADCD3\000"
 4582      3300
 4583              	.LASF292:
 4584 0877 41444344 		.ascii	"ADCD4\000"
 4584      3400
 4585              	.LASF161:
 4586 087d 6C697374 		.ascii	"list\000"
 4586      00
 4587              	.LASF274:
 4588 0882 68616C5F 		.ascii	"hal_adc_config\000"
 4588      6164635F 
 4588      636F6E66 
 4588      696700
 4589              	.LASF76:
 4590 0891 63685F64 		.ascii	"ch_delta_list\000"
 4590      656C7461 
 4590      5F6C6973 
 4590      7400
 4591              	.LASF153:
 4592 089f 646C6973 		.ascii	"dlist\000"
 4592      7400
 4593              	.LASF221:
 4594 08a5 6D656D67 		.ascii	"memgetfunc_t\000"
 4594      65746675 
 4594      6E635F74 
 4594      00
 4595              	.LASF202:
 4596 08b2 6F66665F 		.ascii	"off_reserved\000"
 4596      72657365 
 4596      72766564 
 4596      00
 4597              	.LASF29:
 4598 08bf 74687265 		.ascii	"thread_t\000"
 4598      61645F74 
 4598      00
 4599              	.LASF179:
 4600 08c8 69646C65 		.ascii	"idlethread_end\000"
 4600      74687265 
 4600      61645F65 
 4600      6E6400
 4601              	.LASF2:
 4602 08d7 6C6F6E67 		.ascii	"long double\000"
 4602      20646F75 
 4602      626C6500 
ARM GAS  /tmp/ccoHvmwk.s 			page 91


 4603              	.LASF160:
 4604 08e3 74687265 		.ascii	"thread_reference_t\000"
 4604      61645F72 
 4604      65666572 
 4604      656E6365 
 4604      5F7400
 4605              	.LASF85:
 4606 08f6 74726163 		.ascii	"trace_event_t\000"
 4606      655F6576 
 4606      656E745F 
 4606      7400
 4607              	.LASF166:
 4608 0904 73656E74 		.ascii	"sentmsg\000"
 4608      6D736700 
 4609              	.LASF143:
 4610 090c 706F7274 		.ascii	"port_intctx\000"
 4610      5F696E74 
 4610      63747800 
 4611              	.LASF263:
 4612 0918 68616C5F 		.ascii	"hal_adc_driver\000"
 4612      6164635F 
 4612      64726976 
 4612      657200
 4613              	.LASF244:
 4614 0927 6F626A65 		.ascii	"objects_factory_t\000"
 4614      6374735F 
 4614      66616374 
 4614      6F72795F 
 4614      7400
 4615              	.LASF238:
 4616 0939 6275665F 		.ascii	"buf_list\000"
 4616      6C697374 
 4616      00
 4617              	.LASF248:
 4618 0942 636D6173 		.ascii	"cmask\000"
 4618      6B00
 4619              	.LASF60:
 4620 0948 6973725F 		.ascii	"isr_cnt\000"
 4620      636E7400 
 4621              	.LASF130:
 4622 0950 444D415F 		.ascii	"DMA_Channel_TypeDef\000"
 4622      4368616E 
 4622      6E656C5F 
 4622      54797065 
 4622      44656600 
 4623              	.LASF92:
 4624 0964 41484250 		.ascii	"AHBPrescTable\000"
 4624      72657363 
 4624      5461626C 
 4624      6500
 4625              	.LASF246:
 4626 0972 73746D33 		.ascii	"stm32_dmaisr_t\000"
 4626      325F646D 
 4626      61697372 
 4626      5F7400
 4627              	.LASF137:
 4628 0981 41504231 		.ascii	"APB1ENR\000"
ARM GAS  /tmp/ccoHvmwk.s 			page 92


 4628      454E5200 
 4629              	.LASF227:
 4630 0989 6F626A65 		.ascii	"object_size\000"
 4630      63745F73 
 4630      697A6500 
 4631              	.LASF87:
 4632 0995 73697A65 		.ascii	"size\000"
 4632      00
 4633              	.LASF15:
 4634 099a 6C6F6E67 		.ascii	"long long unsigned int\000"
 4634      206C6F6E 
 4634      6720756E 
 4634      7369676E 
 4634      65642069 
 4635              	.LASF297:
 4636 09b1 616C6C6F 		.ascii	"allocated_mask\000"
 4636      63617465 
 4636      645F6D61 
 4636      736B00
 4637              	.LASF304:
 4638 09c0 646D6153 		.ascii	"dmaStreamAlloc\000"
 4638      74726561 
 4638      6D416C6C 
 4638      6F6300
 4639              	.LASF10:
 4640 09cf 75696E74 		.ascii	"uint16_t\000"
 4640      31365F74 
 4640      00
 4641              	.LASF195:
 4642 09d8 6F66665F 		.ascii	"off_name\000"
 4642      6E616D65 
 4642      00
 4643              	.LASF176:
 4644 09e1 6D61696E 		.ascii	"mainthread_base\000"
 4644      74687265 
 4644      61645F62 
 4644      61736500 
 4645              	.LASF24:
 4646 09f1 6D73675F 		.ascii	"msg_t\000"
 4646      7400
 4647              	.LASF314:
 4648 09f7 56656374 		.ascii	"Vector120\000"
 4648      6F723132 
 4648      3000
 4649              	.LASF313:
 4650 0a01 56656374 		.ascii	"Vector124\000"
 4650      6F723132 
 4650      3400
 4651              	.LASF312:
 4652 0a0b 56656374 		.ascii	"Vector128\000"
 4652      6F723132 
 4652      3800
 4653              	.LASF77:
 4654 0a15 64656C74 		.ascii	"delta\000"
 4654      6100
 4655              	.LASF17:
 4656 0a1b 706F7274 		.ascii	"port_stkalign_t\000"
ARM GAS  /tmp/ccoHvmwk.s 			page 93


 4656      5F73746B 
 4656      616C6967 
 4656      6E5F7400 
 4657              	.LASF311:
 4658 0a2b 56656374 		.ascii	"Vector12C\000"
 4658      6F723132 
 4658      4300
 4659              	.LASF262:
 4660 0a35 41444344 		.ascii	"ADCDriver\000"
 4660      72697665 
 4660      7200
 4661              	.LASF36:
 4662 0a3f 72656673 		.ascii	"refs\000"
 4662      00
 4663              	.LASF158:
 4664 0a44 71756575 		.ascii	"queue\000"
 4664      6500
 4665              	.LASF79:
 4666 0a4a 72656173 		.ascii	"reason\000"
 4666      6F6E00
 4667              	.LASF252:
 4668 0a51 76656374 		.ascii	"vector\000"
 4668      6F7200
 4669              	.LASF245:
 4670 0a58 63685F66 		.ascii	"ch_factory\000"
 4670      6163746F 
 4670      727900
 4671              	.LASF241:
 4672 0a63 6D62785F 		.ascii	"mbx_list\000"
 4672      6C697374 
 4672      00
 4673              	.LASF52:
 4674 0a6c 6D61696E 		.ascii	"mainthread\000"
 4674      74687265 
 4674      616400
 4675              	.LASF310:
 4676 0a77 56656374 		.ascii	"Vector130\000"
 4676      6F723133 
 4676      3000
 4677              	.LASF187:
 4678 0a81 76657273 		.ascii	"version\000"
 4678      696F6E00 
 4679              	.LASF80:
 4680 0a89 68616C74 		.ascii	"halt\000"
 4680      00
 4681              	.LASF332:
 4682 0a8e 5F5F7365 		.ascii	"__set_BASEPRI\000"
 4682      745F4241 
 4682      53455052 
 4682      4900
 4683              	.LASF300:
 4684 0a9c 646D6153 		.ascii	"dmaServeInterrupt\000"
 4684      65727665 
 4684      496E7465 
 4684      72727570 
 4684      7400
 4685              	.LASF284:
ARM GAS  /tmp/ccoHvmwk.s 			page 94


 4686 0aae 61776433 		.ascii	"awd3cr\000"
 4686      637200
 4687              	.LASF33:
 4688 0ab5 77616261 		.ascii	"wabase\000"
 4688      736500
 4689              	.LASF230:
 4690 0abc 6D656D6F 		.ascii	"memory_pool_t\000"
 4690      72795F70 
 4690      6F6F6C5F 
 4690      7400
 4691              	.LASF203:
 4692 0aca 696E7463 		.ascii	"intctxsize\000"
 4692      74787369 
 4692      7A6500
 4693              	.LASF84:
 4694 0ad5 74696D65 		.ascii	"time\000"
 4694      00
 4695              	.LASF216:
 4696 0ada 6F66665F 		.ascii	"off_inst_rfcu\000"
 4696      696E7374 
 4696      5F726663 
 4696      7500
 4697              	.LASF46:
 4698 0ae8 726C6973 		.ascii	"rlist\000"
 4698      7400
 4699              	.LASF20:
 4700 0aee 746D6F64 		.ascii	"tmode_t\000"
 4700      655F7400 
 4701              	.LASF249:
 4702 0af6 64756D6D 		.ascii	"dummy\000"
 4702      7900
 4703              	.LASF256:
 4704 0afc 4144435F 		.ascii	"ADC_STOP\000"
 4704      53544F50 
 4704      00
 4705              	.LASF108:
 4706 0b05 4F465231 		.ascii	"OFR1\000"
 4706      00
 4707              	.LASF109:
 4708 0b0a 4F465232 		.ascii	"OFR2\000"
 4708      00
 4709              	.LASF110:
 4710 0b0f 4F465233 		.ascii	"OFR3\000"
 4710      00
 4711              	.LASF111:
 4712 0b14 4F465234 		.ascii	"OFR4\000"
 4712      00
 4713              	.LASF162:
 4714 0b19 70717565 		.ascii	"pqueue\000"
 4714      756500
 4715              	.LASF86:
 4716 0b20 73757370 		.ascii	"suspended\000"
 4716      656E6465 
 4716      6400
 4717              	.LASF146:
 4718 0b2a 746D5F63 		.ascii	"tm_calibration_t\000"
 4718      616C6962 
ARM GAS  /tmp/ccoHvmwk.s 			page 95


 4718      72617469 
 4718      6F6E5F74 
 4718      00
 4719              	.LASF264:
 4720 0b3b 73616D70 		.ascii	"samples\000"
 4720      6C657300 
 4721              	.LASF267:
 4722 0b43 74687265 		.ascii	"thread\000"
 4722      616400
 4723              	.LASF214:
 4724 0b4a 6F66665F 		.ascii	"off_inst_reglist\000"
 4724      696E7374 
 4724      5F726567 
 4724      6C697374 
 4724      00
 4725              	.LASF32:
 4726 0b5b 6E616D65 		.ascii	"name\000"
 4726      00
 4727              	.LASF326:
 4728 0b60 706F7274 		.ascii	"port_lock\000"
 4728      5F6C6F63 
 4728      6B00
 4729              	.LASF93:
 4730 0b6a 41504250 		.ascii	"APBPrescTable\000"
 4730      72657363 
 4730      5461626C 
 4730      6500
 4731              	.LASF142:
 4732 0b78 5243435F 		.ascii	"RCC_TypeDef\000"
 4732      54797065 
 4732      44656600 
 4733              	.LASF175:
 4734 0b84 63685F6F 		.ascii	"ch_os_instance_config\000"
 4734      735F696E 
 4734      7374616E 
 4734      63655F63 
 4734      6F6E6669 
 4735              	.LASF123:
 4736 0b9a 43414C46 		.ascii	"CALFACT\000"
 4736      41435400 
 4737              	.LASF4:
 4738 0ba2 73686F72 		.ascii	"short int\000"
 4738      7420696E 
 4738      7400
 4739              	.LASF180:
 4740 0bac 6F735F69 		.ascii	"os_instance_config_t\000"
 4740      6E737461 
 4740      6E63655F 
 4740      636F6E66 
 4740      69675F74 
 4741              	.LASF150:
 4742 0bc1 63685F73 		.ascii	"ch_sys_halted\000"
 4742      79735F68 
 4742      616C7465 
 4742      6400
 4743              	.LASF73:
 4744 0bcf 63685F70 		.ascii	"ch_priority_queue\000"
ARM GAS  /tmp/ccoHvmwk.s 			page 96


 4744      72696F72 
 4744      6974795F 
 4744      71756575 
 4744      6500
 4745              	.LASF14:
 4746 0be1 75696E74 		.ascii	"uint64_t\000"
 4746      36345F74 
 4746      00
 4747              	.LASF295:
 4748 0bea 66756E63 		.ascii	"func\000"
 4748      00
 4749              	.LASF171:
 4750 0bef 63685F6D 		.ascii	"ch_mutex\000"
 4750      75746578 
 4750      00
 4751              	.LASF134:
 4752 0bf8 41504231 		.ascii	"APB1RSTR\000"
 4752      52535452 
 4752      00
 4753              	.LASF50:
 4754 0c01 72666375 		.ascii	"rfcu\000"
 4754      00
 4755              	.LASF38:
 4756 0c06 6D736771 		.ascii	"msgqueue\000"
 4756      75657565 
 4756      00
 4757              	.LASF58:
 4758 0c0f 63685F73 		.ascii	"ch_system_debug\000"
 4758      79737465 
 4758      6D5F6465 
 4758      62756700 
 4759              	.LASF234:
 4760 0c1f 64796E5F 		.ascii	"dyn_list_t\000"
 4760      6C697374 
 4760      5F7400
 4761              	.LASF48:
 4762 0c2a 7265676C 		.ascii	"reglist\000"
 4762      69737400 
 4763              	.LASF135:
 4764 0c32 41484245 		.ascii	"AHBENR\000"
 4764      4E5200
 4765              	.LASF70:
 4766 0c39 63685F71 		.ascii	"ch_queue\000"
 4766      75657565 
 4766      00
 4767              	.LASF113:
 4768 0c42 4A445231 		.ascii	"JDR1\000"
 4768      00
 4769              	.LASF114:
 4770 0c47 4A445232 		.ascii	"JDR2\000"
 4770      00
 4771              	.LASF115:
 4772 0c4c 4A445233 		.ascii	"JDR3\000"
 4772      00
 4773              	.LASF116:
 4774 0c51 4A445234 		.ascii	"JDR4\000"
 4774      00
ARM GAS  /tmp/ccoHvmwk.s 			page 97


 4775              	.LASF299:
 4776 0c56 73747265 		.ascii	"streams\000"
 4776      616D7300 
 4777              	.LASF106:
 4778 0c5e 4A535152 		.ascii	"JSQR\000"
 4778      00
 4779              	.LASF47:
 4780 0c63 76746C69 		.ascii	"vtlist\000"
 4780      737400
 4781              	.LASF37:
 4782 0c6a 77616974 		.ascii	"waiting\000"
 4782      696E6700 
 4783              	.LASF211:
 4784 0c72 6F66665F 		.ascii	"off_inst_rlist_current\000"
 4784      696E7374 
 4784      5F726C69 
 4784      73745F63 
 4784      75727265 
 4785              	.LASF219:
 4786 0c89 6D757465 		.ascii	"mutex_t\000"
 4786      785F7400 
 4787              	.LASF22:
 4788 0c91 74726566 		.ascii	"trefs_t\000"
 4788      735F7400 
 4789              	.LASF222:
 4790 0c99 62617365 		.ascii	"basemem\000"
 4790      6D656D00 
 4791              	.LASF206:
 4792 0ca1 6F66665F 		.ascii	"off_sys_state\000"
 4792      7379735F 
 4792      73746174 
 4792      6500
 4793              	.LASF144:
 4794 0caf 706F7274 		.ascii	"port_context\000"
 4794      5F636F6E 
 4794      74657874 
 4794      00
 4795              	.LASF328:
 4796 0cbc 474E5520 		.ascii	"GNU C17 9.2.1 20191025 (release) [ARM/arm-9-branch "
 4796      43313720 
 4796      392E322E 
 4796      31203230 
 4796      31393130 
 4797 0cef 72657669 		.ascii	"revision 277599] -mcpu=cortex-m4 -mthumb -mfloat-ab"
 4797      73696F6E 
 4797      20323737 
 4797      3539395D 
 4797      202D6D63 
 4798 0d22 693D736F 		.ascii	"i=soft -march=armv7e-m -ggdb -O2 -fomit-frame-point"
 4798      6674202D 
 4798      6D617263 
 4798      683D6172 
 4798      6D763765 
 4799 0d55 6572202D 		.ascii	"er -falign-functions=16 -ffunction-sections -fdata-"
 4799      66616C69 
 4799      676E2D66 
 4799      756E6374 
ARM GAS  /tmp/ccoHvmwk.s 			page 98


 4799      696F6E73 
 4800 0d88 73656374 		.ascii	"sections -fno-common -flto\000"
 4800      696F6E73 
 4800      202D666E 
 4800      6F2D636F 
 4800      6D6D6F6E 
 4801              	.LASF181:
 4802 0da3 63685F73 		.ascii	"ch_system\000"
 4802      79737465 
 4802      6D00
 4803              	.LASF12:
 4804 0dad 75696E74 		.ascii	"uint32_t\000"
 4804      33325F74 
 4804      00
 4805              	.LASF298:
 4806 0db6 6973725F 		.ascii	"isr_mask\000"
 4806      6D61736B 
 4806      00
 4807              	.LASF163:
 4808 0dbf 7264796D 		.ascii	"rdymsg\000"
 4808      736700
 4809              	.LASF11:
 4810 0dc6 73686F72 		.ascii	"short unsigned int\000"
 4810      7420756E 
 4810      7369676E 
 4810      65642069 
 4810      6E7400
 4811              	.LASF183:
 4812 0dd9 63685F73 		.ascii	"ch_system_t\000"
 4812      79737465 
 4812      6D5F7400 
 4813              	.LASF217:
 4814 0de5 63686465 		.ascii	"chdebug_t\000"
 4814      6275675F 
 4814      7400
 4815              	.LASF189:
 4816 0def 74696D65 		.ascii	"timesize\000"
 4816      73697A65 
 4816      00
 4817              	.LASF178:
 4818 0df8 69646C65 		.ascii	"idlethread_base\000"
 4818      74687265 
 4818      61645F62 
 4818      61736500 
 4819              	.LASF277:
 4820 0e08 68616C5F 		.ascii	"hal_adc_configuration_group\000"
 4820      6164635F 
 4820      636F6E66 
 4820      69677572 
 4820      6174696F 
 4821              	.LASF205:
 4822 0e24 696E7374 		.ascii	"instancesnum\000"
 4822      616E6365 
 4822      736E756D 
 4822      00
 4823              	.LASF126:
 4824 0e31 4144435F 		.ascii	"ADC_Common_TypeDef\000"
ARM GAS  /tmp/ccoHvmwk.s 			page 99


 4824      436F6D6D 
 4824      6F6E5F54 
 4824      79706544 
 4824      656600
 4825              	.LASF225:
 4826 0e44 63685F6D 		.ascii	"ch_memcore\000"
 4826      656D636F 
 4826      726500
 4827              	.LASF198:
 4828 0e4f 6F66665F 		.ascii	"off_flags\000"
 4828      666C6167 
 4828      7300
 4829              	.LASF68:
 4830 0e59 6E657874 		.ascii	"next\000"
 4830      00
 4831              	.LASF290:
 4832 0e5e 41444344 		.ascii	"ADCD2\000"
 4832      3200
 4833              	.LASF71:
 4834 0e64 70726576 		.ascii	"prev\000"
 4834      00
 4835              	.LASF233:
 4836 0e69 63685F64 		.ascii	"ch_dyn_list\000"
 4836      796E5F6C 
 4836      69737400 
 4837              	.LASF185:
 4838 0e75 6964656E 		.ascii	"identifier\000"
 4838      74696669 
 4838      657200
 4839              	.LASF273:
 4840 0e80 41444343 		.ascii	"ADCConfig\000"
 4840      6F6E6669 
 4840      6700
 4841              		.text
 4842              		.section	.gnu.lto_.profile.4abf36066c602afc,"e",%progbits
 4843 0000 789CE360 		.ascii	"x\234\343``\004B \000\000\000]\000\013"
 4843      60044220 
 4843      0000005D 
 4843      000B
 4844              		.text
 4845              		.section	.gnu.lto_.icf.4abf36066c602afc,"e",%progbits
 4846 0000 789CE360 		.ascii	"x\234\343``dx\300\200\000\252\014\177{[W12=x\330\263"
 4846      606478C0 
 4846      8000AA0C 
 4846      7F7B5B57 
 4846      31323D78 
 4847 0016 9B9979FA 		.ascii	"\233\231y\372\254\306\277\334,\255\335\277\227\360\263"
 4847      ACC6BFDC 
 4847      2CADDDBF 
 4847      97F0B3
 4848 0025 36359CEF 		.ascii	"65\234\357\345b;\333u\251\231\217}\315\3555g\3318v\257"
 4848      E5623BDB 
 4848      75A9998F 
 4848      7DCDED35 
 4848      67D93876 
 4849 003a 7E7C8E93 		.ascii	"~|\216\223\363\317\316\306\335\234\\/Z\336la\342\236"
 4849      F3CFCEC6 
ARM GAS  /tmp/ccoHvmwk.s 			page 100


 4849      DD9C5C2F 
 4849      5ADE6C61 
 4849      E29E
 4850 004c BAE7DE1C 		.ascii	"\272\347\336\034>\236\003\333.m`\341\335\273`\327'."
 4850      3E9E03DB 
 4850      2E6D60E1 
 4850      DDBB60D7 
 4850      272E
 4851 005e BEBD6B5E 		.ascii	"\276\275k^\315\345\344?t\361\322n6\0010[p\337\266\343"
 4851      CDE5E43F 
 4851      74F1D26E 
 4851      3601305B 
 4851      70DFB6E3 
 4852 0072 6B9984C0 		.ascii	"k\231\204\300l\341\343\017\336-f\022\001\263E\277\375"
 4852      6CE1E30F 
 4852      DE2D6612 
 4852      01B345BF 
 4852      FD
 4853 0083 3AFA995F 		.ascii	":\372\231_\014\314\026\337\365`\373m>\0110[r\317\345"
 4853      0CCC16DF 
 4853      F560FB6D 
 4853      3E09305B 
 4853      72CFE5
 4854 0096 7BB719A5 		.ascii	"{\267\031\245\300l\351\263\277\2277\262\310lx\264\353"
 4854      C06CE9B3 
 4854      BF9737B2 
 4854      C86C78B4 
 4854      EB
 4855 00a7 1F87ECD2 		.ascii	"\037\207\354\322\265'\326\261\311\201\331\362\277\272"
 4855      B527D6B1 
 4855      C981D9F2 
 4855      BFBA
 4856 00b5 3E2CE057 		.ascii	">,\340W\000\263\025{fo:\313\247\004f+\177\353?\261\202"
 4856      00B3157B 
 4856      666F3ACB 
 4856      A704662B 
 4856      7FEB3FB1 
 4857 00ca 4905CC56 		.ascii	"I\005\314V\335v\376\317\016n\006\000\005\312t\003"
 4857      DD76FECF 
 4857      0E6E0600 
 4857      05CA7403 
 4858              		.text
 4859              		.section	.gnu.lto_.jmpfuncs.4abf36066c602afc,"e",%progbits
 4860 0000 789CADD4 		.ascii	"x\234\255\324\337kS1\024\007\360\234\344\366\366\266"
 4860      DF6B5331 
 4860      1407F09C 
 4860      E4F6F6B6 
 4861 0010 EB8F3144 		.ascii	"\353\2171D\304+2\304'\365i\177`7\034\354i\014\361\241"
 4861      C42B32C4 
 4861      27F5697F 
 4861      60371CEC 
 4861      690CF1A1 
 4862 0024 A39351A1 		.ascii	"\243\223Q\241\202\014_\212/\202\373\321\326\255]]\247"
 4862      820C5F8A 
 4862      2F82FBD1 
 4862      D6AD5D5D 
 4862      A7
ARM GAS  /tmp/ccoHvmwk.s 			page 101


 4863 0035 9D3AFA50 		.ascii	"\235:\372Pq\010\023Da\016\025q\017\312\365\2449\253"
 4863      71081344 
 4863      610E1571 
 4863      0FCAF5A4 
 4863      39AB
 4864 0047 69D7240E 		.ascii	"i\327$\016\034\204\221\334$\337ONno\300\200\355\004"
 4864      1C8491DC 
 4864      24DF4F4E 
 4864      6E6FC080 
 4864      ED04
 4865 0059 ACFF7701 		.ascii	"\254\377w\001\033\027%\301\030T=`\330~EQ\224\005\261"
 4865      1B1725C1 
 4865      18543D60 
 4865      D87E4551 
 4865      9405B1
 4866 006c 286061F6 		.ascii	"(`a\366\370 X\020E\201k\340)\204\262y\177'\002p\234"
 4866      F8205810 
 4866      45816BE0 
 4866      2984B279 
 4866      7F270270 
 4867 0081 B47D7CB4 		.ascii	"\264}|\264\017r\022\340\244U\010qhc~\257%\324\020\300"
 4867      0F7212E0 
 4867      A4550871 
 4867      68637EAF 
 4867      25D410C0 
 4868 0095 1A845C8E 		.ascii	"\032\204\\\216\367\22716\270\207|8j\026\023\3621d\247"
 4868      F7973136 
 4868      B8877C38 
 4868      6A1613F2 
 4868      3164A7
 4869 00a8 8B820336 		.ascii	"\213\202\0036\374/\260y\332\352H\021\372N\216\204\365"
 4869      FC2FB079 
 4869      DAEA4811 
 4869      FA4E8E84 
 4869      F5
 4870 00b9 1EE177F3 		.ascii	"\036\341w\363Q7\251\206p\322\006\272s\240\255\223Gd"
 4870      5137A986 
 4870      70D206BA 
 4870      73A0AD93 
 4870      4764
 4871 00cb 3E63F1C1 		.ascii	">c\361\301\010l\002\233\027x96<{\304\006^\216\237\035"
 4871      086C029B 
 4871      17783936 
 4871      3C7BC406 
 4871      5E8E9F1D 
 4872 00df 12C343B2 		.ascii	"\022\303C\262\2720\\\335\323r\262\204\022\300\220\200"
 4872      BA305CDD 
 4872      D372B284 
 4872      12C09080 
 4873 00ef FD57024B 		.ascii	"\375W\002Kb\006\0362\306\007k'\213%\213#\211\334D\374"
 4873      62061E32 
 4873      C6076B27 
 4873      8B258B23 
 4873      89DC44FC 
 4874 0103 B7DB4AC9 		.ascii	"\267\333J\311c`\002\343#\340,M\371\336\231'\375~Fq\360"
 4874      636002E3 
 4874      23E02C4D 
ARM GAS  /tmp/ccoHvmwk.s 			page 102


 4874      F9DE9927 
 4874      FD7E4671 
 4875 0118 EEAACD2F 		.ascii	"\356\252\315/\371\224\272\273\014T \234\236\314\320"
 4875      F994BABB 
 4875      0C54209C 
 4875      9ECCD0
 4876 0127 4B2A8C65 		.ascii	"K*\214e\344\362}=\372\\y\310\247\3123\343E\341\227\360"
 4876      E4F27D3D 
 4876      FA5C79C8 
 4876      A7CA33E3 
 4876      45E197F0 
 4877 013b EDB911B2 		.ascii	"\355\271\021\262^\000LY\326Yv\035\247\330\330\371bo"
 4877      5E004C59 
 4877      D659761D 
 4877      A7D8D8F9 
 4877      626F
 4878 014d AAD89A23 		.ascii	"\252\330\232#\326\270\353\004\305\372\366\330\271\372"
 4878      D6B8EB04 
 4878      C5FAF6D8 
 4878      B9FA
 4879 015b 9DD5B42C 		.ascii	"\235\325\264,S\274\367#\230\371~\257\001\232\342\031"
 4879      53BCF723 
 4879      98F97EAF 
 4879      019AE219 
 4880 016b 28C6A683 		.ascii	"(\306\246\203aL9\3752\304\317w\372[*v\313\021k\334\365"
 4880      614C39FD 
 4880      32C4CF77 
 4880      FA5B2A76 
 4880      CB116BDC 
 4881 0180 22C506F6 		.ascii	"\"\305\006\366\330\203\333\313')uzO~\002>t\346\003M"
 4881      D883DBCB 
 4881      2729757A 
 4881      4F7E023E 
 4881      74E6034D 
 4882 0194 51A7D337 		.ascii	"Q\247\3237\034\014c\312%b$\354\214\316\273\322}P\214"
 4882      1C0C63CA 
 4882      256224EC 
 4882      8CCEBBD2 
 4882      7D508C
 4883 01a7 187657CA 		.ascii	"\030vW\312\337\312\236\306\330&F\323\3010\246\\&F\322"
 4883      DFCA9EC6 
 4883      D82646D3 
 4883      C130A65C 
 4883      2646D2
 4884 01ba CE78D22E 		.ascii	"\316x\322.,\372\212\341c\267\266\266\3648\2551\236\023"
 4884      2CFA8AE1 
 4884      63B7B6B6 
 4884      F438AD31 
 4884      9E13
 4885 01cc 63C7C130 		.ascii	"c\307\3010\246\\!\306\230\235\361\276\360 O\2148v\017"
 4885      A65C21C6 
 4885      989DF1BE 
 4885      F0204F8C 
 4885      38760F
 4886 01df 3F2D9FC4 		.ascii	"?-\237\3044F\213\030\273\016\2061\345*1RvF%\312W<\305"
 4886      34468B18 
 4886      BB0E8631 
ARM GAS  /tmp/ccoHvmwk.s 			page 103


 4886      E52A3152 
 4886      764625CA 
 4887 01f6 08B0FB73 		.ascii	"\010\260\373sk\266\243_\312\013b\274t0\214)\223\304"
 4887      6BB6A35F 
 4887      CA0B62BC 
 4887      74308C29 
 4887      93C4
 4888 0208 48DB1987 		.ascii	"H\333\031\207\355\342\034\275\033\011\371Y{\373u%\256"
 4888      EDE21CBD 
 4888      1B09F959 
 4888      7BFB7525 
 4888      AE
 4889 0219 31DAC4D8 		.ascii	"1\332\304\330s0\214)\327\210\221\2613j\233w;\304Hb\267"
 4889      73308C29 
 4889      D78891B1 
 4889      336A9B77 
 4889      3BC44862 
 4890 022e DB2D54F5 		.ascii	"\333-T\365KyE\214\327\016\2061\345:1\262vF\253\361q"
 4890      4B79458C 
 4890      D70E8631 
 4890      E53A31B2 
 4890      7646ABF1 
 4891 0243 4928C618 		.ascii	"I(\306\030v\327\033?\352\276\306xC\214}\007\303\234"
 4891      76D71B3F 
 4891      EABEC678 
 4891      438C7D07 
 4891      C39C
 4892 0255 F2072045 		.ascii	"\362\007 EJ3"
 4892      4A33
 4893              		.text
 4894              		.section	.gnu.lto_.inline.4abf36066c602afc,"e",%progbits
 4895 0000 789CAD92 		.ascii	"x\234\255\222\315+DQ\024\300\3179\367y\363\314\0143"
 4895      CD2B4451 
 4895      14C0CF39 
 4895      F779F3CC 
 4895      0C33
 4896 0012 A649BED2 		.ascii	"\246I\276\322Kv\266\326\226\226\363/\210\301\314\024"
 4896      4B76B6D6 
 4896      9696F32F 
 4896      88C1CC14 
 4897 0022 F117687C 		.ascii	"\361\027h|l\0061\013%6\0246\224\324\0242\251\331P\312"
 4897      6C06310B 
 4897      25361436 
 4897      94D41432 
 4897      A9D950CA 
 4898 0036 86282145 		.ascii	"\206(!E\232\225\262\262\235q\356\275c\336P\330\334;"
 4898      9A95B2B2 
 4898      9D71EEBD 
 4898      63DE50D8 
 4898      DC3B
 4899 0048 35EFBCD3 		.ascii	"5\357\274\323\271\277\373;\347>\007\020:m\250\256(@"
 4899      B9BFFB3B 
 4899      E73E0710 
 4899      3A6DA8AE 
 4899      2840
 4900 005a E86DEB39 		.ascii	"\350m\3539C\011\004\212L\247\323\2334\002`\247y\321"
 4900      4309048A 
ARM GAS  /tmp/ccoHvmwk.s 			page 104


 4900      4CA7D39B 
 4900      340260A7 
 4900      79D1
 4901 006c 3001C91A 		.ascii	"0\001\311\032\012\360\037\352z\312\306\274\000\3752"
 4901      0AF01FEA 
 4901      7ACAC6BC 
 4901      00FD32
 4902 007b 12D07B71 		.ascii	"\022\320{qv\277#FQ\220;\271*pi\366\375\311Y\022\033"
 4902      76BF2346 
 4902      51903BB9 
 4902      2A7069F6 
 4902      FDC95912 
 4903 0090 4220E009 		.ascii	"B \340\011\266\003\271\023\225'S\254\376\363\303\231"
 4903      B603B913 
 4903      952753AC 
 4903      FEF3C399 
 4904 00a0 1B1AFD76 		.ascii	"\033\032\375v\212u\267\230\331\023\003\020\206\310\342"
 4904      8A75B798 
 4904      D9130310 
 4904      86C8E2
 4905 00af ECF6110D 		.ascii	"\354\366\021\015Z`)v\2207\310\263\2621\033\032\346J"
 4905      5A602976 
 4905      9037C8B3 
 4905      B2311B1A 
 4905      E64A
 4906 00c1 0B054AB1 		.ascii	"\013\005J\261h\224\243cJ\375\024\365A\343\303K\351B"
 4906      6894A363 
 4906      4AFD14F5 
 4906      41E3C34B 
 4906      E942
 4907 00d3 2450803B 		.ascii	"$P\200;\306&\271\327\353\025[\232\020\0060\317\006\340"
 4907      C626B9D7 
 4907      EB155B9A 
 4907      100630CF 
 4907      06E0
 4908 00e5 8E579E28 		.ascii	"\216W\236(\305\201\033NO1\246T.\227E\\\231h\"\233\360"
 4908      C5811B4E 
 4908      4F31A654 
 4908      2E97455C 
 4908      9968229B 
 4909 00fa B243806C 		.ascii	"\262C\200l\"\217\227?9\010\207'\241\373\256\207 \227"
 4909      228F973F 
 4909      39088727 
 4909      A1FBAE87 
 4909      2097
 4910 010c 1E509285 		.ascii	"\036P\222\205H\355\212\377\024\322\205\222\342At\316"
 4910      48ED8AFF 
 4910      14D28592 
 4910      E24174CE 
 4911 011c 0F3DBBC7 		.ascii	"\017=\273\307\247r3\202\203 &\255\276\227\217\253]\221"
 4911      A7723382 
 4911      832026AD 
 4911      BE978FAB 
 4911      5D91
 4912 012e E013E6F7 		.ascii	"\340\023\346\367\227o5\002\025m\210\255\010|\034\026"
 4912      976F3502 
 4912      156D88AD 
ARM GAS  /tmp/ccoHvmwk.s 			page 105


 4912      087C1C16 
 4913 013e C4B09A8B 		.ascii	"\304\260\232\213U\271\023\255T{7Ap\270.\373\277\324"
 4913      55B913AD 
 4913      547B3741 
 4913      70B82EFB 
 4913      BFD4
 4914 0150 1740BF35 		.ascii	"\027@\2775@\353z\256\370\310_\201\245u\344\200x>2N\252"
 4914      40EB7AAE 
 4914      F8C85F81 
 4914      A575E480 
 4914      783E324E 
 4915 0165 D8F5B715 		.ascii	"\330\365\267\025/\327\362\352\336\246\253\270Z\301J"
 4915      2FD7F2EA 
 4915      DEA6ABB8 
 4915      5AC14A
 4916 0174 CC72D5AC 		.ascii	"\314r\325\254\343e\035/\033\366\262a/\353zYW\265X\327"
 4916      E3651D2F 
 4916      1BF6B261 
 4916      2FEB7A59 
 4916      57B558D7 
 4917 0188 A47BCAC6 		.ascii	"\244{\312\306\032\325\244\347\324\325{w\366kS\177\274"
 4917      1AD5A4E7 
 4917      D4D57B77 
 4917      F66B537F 
 4917      BC
 4918 0199 848D9122 		.ascii	"\204\215\221\"\306HQc\244fc\244\026c\2446c\244\016c"
 4918      C6485163 
 4918      A46663A4 
 4918      1663A436 
 4918      63A40E63 
 4919 01ad A44E6324 		.ascii	"\244Nc$\327\030\251\313\030\251\333\030\011>\0014v\351"
 4919      D718A9CB 
 4919      18A9DB18 
 4919      093E0134 
 4919      76E9
 4920 01bf 82       		.ascii	"\202"
 4921              		.text
 4922              		.section	.gnu.lto_.pureconst.4abf36066c602afc,"e",%progbits
 4923 0000 789C05C1 		.ascii	"x\234\005\301\211\011\2000\020E\301\015\276x\241\"\022"
 4923      89098030 
 4923      1045C10D 
 4923      BE78A122 
 4923      12
